:06254400014B0001440000
:102C8900D3E5149427E51394012275130175142CC7
:012C99002218
:1029EC008F1275A0407F017E00122B18E512540740
:1029FC00F54BE54B4544F5807F017E00122B187595
:032A0C00A0A02265
:1029C6008F5675A0407F017E00122B18E5563333D3
:1029D600335438F544E544454BF5807F017E0012BB
:0629E6002B1875A0A022D1
:101A9A00E4F512F513F51443A00FF51375140AE5CE
:101AAA00141514AE13700215134E7003021B79122B
:101ABA001B7CF512640F60E7E51224F5603424FEFE
:101ACA00605614607924076003021B76122C93E592
:101ADA001445136012E514151470021513121B7CB9
:101AEA00640760EB7F0422122C8940037F00227F67
:101AFA000422122C93E51445136012E51415147090
:101B0A00021513121B88640B60EB7F0322122C89C7
:101B1A0040037F00227F0322122C93E514451360B1
:101B2A0012E514151470021513121B88640D60EB6C
:101B3A007F0222122C8940037F00227F0222122C6C
:101B4A0093E5144513601AE5141514700215137FF2
:101B5A00017E00122B18E5A0540F640E60E37F018A
:101B6A0022122C8940037F00227F01227F00227FDC
:011B7A00006A
:101B7B00227F017E00122B18E5A0540F227F017EDD
:091B8B0000122B18E5A0540F22F2
:0626D4008B1D8A1E891F08
:1026DA001207D39002B7F09002B67401F09002B6D6
:1026EA00E0FFC39D5020A3E0FEAB1DAA1EA91F8FC9
:1026FA00827583001207ECFFEE6F9002B7F090022A
:0B270A00B6E004F080D79002B7E0FFBB
:0127150022A1
:06203F00AA058F828E83CA
:10204500BA02047F0180027F00BA01047E0180028A
:102055007E00EE4F600C740C2AFAE5821582700240
:102065001583EA2401FFE433FE7C007D0312084D4D
:102075007D0512085FAC06AD07EA75F002A47A008B
:102085002BFFEA35F0CF2DCF3CCF2582FDEF3583F1
:10209500FCE582AE837802CEC313CE13D8F92DFBAF
:1020A500EC3EFA7C007D64AF82AE8312085FC3EB21
:1020B5009FFBEA9EFAAE83AF827C017D9012085F9A
:1020C500EF2BFFEE3AFE7C007D0712085FED04FF63
:0120D50022E8
:102B1800EF1FAA0670011E4A6013E4FCFDC3ED9482
:0D2B28001CEC940250EA0DBD00010C80F081
:012B3500227D
:0B2EC200EF1FAC0670011E4C70F622E2
:102B3600F548AE47AF488E47EF22F546AE45AF465D
:0E2B46008E45EF22F54AAE49AF4A8E49EF2286
:0B2ECD007F0A7E00122B1875BBFF224D
:102CAB00438901758AFB758CDBD28CD2A9D2AF22FA
:102BC900759850438920EF6007E4F58BF58D8006F1
:0B2BD900758BFD758DFDD28ED2AC22F5
:0D2E8100759A50759CB8438E1475AF0122F0
:10228D00122B3854FE122B3654FD122B3654FB12E2
:10229D002B3654F7122B3654EF122B3654DF122BEC
:1022AD003654BF122B36547FF548122B4C44011275
:1022BD002B4A4402122B4A54FB122B4A4404F54A72
:1022CD00122B424402122B404404122B404408129C
:1022DD002B404410122B4054DF122B4054BF122BB5
:1022ED00404480F5467F0C900295E4F0A3DFFCE4BA
:1022FD00FF1229ECE490021FF07F01FE122B181241
:06230D002B4C54F7F54AC9
:0123130022A7
:102A0F00122ECDE4FF122BC9122E81122CAB1222E3
:102A1F008DE4F5A05380F775A0A012279A122F3FCF
:032A2F00022C482E
:062F3900122A0F02170628
:102889000B00000000000000000000000000000034
:10289900000000000000000000000000000000002F
:1028A9000000000000000000D6C81F56D16872B0B1
:10197E00E0FF04F0747A2FF582E43402F5837402EA
:10198E00F0900279E0FF04F0747A2FF582E43402CD
:10199E00F583227B80780090027B120A0A12097866
:1019AE00AC00AD01AE02AF032274A12557F582E45F
:1019BE003402F583E004F074A12557F582E4340275
:1019CE00F58322F583E024D0F0741E2FF582E434E3
:1019DE0002F583E022AE49AF4A8E49EF2290027F94
:1019EE00E0241BF582E43402F583E022F0E0C454D7
:1019FE00F0F0E0FF2274202FF582E43402F583E04C
:101A0E002290027FE0241DF582E43402F583E02269
:101A1E00741C2FF582E43402F583E02290027FE0FD
:101A2E00FF241FF582E43402221208E0A804A3A9C1
:101A3E0005AA06AB07E022900279E0FE04F0747A64
:101A4E002E22741A2FF582E43402F583E022AE457D
:101A5E00AF468E45EF227B807A51790178000209DC
:101A6E007874952557F582E43402F58322F09002BE
:101A7E007FE004F02290021F7401F0FF7E0022909E
:0C1A8E00027FE0FFC32290027B020A0AE4
:10170600E4F510AE49AF4AEF7807CEC313CE13D82F
:10171600F930E03090021FE0640170281219E3549A
:101726007FF54A7F011229EC121A83122B18E490D6
:101736000278F07F01FE122B187BFF7A2879897DCB
:1017460030122716AE45AF46EF7807CEC313CE1339
:10175600D8F930E00D121EEA121EEA121A5C547F06
:10176600F546AE49AF4AEF7802CEC313CE13D8F989
:1017760030E059AE45AF46EF7805CEC313CE13D849
:10178600F930E005121D698021120CEFAE45AF4617
:10179600EF7806CEC313CE13D8F930E00D121A5CDB
:1017A60054BFF546121A9AEF70FA1219E354FBF574
:1017B6004AAE49AF4AEF7805CEC313CE13D8F930F7
:1017C600E00A121C891219E354DFF54A121A9AEF3D
:1017D6006401703FAE45AF46EF7805CEC313CE1316
:1017E600D8F95401F4FF7E00EF54017805C333CED7
:1017F60033CED8F9FFAC45AD46ED54DFFDEC4EF5E2
:1018060045ED4FF5461219E34404F54A121A5C44B5
:1018160040F546121A9ABF0403120A79121A9ABFA1
:101826000303120F62AE47AF48EEC4F854F0C8EF98
:10183600C4540F4820E003021709120046AE47AF12
:10184600488E47EF54EFF5481219E34401F54A0272
:02185600170970
:1000460090027B120A220000000090021FE060036B
:10005600020350900278E0D394145003020338E070
:1000660094504003020338900220E06424600302A7
:100076000338A3E064476003020338A3E0645060DA
:1000860003020338A3E064526003020338A3E0646A
:100096004D6003020338A3E064436003020338A300
:1000A600E0642C60030203381204BF90027F7407D9
:1000B600F0121A8D940D5010121A03C39430500387
:1000C600020338121A7C80E9900227E0C394334079
:1000D60003020338A3E0C3943A4003020338A3E0C3
:1000E600C394364003020338A3E0C3943A400302A4
:1000F6000338A3E0C394364003020338A3E0C39455
:100106003A400302033890027F7407F0121A8D9466
:100116000D500A121A0324D0121A7B80EF90022780
:10012600E07010A3E0C39402500280159002277479
:10013600018019900227E0B4011FA3E0C394025086
:1001460006E02408F080259002277402F0A3E0F46C
:1001560004FFC374FE9FF08013900227E0B4020CE4
:10016600E4F0A3E0F404FFC374049FF0900227E0D8
:100176009002251219FA900228E0FEEF4E90022511
:10018600F0900229E09002261219FA90022AE0FE67
:10019600EF4E900226F090022BE09002271219FAF9
:1001A60090022CE0FEEF4E900227F0E4900280F0E1
:1001B600900278E090027FF090027FE0FFD39407F0
:1001C600401C121A03B42C06900280E004F0900240
:1001D60080E06403600890027FE014F080DA121A6F
:1001E6002AF583E0C3943A40030203381219D7C3B1
:1001F600943A4003020338121A0FC39433400302A1
:100206000338121A1EC3943240030203381219EB44
:10021600C3943A4003020338121A50C3943440037D
:1002260002033890027FE0121A2FF583E0C3943060
:1002360050030203381219D7C3943050030203380F
:10024600121A0FC394305003020338121A1EC394B5
:100256003050030203381219EBC3943050030203E3
:1002660038121A50C394305003020338121A2A1255
:1002760019D124D0F0741D2F121A1524D0F0121A99
:100286001E24D0F0741B2F1219F124D0F0741A2FEB
:10029600F582E434021219D19002211219FA900261
:1002A6007FE0FE121A2FF583E0FDEF4D900221F05C
:1002B600741C2E121A219002221219FA90027FE063
:1002C600FE121A13FDEF4D900222F0741A2E121A26
:1002D600539002231219FA1219EBFEEF4E900223E5
:1002E600F0900221E024D0FFE43407FEA3E0FDA352
:1002F600E0FB12203F900281EFF0E0FF600A122837
:10030600197F017E00122B18900221E0FFA3E0FD69
:10031600A3E0FB900225E0F515A3E0F516A3E0F5B2
:10032600171225F01219E354EFF54A7F017E0012E9
:100336002B181219E354F712050BE4FF1229ECE40B
:1003460090021FF07F01FE02049390021FE06401F9
:1003560060030204961204BF90024874D8F0A37496
:1003660066F0A3741BF0A37418F0900248E0FFE453
:10037600FCFDFE74FFFBFAF978001208EDC004904C
:100386000249121A3DFF7E007CFF7DFF12084DE4F4
:10039600FCFDD000121A3775F0FFA4FFAEF0E4FCA6
:1003A600FD121A37FFE4FCFDFE1208E090027B12F4
:1003B6000A16121A94EF2480FFEE3470FEE43DFD17
:1003C600E43CFC90027B120A167B3E7A8579E17842
:1003D60001121A94120978EF249CFFEE34FF900262
:1003E60079F0A3EFF0900221F07B3E7A8579E178EF
:1003F600011219A57B6F7A2079287800120978EF07
:1004060004900222F07B6F7A2079281219A3121A1F
:1004160064900223EFF07A5179011219A1E47B105E
:100426007A0EF9F8120978900225EFF0E47B107A3B
:100436000EF9F81219A5E47B3CFAF9F8120978903E
:100446000226EFF0E47B3CFAF9F8121A94120978C6
:10045600900227EBF090022474AAF07B017A0279CD
:10046600207D081227167A3A79091219A1121A6400
:10047600EF04FF900281F01204EE1225F01219E348
:1004860054BF12050B7F011229EC121A83022B1896
:1004960090021FE06402702090027FF0121A8D9481
:1004A60008500A121A0324E0121A7B80EF900224E5
:0804B600E0FF1204EE1225F034
:1004BE00227F021229EC90021F7402F07F017E004F
:1004CE00122B187F017E00122B187B017A027920E5
:1004DE00900278E0FD1227167F0A7E00122B18225A
:1004EE00122819900221E0FFA3E0FDA3E0FB900289
:1004FE0025E0F515A3E0F516A3E0F51722F54A7FE2
:07050E000A7E00122B1822E7
:101C89000557E557C3940C4003E4F557E4900279EE
:101C9900F090027A7401F0A3742CF0900279740622
:101CA900F0AF571224ED7F647E00122B18AF571244
:101CB90024ED90027AE07002A3E07003021D4B90BC
:101CC900027A74FFF5F01208B47F017E00122B1816
:101CD90075150075160075170C7B017A02790A12C1
:101CE9001FA3EF60CD90020AE0B402C6A3E0B4A539
:101CF900C1A3E0B45ABCA3E0B4A5B7A3E0B45AB2F7
:101D0900A3E0B4A5ADA3E0645A70A7A3E064A570ED
:101D1900A1A3E0645A709BA3E0F47096900215E0C9
:101D29006403708E900214E0B5570C1219C5E4F0E3
:101D3900121A6F7401F0221219B7E0C39403401FFD
:101D49008018900279E004F0E0C394065003021C65
:0F1D59009A1219B7E0C394034005121A6FE4F011
:011D68002258
:101EEA00E4900279F012197E7420F07F06121F80A6
:101EFA00EFF07F05121F80EFF07F04121F95121971
:101F0A0099EFF07F03122BE49002ADEFF0E0540753
:101F1A00F0E0FF121A45121999EFF07F02121F958D
:101F2A00121999EFF07F01122BE4121A451219992E
:101F3A00EFF0E4FF122BE4EF547FFF121A45121957
:101F4A0099EFF0900279E0247A121999E0041219B3
:101F5A008E7401F090027912197E7403F07B017A73
:101F6A0002797A7D0C122B727F647E00122B187F05
:061F7A000A7E00022B1894
:101F8000122BE4900279E0FE04F0747A2EF582E4DC
:101F90003402F58322122BE4900279E0FE04F074FF
:031FA0007A2E2274
:072F2B00C1C2BBCAAB472184
:102C9A0090027AE0FFC3941022900279F0E4A3F044
:012CAA002207
:1028E900E49002B3F0E49002B4F0E49002B5F09001
:1028F90002B5E004F0E0B433F69002B4E004F0E08D
:0D290900B440E79002B3E004F0E0B41ED843
:01291600229E
:0420D6008E118F12C6
:1020DA00E4F5A07480122CA3122C9A50051221390F
:1020EA0080F6E490027AF07488122CA3122C9A508B
:1020FA000512213980F6E490027AF0900279749000
:10210A00F0E4A3F0122C9A500512215380F6E490C1
:10211A00027AF09002797498F0E4A3F0122C9A50A3
:0E212A000512215380F6E490027AF075A0A011
:1021380022900279E02FFF1212C07F2012143A7FFA
:102148002012143A90027AE004F022900279E02FEB
:10215800FF1212C07F2012143A7F2012143A900204
:052168007AE004F02202
:102945008D58E4F5A01212C0E55875F00A842430BC
:10295500FF12143AE55875F00A84E5F02430FF12A9
:0B296500143A7F3A12143A75A0A02229
:0A216D008F138D148B158A16891745
:10217700E4F5A07F01FE122B18E513D39403400367
:10218700751303E514D394084003751408E5131475
:1021970060101460131460162403701AE514248069
:1021A7008010E5142488800AE51424908004E5143F
:1021B7002498900290F0900290E02514F0E0FF122E
:1021C70012C0AB15AA16A9171207D390028FF06495
:1021D70021601C74012517F517E43516F5169002D2
:1021E7008FE0FF12143A7F017E00122B1880D37FF5
:0921F700017E00122B1875A0A056
:0122000022BB
:10279A00E4F5A07F331227D07F301212C012291716
:1027AA007F301227D07F011212C07F0A7E00122BBF
:1027BA0018122EF97F0A7E00122B187F207E001233
:1027CA0020D675A0A0221212C07F0A7E00122B18F2
:0127DA0022DC
:10291700E4900279F0E490027AF0E490027BF09080
:10292700027BE004F0E0B433F690027AE004F0E0D2
:0D293700B440E7900279E004F0E0B403D86A
:012944002270
:0A2EF9007F301212C07F0C0212C0DD
:0A2F03007F301212C07F080212C0D6
:0A2F0D007F361212C07F300212C09E
:0A2F17007F341212C07F300212C096
:10248B00E49002B9F01224E39002B81224D0C28275
:10249B001224DB1224E3001224DB9002B91224D0A5
:1024AB00C2829002B8E054F0FFF0A3E0C4540FF0E6
:1024BB00540FF04F9002B8F07F017E00122EC290A5
:0424CB0002B8E0FF74
:1024CF0022E580F07F017E00122EC2227F017E0066
:0E24DF00122EC22212239BD280D281D28222E0
:02143A008F1809
:10143C00E4900291F012239BE51854F0900291F085
:10144C00120A53148300148710148D201493301433
:10145C009D4014A15014A76014AD7014B78014BB38
:10146C009014C1A014C7B014D1C014D5D014DBE0B3
:10147C0014E1F0000014E9C2848002D284C2858099
:10148C000AC284D2858004D284D285C286C2878067
:10149C004CC2848002D284C285800AC284D28580E8
:1014AC0004D284D285D286C2878032C2848002D292
:1014BC0084C285800AC284D2858004D284D285C23B
:1014CC0086D2878018C2848002D284C285800AC2E8
:1014DC0084D2858004D284D285D286D2871215A478
:1014EC00C2827F057E00122EC2E518C454F0900211
:1014FC0091F054F0F0120A53153800153C101542B7
:10150C0020154830155240155650155C6015627008
:10151C00156C801570901576A0157CB01586C015CD
:10152C008AD01590E01596F00000159EC2848002BA
:10153C00D284C285800AC284D2858004D284D285AA
:10154C00C286C287804CC2848002D284C285800A43
:10155C00C284D2858004D284D285D286C28780325E
:10156C00C2848002D284C285800AC284D28580045F
:10157C00D284D285C286D2878018C2848002D2845B
:10158C00C285800AC284D2858004D284D285D28658
:07159C00D2871215A4C282E0
:0F15A30022D280C281D2827F057E00122EC22208
:0212C0008F1885
:1012C200E4900291F012239BE51854F0900291F001
:1012D200120A53130D0013111013092013173013A0
:1012E2002140132550132B60133170133B80133FA1
:1012F200901345A0134BB01355C01359D0135FE0A0
:101302001365F00000136DC284800CC2848002D287
:1013120084C2858004D284D285C286C287804CC2B0
:10132200848002D284C285800AC284D2858004D29B
:1013320084D285D286C2878032C2848002D284C29D
:1013420085800AC284D2858004D284D285C286D2A4
:10135200878018C2848002D284C285800AC284D265
:10136200858004D284D285D286D2877F017E001204
:101372002EC212142CC2827F017E00122EC2E518E8
:10138200C454F0900291F0120A5313C00013C41017
:1013920013CA2013D03013DA4013DE5013E4601363
:1013A200EA7013F48013F89013FEA01404B0140E24
:1013B200C01412D01418E0141EF000001426C284C7
:1013C2008002D284C285800AC284D2858004D284FB
:1013D200D285C286C287804CC2848002D284C285F2
:1013E200800AC284D2858004D284D285D286C28702
:1013F2008032C2848002D284C285800AC284D285AD
:101402008004D284D285C286D2878018C2848002A8
:10141200D284C285800AC284D2858004D284D285D5
:09142200D286D28712142CC2827A
:0F142B0022C280C281D2827F017E00122EC22295
:10239B00E4900293F0A3F0900292F01223F79002D4
:1023AB0093122408C28200007F017E00122EC212FB
:1023BB0023F7900294122408C2820000900294E04A
:1023CB00C4540FF0540FFFF0900293E054F0F04F11
:1023DB00F07F017E00122EC2900293E030E70C904A
:0B23EB000292E004F0E0C3941440B044
:1023F600227580F0C280D281D2827F017E00122EA9
:0D240600C222E580F07F017E00122EC2226E
:102A55002020A440A447A454A57CA4ADA4BBA4E90C
:102A6500212020A46CC4C1B373BD75AAACBA4120A2
:022A750020211E
:10241300E0FF04F0747B2FF582E43402F58374202B
:10242300F090027AE0FF04F0747B2FF582E434022B
:10243300F5837420F090027AE0FF04F0747B2FF5AB
:1024430082E43402F58322E0C4540F2430FF900267
:102453007AE0FE04F0747B2E227421F07B017A0271
:10246300797BE4FD22745BF0AE45AF4622EEC4F8FF
:1024730054F0C8EFC4540F4822AE45AF468E45EF23
:0824830022E0241054F0F022C5
:0D2E8E00D2C0D2C10000C2C00000C2C122EB
:0B2ED800C2C0D2C10000D2C000002226
:0D2E9B00A20092C0D2C10000C2C1000022FE
:0B2EE300D2C10000A2C0C2C10000224A
:0C28B900C2AF122E8E7FDE1228C5AF04C5
:1028C500E4FEFDEF25E0FF92C0D2C10000C2C100C9
:1028D500000DBD08EE122EE35009AF060EEF941E53
:0328E50040F3229B
:0128E80022CD
:102BAD00E4FFD2C0FEEF25E0FFD2C10000A2C0E4D9
:0B2BBD00334207C2C100000EBE08EA50
:012BC80022EA
:102C1800AC05AB071228B9AF031228C5122ED8D2BB
:082C2800AF7F057E00022B18AE
:022BE400AC073C
:102BE6001228B9122E8E7FDF1228C5122BADD20005
:082BF600122E9B122ED8D2AF63
:012BFE0022B4
:102819008F127F03122BE49002ADEFF07D077F400A
:10282900122C187F017E00122B18E5129002ADB40C
:10283900FF05E044088009E054F8F0E04408451237
:09284900F0E0FF7D03122C1822BF
:1025F0008D138B147D0612262D7D05AF1312262D0B
:102600007D04AF141226387D02AF151226387D01E5
:10261000AF16122C187F017E00122B18E51744808C
:10262000FFE4FD122C187F017E00022B18122C18DB
:102630007F017E00122B1822122C187F017E0012BF
:032640002B182232
:102ADA009002B2E0B49903E4F0229002B2E0540FFB
:0F2AEA00FFBF0904122484229002B2E004F022FC
:102A77009002B0E024EE600B2409700E9002B0744F
:102A870010F0229002B07401F0229002B0E004F03E
:012A9700221C
:102852009002ADE024F7601324F0601624F06019B2
:1028620024F8701C9002AD7401F0229002AD741035
:10287200F0229002AD7420F0229002AD7430F0226A
:072882009002ADE004F0221A
:102970009002B1E024F7601524F0600A24F6701488
:10298000E49002B1F0229002B17420F0229002B1E2
:0B2990007410F0229002B1E004F0226D
:102AF9009002AFE0B45903E4F0229002AFE0540F22
:0F2B0900FFBF0904122484229002AFE004F022DF
:102A32009002AEE0547FF0E0B45903E4F022900239
:102A4200AEE0540FFFBF0904122484229002AEE0CC
:032A520004F0226B
:052F3F007FFF022819CC
:100CEF00E490027AF012243B74321224377430F0FD
:100CFF007F06122BE49002B2EFF012244A12244224
:100D0F00EFF09002B2E012244C122442EFF01224C2
:100D1F003874A6122437747E1224237420F07F05B2
:100D2F00122BE49002B0EFF0E0D394124003741250
:100D3F00F09002B012244A122442EFF09002B0E079
:100D4F0012244C122442EFF012243874A4122437C8
:100D5F0074EBF07F04120F58D3943140037431F0C9
:100D6F009002AD12244A122442EFF09002ADE0122D
:100D7F00244C122442EFF012243874A41224377436
:100D8F00E912243712245CFF12216DE490027AF0ED
:100D9F00AE45AF46EEC313EF1330E00812243B7499
:100DAF002BF080061224387420F07F02122BE4906F
:100DBF0002B1EFF0E0D3942340037423F09002B11B
:100DCF0012244A122442EFF09002B1E012244C1286
:100DDF002442EFF0122438743AF07F01122BE49082
:100DEF0002AFEFF0E0D3945940037459F09002AF83
:100DFF0012244A122442EFF09002AFE012244C1258
:100E0F002442EFF0122438743AF0E4FF122BE4EF8F
:100E1F00547F9002AEF0E0D3945940037459F09090
:100E2F0002AE12244A122442EFF09002AEE01224D6
:100E3F004C122442EFF012242474AC122437745055
:100E4F0012243774B412243774C1F07F03120F5871
:100E5F005407F0E025E0F0E0902A55931224501249
:100E6F002442EFF09002ADE0902A569312245012D4
:100E7F002442EFF012243812245C7F0212216DE419
:100E8F00900279F0900279E0FFC39410500E122473
:100E9F003F7420F0900279E004F080E812243F12B2
:100EAF00245C7F0112216DE490027AF012243B1230
:100EBF002468EF7802CEC313CE13D8F990027A309C
:100ECF00E01212243B7443122437744F12243774E8
:100EDF004DF080061224137420F0122438745D1222
:100EEF002437122468EF7803CEC313CE13D8F990AA
:100EFF00027A30E01212243B7447122437745012D6
:100F0F0024377453F080061224137420F0122438FF
:100F1F00745D12243712246812247090027A30E024
:100F2F001212243B744E1224377454122437745007
:100F3F00F080061224137420F0122438745D1224EA
:090F4F002312245C7F0302216DD2
:0A0F5800122BE49002ADEFF0E0224E
:021124008F1228
:10112600E4900279F07BFF7A2A7966FDFF12216D41
:10113600E4F5A07F9012122B60051212A080031214
:1011460012A812143A12129005127F8812122B60FE
:10115600051212A080031212A812143A1212900558
:10116600127F981212C012125F60051212B080032D
:101176001212B812143A7F5D12143A7F2012143AF2
:101186007F2012143A05127F941211F26005121292
:10119600B080031212B812143A7F5D12143A051287
:1011A6007F8C1211F260097F4F12143A7F4B800731
:1011B6007F5812143A7F5812143A7F5D12143A057A
:1011C600127F9C1212C07F2012143A12125F60091D
:1011D6007F4F12143A7F4B80077F5812143A7F587C
:0B11E60012143A7F5D12143A75A0A0AD
:1011F100221212C07F2012143AE51275F00A8424DB
:1012010030FF12143AE51275F00A84E5F02430FF3C
:1012110012143A7F3A12143A7F5B12143A749525EC
:1012210012F582E43402F583E0221212C0E5127550
:10123100F00A842430FF12143AE51275F00A84E5AD
:10124100F02430FF12143A7F3A12143A7F5B1214E1
:101251003A74952512F582E43402F583E022E51211
:1012610075F00A842430FF12143AE51275F00A84ED
:10127100E5F02430FF12143A7F3A12143A7F5B12E0
:10128100143A74952512F582E43402F583E0227F45
:101291005D12143A7F2012143A7F2012143A227FF1
:1012A1004F12143A7F4B227F5812143A7F58227FF3
:0F12B1004F12143A7F4B227F5812143A7F582263
:101D6900E4F511AF11121124AE45AF46EF7806CE56
:101D7900C313CE13D8F930E00D12247C54BFF546B5
:101D8900121A9AEF70FA121A9AEF147003021E2CA3
:101D990024FD601304702674062511F511C3940CF3
:101DA9004012E4F511800DE511C39406400674FA5A
:101DB9002511F51112247C4440F54680A6AE49AFA1
:101DC9004AEF7805CEC313CE13D8F930E00E121CB2
:101DD90089AE49AF4A8E49EF54DFF54AAE47AF485D
:101DE90012247030E019120046AE47AF488E47EF13
:101DF90054EFF548AE49AF4A8E49EF4401F54AAE72
:101E090045AF46EF7807CEC313CE13D8F920E003C8
:101E1900021D6C121EEA121EEA12247C547FF5463A
:031E2900021D6C2B
:011E2C002293
:10254A0041021F004102780041021E00420275004A
:10255A00004102700041027400410273004102719D
:09256A00004102770041027200F9
:10259A00AE47AF488E47EF54FBF548900270E4F01F
:1025AA00AE47AF488E47EF224410F548AE49AF4ACE
:1025BA008E49EF22900278E0FF04F074202FF58212
:1025CA00E43402F5832274A5F0A3745AF0A374A527
:1025DA00F0A3745AF0A322E0FF04F0EFD322F54AE5
:0625EA00900278E4F022EB
:082716008B128A1389148D1542
:10271E007F017E00122B18E4F516E516C3951550B1
:10272E0017AB12AA13A9148516827583001207EC33
:10273E00FF120026051680E2AE47AF48EF7806CEB0
:09274E00C313CE13D8F920E0EF0B
:01275700225F
:082758008B4C8A4D894E8D4F18
:102760007F017E00122B18E4F550E550C3954F50C1
:1027700017AB4CAA4DA94E8550827583001207EC09
:10278000FF122B90055080E2AE47AF48EF7807CE9E
:09279000C313CE13D8F920E0EFC9
:01279900221D
:10002600AD07AE47AF48EF7806CEC313CE13D8F967
:0D00360020E0EF1225AA4440F5488D9922E4
:102B9000AD07AE47AF48EF7807CEC313CE13D8F9D1
:0D2BA00020E0EF1225AA4480F5488D9B220D
:0224ED008F124C
:1024EF007F017E00122B1890020A7402F0A31225AE
:1024FF00D01225D074FFF0A3E512F0A37403F07B84
:10250F00017A02790A7D0C122B727F017E00122B49
:10251F0018E490027CF090027CE0FFC3940C5014FE
:10252F00740A2FF582E43402F583E4F090027CE024
:04253F0004F080E242
:012543002275
:030023000215B211
:1015B200C0E0C083C082C0D075D000C000C005C0EA
:0315C20006C00759
:1015C500C2AF43C1102098030216E7C298AD9990A7
:1015D5000270E4F0AE49AF4AEF20E0030216E7904F
:1015E500021FE0705BAE49AF4AEEC4F854F0C8EF95
:1015F500C4540F4830E049BD2419AE49AF4AEF78CD
:1016050003CEC313CE13D8F920E0081225B644083B
:101615001225E8AE49AF4AEF7803CEC313CE13D8EF
:10162500F920E0030216E71225BEEDF0640A600317
:101635000216E7900278E024201225C8E4F08026FF
:1016450090021FE06401702BAE49AF4AEF7806CED9
:10165500C313CE13D8F930E01A1225BEEDF090026F
:1016650078E06430707C1225AA1225B254FEF54A42
:101675000216E790021FE064027067AE47AF48EFBD
:101685007802CEC313CE13D8F930E0401225BEED53
:10169500F0900278E0640B7049E0241FF582E43491
:1016A50002F583E0AE47AF48B4030C8E47EF122531
:1016B500B254FEF54A800C8E47EF54EF1225B44420
:1016C50001F54A12259A54FEF5488016BD021312FB
:1016D50025AA4401F5481225AA4404F54890027844
:1016E500E4F0309909C2991225AA54BFF548D2AF42
:1016F500D007D006D005D000D0D0D082D083D0E09E
:0117050032B1
:03004300021E2D6D
:0B1E2D00C0E0C083C082C0D075D008A8
:101E3800C2AF43C110E59A20E003021ED0539AFEB8
:101E4800AD9B900274E4F0AE47AF48EF7803CEC381
:101E580013CE13D8F930E05A90021EE0FF04F07454
:101E68000A2FF582E43402F583EDF090021EE06457
:101E78000B7055E02409F582E43402F583E0AE479F
:101E8800AF48B4030E8E47EF44201225B454FDF535
:101E98004A800C8E47EF54DF1225B44402F54A12EB
:101EA80025AA54F7F5489002741225A854FDF54860
:101EB8008016BD02131225AA4402F5481225AA4429
:101EC80008F54890021EE4F0E59A30E10A539AFDBD
:091ED8001225AA547FF548D2AF8F
:091EE100D0D0D082D083D0E032D1
:03000B0002185880
:10185800C0E0C0F0C083C082C0D075D000C000C056
:1018680006C00743C110758AFB758CDB900275E4CE
:1018780075F0011208CAFED3E5F0940AEE94004010
:1018880067900275E4F0A3F01225B64404F54A9077
:1018980002731225E1941E400DE4F0AE45AF468E6A
:1018A80045EF4480F5469002711225E194C8400A3C
:1018B800E4F01225B644101225E89002721225E1D0
:1018C80094644011E4F01225B64440F54A1225B656
:1018D80044801225E89002771225E1940A4009E431
:1018E800F01225B64420F54AAE47AF48EF30E0265F
:1018F800900270E0FF04F0EFC3940540191225AA86
:1019080054EF1225B44401F54AE4F0900278F0123D
:10191800259A54FEF548AE47AF48EEC313EF13308F
:10192800E043900274E0FF04F0EFC394054036AE44
:1019380047AF48EF7803CEC313CE13D8F930E00C85
:101948001225AA44201225B454FDF54A900274E4E5
:10195800F090021E1225A954F7F54890027412253A
:10196800A854FDF548D007D006D000D0D0D082D0FA
:0619780083D0F0D0E03244
:102C30008FC48EC375C65A75C6A52274002555F576
:082C40008274003554F5832273
:062314008E518F528D5323
:10231A00E4F554F555AF55AE54122CBB122C3BEFD5
:10232A00F00555E55570020554C3E554940240E59D
:10233A00E4FFFE122EB5E4F554F555AF55AE54122E
:10234A002CBBEFF470480555E55570020554C3E5FA
:10235A0054940240E67F0A7E00122B18740025521C
:10236A00F58274003551F583E553F0E4F554F555DB
:10237A00122C3BE0FDAF55AE54122C760555E555AF
:10238A0070020554C3E554940240E57F01227F00A0
:01239A002220
:10000E00AE071FEE600DE4FCFD0DED70010C4C60B3
:03001E00EF80F67A
:0100210022BC
:0D2EA800E4F5C7F5C5F5C675C380F5C42275
:0F2CBB0075C78275C501122C3000AFC2122EA84A
:012CCA0022E7
:102C760075C78275C5028FC48EC38DC2122C3400EF
:032C8600022EA873
:0D2EB50075C78275C503122C3000022EA8CF
:08000300C0C0C0C0C0C0C0C0F5
:1025730020232100080010A7625BF80322F800471C
:10258300B610181D1CC700B2EA2A0011598135097B
:0625930006060405000C21
:102C5F0090027EE0AB15AA16A91722C3900281E05D
:072C6F009F900280E09E220D
:10299B00E4900280F0A3F0122C6A5009E475F00168
:1029AB001208B480F2E4900280F0A3F0122C6A506B
:0A29BB0009E475F0011208B480F27F
:0129C50022EF
:102BFF00000000000000000000000000000000EFD7
:092C0F001F70011E144E70E82232
:072F3200C294C297D2942261
:0A2F2100122F327F887E1302299BD5
:1027DB00E4900289F0C297900288F0EF30E704D2C0
:1027EB00958002C295EF25E0FFD2970000900289F9
:1027FB00E025E0F0309603E004F0C2970000900271
:0D280B0088E004F0E0B408D3900289E0FFFB
:01281800229D
:102CCB00C2942096FD7F301227DB2096FDD29422F2
:102B5400D2947F017E00122BFFC2947F017E00126B
:0E2B64002BFFD2947F297E00122BFF022CCB78
:102CDB00C2942096FD1227DBAF051227DBD294227C
:06268E008B148A15891669
:10269400EF4440900287F0C2942096FD900287E0B8
:1026A400FF1227DBE4900286F0900286E0FFC395D8
:1026B40017501AAB14AA15A9168F82758300120736
:0F26C400ECFF1227DB900286E004F080DCD2945A
:0126D30022E4
:0B2EEE00C2942096FD1227DBD2942234
:102A9800EF4480900280F0C2942096FD900280E07E
:102AA800FF1227DBE4FF1227DB900281EFF0D294BC
:012AB80022FB
:062643008B198A1A891BA5
:10264900EF44C0900281F0C2942096FD900281E08F
:10265900FF1227DBE4900280F0900280E0C3951C12
:102669005020E4FF1227DBAB19AA1AA91B9002809C
:10267900E0F582758300EF12082B900280E004F0E8
:0426890080D7D29490
:01268D00222A
:102AB900EF44C0900281F0C2942096FD900281E01B
:102AC900FF1227DBE4FF1227DB900280EFF0D2949C
:012AD90022DA
:101B9400AD217F0C122CDBAD227F0B122CDBAD238D
:101BA4007F0C122CDBAD247F0D122CDBAD257F0EB8
:101BB400122CDBAD267F0F122CDBAD277F10122CED
:101BC400DBAD287F11122CDBAD297F12122CDBAD8B
:101BD4002A7F13122CDBAD2B7F14122CDBAD2C7F50
:101BE4000A122CDBAD2D7F15122CDBAD2E7F2112BA
:101BF4002CDBAD2F7F22122CDBAD307F18122CDBB7
:101C0400AD317F19122CDBAD327F1A122CDBAD33D0
:101C14007F1B122CDBAD347F1C122CDBAD357F1DFA
:101C2400122CDBAD367F23122CDBAD377F24122C34
:101C3400DBAD387F25122CDBAD397F26122CDBADD2
:101C44003A7F29122CDBAD3B7F2C122CDBAD3C7F81
:101C54002D122CDBAD3D7F2E122CDBAD3EE4FF12AA
:101C64002CDBAD3F7F02122CDBAD407F07122CDB57
:101C7400AD417F08122CDBAD427F09122CDBAD4352
:051C84007F06022CDBCD
:102B7200AC057F3F122CDB8C177F3F12268E7F35F0
:0E2B8200122EEE30B3FD20B3FD7F3B022EEE8F
:052F44007F34022EEEB7
:061FA3008B128A13891461
:101FA900122C631207D325E025E090027FF07F34DD
:101FB900122EEE7F027E0012299B30B3167F027E1D
:101FC9000012299B90027FE014F0E0C3940150EACB
:101FD9007F00227F3B122AB9EF547F60567F3F1260
:101FE9002A9890027EEFF0122C631207D3FEEFD3EA
:101FF9009E5032AB12AA13A91490027EE0F51C7F01
:102009003F122643122C5F1208197B017A02797C50
:10201900751C027F3F1226437F3A122EEE90027DF5
:10202900E05480FF22122C5F1208197F3A122EEE1B
:052039007F00227F0082
:01203E00227F
:102C4800122F21122B54121B947BFF7A00790375E3
:072C580017087F3E02268EE3
:1005150061742B4765745F4D41433D3F0D0A006192
:10052500742B776966695F5363616E3D3F0D0A0001
:1005350061742B6F75745F7472616E733D30006109
:10054500742B776966695F636F6E663D686F6D656D
:100555006B69742C777061325F6165732C666338E3
:10056500702D6B6875762D636F74730D0A00617459
:100575002B6E65746D6F64653D320D0A0061742BD9
:1005850064686370643D300D0A0061742B6D6F649F
:10059500653D636C69656E740D0A0061742B726547
:1005A5006D6F746569703D3230322E3131322E33C4
:1005B500312E3139370D0A0061742B72656D6F74F8
:1005C50065706F72743D3132330D0A0061742B6EA4
:1005D50065746D6F64653D330D0A0061742B646845
:1005E5006370643D310D0A0061742B646863706447
:1005F5005F69703D3139322E3136382E31302E312A
:100605002C3139322E3136382E31302E3235342CCC
:100615003235352E3235352E3235352E302C3139B1
:10062500322E3136382E31302E3132350D0A0061F9
:10063500742B64686370645F646E733D3139322E68
:100645003136382E31302E312C302E302E302E30A2
:100655000D0A0061742B64686370645F74696D656D
:100665003D393630300D0A0061742B776966695F54
:10067500636F6E663D4E5450207365727665722CBD
:10068500777061325F6165732C31323334353637BB
:10069500380D0A0061742B64686370633D310D0A7F
:1006A5000061742B6E65745F69703D3139322E318E
:1006B50036382E31302E32332C3235352E32353513
:1006C5002E3235352E302C3139322E3136382E3109
:1006D500302E39380D0A0061742B6E65745F646EB7
:1006E500733D302E302E302E302C302E302E302EC5
:1006F500300D0A0061742B72656D6F746570726FD1
:100705003D7463700D0A0061742B72656D6F7465BD
:1007150070726F3D7564700D0A0061742B6D6F64A6
:10072500653D7365727665720D0A0061742B72659D
:100735006D6F746569703D3230322E3131322E3332
:10074500312E3139370D0A0061742B72656D6F7466
:1007550065706F72743D3132330D0A0061742B740C
:10076500696D656F75743D300D0A0061742B756197
:1007750072743D393630302C382C6E2C310D0A0010
:1007850061742B756172747061636B74696D656FEB
:1007950075743D3130300D0A0061742B75617274CA
:1007A5007061636B6C656E3D3130300D0A006174AC
:1007B5002B6E65745F636F6D6D69743D310D0A0055
:0E07C50061742B7265636F6E6E3D310D0A001C
:0E2CEB007BFF7A0579447D2F1227167F012288
:0E2CF9007BFF7A0579357D0F1227167F0122A9
:0E2D07007BFF7A0679347D241227167F012285
:0E2D15007BFF7A0679DC7D1D1227167F0122D6
:0E2D23007BFF7A0579737D0F1227167F012240
:0E2D31007BFF7A0579D17D0F1227167F0122D4
:0E2D3F007BFF7A06796D7D2C1227167F01220C
:0E2D4D007BFF7A0679997D0D1227167F0122F1
:0E2D5B007BFF7A0579E07D0D1227167F01229D
:0E2D69007BFF7A0579827D0D1227167F0122ED
:0E2D77007BFF7A0579ED7D471227167F01223A
:0E2D85007BFF7A0679587D151227167F0122F2
:0E2D93007BFF7A0779B37D121227167F01228B
:0E2DA1007BFF7A0779307D1D1227167F0122F5
:0E2DAF007BFF7A07794D7D141227167F0122D3
:0E2DBD007BFF7A0579A07D1D1227167F01226B
:0E2DCB007BFF7A0579BD7D141227167F012249
:0E2DD9007BFF7A0679F97D131227167F0122FF
:0E2DE7007BFF7A07790C7D131227167F0122DD
:0E2DF5007BFF7A0779617D0F1227167F01227E
:0E2E03007BFF7A07791F7D111227167F0122AF
:0E2E11007BFF7A05798F7D111227167F012233
:0E2E1F007BFF7A0779707D151227167F01223E
:0E2E2D007BFF7A07799E7D151227167F012202
:0E2E3B007BFF7A0779857D191227167F012209
:0E2E49007BFF7A0779C57D0E1227167F0122C6
:0E2E57007BFF7A0579157D0F1227167F012269
:0E2E65007BFF7A0579247D111227167F01224A
:0E2E73007BFF7A0679A67D361227167F012294
:100F62001210FB1210FBC2C4C2C4C2C41210A3D21C
:100F7200C4D2C4D2C41210A31210AB122D23EF702C
:100F820002FF221210AB122D5BEF7002FF22121031
:100F9200B3122CEBEF7002FF221210B3122D4DEFA1
:100FA2007002FF221210BB122DE7EF7002FF221215
:100FB20010BB122E11EF7002FF221210C3122DBDB0
:100FC200EF7002FF221210C3122DCBEF7002FF222C
:100FD2001210CB122DF5EF7002FF221210CB122E3F
:100FE2001FEF7002FF221210D3122E3BEF7002FF8E
:100FF200221210D3122E2DEF7002FF221210DB12DA
:101002002D23EF7002FF221210DB122D5BEF700214
:10101200FF221210E3122CEBEF7002FF221210E3F8
:10102200122D4DEF7002FF221210EB122DE7EF701E
:1010320002FF221210EB122E11EF7002FF22121089
:10104200F3122DBDEF7002FF221210F3122DCBEF1F
:101052007002FF22121114122DF5EF7002FF2212FC
:101062001114122E1FEF7002FF2212111C122E3BBE
:10107200EF7002FF2212111C122E2DEF7002FF22BE
:101082007F647E00122B18122D93EF7002FF227FD5
:10109200647E00122B18122E49EF7002FF227F018C
:1010A200227F647E00122B18227F647E00122B188E
:1010B200227F647E00122B18227F647E00122B187E
:1010C200227F647E00122B18227F647E00122B186E
:1010D200227F647E00122B18227F647E00122B185E
:1010E200227F647E00122B18227F647E00122B184E
:1010F200227F647E00122B18227F011229EC9002BB
:101102001F7401F0FF7E00122B187F0A7E00122B43
:1011120018227F647E00122B18227F647E00122B1D
:02112200182291
:100A7900120CC6120CC6C2C4C2C4C2C4120C3ED2E5
:100A8900C4D2C4D2C4120C3E120C46122D31EF70DE
:100A990002FF22120C46122D5BEF7002FF22120C8C
:100AA9004E122D77EF7002FF22120C4E122D07EF16
:100AB9007002FF22120C56122D85EF7002FF2212CE
:100AC9000C56122D3FEF7002FF22120C5E122D4DB3
:100AD900EF7002FF22120C5E122E73EF7002FF22DA
:100AE900120C66122D15EF7002FF22120C66122DE0
:100AF900D9EF7002FF22120C6E122E03EF7002FF63
:100B090022120C6E122DA1EF7002FF22120C761226
:100B19002DAFEF7002FF22120C76122DF5EF700245
:100B2900FF22120C7E122E1FEF7002FF22120C7E82
:100B3900122E3BEF7002FF22120C86122E2DEF703F
:100B490002FF22120C86122D31EF7002FF22120CC5
:100B59008E122D5BEF7002FF22120C8E122D77EF91
:100B69007002FF22120C96122D07EF7002FF22125B
:100B79000C96122D85EF7002FF22120C9E122D3F4A
:100B8900EF7002FF22120C9E122D4DEF7002FF2210
:100B9900120CA6122E73EF7002FF22120CA6122D50
:100BA90015EF7002FF22120CAE122DD9EF7002FF61
:100BB90022120CAE122E03EF7002FF22120CB61293
:100BC9002DA1EF7002FF22120CB6122DAFEF7002A9
:100BD900FF22120CBE122DF5EF7002FF22120CBE7D
:100BE900122E1FEF7002FF22120CDF122E3BEF7044
:100BF90002FF22120CDF122E2DEF7002FF22120CBF
:100C0900E7122D93EF7002FF22120CE7122E49EF23
:100C19007002FF227F647E00122B18122D93EF7051
:100C290002FF227F647E00122B18122E49EF7002F8
:100C3900FF227F01227F647E00122B18227F647EAF
:100C490000122B18227F647E00122B18227F647EEB
:100C590000122B18227F647E00122B18227F647EDB
:100C690000122B18227F647E00122B18227F647ECB
:100C790000122B18227F647E00122B18227F647EBB
:100C890000122B18227F647E00122B18227F647EAB
:100C990000122B18227F647E00122B18227F647E9B
:100CA90000122B18227F647E00122B18227F647E8B
:100CB90000122B18227F647E00122B18227F01124A
:100CC90029EC90021F7401F0FF7E00122B187F0A95
:100CD9007E00122B18227F647E00122B18227F645B
:060CE9007E00122B182210
:03000000022201D8
:0C220100787FE4F6D8FD75815802224871
:1007D300BB010689828A83E0225002E722BBFE0224
:0907E300E32289828A83E4932257
:1007EC00BB010CE58229F582E5833AF583E02250C2
:1007FC0006E92582F8E622BBFE06E92582F8E2220C
:0D080C00E58229F582E5833AF583E4932225
:10081900BB010689828A83F0225002F722BBFE01BE
:02082900F322B8
:10082B00F8BB010DE58229F582E5833AF583E8F003
:10083B00225006E92582C8F622BBFE05E92582C8AF
:02084B00F22297
:10084D00EF8DF0A4A8F0CF8CF0A428CE8DF0A42EBF
:02085D00FE2279
:10085F00BC000BBE0029EF8DF084FFADF022E4CC7D
:10086F00F875F008EF2FFFEE33FEEC33FCEE9DEC46
:10087F00984005FCEE9DFE0FD5F0E9E4CEFD22ED8C
:10088F00F8F5F0EE8420D21CFEADF075F008EF2FD6
:10089F00FFED33FD4007985006D5F0F222C398FDC7
:0508AF000FD5F0EA2264
:1008B400C5F0F8A3E028F0C5F0F8E58215827002CF
:0608C4001583E038F0226C
:1008CA00A3F8E0C5F025F0F0E582158270021583E1
:0608DA00E0C838F0E8223E
:0D08E000EF2BFFEE3AFEED39FDEC38FC2267
:1008ED00E88FF0A4CC8BF0A42CFCE98EF0A42CFCAA
:1008FD008AF0EDA42CFCEA8EF0A4CDA8F08BF0A428
:10090D002DCC3825F0FDE98FF0A42CCD35F0FCEB86
:10091D008EF0A4FEA9F0EB8FF0A4CFC5F02ECD394B
:0F092D00FEE43CFCEAA42DCE35F0FDE43CFC22B8
:10093C0075F008758200EF2FFFEE33FECD33CDCC72
:10094C0033CCC58233C5829BED9AEC99E5829840F5
:10095C000CF582EE9BFEED9AFDEC99FC0FD5F0D6D2
:10096C00E4CEFBE4CDFAE4CCF9A88222B800C1B9FC
:10097C000059BA002DEC8BF084CFCECDFCE5F0CB3A
:10098C00F97818EF2FFFEE33FEED33FDEC33FCEB73
:10099C0033FB10D703994004EB99FB0FD8E5E4F92E
:1009AC00FA227818EF2FFFEE33FEED33FDEC33FC1B
:1009BC00C933C910D7059BE99A4007EC9BFCE99A0F
:1009CC00F90FD8E0E4C9FAE4CCFB2275F010EF2F54
:1009DC00FFEE33FEED33FDCC33CCC833C810D70754
:1009EC009BEC9AE899400AED9BFDEC9AFCE899F88F
:0E09FC000FD5F0DAE4CDFBE4CCFAE4C8F92222
:0C0A0A00E0FCA3E0FDA3E0FEA3E0FF225F
:0C0A1600ECF0A3EDF0A3EEF0A3EFF02253
:100A2200A8828583F0D083D082120A39120A391241
:100A32000A39120A39E473E493A3C583C5F0C58366
:100A4200C8C582C8F0A3C583C5F0C583C8C582C81E
:010A52002281
:100A5300D083D082F8E4937012740193700DA3A332
:100A630093F8740193F5828883E473740293686046
:060A7300EFA3A3A380DF46
:10220D00022F39E493A3F8E493A34003F68001F27F
:10221D0008DFF48029E493A3F85407240CC8C333D2
:10222D00C4540F4420C8834004F456800146F6DFA1
:10223D00E4800B0102040810204080902544E47EC8
:10224D00019360BCA3FF543F30E509541FFEE49396
:10225D00A360010ECF54C025E060A840B8E493A35D
:10226D00FAE493A3F8E493A3C8C582C8CAC583CA88
:10227D00F0A3C8C582C8CAC583CADFE9DEE780BE40
:012599000041
:00000001FF
