:06446600011D0001100021
:10000E00D3E54694BEE545940022D3E546946EE5CD
:04001E0045940522DE
:0D5C1D0075A0600000C287125881D2872256
:10577A008F4475A0407F017E00125881E54454078A
:10578A00F51DE51D4510F5807F017E0012588175D3
:03579A00A0A022AA
:105709008F4475A0407F017E00125881E5443333F0
:10571900335438F510E510451DF5807F017E0012E0
:06572900588175A0A022CA
:0652CA008B5B8A5C895D2C
:1052D00012231A9003ACF09003AB7401F09003AB6F
:1052E000E0FFC39D5020A3E0FEAB5BAA5CA95D8FED
:1052F00082758300122333FFEE6F9003ACF09003AE
:0B530000ABE004F080D79003ACE0FFAE
:01530B00227F
:1045EF009003A3E0FF90037DE4F0A3EFF09003A707
:1045FF00E0FF90037FE4F0A3EFF090037DE0FEA3D4
:10460F00E0FF64014E6006EF64024E701490037D6C
:10461F00E475F00C12243190037F74FFF5F012242F
:10462F003190037FE0FCA3E0FDAE047802CEC3130C
:10463F00CE13D8F92DFFEC3E90037BF0A3EFF09053
:10464F00037EE02401FF90037DE03400FE7C007DBB
:10465F001A1223947D0A1223A690037BEE8FF01279
:10466F0024319003A4E024FFFFE434FF90037B8FF9
:10467F00F012243190037B74FF75F0DD122431901A
:10468F00037BE0FEA3E0FF7C007D071223FB90037A
:07469F007BECF0A3EDF0FF3E
:0146A60022F1
:103CE100E4F545F54643A00FF54575460AE5461549
:103CF10046AC45700215454C7003023DDD123DE0B6
:103D0100FF640F60E8EF24F5603A24FE605F1470F1
:103D110003023DA024076003023DDA7545017546A3
:103D21002CE54645456012E54615467002154512DB
:103D31003DE0640760EB7F042212000E40037F0028
:103D4100227F042275450175462CE54645456012E2
:103D5100E546154670021545123DEC640B60EB7F9C
:103D6100032212000E40037F00227F0322754505C6
:103D7100754678E54645456012E5461546700215DB
:103D810045123DEC640D60EB7F02221200184003E6
:103D91007F0022E546454570037F06227F0222759A
:103DA1004505754678E5464545601AE54615467070
:103DB1000215457F017E00125881E5A0540F640E63
:103DC10060E37F012212001840037F0022E546458F
:0E3DD1004570037F05227F01227F00227F00C4
:103DDF00227F017E00125881E5A0540F227F017EC1
:093DEF0000125881E5A0540F22D6
:10588100EF1FAA0670011E4A6013E4FCFDC3ED94EC
:0D5891001CEC940250EA0DBD00010C80F0EB
:01589E0022E7
:0B5C5100EF1FAC0670011E4C70F62225
:10593100202020212100B579B5A521A558C944B35E
:0A5941005DB86D2E2E2E2E2E2E21A5
:10589F00F514AE13AF148E13EF22F512AE11AF1233
:0E58AF008E11EF22F516AE15AF168E15EF22F4
:0B5C5C007F0A7E0012588175BBFF22FA
:105A3800438901758AFB758CDBD28CD2A9D2AF223F
:10591600759850438920EF6007E4F58BF58D800676
:0B592600758BFD758DFDD28ED2AC227A
:0D5C2A00759A50759CB8438E1475AF012219
:1040F2001258A154FE12589F54FD12589F54FB129D
:10410200589F54F712589F54EF12589F54DF125879
:104112009F54BF12589F547FF5141258B544011290
:1041220058B344021258B354FBF516AE17AF188EAB
:1041320017EF54F7F5181258B554FBF5161258AB91
:1041420054FD1258A954FB1258A954F71258A954F5
:10415200EF1258A954FE1258A954DF1258A954BF9D
:104162001258A94480F512AE17AF188E17EF547F7C
:10417200F518AE19AF1A8E19EF4410F51AAE19AF31
:104182001A8E19EF54EFF51AE4FF740C2FF582E43E
:104192003402F583E4F0746D2FF582E43402F58382
:1041A200E4F00FBF5FE49002F17401F09002E9F0D5
:1041B200E49002F2F0FF12577AE49002EDF07F01F0
:1041C200FE1258811258B554F7F5167F647E00022C
:0241D2005C1D72
:1049C0007F017E00125A48BFAB0C7F027E00125A54
:1049D00048EF64CD607C7F207E001248937BFF7A95
:1049E000597937E4FDFF12492A7BFF7A59793CE473
:1049F000FD7F0112492A7BFF7A5979317D087F03B7
:104A000012492A7D03E4FFFE124B717D087F037E6D
:104A100000124B71E4FD7F04FE124B71E4F544F586
:104A200045E545240AFFE43544FE7DFF124B710540
:104A300045E54570020544C3942CE544940140E1EA
:104A40007DAB7F017E00124B717DCD7F027E001217
:024A50004B71A8
:014A52002241
:10572F00125C5CE4FF125916125C2A125A381240AE
:10573F00F2E4F5A05380F775A0A01254D4125CBD0B
:06574F001259AB0249C033
:065CB70012572F02004607
:1055850020202021210020202020AB4FA673A6A893
:10559500A55C202020202120202020202020202044
:1055A50020202020202020210001020304050607D9
:0855B50008090A0B0C0D0E0F92
:10446C004102D3004102D1004102CF0041026C0055
:10447C004102CC0041020A0141026B004102CE0014
:10448C004102CD004102D00041020B004102D2009A
:101FE1009003A7EFF0E0C4540F75F00AA4FFE0548A
:101FF1000F2F222FF0E075F00A84C454F0FFE07532
:10200100F00A84EF25F0F022900377E0FF24F4F545
:1020110082E43402F583E0540FF074F52FF582E485
:102021003402F583E0540FF0900377E0FF24F4F5D8
:1020310082E43402F583E02274F52EF582E4340261
:10204100F583E022D390036BE0940190036AE0945E
:102051000022EFF0E0C4540F7E00540F24ADF5824E
:10206100EE3455F583E493C454F0FF2290036CE001
:10207100FF04F0EFC394052290037AF0E014F0E03E
:102081009002F6FF75F00A84C454F0FEEF75F00A71
:1020910084EE25F0F022E0FF04F0746D2FF582E468
:1020A1003403F5837402F090036CE0FF04F0746D67
:1020B1002FF582E43403F58322AE17AF18EEC4F88E
:1020C10054F0C8EFC4540F4822746D251EF582E404
:1020D1003402F583E004F0746D251EF582E43402C8
:1020E100F58322E0FFE4FCFDFE900373122563906B
:1020F100037302254BE49002EEF0A3F0AE17AF1884
:102101008E17EF22AE11AF128E11EF4408F512AE09
:1021110011AF128E11EF4402F512AE1BAF1C8E1BD4
:10212100EF229002F4E0FFA3E0FDA3E0FB9002F8B0
:10213100E0F547A3E0F548A3E0F5492278009003D4
:102141006F12254B1224A6AC00AD01AE02AF0322E3
:1021510074F32FF582E43402F583E022FC900373DB
:1021610012256390036F12254B90037312255712AA
:10217100245D90036F022563900368E4F0A322F0CD
:10218100E0C454F0F0E0FF22F583E024D0F074F1D4
:102191002FF582E43402F583E02290036AE4F0A390
:1021A10022C390036BE0940222E0540F9055AD934B
:1021B10022F514AE15AF168E15EF2290036AA3E037
:1021C100FF229002CEE0240AFFE433FE22F09003C6
:1021D10077E004F022900377E024EEF582E4340204
:1021E100F583E0229003A6EFF0E022900361E0FF87
:1021F100900377E0FEC39F22A3E0C39EFF90037983
:10220100F0C374189FF09002F62290036CE0FE0474
:10221100F0746D2E224410F518E49002CDF0900375
:102221006AF0A304F022900377E0FF24F2F582E440
:1022310034022274EF2FF582E43402F583E0229018
:10224100036AE0FEA3E0FFEE22AE19AF1AEEC3135C
:10225100EF132224F0F582E43402F583E0229003A7
:1022610079E0FFA3E0FEC3EF9E900379F022900393
:102271007AE0FF900379E02FF0E0D3941722AE11BA
:10228100AF128E11EF22E0547FFFF0900379E0FE50
:10229100C39F22F0A3E4F0A304F022EF541F9003A4
:1022A100A3F0E0D3941222740C251EF582E43402CB
:1022B100F583224410F5189003687401F02290030D
:1022C10068E0FEA3E08EF02290036804F0A3229060
:1022D1000366E064042204F0AE19AF1A8E19EF22EE
:1022E1004402F51CE49002D1F022900377E0FFC391
:0722F1002290036F02254B50
:10004600E4900364F0900366F0A3F0A3F0A3F0A39A
:10005600F0A3F0123CE1900366EFF0900368E070C5
:1000660002A3E06031900366E0600E1220F64420A1
:10007600F5181220FD54F7F518AE17AF18EF7803F0
:10008600CEC313CE13D8F930E029120A671220FD29
:100096004420F518801DAE13AF141220BE30E013B5
:1000A600120B20AE13AF148E13EF54EF1221B2448D
:1000B60001F516900366E0B40512900368E070023D
:1000C600A3E06008120A67E4900366F01222BF12EA
:1000D60025C6010400000140000101A900110751D5
:1000E600001202E70111036A0112063D011307DD42
:1000F600012108F00122092C012300000973900355
:1001060066E064056003020973AE17AF18EF780660
:10011600CEC313CE13D8F930E00302097312217946
:10012600041222941220F654F7F518120A99442064
:10013600F518E4900366F0020973900366E0FF6425
:10014600017003020973EF6402702F90036AE07076
:1001560004A3E06401700A900368F0A37411020717
:10016600A790036AE07004A3E064026003020973C7
:10017600900368F0A374120207A7900366E0FFB429
:10018600030B1220455003020973020957EF64045A
:1001960060030209731221A212204C400302097364
:1001A60002096C900366E0B401069003680207EB4F
:1001B600900366E0640260030202BA90036AE0708C
:1001C60004A3E0640170471222C974111220FC12C4
:1001D6002216E4FFFE125A48EF24F4600E24DC6077
:1001E600132470601824BD701D801B12219B74029D
:1001F600F00207AA12219B7403F00207AA12219BA0
:100206007404F00207AA12219B04F00207AA9003C5
:100216006AE07004A3E0640270541220FD1222B456
:100226007412120A4C7F06125114121FE1F07F0558
:100236001251149003A3EFF0E0D39412400374120A
:10024600F09003A3121FE6120AED121FE4120AF73A
:10025600121FE4120B01121FE4120B0B121FE5F022
:100266007F031251141221E55407F002097312217B
:100276009B74031220FC1222B47413120A4C7F03DF
:100286007E00125A489002D0EFF0AE19AF1A30E74E
:100296000D8E19EF4402F51AE0547FF080078E198F
:1002A600EF54FDF51A7F047E00125A4890020BEFB8
:1002B600F0020973900366E0FFB4030B1220455069
:1002C60003020973020957EF64046003020973C34A
:1002D60090036BE0940312204C4003020973020959
:1002E6006C900366E0B4010A1221797411F0A3023E
:1002F60007EB900366E06406703D122240702DEF16
:1003060024FE601214601714601C2403701E9003F0
:10031600657403F08016900365740CF0800E9003EC
:10032600657430F0800690036574C0F0900365E054
:10033600FDE4FFFE020835900366E0FFB4030B12EE
:1003460020455003020973020957EF640460030253
:100356000973C390036BE0940412204C4003020916
:100366007302096C900366E0B401101221797411CE
:10037600F0A3E4F0A37402F00207AA900366E0FD7E
:10038600B402030207FEED640660030204B690039E
:10039600A7121FF69003A3121FF69003A4121FF6CE
:1003A6009003A5121FF690038E121FF690038D126E
:1003B6001FF6E4900364F0120B18120B189003A7B3
:1003C600E0FF9003A3E0FD9003A4E0FB9003A5E00B
:1003D600F54790038EE0F54890038DE0F5491250FD
:1003E600C17F017E001258817F061251149003A727
:1003F600E06F600B90036412207040BB02046B7FB9
:1004060005125114EF541FFF9003A3E06F600B9089
:10041600036412207040A002046B7F0412511490F2
:1004260003A4E06F600A900364122070408980354F
:100436007F021251149003A5E06F600D90036412C1
:10044600207050030203BD801C7F011251149003DB
:100456008EE06F600D90036412207050030203BD9E
:100466008003120AB37F06125114121FE1F07F05B2
:1004760012511412229C40037412F09003A3121F0F
:10048600E6120AED121FE4120AF7121FE4120B011C
:10049600121FE4120B0B121FE5F01245EF1221E5B5
:1004A60070037407F09003A6E0FF1255BD020973AE
:1004B600900366E0640360030205741220BA30E01C
:1004C6000B1220455003020973020957122240609D
:1004D60003020973EF1225A004F701050802051BA4
:1004E60003052E04053F05054C06055D07000009BA
:1004F600739003A7E0600280669003A77463F0021E
:1005060009739003A3E06401600280539003A3740F
:100516000CF00209739003A4E0640160028040902D
:1005260003A4741FF00209739003A5E06002802FF4
:100536009003A57417F002097390038EE0600280A1
:100546001E90038E800B90038DE060028011900355
:100556008D743BF00209739003A6E064016006E027
:1005660014F00209739003A67407F00209731222AD
:10057600D060030209731220BA30E012C390036BF5
:10058600E0940712204C400302097302096C122200
:10059600406003020973EF1225A005B90105CC02DC
:1005A60005DC0305EC0405FF050612060625070013
:1005B6000009739003A7E0C394635002806AE49035
:1005C60003A7F00209739003A3E0C3940C500280C2
:1005D600579003A3805B9003A4E0C3941F5002804E
:1005E600479003A4804B9003A5E0C3941750028064
:1005F60037E49003A5F002097390038EE0C3943BA1
:1006060050028024E490038EF002097390038DE07B
:10061600C3943B50028011E490038DF0020973905D
:1006260003A6E0C394075006E004F00209739003A2
:10063600A67401F0020973900366E0B4011012215A
:10064600797411F0A3E4F0A37403F00207AA9003EF
:1006560066E0FDB402030207FEED64067023122273
:100666004A9002D030E005E044808001E0FD7F033F
:100676007E00124B7190020BE0FD7F047E000208A3
:1006860035900366E0FD640370581220BA30E00B23
:10069600122045500302097302095790036AE0705D
:1006A60004A3E06401702712224A30E0119002D0C0
:1006B600E0C36480948C40030209730208E190024F
:1006C600D0E0705C1222D74402F51A020973900238
:1006D6000BE0600514F002097390020B743BF00204
:1006E6000973ED640460030209731220BA30E00E48
:1006F6001221A212204C400302097302096C9003D6
:100706006AE07004A3E06401702D12224A30E016FC
:100716009002D0E0700A1222D754FDF51A0209732E
:100726009002D00208809002D0E0C36480948E408C
:10073600030209730208E190020BE0C3943B5003E5
:100746000208E1E490020BF0020973900366E0B43C
:10075600010712217904020938900366E0640270E9
:100766004D90036AE07004A3E0640170201222C970
:1007760074211220FC1222161221B44404F5167FAD
:10078600207E001248937F0A7E000208CD90036AFD
:10079600E07004A3E0640260030209731222C974C4
:1007A600231222941221B44404F5160208FF900382
:1007B60066E0FFB4030B12204550030209730209D9
:1007C60057EF640460030209731221A212204C4001
:1007D6000302097302096C900366E0B40112122148
:1007E600797412F0A3120A8112219B04F002097394
:1007F600900366E0FDB4022A1220BA5401F4FFEF1A
:100806005401C4F8540FC868FFE4C454F048FEAA63
:1008160017AB18EB54EFFBEA4EF517EB4FF5180242
:100826000973ED640670111221C39002CDE0FD122A
:100836004B71120AB3020973900366E064037049B0
:100846001220BA30E00B1220455003020973020948
:100856005790036AE07004A3E0640170159002CE1D
:10086600E0600414F080069002CE745FF01221C39B
:1008760080559002CDE064016006E014F002097331
:100886009002CD7403F00209731222D060030209AC
:10089600731220BA30E00E1221A212204C4003023D
:1008A600097302096C90036AE07004A3E0640170A6
:1008B600219002CEE0C3945F5005E004F08005E489
:1008C6009002CEF01221C3125A489002CDEFF002E8
:1008D60009739002CDE0C394035006E004F00209C8
:1008E600739002CD7401F0020973900366E0B401BF
:1008F6001212217974121222947F207E00124893DC
:10090600020973900366E0FF64026061EFB40307B7
:100916001220454058803A1222D070511221A2125C
:10092600204C50498040900366E0B40112122179B0
:100936007412F0A3120A8112219B7402F0802E9089
:100946000366E0FF64026025EFB4030B1220454006
:100956001C74FFF5F08013900366E0B4040F1221B7
:10096600A212204C5007E475F001122431E49003E2
:1009760066F01222BF1225C609AA000009B70001B7
:1009860009C0001109E4001209C9011109D20112B6
:1009960009DB011309ED012109F6012209FC0123F6
:1009A60000000A421220FD54BFF518122B2E020039
:1009B600591221BC124E6F0200591221BC1242B5C7
:1009C6000200591221BC123DF80200591221BC1234
:1009D60014870200591221BC123BC0020059122191
:1009E600BC124A530200591221BC123A8D02005918
:1009F600125CC7020059124BF8EF24FB6013240463
:100A0600702B122179120AE21220FD4420F518807B
:100A160022E4900368F0A3F0120A994420F518E442
:100A26009003661220FC4440F51802005912217901
:100A3600120AE212219B7402F0020059E490036844
:060A4600F0A3F0020059CC
:100A4C00A3F0A3E4F0A304F0AE15AF168E15EF449B
:100A5C0004F5167F207E0012489322E4900368F080
:100A6C00A3F0AE15AF168E15EF4404F5167F207E5D
:100A7C000012489322E4F0A304F0AE15AF168E15C5
:100A8C00EF4404F5167F207E0012489322AE15AF7A
:100A9C00168E15EF4404F5167F207E00124893AE97
:100AAC0017AF188E17EF227BFF7A55798BE4FD7FF9
:100ABC000312492A7BFF7A5579857D087F031249F9
:100ACC002A7FE87E031258817BFF7A55799CE4FDDE
:100ADC007F0312492A227412F07F207E0012489361
:100AEC0022F07F041251149003A422F07F021251C1
:100AFC00149003A522F07F0112511490038E22F062
:100B0C00E4FF125114EF547F90038D227F017E007D
:040B1C0012588122C8
:100B2000E490036CF090036F12256F0000000090BA
:100B3000037312256F000000009002EDE0600302D5
:100B400010B8900377F01221EC500F74F32E12219D
:100B500054642A60051221CF80EC74F42E122030E8
:100B6000D39430401674F42E122030C39439500BB5
:100B700074F42E12203024D0F0804074F42E122011
:100B800030D39461401674F42E122030C3947A50FE
:100B90000B74F42E122030249FF0801F74F42E1258
:100BA0002030D39441401474F42E122030C3945A50
:100BB000500974F42E12203024BFF0122039D3943F
:100BC000304010122039C39439500812203924D0F3
:100BD000F0802E122039D394614010122039C39432
:100BE0007A5008122039249FF08016122039D394AD
:100BF00041400E122039C3945A500612203924BFA6
:100C0000F0122009900379F0E0C454F0F054F0FEA3
:100C1000F074F52F12203C4E900379F09002F4E02E
:100C2000900378F09003777402F0900361E024FC65
:100C30001221F05014A3E0FF74F32E122154FEEFA2
:100C40006E9003781221CE80E1900379E0FF90034B
:100C500078E06F600302109A900361E0D39414501F
:100C600003020DB0E094504003020DB09002F3E097
:100C700064246003020DB0A3E064476003020DB07A
:100C8000A3E064506003020DB0A3E0644760030278
:100C90000DB0A3E064536003020DB0A3E06456609E
:100CA00003020DB0A3E0642C6003020DB090037842
:100CB000F0900377F01221EC501974F32E122154A6
:100CC000B42C0B900378E004F0E06403600512217B
:100CD000CF80E274F42E122030D39430401674F496
:100CE0002E122030C39439500B74F42E122030246D
:100CF000D0F0804074F42E122030D39461401674EA
:100D0000F42E122030C3947A500B74F42E1220303B
:100D1000249FF0801F74F42E122030D3944140148D
:100D200074F42E122030C3945A500974F42E1220F9
:100D30003024BFF0122039D394304010122039C330
:100D40009439500812203924D0F0802E122039D343
:100D500094614010122039C3947A5008122039242B
:100D60009FF08016122039D39441400E122039C3CF
:100D7000945A500612203924BFF0122009900379AA
:100D8000F074F42F12203075F00AA4FF900377E07E
:100D900024F512203C2F900379F01221051222E154
:100DA000900379E09002D2F0D3940C4003740CF0DD
:100DB000900361E0D39414500302109AE0945040E1
:100DC0000302109A9002F3E06424600302109AA3D5
:100DD000E06447600302109AA3E0645060030210CD
:100DE0009AA3E06452600302109AA3E0644D60038A
:100DF00002109AA3E06443600302109AA3E0642CFB
:100E0000600302109A9003777407F01222EB940D9E
:100E10005010122151C39430500302109A1221CF66
:100E200080E99002FAE0C39433400302109AA3E0F1
:100E3000C3943A400302109AA3E0C39436400302DD
:100E4000109AA3E0C3943A400302109AA3E0C3941B
:100E500036400302109AA3E0C3943A400302109A6A
:100E60009003777407F01222EB940D500A1221516F
:100E700024D01221CE80EF9002FAE09002F81221E5
:100E8000809002FBE0FEEF4E9002F8121FE5900307
:100E900079F09002FCE09002F91221809002FDE0CE
:100EA000FEEF4E9002F9F09002FEE09002FA12215D
:100EB000809002FFE0FEEF4E9002FAF0E49003789B
:100EC000F0900361E0900377F0900377E0FFD39414
:100ED00007401C122151B42C06900378E004F090D6
:100EE0000378E064036008900377E014F080DA127E
:100EF0002227F583E0C39430500302109A12218F09
:100F0000C39430500302109A900377E0122254C326
:100F10009430500302109A122234C39430500302CA
:100F2000109A1221D6C39430500302109A74ED2FF8
:100F3000F582E43402F583E0C39430500302109A42
:100F400012222712218924D0F074F02F1222562465
:100F5000D0F012223424D0F074EE2F1221DC24D0F1
:100F6000F074ED2FF582E434021221899002F4121C
:100F70002180900377E0FE12222CF583E0FDEF4DF7
:100F80009002F4F074EF2E1222379002F5122180B5
:100F9000900377E0FE122254FDEF4D9002F5F074BD
:100FA000ED2EF582E43402F583E09002F612218002
:100FB0001221D6FEEF4E9002F612144D30E71512B4
:100FC0002287500B1221F9121FE6122079801D1280
:100FD000225F801812226F4013E024E8F09002F69E
:100FE000121FE690037AF0E00412207F900379E06C
:100FF0009002F81220841245EF1221E57003740765
:10100000F09003A6E0FF1255BD90026CE064A06072
:101010000302109AE490036CF01221231250C112C3
:101020001431600712206D40F0802E12145B6007AF
:1010300012206D40E48022121466600712206D4079
:10104000D88016121471600712206D40CC800A12ED
:10105000147C600512206D40C07F06125114121FCF
:10106000E1121423E0D3941240037412F09003A30E
:10107000121FE6121443121FE4F01245EF1221E58D
:1010800070037407F09003A6E0FF1255BD7F017E48
:10109000001258811221051222E11221B454F7F5F1
:1010A000167F0A7E00125881E4FF12577AE49002FC
:1010B000EDF07F01FE0213D19002EDE064016003C8
:1010C0000213D4AE19AF1AEF7802CEC313CE13D8E1
:1010D000F920E0030213C390031BE0FF900313E029
:1010E0006F60030213C390031CE0FF900314E06FD2
:1010F00060030213C390031DE0FF900315E06F60CF
:10110000030213C390031EE0FF900316E06F600319
:101110000213C390031B1220E47818122538122002
:10112000EAE4FFFEFDEC1220EA12217390031C1288
:1011300020E478101225381220EAE4FFFEE41221A0
:101140005D90031D1220E478081225381220EAE48D
:10115000FFE4FD12215D90036F12255790031EE0FE
:10116000FFE4FCFDFE1221701222F2E42FFFEE34A8
:10117000A3FEED3402FDE43CFC1221737B3E7A8534
:1011800079E178011222F21224A6EF249CFFEE34BA
:10119000FF90036DF0A3EFF09002F4122054900240
:1011A000F41221AA9002F4121FF47B3E7A8579E1B1
:1011B000780112213F7B6F7A20792878001224A6CB
:1011C000EF049002F51220549002F51221AA900229
:1011D000F5121FF47B6F7A20792812213D7B807AEB
:1011E00051790178001224A69002F6122053900241
:1011F000F61221AA2F9002F6121FF57B807A517900
:101200000112213DE47B107A0EF9F81224A6900217
:10121000F81220539002F81221AA2F9002F8121F00
:10122000F5E47B107A0EF9F812213FE47B3CFAF9E1
:10123000F81224A69002F91220539002F91221AA62
:101240002F9002F9121FF5E47B3CFAF9F81222F212
:101250001224A69002FAEB1220549002FA1221AA4C
:101260002F9002FA121FF590035DE0D394324006EE
:101270009002FAE004F012227F441012210E440181
:10128000F51CE49002D3F090036CF0AE11AF12EFB6
:1012900030E0437F061251149003A7EF1214237F0E
:1012A000041251149003A4EFF07F02125114900322
:1012B000A5EFF07F0112511490038EEFF0E4FF12BE
:1012C0005114EF547F90038DF0E0FF9002FAE0C3D9
:1012D0009F500302137B9002F8121FE690037912CD
:1012E000144D30E715122287500B1221F9121FE618
:1012F000122079801D12225F801812226F4013E0A5
:1013000024E8F09002F6121FE690037AF0E004124F
:10131000207F900379E0FF75F00A84C454F0FEEF5B
:1013200075F00A84EE25F09002F8F090026CE0640B
:10133000A160030213C1E490036CF0122123125048
:10134000C1121431600712206D40F0802E12145B20
:10135000600712206D40E48022121466600712209C
:101360006D40D88016121471600712206D40CC8039
:101370000A12147C600512206D40C07F06125114C1
:10138000121FE1F07F0512511412229C40037412C7
:10139000F09003A3121FE6121443121FE4F012454B
:1013A000EF1221E570037407F09003A6E0FF1255D9
:1013B000BD90036CE0C39405500712227F4401F5F1
:1013C0001200007F0112577A9002ED7401F0FF7E47
:1013D000000258819002EDE064027046900377F0BD
:1013E0001222EB9408500A12215124E01221CE80DF
:1013F000EF12227F4404F51290026CE064A2702187
:101400009002F7E0FF1255BD1221231250C11221A4
:101410001B4404F51C12227F4402F512E49002CF13
:02142000F000DA
:1014220022F07F05125114EF541F9003A3F0227F84
:10143200017E001258817F061251149002F4E06F6F
:1014420022F07F041251149003A422F07F037E0045
:10145200125A4890037AEFF0227F0512511490023B
:10146200F5E06F227F041251149002F6E06F227FA2
:10147200021251149002F8E06F227F01125114906F
:0514820002F9E06F22F9
:10316B00E490036CF0051EE51EC3945F4003E4F589
:10317B001EE490036DF0E51E1221C7125A4890030E
:10318B006CEFF024FE602204703B90036EE4F0A31E
:10319B007432F090036DE0FF1257097F0212332750
:1031AB007F027E00125881802490036E7401F0A37D
:1031BB00742CF090036D7406F0AF1E12506A7F648E
:1031CB00123327800890036EE4F0A304F090036E93
:1031DB00E07002A3E0700302330990036E74FFF5F5
:1031EB00F01224317F017E0012588190036CE02491
:1031FB00FE606F0470D7AE13AF14EF7805CEC31318
:10320B00CE13D8F930E0C6AE13AF148E13EF54DFE4
:10321B001221B24402F5169002D4E0B4A5AFA3E09C
:10322B00B45AAAA3E0B4A5A5A3E0645A709FA3E087
:10323B0064A57099A3E0645A7093A3E064A5708DA4
:10324B00A3E0645A7087A3E0F47082A3E0B51E0379
:10325B000232F21220CAE0C3940350030233260257
:10326B00332175470075480075490C7B017A02794B
:10327B00D41247F7EF70030231D89002D4E0640206
:10328B0060030231D8A3E064A560030231D8A3E048
:10329B00645A60030231D8A3E064A560030231D8FD
:1032AB00A3E0645A60030231D8A3E064A560030273
:1032BB0031D8A3E0645A60030231D8A3E064A5605F
:1032CB00030231D8A3E0645A60030231D8A3E0F4BF
:1032DB0060030231D89002DFE0640360030231D84F
:1032EB009002DEE0B51E0C1220D8E4F01222A87476
:1032FB0001F0221220CAE0C39403401F80189003F0
:10330B006DE004F0E0C3940650030231811220CA31
:0B331B00E0C3940340051222A8E4F078
:0C332600227E00125881AF1E12506A2255
:10452E00E490036CF01220977420F07F061245CCB5
:10453E00EFF07F051245CCEFF07F041245E112201B
:10454E00B2EFF07F031251141221E55407F0E0FF91
:10455E0012220B1220B2EFF07F021245E11220B2AE
:10456E00EFF07F0112511412220B1220B2EFF0E481
:10457E00FF125114EF547FFF12220B1220B2EFF0F4
:10458E0090036CE0246D1220B2E0041220A7740197
:10459E00F090036C1220977403F07B017A03796D0F
:1045AE007D0C12534E7F647E001258817B017A037C
:0E45BE00796D7D0C1258DB7F647E00025881FF
:1045CC0012511490036CE0FE04F0746D2EF582E42D
:1045DC003403F5832212511490036CE0FE04F07442
:0345EC006D2E220F
:1057550090020AE024FE600D14600D14600D1460C3
:105765000D2404800C024EDF02524202554B0259B1
:05577500D9124C7D2259
:105A160090036DE0FFC394102290036CF0E4A3F0B2
:015A2600225D
:044893008E468F4777
:10489700E4F5A07480125A1F125A1650051248F6F2
:1048A70080F6E490036DF07488125A1F125A16505E
:1048B700051248F680F6E490036DF090036C74904F
:1048C700F0E4A3F0125A16500512491080F6E4904E
:1048D700036DF090036C7498F0E4A3F0125A16502D
:0E48E7000512491080F6E490036DF075A0A054
:1048F5002290036CE02FFF1234F47F2012366E7F76
:104905002012366E90036DE004F02290036CE02FC8
:10491500FF1234F47F2012366E7F2012366E90031C
:054925006DE004F0222A
:105688008D1FE4F5A01234F4E51F75F00A84243068
:10569800FF12366EE51F75F00A84E5F02430FF121C
:0B56A800366E7F3A12366E75A0A0220D
:0A492A008F468D478B488A49894A61
:10493400E4F5A07F01FE125881E546D394034003B9
:10494400754603E547D394084003754708E54614C4
:1049540060101460131460162403701AE547248051
:104964008010E5472488800AE54724908004E547C1
:104974002498900387F0900387E02547F0E0FF1226
:1049840034F48024AB48AA49A94A12231A90038616
:10499400F06421601C7401254AF54AE43549F5495F
:1049A400900386E0FF12366E7F017E0012588180EC
:0B49B400D37F017E0012588175A0A087
:0149BF0022D5
:1054D400E4F5A07F0AFE1258811255001255007F90
:1054E4000C1255097F011255097F061234F4125625
:1054F4005A7F207E0012489375A0A0227F30123478
:0C550400F412565A221234F412565A22A5
:10565A00E4900364F0E4900365F0E4900366F0904C
:10566A000366E004F0E0B433F6900365E004F0E08A
:0D567A00B440E7900364E004F0E0B403D80E
:015687002200
:0100220022BB
:0A5C88007F301234F47F080234F478
:0A5C92007F361234F47F300234F440
:0A5C9C007F341234F47F300234F438
:104FB000E49003AEF01250089003AD124FF5C28298
:104FC000125000125008001250009003AE124FF51C
:104FD000C2829003ADE054F0FFF0A3E0C4540FF0A0
:104FE000540FF04F9003ADF07F017E00125C5190A2
:044FF00003ADE0FF2E
:104FF40022E580F07F017E00125C51227F017E0059
:0E500400125C5122124DF7D280D281D282224C
:02366E008F4B80
:10367000E4900388F0124DF7E54B54F0900388F086
:103680001225A036B70036BB1036C12036C73036FB
:10369000D14036D55036DB6036E17036EB8036EF00
:1036A0009036F5A036FBB03705C03709D0370FE0AC
:1036B0003715F00000371DC2848002D284C2858095
:1036C0000AC284D2858004D284D285C286C2878011
:1036D0004CC2848002D284C285800AC284D2858092
:1036E00004D284D285D286C2878032C2848002D23C
:1036F00084C285800AC284D2858004D284D285C2E5
:1037000086D2878018C2848002D284C285800AC291
:1037100084D2858004D284D285D286D2871237D8CB
:10372000C2827F147E00125C51E54BC454F09003BA
:1037300088F054F0F01225A0376C003770103776FF
:1037400020377C30378640378A5037906037967004
:1037500037A08037A49037AAA037B0B037BAC037A7
:10376000BED037C4E037CAF0000037D2C28480022E
:10377000D284C285800AC284D2858004D284D28554
:10378000C286C287804CC2848002D284C285800AED
:10379000C284D2858004D284D285D286C287803208
:1037A000C2848002D284C285800AC284D285800409
:1037B000D284D285C286D2878018C2848002D28405
:1037C000C285800AC284D2858004D284D285D28602
:0737D000D2871237D8C28234
:0F37D70022D280C281D2827F147E00125C5122E6
:0234F4008F4BFC
:1034F600E4900388F0124DF7E54B54F0900388F002
:103506001225A0354100354510353D20354B303567
:103516005540355950355F60356570356F80357368
:10352600903579A0357FB03589C0358DD03593E09B
:103536003599F0000035A1C284800CC2848002D285
:1035460084C2858004D284D285C286C287804CC25A
:10355600848002D284C285800AC284D2858004D245
:1035660084D285D286C2878032C2848002D284C247
:1035760085800AC284D2858004D284D285C286D24E
:10358600878018C2848002D284C285800AC284D20F
:10359600858004D284D285D286D2877F017E0012AE
:1035A6005C51123660C2827F017E00125C51E54B8F
:1035B600C454F0900388F01225A035F40035F810B5
:1035C60035FE20360430360E403612503618603638
:1035D6001E70362880362C903632A03638B03642E9
:1035E600C03646D0364CE03652F00000365AC28419
:1035F6008002D284C285800AC284D2858004D284A5
:10360600D285C286C287804CC2848002D284C2859B
:10361600800AC284D2858004D284D285D286C287AB
:103626008032C2848002D284C285800AC284D28556
:103636008004D284D285C286D2878018C284800252
:10364600D284C285800AC284D2858004D284D2857F
:09365600D286D287123660C282CE
:0F365F0022C280C281D2827F017E00125C512282
:104DF700E490038AF0A3F0900389F0124E539003D6
:104E07008A124E64C28200007F017E00125C51123A
:104E17004E5390038B124E64C282000090038BE0C6
:104E2700C4540FF0540FFFF090038AE054F0F04F92
:104E3700F07F017E00125C5190038AE030E70C900E
:0B4E47000389E004F0E0C3941440B0C5
:104E5200227580F0C280D281D2827F017E00125CF4
:0D4E62005122E580F07F017E00125C51229C
:104004002020A46CC4C1B373BD75AAACBA412020EE
:1040140021B3C9B9A6202020202020202020202040
:10402400202100CAA7B0DC2020202020202020202E
:104034002020202100B3F5CABCBBAF2E2E2E2E2E7D
:104044002E202020202100D3B2CCE5B0E6B1BE3A28
:104054002056312E3020202100C8EDCCE5B0E6B149
:10406400BE3A2056312E3020202100BCECB2E24E64
:1040740054502E2E2E2E2E2E2020202100BCECB2A9
:10408400E24750532E2E2E2E2E2E2020202100BC0F
:10409400ECB2E2434F4D2E2E2E2E2E2E2020202128
:1040A40000202020202020C5E4D6C320202020206A
:1040B40020210020312ED7D3D6D3B9DCC0ED202067
:1040C400202020210020322ECAB1BCE4D4B4202008
:1040D400202020202021002000200020002020A4D7
:0E40E40040A447A454A57CA4ADA4BBA4E9212C
:1037E600900371E0FF04F074722FF582E43403F560
:1037F600837420F0900371E0FF04F074722FF58259
:10380600E43403F5837420F0900371E0FF04F07450
:10381600722FF582E43403F583229003A7EFF0E0DC
:10382600C4540F2430FF90038CE0FE04F0748F2EF6
:10383600F582E43403F583EFF09003A7E0540F24F8
:1038460030FF90038CE0FE04F0748F2EF582E43492
:1038560003F583EFF022E0C4540F2430FF90037188
:10386600E0FE04F074722E22E490038CF0E0FF0474
:10387600F0748F2FF582E43403F5837432F09003ED
:103886008CE0FF04F0748F2FF582E43403F5832275
:103896007421F07B017A037972E4FD2275A0607BC6
:1038A600017A03798F2290036CE0FAA3E0FB7C0097
:1038B600FFAE020223A69003A6EFF0E05407F0E065
:1038C60022AE19AF1AEF780722D2C17F017E0022FD
:1038D6009003A3EFF0E0229003A4EFF0E022E54589
:1038E600240AFEE43390036CF0A3CEF022C2C17F1B
:1038F600017E0022FE7C007D0A0223A6740C25456B
:10390600F582E43402F583E022745BF0AE11AF1267
:103916002290036CEEF0A3EF22AE17AF188E17EFCE
:1039260022E0241054F0F0229003A5EFF0E022905C
:0F393600038EEFF0E0227C00AF03AE020223A667
:10599400D2C01238CF125C51C2C07F017E00125CAB
:0759A400511238F3025C51BF
:105A2700C2C01238CF125C51D2C07F017E00025C27
:015A3700511D
:10582300A20092C0125835125C51D2C112583502EF
:105833005C517F0A7E00125C51C2C17F0A7E002246
:0F5A78001238CF125C51A2C01238F3125C5122C7
:025012008F4CC1
:10501400E4F54EAE19AF1A8E19EF547FF51AE4F584
:105024004DE54C25E0F54C92C01238CF125C51127C
:1050340038F3125C51054DE54DC3940840E3125A10
:10504400785020AF4E054EEF941E400EAE19AF1AA5
:105054008E19EF4480F51AC2C0227F017E00125CD3
:055064005180DBC2C019
:015069002224
:10562B00E4F548D2C0F547E54825E0F5481238CFF8
:10563B00125C51A2C0E43342481238F3125C51059C
:0E564B0047E547C3940840DFC2C1C2C0AF4864
:01565900222E
:045166008F4A8D4B94
:10516A00C2AF1259947FDE1250121238C7CEC3133F
:10517A00CE13D8F920E0EBAF4B1250121238C7CE3B
:10518A00C313CE13D8F920E0D9AF4A1250121238FD
:10519A00C7CEC313CE13D8F920E0C7125A27D2AF0D
:0751AA007F057E0002588121
:025114008F45C5
:10511600C2AF1259947FDE1250121238C7CEC31393
:10512600CE13D8F920E0EBAF451250121238C7CE95
:10513600C313CE13D8F920E0D91259947FDF125049
:10514600121238C7CEC313CE13D8F920E0C41256B4
:0F5156002B8F46D200125823125A27D2AFAF46E2
:015165002227
:0255BD008F4419
:1055BF007F0312511490037BEFF07D077F40125150
:1055CF00667F017E00125881E54490037BB4FF058E
:1055DF00E044088008E054F8F044084544FFF07DAB
:0455EF0003125166EC
:0155F3002295
:1050C1008D458B467D061250FE7D05AF451250FE83
:1050D1007D04AF461251097D02AF471251097D018E
:1050E100AF481251667F0A7E00125881E54944801B
:1050F100FFE4FD1251667F0A7E000258811251665B
:105101007F0A7E00125881221251667F0A7E0012A8
:03511100588122A0
:105843009003A7E0B49903E4F0229003A7E0540F78
:0F585300FFBF0904123927229003A7E004F022B7
:1057C0009003A3E024EE600B2409700E9003A374F1
:1057D00010F0229003A37401F0229003A3E004F0E0
:0157E00022A6
:1055F4009003A4E024F7601324F0601624F06019EB
:1056040024F8701C9003A47401F0229003A4741075
:10561400F0229003A47420F0229003A47430F022AA
:075624009003A4E004F02252
:1056B3009003A5E024F7601524F0600A24F6701423
:1056C300E49003A5F0229003A57420F0229003A593
:0B56D3007410F0229003A5E004F02208
:1058620090038EE0B45903E4F02290038EE0540FCB
:0F587200FFBF09041239272290038EE004F022B1
:10579D0090038DE0547FF0E0B45903E4F0229003C0
:1057AD008DE0540FFFBF09041239272290038DE0BD
:0357BD0004F022D3
:055CBD007FFF0255BD50
:101C5600E490036CF0A3F0A3F0A3F0900371F012EC
:101C66003811743212380D7430F07F061251149008
:101C760003A7EFF012385C123818EFF09003A7E0D4
:101C860012385E123818EFF012380E74A612380D9C
:101C9600747E1237F97420F07F051251141238D66B
:101CA600D3941240037412F09003A312385C1238D6
:101CB60018EFF09003A3E012385E123818EFF01216
:101CC600380E74A412380D74EBF07F0412511412FE
:101CD60038DDD3943140037431F09003A412385C9C
:101CE600123818EFF09003A4E012385E123818EF9D
:101CF600F012380E74A412380D74E912380D123829
:101D060096FF12492AE4900371F0AE11AF12EEC3AA
:101D160013EF1330E008123811742BF080061238D6
:101D26000E7420F07F0212511412392ED3942340E0
:101D3600037423F09003A512385C123818EFF09064
:101D460003A5E012385E123818EFF012380E743A16
:101D5600F07F01125114123935D394594003745946
:101D6600F090038E12385C123818EFF090038EE074
:101D760012385E123818EFF012380E743AF0E4FF9B
:101D8600125114EF547F90038DF0E0D39459400321
:101D96007459F090038D12385C123818EFF09003E6
:101DA6008DE012385E123818EFF01237FA74AC1262
:101DB600380D745012380D74B412380D74C1F07F9A
:101DC600031251141238BC25E0F0E09040E1931262
:101DD6003862123818EFF09003A6E09040E29312B2
:101DE6003862123818EFF012380E1238967F021247
:101DF600492AE4900371F012381112390FEEC4F833
:101E060054F0C8EFC4540F4890037130E0121238F2
:101E160011744E12380D745412380D7450F0800639
:101E26001237E97420F012380E745D12380D12392B
:101E36000FEF7803CEC313CE13D8F990037130E0B9
:101E4600351238117447F09002D2E0FF75F00A841B
:101E56002430FE900371E0FD04F074722D123818E0
:101E6600EEF0EF75F00A84E5F02430FF12386312C5
:101E76003818EFF080061237E97420F012380E7425
:101E86005D12380D12390FEF7802CEC313CE13D878
:101E9600F990037130E012123811744312380D7440
:101EA6004F12380D744DF080061237E97420F01287
:101EB600380E745D1237F91238967F0312492A12CA
:101EC600438E123917F0E4900371F0EFF47002EECE
:101ED600F460307D641238ACEF2430FF12386312A0
:101EE6003818EFF07D6412393C7E007F0ACFCDCFE3
:101EF600CECCCE1223A6EF2430FF12386312381848
:101F0600EF800A12380E742112380D742012380D23
:101F1600742512380D745212380D7448F01237E6D3
:101F26007420F01241D4123917F0F47002EEF470F6
:101F360003021FBE90036CE0FEA3E0FFA3EEF0A336
:101F4600EFF0C394C8EE94005014C374C89FFFE426
:101F56009E1238FA1239171237F9742D8019900328
:101F66006DE02438FF90036CE034FF1238FAEEF08F
:101F7600A3EF1237F97420F07D0A1238ACEF243043
:101F8600FF123863123818EFF07D0A12393CED243F
:101F960030FF123863123818EF12380D742EF09095
:101FA600036EE0FEA3E0FF1238FBED2430FF12388B
:101FB60063123818EFF0800E1237E61237F77421E5
:101FC60012380D7420F012380E74A212380D744AAD
:0B1FD60012380D1238967F0102492AD4
:0218C2008F4550
:1018C400E490036CF0A3F0A3F07BFF7A407904FD6D
:1018D400FF12492AE4F5A07F90121B231238E41268
:1018E4003902601E121AE7BF01047F528008121ADF
:1018F400E7BF02097F4612366E7F4F801E121BCC53
:101904008019121AF3BF0105121C1A800E121AF361
:10191400BF0205121C228003121BCC12366E121B4E
:10192400577F88121B23123902601E121AFFBF014F
:10193400047F528008121AFFBF02097F4612366ED6
:101944007F4F801E121BEA8019121B0BBF01051268
:101954001C1A800E121B0BBF0205121C22800312DC
:101964001BEA12366E121B577F981234F4121B8F27
:10197400601E121B17BF01047F528008121B17BF81
:1019840002097F4612366E7F4F801E121BFE80199D
:10199400121B4BBF0105121C32800E121B4BBF02DF
:1019A40005121C3A8003121BFE12366E7F5D12363E
:1019B4006E121C0612366E05451238E47F94121A14
:1019C400AE601E121B77BF01047F528008121B7782
:1019D400BF02097F4612366E7F4F801E121C06809E
:1019E40019121B83BF0105121C32800E121B83BF08
:1019F4000205121C3A8003121C2A12366E121BD4E2
:101A04007F8C121AAE601E121BC0BF01047F52806D
:101A140008121BC0BF02097F4612366E7F4F802614
:101A2400121C2A8021121BF2BF01097F5212366E4A
:101A34007F588012121BF2BF02097F4612366E7F56
:101A4400588003121C4212366E121BD47F9C12342F
:101A5400F47F2012366E121B8F601E121C0EBF0103
:101A6400047F528008121C0EBF02097F4612366E94
:101A74007F4F802A121C428025121C4ABF01097F15
:101A84005212366E7F588016121C4ABF02097F46D6
:101A940012366E7F5880077F2012366E7F201236F2
:091AA4006E7F5D12366E75A0A084
:101AAD00221234F47F2012366EE54575F00A842437
:101ABD0030FF12366EE54575F00A84E5F02430FFEF
:101ACD0012366E7F3A12366E7F5B12366E740C25AF
:101ADD0045F582E43402F583E02290036CE0FEA329
:101AED00E0FF125A482290036CE0FEA3E0FF125A69
:101AFD00482290036CE0FEA3E0FF125A48229003A7
:101B0D006CE0FEA3E0FF125A482290036CE0FEA3A6
:101B1D00E0FF125A48221234F4E54575F00A842488
:101B2D0030FF12366EE54575F00A84E5F02430FF7E
:101B3D0012366E7F3A12366E7F5B12366E2290032E
:101B4D006CE0FEA3E0FF125A48227F5D12366E7FD5
:101B5D002012366E7F2012366E0545E545240AFEAD
:101B6D00E43390036CF0A3CEF02290036CE0FEA35F
:101B7D00E0FF125A482290036CE0FEA3E0FF125AD8
:101B8D004822E54575F00A842430FF12366EE5458E
:101B9D0075F00A84E5F02430FF12366E7F3A123666
:101BAD006E7F5B12366E740C2545F582E43402F5BA
:101BBD0083E02290036CE0FEA3E0FF125A48227FDF
:101BCD002012366E7F20227F5D12366E0545E5456B
:101BDD00240AFEE43390036CF0A3CEF0227F201292
:101BED00366E7F202290036CE0FEA3E0FF125A4870
:101BFD00227F2012366E7F20227F2012366E7F20AC
:101C0D002290036CE0FEA3E0FF125A48227F52128D
:101C1D00366E7F58227F4612366E7F58227F2012F5
:101C2D00366E7F20227F5212366E7F58227F4612EB
:101C3D00366E7F58227F2012366E7F202290036CE5
:091C4D00E0FEA3E0FF125A482258
:104BF800E4F544FDAF441218C2123CE1AD07ED6084
:104C08000EE49002EEF0A3F012391F54F7F518AE37
:104C180017AF18EF7803CEC313CE13D8F930E002DC
:104C28008019ED24FD601E14602B14600E2404709E
:104C3800C312391F54DFF5187F012212391F54DFC0
:104C4800F5187F052274062544F544C3945F401780
:104C5800E4F5448012E544C39406400874FA2544F8
:104C6800F544800375445AAE11AF128E11EF4440DB
:054C7800F512024BFCE7
:104C7D0012386E7430F07F061251141238207F05F1
:104C8D001251141238D6C41238439003A31238426D
:104C9D007F041251141238DDC41238439003A4124C
:104CAD0038427F031251141238BC1238477F02125A
:104CBD00511412392EC41238439003A51238427F75
:104CCD0001125114123935C412384390038E123823
:104CDD0042E4FF125114EF547F90038DF0E0C412A3
:104CED00384390038D1238421238A27D0F024D7B4E
:104EDF0012386E7430F07F061251141238207F058D
:104EEF001251141238D6C41238439003A312384209
:104EFF007F041251141238DDC41238439003A412E8
:104F0F0038427F031251141238BC1238477F0212F5
:104F1F00511412392EC41238439003A51238427F10
:104F2F0001125114123935C412384390038E1238BE
:094F3F00421238A27D0D024D7BE7
:1052420012386E7430F07F061251141238207F0526
:105252001251141238D6C41238439003A3123842A2
:105262007F041251141238DDC41238439003A41281
:1052720038427F031251141238BC1238451238A238
:055282007D09024D7BD7
:10554B0012386E7430F07F061251141238207F051A
:10555B001251141238D6C41238439003A312384296
:10556B007F041251141238DDC41238439003A41275
:0A557B0038421238A27D08024D7B71
:1059D90012386E7430F07F061251141238201238C2
:0659E900A27D04024D7BCB
:10449C004202EA00004102ED00410361004102ECDE
:1044AC000042035B00004103540041035A004103E6
:1044BC0059004103560041035E004103580041027C
:1044CC00F00042035F00004102E9014102F10141A9
:1044DC0002F20042036200004103430041035D000D
:1044EC004202EE000041035500410357004102E82F
:0B44FC00004203520000420350000089
:104F4800AE13AF148E13EF54F7F51490035AE4F030
:104F5800AE13AF148E13EF224410F514AE15AF162E
:104F68008E15EF22900361E0FF04F074F32FF582B1
:104F7800E43402F5832274A5F0A3745AF0A374A54F
:104F8800F0A3745AF0A322F51CAE1BAF1C8E1BEFC6
:104F980022E0FF04F0EFC322E475F001122447FE7B
:084FA80022E0FF04F0EFD32228
:08530C008B448A4589468D4758
:105314007F017E00125881E4F548E548C395475063
:1053240017AB44AA45A946854882758300122333E6
:10533400FF120026054880E2AE13AF14EF7806CEC4
:09534400C313CE13D8F920E0EFE9
:01534D00223D
:08534E008B448A4589468D4716
:105356007F017E00125881E4F548E548C395475021
:1053660017AB44AA45A946854882758300122333A4
:10537600FF1258F9054880E2AE13AF14EF7807CE56
:09538600C313CE13D8F920E0EFA7
:01538F0022FB
:10002600AD07AE13AF14EF7806CEC313CE13D8F9CF
:0D00360020E0EF124F584440F5148D992240
:1058F900AD07AE13AF14EF7807CEC313CE13D8F9A3
:0D59090020E0EF124F584480F5148D9B22D2
:02506A008F4471
:10506C007F017E001258819002D47402F0A3124F7B
:10507C007E124F7E74FFF0A3E544F0A37403F07B23
:10508C00017A0279D47D0C1258DB7F017E00125814
:10509C0081E4900370F0900370E0FFC3940C501403
:1050AC0074D42FF582E43402F583E4F0900370E0BD
:0450BC0004F080E29A
:0150C00022CD
:030023000239455A
:10394500C0E0C083C082C0D075D000C000C005C033
:0339550006C007A2
:10395800C2AF43C110209803023A6EC298AD999045
:103968000354E4F0AE15AF16EF20E003023A6E9070
:1039780002EDE07054BD241DAE15AF16EF7803CEEE
:10398800C313CE13D8F920E00C124F644408F5167F
:10399800900361E4F0AE15AF16EF7803CEC313CEF3
:1039A80013D8F920E003023A6E124F6CEDF0640D63
:1039B8006003023A6E900361E024F3124F76E4F05C
:1039C800124F6454F7F51680179002EDE0B4011D0C
:1039D800124F6CEDF0900361E064306003023A6EC0
:1039E800124F58124F6054FEF516023A6E9002EDCF
:1039F800E064027071AE13AF14EF7802CEC313CE39
:103A080013D8F930E04A124F6CEDF0900361E0648E
:103A18000B7053E024F2F582E43402F583E0AE1330
:103A2800AF14B4030C8E13EF124F6054FEF51680DA
:103A38000C8E13EF54EF124F624401F516124F58D3
:103A480054FBF514900354124F5654FEF514801687
:103A5800BD0213124F584401F514124F584404F58F
:103A680014900361E4F0309909C299124F5854BF79
:043A7800F514D2AFC0
:103A7C00D007D006D005D000D0D0D082D083D0E0F3
:013A8C003207
:030043000246A7CB
:0B46A700C0E0C083C082C0D075D00806
:1046B200C2AF43C110E59A20E003024740539AFE7D
:1046C200AD9B90035AE4F0AE13AF14EF7803CEC360
:1046D20013CE13D8F930E0509002ECE0FF04F074EE
:1046E200D42FF582E43402F583EDF09002ECE0641D
:1046F2000B704BE024D3F582E43402F583E0AE1371
:10470200AF14B4030E8E13EF4420124F6254FDF522
:1047120016800C8E13EF54DF124F624402F516120C
:104722004F4854FDF5148016BD0213124F5844022F
:10473200F514124F584408F5149002ECE4F0E59A8F
:0F47420030E10A539AFD124F58547FF514D2AF4D
:09475100D0D0D082D083D0E03238
:03000B00022F9D24
:102F9D00C0E0C0F0C083C082C0D075D000C000C0FA
:102FAD0004C005C006C00743C110758AFB758CDBD4
:102FBD00AE19AF1AEF7802CEC313CE13D8F930E0A5
:102FCD001790035D124F999464400DE4F0AE19AF64
:102FDD001A8E19EF54FBF51A900343124F9994640E
:102FED004042AE19AF1AEF5401F4FFEF5401FFAC9C
:102FFD0019AD1AED54FEFDECF519ED4FF51AB2B4FD
:10300D00E4F09002EE124FA1C3E5F0943CEE940073
:10301D0040129002EEE4F0A3F0AE17AF188E17EF4A
:10302D004408F51890035B124FA0D3E5F0940AEE17
:10303D00940050030230DA9002EA124FA0D3E5F06B
:10304D009464EE94004023124F9154FE124F8F540E
:10305D00FD124F8F54FBF51C9002EAE4F0A3F0AE85
:10306D0019AF1A8E19EF4410F51A90035BE4F0A313
:10307D00F09002F0124FA994014009E4F0124F6450
:10308D004404F516900359124FA9941E400DE4F017
:10309D00AE11AF128E11EF4480F51290035E124FF8
:1030AD00A994144009E4F0124F644420F5169003DE
:1030BD0058124FA994324015E4F0124F644440F574
:1030CD0016124F644480F516900361E4F0AE13AF11
:1030DD0014EF30E031900354124F999405402712AC
:1030ED004F5854EF124F624401F516E4F09003610E
:1030FD00124F5754FB124F6254F7F51690035412AA
:10310D004F5654FEF514AE13AF14EEC313EF133038
:10311D00E03790035A124F999405402DAE13AF141A
:10312D00EF7803CEC313CE13D8F930E00C124F58FD
:10313D004420124F6254FDF51690035AE4F09002AC
:10314D00ECF0124F4854FDF514D007D006D005D041
:0E315D0004D000D0D0D082D083D0F0D0E032A9
:105964008FC48EC375C65A75C6A5227400254AF520
:085974008274003549F583221D
:064B71008E468F478D48BF
:104B7700E4F549F54AAF4AAE49125A4812596FEF60
:104B8700F0054AE54A70020549C3E549940240E544
:104B9700E4FFFE125C44E4F549F54AAF4AAE491218
:104BA7005A48EFF47048054AE54A70020549C3E5DB
:104BB70049940240E67F0A7E001258817400254717
:104BC700F58274003546F583E548F0E4F549F54A82
:104BD70012596FE0FDAF4AAE49125A03054AE54A3A
:104BE70070020549C3E549940240E57F01227F0031
:014BF700229B
:1059EF00AE071FEE600DE4FCFD0DED70010C4C6079
:0359FF00EF80F640
:015A02002281
:0D5C3700E4F5C7F5C5F5C675C380F5C422B8
:0F5A480075C78275C50112596400AFC2125C3771
:015A5700222C
:105A030075C78275C5028FC48EC38DC212596800D3
:035A1300025C37FB
:0D5C440075C78275C50312596400025C37F4
:08000300C0C0C0C0C0C0C0C0F5
:1045070020232100080010A7625BF80322F8004768
:10451700B610181D1CC700B2EA2A001159813509C7
:0645270006060405000C6D
:1059C200900372E0AB47AA48A94922C3900375E04D
:0759D2009F900374E09E2288
:1056DE00E4900374F0A3F01259CD5009E475F00173
:1056EE0012243180F2E4900374F0A3F01259CD50DD
:0A56FE0009E475F00112243180F276
:01570800227E
:10594B00000000000000000000000000000000EF5D
:09595B001F70011E144E70E822B9
:075CB000C294C297D29422B6
:0A5CA600125CB07F887E130256DE08
:10549600E490037CF0C29790037BF0EF30E704D2F0
:1054A600958002C295EF25E0FFD297000090037C1D
:1054B600E025E0F0309603E004F0C2970000900388
:0D54C6007BE004F0E0B408D390037CE0FF2D
:0154D30022B6
:105A5800C2942096FD7F301254962096FDD294224F
:1058BD00D2947F017E0012594BC2947F017E00125B
:0E58CD00594BD2947F297E0012594B025A5833
:105A6800C2942096FD125496AF05125496D29422F1
:0651FC008B468A4789483A
:10520200EF444090037AF0C2942096FD90037AE036
:10521200FF125496E4900379F0900379E0FFC3956E
:1052220049501AAB46AA47A9488F827583001223B8
:0F52320033FF125496900379E004F080DCD2949D
:01524100224A
:0B5C6700C2942096FD125496D29422A5
:1057E100EF4480900374F0C2942096FD900374E01E
:1057F100FF125496E4FF125496900375EFF0D29481
:015801002284
:0651B1008B4B8A4C894D76
:1051B700EF44C0900375F0C2942096FD900375E00C
:1051C700FF125496E4900374F0900374E0C3954E75
:1051D7005020E4FF125496AB4BAA4CA94D90037490
:1051E700E0F582758300EF122372900374E004F0F8
:0451F70080D7D294F7
:0151FB002291
:10580200EF44C0900375F0C2942096FD900375E0BA
:10581200FF125496E4FF125496900374EFF0D29460
:015822002263
:103F0F00AD217F0C125A68AD227F0B125A68AD2378
:103F1F007F0C125A68AD247F0D125A68AD257F0EA3
:103F2F00125A68AD267F0F125A68AD277F10125AAA
:103F3F0068AD287F11125A68AD297F12125A68ADE9
:103F4F002A7F13125A68AD2B7F14125A68AD2C7F3B
:103F5F000A125A68AD2D7F15125A68AD2E7F2112A5
:103F6F005A68AD2F7F22125A68AD307F18125A68E7
:103F7F00AD317F19125A68AD327F1A125A68AD33BC
:103F8F007F1B125A68AD347F1C125A68AD357F1DE6
:103F9F00125A68AD367F23125A68AD377F24125AF2
:103FAF0068AD387F25125A68AD397F26125A68AD31
:103FBF003A7F29125A68AD3B7F2C125A68AD3C7F6D
:103FCF002D125A68AD3D7F2E125A68AD3EE4FF1296
:103FDF005A68AD3F7F02125A68AD407F07125A6888
:103FEF00AD417F08125A68AD427F09125A68AD433E
:053FFF007F06025A6874
:1058DB00AC057F3F125A688C497F3F1251FC7F35D4
:0E58EB00125C6730B3FD20B3FD7F3B025C67AB
:055CC2007F34025C6765
:0647F7008B448A4589464F
:1047FD001259C612231A25E025E0900373F07F3479
:10480D00125C677F027E001256DE30B3167F027E89
:10481D00001256DE900373E014F0E0C3940150EAE9
:10482D007F00227F3B125802EF547F60567F3F126C
:10483D0057E1900372EFF01259C612231AFEEFD30F
:10484D009E5032AB44AA45A946900372E0F54E7FC7
:10485D003F1251B11259C21223607B017A03797054
:10486D00754E027F3F1251B17F3A125C6790037112
:10487D00E05480FF221259C21223607F3A125C6706
:05488D007F00227F0006
:014892002203
:1059AB00125CA61258BD123F0F7BFF7A007903756C
:0759BB0049087F3E0251FC88
:1025F30061742B72656D6F746569703D74696D6587
:102603002E73746474696D652E676F762E74770DFF
:102613000A0061742B776966695F636F6E663D4E6E
:10262300657763616C20576972656C6573732C778A
:1026330065702C32323338393631383131323233F6
:102643000D0A0061742B72656D6F7465706F72741F
:102653003D3132330D0A0061742B4765745F4D4180
:10266300433D3F0D0A0061742B776966695F5363CD
:10267300616E3D3F0D0A0061742B6F75745F747258
:10268300616E733D300061742B6E65746D6F6465AC
:102693003D320D0A0061742B64686370643D300D34
:1026A3000A0061742B6D6F64653D636C69656E74BC
:1026B3000D0A0061742B6E65746D6F64653D330D97
:1026C3000A0061742B64686370643D310D0A006114
:1026D300742B64686370645F69703D3139322E31E5
:1026E30036382E31302E312C3139322E3136382EC8
:1026F30031302E3235342C3235352E3235352E32BB
:1027030035352E302C3139322E3136382E31302EAC
:102713003132350D0A0061742B64686370645F6441
:102723006E733D3139322E3136382E31302E312C05
:10273300302E302E302E300D0A0061742B64686306
:1027430070645F74696D653D393630300D0A006120
:10275300742B776966695F636F6E663D4E545020D4
:102763007365727665722C777061325F6165732C65
:1027730031323334353637380D0A0061742B6468CF
:102783006370633D310D0A0061742B6E65745F697C
:10279300703D3139322E3136382E31302E32332CD2
:1027A3003235352E3235352E3235352E302C313902
:1027B300322E3136382E31302E39380D0A006174FD
:1027C3002B6E65745F646E733D302E302E302E3069
:1027D3002C302E302E302E300D0A0061742B726592
:1027E3006D6F746570726F3D7463700D0A00617470
:1027F3002B72656D6F746570726F3D7564700D0A31
:102803000061742B6D6F64653D7365727665720D3F
:102813000A0061742B72656D6F746569703D3230A7
:10282300322E3131322E33312E3139370D0A0061D8
:10283300742B72656D6F7465706F72743D313233D2
:102843000D0A0061742B74696D656F75743D300DED
:102853000A0061742B756172743D393630302C383F
:102863002C6E2C310D0A0061742B756172747061CA
:10287300636B74696D656F75743D3130300D0A009B
:1028830061742B756172747061636B6C656E3D313D
:1028930030300D0A0061742B6E65745F636F6D6D6C
:1028A30069743D310D0A0061742B7265636F6E6E3E
:0528B3003D310D0A009B
:0E5A87007BFF7A2679157D3112530C7F0122A8
:0E5A95007BFF7A26797A7D0F12530C7F012257
:0E5AA3007BFF7A2779197D2412530C7F012294
:0E5AB1007BFF7A2779C17D1D12530C7F0122E5
:0E5ABF007BFF7A2679897D0F12530C7F01221E
:0E5ACD007BFF7A2679B67D0F12530C7F0122E3
:0E5ADB007BFF7A2779527D2C12530C7F01221B
:0E5AE9007BFF7A27797E7D0D12530C7F012200
:0E5AF7007BFF7A2679C57D0D12530C7F0122AC
:0E5B05007BFF7A2679987D0D12530C7F0122CA
:0E5B13007BFF7A2679D27D4712530C7F012248
:0E5B21007BFF7A27793D7D1512530C7F012200
:0E5B2F007BFF7A2879987D1212530C7F012299
:0E5B3D007BFF7A2879157D1D12530C7F012203
:0E5B4B007BFF7A2879327D1412530C7F0122E1
:0E5B59007BFF7A2579F37D2212530C7F012207
:0E5B67007BFF7A2679467D1412530C7F0122B3
:0E5B75007BFF7A2779DE7D1312530C7F01220D
:0E5B83007BFF7A2779F17D1312530C7F0122EC
:0E5B91007BFF7A2879467D0F12530C7F01228C
:0E5B9F007BFF7A2879047D1112530C7F0122BE
:0E5BAD007BFF7A2679A57D1112530C7F012211
:0E5BBB007BFF7A2879557D1512530C7F01224D
:0E5BC9007BFF7A2879837D1512530C7F012211
:0E5BD7007BFF7A28796A7D1912530C7F012218
:0E5BE5007BFF7A2879AA7D0E12530C7F0122D5
:0E5BF3007BFF7A26795A7D0F12530C7F012218
:0E5C01007BFF7A2679697D1112530C7F0122F8
:0E5C0F007BFF7A27798B7D3612530C7F0122A2
:103332001234CB1234CBC2C4C2C4C2C4123473D24C
:10334200C4D2C4D2C412347312347B125ABFEF7087
:1033520002FF2212347B125AF7EF7002FF2212345C
:1033620083125A87EF7002FF22123483125AE9EF56
:103372007002FF2212348B125B83EF7002FF221263
:10338200348B125BADEF7002FF22123493125B5941
:10339200EF7002FF22123493125B67EF7002FF227A
:1033A20012349B125B91EF7002FF2212349B125B6C
:1033B200BBEF7002FF221234A3125BD7EF7002FF41
:1033C200221234A3125BC9EF7002FF221234AB1235
:1033D2005ABFEF7002FF221234AB125AF7EF70029B
:1033E200FF221234B3125A87EF7002FF221234B353
:1033F200125AE9EF7002FF221234BB125B83EF70A4
:1034020002FF221234BB125BADEF7002FF221234B4
:10341200C3125B59EF7002FF221234C3125B67EFD3
:103422007002FF221234E4125B91EF7002FF22124B
:1034320034E4125BBBEF7002FF221234EC125BD752
:10344200EF7002FF221234EC125BC9EF7002FF220E
:103452007F647E00125881125B2FEF7002FF227F81
:10346200647E00125881125BE5EF7002FF227F0139
:10347200227F647E00125881227F647E001258816E
:10348200227F647E00125881227F647E001258815E
:10349200227F647E00125881227F647E001258814E
:1034A200227F647E00125881227F647E001258813E
:1034B200227F647E00125881227F647E001258812E
:1034C200227F647E00125881227F0112577A900275
:1034D200ED7401F0FF7E001258817F0A7E001258BF
:1034E20081227F647E00125881227F647E001258FE
:0234F200812235
:1028B800122B05122B05C2C4C2C4C2C4122A7DD26F
:1028C800C4D2C4D2C4122A7D122A85125ACDEF70FE
:1028D80002FF22122A85125AF7EF7002FF22122AEB
:1028E8008D125B13EF7002FF22122A8D125AA3EF8A
:1028F8007002FF22122A95125B21EF7002FF22124A
:102908002A95125ADBEF7002FF22122A9D125AE909
:10291800EF7002FF22122A9D125C0FEF7002FF2255
:10292800122AA5125AB1EF7002FF22122AA5125BD1
:1029380075EF7002FF22122AAD125B9FEF7002FF43
:1029480022122AAD125B3DEF7002FF22122AB51245
:102958005B4BEF7002FF22122AB5125B91EF7002F7
:10296800FF22122ABD125BBBEF7002FF22122ABDA2
:10297800125BD7EF7002FF22122AC5125BC9EF70F3
:1029880002FF22122AC5125ACDEF7002FF22122A24
:10299800CD125AF7EF7002FF22122ACD125B13EF05
:1029A8007002FF22122AD5125AA3EF7002FF2212D8
:1029B8002AD5125B21EF7002FF22122ADD125ADBA0
:1029C800EF7002FF22122ADD125AE9EF7002FF228D
:1029D800122AE5125C0FEF7002FF22122AE5125A42
:1029E800B1EF7002FF22122AED125B75EF7002FF41
:1029F80022122AED125B9FEF7002FF22122AF512B3
:102A08005B3DEF7002FF22122AF5125B4BEF70025A
:102A1800FF22122AFD125B91EF7002FF22122AFD9B
:102A2800125BBBEF7002FF22122B1E125BD7EF70F6
:102A380002FF22122B1E125BC9EF7002FF22122B1B
:102A480026125B2FEF7002FF22122B26125BE5EF96
:102A58007002FF227F647E00125881125B2FEF7094
:102A680002FF227F647E00125881125BE5EF70023C
:102A7800FF227F01227F647E00125881227F647EBC
:102A880000125881227F647E00125881227F647E62
:102A980000125881227F647E00125881227F647E52
:102AA80000125881227F647E00125881227F647E42
:102AB80000125881227F647E00125881227F647E32
:102AC80000125881227F647E00125881227F647E22
:102AD80000125881227F647E00125881227F647E12
:102AE80000125881227F647E00125881227F647E02
:102AF80000125881227F647E00125881227F0112C1
:102B0800577A9002ED7401F0FF7E001258817F0A17
:102B18007E00125881227F647E00125881227F64D1
:062B28007E00125881221C
:105287002A2A2A2A2A2A2A00303132333435363755
:1052970038392D26484C52534F46445451425549AC
:1052A70043502A2345003F065B4F666D7D077F6F9E
:1052B70040467638506D5C715E78737C3E06397374
:0352C70000FF796C
:084D7B008B578A5889598D5AA3
:104D83005380FD0000E49003A8F09003A8E0FFC364
:104D9300955A5055AB57AA58A9598F82758300125B
:104DA3002333FF9003AAF012597C9003AAEFF0E497
:104DB3009003A9F05380FB00009003AAE0FF30E7C3
:104DC3000543800180035380FE00004380040000FC
:104DD300EF25E09003AAF09003A9E004F0E0B40803
:104DE300D39003A8E004F080A14380020000538025
:034DF300FD0000C0
:014DF600229A
:10597C00E4FEEE90528F93B50707EE9052AD93FF75
:07598C00220EBE1FED7F009B
:0159930022F1
:102D700020202021210020202020A6A8A55C2020A2
:102D80002020202020202020202020202120202042
:102D900020A5A2B1D12020202020202020202020EA
:102DA000202020212020B577CA5E3A56312E3020CF
:102DB00020202020212020B36ECA5E3A56322E30C9
:102DC0002020202020212020AAECA96CA4C62E2E91
:102DD0002E2E2E2E2020212020C0CBB4FA4E54506F
:102DE0002E2E2E2E2E212020C0CBB4FA4750532E4B
:102DF0002E2E2E2E212020C0CBB4FA434F4D2E2E46
:102E00002E2E2E210B00000000000000000000000C
:102E100000000000000000000000000000000000B2
:102E2000000000000000000000000000D6C81F568F
:102E3000D16872B0B074B86D2D3E202020202120C2
:102E4000202020312EAEC9B6A1BADEB27A212020D0
:102E50002020322EA46CC1E9BADEB27A21AEC9C4F8
:102E6000C1B074B86D2D3E20212020312EAEC9C4D2
:102E7000C1B7BD20212020322EAEC9C4C1B35DB878
:102E80006D20212020332EAEC9B0CFB35DB86D20A8
:102E900021AEC9C4C1B35DB86D20202020A67E211B
:102EA00020202020A4EB202020202020A4E9212085
:102EB000202020AEC9202020202020A4C0212020B6
:102EC0002020ACED202020202020AC50B4C121AE29
:102ED000C9C4C1B35DB86D2D3E212020312E2D2DEA
:102EE0002020AEC9212020322E2D2D2020A4C0214B
:102EF000AEC9C4C1B7BD2D3E20212020312E4E5475
:102F000050202020322E47505320212020332E43A2
:102F10004F4D202020342E4155544F21A46CC1E93F
:102F2000BADEB27A2D3E212020312EB074B86DA4C5
:102F30006CC1E92020212020322EA752B4EEA46CCF
:102F4000C1E92020212020322EA46CC1E9AAACBA0C
:102F500041202021B074B86DA46CC1E92D3E212020
:102F600020312EA661A77D3A20202020212020326A
:102F70002EB371B0543A20525334383521202032C8
:102F80002EB371B0543A20524634333321202032CC
:0D2F90002EB371B0543A204F464620202148
:10475A00AE17AF18EEC4F854F0C8EFC4540F48228D
:10476A0075A0A07BFF7A2D79707D087F0322AE1792
:10477A00AF188E17EF54DFF51822AE17AF18EF787F
:10478A0005227BFFE4FD7F0222AE17AF188E17EFDA
:10479A0054FBF5187BFF22E4F0AE11AF128E11EF35
:1047AA00227BFFE4FD7F01227BFFE4FD7F02227B67
:1047BA00FFE4FD7F0122E075F00A84E5F022E0FFC4
:1047CA0004F0EFC39402227BFFE4FD7F0222E0049F
:1047DA00F0E0C3940A22AE17AF18EF780222AE15A2
:0D47EA00AF168E15EF227BFFE4FD7F03224A
:0B5C72007BFF7A2D7976E4FD02492AC1
:0B5C7D007BFF7A2D798DE4FD02492A9F
:104CFD008D5E1234F4E55E24FE60121460161460AD
:104D0D001814601F1460212405702980237F2E1232
:104D1D00366E801C124D708017124D707F2E12361C
:104D2D006E800D124D4E8008124D4E7F2E12366E36
:104D3D007F2E8009124D6312366E124D6312366E40
:104D4D00227F2E12366E7F2E12366E7F2E12366E0B
:104D5D007F2E12366E227F2012366E7F2012366E17
:0E4D6D007F20227F2E12366E7F2E12366E228F
:105456007F207E001248937BFF7A2D79A4E4FDFF1E
:1054660012492A7A2D79B512478C12492A7A2D7952
:10547600C61247F012492AE49003B5F07FF47E0184
:0F5486001258819003B5E004F0E0C3941440ED98
:0154950022F4
:10539000E49003AFF07F20FE1248931247937A2DDA
:1053A00079D7E4FDFF12492AE49003B0F07FF47E40
:1053B000011258819003B01247D840F11247E0CE55
:1053C000C313CE13D8F97F0130E003025C72125C84
:0153D0007D5F
:0153D10022B9
:1053D200E49003B1F07F20FE1248931247937A2D96
:1053E20079E6E4FDFF12492AE49003B2F07FF47EED
:1053F200011258819003B21247D840F11247E0CE11
:10540200C313CE13D8F97F0130E003025C72125C41
:015412007D1C
:015413002276
:10541400E49003B3F07F20FE1248931247937A2D51
:1054240079F5E4FDFF12492AE49003B4F07FF47E99
:10543400011258819003B41247D840F11247E0CECC
:10544400C313CE13D8F97F0130E003025C72125CFF
:015454007DDA
:015455002234
:102B2E00AE19AF1A12475E20E003022C149002CCAD
:102B3E00E0245F603414605324026003022BCAAE9B
:102B4E001BAF1CEEC313EF1320E00F9002D1124700
:102B5E00C840071247A154F7F512122D6212588180
:102B6E009002CC74A1F0022BD6AE1BAF1CEF20E06E
:102B7E000F9002D31247C840071247A154EFF51227
:102B8E00122D509002CC74A2F0803DAE1BAF1CEF04
:102B9E007802CEC313CE13D8F920E00F9002CF12D5
:102BAE0047C840071247A154FBF5127F0212577A0D
:102BBE009002ED7402F07F017E008003122D6212EE
:102BCE0058819002CC74A0F0AE19AF1A8E19EF5442
:102BDE00EFF51AAE11AF1212475E20E029AE11AF1B
:102BEE0012EF7803CEC313CE13D8F920E018AE112E
:102BFE00AF12EF7802CEC313CE13D8F920E007122E
:102C0E0047A354FDF512E4FFFE125A48EF24F46078
:102C1E001324DC60162470602524BD706E90026C47
:102C2E0074A1800C90026C74A0800590026C74A24A
:102C3E00F0AE17AF188E17EF547FF518804DAE110A
:102C4E00AF1212475E30E00890026C74A1F0803B28
:102C5E00AE11AF12EF7803CEC313CE13D8F930E016
:102C6E000890026C74A0F08017AE11AF12EF7802CC
:102C7E00CEC313CE13D8F930E00690026C74A2F0D6
:102C8E00AE17AF188E17EF4480F518AE15AF16EFCE
:102C9E007807CEC313CE13D8F930E0429002EDE0A0
:102CAE006401703AAE13AF1412475E20E030124743
:102CBE00E8547FF516122D50E4900361F07F01FE6B
:102CCE001258817BFF7A2E79047D3012530CE490DA
:102CDE00035DF0AE19AF1A8E19EF4404F51A123CCB
:102CEE00E1BF04031228B8123CE1BF0303123332D2
:102CFE00AE15AF16EF7802CEC313CE13D8F930E06F
:102D0E00401247E854FBF516121C56AE15AF16EFDF
:102D1E007805CEC313CE13D8F930E00A12316B12F8
:102D2E0047E854DFF516AE11AF12EF7807CEC31396
:102D3E00CE13D8F930E00A12452E1247A3547FF570
:102D4E0012227F0112577A9002ED7401F0FF7E007D
:102D5E0012588122E4FF12577AE49002EDF07F01BF
:022D6E00FE2243
:104E6F008F44124784CEC313CE13D8F930E0527B50
:104E7F00FF7A2E7934E4FDFF12492A7A2E793F12F8
:104E8F00478C12492A7A2E794E1247AB12492AE4DF
:104E9F00F5A0E54424FE600C04701D7F89124ED1ED
:104EAF007F9180077F91124ED17F891234F47FA1B9
:104EBF0012366E7FF712366E12476A12492A124760
:104ECF0078221234F47F2012366E7F2012366E2233
:1042B5008F44124784CEC313CE13D8F920E00302EE
:1042C50043487BFF7A2E795DE4FDFF12492A7A2E59
:1042D50079691247B212492A7A2E79751247AB12BB
:1042E500492A7A2E79831247F012492AE4F5A0E586
:1042F5004424FE601414602A2402703E7F90124309
:104305007812436012436B80081243497F88124339
:10431500781243607F981234F47F2012366E7F2026
:10432500801512434912436B1243837F981234F46C
:104335007FA112366E7FF712438312476A12492A0C
:10434500124778227F901234F47F2012366E7F2038
:1043550012366E7F017E001258812212366E7F0161
:104365007E00125881227F881234F47F2012366E27
:104375007F20221234F47FA112366E7FF722123687
:094385006E7F017E0012588122B6
:101487008F44124784CEC313CE13D8F920E003024A
:1014970016847BFF7A2E7991E4FDFF12492A7A2E72
:1014A70079A01247B212492A7A2E79AF1247B91298
:1014B700492A7BFF7A2E79BEE4FD7F0312492AE48D
:1014C700F5A07F851234F49003A71217FD9003A7A8
:1014D7001217E47F911234F49003A31217FD9003BF
:1014E700A31217E47F951234F49003A412184290C4
:1014F70003A41218297F891234F49003A512184205
:101507009003A51218297F8D1234F490038E1218B8
:101517009590038E1218667F991234F490038D12FA
:10152700189590038D1218667F9D1234F49003A6C8
:10153700E075F00A842430FF12366E9003A6E0129D
:1015470047C12430FF12366EE5441225A0156D0100
:1015570015950215BA0315DF04161605163B061670
:101567005E070000167B12475A7F8430E00C123466
:10157700F47FA112366E7FF7800A1234F47FA1122E
:10158700366E7FAF1218747F9012188A801A12472E
:101597005A7F8430E00A1217CF1217F27FF78008BC
:1015A7001217CF1217F27FAF1218747F9412188A8E
:1015B7000215D412475A7F8430E00A1217631218B3
:1015C7001E7FF7800812176312181E7FAF1218AC20
:1015D7007F881218B70215F912475A7F8430E00A3C
:1015E70012178E1218377FF7800812178E121837C6
:1015F7007FAF1218AC7F8C1218097F981218091246
:10160700184E12366E7F017E0012588102167B1229
:10161700475A7F8430E00A12168512185B7FF780DD
:101627000812168512185B7FAF12366E7F98121854
:10163700B702165512475A7F8430E00A1216C012B5
:10164700187F7FF780081216C012187F7FAF1236F7
:101657006E12184E02167812475A7F8430E00A122B
:10166700170A1218A17FF7800812170A1218A17F0C
:10167700AF12366E12476A12492A1247782212347D
:10168700F47F2012366E7F2012366E7F901234F46C
:101697007F2012366E7F2012366E7F941234F47FCD
:1016A7002012366E7F2012366E7F881234F47F2028
:1016B70012366E7F2012366E221234F47F201236D5
:1016C7006E7F2012366E7F901234F47F2012366EB2
:1016D7007F2012366E7F941234F47F2012366E7F8D
:1016E7002012366E7F881234F47F2012366E7F20E8
:1016F70012366E7F8C1234F47F2012366E7F2012E2
:10170700366E221234F47F2012366E7F2012366E28
:101717007F901234F47F2012366E7F2012366E7F50
:10172700941234F47F2012366E7F2012366E7F8833
:101737001234F47F2012366E7F2012366E7F8C12A1
:1017470034F47F2012366E7F2012366E7F98123463
:10175700F47F2012366E7F2012366E221234F47F09
:101767002012366E7F2012366E7F017E001258815E
:101777007F901234F47F2012366E7F2012366E7FF0
:10178700017E00125881221234F47F2012366E7FB8
:101797002012366E7F017E001258817F901234F43A
:1017A7007F2012366E7F2012366E7F017E00125820
:1017B700817F941234F47F2012366E7F2012366EAA
:1017C7007F017E00125881221234F47F2012366E78
:1017D7007F2012366E7F017E0012588122E075F05D
:1017E7000A84E5F02430FF12366E227F901234F41B
:1017F7007FA112366E22E075F00A842430FF12367C
:101807006E221234F47F2012366E7F2012366E7FDE
:10181700017E00125881227F941234F47FA1123680
:101827006E22E075F00A84E5F02430FF12366E224E
:101837007F881234F47FA112366E22E075F00A8495
:101847002430FF12366E227F9C1234F47F2012362A
:101857006E7F20227F8C1234F47FA112366E22E035
:1018670075F00A84E5F02430FF12366E2212366EC8
:101877007F017E00125881227F981234F47FA112D3
:10188700366E221234F47F2012366E7F2022E075E6
:10189700F00A842430FF12366E227F9C1234F47FC4
:1018A700A112366E2212366E7F017E0012588122F7
:0B18B7001234F47F2012366E7F2022D6
:103BC0008F44124784CEC313CE13D8F920E00302EA
:103BD0003C987BFF7A2E79CFE4FDFF12492A7A2E9A
:103BE00079DA1247D112492A7A2E79E51247B912A9
:103BF000492AE4F5A0AE19AF1AEEC313EF137F9272
:103C000030E0071234F47F2D80051234F47F2B123C
:103C10003CC72430FF123CC7AFF0EF123CAE7F8AA6
:103C20001234F490020BE075F00A842430FF12364F
:103C30006E90020B1247C0123CAEE54424FE603287
:103C400004704C12475A7F9030E00C1234F47FA17C
:103C500012366E7FF7800A1234F47FA112366E7F1F
:103C6000AF123CD67F881234F47F2012366E7F204C
:103C7000801A12475A7F9030E00A123C99123CBCDD
:103C80007FF78008123C99123CBC7FAF123CD612E1
:103C9000476A12492A124778221234F47F201236DA
:103CA0006E7F2012366E7F017E00125881222430F2
:103CB000FF12366E7F017E00125881227F881234F7
:103CC000F47FA112366E2212366E9002D0E0FF759C
:103CD000F00A1222F82212366E7F017E00125881FD
:013CE00022C1
:103DF8008F44124784CEC313CE13D8F920E00302B0
:103E08003E957BFF7A2E79F0E4FDFF12492A7A2E3F
:103E180079FA1247D112492A7BFF7A2F790BE4FDF0
:103E28007F0112492AE4F5A0E54424FE60191460D4
:103E38002A1460402403704C7F90123ED8123EE34F
:103E48007F94123EEE800A7F90123EC37F94123E0A
:103E5800D8123EE37F88123EEE8008123E967F8895
:103E6800123EF9123F047F8C1234F47F2012366E12
:103E78007F20800D123E967F88123EC37F8C123EB3
:103E8800F9123F0412476A12492A124778227F9092
:103E98001234F47F2012366E7F2012366E7F017E38
:103EA800001258817F941234F47F2012366E7F20DE
:103EB80012366E7F017E00125881221234F47F2060
:103EC80012366E7F2012366E7F017E0012588122D4
:103ED8001234F47FA112366E7FF72212366E7F01FC
:103EE8007E00125881221234F47F2012366E7F2011
:103EF800221234F47FA112366E7FF72212366E7FBB
:073F0800017E001258812226
:104A53008F44124784CEC313CE13D8F930E0617B61
:104A6300FF7A2F791CE4FDFF12492A7BFF7A2F7905
:104A730027E4FD7F0212492A7BFF7A2F7945E4FD63
:104A83007F0112492AE4F5A0E54424FE6012047074
:104A9300267F90124ACF124AC47F88124ADA800DC9
:104AA3007F90124ADA124AC47F88124ACF12366EB6
:104AB3007F017E0012588112476A12492A124778F1
:104AC3002212366E7F017E00125881221234F47F47
:104AD300A112366E7FF7221234F47F2012366E7FD6
:024AE30020228F
:103A8D008F44124784CEC313CE13D8F920E003021E
:103A9D003B817BFF7A2F7954E4FDFF12492A7A2F5F
:103AAD00795F7F02123BADE4F5A07F951234F4905F
:103ABD0002CEE075F064123BB5E075F06484E5F07C
:103ACD0075F00A123BB51247C02430FF123BA2908D
:103ADD0002CDE024FE600F1460142402701F7BFFE2
:103AED007A2F796D800E7BFF7A2F797D80067BFF93
:103AFD007A2F798DE4FD7F0112492A800F7A2F7973
:103B0D008D7F01123BAD9002CD7403F0E4F5A0E57D
:103B1D004424FE603204705312475A7F9030E00CFB
:103B2D001234F47FA112366E7FF7800A1234F47FBF
:103B3D00A112366E7FAF123BA27F881234F47F2024
:103B4D0012366E7F20801A12475A7F9030E00A128B
:103B5D003B82123B977FF78008123B82123B977F87
:103B6D00AF12366E7F017E0012588112476A1249DC
:103B7D002A124778221234F47F2012366E7F2012DB
:103B8D00366E7F017E00125881227F881234F47FB9
:103B9D00A112366E2212366E7F017E0012588122DE
:103BAD007BFFE4FD12492A22842430FF12366E90E9
:033BBD0002CE2213
:015CC70022BA
:10551000900386E004F0E0C3940522AE19AF1AEFC1
:10552000780722EFF07F0A7E00225403FFE4F0A305
:10553000EFF0227F00FEF0A3EFF0A3E0FDEDFF22ED
:0B554000E4F0A3F0A3F0A3F0C2AF2240
:10438E009003861255401244487FA612443D1255A2
:10439E001BCEC313CE13D8F930E00712551040E6EA
:1043AE0080397F1812443D12551BCEC313CE13D83D
:1043BE00F930E00712551040CD802012445E1244B1
:1043CE00487FA712501212445E12551BCEC313CE55
:1043DE0013D8F930E00A12551040AB7EFF7FFF2252
:1043EE007F017E00125C5112562B900389125523C9
:1043FE00125C51C20012445312562B90038A12556E
:10440E0023125C51D200124453125A27E4900387B0
:10441E00F0A3F090038AE090038712552AE09003F0
:0E442E0087125533900387EEF0A3EFF0D2AF64
:10443C00221250127F017E00125C51221259947F7D
:10444C00017E00125C51221258237F0A7E00125CFE
:0A445C0051227F017E00125C512204
:1041D4009003861255401242977FA612428C1255C4
:1041E4001BCEC313CE13D8F930E00A9003861255C0
:1041F4001340E3803F7F0B12428C12551BCEC31336
:10420400CE13D8F930E00A90038612551340C780C4
:10421400231242AD1242977FA71250121242AD12DE
:10422400551BCEC313CE13D8F930E00D900386127C
:10423400551340A27EFF7FFF227F017E00125C5156
:1042440012562B900389125523125C51C20012425C
:10425400A212562B90038A125523125C51D20012DB
:1042640042A2125A27E4900387F0A3F090038AE055
