:06446800011D000110001F
:10000E00D3E54694BEE545940022D3E546946EE5CD
:04001E0045940522DE
:0D5C1F0075A0600000C287125883D2872252
:10577C008F4475A0407F017E00125883E544540786
:10578C00F51DE51D4510F5807F017E0012588375CF
:03579C00A0A022A8
:10570B008F4475A0407F017E00125883E5443333EC
:10571B00335438F510E510451DF5807F017E0012DE
:06572B00588375A0A022C6
:0652CC008B5B8A5C895D2A
:1052D20012231A9003ACF09003AB7401F09003AB6D
:1052E200E0FFC39D5020A3E0FEAB5BAA5CA95D8FEB
:1052F20082758300122333FFEE6F9003ACF09003AC
:0B530200ABE004F080D79003ACE0FFAC
:01530D00227D
:1045F1009003A3E0FF90037DE4F0A3EFF09003A705
:10460100E0FF90037FE4F0A3EFF090037DE0FEA3D1
:10461100E0FF64014E6006EF64024E701490037D6A
:10462100E475F00C12243190037F74FFF5F012242D
:104631003190037FE0FCA3E0FDAE047802CEC3130A
:10464100CE13D8F92DFFEC3E90037BF0A3EFF09051
:10465100037EE02401FF90037DE03400FE7C007DB9
:104661001A1223947D0A1223A690037BEE8FF01277
:1046710024319003A4E024FFFFE434FF90037B8FF7
:10468100F012243190037B74FF75F0DD1224319018
:10469100037BE0FEA3E0FF7C007D071223FB900378
:0746A1007BECF0A3EDF0FF3C
:0146A80022EF
:103CE300E4F545F54643A00FF54575460AE5461547
:103CF30046AC45700215454C7003023DDF123DE2B0
:103D0300FF640F60E8EF24F5603A24FE605F1470EF
:103D130003023DA224076003023DDC75450175469D
:103D23002CE54645456012E54615467002154512D9
:103D33003DE2640760EB7F042212000E40037F0024
:103D4300227F042275450175462CE54645456012E0
:103D5300E546154670021545123DEE640B60EB7F98
:103D6300032212000E40037F00227F0322754505C4
:103D7300754678E54645456012E5461546700215D9
:103D830045123DEE640D60EB7F02221200184003E2
:103D93007F0022E546454570037F06227F02227598
:103DA3004505754678E5464545601AE5461546706E
:103DB3000215457F017E00125883E5A0540F640E5F
:103DC30060E37F012212001840037F0022E546458D
:0E3DD3004570037F05227F01227F00227F00C2
:103DE100227F017E00125883E5A0540F227F017EBD
:093DF10000125883E5A0540F22D2
:10588300EF1FAA0670011E4A6013E4FCFDC3ED94EA
:0D5893001CEC940250EA0DBD00010C80F0E9
:0158A00022E5
:0B5C5300EF1FAC0670011E4C70F62223
:10593300202020212100B579B5A521A558C944B35C
:0A5943005DB86D2E2E2E2E2E2E21A3
:1058A100F514AE13AF148E13EF22F512AE11AF1231
:0E58B1008E11EF22F516AE15AF168E15EF22F2
:0B5C5E007F0A7E0012588375BBFF22F6
:105A3A00438901758AFB758CDBD28CD2A9D2AF223D
:10591800759850438920EF6007E4F58BF58D800674
:0B592800758BFD758DFDD28ED2AC2278
:0D5C2C00759A50759CB8438E1475AF012217
:1040F4001258A354FE1258A154FD1258A154FB1295
:1041040058A154F71258A154EF1258A154DF125871
:10411400A154BF1258A1547FF5141258B744011288
:1041240058B544021258B554FBF516AE17AF188EA5
:1041340017EF54F7F5181258B754FBF5161258AD8B
:1041440054FD1258AB54FB1258AB54F71258AB54ED
:10415400EF1258AB54FE1258AB54DF1258AB54BF95
:104164001258AB4480F512AE17AF188E17EF547F78
:10417400F518AE19AF1A8E19EF4410F51AAE19AF2F
:104184001A8E19EF54EFF51AE4FF740C2FF582E43C
:104194003402F583E4F0746D2FF582E43402F58380
:1041A400E4F00FBF5FE49002F17401F09002E9F0D3
:1041B400E49002F2F0FF12577CE49002EDF07F01EC
:1041C400FE1258831258B754F7F5167F647E000226
:0241D4005C1F6E
:1049C2007F017E00125A4ABFAB0C7F027E00125A50
:1049D2004AEF64CD607C7F207E001248957BFF7A8F
:1049E200597939E4FDFF12492C7BFF7A59793EE46B
:1049F200FD7F0112492C7BFF7A5979337D087F03B1
:104A020012492C7D03E4FFFE124B737D087F037E67
:104A120000124B73E4FD7F04FE124B73E4F544F580
:104A220045E545240AFFE43544FE7DFF124B73053C
:104A320045E54570020544C3942CE544940140E1E8
:104A42007DAB7F017E00124B737DCD7F027E001213
:024A52004B73A4
:014A5400223F
:10573100125C5EE4FF125918125C2C125A3A1240A4
:10574100F4E4F5A05380F775A0A01254D6125CBF03
:065751001259AD0249C22D
:065CB90012573102004603
:1055870020202021210020202020AB4FA673A6A891
:10559700A55C202020202120202020202020202042
:1055A70020202020202020210001020304050607D7
:0855B70008090A0B0C0D0E0F90
:10446E004102D3004102D1004102CF0041026C0053
:10447E004102CC0041020A0141026B004102CE0012
:10448E004102CD004102D00041020B004102D20098
:101FE1009003A7EFF0E0C4540F75F00AA4FFE0548A
:101FF1000F2F222FF0E075F00A84C454F0FFE07532
:10200100F00A84EF25F0F022900377E0FF24F4F545
:1020110082E43402F583E0540FF074F52FF582E485
:102021003402F583E0540FF0900377E0FF24F4F5D8
:1020310082E43402F583E02274F52EF582E4340261
:10204100F583E022D390036BE0940190036AE0945E
:102051000022EFF0E0C4540F7E00540F24AFF5824C
:10206100EE3455F583E493C454F0FF2290036CE001
:10207100FF04F0EFC394052290037AF0E014F0E03E
:102081009002F6FF75F00A84C454F0FEEF75F00A71
:1020910084EE25F0F022E0FF04F0746D2FF582E468
:1020A1003403F5837402F090036CE0FF04F0746D67
:1020B1002FF582E43403F58322AE17AF18EEC4F88E
:1020C10054F0C8EFC4540F4822746D251EF582E404
:1020D1003402F583E004F0746D251EF582E43402C8
:1020E100F58322E0FFE4FCFDFE900373122563906B
:1020F100037302254BE49002EEF0A3F0AE17AF1884
:102101008E17EF22AE11AF128E11EF4408F512AE09
:1021110011AF128E11EF4402F512AE1BAF1C8E1BD4
:10212100EF229002F4E0FFA3E0FDA3E0FB9002F8B0
:10213100E0F547A3E0F548A3E0F5492278009003D4
:102141006F12254B1224A6AC00AD01AE02AF0322E3
:1021510074F32FF582E43402F583E022FC900373DB
:1021610012256390036F12254B90037312255712AA
:10217100245D90036F022563900368E4F0A322F0CD
:10218100E0C454F0F0E0FF22F583E024D0F074F1D4
:102191002FF582E43402F583E02290036AE4F0A390
:1021A10022C390036BE0940222E0540F9055AF9349
:1021B10022F514AE15AF168E15EF2290036AA3E037
:1021C100FF229002CEE0240AFFE433FE22F09003C6
:1021D10077E004F022900377E024EEF582E4340204
:1021E100F583E0229003A6EFF0E022900361E0FF87
:1021F100900377E0FEC39F22A3E0C39EFF90037983
:10220100F0C374189FF09002F62290036CE0FE0474
:10221100F0746D2E224410F518E49002CDF0900375
:102221006AF0A304F022900377E0FF24F2F582E440
:1022310034022274EF2FF582E43402F583E0229018
:10224100036AE0FEA3E0FFEE22AE19AF1AEEC3135C
:10225100EF132224F0F582E43402F583E0229003A7
:1022610079E0FFA3E0FEC3EF9E900379F022900393
:102271007AE0FF900379E02FF0E0D3941722AE11BA
:10228100AF128E11EF22E0547FFFF0900379E0FE50
:10229100C39F22F0A3E4F0A304F022EF541F9003A4
:1022A100A3F0E0D3941222740C251EF582E43402CB
:1022B100F583224410F5189003687401F02290030D
:1022C10068E0FEA3E08EF02290036804F0A3229060
:1022D1000366E064042204F0AE19AF1A8E19EF22EE
:1022E1004402F51CE49002D1F022900377E0FFC391
:0722F1002290036F02254B50
:10004600E4900364F0900366F0A3F0A3F0A3F0A39A
:10005600F0A3F0123CE3900366EFF0900368E070C3
:1000660002A3E06031900366E0600E1220F64420A1
:10007600F5181220FD54F7F518AE17AF18EF7803F0
:10008600CEC313CE13D8F930E029120A671220FD29
:100096004420F518801DAE13AF141220BE30E013B5
:1000A600120B20AE13AF148E13EF54EF1221B2448D
:1000B60001F516900366E0B40512900368E070023D
:1000C600A3E06008120A67E4900366F01222BF12EA
:1000D60025C6010400000140000101A900110751D5
:1000E600001202E70111036A0112063D011307DD42
:1000F600012108F00122092C012300000973900355
:1001060066E064056003020973AE17AF18EF780660
:10011600CEC313CE13D8F930E00302097312217946
:10012600041222941220F654F7F518120A99442064
:10013600F518E4900366F0020973900366E0FF6425
:10014600017003020973EF6402702F90036AE07076
:1001560004A3E06401700A900368F0A37411020717
:10016600A790036AE07004A3E064026003020973C7
:10017600900368F0A374120207A7900366E0FFB429
:10018600030B1220455003020973020957EF64045A
:1001960060030209731221A212204C400302097364
:1001A60002096C900366E0B401069003680207EB4F
:1001B600900366E0640260030202BA90036AE0708C
:1001C60004A3E0640170471222C974111220FC12C4
:1001D6002216E4FFFE125A4AEF24F4600E24DC6075
:1001E600132470601824BD701D801B12219B74029D
:1001F600F00207AA12219B7403F00207AA12219BA0
:100206007404F00207AA12219B04F00207AA9003C5
:100216006AE07004A3E0640270541220FD1222B456
:100226007412120A4C7F06125116121FE1F07F0556
:100236001251169003A3EFF0E0D394124003741208
:10024600F09003A3121FE6120AED121FE4120AF73A
:10025600121FE4120B01121FE4120B0B121FE5F022
:100266007F031251161221E55407F0020973122179
:100276009B74031220FC1222B47413120A4C7F03DF
:100286007E00125A4A9002D0EFF0AE19AF1A30E74C
:100296000D8E19EF4402F51AE0547FF080078E198F
:1002A600EF54FDF51A7F047E00125A4A90020BEFB6
:1002B600F0020973900366E0FFB4030B1220455069
:1002C60003020973020957EF64046003020973C34A
:1002D60090036BE0940312204C4003020973020959
:1002E6006C900366E0B4010A1221797411F0A3023E
:1002F60007EB900366E06406703D122240702DEF16
:1003060024FE601214601714601C2403701E9003F0
:10031600657403F08016900365740CF0800E9003EC
:10032600657430F0800690036574C0F0900365E054
:10033600FDE4FFFE020835900366E0FFB4030B12EE
:1003460020455003020973020957EF640460030253
:100356000973C390036BE0940412204C4003020916
:100366007302096C900366E0B401101221797411CE
:10037600F0A3E4F0A37402F00207AA900366E0FD7E
:10038600B402030207FEED640660030204B690039E
:10039600A7121FF69003A3121FF69003A4121FF6CE
:1003A6009003A5121FF690038E121FF690038D126E
:1003B6001FF6E4900364F0120B18120B189003A7B3
:1003C600E0FF9003A3E0FD9003A4E0FB9003A5E00B
:1003D600F54790038EE0F54890038DE0F5491250FD
:1003E600C37F017E001258837F061251169003A721
:1003F600E06F600B90036412207040BB02046B7FB9
:1004060005125116EF541FFF9003A3E06F600B9087
:10041600036412207040A002046B7F0412511690F0
:1004260003A4E06F600A900364122070408980354F
:100436007F021251169003A5E06F600D90036412BF
:10044600207050030203BD801C7F011251169003D9
:100456008EE06F600D90036412207050030203BD9E
:100466008003120AB37F06125116121FE1F07F05B0
:1004760012511612229C40037412F09003A3121F0D
:10048600E6120AED121FE4120AF7121FE4120B011C
:10049600121FE4120B0B121FE5F01245F11221E5B3
:1004A60070037407F09003A6E0FF1255BF020973AC
:1004B600900366E0640360030205741220BA30E01C
:1004C6000B1220455003020973020957122240609D
:1004D60003020973EF1225A004F701050802051BA4
:1004E60003052E04053F05054C06055D07000009BA
:1004F600739003A7E0600280669003A77463F0021E
:1005060009739003A3E06401600280539003A3740F
:100516000CF00209739003A4E0640160028040902D
:1005260003A4741FF00209739003A5E06002802FF4
:100536009003A57417F002097390038EE0600280A1
:100546001E90038E800B90038DE060028011900355
:100556008D743BF00209739003A6E064016006E027
:1005660014F00209739003A67407F00209731222AD
:10057600D060030209731220BA30E012C390036BF5
:10058600E0940712204C400302097302096C122200
:10059600406003020973EF1225A005B90105CC02DC
:1005A60005DC0305EC0405FF050612060625070013
:1005B6000009739003A7E0C394635002806AE49035
:1005C60003A7F00209739003A3E0C3940C500280C2
:1005D600579003A3805B9003A4E0C3941F5002804E
:1005E600479003A4804B9003A5E0C3941750028064
:1005F60037E49003A5F002097390038EE0C3943BA1
:1006060050028024E490038EF002097390038DE07B
:10061600C3943B50028011E490038DF0020973905D
:1006260003A6E0C394075006E004F00209739003A2
:10063600A67401F0020973900366E0B4011012215A
:10064600797411F0A3E4F0A37403F00207AA9003EF
:1006560066E0FDB402030207FEED64067023122273
:100666004A9002D030E005E044808001E0FD7F033F
:100676007E00124B7390020BE0FD7F047E000208A1
:1006860035900366E0FD640370581220BA30E00B23
:10069600122045500302097302095790036AE0705D
:1006A60004A3E06401702712224A30E0119002D0C0
:1006B600E0C36480948C40030209730208E190024F
:1006C600D0E0705C1222D74402F51A020973900238
:1006D6000BE0600514F002097390020B743BF00204
:1006E6000973ED640460030209731220BA30E00E48
:1006F6001221A212204C400302097302096C9003D6
:100706006AE07004A3E06401702D12224A30E016FC
:100716009002D0E0700A1222D754FDF51A0209732E
:100726009002D00208809002D0E0C36480948E408C
:10073600030209730208E190020BE0C3943B5003E5
:100746000208E1E490020BF0020973900366E0B43C
:10075600010712217904020938900366E0640270E9
:100766004D90036AE07004A3E0640170201222C970
:1007760074211220FC1222161221B44404F5167FAD
:10078600207E001248957F0A7E000208CD90036AFB
:10079600E07004A3E0640260030209731222C974C4
:1007A600231222941221B44404F5160208FF900382
:1007B60066E0FFB4030B12204550030209730209D9
:1007C60057EF640460030209731221A212204C4001
:1007D6000302097302096C900366E0B40112122148
:1007E600797412F0A3120A8112219B04F002097394
:1007F600900366E0FDB4022A1220BA5401F4FFEF1A
:100806005401C4F8540FC868FFE4C454F048FEAA63
:1008160017AB18EB54EFFBEA4EF517EB4FF5180242
:100826000973ED640670111221C39002CDE0FD122A
:100836004B73120AB3020973900366E064037049AE
:100846001220BA30E00B1220455003020973020948
:100856005790036AE07004A3E0640170159002CE1D
:10086600E0600414F080069002CE745FF01221C39B
:1008760080559002CDE064016006E014F002097331
:100886009002CD7403F00209731222D060030209AC
:10089600731220BA30E00E1221A212204C4003023D
:1008A600097302096C90036AE07004A3E0640170A6
:1008B600219002CEE0C3945F5005E004F08005E489
:1008C6009002CEF01221C3125A4A9002CDEFF002E6
:1008D60009739002CDE0C394035006E004F00209C8
:1008E600739002CD7401F0020973900366E0B401BF
:1008F6001212217974121222947F207E00124895DA
:10090600020973900366E0FF64026061EFB40307B7
:100916001220454058803A1222D070511221A2125C
:10092600204C50498040900366E0B40112122179B0
:100936007412F0A3120A8112219B7402F0802E9089
:100946000366E0FF64026025EFB4030B1220454006
:100956001C74FFF5F08013900366E0B4040F1221B7
:10096600A212204C5007E475F001122431E49003E2
:1009760066F01222BF1225C609AA000009B70001B7
:1009860009C0001109E4001209C9011109D20112B6
:1009960009DB011309ED012109F6012209FC0123F6
:1009A60000000A421220FD54BFF518122B30020037
:1009B600591221BC124E710200591221BC1242B7C3
:1009C6000200591221BC123DFA0200591221BC1232
:1009D60014870200591221BC123BC202005912218F
:1009E600BC124A550200591221BC123A8F02005914
:1009F600125CC9020059124BFAEF24FB601324045F
:100A0600702B122179120AE21220FD4420F518807B
:100A160022E4900368F0A3F0120A994420F518E442
:100A26009003661220FC4440F51802005912217901
:100A3600120AE212219B7402F0020059E490036844
:060A4600F0A3F0020059CC
:100A4C00A3F0A3E4F0A304F0AE15AF168E15EF449B
:100A5C0004F5167F207E0012489522E4900368F07E
:100A6C00A3F0AE15AF168E15EF4404F5167F207E5D
:100A7C000012489522E4F0A304F0AE15AF168E15C3
:100A8C00EF4404F5167F207E0012489522AE15AF78
:100A9C00168E15EF4404F5167F207E00124895AE95
:100AAC0017AF188E17EF227BFF7A55798DE4FD7FF7
:100ABC000312492C7BFF7A5579877D087F031249F5
:100ACC002C7FE87E031258837BFF7A55799EE4FDD8
:100ADC007F0312492C227412F07F207E001248955D
:100AEC0022F07F041251169003A422F07F021251BF
:100AFC00169003A522F07F0112511690038E22F05E
:100B0C00E4FF125116EF547F90038D227F017E007B
:040B1C0012588322C6
:100B2000E490036CF090036F12256F0000000090BA
:100B3000037312256F000000009002EDE0600302D5
:100B400010B8900377F01221EC500F74F32E12219D
:100B500054642A60051221CF80EC74F42E122030E8
:100B6000D39430401674F42E122030C39439500BB5
:100B700074F42E12203024D0F0804074F42E122011
:100B800030D39461401674F42E122030C3947A50FE
:100B90000B74F42E122030249FF0801F74F42E1258
:100BA0002030D39441401474F42E122030C3945A50
:100BB000500974F42E12203024BFF0122039D3943F
:100BC000304010122039C39439500812203924D0F3
:100BD000F0802E122039D394614010122039C39432
:100BE0007A5008122039249FF08016122039D394AD
:100BF00041400E122039C3945A500612203924BFA6
:100C0000F0122009900379F0E0C454F0F054F0FEA3
:100C1000F074F52F12203C4E900379F09002F4E02E
:100C2000900378F09003777402F0900361E024FC65
:100C30001221F05014A3E0FF74F32E122154FEEFA2
:100C40006E9003781221CE80E1900379E0FF90034B
:100C500078E06F600302109A900361E0D39414501F
:100C600003020DB0E094504003020DB09002F3E097
:100C700064246003020DB0A3E064476003020DB07A
:100C8000A3E064506003020DB0A3E0644760030278
:100C90000DB0A3E064536003020DB0A3E06456609E
:100CA00003020DB0A3E0642C6003020DB090037842
:100CB000F0900377F01221EC501974F32E122154A6
:100CC000B42C0B900378E004F0E06403600512217B
:100CD000CF80E274F42E122030D39430401674F496
:100CE0002E122030C39439500B74F42E122030246D
:100CF000D0F0804074F42E122030D39461401674EA
:100D0000F42E122030C3947A500B74F42E1220303B
:100D1000249FF0801F74F42E122030D3944140148D
:100D200074F42E122030C3945A500974F42E1220F9
:100D30003024BFF0122039D394304010122039C330
:100D40009439500812203924D0F0802E122039D343
:100D500094614010122039C3947A5008122039242B
:100D60009FF08016122039D39441400E122039C3CF
:100D7000945A500612203924BFF0122009900379AA
:100D8000F074F42F12203075F00AA4FF900377E07E
:100D900024F512203C2F900379F01221051222E154
:100DA000900379E09002D2F0D3940C4003740CF0DD
:100DB000900361E0D39414500302109AE0945040E1
:100DC0000302109A9002F3E06424600302109AA3D5
:100DD000E06447600302109AA3E0645060030210CD
:100DE0009AA3E06452600302109AA3E0644D60038A
:100DF00002109AA3E06443600302109AA3E0642CFB
:100E0000600302109A9003777407F01222EB940D9E
:100E10005010122151C39430500302109A1221CF66
:100E200080E99002FAE0C39433400302109AA3E0F1
:100E3000C3943A400302109AA3E0C39436400302DD
:100E4000109AA3E0C3943A400302109AA3E0C3941B
:100E500036400302109AA3E0C3943A400302109A6A
:100E60009003777407F01222EB940D500A1221516F
:100E700024D01221CE80EF9002FAE09002F81221E5
:100E8000809002FBE0FEEF4E9002F8121FE5900307
:100E900079F09002FCE09002F91221809002FDE0CE
:100EA000FEEF4E9002F9F09002FEE09002FA12215D
:100EB000809002FFE0FEEF4E9002FAF0E49003789B
:100EC000F0900361E0900377F0900377E0FFD39414
:100ED00007401C122151B42C06900378E004F090D6
:100EE0000378E064036008900377E014F080DA127E
:100EF0002227F583E0C39430500302109A12218F09
:100F0000C39430500302109A900377E0122254C326
:100F10009430500302109A122234C39430500302CA
:100F2000109A1221D6C39430500302109A74ED2FF8
:100F3000F582E43402F583E0C39430500302109A42
:100F400012222712218924D0F074F02F1222562465
:100F5000D0F012223424D0F074EE2F1221DC24D0F1
:100F6000F074ED2FF582E434021221899002F4121C
:100F70002180900377E0FE12222CF583E0FDEF4DF7
:100F80009002F4F074EF2E1222379002F5122180B5
:100F9000900377E0FE122254FDEF4D9002F5F074BD
:100FA000ED2EF582E43402F583E09002F612218002
:100FB0001221D6FEEF4E9002F612144D30E71512B4
:100FC0002287500B1221F9121FE6122079801D1280
:100FD000225F801812226F4013E024E8F09002F69E
:100FE000121FE690037AF0E00412207F900379E06C
:100FF0009002F81220841245F11221E57003740763
:10100000F09003A6E0FF1255BF90026CE064A06070
:101010000302109AE490036CF01221231250C312C1
:101020001431600712206D40F0802E12145B6007AF
:1010300012206D40E48022121466600712206D4079
:10104000D88016121471600712206D40CC800A12ED
:10105000147C600512206D40C07F06125116121FCD
:10106000E1121423E0D3941240037412F09003A30E
:10107000121FE6121443121FE4F01245F11221E58B
:1010800070037407F09003A6E0FF1255BF7F017E46
:10109000001258831221051222E11221B454F7F5EF
:1010A000167F0A7E00125883E4FF12577CE49002F8
:1010B000EDF07F01FE0213D19002EDE064016003C8
:1010C0000213D4AE19AF1AEF7802CEC313CE13D8E1
:1010D000F920E0030213C390031BE0FF900313E029
:1010E0006F60030213C390031CE0FF900314E06FD2
:1010F00060030213C390031DE0FF900315E06F60CF
:10110000030213C390031EE0FF900316E06F600319
:101110000213C390031B1220E47818122538122002
:10112000EAE4FFFEFDEC1220EA12217390031C1288
:1011300020E478101225381220EAE4FFFEE41221A0
:101140005D90031D1220E478081225381220EAE48D
:10115000FFE4FD12215D90036F12255790031EE0FE
:10116000FFE4FCFDFE1221701222F2E42FFFEE34A8
:10117000A3FEED3402FDE43CFC1221737B3E7A8534
:1011800079E178011222F21224A6EF249CFFEE34BA
:10119000FF90036DF0A3EFF09002F4122054900240
:1011A000F41221AA9002F4121FF47B3E7A8579E1B1
:1011B000780112213F7B6F7A20792878001224A6CB
:1011C000EF049002F51220549002F51221AA900229
:1011D000F5121FF47B6F7A20792812213D7B807AEB
:1011E00051790178001224A69002F6122053900241
:1011F000F61221AA2F9002F6121FF57B807A517900
:101200000112213DE47B107A0EF9F81224A6900217
:10121000F81220539002F81221AA2F9002F8121F00
:10122000F5E47B107A0EF9F812213FE47B3CFAF9E1
:10123000F81224A69002F91220539002F91221AA62
:101240002F9002F9121FF5E47B3CFAF9F81222F212
:101250001224A69002FAEB1220549002FA1221AA4C
:101260002F9002FA121FF590035DE0D394324006EE
:101270009002FAE004F012227F441012210E440181
:10128000F51CE49002D3F090036CF0AE11AF12EFB6
:1012900030E0437F061251169003A7EF1214237F0C
:1012A000041251169003A4EFF07F0212511690031E
:1012B000A5EFF07F0112511690038EEFF0E4FF12BC
:1012C0005116EF547F90038DF0E0FF9002FAE0C3D7
:1012D0009F500302137B9002F8121FE690037912CD
:1012E000144D30E715122287500B1221F9121FE618
:1012F000122079801D12225F801812226F4013E0A5
:1013000024E8F09002F6121FE690037AF0E004124F
:10131000207F900379E0FF75F00A84C454F0FEEF5B
:1013200075F00A84EE25F09002F8F090026CE0640B
:10133000A160030213C1E490036CF0122123125048
:10134000C3121431600712206D40F0802E12145B1E
:10135000600712206D40E48022121466600712209C
:101360006D40D88016121471600712206D40CC8039
:101370000A12147C600512206D40C07F06125116BF
:10138000121FE1F07F0512511612229C40037412C5
:10139000F09003A3121FE6121443121FE4F012454B
:1013A000F11221E570037407F09003A6E0FF1255D7
:1013B000BF90036CE0C39405500712227F4401F5EF
:1013C0001200007F0112577C9002ED7401F0FF7E45
:1013D000000258839002EDE064027046900377F0BB
:1013E0001222EB9408500A12215124E01221CE80DF
:1013F000EF12227F4404F51290026CE064A2702187
:101400009002F7E0FF1255BF1221231250C31221A0
:101410001B4404F51C12227F4402F512E49002CF13
:02142000F000DA
:1014220022F07F05125116EF541F9003A3F0227F82
:10143200017E001258837F061251169002F4E06F6B
:1014420022F07F041251169003A422F07F037E0043
:10145200125A4A90037AEFF0227F05125116900237
:10146200F5E06F227F041251169002F6E06F227FA0
:10147200021251169002F8E06F227F01125116906B
:0514820002F9E06F22F9
:10316D00E490036CF0051EE51EC3945F4003E4F587
:10317D001EE490036DF0E51E1221C7125A4A90030A
:10318D006CEFF024FE602204703B90036EE4F0A31C
:10319D007432F090036DE0FF12570B7F021233294A
:1031AD007F027E00125883802490036E7401F0A379
:1031BD00742CF090036D7406F0AF1E12506C7F648A
:1031CD00123329800890036EE4F0A304F090036E8F
:1031DD00E07002A3E0700302330B90036E74FFF5F1
:1031ED00F01224317F017E0012588390036CE0248D
:1031FD00FE606F0470D7AE13AF14EF7805CEC31316
:10320D00CE13D8F930E0C6AE13AF148E13EF54DFE2
:10321D001221B24402F5169002D4E0B4A5AFA3E09A
:10322D00B45AAAA3E0B4A5A5A3E0645A709FA3E085
:10323D0064A57099A3E0645A7093A3E064A5708DA2
:10324D00A3E0645A7087A3E0F47082A3E0B51E0377
:10325D000232F41220CAE0C3940350030233280251
:10326D00332375470075480075490C7B017A027947
:10327D00D41247F9EF70030231DA9002D4E0640200
:10328D0060030231DAA3E064A560030231DAA3E042
:10329D00645A60030231DAA3E064A560030231DAF7
:1032AD00A3E0645A60030231DAA3E064A56003026F
:1032BD0031DAA3E0645A60030231DAA3E064A56059
:1032CD00030231DAA3E0645A60030231DAA3E0F4B9
:1032DD0060030231DA9002DFE0640360030231DA49
:1032ED009002DEE0B51E0C1220D8E4F01222A87474
:1032FD0001F0221220CAE0C39403401F80189003EE
:10330D006DE004F0E0C3940650030231831220CA2D
:0B331D00E0C3940340051222A8E4F076
:0C332800227E00125883AF1E12506C224F
:10453000E490036CF01220977420F07F061245CEB1
:10454000EFF07F051245CEEFF07F041245E3122015
:10455000B2EFF07F031251161221E55407F0E0FF8D
:1045600012220B1220B2EFF07F021245E31220B2AA
:10457000EFF07F0112511612220B1220B2EFF0E47D
:10458000FF125116EF547FFF12220B1220B2EFF0F0
:1045900090036CE0246D1220B2E0041220A7740195
:1045A000F090036C1220977403F07B017A03796D0D
:1045B0007D0C1253507F647E001258837B017A0376
:0E45C000796D7D0C1258DD7F647E00025883F9
:1045CE0012511690036CE0FE04F0746D2EF582E429
:1045DE003403F5832212511690036CE0FE04F0743E
:0345EE006D2E220D
:1057570090020AE024FE600D14600D14600D1460C1
:105767000D2404800C024EE102524402554D0259A9
:05577700DB124C7F2253
:105A180090036DE0FFC394102290036CF0E4A3F0B0
:015A2800225B
:044895008E468F4775
:10489900E4F5A07480125A21125A1850051248F8EA
:1048A90080F6E490036DF07488125A21125A185058
:1048B900051248F880F6E490036DF090036C74904B
:1048C900F0E4A3F0125A18500512491280F6E49048
:1048D900036DF090036C7498F0E4A3F0125A185029
:0E48E9000512491280F6E490036DF075A0A050
:1048F7002290036CE02FFF1234F67F201236707F70
:104907002012367090036DE004F02290036CE02FC4
:10491700FF1234F67F201236707F20123670900314
:054927006DE004F02228
:10568A008D1FE4F5A01234F6E51F75F00A84243064
:10569A00FF123670E51F75F00A84E5F02430FF1218
:0B56AA0036707F3A12367075A0A02207
:0A492C008F468D478B488A49894A5F
:10493600E4F5A07F01FE125883E546D394034003B5
:10494600754603E547D394084003754708E54614C2
:1049560060101460131460162403701AE54724804F
:104966008010E5472488800AE54724908004E547BF
:104976002498900387F0900387E02547F0E0FF1224
:1049860034F68024AB48AA49A94A12231A90038612
:10499600F06421601C7401254AF54AE43549F5495D
:1049A600900386E0FF1236707F017E0012588380E6
:0B49B600D37F017E0012588375A0A083
:0149C10022D3
:1054D600E4F5A07F0AFE1258831255021255027F88
:1054E6000C12550B7F0112550B7F061234F612561D
:1054F6005C7F207E0012489575A0A0227F30123472
:0C550600F612565C221234F612565C229B
:10565C00E4900364F0E4900365F0E4900366F0904A
:10566C000366E004F0E0B433F6900365E004F0E088
:0D567C00B440E7900364E004F0E0B403D80C
:0156890022FE
:0100220022BB
:0A5C8A007F301234F67F080234F672
:0A5C94007F361234F67F300234F63A
:0A5C9E007F341234F67F300234F632
:104FB200E49003AEF012500A9003AD124FF7C28292
:104FC20012500212500A001250029003AE124FF712
:104FD200C2829003ADE054F0FFF0A3E0C4540FF09E
:104FE200540FF04F9003ADF07F017E00125C53909E
:044FF20003ADE0FF2C
:104FF60022E580F07F017E00125C53227F017E0055
:0E500600125C5322124DF9D280D281D2822246
:023670008F4B7E
:10367200E4900388F0124DF9E54B54F0900388F082
:103682001225A036B90036BD1036C32036C93036F1
:10369200D34036D75036DD6036E37036ED8036F1F2
:1036A2009036F7A036FDB03707C0370BD03711E0A0
:1036B2003717F00000371FC2848002D284C285808F
:1036C2000AC284D2858004D284D285C286C287800F
:1036D2004CC2848002D284C285800AC284D2858090
:1036E20004D284D285D286C2878032C2848002D23A
:1036F20084C285800AC284D2858004D284D285C2E3
:1037020086D2878018C2848002D284C285800AC28F
:1037120084D2858004D284D285D286D2871237DAC7
:10372200C2827F147E00125C53E54BC454F09003B6
:1037320088F054F0F01225A0376E003772103778F7
:1037420020377E30378840378C50379260379870F8
:1037520037A28037A69037ACA037B2B037BCC0379B
:10376200C0D037C6E037CCF0000037D4C284800224
:10377200D284C285800AC284D2858004D284D28552
:10378200C286C287804CC2848002D284C285800AEB
:10379200C284D2858004D284D285D286C287803206
:1037A200C2848002D284C285800AC284D285800407
:1037B200D284D285C286D2878018C2848002D28403
:1037C200C285800AC284D2858004D284D285D28600
:0737D200D2871237DAC28230
:0F37D90022D280C281D2827F147E00125C5322E2
:0234F6008F4BFA
:1034F800E4900388F0124DF9E54B54F0900388F0FE
:103508001225A0354300354710353F20354D30355D
:103518005740355B5035616035677035718035755A
:1035280090357BA03581B0358BC0358FD03595E08F
:10353800359BF0000035A3C284800CC2848002D27F
:1035480084C2858004D284D285C286C287804CC258
:10355800848002D284C285800AC284D2858004D243
:1035680084D285D286C2878032C2848002D284C245
:1035780085800AC284D2858004D284D285C286D24C
:10358800878018C2848002D284C285800AC284D20D
:10359800858004D284D285D286D2877F017E0012AC
:1035A8005C53123662C2827F017E00125C53E54B87
:1035B800C454F0900388F01225A035F60035FA10AF
:1035C800360020360630361040361450361A60362B
:1035D8002070362A80362E903634A0363AB03644DB
:1035E800C03648D0364EE03654F00000365CC2840F
:1035F8008002D284C285800AC284D2858004D284A3
:10360800D285C286C287804CC2848002D284C28599
:10361800800AC284D2858004D284D285D286C287A9
:103628008032C2848002D284C285800AC284D28554
:103638008004D284D285C286D2878018C284800250
:10364800D284C285800AC284D2858004D284D2857D
:09365800D286D287123662C282CA
:0F36610022C280C281D2827F017E00125C53227E
:104DF900E490038AF0A3F0900389F0124E559003D2
:104E09008A124E66C28200007F017E00125C531234
:104E19004E5590038B124E66C282000090038BE0C0
:104E2900C4540FF0540FFFF090038AE054F0F04F90
:104E3900F07F017E00125C5390038AE030E70C900A
:0B4E49000389E004F0E0C3941440B0C3
:104E5400227580F0C280D281D2827F017E00125CF2
:0D4E64005322E580F07F017E00125C532296
:104006002020A46CC4C1B373BD75AAACBA412020EC
:1040160021B3C9B9A620202020202020202020203E
:10402600202100CAA7B0DC2020202020202020202C
:104036002020202100B3F5CABCBBAF2E2E2E2E2E7B
:104046002E202020202100D3B2CCE5B0E6B1BE3A26
:104056002056312E3020202100C8EDCCE5B0E6B147
:10406600BE3A2056312E3020202100BCECB2E24E62
:1040760054502E2E2E2E2E2E2020202100BCECB2A7
:10408600E24750532E2E2E2E2E2E2020202100BC0D
:10409600ECB2E2434F4D2E2E2E2E2E2E2020202126
:1040A60000202020202020C5E4D6C3202020202068
:1040B60020210020312ED7D3D6D3B9DCC0ED202065
:1040C600202020210020322ECAB1BCE4D4B4202006
:1040D600202020202021002000200020002020A4D5
:0E40E60040A447A454A57CA4ADA4BBA4E9212A
:1037E800900371E0FF04F074722FF582E43403F55E
:1037F800837420F0900371E0FF04F074722FF58257
:10380800E43403F5837420F0900371E0FF04F0744E
:10381800722FF582E43403F583229003A7EFF0E0DA
:10382800C4540F2430FF90038CE0FE04F0748F2EF4
:10383800F582E43403F583EFF09003A7E0540F24F6
:1038480030FF90038CE0FE04F0748F2EF582E43490
:1038580003F583EFF022E0C4540F2430FF90037186
:10386800E0FE04F074722E22E490038CF0E0FF0472
:10387800F0748F2FF582E43403F5837432F09003EB
:103888008CE0FF04F0748F2FF582E43403F5832273
:103898007421F07B017A037972E4FD2275A0607BC4
:1038A800017A03798F2290036CE0FAA3E0FB7C0095
:1038B800FFAE020223A69003A6EFF0E05407F0E063
:1038C80022AE19AF1AEF780722D2C17F017E0022FB
:1038D8009003A3EFF0E0229003A4EFF0E022E54587
:1038E800240AFEE43390036CF0A3CEF022C2C17F19
:1038F800017E0022FE7C007D0A0223A6740C254569
:10390800F582E43402F583E022745BF0AE11AF1265
:103918002290036CEEF0A3EF22AE17AF188E17EFCC
:1039280022E0241054F0F0229003A5EFF0E022905A
:0F393800038EEFF0E0227C00AF03AE020223A665
:10599600D2C01238D1125C53C2C07F017E00125CA5
:0759A600531238F5025C53B7
:105A2900C2C01238D1125C53D2C07F017E00025C21
:015A39005319
:10582500A20092C0125837125C53D2C112583702E7
:105835005C537F0A7E00125C53C2C17F0A7E002240
:0F5A7A001238D1125C53A2C01238F5125C5322BD
:025014008F4CBF
:10501600E4F54EAE19AF1A8E19EF547FF51AE4F582
:105026004DE54C25E0F54C92C01238D1125C531276
:1050360038F5125C53054DE54DC3940840E3125A0A
:105046007A5020AF4E054EEF941E400EAE19AF1AA1
:105056008E19EF4480F51AC2C0227F017E00125CD1
:055066005380DBC2C015
:01506B002222
:10562D00E4F548D2C0F547E54825E0F5481238D1F4
:10563D00125C53A2C0E43342481238F5125C530594
:0E564D0047E547C3940840DFC2C1C2C0AF4862
:01565B00222C
:045168008F4A8D4B92
:10516C00C2AF1259967FDE1250141238C9CEC31337
:10517C00CE13D8F920E0EBAF4B1250141238C9CE35
:10518C00C313CE13D8F920E0D9AF4A1250141238F9
:10519C00C9CEC313CE13D8F920E0C7125A29D2AF07
:0751AC007F057E000258831D
:025116008F45C3
:10511800C2AF1259967FDE1250141238C9CEC3138B
:10512800CE13D8F920E0EBAF451250141238C9CE8F
:10513800C313CE13D8F920E0D91259967FDF125045
:10514800141238C9CEC313CE13D8F920E0C41256AE
:0F5158002D8F46D200125825125A29D2AFAF46DA
:015167002225
:0255BF008F4417
:1055C1007F0312511690037BEFF07D077F4012514C
:1055D100687F017E00125883E54490037BB4FF0588
:1055E100E044088008E054F8F044084544FFF07DA9
:0455F10003125168E8
:0155F5002293
:1050C3008D458B467D061251007D05AF451251007B
:1050D3007D04AF4612510B7D02AF4712510B7D0188
:1050E300AF481251687F0A7E00125883E549448015
:1050F300FFE4FD1251687F0A7E0002588312516853
:105103007F0A7E00125883221251687F0A7E0012A2
:035113005883229C
:105845009003A7E0B49903E4F0229003A7E0540F76
:0F585500FFBF0904123929229003A7E004F022B3
:1057C2009003A3E024EE600B2409700E9003A374EF
:1057D20010F0229003A37401F0229003A3E004F0DE
:0157E20022A4
:1055F6009003A4E024F7601324F0601624F06019E9
:1056060024F8701C9003A47401F0229003A4741073
:10561600F0229003A47420F0229003A47430F022A8
:075626009003A4E004F02250
:1056B5009003A5E024F7601524F0600A24F6701421
:1056C500E49003A5F0229003A57420F0229003A591
:0B56D5007410F0229003A5E004F02206
:1058640090038EE0B45903E4F02290038EE0540FC9
:0F587400FFBF09041239292290038EE004F022AD
:10579F0090038DE0547FF0E0B45903E4F0229003BE
:1057AF008DE0540FFFBF09041239292290038DE0B9
:0357BF0004F022D1
:055CBF007FFF0255BF4C
:101C5600E490036CF0A3F0A3F0A3F0900371F012EC
:101C66003813743212380F7430F07F061251169002
:101C760003A7EFF012385E12381AEFF09003A7E0D0
:101C860012386012381AEFF012381074A612380F94
:101C9600747E1237FB7420F07F051251161238D865
:101CA600D3941240037412F09003A312385E1238D4
:101CB6001AEFF09003A3E012386012381AEFF01210
:101CC600381074A412380F74EBF07F0412511612F8
:101CD60038DFD3943140037431F09003A412385E98
:101CE60012381AEFF09003A4E012386012381AEF97
:101CF600F012381074A412380F74E912380F123823
:101D060098FF12492CE4900371F0AE11AF12EEC3A6
:101D160013EF1330E008123813742BF080061238D4
:101D2600107420F07F02125116123930D3942340DA
:101D3600037423F09003A512385E12381AEFF09060
:101D460003A5E012386012381AEFF0123810743A10
:101D5600F07F01125116123937D394594003745942
:101D6600F090038E12385E12381AEFF090038EE070
:101D760012386012381AEFF0123810743AF0E4FF95
:101D8600125116EF547F90038DF0E0D3945940031F
:101D96007459F090038D12385E12381AEFF09003E2
:101DA6008DE012386012381AEFF01237FC74AC125C
:101DB600380F745012380F74B412380F74C1F07F94
:101DC600031251161238BE25E0F0E09040E393125C
:101DD600386412381AEFF09003A6E09040E49312AC
:101DE600386412381AEFF01238101238987F02123F
:101DF600492CE4900371F0123813123911EEC4F82D
:101E060054F0C8EFC4540F4890037130E0121238F2
:101E160013744E12380F745412380F7450F0800633
:101E26001237EB7420F0123810745D12380F123925
:101E360011EF7803CEC313CE13D8F990037130E0B7
:101E4600351238137447F09002D2E0FF75F00A8419
:101E56002430FE900371E0FD04F074722D12381ADE
:101E6600EEF0EF75F00A84E5F02430FF12386512C3
:101E7600381AEFF080061237EB7420F0123810741F
:101E86005D12380F123911EF7802CEC313CE13D874
:101E9600F990037130E012123813744312380F743C
:101EA6004F12380F744DF080061237EB7420F01283
:101EB6003810745D1237FB1238987F0312492C12C2
:101EC6004390123919F0E4900371F0EFF47002EECA
:101ED600F460307D641238AEEF2430FF123865129C
:101EE600381AEFF07D6412393E7E007F0ACFCDCFDF
:101EF600CECCCE1223A6EF2430FF12386512381A44
:101F0600EF800A123810742112380F742012380F1D
:101F1600742512380F745212380F7448F01237E8CD
:101F26007420F01241D6123919F0F47002EEF470F2
:101F360003021FBE90036CE0FEA3E0FFA3EEF0A336
:101F4600EFF0C394C8EE94005014C374C89FFFE426
:101F56009E1238FC1239191237FB742D8019900322
:101F66006DE02438FF90036CE034FF1238FCEEF08D
:101F7600A3EF1237FB7420F07D0A1238AEEF24303F
:101F8600FF12386512381AEFF07D0A12393EED2439
:101F960030FF12386512381AEF12380F742EF0908F
:101FA600036EE0FEA3E0FF1238FDED2430FF123889
:101FB6006512381AEFF0800E1237E81237F97421DD
:101FC60012380F7420F012381074A212380F744AA7
:0B1FD60012380F1238987F0102492CCE
:0218C2008F4550
:1018C400E490036CF0A3F0A3F07BFF7A407906FD6B
:1018D400FF12492CE4F5A07F90121B231238E61264
:1018E4003904601E121AE7BF01047F528008121ADD
:1018F400E7BF02097F461236707F4F801E121BCC51
:101904008019121AF3BF0105121C1A800E121AF361
:10191400BF0205121C228003121BCC123670121B4C
:10192400577F88121B23123904601E121AFFBF014D
:10193400047F528008121AFFBF02097F46123670D4
:101944007F4F801E121BEA8019121B0BBF01051268
:101954001C1A800E121B0BBF0205121C22800312DC
:101964001BEA123670121B577F981234F6121B8F23
:10197400601E121B17BF01047F528008121B17BF81
:1019840002097F461236707F4F801E121BFE80199B
:10199400121B4BBF0105121C32800E121B4BBF02DF
:1019A40005121C3A8003121BFE1236707F5D12363C
:1019B40070121C0612367005451238E67F94121A0E
:1019C400AE601E121B77BF01047F528008121B7782
:1019D400BF02097F461236707F4F801E121C06809C
:1019E40019121B83BF0105121C32800E121B83BF08
:1019F4000205121C3A8003121C2A123670121BD4E0
:101A04007F8C121AAE601E121BC0BF01047F52806D
:101A140008121BC0BF02097F461236707F4F802612
:101A2400121C2A8021121BF2BF01097F5212367048
:101A34007F588012121BF2BF02097F461236707F54
:101A4400588003121C42123670121BD47F9C12342D
:101A5400F67F20123670121B8F601E121C0EBF01FF
:101A6400047F528008121C0EBF02097F4612367092
:101A74007F4F802A121C428025121C4ABF01097F15
:101A8400521236707F588016121C4ABF02097F46D4
:101A94001236707F5880077F201236707F201236EE
:091AA400707F5D12367075A0A080
:101AAD00221234F67F20123670E54575F00A842433
:101ABD0030FF123670E54575F00A84E5F02430FFED
:101ACD001236707F3A1236707F5B123670740C25A9
:101ADD0045F582E43402F583E02290036CE0FEA329
:101AED00E0FF125A4A2290036CE0FEA3E0FF125A67
:101AFD004A2290036CE0FEA3E0FF125A4A229003A3
:101B0D006CE0FEA3E0FF125A4A2290036CE0FEA3A4
:101B1D00E0FF125A4A221234F6E54575F00A842484
:101B2D0030FF123670E54575F00A84E5F02430FF7C
:101B3D001236707F3A1236707F5B12367022900328
:101B4D006CE0FEA3E0FF125A4A227F5D1236707FD1
:101B5D00201236707F201236700545E545240AFEA9
:101B6D00E43390036CF0A3CEF02290036CE0FEA35F
:101B7D00E0FF125A4A2290036CE0FEA3E0FF125AD6
:101B8D004A22E54575F00A842430FF123670E5458A
:101B9D0075F00A84E5F02430FF1236707F3A123664
:101BAD00707F5B123670740C2545F582E43402F5B6
:101BBD0083E02290036CE0FEA3E0FF125A4A227FDD
:101BCD00201236707F20227F5D1236700545E54567
:101BDD00240AFEE43390036CF0A3CEF0227F201292
:101BED0036707F202290036CE0FEA3E0FF125A4A6C
:101BFD00227F201236707F20227F201236707F20A8
:101C0D002290036CE0FEA3E0FF125A4A227F52128B
:101C1D0036707F58227F461236707F58227F2012F1
:101C2D0036707F20227F521236707F58227F4612E7
:101C3D0036707F58227F201236707F202290036CE1
:091C4D00E0FEA3E0FF125A4A2256
:104BFA00E4F544FDAF441218C2123CE3AD07ED6080
:104C0A000EE49002EEF0A3F012392154F7F518AE33
:104C1A0017AF18EF7803CEC313CE13D8F930E002DA
:104C2A008019ED24FD601E14602B14600E2404709C
:104C3A00C312392154DFF5187F012212392154DFBA
:104C4A00F5187F052274062544F544C3945F40177E
:104C5A00E4F5448012E544C39406400874FA2544F6
:104C6A00F544800375445AAE11AF128E11EF4440D9
:054C7A00F512024BFEE3
:104C7F001238707430F07F061251161238227F05E9
:104C8F001251161238D8C41238459003A312384463
:104C9F007F041251161238DFC41238459003A41244
:104CAF0038447F031251161238BE1238497F021250
:104CBF005116123930C41238459003A51238447F6B
:104CCF0001125116123937C412384590038E12381B
:104CDF0044E4FF125116EF547F90038DF0E0C4129D
:104CEF00384590038D1238441238A47D0F024D7D44
:104EE1001238707430F07F061251161238227F0585
:104EF1001251161238D8C41238459003A3123844FF
:104F01007F041251161238DFC41238459003A412DF
:104F110038447F031251161238BE1238497F0212EB
:104F21005116123930C41238459003A51238447F06
:104F310001125116123937C412384590038E1238B6
:094F4100441238A47D0D024D7DDF
:105244001238707430F07F061251161238227F051E
:105254001251161238D8C41238459003A312384498
:105264007F041251161238DFC41238459003A41279
:1052740038447F031251161238BE1238471238A42C
:055284007D09024D7DD3
:10554D001238707430F07F061251161238227F0512
:10555D001251161238D8C41238459003A31238448C
:10556D007F041251161238DFC41238459003A4126D
:0A557D0038441238A47D08024D7D69
:1059DB001238707430F07F061251161238221238BA
:0659EB00A47D04024D7DC5
:10449E004202EA00004102ED00410361004102ECDC
:1044AE000042035B00004103540041035A004103E4
:1044BE0059004103560041035E004103580041027A
:1044CE00F00042035F00004102E9014102F10141A7
:1044DE0002F20042036200004103430041035D000B
:1044EE004202EE000041035500410357004102E82D
:0B44FE00004203520000420350000087
:104F4A00AE13AF148E13EF54F7F51490035AE4F02E
:104F5A00AE13AF148E13EF224410F514AE15AF162C
:104F6A008E15EF22900361E0FF04F074F32FF582AF
:104F7A00E43402F5832274A5F0A3745AF0A374A54D
:104F8A00F0A3745AF0A322F51CAE1BAF1C8E1BEFC4
:104F9A0022E0FF04F0EFC322E475F001122447FE79
:084FAA0022E0FF04F0EFD32226
:08530E008B448A4589468D4756
:105316007F017E00125883E4F548E548C39547505F
:1053260017AB44AA45A946854882758300122333E4
:10533600FF120026054880E2AE13AF14EF7806CEC2
:09534600C313CE13D8F920E0EFE7
:01534F00223B
:085350008B448A4589468D4714
:105358007F017E00125883E4F548E548C39547501D
:1053680017AB44AA45A946854882758300122333A2
:10537800FF1258FB054880E2AE13AF14EF7807CE52
:09538800C313CE13D8F920E0EFA5
:0153910022F9
:10002600AD07AE13AF14EF7806CEC313CE13D8F9CF
:0D00360020E0EF124F5A4440F5148D99223E
:1058FB00AD07AE13AF14EF7807CEC313CE13D8F9A1
:0D590B0020E0EF124F5A4480F5148D9B22CE
:02506C008F446F
:10506E007F017E001258839002D47402F0A3124F77
:10507E0080124F8074FFF0A3E544F0A37403F07B1D
:10508E00017A0279D47D0C1258DD7F017E00125810
:10509E0083E4900370F0900370E0FFC3940C5014FF
:1050AE0074D42FF582E43402F583E4F0900370E0BB
:0450BE0004F080E298
:0150C20022CB
:0300230002394758
:10394700C0E0C083C082C0D075D000C000C005C031
:0339570006C007A0
:10395A00C2AF43C110209803023A70C298AD999041
:10396A000354E4F0AE15AF16EF20E003023A70906C
:10397A0002EDE07054BD241DAE15AF16EF7803CEEC
:10398A00C313CE13D8F920E00C124F664408F5167B
:10399A00900361E4F0AE15AF16EF7803CEC313CEF1
:1039AA0013D8F920E003023A70124F6EEDF0640D5D
:1039BA006003023A70900361E024F3124F78E4F056
:1039CA00124F6654F7F51680179002EDE0B4011D08
:1039DA00124F6EEDF0900361E064306003023A70BA
:1039EA00124F5A124F6254FEF516023A709002EDC7
:1039FA00E064027071AE13AF14EF7802CEC313CE37
:103A0A0013D8F930E04A124F6EEDF0900361E0648A
:103A1A000B7053E024F2F582E43402F583E0AE132E
:103A2A00AF14B4030C8E13EF124F6254FEF51680D6
:103A3A000C8E13EF54EF124F644401F516124F5ACD
:103A4A0054FBF514900354124F5854FEF514801683
:103A5A00BD0213124F5A4401F514124F5A4404F589
:103A6A0014900361E4F0309909C299124F5A54BF75
:043A7A00F514D2AFBE
:103A7E00D007D006D005D000D0D0D082D083D0E0F1
:013A8E003205
:030043000246A9C9
:0B46A900C0E0C083C082C0D075D00804
:1046B400C2AF43C110E59A20E003024742539AFE79
:1046C400AD9B90035AE4F0AE13AF14EF7803CEC35E
:1046D40013CE13D8F930E0509002ECE0FF04F074EC
:1046E400D42FF582E43402F583EDF09002ECE0641B
:1046F4000B704BE024D3F582E43402F583E0AE136F
:10470400AF14B4030E8E13EF4420124F6454FDF51E
:1047140016800C8E13EF54DF124F644402F5161208
:104724004F4A54FDF5148016BD0213124F5A440229
:10473400F514124F5A4408F5149002ECE4F0E59A8B
:0F47440030E10A539AFD124F5A547FF514D2AF49
:09475300D0D0D082D083D0E03236
:03000B00022F9F22
:102F9F00C0E0C0F0C083C082C0D075D000C000C0F8
:102FAF0004C005C006C00743C110758AFB758CDBD2
:102FBF00AE19AF1AEF7802CEC313CE13D8F930E0A3
:102FCF001790035D124F9B9464400DE4F0AE19AF60
:102FDF001A8E19EF54FBF51A900343124F9B94640A
:102FEF004042AE19AF1AEF5401F4FFEF5401FFAC9A
:102FFF0019AD1AED54FEFDECF519ED4FF51AB2B4FB
:10300F00E4F09002EE124FA3C3E5F0943CEE94006F
:10301F0040129002EEE4F0A3F0AE17AF188E17EF48
:10302F004408F51890035B124FA2D3E5F0940AEE13
:10303F00940050030230DC9002EA124FA2D3E5F065
:10304F009464EE94004023124F9354FE124F915408
:10305F00FD124F9154FBF51C9002EAE4F0A3F0AE81
:10306F0019AF1A8E19EF4410F51A90035BE4F0A311
:10307F00F09002F0124FAB94014009E4F0124F664A
:10308F004404F516900359124FAB941E400DE4F013
:10309F00AE11AF128E11EF4480F51290035E124FF6
:1030AF00AB94144009E4F0124F664420F5169003D8
:1030BF0058124FAB94324015E4F0124F664440F56E
:1030CF0016124F664480F516900361E4F0AE13AF0D
:1030DF0014EF30E031900354124F9B9405402712A8
:1030EF004F5A54EF124F644401F516E4F090036108
:1030FF00124F5954FB124F6454F7F51690035412A4
:10310F004F5854FEF514AE13AF14EEC313EF133034
:10311F00E03790035A124F9B9405402DAE13AF1416
:10312F00EF7803CEC313CE13D8F930E00C124F5AF9
:10313F004420124F6454FDF51690035AE4F09002A8
:10314F00ECF0124F4A54FDF514D007D006D005D03D
:0E315F0004D000D0D0D082D083D0F0D0E032A7
:105966008FC48EC375C65A75C6A5227400254AF51E
:085976008274003549F583221B
:064B73008E468F478D48BD
:104B7900E4F549F54AAF4AAE49125A4A125971EF5A
:104B8900F0054AE54A70020549C3E549940240E542
:104B9900E4FFFE125C46E4F549F54AAF4AAE491214
:104BA9005A4AEFF47048054AE54A70020549C3E5D7
:104BB90049940240E67F0A7E001258837400254713
:104BC900F58274003546F583E548F0E4F549F54A80
:104BD900125971E0FDAF4AAE49125A05054AE54A34
:104BE90070020549C3E549940240E57F01227F002F
:014BF9002299
:1059F100AE071FEE600DE4FCFD0DED70010C4C6077
:035A0100EF80F63D
:015A0400227F
:0D5C3900E4F5C7F5C5F5C675C380F5C422B6
:0F5A4A0075C78275C50112596600AFC2125C396B
:015A5900222A
:105A050075C78275C5028FC48EC38DC212596A00CF
:035A1500025C39F7
:0D5C460075C78275C50312596600025C39EE
:08000300C0C0C0C0C0C0C0C0F5
:1045090020232100080010A7625BF80322F8004766
:10451900B610181D1CC700B2EA2A001159813509C5
:0645290006060405000C6B
:1059C400900372E0AB47AA48A94922C3900375E04B
:0759D4009F900374E09E2286
:1056E000E4900374F0A3F01259CF5009E475F0016F
:1056F00012243180F2E4900374F0A3F01259CF50D9
:0A57000009E475F00112243180F273
:01570A00227C
:10594D00000000000000000000000000000000EF5B
:09595D001F70011E144E70E822B7
:075CB200C294C297D29422B4
:0A5CA800125CB27F887E130256E002
:10549800E490037CF0C29790037BF0EF30E704D2EE
:1054A800958002C295EF25E0FFD297000090037C1B
:1054B800E025E0F0309603E004F0C2970000900386
:0D54C8007BE004F0E0B408D390037CE0FF2B
:0154D50022B4
:105A5A00C2942096FD7F301254982096FDD294224B
:1058BF00D2947F017E0012594DC2947F017E001257
:0E58CF00594DD2947F297E0012594D025A5A2B
:105A6A00C2942096FD125498AF05125498D29422EB
:0651FE008B468A47894838
:10520400EF444090037AF0C2942096FD90037AE034
:10521400FF125498E4900379F0900379E0FFC3956A
:1052240049501AAB46AA47A9488F827583001223B6
:0F52340033FF125498900379E004F080DCD29499
:015243002248
:0B5C6900C2942096FD125498D29422A1
:1057E300EF4480900374F0C2942096FD900374E01C
:1057F300FF125498E4FF125498900375EFF0D2947B
:015803002282
:0651B3008B4B8A4C894D74
:1051B900EF44C0900375F0C2942096FD900375E00A
:1051C900FF125498E4900374F0900374E0C3954E71
:1051D9005020E4FF125498AB4BAA4CA94D9003748C
:1051E900E0F582758300EF122372900374E004F0F6
:0451F90080D7D294F5
:0151FD00228F
:10580400EF44C0900375F0C2942096FD900375E0B8
:10581400FF125498E4FF125498900374EFF0D2945A
:015824002261
:103F1100AD217F0C125A6AAD227F0B125A6AAD2372
:103F21007F0C125A6AAD247F0D125A6AAD257F0E9D
:103F3100125A6AAD267F0F125A6AAD277F10125AA4
:103F41006AAD287F11125A6AAD297F12125A6AADE1
:103F51002A7F13125A6AAD2B7F14125A6AAD2C7F35
:103F61000A125A6AAD2D7F15125A6AAD2E7F21129F
:103F71005A6AAD2F7F22125A6AAD307F18125A6ADF
:103F8100AD317F19125A6AAD327F1A125A6AAD33B6
:103F91007F1B125A6AAD347F1C125A6AAD357F1DE0
:103FA100125A6AAD367F23125A6AAD377F24125AEC
:103FB1006AAD387F25125A6AAD397F26125A6AAD29
:103FC1003A7F29125A6AAD3B7F2C125A6AAD3C7F67
:103FD1002D125A6AAD3D7F2E125A6AAD3EE4FF1290
:103FE1005A6AAD3F7F02125A6AAD407F07125A6A80
:103FF100AD417F08125A6AAD427F09125A6AAD4338
:054001007F06025A6A6F
:1058DD00AC057F3F125A6A8C497F3F1251FE7F35CE
:0E58ED00125C6930B3FD20B3FD7F3B025C69A5
:055CC4007F34025C6961
:0647F9008B448A4589464D
:1047FF001259C812231A25E025E0900373F07F3475
:10480F00125C697F027E001256E030B3167F027E83
:10481F00001256E0900373E014F0E0C3940150EAE5
:10482F007F00227F3B125804EF547F60567F3F1268
:10483F0057E3900372EFF01259C812231AFEEFD309
:10484F009E5032AB44AA45A946900372E0F54E7FC5
:10485F003F1251B31259C41223607B017A0379704E
:10486F00754E027F3F1251B37F3A125C699003710C
:10487F00E05480FF221259C41223607F3A125C6900
:05488F007F00227F0004
:014894002201
:1059AD00125CA81258BF123F117BFF7A0079037564
:0759BD0049087F3E0251FE84
:1025F30061742B776966695F636F6E663D50433222
:1026030030313530313039313833335F4E6574779B
:102613006F726B5F312C777061325F6165732C323F
:10262300303135303630340D0A0061742B72656DEC
:102633006F746569703D706F6F6C2E6E74702E6F62
:1026430072670D0A0061742B72656D6F7465706F2C
:1026530072743D3132330D0A0061742B4765745F28
:102663004D41433D3F0D0A0061742B776966695FF5
:102673005363616E3D3F0D0A0061742B6F75745F88
:102683007472616E733D300061742B6E65746D6F8F
:1026930064653D320D0A0061742B64686370643DA8
:1026A300300D0A0061742B6D6F64653D636C696561
:1026B3006E740D0A0061742B6E65746D6F64653DF5
:1026C300330D0A0061742B64686370643D310D0A35
:1026D3000061742B64686370645F69703D313932E3
:1026E3002E3136382E31302E312C3139322E3136CF
:1026F300382E31302E3235342C3235352E323535B5
:102703002E3235352E302C3139322E3136382E31AA
:10271300302E3132350D0A0061742B6468637064A6
:102723005F646E733D3139322E3136382E31302E9F
:10273300312C302E302E302E300D0A0061742B6474
:10274300686370645F74696D653D393630300D0AB6
:102753000061742B776966695F636F6E663D4E54E3
:1027630050207365727665722C777061325F616594
:10277300732C31323334353637380D0A0061742BFC
:1027830064686370633D310D0A0061742B6E657478
:102793005F69703D3139322E3136382E31302E3269
:1027A300332C3235352E3235352E3235352E302C0D
:1027B3003139322E3136382E31302E39380D0A0068
:1027C30061742B6E65745F646E733D302E302E30F2
:1027D3002E302C302E302E302E300D0A0061742B0B
:1027E30072656D6F746570726F3D7463700D0A006E
:1027F30061742B72656D6F746570726F3D75647073
:102803000D0A0061742B6D6F64653D7365727665A7
:10281300720D0A0061742B72656D6F746569703D8A
:102823003230322E3131322E33312E3139370D0AD7
:102833000061742B72656D6F7465706F72743D31D6
:1028430032330D0A0061742B74696D656F75743DC5
:10285300300D0A0061742B756172743D3936303066
:102863002C382C6E2C310D0A0061742B7561727437
:102873007061636B74696D656F75743D3130300DD4
:102883000A0061742B756172747061636B6C656EA1
:102893003D3130300D0A0061742B6E65745F636FD8
:1028A3006D6D69743D310D0A0061742B7265636F40
:0728B3006E6E3D310D0A00BD
:0E5A89007BFF7A2579F37D3A12530E7F0122BE
:0E5A97007BFF7A26797C7D0F12530E7F012251
:0E5AA5007BFF7A27791B7D2412530E7F01228E
:0E5AB3007BFF7A2779C37D1D12530E7F0122DF
:0E5AC1007BFF7A26798B7D0F12530E7F012218
:0E5ACF007BFF7A2679B87D0F12530E7F0122DD
:0E5ADD007BFF7A2779547D2C12530E7F012215
:0E5AEB007BFF7A2779807D0D12530E7F0122FA
:0E5AF9007BFF7A2679C77D0D12530E7F0122A6
:0E5B07007BFF7A26799A7D0D12530E7F0122C4
:0E5B15007BFF7A2679D47D4712530E7F012242
:0E5B23007BFF7A27793F7D1512530E7F0122FA
:0E5B31007BFF7A28799A7D1212530E7F012293
:0E5B3F007BFF7A2879177D1D12530E7F0122FD
:0E5B4D007BFF7A2879347D1412530E7F0122DB
:0E5B5B007BFF7A26792D7D1B12530E7F0122CF
:0E5B69007BFF7A2679487D1412530E7F0122AD
:0E5B77007BFF7A2779E07D1312530E7F012207
:0E5B85007BFF7A2779F37D1312530E7F0122E6
:0E5B93007BFF7A2879487D0F12530E7F012286
:0E5BA1007BFF7A2879067D1112530E7F0122B8
:0E5BAF007BFF7A2679A77D1112530E7F01220B
:0E5BBD007BFF7A2879577D1512530E7F012247
:0E5BCB007BFF7A2879857D1512530E7F01220B
:0E5BD9007BFF7A28796C7D1912530E7F012212
:0E5BE7007BFF7A2879AC7D0E12530E7F0122CF
:0E5BF5007BFF7A26795C7D0F12530E7F012212
:0E5C03007BFF7A26796B7D1112530E7F0122F2
:0E5C11007BFF7A27798D7D3612530E7F01229C
:103334001234CD1234CDC2C4C2C4C2C4123475D244
:10334400C4D2C4D2C412347512347D125AC1EF707F
:1033540002FF2212347D125AF9EF7002FF22123456
:1033640085125A89EF7002FF22123485125AEBEF4C
:103374007002FF2212348D125B85EF7002FF22125D
:10338400348D125BAFEF7002FF22123495125B5B37
:10339400EF7002FF22123495125B69EF7002FF2274
:1033A40012349D125B93EF7002FF2212349D125B64
:1033B400BDEF7002FF221234A5125BD9EF7002FF39
:1033C400221234A5125BCBEF7002FF221234AD122D
:1033D4005AC1EF7002FF221234AD125AF9EF700293
:1033E400FF221234B5125A89EF7002FF221234B54B
:1033F400125AEBEF7002FF221234BD125B85EF709C
:1034040002FF221234BD125BAFEF7002FF221234AE
:10341400C5125B5BEF7002FF221234C5125B69EFC9
:103424007002FF221234E6125B93EF7002FF221245
:1034340034E6125BBDEF7002FF221234EE125BD948
:10344400EF7002FF221234EE125BCBEF7002FF2208
:103454007F647E00125883125B31EF7002FF227F7B
:10346400647E00125883125BE7EF7002FF227F0133
:10347400227F647E00125883227F647E0012588368
:10348400227F647E00125883227F647E0012588358
:10349400227F647E00125883227F647E0012588348
:1034A400227F647E00125883227F647E0012588338
:1034B400227F647E00125883227F647E0012588328
:1034C400227F647E00125883227F0112577C90026F
:1034D400ED7401F0FF7E001258837F0A7E001258BB
:1034E40083227F647E00125883227F647E001258F8
:0234F400832231
:1028BA00122B07122B07C2C4C2C4C2C4122A7FD267
:1028CA00C4D2C4D2C4122A7F122A87125ACFEF70F6
:1028DA0002FF22122A87125AF9EF7002FF22122AE5
:1028EA008F125B15EF7002FF22122A8F125AA5EF80
:1028FA007002FF22122A97125B23EF7002FF221244
:10290A002A97125ADDEF7002FF22122A9F125AEBFF
:10291A00EF7002FF22122A9F125C11EF7002FF224F
:10292A00122AA7125AB3EF7002FF22122AA7125BC9
:10293A0077EF7002FF22122AAF125BA1EF7002FF3B
:10294A0022122AAF125B3FEF7002FF22122AB7123D
:10295A005B4DEF7002FF22122AB7125B93EF7002EF
:10296A00FF22122ABF125BBDEF7002FF22122ABF9A
:10297A00125BD9EF7002FF22122AC7125BCBEF70EB
:10298A0002FF22122AC7125ACFEF7002FF22122A1E
:10299A00CF125AF9EF7002FF22122ACF125B15EFFB
:1029AA007002FF22122AD7125AA5EF7002FF2212D2
:1029BA002AD7125B23EF7002FF22122ADF125ADD96
:1029CA00EF7002FF22122ADF125AEBEF7002FF2287
:1029DA00122AE7125C11EF7002FF22122AE7125A3A
:1029EA00B3EF7002FF22122AEF125B77EF7002FF39
:1029FA0022122AEF125BA1EF7002FF22122AF712AB
:102A0A005B3FEF7002FF22122AF7125B4DEF700252
:102A1A00FF22122AFF125B93EF7002FF22122AFF93
:102A2A00125BBDEF7002FF22122B20125BD9EF70EE
:102A3A0002FF22122B20125BCBEF7002FF22122B15
:102A4A0028125B31EF7002FF22122B28125BE7EF8C
:102A5A007002FF227F647E00125883125B31EF708E
:102A6A0002FF227F647E00125883125BE7EF700236
:102A7A00FF227F01227F647E00125883227F647EB8
:102A8A0000125883227F647E00125883227F647E5C
:102A9A0000125883227F647E00125883227F647E4C
:102AAA0000125883227F647E00125883227F647E3C
:102ABA0000125883227F647E00125883227F647E2C
:102ACA0000125883227F647E00125883227F647E1C
:102ADA0000125883227F647E00125883227F647E0C
:102AEA0000125883227F647E00125883227F647EFC
:102AFA0000125883227F647E00125883227F0112BB
:102B0A00577C9002ED7401F0FF7E001258837F0A11
:102B1A007E00125883227F647E00125883227F64CB
:062B2A007E001258832218
:105289002A2A2A2A2A2A2A00303132333435363753
:1052990038392D26484C52534F46445451425549AA
:1052A90043502A2345003F065B4F666D7D077F6F9C
:1052B90040467638506D5C715E78737C3E06397372
:0352C90000FF796A
:084D7D008B578A5889598D5AA1
:104D85005380FD0000E49003A8F09003A8E0FFC362
:104D9500955A5055AB57AA58A9598F827583001259
:104DA5002333FF9003AAF012597E9003AAEFF0E493
:104DB5009003A9F05380FB00009003AAE0FF30E7C1
:104DC5000543800180035380FE00004380040000FA
:104DD500EF25E09003AAF09003A9E004F0E0B40801
:104DE500D39003A8E004F080A14380020000538023
:034DF500FD0000BE
:014DF8002298
:10597E00E4FEEE90529193B50707EE9052AF93FF6F
:07598E00220EBE1FED7F0099
:0159950022EF
:102D720020202021210020202020A6A8A55C2020A0
:102D82002020202020202020202020202120202040
:102D920020A5A2B1D12020202020202020202020E8
:102DA200202020212020B577CA5E3A56312E3020CD
:102DB20020202020212020B36ECA5E3A56322E30C7
:102DC2002020202020212020AAECA96CA4C62E2E8F
:102DD2002E2E2E2E2020212020C0CBB4FA4E54506D
:102DE2002E2E2E2E2E212020C0CBB4FA4750532E49
:102DF2002E2E2E2E212020C0CBB4FA434F4D2E2E44
:102E02002E2E2E210B00000000000000000000000A
:102E120000000000000000000000000000000000B0
:102E2200000000000000000000000000D6C81F568D
:102E3200D16872B0B074B86D2D3E202020202120C0
:102E4200202020312EAEC9B6A1BADEB27A212020CE
:102E52002020322EA46CC1E9BADEB27A21AEC9C4F6
:102E6200C1B074B86D2D3E20212020312EAEC9C4D0
:102E7200C1B7BD20212020322EAEC9C4C1B35DB876
:102E82006D20212020332EAEC9B0CFB35DB86D20A6
:102E920021AEC9C4C1B35DB86D20202020A67E2119
:102EA20020202020A4EB202020202020A4E9212083
:102EB200202020AEC9202020202020A4C0212020B4
:102EC2002020ACED202020202020AC50B4C121AE27
:102ED200C9C4C1B35DB86D2D3E212020312E2D2DE8
:102EE2002020AEC9212020322E2D2D2020A4C02149
:102EF200AEC9C4C1B7BD2D3E20212020312E4E5473
:102F020050202020322E47505320212020332E43A0
:102F12004F4D202020342E4155544F21A46CC1E93D
:102F2200BADEB27A2D3E212020312EB074B86DA4C3
:102F32006CC1E92020212020322EA752B4EEA46CCD
:102F4200C1E92020212020322EA46CC1E9AAACBA0A
:102F520041202021B074B86DA46CC1E92D3E21201E
:102F620020312EA661A77D3A202020202120203268
:102F72002EB371B0543A20525334383521202032C6
:102F82002EB371B0543A20524634333321202032CA
:0D2F92002EB371B0543A204F464620202146
:10475C00AE17AF18EEC4F854F0C8EFC4540F48228B
:10476C0075A0A07BFF7A2D79727D087F0322AE178E
:10477C00AF188E17EF54DFF51822AE17AF18EF787D
:10478C0005227BFFE4FD7F0222AE17AF188E17EFD8
:10479C0054FBF5187BFF22E4F0AE11AF128E11EF33
:1047AC00227BFFE4FD7F01227BFFE4FD7F02227B65
:1047BC00FFE4FD7F0122E075F00A84E5F022E0FFC2
:1047CC0004F0EFC39402227BFFE4FD7F0222E0049D
:1047DC00F0E0C3940A22AE17AF18EF780222AE15A0
:0D47EC00AF168E15EF227BFFE4FD7F032248
:0B5C74007BFF7A2D7978E4FD02492CBB
:0B5C7F007BFF7A2D798FE4FD02492C99
:104CFF008D5E1234F6E55E24FE60121460161460A9
:104D0F001814601F1460212405702980237F2E1230
:104D1F003670801C124D728017124D727F2E123614
:104D2F0070800D124D508008124D507F2E1236702C
:104D3F007F2E8009124D65123670124D6512367036
:104D4F00227F2E1236707F2E1236707F2E12367003
:104D5F007F2E123670227F201236707F201236700F
:0E4D6F007F20227F2E1236707F2E1236702289
:105458007F207E001248957BFF7A2D79A6E4FDFF18
:1054680012492C7A2D79B712478E12492C7A2D7948
:10547800C81247F212492CE49003B5F07FF47E017C
:0F5488001258839003B5E004F0E0C3941440ED94
:0154970022F2
:10539200E49003AFF07F20FE1248951247957A2DD4
:1053A20079D9E4FDFF12492CE49003B0F07FF47E3A
:1053B200011258839003B01247DA40F11247E2CE4D
:1053C200C313CE13D8F97F0130E003025C74125C80
:0153D2007F5B
:0153D30022B7
:1053D400E49003B1F07F20FE1248951247957A2D90
:1053E40079E8E4FDFF12492CE49003B2F07FF47EE7
:1053F400011258839003B21247DA40F11247E2CE09
:10540400C313CE13D8F97F0130E003025C74125C3D
:015414007F18
:015415002274
:10541600E49003B3F07F20FE1248951247957A2D4B
:1054260079F7E4FDFF12492CE49003B4F07FF47E93
:10543600011258839003B41247DA40F11247E2CEC4
:10544600C313CE13D8F97F0130E003025C74125CFB
:015456007FD6
:015457002232
:102B3000AE19AF1A12476020E003022C169002CCA7
:102B4000E0245F603414605324026003022BCCAE97
:102B50001BAF1CEEC313EF1320E00F9002D11247FE
:102B6000CA40071247A354F7F512122D6412588376
:102B70009002CC74A1F0022BD8AE1BAF1CEF20E06A
:102B80000F9002D31247CA40071247A354EFF51221
:102B9000122D529002CC74A2F0803DAE1BAF1CEF00
:102BA0007802CEC313CE13D8F920E00F9002CF12D3
:102BB00047CA40071247A354FBF5127F0212577C05
:102BC0009002ED7402F07F017E008003122D6412EA
:102BD00058839002CC74A0F0AE19AF1A8E19EF543E
:102BE000EFF51AAE11AF1212476020E029AE11AF17
:102BF00012EF7803CEC313CE13D8F920E018AE112C
:102C0000AF12EF7802CEC313CE13D8F920E007122B
:102C100047A554FDF512E4FFFE125A4AEF24F46072
:102C20001324DC60162470602524BD706E90026C45
:102C300074A1800C90026C74A0800590026C74A248
:102C4000F0AE17AF188E17EF547FF518804DAE1108
:102C5000AF1212476030E00890026C74A1F0803B24
:102C6000AE11AF12EF7803CEC313CE13D8F930E014
:102C70000890026C74A0F08017AE11AF12EF7802CA
:102C8000CEC313CE13D8F930E00690026C74A2F0D4
:102C9000AE17AF188E17EF4480F518AE15AF16EFCC
:102CA0007807CEC313CE13D8F930E0429002EDE09E
:102CB0006401703AAE13AF1412476020E03012473F
:102CC000EA547FF516122D52E4900361F07F01FE65
:102CD0001258837BFF7A2E79067D3012530EE490D2
:102CE000035DF0AE19AF1A8E19EF4404F51A123CC9
:102CF000E3BF04031228BA123CE3BF0303123334C8
:102D0000AE15AF16EF7802CEC313CE13D8F930E06C
:102D1000401247EA54FBF516121C56AE15AF16EFDB
:102D20007805CEC313CE13D8F930E00A12316D12F4
:102D300047EA54DFF516AE11AF12EF7807CEC31392
:102D4000CE13D8F930E00A1245301247A5547FF56A
:102D500012227F0112577C9002ED7401F0FF7E0079
:102D600012588322E4FF12577CE49002EDF07F01B9
:022D7000FE2241
:104E71008F44124786CEC313CE13D8F930E0527B4C
:104E8100FF7A2E7936E4FDFF12492C7A2E794112F0
:104E9100478E12492C7A2E79501247AD12492CE4D3
:104EA100F5A0E54424FE600C04701D7F89124ED3E9
:104EB1007F9180077F91124ED37F891234F67FA1B3
:104EC1001236707FF712367012476C12492C124756
:104ED1007A221234F67F201236707F201236702229
:1042B7008F44124786CEC313CE13D8F920E00302EA
:1042C700434A7BFF7A2E795FE4FDFF12492C7A2E51
:1042D700796B1247B412492C7A2E79771247AD12AF
:1042E700492C7A2E79851247F212492CE4F5A0E57C
:1042F7004424FE601414602A2402703E7F90124307
:104307007A12436212436D800812434B7F8812432F
:104317007A1243627F981234F67F201236707F201C
:10432700801512434B12436D1243857F981234F662
:104337007FA11236707FF712438512476C12492C02
:1043470012477A227F901234F67F201236707F2030
:104357001236707F017E00125883221236707F0159
:104367007E00125883227F881234F67F201236701F
:104377007F20221234F67FA11236707FF722123681
:09438700707F017E0012588322B0
:101487008F44124786CEC313CE13D8F920E0030248
:1014970016847BFF7A2E7993E4FDFF12492C7A2E6E
:1014A70079A21247B412492C7A2E79B11247BB128E
:1014B700492C7BFF7A2E79C0E4FD7F0312492CE487
:1014C700F5A07F851234F69003A71217FD9003A7A6
:1014D7001217E47F911234F69003A31217FD9003BD
:1014E700A31217E47F951234F69003A412184290C2
:1014F70003A41218297F891234F69003A512184203
:101507009003A51218297F8D1234F690038E1218B6
:101517009590038E1218667F991234F690038D12F8
:10152700189590038D1218667F9D1234F69003A6C6
:10153700E075F00A842430FF1236709003A6E0129B
:1015470047C32430FF123670E5441225A0156D01FC
:1015570015950215BA0315DF04161605163B061670
:101567005E070000167B12475C7F8430E00C123464
:10157700F67FA11236707FF7800A1234F67FA11228
:1015870036707FAF1218747F9012188A801A12472C
:101597005C7F8430E00A1217CF1217F27FF78008BA
:1015A7001217CF1217F27FAF1218747F9412188A8E
:1015B7000215D412475C7F8430E00A1217631218B1
:1015C7001E7FF7800812176312181E7FAF1218AC20
:1015D7007F881218B70215F912475C7F8430E00A3A
:1015E70012178E1218377FF7800812178E121837C6
:1015F7007FAF1218AC7F8C1218097F981218091246
:10160700184E1236707F017E0012588302167B1225
:10161700475C7F8430E00A12168512185B7FF780DB
:101627000812168512185B7FAF1236707F98121852
:10163700B702165512475C7F8430E00A1216C012B3
:10164700187F7FF780081216C012187F7FAF1236F7
:101657007012184E02167812475C7F8430E00A1227
:10166700170A1218A17FF7800812170A1218A17F0C
:10167700AF12367012476C12492C12477A22123475
:10168700F67F201236707F201236707F901234F664
:101697007F201236707F201236707F941234F67FC7
:1016A700201236707F201236707F881234F67F2022
:1016B7001236707F20123670221234F67F201236CF
:1016C700707F201236707F901234F67F20123670AA
:1016D7007F201236707F941234F67F201236707F87
:1016E700201236707F881234F67F201236707F20E2
:1016F7001236707F8C1234F67F201236707F2012DC
:101707003670221234F67F201236707F2012367020
:101717007F901234F67F201236707F201236707F4A
:10172700941234F67F201236707F201236707F882D
:101737001234F67F201236707F201236707F8C129B
:1017470034F67F201236707F201236707F9812345D
:10175700F67F201236707F20123670221234F67F01
:10176700201236707F201236707F017E0012588358
:101777007F901234F67F201236707F201236707FEA
:10178700017E00125883221234F67F201236707FB2
:10179700201236707F017E001258837F901234F634
:1017A7007F201236707F201236707F017E0012581C
:1017B700837F941234F67F201236707F20123670A2
:1017C7007F017E00125883221234F67F2012367072
:1017D7007F201236707F017E0012588322E075F059
:1017E7000A84E5F02430FF123670227F901234F617
:1017F7007FA112367022E075F00A842430FF12367A
:1018070070221234F67F201236707F201236707FD6
:10181700017E00125883227F941234F67FA112367C
:101827007022E075F00A84E5F02430FF123670224A
:101837007F881234F67FA112367022E075F00A8491
:101847002430FF123670227F9C1234F67F20123626
:10185700707F20227F8C1234F67FA112367022E02F
:1018670075F00A84E5F02430FF12367022123670C4
:101877007F017E00125883227F981234F67FA112CF
:101887003670221234F67F201236707F2022E075E0
:10189700F00A842430FF123670227F9C1234F67FC0
:1018A700A1123670221236707F017E0012588322F1
:0B18B7001234F67F201236707F2022D2
:103BC2008F44124786CEC313CE13D8F920E00302E6
:103BD2003C9A7BFF7A2E79D1E4FDFF12492C7A2E92
:103BE20079DC1247D312492C7A2E79E71247BB129D
:103BF200492CE4F5A0AE19AF1AEEC313EF137F926E
:103C020030E0071234F67F2D80051234F67F2B1236
:103C12003CC92430FF123CC9AFF0EF123CB07F8A9E
:103C22001234F690020BE075F00A842430FF12364B
:103C32007090020B1247C2123CB0E54424FE60327F
:103C420004704C12475C7F9030E00C1234F67FA176
:103C52001236707FF7800A1234F67FA11236707F17
:103C6200AF123CD87F881234F67F201236707F2044
:103C7200801A12475C7F9030E00A123C9B123CBED5
:103C82007FF78008123C9B123CBE7FAF123CD812D9
:103C9200476C12492C12477A221234F67F201236D0
:103CA200707F201236707F017E00125883222430EA
:103CB200FF1236707F017E00125883227F881234F1
:103CC200F67FA1123670221236709002D0E0FF7594
:103CD200F00A1222F8221236707F017E00125883F7
:013CE20022BF
:103DFA008F44124786CEC313CE13D8F920E00302AC
:103E0A003E977BFF7A2E79F2E4FDFF12492C7A2E37
:103E1A0079FC1247D312492C7BFF7A2F790DE4FDE6
:103E2A007F0112492CE4F5A0E54424FE60191460D0
:103E3A002A1460402403704C7F90123EDA123EE549
:103E4A007F94123EF0800A7F90123EC57F94123E04
:103E5A00DA123EE57F88123EF08008123E987F888B
:103E6A00123EFB123F067F8C1234F67F2012367008
:103E7A007F20800D123E987F88123EC57F8C123EAD
:103E8A00FB123F0612476C12492C12477A227F9086
:103E9A001234F67F201236707F201236707F017E30
:103EAA00001258837F941234F67F201236707F20D6
:103EBA001236707F017E00125883221234F67F2058
:103ECA001236707F201236707F017E0012588322CC
:103EDA001234F67FA11236707FF7221236707F01F4
:103EEA007E00125883221234F67F201236707F2009
:103EFA00221234F67FA11236707FF7221236707FB3
:073F0A00017E001258832222
:104A55008F44124786CEC313CE13D8F930E0617B5D
:104A6500FF7A2F791EE4FDFF12492C7BFF7A2F79FF
:104A750029E4FD7F0212492C7BFF7A2F7947E4FD5B
:104A85007F0112492CE4F5A0E54424FE6012047070
:104A9500267F90124AD1124AC67F88124ADC800DC1
:104AA5007F90124ADC124AC67F88124AD1123670AC
:104AB5007F017E0012588312476C12492C12477AE7
:104AC500221236707F017E00125883221234F67F3F
:104AD500A11236707FF7221234F67F201236707FCE
:024AE50020228D
:103A8F008F44124786CEC313CE13D8F920E003021A
:103A9F003B837BFF7A2F7956E4FDFF12492C7A2F57
:103AAF0079617F02123BAFE4F5A07F951234F69057
:103ABF0002CEE075F064123BB7E075F06484E5F078
:103ACF0075F00A123BB71247C22430FF123BA49085
:103ADF0002CDE024FE600F1460142402701F7BFFE0
:103AEF007A2F796F800E7BFF7A2F797F80067BFF8D
:103AFF007A2F798FE4FD7F0112492C800F7A2F796D
:103B0F008F7F01123BAF9002CD7403F0E4F5A0E577
:103B1F004424FE603204705312475C7F9030E00CF7
:103B2F001234F67FA11236707FF7800A1234F67FB7
:103B3F00A11236707FAF123BA47F881234F67F201C
:103B4F001236707F20801A12475C7F9030E00A1285
:103B5F003B84123B997FF78008123B84123B997F7D
:103B6F00AF1236707F017E0012588312476C1249D4
:103B7F002C12477A221234F67F201236707F2012D1
:103B8F0036707F017E00125883227F881234F67FB1
:103B9F00A1123670221236707F017E0012588322D6
:103BAF007BFFE4FD12492C22842430FF12367090E3
:033BBF0002CE2211
:015CC90022B8
:10551200900386E004F0E0C3940522AE19AF1AEFBF
:10552200780722EFF07F0A7E00225403FFE4F0A303
:10553200EFF0227F00FEF0A3EFF0A3E0FDEDFF22EB
:0B554200E4F0A3F0A3F0A3F0C2AF223E
:1043900090038612554212444A7FA612443F12559A
:1043A0001DCEC313CE13D8F930E00712551240E6E4
:1043B00080397F1812443F12551DCEC313CE13D837
:1043C000F930E00712551240CD80201244601244AB
:1043D0004A7FA712501412446012551DCEC313CE4B
:1043E00013D8F930E00A12551240AB7EFF7FFF224E
:1043F0007F017E00125C5312562D900389125525C1
:10440000125C53C20012445512562D90038A125565
:1044100025125C53D200124455125A29E4900387A6
:10442000F0A3F090038AE090038712552CE09003EC
:0E44300087125535900387EEF0A3EFF0D2AF60
:10443E00221250147F017E00125C53221259967F75
:10444E00017E00125C53221258257F0A7E00125CF8
:0A445E0053227F017E00125C5322FE
:1041D6009003861255421242997FA612428E1255BC
:1041E6001DCEC313CE13D8F930E00A9003861255BC
:1041F6001540E3803F7F0B12428E12551DCEC3132E
:10420600CE13D8F930E00A90038612551540C780C0
:10421600231242AF1242997FA71250141242AF12D4
:10422600551DCEC313CE13D8F930E00D9003861278
:10423600551540A27EFF7FFF227F017E00125C5350
:1042460012562D900389125525125C53C200124254
:10425600A412562D90038A125525125C53D20012D1
:1042660042A4125A29E4900387F0A3F090038AE04F
