:0627DC00014D0001440064
:10002600D3E5129427E51194012275110175122C5E
:0D00360022FA900290E0FEA3E0FF020E31DE
:102D10008F1075A0407F017E00122E3CE5105407F5
:102D2000F54DE54D4544F5807F017E00122E3C7542
:032D3000A0A0223E
:102CEA008F1F75A0407F017E00122E3CE51F3333F3
:102CFA00335438F544E544454DF5807F017E001292
:062D0A002E3C75A0A02282
:101D4D00E4F511F51243A00FF51175120AE5121500
:101D5D0012AC11700215114C7003021E28121E2BAD
:101D6D00FF640F60E8EF24F5603424FE60561460C4
:101D7D007924076003021E25120030E5124511601B
:101D8D0012E512151270021511121E2B640760EB6D
:101D9D007F042212002640037F00227F04221200BE
:101DAD0030E51245116012E512151270021511126F
:101DBD001E37640B60EB7F032212002640037F0069
:101DCD00227F0322120030E51245116012E5121533
:101DDD001270021511121E37640D60EB7F02221274
:101DED00002640037F00227F0222120030E51245BB
:101DFD0011601AE5121512700215117F017E001285
:101E0D002E3CE5A0540F640E60E37F0122120026E4
:0D1E1D0040037F00227F01227F00227F0012
:101E2A00227F017E00122E3CE5A0540F227F017E04
:091E3A0000122E3CE5A0540F2219
:0629E9008B1C8A1D891EF3
:1029EF00120DB79002C1F09002C07401F09002C0B6
:1029FF00E0FFC39D5020A3E0FEAB1CAA1DA91E8FB4
:102A0F0082758300120DD0FFEE6F9002C1F090021D
:0B2A1F00C0E004F080D79002C1E0FF8F
:012A2A002289
:1025DC00EF24D0FEE43407900290F0A3CEF0ED642B
:1025EC00016003BD020E740C2DFD90029074FFF57A
:1025FC00F0120E86ED75F002A4FFEB7A002FFFEAC5
:10260C0035F0FEED0475F003A475F005847C002F05
:10261C00FFEC3EFE900290E0FCA3E0FD2FFBEC3EB5
:10262C00FAEDAE047802CEC313CE13D8F92BFBEA25
:10263C003E7C007D64120037C3EB9FFBEA9E7C015D
:10264C007D90120037EF2BFFEE3AFE7C007D0712D7
:09265C000E31A3ECF0A3EDF0FF38
:012665002252
:102E3C00EF1FAA0670011E4A6013E4FCFDC3ED945B
:0D2E4C001CEC940250EA0DBD00010C80F05A
:012E59002256
:0B31F200EF1FAC0670011E4C70F622AF
:102E5A00F548AE47AF488E47EF22F546AE45AF4636
:0E2E6A008E45EF22F54AAE49AF4A8E49EF225F
:0B31FD007F0A7E00122E3C75BBFF22F3
:102FDB00438901758AFB758CDBD28CD2A9D2AF22C7
:102F0A00759850438920EF6007E4F58BF58D8006AC
:0B2F1A00758BFD758DFDD28ED2AC22B0
:0D31B100759A50759CB8438E1475AF0122BD
:10225600122E5C54FE122E5A54FD122E5A54FB12A4
:102266002E5A54F7122E5A54EF122E5A54DF122EAB
:102276005A54BF122E5A547FF548122E704401123A
:102286002E6E4402122E6E54FB122E6E4404F54A34
:10229600122E664402122E644404122E644408125E
:1022A6002E644410122E6454DF122E6454BF122E74
:1022B600644480F5467F0C90029FE4F0A3DFFCAEF9
:1022C6004BAF4C8E4BEF4401F54C9002227401F05B
:1022D60090021EF0E4900223F07F01122D1090026E
:1022E600207401F0FF7E00122E3C122E7054F7F57A
:0122F6004A9D
:0122F70022C4
:102D33001231FDE4FF122F0A1231B1122FDB1222DE
:102D430056E4F5A05380F775A0A0122AAF12326F94
:032D5300022F89C3
:06326900122D3302123B9E
:102AF0000B000000000000000000000000000000CB
:102B000000000000000000000000000000000000C5
:102B10000000000000000000D6C81F56D16872B047
:102B2000000102030405060708090A0B0C0D0E0F2D
:10177000EFF0E0C4540F7E00540F2420F582EE34C5
:101780002BF583E493C454F0FF22E0FF04F074844B
:101790002FF582E43402F5837402F0900283E0FFB7
:1017A00004F074842FF582E43402F583222FF0E0F4
:1017B00075F00A84C454F0FFE075F00A84EF25F058
:1017C000F022E0FFE4FCFDFE900289120FB89002C7
:1017D00089020FA074AB2558F582E43402F583E04A
:1017E00004F074AB2558F582E43402F583227800C6
:1017F000900285120FA0120EFBAC00AD01AE02AF3D
:101800000322FC900289120FB8900285120FA0905B
:101810000289120FAC120EB2900285020FB8AE49C7
:10182000AF4A8E49EF22F583E024D0F074222FF5E1
:1018300082E43402F583E02274242FF582E434023A
:10184000F5832290028DE0241FF582E43402F583B3
:10185000E022F0E0C454F0F0E0FF22AE47AF48EEE3
:10186000C4F854F0C8EFC4540F482290028DE0240D
:1018700021F582E43402F583E02274202FF582E41E
:101880003402F583E022E0540F902B209322900243
:101890008DE0FF2423F582E4340222900225E0FF4C
:1018A000A3E0FDA3E0FB22E490027FF0A3F090020E
:1018B00023E022900283E0FE04F074842E22741E42
:1018C0002FF582E43402F583E022AE45AF468E4523
:1018D000EF22AE4BAF4C8E4BEF22749F2558F58212
:1018E000E43402F58322F090028DE004F0229002AD
:1018F00020E064012290028DE0FFC3229002850265
:021900000FA036
:10123B00AE4BAF4CEF20E026900223E0900282F001
:10124B00E05403FFBF03028024900282E0540CFFA2
:10125B00BF0C028021900282E05430FF8027900265
:10126B001EE024FE601014601C2402701F1213FB7E
:10127B007401F0FF8012E4FF122D10E4900220F0B5
:10128B007F01FE800C1214047E0080051214047E74
:10129B0000122E3CAE49AF4AEF7807CEC313CE13E4
:1012AB00D8F930E0341218EE702F12185B20E029B9
:1012BB0012181E547FF54A1213FB7401F0FF7E00C7
:1012CB00122E3CE490027EF07F01FE122E3C7BFF3F
:1012DB007A2A79F07D30122A2BAE45AF46EF78078C
:1012EB00CEC313CE13D8F930E00D12219D12219DE0
:1012FB001218CA547FF54612185B20E059AE45AF61
:10130B0046EF7805CEC313CE13D8F930E005122083
:10131B0018802112089BAE45AF46EF7806CEC3135B
:10132B00CE13D8F930E00D1218CA54BFF546121D72
:10133B004DEF70FA12181E54FBF54AAE49AF4AEF47
:10134B007805CEC313CE13D8F930E00A121F38122A
:10135B00181E54DFF54A121D4DEF6401703FAE4568
:10136B00AF46EF7805CEC313CE13D8F95401F4FF73
:10137B007E00EF54017805C333CE33CED8F9FFACE2
:10138B0045AD46ED54DFFDEC4EF545ED4FF5461200
:10139B00181E4404F54A1218CA4440F546121D4D56
:1013AB00BF0403120B41121D4DBF03031214121283
:1013BB00185B20E00302123B120046E490027EF021
:1013CB00900282F0900282E0FFC39450500D1218ED
:1013DB0038E4F0900282E004F080E9AE47AF488E2B
:1013EB0047EF54EFF54812181E4401F54A02123B21
:1013FB007F01122D10900220227F02122D109002DD
:07140B00207402F07F0122B2
:10004600900285120FC400000000900289120FC4AE
:1000560000000000900220E0600302035D90027E33
:10006600E0D394145003020355E094504003020376
:1000760055900224E064246003020355A3E064471C
:100086006003020355A3E064506003020355A3E036
:1000960064526003020355A3E0644D6003020355F6
:1000A600A3E064436003020355A3E0642C600302EB
:1000B600035590028D7407F01218F5940D50111225
:1000C6001838E0C3943050030203551218E780E84D
:1000D60090022BE0C394334003020355A3E0C3947C
:1000E6003A4003020355A3E0C39436400302035586
:1000F600A3E0C3943A4003020355A3E0C3943640F9
:1001060003020355A3E0C3943A4003020355900249
:100116008D7407F01218F5940D500B121838E02460
:10012600D01218E680EE1218D254FDF54C90022B30
:10013600E07010A3E0C394025002801690022B7464
:1001460001801A90022BE06401701DA3E0C39402A3
:100156005006E02408F0802A90022B7402F0A3E0F7
:10016600F404FFC374FE801190022BE0B40213E482
:10017600F0A3E0F404FFC374049FF01218D2440203
:10018600F54C90022BE090022912185290022CE0B6
:10019600FEEF4E900229F090022DE090022A1218EE
:1001A6005290022EE0FEEF4E90022AF090022FE0CF
:1001B60090022B121852900230E0FEEF4E90022B66
:1001C600F0E490028EF090027EE090028DF09002B4
:1001D6008DE0FFD39407401D121838E0B42C06902A
:1001E600028EE004F090028EE06403600890028DB7
:1001F600E014F080D912188EF583E0C3943A4003D8
:1002060002035512182CC3943A40030203551218E0
:100216006BC39433400302035512187AC3943240D9
:1002260003020355121843C3943A400302035512BE
:1002360018BEC39434400302035590028DE0121891
:1002460093F583E0C39430500302035512182CC370
:100256009430500302035512186BC39430500302B6
:10026600035512187AC394305003020355121843EB
:10027600C3943050030203551218BEC39430500382
:1002860002035512188E12182624D0F074212F124C
:10029600187124D0F012187A24D0F0741F2F121877
:1002A6004924D0F0741E2FF582E4340212182690E9
:1002B600022512185290028DE0FE121893F583E083
:1002C600FDEF4D900225F074202E12187D90022627
:1002D60012185290028DE0FE12186FFDEF4D90023B
:1002E60026F0741E2E1218C19002271218521218E8
:1002F60043FEEF4E900227F012189B1225DC900267
:100306008FEFF0E070037407F090028FE0FFC39464
:1003160001403CEFD394075036900220E0700EAEB9
:100326004BAF4CEF20E0061205B2122905AE4BAFDB
:100336004CEF30E00C1218A7440CF090021E740328
:10034600F07F017E00122E3C12181E54EFF54A1261
:10035600181E54F7F54A221218EE600302054C9057
:10036600024CE0FF900244E06F60030205449002F5
:100376004DE0FF900245E06F600302054490024E97
:10038600E0FF900246E06F600302054490024FE0F2
:10039600FF900247E06F600302054490024C12177B
:1003A600C27818120F8D1217C8E4FFFEFDEC121763
:1003B600C812181890024D1217C27810120F8D121B
:1003C60017C8E4FFFEE412180290024E1217C27814
:1003D60008120F8D1217C8E4FFE4FD1218029002EE
:1003E60085120FAC90024FE0FFE4FCFDFE121815DB
:1003F6001218FCEF2480FFEE3470FEE43DFDE43C71
:10040600FC1218187B3E7A8579E178011218FC12E5
:100416000EFBEF249CFFEE34FF900283F0A3EFF077
:100426009002251217719002251218869002251245
:1004360017AD7B3E7A8579E178011217F07B6F7AEA
:100446002079287800120EFBEF049002261217710D
:100456009002261218869002261217AD7B6F7A201C
:1004660079281217EE7B807A5179017800120EFBFB
:100476009002271217709002271218862F900227D3
:100486001217AE7B807A5179011217EEE47B107A4F
:100496000EF9F8120EFB900229121770900229121B
:1004A60018862F9002291217AEE47B107A0EF9F8FF
:1004B6001217F0E47B3CFAF9F8120EFB90022A12AE
:1004C600177090022A1218862F90022A1217AEE48D
:1004D6007B3CFAF9F81218FC120EFB90022BEB1279
:1004E600177190022B1218862F90022B1217AE123C
:1004F600189B1225DC90028FEFF0E070037407F072
:1005060090028FE0FFC39401402DEFD3940750274C
:100516001218EE700EAE4BAF4CEF20E0061205B28D
:10052600122905AE4BAF4CEF30E00C1218A744036E
:10053600F090021E7402F012181E54BFF54A1218EB
:100546001E54BFF54A22900220E06402705D9002BC
:100556008DF01218F59408500B121838E024E012AA
:1005660018E680EE900220E064037024AE4BAF4C98
:10057600EF20E01C900228E0FF122B6E12189B90D1
:100586000229E0F514A3E0F515A3E0F516122905F6
:10059600AE4BAF4CEF30E0131218A74430F0900288
:0B05A6001E7401F01218D254FEF54C38
:1005B1002290028FE0FF122B6E7F017E00122E3CF3
:1005C100900225E0FFA3E0FDA3E0FB900229E0F506
:0A05D10014A3E0F515A3E0F51622CF
:101F38000558E558C3940C4003E4F558E49002832F
:101F4800F09002847401F0A3742CF090028374065C
:101F5800F0AF581228AE7F647E00122E3CAF5812A4
:101F680028AE900284E07002A3E07003021FFA908A
:101F7800028474FFF5F0120E867F017E00122E3C5B
:101F880075140075150075160C7B017A02790A1212
:101F980022F8EF60CD90020AE0B402C6A3E0B4A52F
:101FA800C1A3E0B45ABCA3E0B4A5B7A3E0B45AB245
:101FB800A3E0B4A5ADA3E0645A70A7A3E064A5703C
:101FC800A1A3E0645A709BA3E0F47096900215E018
:101FD8006403708E900214E0B5580C1217E2E4F016
:101FE8001218DA7401F0221217D4E0C39403401FC8
:101FF8008018900283E004F0E0C394065003021FA7
:0F200800491217D4E0C3940340051218DAE4F02C
:0120170022A6
:10219D00E4900283F012178A7420F07F0612223326
:1021AD00EFF07F05122233EFF07F04122248121751
:1021BD00A5EFF07F03122F259002B7EFF0E0540743
:1021CD00F0E0FF1218B31217A5EFF07F02122248AC
:1021DD001217A5EFF07F01122F251218B31217A5B4
:1021ED00EFF0E4FF122F25EF547FFF1218B31217F3
:1021FD00A5EFF0900283E024841217A5E0041217D6
:10220D009A7401F090028312178A7403F07B017A9D
:10221D000279847D0C122E967F647E00122E3C7FF7
:06222D000A7E00022E3CB7
:10223300122F25900283E0FE04F074842EF582E4CD
:102243003402F58322122F25900283E0FE04F074FA
:03225300842E22B4
:07325B00C1C2BBCAAB472151
:102FCA00900283E0FFC3941022900282F0E4A3F0FF
:012FDA0022D4
:102C0D00E49002BDF0E49002BEF0E49002BFF090BB
:102C1D0002BFE004F0E0B433F69002BEE004F0E051
:0D2C2D00B440E79002BDE004F0E0B41ED812
:012C3A002277
:042394008E108F1107
:10239800E4F5A07480122FD3122FCA50051223F728
:1023A80080F6E4900283F07488122FD3122FCA505B
:1023B800051223F780F6E4900283F090028274906D
:1023C800F0E4A3F0122FCA500512241180F6E4900D
:1023D8000283F09002827498F0E4A3F0122FCA509E
:0E23E8000512241180F6E4900283F075A0A087
:1023F60022900282E02FFF1219027F20121A7C7FA0
:1024060020121A7C900283E004F022900282E02FD0
:10241600FF1219027F20121A7C7F20121A7C90026A
:0524260083E004F02238
:102C69008D59E4F5A0121902E55975F00A8424304A
:102C7900FF121A7CE55975F00A84E5F02430FF1239
:0B2C89001A7C7F3A121A7C75A0A02272
:0A242B008F128D138B148A15891689
:10243500E4F5A07F01FE122E3CE512D39403400380
:10244500751203E513D394084003751308E51214B8
:1024550060101460131460162403701AE5132480A9
:102465008010E5132488800AE51324908004E51381
:10247500249890029AF090029AE02513F0E0FF125A
:102485001902AB14AA15A916120DB7900299F0649A
:1024950021601C74012516F516E43515F515900215
:1024A50099E0FF121A7C7F017E00122E3C80D37FBB
:0924B500017E00122E3C75A0A06E
:0124BE0022FB
:102AAF00E4F5A07F33122AE57F30121902122C3B76
:102ABF007F30122AE57F011219027F0A7E00122E43
:102ACF003C1232297F0A7E00122E3C7F207E00129C
:102ADF00239475A0A0221219027F0A7E00122E3CA9
:012AEF0022C4
:102C3B00E4900282F0E4900283F0E4900284F0903E
:102C4B000284E004F0E0B433F6900283E004F0E099
:0D2C5B00B440E7900282E004F0E0B403D83A
:012C68002249
:0A3229007F301219027F0C02190217
:0A3233007F301219027F0802190211
:0A323D007F361219027F30021902D9
:0A3247007F341219027F30021902D1
:10284C00E49002C3F01228A49002C2122891C28212
:10285C0012289C1228A40012289C9002C3122891C2
:10286C00C2829002C2E054F0FFF0A3E0C4540FF017
:10287C00540FF04F9002C2F07F017E001231F290A3
:04288C0002C2E0FFA5
:1028900022E580F07F017E001231F2227F017E006E
:0E28A0001231F2221226EDD280D281D2822293
:021A7C008F17C2
:101A7E00E490029BF01226EDE51754F090029BF0D5
:101A8E00120FF51AC5001AC9101ACF201AD5301A1E
:101A9E00DF401AE3501AE9601AEF701AF9801AFD46
:101AAE00901B03A01B09B01B13C01B17D01B1DE0FE
:101ABE001B23F000001B2BC2848002D284C28580BF
:101ACE000AC284D2858004D284D285C286C287801F
:101ADE004CC2848002D284C285800AC284D28580A0
:101AEE0004D284D285D286C2878032C2848002D24A
:101AFE0084C285800AC284D2858004D284D285C2F3
:101B0E0086D2878018C2848002D284C285800AC29F
:101B1E0084D2858004D284D285D286D287121BE6E7
:101B2E00C2827F057E001231F2E517C454F0900296
:101B3E009BF054F0F0120FF51B7A001B7E101B84E5
:101B4E00201B8A301B94401B98501B9E601BA47058
:101B5E001BAE801BB2901BB8A01BBEB01BC8C01B17
:101B6E00CCD01BD2E01BD8F000001BE0C284800258
:101B7E00D284C285800AC284D2858004D284D28562
:101B8E00C286C287804CC2848002D284C285800AFB
:101B9E00C284D2858004D284D285D286C287803216
:101BAE00C2848002D284C285800AC284D285800417
:101BBE00D284D285C286D2878018C2848002D28413
:101BCE00C285800AC284D2858004D284D285D28610
:071BDE00D287121BE6C28250
:0F1BE50022D280C281D2827F057E001231F2228D
:021902008F173D
:10190400E490029BF01226EDE51754F090029BF050
:10191400120FF5194F00195310194B20195930198A
:101924006340196750196D60197370197D801981AE
:10193400901987A0198DB01997C0199BD019A1E0EF
:1019440019A7F0000019AFC284800CC2848002D2AF
:1019540084C2858004D284D285C286C287804CC268
:10196400848002D284C285800AC284D2858004D253
:1019740084D285D286C2878032C2848002D284C255
:1019840085800AC284D2858004D284D285C286D25C
:10199400878018C2848002D284C285800AC284D21D
:1019A400858004D284D285D286D2877F017E0012BC
:1019B40031F2121A6EC2827F017E001231F2E517F3
:1019C400C454F090029BF0120FF51A02001A06108C
:1019D4001A0C201A12301A1C401A20501A26601AA7
:1019E4002C701A36801A3A901A40A01A46B01A502F
:1019F400C01A54D01A5AE01A60F000001A68C2845F
:101A04008002D284C285800AC284D2858004D284B2
:101A1400D285C286C287804CC2848002D284C285A9
:101A2400800AC284D2858004D284D285D286C287B9
:101A34008032C2848002D284C285800AC284D28564
:101A44008004D284D285C286D2878018C284800260
:101A5400D284C285800AC284D2858004D284D2858D
:091A6400D286D287121A6EC282EA
:0F1A6D0022C280C281D2827F017E001231F2221A
:1026ED00E490029DF0A3F090029CF0122749900215
:1026FD009D12275AC28200007F017E001231F21214
:10270D00274990029E12275AC282000090029EE035
:10271D00C4540FF0540FFFF090029DE054F0F04FB1
:10272D00F07F017E001231F290029DE030E70C90B7
:0B273D00029CE004F0E0C3941440B0E4
:10274800227580F0C280D281D2827F017E00123150
:0D275800F222E580F07F017E001231F222B6
:102D79002020A440A447A454A57CA4ADA4BBA4E9E5
:102D8900212020A46CC4C1B373BD75AAACBA41207B
:022D99002021F7
:10276500FF04F074852FF582E43402F5837420F0BC
:10277500900284E0FF04F074852FF582E43402F5BD
:10278500837420F0900284E0FF04F074852FF582B5
:10279500E43402F58322E0C4540F2430FF90028410
:1027A500E0FE04F074852E227421F07B017A027913
:1027B50085E4FD22745BF0AE45AF4622EEC4F854C5
:1027C500F0C8EFC4540F4822AE45AF468E45EF2200
:0727D500E0241054F0F02293
:0D31BE00D2C0D2C10000C2C00000C2C122B8
:0B320800C2C0D2C10000D2C0000022F2
:0D31CB00A20092C0D2C10000C2C1000022CB
:0B321300D2C10000A2C0C2C100002216
:0C2BDE00C2AF1231BE7FDE122BEAAF0442
:102BEA00E4FEFDEF25E0FF92C0D2C10000C2C100A1
:102BFA00000DBD08EE1232135008AF060EEF941EF8
:022C0A0040F395
:012C0C0022A5
:102EEE00E4FFD2C0FEEF25E0FFD2C10000A2C0E495
:0B2EFE00334207C2C100000EBE08EA0C
:012F090022A5
:102F5900AC05AB07122BDEAF03122BEA123208D2F3
:082F6900AF7F057E00022E3C43
:022F2500AC07F7
:102F2700122BDE1231BE7FDF122BEA122EEED200F9
:082F37001231CB123208D2AFB7
:012F3F00226F
:102B6E008F117F03122F259002B7EFF07D077F4064
:102B7E00122F597F017E00122E3CE5119002B7B440
:102B8E00FF05E044088009E054F8F0E044084511E0
:092B9E00F0E0FF7D03122F592223
:102905008D128B137D061229427D05AF12122942C5
:102915007D04AF1312294D7D02AF1412294D7D019F
:10292500AF15122F597F017E00122E3CE51644800B
:10293500FFE4FD122F597F017E00022E3C122F5914
:102945007F017E00122E3C22122F597F017E00123C
:032955002E3C22F3
:102DFE009002BCE0B49903E4F0229002BCE0540FC0
:0F2E0E00FFBF09041227D5229002BCE004F02276
:102D9B009002BAE024EE600B2409700E9002BA7414
:102DAB0010F0229002BA7401F0229002BAE004F003
:012DBB0022F5
:102BA7009002B7E024F7601324F0601624F0601950
:102BB70024F8701C9002B77401F0229002B77410C9
:102BC700F0229002B77420F0229002B77430F022FE
:072BD7009002B7E004F022B8
:102C94009002BBE024F7601524F0600A24F6701457
:102CA400E49002BBF0229002BB7420F0229002BB9D
:0B2CB4007410F0229002BBE004F0223C
:102E1D009002B9E0B45903E4F0229002B9E0540FE6
:0F2E2D00FFBF09041227D5229002B9E004F0225A
:102D56009002B8E0547FF0E0B45903E4F022900208
:102D6600B8E0540FFFBF09041227D5229002B8E03D
:032D760004F02244
:05326F007FFF022B6E41
:10089B00E4900284F012278C74321227887430F0A3
:1008AB007F06122F259002BCEFF012279B12279385
:1008BB00EFF09002BCE012279D122793EFF0122766
:1008CB008974A6122788747E1227747420F07F0512
:1008DB00122F259002BAEFF0E0D39412400374125A
:1008EB00F09002BA12279B122793EFF09002BAE016
:1008FB0012279D122793EFF012278974A4122788D1
:10090B0074EBF07F04120B37D3943140037431F046
:10091B009002B712279B122793EFF09002B7E012C9
:10092B00279D122793EFF012278974A4122788743E
:10093B00E91227881227ADFF12242BE4900284F0D2
:10094B00AE45AF46EEC313EF1330E00812278C749D
:10095B002BF080061227897420F07F02122F25902E
:10096B0002BBEFF0E0D3942340037423F09002BB5F
:10097B0012279B122793EFF09002BBE012279D12D8
:10098B002793EFF0122789743AF07F01122F2590ED
:10099B0002B9EFF0E0D3945940037459F09002B9C7
:1009AB0012279B122793EFF09002B9E012279D12AA
:1009BB002793EFF0122789743AF0E4FF122F25EFFB
:1009CB00547F9002B8F0E0D3945940037459F090DF
:1009DB0002B812279B122793EFF09002B8E0122770
:1009EB009D122793EFF012277574AC122788745061
:1009FB0012278874B412278874C1F07F03120B3747
:100A0B005407F0E025E0F0E0902D79931227A11226
:100A1B002793EFF09002B7E0902D7A931227A11253
:100A2B002793EFF01227891227AD7F0212242BE4B4
:100A3B00900283F0900283E0FFC39410500E1227B4
:100A4B00907420F0900283E004F080E8122790125B
:100A5B0027AD7F0112242BE4900284F012278C1215
:100A6B0027B91227C130E022900223E05403FF90F4
:100A7B000284E0BF031212278D744E122788745420
:100A8B001227887450F0800C8004900284E01227A7
:100A9B00657420F0122789745D1227881227B9EF2D
:100AAB007803CEC313CE13D8F930E022900223E0A3
:100ABB00540CFF900284E0BF0C1212278D74471266
:100ACB00278874501227887453F0800C800490028E
:100ADB0084E01227657420F0122789745D12278831
:100AEB001227B9EF7802CEC313CE13D8F930E02218
:100AFB00900223E05430FF900284E0BF30121227A3
:100B0B008D7443122788744F122788744DF0800C14
:100B1B008004900284E01227657420F012278974F8
:0C0B2B005D1227741227AD7F0302242BFB
:0A0B3700122F259002B7EFF0E02224
:0215D4008F1175
:1015D600E4900283F07BFF7A2D798AFDFF12242B9B
:1015E600E4F5A07F901216DB6005121750800312F7
:1015F6001758121A7C12174005117F881216DB60E5
:10160600051217508003121758121A7C121740053C
:10161600117F9812190212170F60051217608003C6
:10162600121768121A7C7F5D121A7C7F20121A7CB0
:101636007F20121A7C05117F941216A260051217DC
:10164600608003121768121A7C7F5D121A7C0511DE
:101656007F8C1216A260097F4F121A7C7F4B80077F
:101666007F58121A7C7F58121A7C7F5D121A7C05ED
:10167600117F9C1219027F20121A7C12170F600923
:101686007F4F121A7C7F4B80077F58121A7C7F5837
:0B169600121A7C7F5D121A7C75A0A068
:1016A100221219027F20121A7CE51175F00A842496
:1016B10030FF121A7CE51175F00A84E5F02430FF41
:1016C100121A7C7F3A121A7C7F5B121A7C749F2556
:1016D10011F582E43402F583E022121902E5117555
:1016E100F00A842430FF121A7CE51175F00A84E5B2
:1016F100F02430FF121A7C7F3A121A7C7F5B121A97
:101701007C749F2511F582E43402F583E022E51112
:1017110075F00A842430FF121A7CE51175F00A84F1
:10172100E5F02430FF121A7C7F3A121A7C7F5B129B
:101731001A7C749F2511F582E43402F583E0227F3F
:101741005D121A7C7F20121A7C7F20121A7C227F64
:101751004F121A7C7F4B227F58121A7C7F58227FAE
:0F1761004F121A7C7F4B227F58121A7C7F58221E
:10201800E4F510AF101215D4AE45AF46EF7806CEF2
:10202800C313CE13D8F930E00D1227CD54BFF546AF
:10203800121D4DEF70FA121D4DEF1470030220DBD4
:1020480024FD601304702674062510F510C3940C43
:102058004012E4F510800DE510C39406400674FAAA
:102068002510F5101227CD4440F54680A6AE49AF9D
:102078004AEF7805CEC313CE13D8F930E00E121FFD
:1020880038AE49AF4A8E49EF54DFF54AAE47AF48FC
:102098001227C130E019120046AE47AF488E47EF0D
:1020A80054EFF548AE49AF4A8E49EF4401F54AAEC0
:1020B80045AF46EF7807CEC313CE13D8F920E00317
:1020C80002201B12219D12219D1227CD547FF54617
:0320D80002201BC8
:0120DB0022E2
:1027E2004102200041027E0041021F0042027900A4
:1027F20000410274004102780041027700410275F3
:102802000041027B00410276004102210042027C2B
:10281200000041021E014102220141022300420244
:032822007F000034
:1024BF00E4F0AE49AF4A8E49EF4410F54AAE49AF4A
:1024CF004A8E49EF54BFF54AAE49AF4A8E49EF22C3
:1024DF00AE47AF488E47EF54FBF548900274E4F0D7
:1024EF00AE47AF488E47EF22AE47AF48EEC4F85421
:1024FF00F0C8EFC4540F482290027EE0FF04F0743E
:10250F00242FF582E43402F5832274A5F0A3745AC4
:10251F00F0A374A5F0A3745AF0A322900275E0FF04
:10252F0004F0EFD322547FF54A90027EE4F022E4C8
:10253F0075F001120E9CFE22F0900223F090021E05
:01254F002269
:082A2B008B108A1189128D1332
:102A33007F017E00122E3CE4F514E514C395135078
:102A430017AB10AA11A912851482758300120DD039
:102A5300FF122EB4051480E2AE47AF48EF7806CEDE
:092A6300C313CE13D8F920E0EFF3
:012A6C002247
:082A6D008B4E8A4F89508D51F8
:102A75007F017E00122E3CE4F552E552C39551507C
:102A850017AB4EAA4FA950855282758300120DD0FF
:102A9500FF122ED1055280E2AE47AF48EF7807CE40
:092AA500C313CE13D8F920E0EFB1
:012AAE002205
:102EB400AD07AE47AF48EF7806CEC313CE13D8F9AB
:0D2EC40020E0EF1224EF4440F5488D9922E4
:102ED100AD07AE47AF48EF7807CEC313CE13D8F98D
:0D2EE10020E0EF1224EF4480F5488D9B2285
:0228AE008F1188
:1028B0007F017E00122E3C90020A7402F0A31225C2
:1028C0001912251974FFF0A3E511F0A37403F07B2E
:1028D000017A02790A7D0C122E967F017E00122E5B
:1028E0003CE4900286F0900286E0FFC3940C501402
:1028F000740A2FF582E43402F583E4F0900286E056
:0429000004F080E27D
:0129040022B0
:03002300021BF4C9
:101BF400C0E0C083C082C0D075D000C000C005C0A2
:031C040006C00710
:101C0700C2AF43C110209803021D2EC298AD999010
:101C17000274E4F0AE49AF4AEF20E003021D2E90B4
:101C27000220E07053AE49AF4A1224FB30E049BDB1
:101C37002419AE49AF4AEF7803CEC313CE13D8F9B0
:101C470020E0081224D74408122536AE49AF4AEFE0
:101C57007803CEC313CE13D8F920E003021D2E124A
:101C67002507EDF0640A6003021D2E90027EE02432
:101C770024122511E4F08029900220E064017032DB
:101C8700AE49AF4AEF7806CEC313CE13D8F930E08A
:101C970021122507EDF090027EE064306003021DFB
:101CA7002E1224EF4410F5481224D754FEF54A02A9
:101CB7001D2E900220E06402706DAE47AF48EF78AA
:101CC70002CEC313CE13D8F930E046122507EDF044
:101CD70090027EE0640B704FE02423F582E4340227
:101CE700F583E0AE47AF48B403108E47EF4410F5D5
:101CF700481224D754FEF54A800E8E47EF54EFF56D
:101D0700481224D74401F54A1224DF54FEF54880CF
:101D170016BD02131224EF4401F5481224EF4404C0
:101D2700F54890027EE4F0309909C2991224EF54E5
:051D3700BFF548D2AF2A
:101D3C00D007D006D005D000D0D0D082D083D0E050
:011D4C003264
:030043000220DCBC
:0B20DC00C0E0C083C082C0D075D008F7
:1020E700C2AF43C110E59A20E003022183539AFE51
:1020F700AD9B900278E4F0AE47AF48EF7803CEC3CC
:1021070013CE13D8F930E05E90021FE0FF04F0749D
:102117000A2FF582E43402F583EDF090021FE064A4
:102127000B7059E02409F582E43402F583E0AE47E9
:10213700AF48B403108E47EF4420F5481224D75414
:10214700FDF54A800E8E47EF54DFF5481224D74439
:1021570002F54A1224EF54F7F5489002781224ED5D
:1021670054FDF5488016BD02131224EF4402F548CA
:102177001224EF4408F54890021FE4F0E59A30E195
:0D2187000A539AFD1224EF547FF548D2AFA1
:09219400D0D0D082D083D0E0321B
:03000B0002101BC5
:10101B00C0E0C0F0C083C082C0D075D000C000C09B
:03102B0006C007F5
:10102E0043C110758AFB758CDB90027912253ED375
:10103E00E5F0940AEE940050030211A9900279E4AF
:10104E00F0A3F090027B12252D94144009E4F012C7
:10105E0024D74420F54A90022112252D94014009EF
:10106E00E4F01224D74404F54A90027712252D9409
:10107E001E400DE4F0AE45AF468E45EF4480F5467A
:10108E0090027C12253EC3E5F094B0EE940440220B
:10109E001224F720E01C90027CE4F0A3F090021ED4
:1010AE0004F0AE4BAF4C8E4B4FF54C90027FE4F0FC
:1010BE00A3F0AE4BAF4CEF30E06790027F12253EAF
:1010CE00C3E5F0942CEE9401405790027FE4F0A318
:1010DE00F0900281F0900223E0900281F090021EC7
:1010EE00E024FE60151460202402702A900281E034
:1010FE0054FC1225477402F08027900281E054F3CD
:10110E001225477403F08019900281E054CF122506
:10111E00477401F08000AE4BAF4C8E4BEF54FEF592
:10112E004CAE4BAF4CEF30E03B12252A94324017B9
:10113E0090021EE06402700F1224F720E009900264
:10114E00751224BF12253490027612252D9432404A
:10115E004A90021EE0640170421224F720E03C9097
:10116E000276802312252A9432400C1224F720E0B6
:10117E00061224BF12253490027612252D94324089
:10118E001A1224F720E014E4F01224D7444012245B
:10119E00D544801224D554EF122536AE47AF48EF12
:1011AE0030E028900274E0FF04F0EFC39405401B7A
:1011BE001224EF54EFF5481224D74401F54AE4F017
:1011CE0090027EF01224DF54FEF548AE47AF48EE93
:1011DE00C313EF1330E045900278E0FF04F0EFC345
:1011EE0094054038AE47AF48EF7803CEC313CE1305
:1011FE00D8F930E00E1224EF4420F5481224D754CB
:10120E00FDF54A900278E4F090021F1224EE54F796
:0C121E00F5489002781224ED54FDF548CC
:10122A00D007D006D000D0D0D082D083D0F0D0E082
:01123A003281
:102F71008FC48EC375C65A75C6A52274002557F530
:082F81008274003556F583222D
:062666008E538F548D55C8
:10266C00E4F556F557AF57AE56122FEB122F7CEF01
:10267C00F00557E55770020556C3E556940240E540
:10268C00E4FFFE1231E5E4F556F557AF57AE56129E
:10269C002FEBEFF470480557E55770020556C3E56C
:1026AC0056940240E67F0A7E00122E3C740025549C
:1026BC00F58274003553F583E555F0E4F556F5577E
:1026CC00122F7CE0FDAF57AE56122FB70557E557CA
:1026DC0070020556C3E556940240E57F01227F0047
:0126EC0022CB
:10000E00AE071FEE600DE4FCFD0DED70010C4C60B3
:03001E00EF80F67A
:0100210022BC
:0D31D800E4F5C7F5C5F5C675C380F5C42242
:0F2FEB0075C78275C501122F7100AFC21231D8A0
:012FFA0022B4
:102FB70075C78275C5028FC48EC38DC2122F750067
:032FC7000231D8FC
:0D31E50075C78275C503122F71000231D825
:08000300C0C0C0C0C0C0C0C0F5
:1028250020232100080010A7625BF80322F8004767
:10283500B610181D1CC700B2EA2A001159813509C6
:0628450006060405000C6C
:102FA000900288E0AB14AA15A91622C390028BE008
:072FB0009F90028AE09E22BF
:102CBF00E490028AF0A3F0122FAB5009E475F001F3
:102CCF00120E8680F2E490028AF0A3F0122FAB501E
:0A2CDF0009E475F001120E8680F280
:012CE90022C8
:102F4000000000000000000000000000000000EF92
:092F50001F70011E144E70E822EE
:07326200C294C297D294222E
:0A3251001232627F887E13022CBF48
:102B3000E4900293F0C297900292F0EF30E704D253
:102B4000958002C295EF25E0FFD297000090029396
:102B5000E025E0F0309603E004F0C2970000900218
:0D2B600092E004F0E0B408D3900293E0FF8F
:012B6D002245
:102FFB00C2942096FD7F30122B302096FDD2942266
:102E7800D2947F017E00122F40C2947F017E0012FF
:0E2E88002F40D2947F297E00122F40022FFB94
:10300B00C2942096FD122B30AF05122B30D2942296
:0629A3008B138A14891554
:1029A900EF4440900291F0C2942096FD900291E08C
:1029B900FF122B30E4900290F0900290E0FFC39553
:1029C90016501AAB13AA14A9158F82758300120D1C
:0F29D900D0FF122B30900290E004F080DCD294FB
:0129E80022CC
:0B321E00C2942096FD122B30D29422A7
:102DBC00EF448090028AF0C2942096FD90028AE043
:102DCC00FF122B30E4FF122B3090028BEFF0D294D9
:012DDC0022D4
:062958008B188A19891A90
:10295E00EF44C090028BF0C2942096FD90028BE063
:10296E00FF122B30E490028AF090028AE0C3951B8E
:10297E005020E4FF122B30AB18AA19A91A90028A24
:10298E00E0F582758300EF120E0F90028AE004F0DC
:04299E0080D7D29478
:0129A2002212
:102DDD00EF44C090028BF0C2942096FD90028BE0E0
:102DED00FF122B30E4FF122B3090028AEFF0D294B9
:012DFD0022B3
:101E4300AD217F0C12300BAD227F0B12300BAD2373
:101E53007F0C12300BAD247F0D12300BAD257F0E9E
:101E630012300BAD267F0F12300BAD277F101230CF
:101E73000BAD287F1112300BAD297F1212300BAD41
:101E83002A7F1312300BAD2B7F1412300BAD2C7F36
:101E93000A12300BAD2D7F1512300BAD2E7F2112A0
:101EA300300BAD2F7F2212300BAD307F1812300B69
:101EB300AD317F1912300BAD327F1A12300BAD33B7
:101EC3007F1B12300BAD347F1C12300BAD357F1DE1
:101ED30012300BAD367F2312300BAD377F24123017
:101EE3000BAD387F2512300BAD397F2612300BAD89
:101EF3003A7F2912300BAD3B7F2C12300BAD3C7F68
:101F03002D12300BAD3D7F2E12300BAD3EE4FF1290
:101F1300300BAD3F7F0212300BAD407F0712300B09
:101F2300AD417F0812300BAD427F0912300BAD4338
:051F33007F0602300BE7
:102E9600AC057F3F12300B8C167F3F1229A37F357E
:0E2EA60012321E30B3FD20B3FD7F3B02321E00
:053274007F3402321E50
:0622F8008B118A1289130C
:1022FE00122FA4120DB725E025E0900289F07F344D
:10230E0012321E7F027E00122CBF30B3167F027E69
:10231E0000122CBF900289E014F0E0C3940150EA41
:10232E007F00227F3B122DDDEF547F60567F3F12E0
:10233E002DBC900288EFF0122FA4120DB7FEEFD332
:10234E009E5032AB11AA12A913900288E0F51B7FA2
:10235E003F122958122FA0120DFD7B017A027986A9
:10236E00751B027F3F1229587F3A12321E90028748
:10237E00E05480FF22122FA0120DFD7F3A12321E62
:05238E007F00227F002A
:012393002227
:102F8900123251122E78121E437BFF7A0079037593
:072F990016087F3E0229A388
:1005DB0061742B776966695F636F6E663D686F6DDB
:1005EB00656B69742C777061325F6165732C66750E
:1005FB00636B444E53415250786D3530306E6D6D98
:10060B000D0A0061742B72656D6F746569703D70B6
:10061B006F6F6C2E6E74702E6F72670D0A006174A3
:10062B002B72656D6F7465706F72743D3132330D63
:10063B000A0061742B4765745F4D41433D3F0D0AC2
:10064B000061742B776966695F5363616E3D3F0D83
:10065B000A0061742B6F75745F7472616E733D3039
:10066B000061742B6E65746D6F64653D320D0A000D
:10067B0061742B64686370643D300D0A0061742BE8
:10068B006D6F64653D636C69656E740D0A00617412
:10069B002B6E65746D6F64653D330D0A0061742BB1
:1006AB0064686370643D310D0A0061742B64686388
:1006BB0070645F69703D3139322E3136382E3130EE
:1006CB002E312C3139322E3136382E31302E323507
:1006DB00342C3235352E3235352E3235352E302CF5
:1006EB003139322E3136382E31302E3132350D0A2A
:1006FB000061742B64686370645F646E733D3139A1
:10070B00322E3136382E31302E312C302E302E30D9
:10071B002E300D0A0061742B64686370645F74691A
:10072B006D653D393630300D0A0061742B77696683
:10073B00695F636F6E663D4E5450207365727665CC
:10074B00722C777061325F6165732C3132333435C3
:10075B003637380D0A0061742B64686370633D3162
:10076B000D0A0061742B6E65745F69703D3139320F
:10077B002E3136382E31302E32332C3235352E3257
:10078B0035352E3235352E302C3139322E31363837
:10079B002E31302E39380D0A0061742B6E65745F63
:1007AB00646E733D302E302E302E302C302E302E8A
:1007BB00302E300D0A0061742B72656D6F7465708D
:1007CB00726F3D7463700D0A0061742B72656D6FEF
:1007DB00746570726F3D7564700D0A0061742B6DDA
:1007EB006F64653D7365727665720D0A0061742BDB
:1007FB0072656D6F746569703D3230322E313132F6
:10080B002E33312E3139370D0A0061742B72656D21
:10081B006F7465706F72743D3132330D0A00617401
:10082B002B74696D656F75743D300D0A0061742B07
:10083B00756172743D393630302C382C6E2C310D7D
:10084B000A0061742B756172747061636B74696DEE
:10085B00656F75743D3130300D0A0061742B756115
:10086B0072747061636B6C656E3D3130300D0A00D4
:10087B0061742B6E65745F636F6D6D69743D310DC3
:10088B000A0061742B7265636F6E6E3D310D0A0049
:0E301B007BFF7A0579DB7D33122A2B7F0122A1
:0E3029007BFF7A06795D7D0F122A2B7F012234
:0E3037007BFF7A0679FC7D24122A2B7F012272
:0E3045007BFF7A0779A47D1D122A2B7F0122C2
:0E3053007BFF7A06796C7D0F122A2B7F0122FB
:0E3061007BFF7A0679997D0F122A2B7F0122C0
:0E306F007BFF7A0779357D2C122A2B7F0122F8
:0E307D007BFF7A0779617D0D122A2B7F0122DD
:0E308B007BFF7A0679A87D0D122A2B7F012289
:0E3099007BFF7A06797B7D0D122A2B7F0122A8
:0E30A7007BFF7A0679B57D47122A2B7F012226
:0E30B5007BFF7A0779207D15122A2B7F0122DE
:0E30C3007BFF7A08797B7D12122A2B7F012277
:0E30D1007BFF7A0779F87D1D122A2B7F0122E2
:0E30DF007BFF7A0879157D14122A2B7F0122BF
:0E30ED007BFF7A06790E7D1B122A2B7F0122B3
:0E30FB007BFF7A0679297D14122A2B7F012291
:0E3109007BFF7A0779C17D13122A2B7F0122EA
:0E3117007BFF7A0779D47D13122A2B7F0122C9
:0E3125007BFF7A0879297D0F122A2B7F012269
:0E3133007BFF7A0779E77D11122A2B7F01229C
:0E3141007BFF7A0679887D11122A2B7F0122EE
:0E314F007BFF7A0879387D15122A2B7F01222A
:0E315D007BFF7A0879667D15122A2B7F0122EE
:0E316B007BFF7A08794D7D19122A2B7F0122F5
:0E3179007BFF7A08798D7D0E122A2B7F0122B2
:0E3187007BFF7A06793D7D0F122A2B7F0122F5
:0E3195007BFF7A06794C7D11122A2B7F0122D6
:0E31A3007BFF7A07796E7D36122A2B7F012280
:101412001215AB1215ABC2C4C2C4C2C4121553D248
:10142200C4D2C4D2C412155312155B123053EF70DA
:1014320002FF2212155B12308BEF7002FF2212158F
:101442006312301BEF7002FF2212156312307DEF20
:101452007002FF2212156B123117EF7002FF221277
:10146200156B123141EF7002FF221215731230ED2B
:10147200EF7002FF221215731230FBEF7002FF228F
:1014820012157B123125EF7002FF2212157B1231E9
:101492004FEF7002FF2212158312316BEF7002FFC1
:1014A2002212158312315DEF7002FF2212158B1288
:1014B2003053EF7002FF2212158B12308BEF700245
:1014C200FF2212159312301BEF7002FF22121593A6
:1014D20012307DEF7002FF2212159B123117EF704E
:1014E20002FF2212159B123141EF7002FF221215E8
:1014F200A31230EDEF7002FF221215A31230FBEFA0
:101502007002FF221215C4123125EF7002FF22125F
:1015120015C412314FEF7002FF221215CC12316B3B
:10152200EF7002FF221215CC12315DEF7002FF2222
:101532007F647E00122E3C1230C3EF7002FF227FC6
:10154200647E00122E3C123179EF7002FF227F017D
:10155200227F647E00122E3C227F647E00122E3C8B
:10156200227F647E00122E3C227F647E00122E3C7B
:10157200227F647E00122E3C227F647E00122E3C6B
:10158200227F647E00122E3C227F647E00122E3C5B
:10159200227F647E00122E3C227F647E00122E3C4B
:1015A200227F647E00122E3C227F01122D109002B7
:1015B200207401F0FF7E00122E3C7F0A7E00122E64
:1015C2003C227F647E00122E3C227F647E00122E1B
:0215D2003C22B9
:100B4100120D8E120D8EC2C4C2C4C2C4120D06D2C1
:100B5100C4D2C4D2C4120D06120D0E123061EF7050
:100B610002FF22120D0E12308BEF7002FF22120DC6
:100B7100161230A7EF7002FF22120D16123037EF56
:100B81007002FF22120D1E1230B5EF7002FF221209
:100B91000D1E12306FEF7002FF22120D2612307DF2
:100BA100EF7002FF22120D261231A3EF7002FF2215
:100BB100120D2E123045EF7002FF22120D2E12314E
:100BC10009EF7002FF22120D36123133EF7002FF6E
:100BD10022120D361230D1EF7002FF22120D3E1299
:100BE10030DFEF7002FF22120D3E123125EF70024D
:100BF100FF22120D4612314FEF7002FF22120D46F5
:100C010012316BEF7002FF22120D4E12315DEF7047
:100C110002FF22120D4E123061EF7002FF22120DFF
:100C21005612308BEF7002FF22120D561230A7EFD1
:100C31007002FF22120D5E123037EF7002FF221296
:100C41000D5E1230B5EF7002FF22120D6612306F89
:100C5100EF7002FF22120D6612307DEF7002FF224B
:100C6100120D6E1231A3EF7002FF22120D6E1230BF
:100C710045EF7002FF22120D76123109EF7002FF6B
:100C810022120D76123133EF7002FF22120D7E1205
:100C910030D1EF7002FF22120D7E1230DFEF7002B1
:100CA100FF22120D86123125EF7002FF22120D86EE
:100CB10012314FEF7002FF22120DA712316BEF704C
:100CC10002FF22120DA712315DEF7002FF22120DF9
:100CD100AF1230C3EF7002FF22120DAF123179EF64
:100CE1007002FF227F647E00122E3C1230C3EF702F
:100CF10002FF227F647E00122E3C123179EF7002D6
:100D0100FF227F01227F647E00122E3C227F647EBF
:100D110000122E3C227F647E00122E3C227F647ED4
:100D210000122E3C227F647E00122E3C227F647EC4
:100D310000122E3C227F647E00122E3C227F647EB4
:100D410000122E3C227F647E00122E3C227F647EA4
:100D510000122E3C227F647E00122E3C227F647E94
:100D610000122E3C227F647E00122E3C227F647E84
:100D710000122E3C227F647E00122E3C227F647E74
:100D810000122E3C227F647E00122E3C227F011233
:100D91002D109002207401F0FF7E00122E3C7F0A7C
:100DA1007E00122E3C227F647E00122E3C227F6444
:060DB1007E00122E3C2220
:0300000002255086
:0C255000787FE4F6D8FD758159022597CC
:100DB700BB010689828A83E0225002E722BBFE023A
:090DC700E32289828A83E493226D
:100DD000BB010CE58229F582E5833AF583E02250D8
:100DE00006E92582F8E622BBFE06E92582F8E22222
:0D0DF000E58229F582E5833AF583E493223C
:100DFD00BB010689828A83F0225002F722BBFE01D5
:020E0D00F322CE
:100E0F00F8BB010DE58229F582E5833AF583E8F019
:100E1F00225006E92582C8F622BBFE05E92582C8C5
:020E2F00F222AD
:100E3100BC000BBE0029EF8DF084FFADF022E4CCA5
:100E4100F875F008EF2FFFEE33FEEC33FCEE9DEC6E
:100E5100984005FCEE9DFE0FD5F0E9E4CEFD22EDB4
:100E6100F8F5F0EE8420D21CFEADF075F008EF2FFE
:100E7100FFED33FD4007985006D5F0F222C398FDEF
:050E81000FD5F0EA228C
:100E8600C5F0F8A3E028F0C5F0F8E58215827002F7
:060E96001583E038F02294
:100E9C00A3F8E0C5F025F0F0E58215827002158309
:060EAC00E0C838F0E82266
:0D0EB200EF2BFFEE3AFEED39FDEC38FC228F
:100EBF0075F008758200EF2FFFEE33FECD33CDCCEA
:100ECF0033CCC58233C5829BED9AEC99E58298406D
:100EDF000CF582EE9BFEED9AFDEC99FC0FD5F0D64A
:100EEF00E4CEFBE4CDFAE4CCF9A88222B800C1B974
:100EFF000059BA002DEC8BF084CFCECDFCE5F0CBB2
:100F0F00F97818EF2FFFEE33FEED33FDEC33FCEBEA
:100F1F0033FB10D703994004EB99FB0FD8E5E4F9A5
:100F2F00FA227818EF2FFFEE33FEED33FDEC33FC92
:100F3F00C933C910D7059BE99A4007EC9BFCE99A86
:100F4F00F90FD8E0E4C9FAE4CCFB2275F010EF2FCB
:100F5F00FFEE33FEED33FDCC33CCC833C810D707CB
:100F6F009BEC9AE899400AED9BFDEC9AFCE899F806
:0E0F7F000FD5F0DAE4CDFBE4CCFAE4C8F92299
:100F8D00E8600FEFC333FFEE33FEED33FDEC33FCC2
:030F9D00D8F12266
:0C0FA000E0FCA3E0FDA3E0FEA3E0FF22C4
:0C0FAC00E0F8A3E0F9A3E0FAA3E0FB22C8
:0C0FB800ECF0A3EDF0A3EEF0A3EFF022AC
:100FC400A8828583F0D083D082120FDB120FDB124C
:100FD4000FDB120FDBE473E493A3C583C5F0C58371
:100FE400C8C582C8F0A3C583C5F0C583C8C582C877
:010FF40022DA
:100FF500D083D082F8E4937012740193700DA3A38B
:1010050093F8740193F5828883E47374029368609E
:06101500EFA3A3A380DF9E
:10255C00023269E493A3F8E493A34003F68001F2FA
:10256C0008DFF48029E493A3F85407240CC8C33380
:10257C00C4540F4420C8834004F456800146F6DF4F
:10258C00E4800B01020408102040809027DCE47EDC
:10259C00019360BCA3FF543F30E509541FFEE49344
:1025AC00A360010ECF54C025E060A840B8E493A30B
:1025BC00FAE493A3F8E493A3C8C582C8CAC583CA36
:1025CC00F0A3C8C582C8CAC583CADFE9DEE780BEEE
:01284B00008C
:00000001FF
