:06485200011D0001100031
:10000E00D3E54694BEE545940022D3E546946EE5CD
:04001E0045940522DE
:0D63420075A0600000C287125F7DD2872227
:105E76008F4475A0407F017E00125F7DE544540784
:105E8600F51DE51D4510F5807F017E00125F7D75CD
:035E9600A0A022A7
:105E2B008F4475A0407F017E00125F7DE5443333C4
:105E3B00335438F510E510451DF5807F017E0012B7
:065E4B005F7D75A0A0229E
:0659BC008B5B8A5C895D33
:1059C2001229619003B4F09003B37401F09003B311
:1059D200E0FFC39D5020A3E0FEAB5BAA5CA95D8FF4
:1059E2008275830012297AFFEE6F9003B4F0900360
:0B59F200B3E004F080D79003B4E0FFA6
:0159FD002287
:104D66009003ABE0FF900385E4F0A3EFF09003AF70
:104D7600E0FF900387E4F0A3EFF0900385E0FEA345
:104D8600E0FF64014E6006EF64024E7014900385E6
:104D9600E475F00C122A7890038774FFF5F0122A56
:104DA60078900387E0FCA3E0FDAE047802CEC3133F
:104DB600CE13D8F92DFFEC3E900383F0A3EFF090CD
:104DC6000386E02401FF900385E03400FE7C007D2D
:104DD6001A1229DB7D0A1229ED900383EE8FF01259
:104DE6002A789003ACE024FFFFE434FF9003838F1E
:104DF600F0122A7890038374FF75F0DD122A7890FA
:104E06000383E0FEA3E0FF7C007D07122A429003A5
:074E160083ECF0A3EDF0FFB7
:014E1D002272
:10405400E4F545F54643A00FF54575460AE54615D2
:1040640046AC45700215454C700302415012415351
:10407400FF640F60E8EF24F5603A24FE605F14707B
:10408400030241132407600302414D75450175463F
:104094002CE54645456012E5461546700215451265
:1040A4004153640760EB7F042212000E40037F003B
:1040B400227F042275450175462CE546454560126C
:1040C400E54615467002154512415F640B60EB7FAF
:1040D400032212000E40037F00227F032275450550
:1040E400754678E54645456012E546154670021565
:1040F4004512415F640D60EB7F02221200184003F9
:104104007F0022E546454570037F06227F02227523
:104114004505754678E5464545601AE546154670F9
:104124000215457F017E00125F7DE5A0540F640EE9
:1041340060E37F012212001840037F0022E5464518
:0E4144004570037F05227F01227F00227F004D
:10415200227F017E00125F7DE5A0540F227F017E47
:0941620000125F7DE5A0540F225C
:105F7D00EF1FAA0670011E4A6013E4FCFDC3ED94E9
:0D5F8D001CEC940250EA0DBD00010C80F0E8
:015F9A0022E4
:0B637600EF1FAC0670011E4C70F622F9
:10604800202020212100B579B5A521A558C944B340
:0A6058005DB86D2E2E2E2E2E2E2187
:105F9B00F514AE13AF148E13EF22F512AE11AF1230
:0E5FAB008E11EF22F516AE15AF168E15EF22F1
:0E619E007F0A7E00125F7D75BBFF75C1FF2278
:10614F00438901758AFB758CDBD28CD2A9D2AF2221
:10601200759850438920EF6007E4F58BF58D800673
:0B602200758BFD758DFDD28ED2AC2277
:0D634F00759A50759CB8438E1475AF0122ED
:10438B00125F9D54FE125F9B54FD125F9B54FB12F8
:10439B005F9B54F7125F9B54EF125F9B54DF125FCE
:1043AB009B54BF125F9B547FF514125FB1440112F3
:1043BB005FAF4402125FAF54FBF516AE17AF188E0A
:1043CB0017EF54F7F518125FB154FBF516125FA7F0
:1043DB0054FD125FA554FB125FA554F7125FA55451
:1043EB00EF125FA554FE125FA554DF125FA554BFF9
:1043FB00125FA54480F512AE17AF188E17EF547FDE
:10440B00F518AE1BAF1C8E1BEF4410F51CAE19AF8D
:10441B001A8E19EF4410F51AE4900362F0AE19AF3F
:10442B001A8E19EF54EFF51AE49002CDF09002D3E7
:10443B00F09002D5F0FF740C2FF582E43402F58373
:10444B00E4F0746E2FF582E43402F583E4F00FBFD1
:10445B005FE49002F87401F09002EEF0E49002F940
:10446B00F0FF125E76E49002F4F07F01FE125F7DA6
:0E447B00125FB154F7F5167F647E00026342B3
:104ECE007F017E0012615FBFAB0F7F027E00126119
:104EDE005FEF64CD7003024F777F207E0012501477
:104EEE007BFF7A60794EE4FDFF1250AB7BFF7A6058
:104EFE007953E4FD7F011250AB7BFF7A6079487DD8
:104F0E00087F031250AB7D03E4FFFE12525F7D0853
:104F1E007F037E0012525FE4FD7F04FE12525FE4B7
:104F2E00FD7F05FE12525F7D057F067E0012525FE9
:104F3E00E4F544F54543C110E545240AFFE4354444
:104F4E00FE7DFF12525F0545E54570020544C39490
:104F5E002CE544940140DE7DAB7F017E0012525F52
:094F6E007DCD7F027E0012525F2E
:014F77002217
:105D1D0012619EE4FF12601212634F12614F124323
:105D2D008BE4F5A05380F775A0A0125BC61263D764
:105D3D001260C2124ECE7F207E0012501402602DD2
:0663D100125D1D020046F2
:105C770020202021210020202020AB4FA673A6A89A
:105C8700A55C20202020212020202020202020204B
:105C970020202020202020210001020304050607E0
:085CA70008090A0B0C0D0E0F99
:104858004102CD004102D3004102D5004102D800F7
:104868004102D6004102D20041026D004102CF0050
:1048780041020A0141026B004102D1004102D0000D
:104888004102D40041020B004102D70041026C00F2
:044898004102CE000B
:1022A5009003AFEFF0E0C4540F75F00AA4FFE054BB
:1022B5000F2F222FF0E075F00A84C454F0FFE0756B
:1022C500F00A84EF25F0F02290037FE0FF24FBF570
:1022D50082E43402F583E0540FF074FC2FF582E4B8
:1022E5003402F583E0540FF090037FE0FF24FBF503
:1022F50082E43402F583E02274FC2EF582E4340294
:10230500F583E022D3900373E09401900372E09487
:102315000022EFF0E0C4540F7E00540F249FF58295
:10232500EE345CF583E493C454F0FF22AE17AF1886
:10233500EEC4F854F0C8EFC4540F4822900382F05D
:10234500E014F0E09002FDFF75F00A84C454F0FE3D
:10235500EF75F00A84EE25F0F022E0FF04F07476C4
:102365002FF582E43403F5837402F0900375E0FFE2
:1023750004F074762FF582E43403F5832290037418
:10238500E0FF04F0EFC3940522746E251EF582E488
:102395003402F583E004F0746E251EF582E4340200
:1023A500F58322E0FFE4FCFDFE90037B122BAA904F
:1023B500037B022B92AE11AF128E11EF4408F5127A
:1023C500AE11AF128E11EF4402F512AE1BAF1C8E8B
:1023D5001BEF22900370E4F0740BA3F0900372E4FA
:1023E500F0A322E49002F5F0A3F0AE17AF188E1714
:1023F500EF229002FBE0FFA3E0FDA3E0FB9002FFCC
:10240500E0F547A3E0F548A3E0F5492278009003FD
:1024150077122B92122AEDAC00AD01AE02AF03226A
:102425009002FDE09002CDF09002FFE09002D3F023
:10243500900300E09002D5F02290036CE0FF04F0D9
:10244500EFC394052274FA2FF582E43402F583E094
:1024550022FC90037B122BAA900377122B929003F8
:102465007B122B9E122AA4900377022BAA9003724B
:10247500E0A3E0FF2290036EE0640422F0E0C45480
:10248500F0F0E0FF22900370E4F0A322F583E0244E
:10249500D0F074F82FF582E43402F583E022C3907E
:1024A5000373E0940222E0540F905C9F9322900303
:1024B50072E0FEA3E0FFEE229002D1E0240AFFE4E1
:1024C50033FE22F090037FE004F02290037FE024A6
:1024D500F5F582E43402F583E02290036EE06402B0
:1024E500229003AEEFF0E022F514AE15AF168E156F
:1024F500EF22900369E0FF90037FE0FEC39F22A3D4
:10250500E0C39EFF900381F0C374189FF09002FD15
:1025150022900375E0FE04F074762E2290037FE08E
:10252500FF24F9F582E434022274F62FF582E434AF
:1025350002F583E02290036EE0640622AE19AF1A1D
:10254500EEC313EF132224F7F582E43402F583E09A
:1025550022900381E0FFA3E0FEC3EF9E900381F08C
:1025650022900382E0FF900381E02FF0E0D39417DF
:1025750022AE11AF128E11EF22E49002F2F0A3F019
:10258500900370F0A3224410F518E49002D0F09067
:1025950003722290036EE0640322E0547FFFF09003
:1025A5000381E0FEC39F22EF541F9003ABF0E0D3FD
:1025B500941222740C251EF582E43402F58322441C
:1025C50020F518E490036EF0224410F5189003707E
:1025D500E4F022EF5407FF9003AEE06F2204F0AE63
:1025E50019AF1A8E19EF224402F51CE49002D6F0B9
:1025F5002290037FE0FFC32254EFF51CE49003749F
:08260500F022900377022B92F2
:10004600E490036CF090036EF0A3F0A3F0A3F0909D
:100056000372F0A3F07F20FE125014124054900356
:100066006EEFF0900370E07002A3E0603443C110BD
:1000760090036EE0600E1223E84420F5181223EF79
:1000860054F7F518AE17AF18EF7803CEC313CE1397
:10009600D8F930E03D120BE61223EF4420F5188024
:1000A60031AE1BAF1CEF7803CEC313CE13D8F920A5
:1000B600E00343C110AE13AF1412233530E0131220
:1000C6000CBFAE13AF148E13EF54EF1224ED4401A0
:1000D600F51690036EE0B40512900370E07002A36B
:1000E600E06008120BE6E490036EF09003701224B1
:1000F600B66003020AE1EF122BE701280001600156
:1001060001E10B08520C08CC0D03216F03A2700706
:100116004A71094D790A5F7A0A9C7B06778300004B
:100126000AE190036EE064056003020AE1AE17AFD0
:1001360018EF7806CEC313CE13D8F930E003020ABF
:10014600E112257E041223E004F01223E854F7F5A9
:1001560018120C211225C4020AE190036EE0640114
:100166007003020AE11224DF7045900372E0700406
:10017600A3E06401700A900370F0A3740B02068377
:10018600900372E07004A3E06402700A900370F0BA
:10019600A3740C020683900372E07004A3E0640368
:1001A6006003020AE1900370F0A3740D02068390C7
:1001B600036EE0B4030B1223095003020AE1020A9C
:1001C600C512247A6003020AE1C3900373E0940324
:1001D6001223104003020AE1020ADA90036EE0B429
:1001E600010690037002095D1224DF60030202F526
:1001F600900372E07004A3E06401704D900370F008
:10020600A3746F1223EE12258BF0A304F0E4FFFE15
:1002160012615FEF24F4600E24DC60132470601812
:1002260024BD701D801B1223E17402F00208DD124A
:1002360023E17403F00208DD1223E17404F00208DE
:10024600DD1223E104F00208DD900372E07004A3DE
:10025600E0640270541223EF1225CE7470120BC99B
:100266007F061258061222A5F07F05125806900343
:10027600ABEFF0E0D3941240037412F09003AB128C
:1002860022AA120C811222A8120C8B1222A8120C7E
:10029600951222A8120CAA1222A9F07F0312580660
:1002A6001224E65407F0020AE11223E17403122332
:1002B600EE1225CE7471120BC97F037E0012615FA8
:1002C6009002D4EFF0AE19AF1A30E70D8E19EF4455
:1002D60002F51AE0547FF080078E19EF54FDF51AE7
:1002E6007F047E0012615F90020BEFF0020AE1903C
:1002F600036EE0B4030B1223095003020AE1020A5B
:10030600C512247A6003020AE1C3900373E09403E2
:100316001223104003020AE1020ADA90036EE0B4E7
:10032600010C12248A740BF090037202095D1225E7
:100336003A703D1224B3702DEF24FE60121460173C
:1003460014601C2403701E90036D7403F0801690D5
:10035600036D740CF0800E90036D7430F08006907F
:10036600036D74C0F090036DE0FDE4FFFE0209A783
:1003760090036EE0B4030B1223095003020AE10254
:100386000AC512247A6003020AE1C3900373E0945B
:10039600041223104003020AE1020ADA90036EE017
:1003A600B401091223D87402F00208DD90036EE04E
:1003B600B4020302097012253A60030204F39003A3
:1003C600AF1222BA9003AB1222BA9003AC1222BA31
:1003D6009003AD1222BA9003961222BA9003951298
:1003E60022BAE490036CF0120CB7120CB79003AF6C
:1003F600E0FF9003ABE0FD9003ACE0FB9003ADE0C3
:10040600F547900396E0F548900395E0F5491257B5
:10041600B37F017E00125F7D7F061258069003AF00
:10042600E06F600812243E40BE02048C7F0512581D
:1004360006EF541FFF9003ABE06F600812243E40A6
:10044600A602048C7F041258069003ACE06F600786
:1004560012243E4092802F7F021258069003ADE090
:100466006F600A12243E50030203ED80197F0112C9
:100476005806900396E06F600A12243E500302036A
:10048600ED8003120C3B7F061258061222A5F07F60
:10049600051258061225AC40037412F09003AB12F5
:1004A60022AA120C811222A8120C8B1222A8120C5C
:1004B600951222A8120CAA1222A9F0124D66122435
:1004C600E670037407F0E490036CF07F0A7E001276
:1004D6005F7D9003AEE0FF125CAF7F0312580612F9
:1004E60025D8600512243E40E200020AE112259852
:1004F60060030205AE12233130E00B1223095003CC
:10050600020AE1020AC51224B36003020AE1EF12ED
:100516002BE70531010542020555030568040579F7
:100526000505860605970700000AE19003AFE0601F
:100536000280669003AF7463F0020AE19003ABE0B9
:100546006401600280539003AB740CF0020AE190E0
:1005560003ACE06401600280409003AC741FF002BB
:100566000AE19003ADE06002802F9003AD7417F0AE
:10057600020AE1900396E06002801E900396800BCB
:10058600900395E060028011900395743BF0020A97
:10059600E19003AEE064016006E014F0020AE19027
:1005A60003AE7407F0020AE112247A6003020AE13C
:1005B60012233130E012C3900373E0940712231024
:1005C6004003020AE1020ADA1224B36003020AE1D6
:1005D600EF122BE705F301060602061603062604AC
:1005E600063905064C06065F0700000AE19003AFD0
:1005F600E0C394635002806AE49003AFF0020AE11C
:100606009003ABE0C3940C500280579003AB805B21
:100616009003ACE0C3941F500280479003AC804B1C
:100626009003ADE0C3941750028037E49003ADF019
:10063600020AE1900396E0C3943B50028024E490C2
:100646000396F0020AE1900395E0C3943B500280C2
:1006560011E4900395F0020AE19003AEE0C394071B
:100666005006E004F0020AE19003AE7401F0020ABB
:10067600E190036EE0B4010D12248A740D1223E09A
:1006860004F00208DD90036EE0B402030209701262
:10069600253A701890026CE0FD7F057E0012525FCD
:1006A6009002CEE0FD7F067E000209A71225987013
:1006B6004312233130E00B1223095003020AE102F0
:1006C6000AC5900372E07004A3E0640170149002FE
:1006D6006CE0600514F0020AE190026C7418F002F6
:1006E6000AE19002CEE0D3940140030209EF9002A2
:1006F600CE0207E312247A6003020AE112233130A4
:10070600E00E1224A31223104003020AE1020ADAC1
:10071600900372E07004A3E06401701690026CE02E
:10072600C3648094985003020A50E490026CF0026D
:100736000AE19002CEE0C3943B5003020A509002B5
:10074600CE020A5990036EE0B401091223D874034D
:10075600F00208DD90036EE0B40203020970122570
:100766003A70231225419002D430E005E04480809F
:1007760001E0FD7F037E0012525F90020BE0FD7FD9
:10078600047E000209A7122598705812233130E022
:100796000B1223095003020AE1020AC5900372E014
:1007A6007004A3E06401702712254130E011900225
:1007B600D4E0C36480948C4003020AE1020A50909C
:1007C60002D4E0705C1225E24402F51A020AE190B6
:1007D600020BE0600514F0020AE190020B743BF094
:1007E600020AE112247A6003020AE112233130E0A0
:1007F6000E1224A31223104003020AE1020ADA9021
:100806000372E07004A3E06401702D12254130E00C
:10081600169002D4E0700A1225E254FDF51A020A77
:10082600E19002D40209EF9002D4E0C36480948E72
:100836004003020AE1020A5090020BE0C3943B50C7
:1008460003020A50E490020BF0020AE190036EE004
:10085600B4010712248A04020AA81224DF703F900A
:100866000372E07004A3E064017017900370F0A3B4
:1008760074791223EE12258B120C6A7F0A7E00020F
:100886000A3C900372E07004A3E064026003020A6B
:10089600E1900370F0747B1223DF04F0803990033B
:1008A6006EE0B4030B1223095003020AE1020AC5E3
:1008B60012247A6003020AE11224A31223104003D1
:1008C600020AE1020ADA90036EE0B4011412248AE5
:1008D600041223E07403F01224EF4404F516020A0E
:1008E600701224DF703B900372E07004A3E0640191
:1008F6006003020AE1900370F0A374831223EE44AE
:1009060010F518120C067F057E0012615F90026CCE
:10091600EFF07F067E0012615F9002CEEFF0020AD2
:10092600E190036EE0B4030B1223095003020AE1BF
:10093600020AC512247A6003020AE1C312230A409E
:1009460003020AE1020ADA90036EE0B401151224EA
:100956008A740CF0900372E4120C6A1223E104F01C
:10096600020AE190036EE0B4022A1223315401F424
:10097600FFEF5401C4F8540FC868FFE4C454F048AC
:10098600FEAC17AD18ED54EFFDEC4EF517ED4FF537
:1009960018020AE112253A70111224BD9002D0E025
:1009A600FD12525F120C3B020AE1122598704912A1
:1009B600233130E00B1223095003020AE1020AC573
:1009C600900372E07004A3E0640170159002D1E018
:1009D600600414F080069002D1745FF01224BD808A
:1009E600559002D0E064016006E014F0020AE1903E
:1009F60002D07403F0020AE112247A6003020AE1CB
:100A060012233130E00E1224A31223104003020AEF
:100A1600E1020ADA900372E07004A3E06401702137
:100A26009002D1E0C3945F5005E004F08005E490A5
:100A360002D1F01224BD12615F9002D0EFF0020ADB
:100A4600E19002D0E0C394035006E004F0020AE10C
:100A56009002D07401F0020AE190036EE0B4011432
:100A660012248A740C1223E004F07F207E001250B8
:100A760014020AE11224DF606290036EE0B40307F9
:100A86001223094056803812247A704F1224A3127A
:100A960023105047803E90036EE0B4011112248A61
:100AA600740CF0120C061223E17402F0802D12244D
:100AB600DF602890036EE0B4030B122309401C7418
:100AC600FFF5F0801390036EE0B4040F1224A31216
:100AD60023105007E475F001122A78E490036EF0B3
:100AE6009003701224B66003020BBFEF122BE70BC4
:100AF6001D000B2A010B330B0B600C0B3C0D0B4539
:100B06006F0B4E700B57710B69790B727A0B817BE9
:100B16000B788300000BBF1223EF54BFF518122683
:100B26000D020061122472124AF40200611224724C
:100B3600124A180200611224721255CD0200611287
:100B4600247212416B0200611224721216BA02005C
:100B56006112247212427F02006112247212514104
:100B6600020061122472123F210200611263E10247
:100B760000611224721244890200611252E6EF24C7
:100B8600FB60132404702312248A120C9F1223EF95
:100B96004420F518801A12257EF0120C211225C465
:100BA6001223EF4440F51802006112248A120C9FAA
:100BB6001223E17402F0020061E4900370F0A3F0E6
:030BC600020061C9
:100BC900A3F0900372E4F0A304F0AE15AF168E15EE
:100BD900EF4404F5167F207E0012501422E490029F
:100BE900F2F0A3F0900370F0A3F0AE15AF168E15D6
:100BF900EF4404F5167F207E0012501422900372F0
:100C0900E4F0A304F0AE15AF168E15EF4404F51603
:100C19007F207E0012501422AE15AF168E15EF44B8
:100C290004F5167F207E00125014AE17AF188E17E8
:100C3900EF227BFF7A5C797DE4FD7F031250AB7B69
:100C4900FF7A5C79777D087F031250AB7FE87E03DA
:100C5900125F7D7BFF7A5C798EE4FD7F031250ABD6
:100C690022F0A304F0AE15AF168E15EF4404F51665
:100C79007F207E0012501422F07F04125806900340
:100C8900AC22F07F021258069003AD22F07F0112C8
:100C9900580690039622740CF07F207E001250149F
:100CA90022F0E4FF125806EF547F900395227F014A
:060CB9007E00125F7D22A7
:100CBF00E4900374F0900377122BB60000000090BD
:100CCF00037B122BB6000000009002F4E0600302D9
:100CDF0012DA90037FF01224F7500F74FA2E1224B9
:100CEF004D642A60051224C980EC74FB2E1222F485
:100CFF00D39430401674FB2E1222F4C39439500B48
:100D0F0074FB2E1222F424D0F0804074FB2E12229A
:100D1F00F4D39461401674FB2E1222F4C3947A50CC
:100D2F000B74FB2E1222F4249FF0801F74FB2E12E3
:100D3F0022F4D39441401474FB2E1222F4C3945A1C
:100D4F00500974FB2E1222F424BFF01222FDD3940B
:100D5F003040101222FDC3943950081222FD24D0C6
:100D6F00F0802E1222FDD3946140101222FDC39405
:100D7F007A50081222FD249FF080161222FDD39480
:100D8F0041400E1222FDC3945A50061222FD24BF79
:100D9F00F01222CD900381F0E0C454F0F054F0FE35
:100DAF00F074FC2F1223004E900381F09002FBE0B1
:100DBF00900380F090037F7402F0900369E024FCAD
:100DCF001224FB5014A3E0FF74FA2E12244DFEEFF1
:100DDF006E9003801224C880E1900381E0FF90039E
:100DEF0080E06F60030212BC900369E0D39414504B
:100DFF0003020FAFE094504003020FAF9002FAE0EE
:100E0F0064246003020FAFA3E064476003020FAFD7
:100E1F00A3E064506003020FAFA3E06447600302D6
:100E2F000FAFA3E064536003020FAFA3E0645660FB
:100E3F0003020FAFA3E0642C6003020FAF90038097
:100E4F00F090037FF01224F7501974FA2E12244DEC
:100E5F00B42C0B900380E004F0E0640360051224CF
:100E6F00C980E274FB2E1222F4D39430401674FB27
:100E7F002E1222F4C39439500B74FB2E1222F42439
:100E8F00D0F0804074FB2E1222F4D394614016747C
:100E9F00FB2E1222F4C3947A500B74FB2E1222F401
:100EAF00249FF0801F74FB2E1222F4D39441401420
:100EBF0074FB2E1222F4C3945A500974FB2E122283
:100ECF00F424BFF01222FDD3943040101222FDC340
:100EDF00943950081222FD24D0F0802E1222FDD317
:100EEF00946140101222FDC3947A50081222FD24FF
:100EFF009FF080161222FDD39441400E1222FDC3A3
:100F0F00945A50061222FD24BFF01222CD90038175
:100F1F00F074FB2F1222F475F00AA4FF90037FE008
:100F2F0024FC1223002F900381F01223BA1225EC18
:100F3F00900381E09002D7F0D3940C4003740CF02F
:100F4F0075A0209002D7E0122BE70F84000F8601C7
:100F5F000F8B020F90030F95040F9A050F9F060F2B
:100F6F00A4070FA9080FA9090FA90A0FA90B0FA909
:100F7F000C00000FAC80007580FF80217580FC8015
:100F8F001C7580F880177580F080127580E0800DD9
:100F9F007580C080087580808003E4F58075A0A0FF
:100FAF00900369E0D3941450030212BCE0945040B4
:100FBF00030212BC9002FAE0642460030212BCA385
:100FCF00E0644760030212BCA3E0645060030212A6
:100FDF00BCA3E0645260030212BCA3E0644D600343
:100FEF000212BCA3E0644360030212BCA3E0642CB2
:100FFF0060030212BC90037F7407F01225F6940D64
:10100F00501012244AC3943050030212BC1224C948
:10101F0080E9900301E0C3943340030212BCA3E0C4
:10102F00C3943A40030212BCA3E0C39436400302B8
:10103F0012BCA3E0C3943A40030212BCA3E0C394D2
:10104F003640030212BCA3E0C3943A40030212BC21
:10105F0090037F7407F01225F6940D500A12244A5C
:10106F0024D01224C880EF900301E09002FF1224D5
:10107F0081900302E0FEEF4E9002FF1222A990032F
:10108F0081F0900303E0900300122481900304E0A9
:10109F00FEEF4E900300F0900305E0900301122441
:1010AF0081900306E0FEEF4E900301F0E490038081
:1010BF00F0900369E090037FF090037FE0FFD394FB
:1010CF0007401C12244AB42C06900380E004F090D1
:1010DF000380E06403600890037FE014F080DA126D
:1010EF002521F583E0C3943050030212BC122497DC
:1010FF00C3943050030212BC90037FE012254BC300
:10110F00943050030212BC12252EC39430500302A8
:10111F0012BC1224D0C3943050030212BC74F42FAB
:10112F00F582E43402F583E0C3943050030212BC1D
:10113F0012252112249124D0F074F72F12254D245B
:10114F00D0F012252E24D0F074F52F1224D624D0EF
:10115F00F074F42FF582E434021224919002FB1202
:10116F00248190037FE0FE122526F583E0FDEF4DED
:10117F009002FBF074F62E1225319002FC1224819E
:10118F0090037FE0FE12254BFDEF4D9002FCF074B3
:10119F00F42EF582E43402F583E09002FD122481EF
:1011AF001224D0FEEF4E9002FD12168030E715127A
:1011BF00259F500B1225041222AA122341801D12C3
:1011CF00255680181225664013E024E8F09002FDA2
:1011DF001222AA900382F0E004122347900381E0C9
:1011EF009002FF12234C124D661224E6700374070F
:1011FF00F09003AEE0FF125CAF90026DE064A06070
:10120F00030212BC1223D01225FD1223F71257B37B
:10121F00121664600812238240F002125F12168EBB
:10122F00600712238240E38027121699600712236A
:10123F008240D7801B1216A4600712238240CB80F6
:10124F000F1216AF600712238240BF8003122425AE
:10125F007F061258061222A5121656E0D39412409A
:10126F00037412F09003AB1222AA1216761222A860
:10127F00F0124D661224E670037407F0E4900374C5
:10128F00F07F0A7E00125F7D9003AEE0FF125CAF2D
:10129F007F031258061225D8600512238240E20000
:1012AF007F017E00125F7D1223BA1225EC1224EF0C
:1012BF0054F7F5167F0A7E00125F7DE4FF125E760B
:1012CF00E49002F4F07F01FE0215FA9002F4E0645C
:1012DF000160030215FDAE19AF1AEF7802CEC313EA
:1012EF00CE13D8F920E0030215EC900322E0FF9013
:1012FF00031AE06F60030215EC900323E0FF9003E5
:10130F001BE06F60030215EC900324E0FF90031CB9
:10131F00E06F60030215EC900325E0FF90031DE0E2
:10132F006F60030215EC9003221223A87818122B7A
:10133F007F1223AEE4FFFEFDEC1223AE12246C905D
:10134F0003231223A87810122B7F1223AEE4FFFE83
:10135F00E41224569003241223A87808122B7F122C
:10136F0023AEE4FFE4FD122456900377122B9E90D8
:10137F000325E0FFE4FCFDFE122469122607E42F8B
:10138F00FFEE34A3FEED3402FDE43CFC12246C7B33
:10139F003E7A8579E17801122607122AEDEF249C17
:1013AF00FFEE34FF900375F0A3EFF09002FB1223D2
:1013BF00189002FB1224AB9002FB1222B87B3E7AEC
:1013CF008579E178011224137B6F7A2079287800D0
:1013DF00122AEDEF049002FC1223189002FC122443
:1013EF00AB9002FC1222B87B6F7A2079281224115D
:1013FF007B807A5179017800122AED9002FD122339
:10140F00179002FD1224AB2F9002FD1222B97B80A0
:10141F007A517901122411E47B107A0EF9F8122A0D
:10142F00ED9002FF1223179002FF1224AB2F9002B0
:10143F00FF1222B9E47B107A0EF9F8122413E47B21
:10144F003CFAF9F8122AED900300122317900300CB
:10145F001224AB2F9003001222B9E47B3CFAF9F867
:10146F00122607122AED900301EB122318900301A5
:10147F001224AB2F9003011222B9900365E0D3948D
:10148F00324006900301E004F01225764410122337
:10149F00C34401F51CE49002D8F0900374F0AE1130
:1014AF00AF12EF30E0437F061258069003AFEF12F2
:1014BF0016567F041258069003ACEFF07F021258B5
:1014CF00069003ADEFF07F01125806900396EFF0F0
:1014DF00E4FF125806EF547F900395F0E0FF90035E
:1014EF0001E0C39F50030215A49002FF1222AA909D
:1014FF00038112168030E71512259F500B12250419
:10150F001222AA122341801D122556801812256619
:10151F004013E024E8F09002FD1222AA900382F01B
:10152F00E004122347900381E0FF75F00A84C4544E
:10153F00F0FEEF75F00A84EE25F09002FFF09002B6
:10154F006DE064A160030215EA1223D01225FD128B
:10155F0023F71257B3121664600812238240F00269
:10156F0015A412168E600712238240E380271216ED
:10157F0099600712238240D7801B1216A4600712AE
:10158F00238240CB800F1216AF600712238240BF19
:10159F0080031224257F061258061222A5F07F051C
:1015AF001258061225AC40037412F09003AB1222AE
:1015BF00AA1216761222A8F0124D661224E67003B4
:1015CF007407F09003AEE0FF125CAF900374E0C3BA
:1015DF00940550071225764401F51200007F011281
:1015EF005E769002F47401F0FF7E00025F7D900240
:1015FF00F4E06402705090037FF01225F6940850C7
:10160F000A12244A24E01224C880EF1225764404DB
:10161F00F51290026DE064A2702B1223D054EFF5F7
:10162F001C9002FEE0FF125CAF1223F71257B312A9
:10163F0024251223D04404F51C1225764402F512FA
:06164F00E49002D2F0005D
:1016550022F07F05125806EF541F9003ABF0227F4E
:10166500017E00125F7D7F061258069002FBE06F37
:1016750022F07F041258069003AC22F07F037E000F
:1016850012615F900382EFF0227F051258069002E7
:10169500FCE06F227F041258069002FDE06F227F66
:1016A500021258069002FFE06F227F011258069041
:0516B5000300E06F22BC
:1035D600E4900375F0051EE51EC3945F4003E4F511
:1035E6001EE4900376F0E51E1224C112615F90037B
:1035F60075EFF024FE602204703B900377E4F0A39D
:103606007432F0900376E0FF125E2B7F021237923F
:103616007F027E00125F7D80249003777401F0A301
:10362600742CF09003767406F0AF1E12575C7F641C
:103636001237928008900377E4F0A304F0900377A2
:10364600E07002A3E0700302377490037774FFF50D
:10365600F0122A787F017E00125F7D900375E024C8
:10366600FE606F0470D7AE13AF14EF7805CEC313A8
:10367600CE13D8F930E0C6AE13AF148E13EF54DF75
:103686001224ED4402F5169002D9E0B4A5AFA3E0EA
:10369600B45AAAA3E0B4A5A5A3E0645A709FA3E018
:1036A60064A57099A3E0645A7093A3E064A5708D35
:1036B600A3E0645A7087A3E0F47082A3E0B51E030A
:1036C60002375D12238EE0C3940350030237910242
:1036D600378C75470075480075490C7B017A02796D
:1036E600D9124F78EF70030236439002D9E0640294
:1036F6006003023643A3E064A56003023643A3E0F9
:10370600645A6003023643A3E064A56003023643AD
:10371600A3E0645A6003023643A3E064A560030293
:103726003643A3E0645A6003023643A3E064A5600F
:1037360003023643A3E0645A6003023643A3E0F46F
:1037460060030236439002E4E064036003023643FA
:103756009002E3E0B51E0C12239CE4F01225B87427
:1037660001F02212238EE0C39403401F80189003B9
:1037760076E004F0E0C3940650030235EC12238E83
:0B378600E0C3940340051225B8E4F0F6
:0C379100227E00125F7DAF1E12575C22EA
:104CA500E4900375F012235F7420F07F06124D43E4
:104CB500EFF07F05124D43EFF07F04124D5812239C
:104CC5007AEFF07F031258061224E65407F0E0FF4E
:104CD50012251612237AEFF07F02124D5812237A0D
:104CE500EFF07F0112580612251612237AEFF0E431
:104CF500FF125806EF547FFF12251612237AEFF0A4
:104D0500900375E0247612237AE00412236F740170
:104D1500F090037512235F7403F07B017A037976B3
:104D25007D0C125A407F647E00125F7D7B017A0301
:0E4D350079767D0C125FD77F647E00025F7D71
:104D4300125806900375E0FE04F074762EF582E4A3
:104D53003403F58322125806900375E0FE04F074C1
:034D6300762E2287
:105E510090020AE024FE600D14600D14600D1460C0
:105E61000D2404800C025639025934025C3D026053
:055E7100F012536B224A
:10612D00900375E0FFC3941022900374F0E4A3F084
:01613D00223F
:045014008E468F47EE
:10501800E4F5A0748012613612612D5005125077A4
:1050280080F6E4900375F0748812613612612D5091
:105038000512507780F6E4900375F090037474902D
:10504800F0E4A3F012612D500512509180F6E4901F
:105058000375F09003747498F0E4A3F012612D5076
:0E5068000512509180F6E4900375F075A0A03B
:1050760022900374E02FFF12395F7F20123AD97F06
:1050860020123AD9900375E004F022900374E02FC1
:10509600FF12395F7F20123AD97F20123AD9900346
:0550A60075E004F0229A
:105DAA008D1FE4F5A012395FE51F75F00A842430CF
:105DBA00FF123AD9E51F75F00A84E5F02430FF1284
:0B5DCA003AD97F3A123AD975A0A02206
:0A50AB008F468D478B488A49894AD9
:1050B500E4F5A07F01FE125F7DE546D3940340032E
:1050C500754603E547D394084003754708E546143C
:1050D50060101460131460162403701AE5472480C9
:1050E5008010E5472488800AE54724908004E54739
:1050F500249890038FF090038FE02547F0E0FF128E
:10510500395F8024AB48AA49A94A12296190038EC8
:10511500F06421601C7401254AF54AE43549F549D6
:1051250090038EE0FF123AD97F017E00125F7D80E9
:0B513500D37F017E00125F7D75A0A0FB
:01514000224C
:105BC600E4F5A07F0AFE125F7D125BF2125BF27FA4
:105BD6000C125BFB7F01125BFB7F0612395F125DC5
:105BE6007C7F207E0012501475A0A0227F301239CF
:0C5BF6005F125D7C2212395F125D7C2280
:105D7C00E490036CF0E490036DF0E490036EF0900B
:105D8C00036EE004F0E0B433F690036DE004F0E051
:0D5D9C00B440E790036CE004F0E0B403D8DD
:015DA90022D7
:0100220022BB
:0A63A2007F3012395F7F0802395F77
:0A63AC007F3612395F7F3002395F3F
:0A63B6007F3412395F7F3002395F37
:1056A200E49003B6F01256FA9003B51256E7C2829E
:1056B2001256F21256FA001256F29003B61256E73A
:1056C200C2829003B5E054F0FFF0A3E0C4540FF09F
:1056D200540FF04F9003B5F07F017E001263769075
:0456E20003B5E0FF2D
:1056E60022E580F07F017E00126376227F017E0034
:0E56F600126376221254E5D280D281D2822233
:023AD9008F4B11
:103ADB00E4900390F01254E5E54B54F0900390F012
:103AEB00122BE73B22003B26103B2C203B32303B7A
:103AFB003C403B40503B46603B4C703B56803B5AF6
:103B0B00903B60A03B66B03B70C03B74D03B7AE00F
:103B1B003B80F000003B88C2848002D284C2858047
:103B2B000AC284D2858004D284D285C286C28780A1
:103B3B004CC2848002D284C285800AC284D2858022
:103B4B0004D284D285D286C2878032C2848002D2CC
:103B5B0084C285800AC284D2858004D284D285C275
:103B6B0086D2878018C2848002D284C285800AC222
:103B7B0084D2858004D284D285D286D287123C43EC
:103B8B00C2827F147E00126376E54BC454F090031F
:103B9B0090F054F0F0122BE73BD7003BDB103BE1EE
:103BAB00203BE7303BF1403BF5503BFB603C017069
:103BBB003C0B803C0F903C15A03C1BB03C25C03C03
:103BCB0029D03C2FE03C35F000003C3DC284800204
:103BDB00D284C285800AC284D2858004D284D285E5
:103BEB00C286C287804CC2848002D284C285800A7E
:103BFB00C284D2858004D284D285D286C287803299
:103C0B00C2848002D284C285800AC284D285800499
:103C1B00D284D285C286D2878018C2848002D28495
:103C2B00C285800AC284D2858004D284D285D28692
:073C3B00D287123C43C28254
:0F3C420022D280C281D2827F147E00126376224A
:02395F008F4B8C
:10396100E4900390F01254E5E54B54F0900390F08D
:10397100122BE739AC0039B01039A82039B63039EB
:10398100C04039C45039CA6039D07039DA8039DE63
:103991009039E4A039EAB039F4C039F8D039FEE001
:1039A1003A04F000003A0CC284800CC2848002D236
:1039B10084C2858004D284D285C286C287804CC2EB
:1039C100848002D284C285800AC284D2858004D2D6
:1039D10084D285D286C2878032C2848002D284C2D8
:1039E10085800AC284D2858004D284D285C286D2DF
:1039F100878018C2848002D284C285800AC284D2A0
:103A0100858004D284D285D286D2877F017E00123E
:103A11006376123ACBC2827F017E00126376E54B58
:103A2100C454F0900390F0122BE73A5F003A631010
:103A31003A69203A6F303A79403A7D503A83603A98
:103A410089703A93803A97903A9DA03AA3B03AADE3
:103A5100C03AB1D03AB7E03ABDF000003AC5C284ED
:103A61008002D284C285800AC284D2858004D28435
:103A7100D285C286C287804CC2848002D284C2852C
:103A8100800AC284D2858004D284D285D286C2873C
:103A91008032C2848002D284C285800AC284D285E7
:103AA1008004D284D285C286D2878018C2848002E3
:103AB100D284C285800AC284D2858004D284D28510
:093AC100D286D287123ACBC282F0
:0F3ACA0022C280C281D2827F017E0012637622E7
:1054E500E4900392F0A3F0900391F01255419003DC
:1054F50092125552C28200007F017E00126376121D
:105505005541900393125552C2820000900393E0D7
:10551500C4540FF0540FFFF0900392E054F0F04F95
:10552500F07F017E00126376900392E030E70C90E5
:0B5535000391E004F0E0C3941440B0C8
:10554000227580F0C280D281D2827F017E001263F8
:0D5550007622E580F07F017E001263762256
:104678002020A46CC4C1B373BD75AAACBA41202074
:1046880021B3C9B9A62020202020202020202020C6
:10469800202100CAA7B0DC202020202020202020B4
:1046A8002020202100B3F5CABCBBAF2E2E2E2E2E03
:1046B8002E202020202100D3B2CCE5B0E6B1BE3AAE
:1046C8002056312E3020202100C8EDCCE5B0E6B1CF
:1046D800BE3A2056312E3020202100BCECB2E24EEA
:1046E80054502E2E2E2E2E2E2020202100BCECB22F
:1046F800E24750532E2E2E2E2E2E2020202100BC95
:10470800ECB2E2434F4D2E2E2E2E2E2E20202021AD
:1047180000202020202020C5E4D6C32020202020EF
:1047280020210020312ED7D3D6D3B9DCC0ED2020EC
:10473800202020210020322ECAB1BCE4D4B420208D
:10474800202020202021002000200020002020A45C
:0E47580040A447A454A57CA4ADA4BBA4E921B1
:103C5100900379E0FF04F0747A2FF582E43403F5E0
:103C6100837420F0900379E0FF04F0747A2FF582D9
:103C7100E43403F5837420F0900379E0FF04F074D9
:103C81007A2FF582E43403F583229003AFEFF0E05D
:103C9100C4540F2430FF900394E0FE04F074972E77
:103CA100F582E43403F583EFF09003AFE0540F2481
:103CB10030FF900394E0FE04F074972EF582E43413
:103CC10003F583EFF022E4900394F0E0FF04F07435
:103CD100972FF582E43403F5837432F0900394E076
:103CE100FF04F074972FF582E43403F58322E0C4D6
:103CF100540F2430FF900379E0FE04F0747A2E22F1
:103D01007421F07B017A03797AE4FD22AE11AF12BE
:103D1100EEC4F854F0C8EFC4540F482275A0607B7C
:103D2100017A03799722900375E0FAA3E0FB7C0006
:103D3100FFAE020229ED9003AEEFF0E05407F0E090
:103D410022AE19AF1AEF780722D2C17F017E00227D
:103D51009003ABEFF0E0229003ACEFF0E022E545F9
:103D6100240AFEE433900374F0A3CEF022C2C17F93
:103D7100017E0022FE7C007D0A0229ED740C25459E
:103D8100F582E43402F583E022AE11AF12EF78033D
:103D910022AE11AF12EF780222900375EEF0A3EF7D
:103DA10022AE17AF188E17EF22E0241054F0F02244
:103DB1009003ADEFF0E022900396EFF0E0227C005B
:073DC100AF03AE020229ED81
:1060AB00D2C0123D4A126376C2C07F017E001263DA
:0760BB0076123D6E026376D0
:10613E00C2C0123D4A126376D2C07F017E00026356
:01614E0076DA
:105F1F00A20092C0125F31126376D2C1125F3102BA
:105F2F0063767F0A7E00126376C2C17F0A7E0022EB
:0F618F00123D4A126376A2C0123D6E1263762251
:025704008F4CC8
:10570600E4F54EAE19AF1A8E19EF547FF51AE4F58B
:105716004DE54C25E0F54C92C0123D4A12637612D7
:105726003D6E126376054DE54DC3940840E3126164
:105736008F5020AF4E054EEF941E400EAE19AF1A95
:105746008E19EF4480F51AC2C0227F017E001263D3
:055756007680DBC2C0FB
:01575B00222B
:105D4D00E4F548D2C0F547E54825E0F548123D4A4F
:105D5D00126376A2C0E4334248123D6E126376059B
:0E5D6D0047E547C3940840DFC2C1C2C0AF483B
:015D7B002205
:045858008F4A8D4B9B
:10585C00C2AF1260AB7FDE125704123D42CEC313AF
:10586C00CE13D8F920E0EBAF4B125704123D42CEC9
:10587C00C313CE13D8F920E0D9AF4A125704123D06
:10588C0042CEC313CE13D8F920E0C712613ED2AF7B
:07589C007F057E00025F7D25
:025806008F45CC
:10580800C2AF1260AB7FDE125704123D42CEC31303
:10581800CE13D8F920E0EBAF45125704123D42CE23
:10582800C313CE13D8F920E0D91260AB7FDF12572B
:1058380004123D42CEC313CE13D8F920E0C4125D42
:0F5848004D8F46D200125F1F12613ED2AFAF46A6
:01585700222E
:025CAF008F4420
:105CB1007F03125806900383EFF07D077F4012584F
:105CC100587F017E00125F7DE544900383B4FF0598
:105CD100E044088008E054F8F044084544FFF07DB2
:045CE10003125858FA
:015CE500229C
:1057B3008D458B467D061257F07D05AF451257F098
:1057C3007D04AF461257FB7D02AF471257FB7D01A5
:1057D300AF481258587F0A7E00125F7DE549448026
:1057E300FFE4FD1258587F0A7E00025F7D1258586D
:1057F3007F0A7E00125F7D221258587F0A7E0012B4
:035803005F7D22A4
:105F3F009003AFE0B49903E4F0229003AFE0540F65
:0F5F4F00FFBF0904123DAA229003AFE004F02225
:105EBC009003ABE024EE600B2409700E9003AB74DE
:105ECC0010F0229003AB7401F0229003ABE004F0CD
:015EDC0022A3
:105CE6009003ACE024F7601324F0601624F06019EA
:105CF60024F8701C9003AC7401F0229003AC74106D
:105D0600F0229003AC7420F0229003AC7430F022A1
:075D16009003ACE004F02251
:105DD5009003ADE024F7601524F0600A24F67014F2
:105DE500E49003ADF0229003AD7420F0229003AD52
:0B5DF5007410F0229003ADE004F022D7
:105F5E00900396E0B45903E4F022900396E0540FB8
:0F5F6E00FFBF0904123DAA22900396E004F0221F
:105E9900900395E0547FF0E0B45903E4F0229003B5
:105EA90095E0540FFFBF0904123DAA22900395E023
:035EB90004F022D0
:0563D7007FFF025CAF36
:101AF200E4900375F0A3F0A3F0A3F0A3F0123C7CF2
:101B02007432123C787430F07F061258069003AF9C
:101B1200EFF0123CEF123C83EFF09003AFE0123C87
:101B2200F1123C83EFF0123C7974A6123C78747E79
:101B3200123C647420F07F05125806123D51D39472
:101B42001240037412F09003AB123CEF123C83EF8D
:101B5200F09003ABE0123CF1123C83EFF0123C79BF
:101B620074A4123C7874EBF07F04125806123D58AC
:101B7200D3943140037431F09003AC123CEF123C29
:101B820083EFF09003ACE0123CF1123C83EFF012D1
:101B92003C7974A4123C7874E9123C78123D01FF3E
:101BA2001250ABE4900379F0AE11AF12EEC313EF13
:101BB2001330E008123C7C742BF08006123C7974DE
:101BC20020F07F02125806123DB1D39423400374D1
:101BD20023F09003AD123CEF123C83EFF09003AD83
:101BE200E0123CF1123C83EFF0123C79743AF07F40
:101BF20001125806123DB8D3945940037459F0901B
:101C02000396123CEF123C83EFF0900396E0123CF5
:101C1200F1123C83EFF0123C79743AF0E4FF12586F
:101C220006EF547F900395F0E0D394594003745922
:101C3200F0900395123CEF123C83EFF0900395E095
:101C4200123CF1123C83EFF0123C6574AC123C780A
:101C52007450123C7874B4123C7874C1F07F031251
:101C62005806123D3725E0F0E090475593123CF5B7
:101C7200123C83EFF09003AEE090475693123CF58E
:101C8200123C83EFF0123C79123D017F021250ABFD
:101C9200E4900379F0123D0D30E00F90026DE0B454
:101CA200A108123C797420F08006123C79745BF032
:101CB200123D0D90037930E012123C7C744E123CBE
:101CC200787454123C787450F08006123C5474209C
:101CD200F0123D0D30E00F90026DE0B4A108123C0D
:101CE200797420F08006123C79745DF0123D8ACE40
:101CF200C313CE13D8F930E00F90026DE0B4A00800
:101D0200123C797420F08006123C79745BF0123D2B
:101D12008ACEC313CE13D8F990037930E035123C42
:101D22007C7447F09002D7E0FF75F00A842430FEFD
:101D3200900379E0FD04F0747A2D123C83EEF0EF0B
:101D420075F00A84E5F02430FF123CF6123C83EF72
:101D5200F08006123C547420F0123D8ACEC313CE9A
:101D620013D8F930E00F90026DE0B4A008123C796C
:101D72007420F08006123C79745DF0123D92CEC35D
:101D820013CE13D8F930E00F90026DE0B4A208121E
:101D92003C797420F08006123C79745BF0123D921B
:101DA200CEC313CE13D8F990037930E012123C7CE3
:101DB2007443123C78744F123C78744DF0800612D2
:101DC2003C547420F0123D92CEC313CE13D8F93096
:101DD200E00F90026DE0B4A208123C797420F0800A
:101DE20006123C79745DF0123C65123D017F0312CC
:101DF20050AB124BCD123D9AF0E4900379F0EFF420
:101E02007002EEF460307D64123D27EF2430FF1241
:101E12003CF6123C83EFF07D64123DBF7E007F0AE8
:101E2200CFCDCFCECCCE1229EDEF2430FF123CF62F
:101E3200123C83EF800A123C797421123C787420A0
:101E4200123C787425123C787452123C787448F033
:101E5200123C517420F0124937123D9AF0F470028C
:101E6200EEF47003021EEE900375E0FEA3E0FFA302
:101E7200EEF0A3EFF0C394C8EE94005014C374C8FC
:101E82009FFFE49E123D75123D9A123C64742D80B0
:101E920019900376E02438FF900375E034FF123D79
:101EA20075EEF0A3EF123C647420F07D0A123D2718
:101EB200EF2430FF123CF6123C83EFF07D0A123D14
:101EC200BFED2430FF123CF6123C83EF123C7874D3
:101ED2002EF0900377E0FEA3E0FF123D76ED243072
:101EE200FFA3123CF9123C83EFF0800E123C511218
:101EF2003C627421123C787420F0123C7974A21274
:0F1F02003C78744A123C78123D017F010250ABCB
:021F11008F45FA
:101F1300E4900374F0A3F0A3F07BFF7A467978FD95
:101F2300FF1250ABE4F5A07F90122172123D5F12B5
:101F33003D7D601E122136BF01047F5280081221AD
:101F430036BF02097F46123AD97F4F801E12221BE9
:101F53008019122142BF0105122269800E1221420B
:101F6300BF0205122271800312221B123AD91221D9
:101F7300A67F88122172123D7D601E12214EBF0181
:101F8300047F52800812214EBF02097F46123AD9BC
:101F93007F4F801E122239801912215ABF01051268
:101FA3002269800E12215ABF020512227180031288
:101FB3002239123AD91221A67F9812395F1221DEF3
:101FC300601E122166BF01047F528008122166BF82
:101FD30002097F46123AD97F4F801E12224D801983
:101FE30012219ABF0105122281800E12219ABF028B
:101FF30005122289800312224D123AD97F5D123ACB
:10200300D9122255123AD90545123D5F7F94122009
:10201300FD601E1221C6BF01047F5280081221C633
:10202300BF02097F46123AD97F4F801E1222558084
:10203300191221D2BF0105122281800E1221D2BFB3
:1020430002051222898003122279123AD91222231D
:102053007F8C1220FD601E12220FBF01047F52806D
:102063000812220FBF02097F46123AD97F4F8026FA
:102073001222798021122241BF01097F52123AD9DB
:102083007F588012122241BF02097F46123AD97F3C
:10209300588003122291123AD91222237F9C1239BB
:1020A3005F7F20123AD91221DE601E12225DBF012A
:1020B300047F52800812225DBF02097F46123AD97B
:1020C3007F4F802A1222918025122299BF01097F16
:1020D30052123AD97F588016122299BF02097F46BD
:1020E300123AD97F5880077F20123AD97F20123ABB
:0920F300D97F5D123AD975A0A055
:1020FC002212395F7F20123AD9E54575F00A842403
:10210C0030FF123AD9E54575F00A84E5F02430FF2A
:10211C00123AD97F3A123AD97F5B123AD9740C250C
:10212C0045F582E43402F583E022900374E0FEA3CB
:10213C00E0FF12615F22900374E0FEA3E0FF1261E6
:10214C005F22900374E0FEA3E0FF12615F22900314
:10215C0074E0FEA3E0FF12615F22900374E0FEA323
:10216C00E0FF12615F2212395FE54575F00A8424A5
:10217C0030FF123AD9E54575F00A84E5F02430FFBA
:10218C00123AD97F3A123AD97F5B123AD92290038C
:10219C0074E0FEA3E0FF12615F227F5D123AD97FEB
:1021AC0020123AD97F20123AD90545E545240AFE7A
:1021BC00E433900374F0A3CEF022900374E0FEA3FA
:1021CC00E0FF12615F22900374E0FEA3E0FF126156
:1021DC005F22E54575F00A842430FF123AD9E545B3
:1021EC0075F00A84E5F02430FF123AD97F3A123A9E
:1021FC00D97F5B123AD9740C2545F582E43402F58B
:10220C0083E022900374E0FEA3E0FF12615F227F63
:10221C0020123AD97F20227F5D123AD90545E54537
:10222C00240AFEE433900374F0A3CEF0227F201234
:10223C003AD97F2022900374E0FEA3E0FF12615F85
:10224C00227F20123AD97F20227F20123AD97F2078
:10225C0022900374E0FEA3E0FF12615F227F521212
:10226C003AD97F58227F46123AD97F58227F2012C2
:10227C003AD97F20227F52123AD97F58227F4612B8
:10228C003AD97F58227F20123AD97F2022900374AA
:09229C00E0FEA3E0FF12615F22E5
:1052E600E4F544FDAF44121F11124054AD07ED60C2
:1052F6000EE49002F5F0A3F0123DA254F7F518AEB5
:1053060017AF18EF7803CEC313CE13D8F930E002E7
:105316008019ED24FD601E14602B14600E240470A9
:10532600C3123DA254DFF5187F0122123DA254DFBD
:10533600F5187F052274062544F544C3945F40178B
:10534600E4F5448012E544C39406400874FA254403
:10535600F544800375445AAE11AF128E11EF4440E6
:05536600F5120252EAFD
:10536B00123CC77430F07F06125806123C8B7F0537
:10537B00125806123D51C4123CAE9003AB123CAD19
:10538B007F04125806123D58C4123CAE9003AC1267
:10539B003CAD7F03125806123D37123CB27F02120E
:1053AB005806123DB1C4123CAE9003AD123CAD7F1A
:1053BB0001125806123DB8C4123CAE900396123C33
:1053CB00ADE4FF125806EF547F900395F0E0C41242
:1053DB003CAE900395123CAD123D1D7D0F025469FE
:10563900123CC77430F07F06125806123C8B7F0566
:10564900125806123D51C4123CAE9003AB123CAD48
:105659007F04125806123D58C4123CAE9003AC1296
:105669003CAD7F03125806123D37123CB27F02123D
:105679005806123DB1C4123CAE9003AD123CAD7F49
:1056890001125806123DB8C4123CAE900396123C62
:09569900AD123D1D7D0D025469A6
:10593400123CC77430F07F06125806123C8B7F0568
:10594400125806123D51C4123CAE9003AB123CAD4A
:105954007F04125806123D58C4123CAE9003AC1298
:105964003CAD7F03125806123D37123CB0123D1D68
:055974007D09025469E9
:105C3D00123CC77430F07F06125806123C8B7F055C
:105C4D00125806123D51C4123CAE9003AB123CAD3E
:105C5D007F04125806123D58C4123CAE9003AC128C
:0A5C6D003CAD123D1D7D0802546994
:1060F000123CC77430F07F06125806123C8B123DDA
:066100001D7D040254693C
:10489C004202EF0000410362004102F4004103694F
:1048AC00004102F1004202F20000420363000041A9
:1048BC00035B00410361004103600041035D004163
:1048CC0003660041035F004102F7004203670000EA
:1048DC004102EE014102F8014102F90042036A0073
:1048EC000041034A00410365004202F50000410308
:1048FC005C0041035E004102ED004203590000429E
:04490C00035700004D
:10555D00AE13AF148E13EF54F7F514900361E4F00E
:10556D00AE13AF148E13EF224410F514AE15AF1613
:10557D008E15EF22900369E0FF04F074FA2FF58287
:10558D00E43402F583229002F2E4F0A3F0AE1BAFF7
:10559D001C8E1BEF2274A5F0A3745AF0A374A5F012
:1055AD00A3745AF0A322E475F001122A8EFED3E5FE
:1055BD00F022E0FF04F0EFC322E0FF04F0EFD3226E
:0859FE008B448A4589468D4760
:105A06007F017E00125F7DE4F548E548C395475067
:105A160017AB44AA45A94685488275830012297AA0
:105A2600FF120026054880E2AE13AF14EF7806CECB
:095A3600C313CE13D8F920E0EFF0
:015A3F002244
:085A40008B448A4589468D471D
:105A48007F017E00125F7DE4F548E548C395475025
:105A580017AB44AA45A94685488275830012297A5E
:105A6800FF125FF5054880E2AE13AF14EF7807CE5A
:095A7800C313CE13D8F920E0EFAE
:015A81002202
:10002600AD07AE13AF14EF7806CEC313CE13D8F9CF
:0D00360020E0EF12556D4440F5148D992225
:105FF500AD07AE13AF14EF7807CEC313CE13D8F9A0
:0D60050020E0EF12556D4480F5148D9B22B4
:02575C008F4478
:10575E007F017E00125F7D9002D97402F0A3125574
:10576E00A21255A274FFF0A3E544F0A37403F07BDC
:10577E00017A0279D97D0C125FD77F017E00125F0C
:10578E007DE4900379F0900379E0FFC3940C5014FC
:10579E0074D92FF582E43402F583E4F0900379E0B6
:0457AE0004F080E2A1
:0157B20022D4
:03002300023DC8D3
:103DC800C0E0C083C082C0D075D000C000C005C0AC
:033DD80006C0071B
:103DDB00C2AF209803023F02C298AD9990035BE4F7
:103DEB00F0AE15AF16EF20E003023F029002F4E0B5
:103DFB007059BD2422AE15AF16EF7803CEC313CE88
:103E0B0013D8F920E0111255794408F5169003697F
:103E1B0012556B4401F514AE15AF16EF7803CEC3F4
:103E2B0013CE13D8F920E003023F02125581EDF0B7
:103E3B00640D6003023F02900369E024FA12558B74
:103E4B00E4F012557954F7F516801F9002F4E064F4
:103E5B0001702B12556D4401F514125581EDF09044
:103E6B000369E064306003023F0212556D54FEF5A6
:103E7B001412556D12557554FEF516023F02900241
:103E8B00F4E064027071AE13AF14EF7802CEC3137B
:103E9B00CE13D8F930E04A125581EDF0900369E06A
:103EAB00640B7053E024F9F582E43402F583E0AE41
:103EBB0013AF14B4030C8E13EF12557554FEF51695
:103ECB00800C8E13EF54EF1255774401F5161255F3
:103EDB006D54FBF51490035B12556B54FEF5148077
:103EEB0016BD021312556D4401F51412556D4404A1
:103EFB00F514900369E4F0309909C29912556D5489
:053F0B00BFF514D2AF68
:103F1000D007D006D005D000D0D0D082D083D0E05A
:013F2000326E
:03004300024E1E4C
:0B4E1E00C0E0C083C082C0D075D00887
:104E2900C2AFE59A20E003024EB4539AFEAD9B90BF
:104E39000361E4F0AE13AF14EF7803CEC313CE13BE
:104E4900D8F930E0509002F1E0FF04F074D92FF561
:104E590082E43402F583EDF09002F1E0640B704BCB
:104E6900E024D8F582E43402F583E0AE13AF14B43C
:104E7900030E8E13EF442012557754FDF516800C5E
:104E89008E13EF54DF1255774402F51612555D540F
:104E9900FDF5148016BD021312556D4402F5141266
:104EA900556D4408F5149002F1E4F0E59A30E10AF1
:0C4EB900539AFD12556D547FF514D2AFD2
:094EC500D0D0D082D083D0E032BD
:03000B000233CCF1
:1033CC00C0E0C0F0C083C082C0D075D000C000C0C7
:1033DC0004C005C006C007758AFB758CDBAE19AF3F
:1033EC001AEF7802CEC313CE13D8F930E01790033E
:1033FC00651255BF9432400DE4F0AE19AF1A8E1918
:10340C00EF54FBF51A90034A1255BF94644046B230
:10341C00B4AE19AF1AEF5401F4FFEF5401FFAC191D
:10342C00AD1AED54FEFDECF519ED4FF51AE4F090E4
:10343C0002F575F001122A8EFEC3E5F0943CEE9471
:10344C000040129002F5E4F0A3F0AE17AF188E17FF
:10345C00EF4408F5189003631255B3940AEE9400E8
:10346C005003023545AE11AF12EE13EF1320E016E8
:10347C009002F21255B39458EE94024010125593E8
:10348C004408F51C800712559354F7F51C9002EF75
:10349C001255B39464EE9400403C12559A54FEF5C8
:1034AC001C12559A54FDF51C12559A54FBF51C90A0
:1034BC0002EFE4F0A3F0AE19AF1A8E19EF4410F539
:1034CC001A900362E0FF04F0EF941E4009E4F0123E
:1034DC00559A54EFF51C900363E4F0A3F09002F7B7
:1034EC001255C694014009E4F01255794404F516BE
:1034FC009003601255C6941E400DE4F0AE11AF124D
:10350C008E11EF4480F5129003661255C694144048
:10351C0009E4F01255794420F51690035F1255C654
:10352C00940A4015E4F01255794440F51612557979
:10353C004480F516900369E4F0AE13AF14EF30E05D
:10354C003190035B1255BF9405402712556D54EF13
:10355C001255774401F516E4F090036912556C543A
:10356C00FB12557754F7F51690035B12556B54FE0E
:10357C00F514AE13AF14EEC313EF1330E037900312
:10358C00611255BF9405402DAE13AF14EF7803CEE6
:10359C00C313CE13D8F930E00C12556D44201255DC
:1035AC007754FDF516900361E4F09002F1F012559A
:1035BC005D54FDF514D007D006D005D004D000D052
:0A35CC00D0D082D083D0F0D0E032DE
:10607B008FC48EC375C65A75C6A5227400254AF502
:08608B008274003549F58322FF
:06525F008E468F478D48CA
:10526500E4F549F54AAF4AAE4912615F126086EF2F
:10527500F0054AE54A70020549C3E549940240E54F
:10528500E4FFFE126369E4F549F54AAF4AAE4912F7
:10529500615FEFF47048054AE54A70020549C3E5C8
:1052A50049940240E67F0A7E00125F7D740025471F
:1052B500F58274003546F583E548F0E4F549F54A8D
:1052C500126086E0FDAF4AAE4912611A054AE54A09
:1052D50070020549C3E549940240E57F01227F003C
:0152E50022A6
:10610600AE071FEE600DE4FCFD0DED70010C4C605A
:03611600EF80F621
:016119002263
:0D635C00E4F5C7F5C5F5C675C380F5C4228C
:0F615F0075C78275C50112607B00AFC212635C09
:01616E00220E
:10611A0075C78275C5028FC48EC38DC212607F0097
:03612A0002635CB1
:0D63690075C78275C50312607B0002635C7E
:08000300C0C0C0C0C0C0C0C0F5
:1049100020232100080010A7625BF80322F800475B
:10492000B610181D1CC700B2EA2A001159813509BA
:0649300006060405000C60
:1060D90090037BE0AB47AA48A94922C390037EE01D
:0760E9009F90037DE09E2261
:105E0000E490037DF0A3F01260E45009E475F00122
:105E1000122A7880F2E490037DF0A3F01260E4503F
:0A5E200009E475F001122A7880F2FF
:015E2A002255
:10606200000000000000000000000000000000EF3F
:096072001F70011E144E70E8229B
:0763CA00C294C297D2942295
:0A63C0001263CA7F887E13025E009C
:105B8800E4900385F0C297900384F0EF30E704D2E5
:105B9800958002C295EF25E0FFD29700009003851B
:105BA800E025E0F0309603E004F0C297000090038F
:0D5BB80084E004F0E0B408D3900385E0FF22
:015BC50022BD
:10616F00C2942096FD7F30125B882096FDD2942238
:105FB900D2947F017E00126062C2947F017E00123A
:0E5FC9006062D2947F297E0012606202616FD6
:10617F00C2942096FD125B88AF05125B88D29422E1
:0658EE008B468A47894841
:1058F400EF4440900383F0C2942096FD900383E02C
:10590400FF125B88E4900382F0900382E0FFC3956A
:1059140049501AAB46AA47A9488F827583001229B9
:0F5924007AFF125B88900382E004F080DCD2945B
:015933002251
:0B638100C2942096FD125B88D294228B
:105EDD00EF448090037DF0C2942096FD90037DE009
:105EED00FF125B88E4FF125B8890037EEFF0D29483
:015EFD002282
:0658A3008B4B8A4C894D7D
:1058A900EF44C090037EF0C2942096FD90037EE001
:1058B900FF125B88E490037DF090037DE0C3954E71
:1058C9005020E4FF125B88AB4BAA4CA94D90037D95
:1058D900E0F582758300EF1229B990037DE004F0A9
:0458E90080D7D294FE
:0158ED002298
:105EFE00EF44C090037EF0C2942096FD90037EE0A6
:105F0E00FF125B88E4FF125B8890037DEFF0D29462
:015F1E002260
:10458300AD217F0C12617FAD227F0B12617FAD23C2
:104593007F0C12617FAD247F0D12617FAD257F0EED
:1045A30012617FAD267F0F12617FAD277F101261ED
:1045B3007FAD287F1112617FAD297F1212617FAD1C
:1045C3002A7F1312617FAD2B7F1412617FAD2C7F85
:1045D3000A12617FAD2D7F1512617FAD2E7F2112EF
:1045E300617FAD2F7F2212617FAD307F1812617F13
:1045F300AD317F1912617FAD327F1A12617FAD3306
:104603007F1B12617FAD347F1C12617FAD357F1D2F
:1046130012617FAD367F2312617FAD377F24126134
:104623007FAD387F2512617FAD397F2612617FAD63
:104633003A7F2912617FAD3B7F2C12617FAD3C7FB6
:104643002D12617FAD3D7F2E12617FAD3EE4FF12DF
:10465300617FAD3F7F0212617FAD407F0712617FB3
:10466300AD417F0812617FAD427F0912617FAD4387
:054673007F0602617FDB
:105FD700AC057F3F12617F8C497F3F1258EE7F35BA
:0E5FE70012638130B3FD20B3FD7F3B02638166
:0563DC007F3402638123
:064F78008B448A458946C6
:104F7E001260DD12296125E025E090037CF07F347C
:104F8E001263817F027E00125E0030B3167F027EB6
:104F9E0000125E0090037CE014F0E0C3940150EA2E
:104FAE007F00227F3B125EFEEF547F60567F3F12E2
:104FBE005EDD90037BEFF01260DD122961FEEFD310
:104FCE009E5032AB44AA45A94690037BE0F54E7F36
:104FDE003F1258A31260D91229A77B017A0379795F
:104FEE00754E027F3F1258A37F3A12638190037A67
:104FFE00E05480FF221260D91229A77F3A126381F2
:05500E007F00227F007D
:01501300227A
:1060C2001263C0125FB91245837BFF7A00790375B0
:0760D20049087F3E0258EE71
:102C0D0061742B776966695F636F6E663D50433201
:102C1D0030313530313039313833335F4E6574777B
:102C2D006F726B5F312C777061325F6165732C321F
:102C3D00303135303630340D0A0061742B72656DCC
:102C4D006F746569703D706F6F6C2E6E74702E6F42
:102C5D0072670D0A0061742B72656D6F7465706F0C
:102C6D0072743D3132330D0A0061742B4765745F08
:102C7D004D41433D3F0D0A0061742B776966695FD5
:102C8D005363616E3D3F0D0A0061742B6F75745F68
:102C9D007472616E733D300061742B6E65746D6F6F
:102CAD0064653D320D0A0061742B64686370643D88
:102CBD00300D0A0061742B6D6F64653D636C696541
:102CCD006E740D0A0061742B6E65746D6F64653DD5
:102CDD00330D0A0061742B64686370643D310D0A15
:102CED000061742B64686370645F69703D313932C3
:102CFD002E3136382E31302E312C3139322E3136AF
:102D0D00382E31302E3235342C3235352E32353594
:102D1D002E3235352E302C3139322E3136382E318A
:102D2D00302E3132350D0A0061742B646863706486
:102D3D005F646E733D3139322E3136382E31302E7F
:102D4D00312C302E302E302E300D0A0061742B6454
:102D5D00686370645F74696D653D393630300D0A96
:102D6D000061742B776966695F636F6E663D4E54C3
:102D7D0050207365727665722C777061325F616574
:102D8D00732C31323334353637380D0A0061742BDC
:102D9D0064686370633D310D0A0061742B6E657458
:102DAD005F69703D3139322E3136382E31302E3249
:102DBD00332C3235352E3235352E3235352E302CED
:102DCD003139322E3136382E31302E39380D0A0048
:102DDD0061742B6E65745F646E733D302E302E30D2
:102DED002E302C302E302E302E300D0A0061742BEB
:102DFD0072656D6F746570726F3D7463700D0A004E
:102E0D0061742B72656D6F746570726F3D75647052
:102E1D000D0A0061742B6D6F64653D736572766587
:102E2D00720D0A0061742B72656D6F746569703D6A
:102E3D003230322E3131322E33312E3139370D0AB7
:102E4D000061742B72656D6F7465706F72743D31B6
:102E5D0032330D0A0061742B74696D656F75743DA5
:102E6D00300D0A0061742B756172743D3936303046
:102E7D002C382C6E2C310D0A0061742B7561727417
:102E8D007061636B74696D656F75743D3130300DB4
:102E9D000A0061742B756172747061636B6C656E81
:102EAD003D3130300D0A0061742B6E65745F636FB8
:102EBD006D6D69743D310D0A0061742B7265636F20
:072ECD006E6E3D310D0A009D
:0E61AC007BFF7A2C790D7D3A1259FE7F01227D
:0E61BA007BFF7A2C79967D0F1259FE7F012211
:0E61C8007BFF7A2D79357D241259FE7F01224E
:0E61D6007BFF7A2D79DD7D1D1259FE7F01229F
:0E61E4007BFF7A2C79A57D0F1259FE7F0122D8
:0E61F2007BFF7A2C79D27D0F1259FE7F01229D
:0E6200007BFF7A2D796E7D2C1259FE7F0122D4
:0E620E007BFF7A2D799A7D0D1259FE7F0122B9
:0E621C007BFF7A2C79E17D0D1259FE7F012265
:0E622A007BFF7A2C79B47D0D1259FE7F012284
:0E6238007BFF7A2C79EE7D471259FE7F012202
:0E6246007BFF7A2D79597D151259FE7F0122BA
:0E6254007BFF7A2E79B47D121259FE7F012253
:0E6262007BFF7A2E79317D1D1259FE7F0122BD
:0E6270007BFF7A2E794E7D141259FE7F01229B
:0E627E007BFF7A2C79477D1B1259FE7F01228F
:0E628C007BFF7A2C79627D141259FE7F01226D
:0E629A007BFF7A2D79FA7D131259FE7F0122C7
:0E62A8007BFF7A2E790D7D131259FE7F0122A5
:0E62B6007BFF7A2E79627D0F1259FE7F012246
:0E62C4007BFF7A2E79207D111259FE7F012278
:0E62D2007BFF7A2C79C17D111259FE7F0122CB
:0E62E0007BFF7A2E79717D151259FE7F012207
:0E62EE007BFF7A2E799F7D151259FE7F0122CB
:0E62FC007BFF7A2E79867D191259FE7F0122D2
:0E630A007BFF7A2E79C67D0E1259FE7F01228E
:0E6318007BFF7A2C79767D0F1259FE7F0122D1
:0E6326007BFF7A2C79857D111259FE7F0122B2
:0E6334007BFF7A2D79A77D361259FE7F01225C
:10379D00123936123936C2C4C2C4C2C41238DED28E
:1037AD00C4D2C4D2C41238DE1238E61261E4EF700E
:1037BD0002FF221238E612621CEF7002FF2212384D
:1037CD00EE1261ACEF7002FF221238EE12620EEFB4
:1037DD007002FF221238F61262A8EF7002FF221259
:1037ED0038F61262D2EF7002FF221238FE12627E9C
:1037FD00EF7002FF221238FE12628CEF7002FF2270
:10380D001239061262B6EF7002FF221239061262E9
:10381D00E0EF7002FF2212390E1262FCEF7002FF10
:10382D002212390E1262EEEF7002FF2212391612B9
:10383D0061E4EF7002FF2212391612621CEF700262
:10384D00FF2212391E1261ACEF7002FF2212391ED7
:10385D0012620EEF7002FF221239261262A8EF706B
:10386D0002FF221239261262D2EF7002FF221239A4
:10387D002E12627EEF7002FF2212392E12628CEF31
:10388D007002FF2212394F1262B6EF7002FF221240
:10389D00394F1262E0EF7002FF221239571262FCAB
:1038AD00EF7002FF221239571262EEEF7002FF2203
:1038BD007F647E00125F7D126254EF7002FF227FE3
:1038CD00647E00125F7D12630AEF7002FF227F019A
:1038DD00227F647E00125F7D227F647E00125F7DF9
:1038ED00227F647E00125F7D227F647E00125F7DE9
:1038FD00227F647E00125F7D227F647E00125F7DD9
:10390D00227F647E00125F7D227F647E00125F7DC8
:10391D00227F647E00125F7D227F647E00125F7DB8
:10392D00227F647E00125F7D227F01125E769002FF
:10393D00F47401F0FF7E00125F7D7F0A7E00125F3E
:10394D007D227F647E00125F7D227F647E00125F88
:02395D007D22C9
:103156001233A31233A3C2C4C2C4C2C412331BD2D5
:10316600C4D2C4D2C412331B1233231261F2EF70DD
:1031760002FF2212332312621CEF7002FF22123367
:103186002B126238EF7002FF2212332B1261C8EF46
:103196007002FF22123333126246EF7002FF2212D0
:1031A6003333126200EF7002FF2212333B12620EBB
:1031B600EF7002FF2212333B126334EF7002FF22DC
:1031C6001233431261D6EF7002FF221233431262AA
:1031D6009AEF7002FF2212334B1262C4EF7002FFA5
:1031E6002212334B126262EF7002FF221233531225
:1031F6006270EF7002FF221233531262B6EF700252
:10320600FF2212335B1262E0EF7002FF2212335B81
:103216001262FCEF7002FF221233631262EEEF704D
:1032260002FF221233631261F2EF7002FF221233A1
:103236006B12621CEF7002FF2212336B126238EFC0
:103246007002FF221233731261C8EF7002FF22125E
:103256003373126246EF7002FF2212337B12620052
:10326600EF7002FF2212337B12620EEF7002FF2212
:10327600123383126334EF7002FF2212338312611A
:10328600D6EF7002FF2212338B12629AEF7002FFA2
:103296002212338B1262C4EF7002FF221233931292
:1032A6006262EF7002FF22123393126270EF7002B5
:1032B600FF2212339B1262B6EF7002FF2212339B7B
:1032C6001262E0EF7002FF221233BC1262FCEF7052
:1032D60002FF221233BC1262EEEF7002FF2212339B
:1032E600C4126254EF7002FF221233C412630AEF53
:1032F6007002FF227F647E00125F7D126254EF70BF
:1033060002FF227F647E00125F7D12630AEF700265
:10331600FF227F01227F647E00125F7D227F647E12
:1033260000125F7D227F647E00125F7D227F647EB5
:1033360000125F7D227F647E00125F7D227F647EA5
:1033460000125F7D227F647E00125F7D227F647E95
:1033560000125F7D227F647E00125F7D227F647E85
:1033660000125F7D227F647E00125F7D227F647E75
:1033760000125F7D227F647E00125F7D227F647E65
:1033860000125F7D227F647E00125F7D227F647E55
:1033960000125F7D227F647E00125F7D227F011214
:1033A6005E769002F47401F0FF7E00125F7D7F0A64
:1033B6007E00125F7D227F647E00125F7D227F6425
:0633C6007E00125F7D2273
:105979002A2A2A2A2A2A2A0030313233343536375C
:1059890038392D26484C52534F46445451425549B3
:1059990043502A2345003F065B4F666D7D077F6FA5
:1059A90040467638506D5C715E78737C3E0639737B
:0359B90000FF7973
:085469008B578A5889598D5AAE
:105471005380FD0000E49003B0F09003B0E0FFC35F
:10548100955A5055AB57AA58A9598F827583001266
:10549100297AFF9003B2F01260939003B2EFF0E427
:1054A1009003B1F05380FB00009003B2E0FF30E7BE
:1054B1000543800180035380FE0000438004000007
:1054C100EF25E09003B2F09003B1E004F0E0B408FE
:1054D100D39003B0E004F080A14380020000538028
:0354E100FD0000CB
:0154E40022A5
:10609300E4FEEE90598193B50707EE90599F93FF65
:0760A300220EBE1FED7F007D
:0160AA0022D3
:102ED40020202021210020202020A6A8A55C20203D
:102EE40020202020202020202020202021202020DD
:102EF40020A5A2B1D1202020202020202020202085
:102F0400202020212020B577CA5E3A56312E302069
:102F140020202020212020B36ECA5E3A56322E3063
:102F24002020202020212020AAECA96CA4C62E2E2B
:102F34002E2E2E2E2020212020C0CBB4FA4E545009
:102F44002E2E2E2E2E212020C0CBB4FA4750532EE5
:102F54002E2E2E2E212020C0CBB4FA434F4D2E2EE0
:102F64002E2E2E21A668A55CAFE0A46CA5C0C4C11A
:102F7400A874B2CE212020202076302E303031208B
:102F8400202020202021000B000000000000000071
:102F9400000000000000000000000000000000002D
:102FA400000000000000000000000000000000D647
:102FB400C81F56D16872B0B074B86D2D3E20202061
:102FC40020212020312EAEC9B6A1BADEB27A21204A
:102FD40020322EA46CC1E9BADEB27A212020332E2D
:102FE400A874B2CEB074B86D2021A874B2CEB074F7
:102FF400B86D2D3E20202020212020312EAED5AECC
:10300400C9A950B4C12021AEC9C4C1B074B86D2DD2
:103014003E20212020312EAEC9C4C1B7BD202120BD
:1030240020322EAEC9C4C1B35DB86D202120203337
:103034002EAEC9B0CFB35DB86D2021AEC9C4C1B343
:103044005DB86D20202020A67E2120202020A4EB26
:10305400202020202020A4E92120202020AEC920E7
:103064002020202020A4C02120202020ACED2020DE
:1030740020202020AC50B4C121AEC9C4C1B35DB876
:103084006D2D3E212020312E2D2D2020AEC9212052
:1030940020322E2D2D2020A4C021AED5AEC9A9509A
:1030A400B4C12D3E21AEC9C4C1B7BD2D3E202120DF
:1030B40020312E4E5450202020322E4750532021B0
:1030C4002020332E434F4D202020342E4155544F81
:1030D40021A46CC1E9BADEB27A2D3E212020312E22
:1030E400B074B86DA46CC1E92020212020322EA731
:1030F40052B4EEA46CC1E92020212020322EA46C0D
:10310400C1E9AAACBA41202021B074B86DA46CC145
:10311400E92D3E212020312EA661A77D3A202020D2
:1031240020212020322EB371B0543A205253343827
:1031340035212020322EB371B0543A205246343314
:1031440033212020322EB371B0543A204F4646200A
:02315400202138
:10476600AE17AF18EEC4F854F0C8EFC4540F482281
:1047760075A0A07BFF7A2E79D47D087F0322AE1721
:10478600AF188E17EF54DFF518227A3079887BFF41
:10479600E4FD7F0222AE17AF18EF7805227A307952
:1047A600937BFFE4FD7F0122EFF0E0C4540F75F028
:1047B6000AA4FFE0540F2FF0227BFFE4FD7F0222C4
:1047C600AE17AF188E17EF54FBF5187BFF22E4F0F7
:1047D600AE11AF128E11EF22F514AE15AF168E156F
:1047E600EF229002D4E0FF75F00A02293F7BFFE436
:1047F600FD7F01227BFFE4FD7F0222E075F00A8443
:10480600E5F022E0FF04F0EFC3940222E075F00A1F
:10481600842430227BFFE4FD7F0322F0AE13AF1425
:104826008E13EF227BFFE4FD7F02227BFFE4FD7FF8
:104836000122E004F0E0C3940A22AE17AF18EF7825
:0C48460002229002D5E0FF900396E022D1
:0B638C007BFF7A2E79DAE4FD0250ABB3
:0B6397007BFF7A2E79F1E4FD0250AB91
:1053EB008D5E12395FE55E24FE6012146016146048
:1053FB001814601F1460212405702980237F2E123E
:10540B003AD9801C12545E801712545E7F2E123ACA
:10541B00D9800D12543C800812543C7F2E123AD97D
:10542B007F2E8009125451123AD9125451123AD983
:10543B00227F2E123AD97F2E123AD97F2E123AD9C9
:10544B007F2E123AD9227F20123AD97F20123AD9D5
:0E545B007F20227F2E123AD97F2E123AD922BC
:105B48007F207E001250147BFF7A2F7908E4FDFF36
:105B58001250AB7A2F79191247941250AB7A2F79D9
:105B68002A12481A1250ABE49003BDF07FF47E016C
:0F5B7800125F7D9003BDE004F0E0C3941440ED94
:015B870022FB
:105A8200E49003B7F07F20FE1250141247C67A2F1B
:105A9200793BE4FDFF1250ABE49003B8F07FF47E53
:105AA20001125F7D9003B812483840F1124840CE8F
:105AB200C313CE13D8F97F0130E00302638C126363
:015AC200974C
:015AC30022C0
:105AC400E49003B9F07F20FE1250141247C67A2FD7
:105AD400794AE4FDFF1250ABE49003BAF07FF47E00
:105AE40001125F7D9003BA12483840F1124840CE4B
:105AF400C313CE13D8F97F0130E00302638C126321
:015B04009709
:015B0500227D
:105B0600E49003BBF07F20FE1250141247C67A2F92
:105B16007959E4FDFF1250ABE49003BCF07FF47EAC
:105B260001125F7D9003BC12483840F1124840CE06
:105B3600C313CE13D8F97F0130E00302638C1263DE
:015B460097C7
:015B4700223B
:10602D007A2F79681247BF1250AB7A2F79791247C0
:0B603D00A71250AB7FB87E0B025F7D06
:10260D00E4900374F09002CDE0700F9002D3E0706F
:10261D00099002D5E070030226D07F04125806906F
:10262D0003AC1247AE7F021258069003AD1247AEAF
:10263D007F011258069003961247AE9003ACE0FF4F
:10264D009002CDE06F60030226D07F057E001261FF
:10265D005F90026CEFF07F067E0012615F9002CEFC
:10266D00EFF090026CE0FC603B9002D3E0FE900333
:10267D00ADE0C39E9002D3E04008FE9003ADE09E16
:10268D008007FF9003ADE0C39F900374F0ECFF3320
:10269D0095E0FE900374E0C39FEE6480F87480981B
:1026AD00402C801F124848C39F12484840028001A9
:1026BD00C39F900374F09002CEE0FF900374E0C3CB
:1026CD009F400BAE1BAF1C8E1BEF4410F51CAE19BB
:1026DD00AF1A12476A20E0030227EC9002CFE024E4
:1026ED005F603414605324026003022777AE1BAF82
:1026FD001CEEC313EF1320E00F9002D612480940D1
:10270D00071247D454F7F512122931125F7D90024A
:10271D00CF74A1F0022783AE1BAF1CEF20E00F900A
:10272D0002D812480940071247D454EFF512122966
:10273D001F9002CF74A2F0803DAE1BAF1CEF78024C
:10274D00CEC313CE13D8F920E00F9002D212480950
:10275D0040071247D454FBF5127F02125E769002A9
:10276D00F47402F07F017E008003122931125F7D27
:10277D009002CF74A0F0AE19AF1A8E19EF54EFF589
:10278D001AAE11AF1212476A20E029AE11AF12EF47
:10279D007803CEC313CE13D8F920E018AE11AF12C3
:1027AD00EF7802CEC313CE13D8F920E0071247D627
:1027BD0054FDF51212482254EF1247DE4401F5166E
:1027CD00E490035BF090036912482154FB1247DE3D
:1027DD0054F7F516E490035B12482154FEF514E40A
:1027ED00FFFE12615FEF24F4601324DC6016247089
:1027FD00602524BD706E90026D74A1800C90026DE9
:10280D0074A0800590026D74A2F0AE17AF188E17EC
:10281D00EF547FF518804DAE11AF1212476A30E0BC
:10282D000890026D74A1F0803BAE11AF12EF7803EA
:10283D00CEC313CE13D8F930E00890026D74A0F01A
:10284D008017AE11AF12EF7802CEC313CE13D8F9A5
:10285D0030E00690026D74A2F0AE17AF188E17EF30
:10286D004480F518AE15AF16EF7807CEC313CE130F
:10287D00D8F930E0429002F4E06401703AAE13AF43
:10288D001412476A20E0301247E0547FF5161229E2
:10289D001FE4900369F07F01FE125F7D7BFF7A2FAD
:1028AD00798B7D301259FEE4900365F0AE19AF1AA5
:1028BD008E19EF4404F51A124054BF040312315619
:1028CD00AE15AF16EF7802CEC313CE13D8F930E0A4
:1028DD00401247E054FBF516121AF2AE15AF16EF83
:1028ED007805CEC313CE13D8F930E00A1235D612BF
:1028FD0047E054DFF516AE11AF12EF7807CEC313D4
:10290D00CE13D8F930E00A124CA51247D6547FF5F4
:01291D0012A7
:10291E00227F01125E769002F47401F0FF7E0012A7
:10292E005F7D22E4FF125E76E49002F4F07F01FEFA
:01293E002276
:104AF4008F4412479BCEC313CE13D8F920E0030290
:104B04004B877BFF7A2F79BBE4FDFF1250AB7A2FE2
:104B140079C61247BF1250AB7A2F79D31247F312DA
:104B240050AB7A2F79E012481A1250ABE4F5A0E5A5
:104B34004424FE601414602A2402703E7F90124BB9
:104B4400B7124B9F124BAA8008124B887F88124BD6
:104B5400B7124B9F7F9812395F7F20123AD97F207A
:104B64008015124B88124BAA124BC27F9812395FE0
:104B74007FA1123AD97FF7124BC21247761250AB7B
:104B8400124784227F9012395F7F20123AD97F2006
:104B9400123AD97F017E00125F7D22123AD97F0139
:104BA4007E00125F7D227F8812395F7F20123AD9FE
:104BB4007F202212395F7FA1123AD97FF722123A5D
:094BC400D97F017E00125F7D2201
:1055CD008F4412479BCEC313CE13D8F930E0477BDF
:1055DD00FF7A2F79EEE4FDFF1250AB7A2F79FD1291
:1055ED0047FA1250ABE4F5A0E5441470207F9012F9
:1055FD00395F7FA1123AD97FF7123AD97F017E0028
:10560D00125F7D7F881256247F981256241247769A
:10561D001250AB1247842212395F7F20123AD97F84
:0C562D0020123AD97F017E00125F7D221E
:104A18008F4412479BCEC313CE13D8F920E003026C
:104A28004AAE7BFF7A30790BE4FDFF1250AB7A3047
:104A380079171247FA1250AB7A3079231247F312DA
:104A480050AB7BFF7A307931E4FD7F031250ABE441
:104A5800F5A0E54424FE601414602A2402703E7F09
:104A680090124ADE124AC6124AD18008124AAF7F13
:104A780088124ADE124AC67F9812395F7F20123A9E
:104A8800D97F208015124AAF124AD1124AE97F987D
:104A980012395F7FA1123AD97FF7124AE912477695
:104AA8001250AB124784227F9012395F7F20123A4E
:104AB800D97F20123AD97F017E00125F7D22123AF7
:104AC800D97F017E00125F7D227F8812395F7F20A7
:104AD800123AD97F202212395F7FA1123AD97FF783
:0C4AE80022123AD97F017E00125F7D226D
:1016BA008F4412479BCEC313CE13D8F920E00302FE
:1016CA0018B47BFF7A30793FE4FDFF1250AB7A30D1
:1016DA00794E12482A1250AB7A30795D124831128B
:1016EA0050AB7BFF7A30796CE4FD7F031250ABE498
:1016FA00F5A07F8512395F9003AF121A2D9003AFC0
:10170A00121A147F9112395F9003AB121A2D9003AB
:10171A00AB121A147F9512395F9003AC121A7290A9
:10172A0003AC121A597F8912395F9003AD121A72EB
:10173A009003AD121A597F8D12395F900396121ACF
:10174A00C5900396121A967F9912395F90039512E3
:10175A001AC5900395121A967F9D12395F9003AEAF
:10176A00E0124813FF123AD99003AEE0124802245D
:10177A0030FF123AD9E544122BE7179D0117C5022B
:10178A0017EA03180F04184605186B06188E070087
:10179A000018AB1247667F8430E00C12395F7FA1D4
:1017AA00123AD97FF7800A12395F7FA1123AD97F9C
:1017BA00AF121AA47F90121ABA801A1247667F844F
:1017CA0030E00A1219FF121A227FF780081219FF55
:1017DA00121A227FAF121AA47F94121ABA0218049C
:1017EA001247667F8430E00A121993121A4E7FF765
:1017FA008008121993121A4E7FAF121ADC7F8812D0
:10180A001AE70218291247667F8430E00A1219BEC5
:10181A00121A677FF780081219BE121A677FAF1271
:10182A001ADC7F8C121A397F98121A39121A7E1210
:10183A003AD97F017E00125F7D0218AB1247667F9C
:10184A008430E00A1218B5121A8B7FF78008121832
:10185A00B5121A8B7FAF123AD97F98121AE702187B
:10186A00851247667F8430E00A1218F0121AAF7F99
:10187A00F780081218F0121AAF7FAF123AD9121A6B
:10188A007E0218A81247667F8430E00A12193A12BB
:10189A001AD17FF7800812193A121AD17FAF123A79
:1018AA00D91247761250AB1247842212395F7F2031
:1018BA00123AD97F20123AD97F9012395F7F2012CB
:1018CA003AD97F20123AD97F9412395F7F20123A8F
:1018DA00D97F20123AD97F8812395F7F20123AD9EC
:1018EA007F20123AD92212395F7F20123AD97F20FB
:1018FA00123AD97F9012395F7F20123AD97F20128B
:10190A003AD97F9412395F7F20123AD97F20123A4E
:10191A00D97F8812395F7F20123AD97F20123AD9AB
:10192A007F8C12395F7F20123AD97F20123AD9224E
:10193A0012395F7F20123AD97F20123AD97F90124A
:10194A00395F7F20123AD97F20123AD97F9412390F
:10195A005F7F20123AD97F20123AD97F8812395FE5
:10196A007F20123AD97F20123AD97F8C12395F7FB1
:10197A0020123AD97F20123AD97F9812395F7F20F4
:10198A00123AD97F20123AD92212395F7F20123AAD
:10199A00D97F20123AD97F017E00125F7D7F901293
:1019AA00395F7F20123AD97F20123AD97F017E000F
:1019BA00125F7D2212395F7F20123AD97F20123AB4
:1019CA00D97F017E00125F7D7F9012395F7F2012DE
:1019DA003AD97F20123AD97F017E00125F7D7F9427
:1019EA0012395F7F20123AD97F20123AD97F017EBD
:1019FA0000125F7D2212395F7F20123AD97F2012AE
:101A0A003AD97F017E00125F7D22E075F00A84E5F3
:101A1A00F02430FF123AD9227F9012395F7FA11247
:101A2A003AD922E075F00A842430FF123AD92212F8
:101A3A00395F7F20123AD97F20123AD97F017E007E
