:1016C700D3E5139427E51294012275120175132CA3
:0116D70022F0
:08000300EFC43354E042A022D7
:10086800E4F511F512F51343A00FF51275130AE517
:10087800131513AE12700215124E700302094712B7
:10088800094AF511640F60E7E51124F5603424FE88
:100898006056146079240760030209441216D1E5F2
:1008A8001345126012E51315137002151212094A46
:1008B800640760EB7F04221216C740037F00227F83
:1008C80004221216D1E51345126012E513151370B0
:1008D800021512120956640B60EB7F03221216C729
:1008E80040037F00227F03221216D1E513451260D0
:1008F80012E513151370021512120956640D60EBF8
:100908007F02221216C740037F00227F022212169E
:10091800D1E5134512601AE5131513700215127FFD
:10092800017E0012158DE5A0540F640E60E37F016F
:10093800221216C740037F00227F01227F00227FF8
:0109480000AE
:10094900227F017E0012158DE5A0540F227F017EC2
:090959000012158DE5A0540F22D7
:10158D00EF1FAA0670011E4A6013E4FCFDC3ED9423
:0D159D001CEC940250EA0DBD00010C80F022
:0115AA00221E
:0B174A00EF1FAC0670011E4C70F62271
:1015AB00F51BAE1AAF1B8E1AEF22F519AE18AF1939
:0E15BB008E18EF22F51DAE1CAF1D8E1CEF2208
:0B1755007F0A7E0012158D75BBFF227D
:1016E900438901758AFB758CDBD28CD2A9D2AF22D2
:1016D800759850438920758BFD758DFDD28ED2ACDF
:0116E80022DF
:0D170900759A50759CB8438E1475AF01227F
:100FCA001215AD54FE1215AB54FD1215AB54FB129B
:100FDA0015AB54F71215AB54EF1215AB54DF1215BB
:100FEA00AB54BF1215AB547FF51B1215C144011245
:100FFA0015BF44021215BF54FB1215BF4404F51D58
:10100A001215B744021215B544041215B544081254
:10101A0015B544101215B554DF1215B554BF121583
:10102A00B54480F5197F3C90020AE4F0A3DFFC5333
:08103A00A01F43A040758004D3
:01104200228B
:10150D001217551216D81217091216E9120FCA53CF
:10151D00A01F5380F753A01F43A0A012131702164C
:01152D009D20
:0617A50012150D020754AD
:1015C900F51BAE1CAF1D8E1CEF22AE18AF198E187D
:0E15D900EF22740A251EF582E43402F5832207
:10075400120DA5AE18AF19EF7807CEC313CE13D878
:10076400F930E00A120BC71215D3547FF519AE1CE9
:10077400AF1DEF7802CEC313CE13D8F930E03EAEEE
:1007840018AF19EF7805CEC313CE13D8F930E005AE
:100794001211E48021120046AE18AF19EF7806CE8C
:1007A400C313CE13D8F930E00D1215D354BFF51985
:1007B400120868EF70FA1215CB54FBF51D12086885
:1007C400EF6401703FAE18AF19EF7805CEC313CEB6
:1007D40013D8F95401F4FF7E00EF54017805C333B4
:1007E400CE33CED8F9FFAC18AD19ED54DFFDEC4E85
:1007F400F518ED4FF5191215CB4404F51D1215D358
:100804004440F519AE1AAF1BEEC4F854F0C8EFC457
:10081400540F4820E003020754E4FF745B2FF58271
:10082400E43402F583E024E0F00FBF08EE90025FA9
:10083400E0FF12141B90025CE0FFA3E0FDA3E0FBC9
:10084400900260E0F513A3E0F514A3E0F51512128D
:1008540040AE1AAF1B8E1AEF54EF1215C94401F5BE
:040864001D02075416
:100DA500751132E51EC3943C5004051E8003E4F51D
:100DB5001EAF1E12149F7F0A7E0012158DE511606D
:100DC5006915117F017E0012158DAE1AAF1BEF78E4
:100DD50005CEC313CE13D8F930E0E2AE1AAF1B8EA1
:100DE5001AEF54DF1215C94402F51D900246E0B40E
:100DF500A5CBA3E0B45AC6A3E0B4A5C1A3E0B45AF9
:100E0500BCA3E0B4A5B7A3E0B45AB2A3E064A5704F
:100E1500ACA3E0645A70A6A3E0F470A1A3E0B51EEC
:0F0E2500071215DB7401F02280001215DBE4F0D8
:010E3400229B
:07179E00C1C2BBCAAB472129
:10165500900276E0FFC3941022900275F0E4A3F0A7
:081665002253A01F43A0A022A4
:1013BF00E4900297F0E4900298F0E4900299F09094
:1013CF000299E004F0E0B433F6900298E004F0E004
:0D13DF00B440E7900297E004F0E0B41ED89F
:0113EC0022DE
:040C79008E108F1139
:100C7D0053A01F748012165E1216555005120CDC0F
:100C8D0080F6E4900276F0748812165E12165550B6
:100C9D0005120CDC80F6E4900276F09002757490EB
:100CAD00F0E4A3F01216555005120CF680F6E49000
:100CBD000276F09002757498F0E4A3F01216555078
:0E0CCD0005120CF680F6E4900276F012166620
:100CDB0022900275E02FFF1204607F201205DC7F4B
:100CEB00201205DC900276E004F022900275E02FD2
:100CFB00FF1204607F201205DC7F201205DC9002BE
:050D0B0076E004F02277
:101449008D1F53A01F120460E51F75F00A84243014
:10145900FF1205DCE51F75F00A84E5F02430FF1260
:0B14690005DC7F3A1205DC121666223B
:0A0D10008F128D138B148A158916BB
:100D1A0053A01F120D9DE512D394034003751203CD
:100D2A00E513D394084003751308E51214601014F0
:100D3A0060131460162403701AE51324808010E5EA
:100D4A00132488800AE51324908004E513249890DC
:100D5A00028CF090028CE02513F0E0FF120460ABE5
:100D6A0014AA15A916120F4890028BF06421601874
:100D7A0074012516F516E43515F51590028BE0FF7A
:100D8A001205DC120D9D80D77F017E0012158D128F
:020D9A001666DB
:090D9C00227F017E0012158D2258
:1013170053A01F7F3312134D7F301204601213ED59
:101327007F3012134D7F011204607F0A7E00121571
:101337008D1217767F0A7E0012158D7F207E001290
:101347000C79121666221204607F0A7E0012158D30
:011357002273
:1013ED00E4900275F0E4900276F0E4900277F090CC
:1013FD000277E004F0E0B433F6900276E004F0E01A
:0D140D00B440E7900275E004F0E0B403D8AD
:01141A0022AF
:0A1776007F301204607F0C02046053
:0A1780007F301204607F080204604D
:0A178A007F361204607F3002046015
:0A1794007F341204607F300204600D
:10118200E490029BF01211DA90029A1211C7C28205
:101192001211D21211DA001211D290029B1211C74F
:1011A200C28290029AE054F0FFF0A3E0C4540FF020
:1011B200540FF04F90029AF07F017E0012174A906E
:0411C200029AE0FFAE
:1011C60022E580F07F017E0012174A227F017E0011
:0E11D60012174A22121043D280D281D28222F6
:0205DC008F1777
:1005DE00E490028DF0121043E51754F090028DF066
:1005EE00120FA4062500062910062F200635300608
:1005FE003F40064350064960064F70065980065D1F
:10060E00900663A00669B00673C00677D0067DE03B
:10061E000683F00000068BC2848002D284C28580DD
:10062E000AC284D2858004D284D285C286C28780D3
:10063E004CC2848002D284C285800AC284D2858054
:10064E0004D284D285D286C2878032C2848002D2FE
:10065E0084C285800AC284D2858004D284D285C2A7
:10066E0086D2878018C2848002D284C285800AC254
:10067E0084D2858004D284D285D286D28712074650
:10068E00C2827F057E0012174AE517C454F090020D
:10069E008DF054F0F0120FA406DA0006DE1006E418
:1006AE002006EA3006F44006F85006FE6007047095
:1006BE00070E800712900718A0071EB00728C00764
:1006CE002CD00732E00738F000000740C2848002C9
:1006DE00D284C285800AC284D2858004D284D28517
:1006EE00C286C287804CC2848002D284C285800AB0
:1006FE00C284D2858004D284D285D286C2878032CB
:10070E00C2848002D284C285800AC284D2858004CB
:10071E00D284D285C286D2878018C2848002D284C7
:10072E00C285800AC284D2858004D284D285D286C4
:07073E00D287120746C282B8
:0F07450022D280C281D2827F057E0012174A2203
:020460008F17F4
:10046200E490028DF0121043E51754F090028DF0E3
:10047200120FA404A90004AD1004B32004B930047F
:10048200C34004C75004CD6004D37004DD8004E18E
:100492009004E7A004EDB004F7C004FBD00501E02E
:1004A2000507F00000050FC2848002D284C2858055
:1004B2000AC284D2858004D284D285C286C2878051
:1004C2004CC2848002D284C285800AC284D28580D2
:1004D20004D284D285D286C2878032C2848002D27C
:1004E20084C285800AC284D2858004D284D285C225
:1004F20086D2878018C2848002D284C285800AC2D2
:1005020084D2858004D284D285D286D2877F017E2E
:100512000012174A1205CEC2827F017E0012174ACC
:10052200E517C454F090028DF0120FA40562000585
:100532006610056C20057230057C400580500586EA
:1005420060058C70059680059A9005A0A005A6B05E
:1005520005B0C005B4D005BAE005C0F0000005C87A
:10056200C2848002D284C285800AC284D285800479
:10057200D284D285C286C287804CC2848002D28451
:10058200C285800AC284D2858004D284D285D28672
:10059200C2878032C2848002D284C285800AC28429
:1005A200D2858004D284D285C286D2878018C28442
:1005B2008002D284C285800AC284D2858004D28419
:0B05C200D285D286D2871205CEC282FD
:0F05CD0022C280C281D2827F017E0012174A2291
:10104300E490028FF0A3F090028EF012109F9002B2
:101053008F1210B0C28200007F017E0012174A1265
:10106300109F9002901210B0C2820000900290E094
:10107300C4540FF0540FFFF090028FE054F0F04F80
:10108300F07F017E0012174A90028FE030E70C9048
:0B109300028EE004F0E0C3941440B0B3
:10109E00227580F0C280D281D2827F017E0012172B
:0D10AE004A22E580F07F017E0012174A22E1
:1014EB002020A440A447A454A57CA4ADA4BBA4E98C
:1014FB00212020A46CC4C1B373BD75AAACBA412022
:02150B0020219D
:1010BB00E0FF04F074772FF582E43402F58374209B
:1010CB00F0900276E0FF04F074772FF582E434029F
:1010DB00F5837420F0900276E0FF04F074772FF51F
:1010EB0082E43402F58322E0C4540F2430FF9002D3
:1010FB0076E0FE04F074772E227421F07B017A02E5
:10110B007977E4FD22745BF0AE18AF1922E024105E
:04111B0054F0F0227A
:0D171600D2C0D2C10000C2C00000C2C1227A
:0B176000C2C0D2C10000D2C0000022B5
:0D172300A20092C0D2C10000C2C10000228D
:0B176B00D2C10000A2C0C2C1000022D9
:0C138F00C2AF1217167FDE12139BAF04D2
:10139B00E4FEFDEF25E0FF92C0D2C10000C2C10008
:1013AB00000DBD08EE12176B5009AF060EEF941E21
:0313BB0040F322DA
:0113BE00220C
:10160400E4FFD2C0FEEF25E0FFD2C10000A2C0E497
:0B161400334207C2C100000EBE08EA0E
:01161F0022A8
:10166D00AC05AB0712138FAF0312139B121760D289
:08167D00AF7F057E0002158D10
:02162000AC0715
:1016220012138F1217167FDF12139B121604D200A9
:08163200121723121760D2AF5A
:01163A00228D
:10141B008F107F03121620900291EFF07D077F4013
:10142B0012166D7F017E0012158D900291E054F81B
:0E143B00F0E044084510F0E0FF7D0302166D5E
:101240008D118B127D0612127D7D05AF1112127D5C
:101250007D04AF121212887D02AF131212887D0135
:10126000AF1412166D7F017E0012158DE5154480B6
:10127000FFE4FD12166D7F017E0002158D12166DC2
:101280007F017E0012158D2212166D7F017E0012E5
:03129000158D2297
:10154F00900296E0B49903E4F022900296E0540FD3
:0F155F00FFBF090412111822900296E004F02237
:10152E00900294E024EE600B2409700E90029474E5
:10153E0010F0229002947401F022900294E004F0D4
:01154E00227A
:10135800900291E024F7601324F0601624F06019DD
:1013680024F8701C9002917401F02290029174107C
:10137800F0229002917420F0229002917430F022B1
:07138800900291E004F02245
:10147400900295E024F7601524F0600A24F67014B5
:10148400E4900295F0229002957420F02290029547
:0B1494007410F022900295E004F0229A
:10156E00900293E0B45903E4F022900293E0540FFA
:0F157E00FFBF090412111822900293E004F0221B
:1014C800900292E0547FF0E0B45903E4F0229002D5
:1014D80092E0540FFFBF090412111822900292E003
:0314E80004F022EB
:10169D007F0112141B7513237514597515507B1288
:0716AD007D017F11021240D4
:10004600E4900276F01210E374321210DF7430F08E
:100056007F06121620900296EFF01210F21210EAA6
:10006600EFF0900296E01210F41210EAEFF0121080
:10007600E074A61210DF747E1210CB7420F07F0598
:10008600121620900294EFF0E0D3941240037412FB
:10009600F09002941210F21210EAEFF0900294E03F
:1000A6001210F41210EAEFF01210E074A41210DF2E
:1000B60074EBF07F041202B7D3943140037431F02D
:1000C6009002911210F21210EAEFF0900291E012F3
:1000D60010F41210EAEFF01210E074A41210DF749C
:1000E600E91210DF121104FF120D10E4900276F0EF
:1000F600AE18AF19EEC313EF1330E0081210E37415
:100106002BF080061210E07420F07F021216209069
:100116000295EFF0E0D3942340037423F090029508
:100126001210F21210EAEFF0900295E01210F4129B
:1001360010EAEFF01210E0743AF07F0112162090E8
:100146000293EFF0E0D3945940037459F090029370
:100156001210F21210EAEFF0900293E01210F4126D
:1001660010EAEFF01210E0743AF0E4FF121620EFF6
:10017600547F900292F0E0D3945940037459F09062
:1001860002921210F21210EAEFF0900292E01210B0
:10019600F41210EAEFF01210CC74AC1210DF7450A7
:1001A6001210DF74B41210DF74C1F07F031202B7AD
:1001B6005407F0E025E0F0E09014EB931210F812EB
:1001C60010EAEFF0900291E09014EC931210F812FE
:1001D60010EAEFF01210E01211047F02120D10E483
:1001E600900275F0900275E0FFC39410500E121045
:1001F600E77420F0900275E004F080E81210E71230
:1002060011047F01120D10E4900276F01210E31231
:100216001110EF7802CEC313CE13D8F990027630C0
:10022600E0121210E374431210DF744F1210DF74E1
:100236004DF080061210BB7420F01210E0745D12AF
:1002460010DF121110EF7803CEC313CE13D8F99036
:10025600027630E0121210E374471210DF74501267
:1002660010DF7453F080061210BB7420F01210E0F9
:10027600745D1210DF121110EEC4F854F0C8EFC40A
:10028600540F4890027630E0121210E3744E1210AA
:10029600DF74541210DF7450F080061210BB742005
:1002A600F01210E0745D1210CB1211047F03020DE0
:0102B6001037
:0A02B700121620900291EFF0E022F1
:0202C1008F119B
:1002C300E4900275F07BFF7A1479FCFDFF120D10A8
:1002D30053A01F7F901203CB6005120440800312CA
:1002E30004481205DC12043005117F881203CB6029
:1002F3000512044080031204481205DC1204300581
:10030300117F981204601203FF60051204508003EA
:100313001204581205DC7F5D1205DC7F201205DC18
:100323007F201205DC05117F9412039260051204ED
:100333005080031204581205DC7F5D1205DC0511A1
:100343007F8C12039260097F4F1205DC7F4B80077D
:100353007F581205DC7F581205DC7F5D1205DC0532
:10036300117F9C1204607F201205DC1203FF6009D9
:100373007F4F1205DC7F4B80077F581205DC7F58C7
:0E0383001205DC7F5D1205DC53A01F43A0A015
:10039100221204607F201205DCE51175F00A842425
:1003A10030FF1205DCE51175F00A84E5F02430FF19
:1003B1001205DC7F3A1205DC7F5B1205DC740A252D
:1003C10011F582E43402F583E022120460E511752F
:1003D100F00A842430FF1205DCE51175F00A84E58A
:1003E100F02430FF1205DC7F3A1205DC7F5B120539
:1003F100DC740A2511F582E43402F583E022E5116B
:1004010075F00A842430FF1205DCE51175F00A84C9
:10041100E5F02430FF1205DC7F3A1205DC7F5B1228
:1004210005DC740A2511F582E43402F583E0227FAC
:100431005D1205DC7F201205DC7F201205DC227FA6
:100441004F1205DC7F4B227F581205DC7F58227F3B
:0F0451004F1205DC7F4B227F581205DC7F5822AB
:1011E4008040AF101202C1AE18AF19EF7806CEC31B
:1011F40013CE13D8F930E011AE18AF198E18EF548E
:10120400BFF519120868EF70FA120868EF14602B22
:1012140024FD601304701F74062510F510D394394F
:1012240040C0E4F51080BBE510C3940640B474FAE2
:0B1234002510F51080AC120DA580A75E
:01123F00228C
:10163B004102740041025A00420272000041026FE3
:09164B000041027100410270002F
:10111F00E0FF04F074762FF582E43402F583740255
:10112F00F0900275E0FF04F074762FF582E434023C
:10113F00F58322AE1AAF1B8E1AEF54FBF51B9002EC
:10114F006FE4F0AE1AAF1B8E1AEF2254EFF51BAE01
:10115F001CAF1D8E1CEF2274A5F0A3745AF0A3745C
:10116F00A5F0A3745AF0A322900275E0FE04F07468
:03117F00762E22A7
:100BC700E4900275F012111F7420F07F06120C5684
:100BD700EFF07F05120C56EFF07F04120C6B121129
:100BE7003AEFF07F03121620900291EFF0E05407DE
:100BF700F0E0FF12117712113AEFF07F02120C6B3F
:100C070012113AEFF07F0112162012117712113AE2
:100C1700EFF0E4FF121620EF547FFF121177121145
:100C27003AEFF0900275E0247612113AE0041211BF
:100C37002F7401F090027512111F7403F07B017A73
:0F0C47000279767D0C1212D57F0A7E0002158D80
:100C5600121620900275E0FE04F074762EF582E4FA
:100C66003402F58322121620900275E0FE04F07419
:030C7600762E22B5
:081293008B218A2289238D249E
:10129B007F017E0012158DE4F525E525C3952450BD
:1012AB0017AB21AA22A923852582758300120F6112
:1012BB00FF120026052580E2AE1AAF1BEF7806CE93
:0912CB00C313CE13D8F920E0EFA3
:0112D40022F7
:0812D5008B128A1389148D1598
:1012DD007F017E0012158DE4F516E516C3951550A8
:1012ED0017AB12AA13A914851682758300120F610C
:1012FD00FF1215E7051680E2AE1AAF1BEF7807CE89
:09130D00C313CE13D8F920E0EF60
:0113160022B4
:10002600AD07AE1AAF1BEF7806CEC313CE13D8F9C1
:0D00360020E0EF1211524440F51B8D99227D
:1015E700AD07AE1AAF1BEF7807CEC313CE13D8F9EA
:0D15F70020E0EF1211524480F51B8D9B2265
:10149F009002467402F0A312116612116674FFF0E7
:1014AF00A3EFF0A37403F07B017A0279467D0C124F
:0914BF0012D57F0A7E0002158D92
:03002300020A4787
:100A4700C0E0C083C082C0D075D000C000C005C060
:030A570006C007CF
:100A5A00C2AF43C110209803020AEBC298AD999025
:100A6A00026FE4F0AE1CAF1DEF30E075AE1AAF1B9B
:100A7A00EF7802CEC313CE13D8F930E04E90027449
:100A8A00E0FF04F0745B2FF582E43402F583EDF0A5
:100A9A00900274E0640B7049E0245AF582E434024F
:100AAA00F583E0AE1AAF1BB4030E8E1AEF44101290
:100ABA00115C54FEF51D800A8E1AEF12115A440178
:100ACA00F51D12114254FEF51B8016BD02131211B8
:100ADA00524401F51B1211524404F51B900274E4AE
:0F0AEA00F0309909C29912115254BFF51BD2AFC7
:100AF900D007D006D005D000D0D0D082D083D0E0A6
:010B090032B9
:03004300020B0AA3
:0B0B0A00C0E0C083C082C0D075D008DE
:100B1500C2AF43C110E59A20E003020BAD539AFE24
:100B2500AD9B900271E4F0AE1AAF1BEF7803CEC314
:100B350013CE13D8F930E05A90025AE0FF04F0744E
:100B4500462FF582E43402F583EDF090025AE06415
:100B55000B7055E02445F582E43402F583E0AE1AC6
:100B6500AF1BB4030E8E1AEF442012115C54FDF531
:100B75001D800C8E1AEF54DF12115C4402F51D1214
:100B8500115254F7F51B90027112115054FDF51BCB
:100B95008016BD02131211524402F51B1211524464
:100BA50008F51B90025AE4F0E59A30E10A539AFDE4
:090BB500121152547FF51BD2AF5E
:090BBE00D0D0D082D083D0E03207
:03000B0002096285
:10096200C0E0C0F0C083C082C0D075D000C000C05B
:1009720006C00743C110758AFB758CDB900272E4D6
:1009820075F001120F8EFED3E5F0940AEE9400404A
:1009920028900272E4F0A3F012115E4404F51D9057
:1009A2000270E0FF04F0EFD39464400DE4F0AE185F
:1009B200AF198E18EF4480F519AE1AAF1BEF30E075
:1009C2002490026FE0FF04F0EFC394054017121168
:1009D2005212115A4401F51DE4F0900274F0121102
:1009E2004254FEF51BAE1AAF1BEEC313EF1330E0F9
:1009F20043900271E0FF04F0EFC394054036AE1A53
:100A0200AF1BEF7803CEC313CE13D8F930E00C122C
:100A12001152442012115C54FDF51D900271E4F054
:100A220090025A12115154F7F51B90027112115093
:100A320054FDF51BD007D006D000D0D0D082D08391
:050A4200D0F0D0E0320D
:101685008FC48EC375C65A75C6A5227400252AF562
:081695008274003529F583225F
:060EC1008E268F278D280C
:100EC700E4F529F52AAF2AAE291216F9121690EF82
:100ED700F0052AE52A70020529C3E529940240E5B1
:100EE700E4FFFE12173DE4F529F52AAF2AAE2912D1
:100EF70016F9EFF47048052AE52A70020529C3E5BB
:100F070029940240E67F0A7E0012158D740025277A
:100F1700F58274003526F583E528F0E4F529F52AEE
:100F2700121690E0FDAF2AAE291216B4052AE52A5B
:100F370070020529C3E529940240E57F01227F005D
:010F47002287
:10000E00AE071FEE600DE4FCFD0DED70010C4C60B3
:03001E00EF80F67A
:0100210022BC
:0D173000E4F5C7F5C5F5C675C380F5C42204
:0F16F90075C78275C50112168500AFC212173072
:0117080022BE
:1016B40075C78275C5028FC48EC38DC21216890088
:0316C400021730DA
:0D173D0075C78275C50312168500021730AE
:03000000020E35B8
:0C0E3500787FE4F6D8FD75812A020E7C5F
:100F4800BB010689828A83E0225002E722BBFE02A7
:090F5800E32289828A83E49322DA
:100F6100BB010CE58229F582E5833AF583E0225045
:100F710006E92582F8E622BBFE06E92582F8E2228F
:0D0F8100E58229F582E5833AF583E49322A9
:100F8E00A3F8E0C5F025F0F0E58215827002158316
:060F9E00E0C838F0E82273
:100FA400D083D082F8E4937012740193700DA3A3DC
:100FB40093F8740193F5828883E4737402936860F0
:060FC400EFA3A3A380DFF0
:100E41000217A5E493A3F8E493A34003F68001F20B
:100E510008DFF48029E493A3F85407240CC8C333B2
:100E6100C4540F4420C8834004F456800146F6DF81
:100E7100E4800B010204081020408090163BE47EC0
:100E8100019360BCA3FF543F30E509541FFEE49376
:100E9100A360010ECF54C025E060A840B8E493A33D
:100EA100FAE493A3F8E493A3C8C582C8CAC583CA68
:100EB100F0A3C8C582C8CAC583CADFE9DEE780BE20
:011654000095
:00000001FF
