:03000000020CF1FE
:0C0CF100787FE4F6D8FD75812E020D38E6
:08000300EFC43354E042A022D7
:1004B000E4F521F522F52343A00FF52275230AE583
:1004C000231523AE22700215224E70030205DF7F32
:1004D000017E0012122DE5A0540FF521640F60DF9C
:1004E000E52124F5604824FE607B14700302059C1E
:1004F000240760030205DC752200752364E52345AB
:1005000022601AE5231523700215227F017E001256
:10051000122DE5A0540F640760E37F0422D3E52386
:10052000945AE522940040037F00227F0422752222
:1005300000752364E5234522601AE5231523700224
:1005400015227F017E0012122DE5A0540F640B606E
:10055000E37F0322D3E523945AE522940040037FEE
:1005600000227F0322752200752364E52345226063
:100570001AE5231523700215227F017E0012122D29
:10058000E5A0540F640D60E37F0222D3E523945A63
:10059000E522940040037F00227F022275220A7523
:1005A00023F0E5234522601AE52315237002152266
:1005B0007F017E0012122DE5A0540F640E60E37FD0
:1005C0000122D3E52394E6E522940A40037F00222A
:1005D000E523452270037F05227F01227F00227FD1
:0105E000001A
:0105E10022F7
:10122D00EF1FAA0670011E4A6013E4FCFDC3ED9486
:0D123D001CEC940250EA0DBD00010C80F085
:01124A002281
:0B137D00EF1FAC0670011E4C70F62242
:100F72002A2A2A2A2A2A2A003031323334353637AD
:100F820038392D26484C52534F4644545142554904
:100F920043502A2345003F065B4F666D7D077F6FF6
:100FA20040467638506D5C715E78737C3E063973CC
:030FB20000FF79C4
:080D7D008B228A2389248D25B5
:100D85005380FD0000E4900253F0900253E0FFC34E
:100D950095255055AB22AA23A9248F82758300126D
:100DA5000FB5FF900255F0121267900255EFF0E46F
:100DB500900254F05380FB0000900255E0FF30E7AD
:100DC5000543800180035380FE000043800400003A
:100DD500EF25E0900255F0900254E004F0E0B408ED
:100DE500D3900253E004F080A143800200005380B9
:030DF500FD0000FE
:010DF80022D8
:10126700E4FEEE900F7A93B50707EE900F9893FF81
:07127700220EBE1FED7F00F7
:01127E00224D
:0B1388007F0A7E0012122D75BBFF22B1
:10133900438901758AFB758CDBD28CD2A9D2AF2285
:10131700759850438920758BFD758DFDD28ED2ACA3
:0113270022A3
:0D134900759A50759CB8438E1475AF012243
:10099800AE18AF198E18EF54DFF519AE18AF198ECF
:1009A80018EF54BFF519AE18AF198E18EF54FBF5B0
:1009B80019AE18AF198E18EF54FEF519AE18AF1905
:1009C8008E18EF54FDF519AE18AF198E18EF4408BC
:1009D800F519AE1AAF1B8E1AEF54FBF51BAE1AAF02
:1009E8001B8E1AEF54F7F51BAE1AAF1B8E1AEF5475
:1009F800FEF51BAE18AF198E18EF54FEF519AE1898
:100A0800AF198E18EF54FDF519AE1AAF1B8E1AEFF9
:100A18004402F51BAE18AF198E18EF54EFF51953B1
:100A2800A01F43A040758003E4FFFE1212AE90029F
:100A380057EFF07F017E001212AE900256EFF0D30E
:0E0A4800940540097D057F017E00120BC5223A
:10130500121388121317121349121339120998026E
:0213150012972D
:0613A900121305020C5EA8
:101328002020A440A447A454A57CA4ADA4BBA4E950
:011338002193
:0D135600D2C0D2C10000C2C00000C2C1223E
:0B139300C2C0D2C10000D2C000002286
:0D136300A20092C0D2C10000C2C100002251
:0B139E00D2C10000A2C0C2C1000022AA
:0C10DA00C2AF1213567FDE1210E6AF0406
:1010E600E4FEFDEF25E0FF92C0D2C10000C2C100C0
:1010F600000DBD08EE12139E5009AF060EEF941EAA
:0311060040F32291
:0111090022C3
:10002600E4FFD2C0FEEF25E0FFD2C10000A2C0E48B
:0B003600334207C2C100000EBE08EA02
:01004100229C
:10127F00AC05AB071210DAAF031210E6121393D2BC
:08128F00AF7F057E0002122D65
:100ED200900252EFF0E0C4540F2430FF900239E048
:100EE200FE04F0743C2EF582E43402F583EFF090B8
:100EF2000252E0540F2430FF900239E0FE04F074F5
:0D0F02003C2EF582E43402F583EFF07F050C
:020F0F00AC072D
:100F11001210DA1213567FDF1210E6120026D200E9
:080F2100121363121393D2AF07
:010F290022A5
:1010A5008F217F03120F0F900238EFF07D077F40ED
:1010B50012127F7F0A7E0012122D900238E054F83A
:1010C500F0E044084521F0E0FF7D0312127F7F0A1E
:0510D5007E0002122D57
:100E73008D228B23E52320E5557D0612127F7F0A01
:100E83007E0012122D7D05AF2212127F7F0A7E0093
:100E930012122D7D04AF2312127F7F0A7E001212DD
:100EA3002D7D02AF2412127F7F0A7E0012122D7D48
:100EB30001AF2512127F7F0A7E0012122DE5264410
:0F0EC30080FFE4FD12127F7F0A7E0012122D22A3
:1011C800900252E0B49903E4F022900252E0540FE6
:1011D800FFBF0907E0241054F0F022900252E00407
:0211E800F022F3
:10120C00900250E024EE600B2409700E9002507492
:10121C0010F0229002507401F022900250E004F081
:01122C00229F
:10106E00900238E024F7601324F0601624F0601923
:10107E0024F8701C9002387401F02290023874101B
:10108E00F0229002387420F0229002387430F02250
:07109E00900238E004F0228B
:10110A00900251E024F7601524F0600A24F6701466
:10111A00E4900251F0229002517420F02290025180
:0B112A007410F022900251E004F0224B
:1011EA0090023BE0B45903E4F02290023BE0540F32
:1011FA00FFBF0907E0241054F0F02290023BE004FC
:02120A00F022D0
:1011350090023AE0547FF0E0B45903E4F0229002C3
:101145003AE0540FFFBF0907E0241054F0F0229055
:06115500023AE004F02262
:101297007F011210A57524237525597526507B03E8
:0712A7007D107F14020E739D
:10004600E4900239F0E0FF04F0743C2FF582E434CA
:1000560002F5837432F0900239E0FF04F0743C2F0D
:10006600F582E43402F5837430F07F06120F0F1226
:100076000ED2900250EFF0E0C4540F2430FF9002ED
:1000860039E0FE04F0743C2EF582E43402F583EF89
:10009600F0900250E0540F2430FF900239E0FE0445
:1000A600F0743C2EF582E43402F583EFF07F0412FF
:1000B6000F0F900238EFF0E0C4540F2430FFA3E096
:1000C600FE04F0743C2EF582E43402F583EFF090E2
:1000D6000238E0540F2430FFA3E0FE04F0743C2EF7
:1000E600F582E43402F583EFF07F03120F0F9002DE
:1000F60038EFF0E05407F0E0FFA3E0FE04F0743CB4
:100106002EF582E43402F583EFF07F02120F0F9092
:100116000251EFF0E0C4540F2430FF900239E0FEA4
:1001260004F0743C2EF582E43402F583EFF090027D
:1001360051E0540F2430FF900239E0FE04F0743C85
:100146002EF582E43402F583EFF07F01120F0F9053
:10015600023BEFF0E0C4540F2430FF900239E0FE7A
:1001660004F0743C2EF582E43402F583EFF090023D
:100176003BE0540F2430FF900239E0FE04F0743C5B
:100186002EF582E43402F583EFF0E4FF120F0FEF51
:10019600547F90023AF0E0C4540F2430FF900239A5
:1001A600E0FE04F0743C2EF582E43402F583EFF0B1
:1001B60090023AE0540F2430FF900239E0FE04F03A
:1001C600743C2EF582E43402F583EFF07F031200CF
:0C01D600037B017A02793C7D0F020D7D55
:10035600E4900239F0E0FF04F0743C2FF582E434B7
:1003660002F5837432F0900239E0FF04F0743C2FFA
:10037600F582E43402F5837430F07F06120F0F1213
:100386000ED2900250EFF0E0C4540F2430FF9002DA
:1003960039E0FE04F0743C2EF582E43402F583EF76
:1003A600F0900250E0540F2430FF900239E0FE0432
:1003B600F0743C2EF582E43402F583EFF07F0412EC
:1003C6000F0F900238EFF0E0C4540F2430FFA3E083
:1003D600FE04F0743C2EF582E43402F583EFF090CF
:1003E6000238E0540F2430FFA3E0FE04F0743C2EE4
:1003F600F582E43402F583EFF07F03120F0F9002CB
:1004060038EFF0E05407F0E0FFA3E0FE04F0743CA0
:100416002EF582E43402F583EFF07F02120F0F907F
:100426000251EFF0E0C4540F2430FF900239E0FE91
:1004360004F0743C2EF582E43402F583EFF090026A
:1004460051E0540F2430FF900239E0FE04F0743C72
:100456002EF582E43402F583EFF07F01120F0F9040
:10046600023BEFF0E0C4540F2430FF900239E0FE67
:1004760004F0743C2EF582E43402F583EFF090022A
:100486003BE0540F2430FF900239E0FE04F0743C48
:100496002EF582E43402F583EFF07F031200037B2E
:0A04A600017A02793C7D0D020D7D04
:1008BC00E4900239F0E0FF04F0743C2FF582E4344C
:1008CC0002F5837432F0900239E0FF04F0743C2F8F
:1008DC00F582E43402F5837430F07F06120F0F12A8
:1008EC000ED2900250EFF0E0C4540F2430FF90026F
:1008FC0039E0FE04F0743C2EF582E43402F583EF0B
:10090C00F0900250E0540F2430FF900239E0FE04C6
:10091C00F0743C2EF582E43402F583EFF07F041280
:10092C000F0F900238EFF0E0C4540F2430FFA3E017
:10093C00FE04F0743C2EF582E43402F583EFF09063
:10094C000238E0540F2430FFA3E0FE04F0743C2E78
:10095C00F582E43402F583EFF07F03120F0F90025F
:10096C0038EFF0E05407F0E02430FFA3E0FE04F091
:10097C00743C2EF582E43402F583EFF07F03120011
:0C098C00037B017A02793C7D09020D7D9D
:100A5600E4900239F0E0FF04F0743C2FF582E434B0
:100A660002F5837432F0900239E0FF04F0743C2FF3
:100A7600F582E43402F5837430F07F06120F0F120C
:100A86000ED2900250EFF0E0C4540F2430FF9002D3
:100A960039E0FE04F0743C2EF582E43402F583EF6F
:100AA600F0900250E0540F2430FF900239E0FE042B
:100AB600F0743C2EF582E43402F583EFF07F0412E5
:100AC6000F0F900238EFF0E0C4540F2430FFA3E07C
:100AD600FE04F0743C2EF582E43402F583EFF090C8
:100AE6000238E0540F2430FFA3E0FE04F0743C2EDD
:100AF600F582E43402F583EFF07F031200037B01F5
:090B06007A02793C7D08020D7DA4
:100DF900E4900239F0E0FF04F0743C2FF582E4340A
:100E090002F5837432F0900239E0FF04F0743C2F4C
:100E1900F582E43402F5837430F07F06120F0F90E7
:100E29000252EFF0E0C4540F2430FF900239E0FE83
:100E390004F0743C2EF582E43402F583EFF090025D
:100E490052E0540F2430FF900239E0FE04F0743C64
:100E59002EF582E43402F583EFF07F031200037B61
:0A0E6900017A02793C7D04020D7D40
:060B0F008B21AC05AD07CF
:100B1500E4900239F0FFED24FDFEEFC39E501790DF
:100B25000239E0FE04F0743C2EF582E43402F583CC
:100B3500742AF00F80E0AE1AAF1BEF7805CEC31311
:100B4500CE13D8F930E024EC75F064842430FF909E
:100B55000239E0FE04F0743C2EF582E43402F5839C
:100B6500EFF0EC75F06484E5F08015900239E0FF54
:100B750004F0743C2FF582E43402F5837450F0ECF4
:100B850075F00A842430FF900239E0FE04F0743CCD
:100B95002EF582E43402F583EFF0EC75F00A84E576
:100BA500F02430FF900239E0FE04F0743C2EF5820B
:100BB500E43402F583EFF07B017A02793C020D7D86
:0E11A4004102560141025700012C00012D00AE
:100C5E001204B0BF05031201E2AE1AAF1BEEC4F8C8
:100C6E0054F0C8EFC4540F4830E00E12115BAE1AA8
:100C7E00AF1B8E1AEF54EFF51BAE1AAF1BEF30E021
:100C8E00CF90020AE064A5703EA3E0645A7038A3C8
:100C9E00E064A57032A3E0645A702CA3E064A570E2
:100CAE0026A3E0645A7020A3E0B4A51BA3E0B45AB7
:100CBE0016A3E0B4FF11900257E0FF900213E0B5C7
:100CCE000708120F2A8003121180AE1AAF1B8E1A5C
:100CDE00EF54FEF51BAE1AAF1B8E1AEF4402F51B36
:030CEE00020C5E97
:1011800090020EE0FF1210A590020BE0FFA3E0FD1D
:10119000A3E0FB90020FE0F524A3E0F525A3E0F522
:0411A00026020E73A2
:10115B00900256E024FE600D14600D14600D1460B7
:10116B000D2404800C0203560208BC020A56020D21
:05117B00F912004622FC
:1001E200E4FBAD2C7F0F120B0FAE1AAF1B8E1AEF72
:1001F20054DFF51B1204B0EF70FAAE1AAF1BEF78A2
:1002020005CEC313CE13D8F930E0067B01AD2D80A5
:1002120004E4FBAD2C7F0F120B0F1204B08F2EE5FE
:100222002E24FD70030202B61470030202FF147042
:1002320003020341240470C2AE1AAF1BEF7805CE4D
:10024200C313CE13D8F930E024E52C14600F0470E8
:100252002F900257E52DF0FDE4FFFE800B90025631
:10026200E52DF0FD7F017E00120BC58013E52C14F5
:10027200600804700B9002578003900256E0F52D3F
:10028200AE1AAF1BEF7805CEC313CE13D8F95401C3
:10029200F4FF7E00EF54017805C333CE33CED8F994
:1002A200FFAC1AAD1BED54DFFDEC4EF51AED4FF528
:1002B2001B0201FCAE1AAF1BEF7805CEC313CE139F
:1002C200D8F930E029E52C1460150460030201FC22
:1002D200E52DC394FF40030201FC052D0201FCE55C
:1002E2002DC3940540030201FC052D0201FCE52CFF
:1002F200C3940A40030201FC052C0201FCAE1AAFB2
:100302001BEF7805CEC313CE13D8F930E025E52CC8
:100312001460120460030201FCE52D70030201FC6B
:10032200152D0201FCE52D640170030201FC152D5F
:100332000201FCE52C70030201FC152C0201FCAE4B
:100342001AAF1BEF7805CEC313CE13D8F930E003F2
:040352000201FC2286
:1011B2004102370041021E00420235000041023363
:0511C2000041023400B1
:081035008B278A2889298D2AE6
:10103D007F017E0012122DE4F52BE52BC3952A506E
:10104D0017AB27AA28A929852B82758300120FB506
:10105D00FF1212C5052B80E2AE18AF19EF20E0F894
:01106D002260
:080FF8008B218A2289238D243C
:101000007F017E0012122DE4F525E525C3952450BD
:1010100017AB21AA22A923852582758300120FB55B
:10102000FF12124B052580E2AE18AF19EEC313EF85
:041030001320E0F4B5
:011034002299
:1012C500AC18AD19ED20E0F8AC18AD198C18ED444B
:0612D50001F5198F9922BA
:10124B00AD07AE18AF19EEC313EF1320E0F4AE18D1
:0C125B00AF198E18EF4402F5198D9B228C
:100F2A0090020A7402F0A374A5F0A3745AF0A37491
:100F3A00A5F0A3745AF0A374A5F0A3745AF0A3748D
:100F4A00A5F0A3745AF0A374FFF0900257E0900240
:100F5A0014F0A37403F07B017A02790A7D0C120F54
:080F6A00F87F0A7E0002122D3F
:030023000206E0F2
:1006E000C0E0C083C082C0D075D000C000C005C0CB
:0306F00006C0073A
:1006F300C2AF43C1102098030207BAC298AD9990C4
:100703000233E4F0AE18AF19EF7803CEC313CE1360
:10071300D8F920E0030207BAAE18AF19EF7806CE76
:10072300C313CE13D8F930E070900237E0FF04F022
:10073300741F2FF582E43402F583EDF0900237E065
:10074300640B7073E0241EF582E43402F583E0AE9B
:1007530018AF19B403148E18EF4404F519AE18AF8B
:10076300198E18EF54F7F51980128E18EF54FBF514
:1007730019AE18AF198E18EF4408F519AE18AF1952
:100783008E18EF54BFF519900233E4F0AE18AF1989
:100793008E18EF54DFF519801EBD021BAE18AF197A
:1007A3008E18EF4420F519AE18AF198E18EF444098
:1007B300F519900237E4F030990DC299AE18AF19CC
:0907C3008E18EF54FEF519D2AFB7
:1007CC00D007D006D005D000D0D0D082D083D0E0D6
:0107DC0032EA
:030043000207DDD4
:0B07DD00C0E0C083C082C0D075D0080F
:1007E800C2AF43C110E59A20E00302089E539AFE67
:1007F800AD9B900234E4F0AE1AAF1BEF7803CEC382
:1008080013CE13D8F930E07090021EE0FF04F074A4
:100818000A2FF582E43402F583EDF090021EE064BD
:100828000B7073E02409F582E43402F583E0AE1A14
:10083800AF1BB403148E1AEF4401F51BAE1AAF1B9D
:100848008E1AEF54FDF51B80128E1AEF54FEF51B1D
:10085800AE1AAF1B8E1AEF4402F51BAE1AAF1B8EF1
:100868001AEF54F7F51B900234E4F0AE1AAF1B8E62
:100878001AEF54FBF51B801EBD021BAE1AAF1B8E70
:100888001AEF4404F51BAE1AAF1B8E1AEF4408F595
:100898001B90021EE4F0E59A30E10E539AFDAE1863
:0B08A800AF198E18EF54FDF519D2AF08
:0908B300D0D0D082D083D0E03215
:03000B000205E209
:1005E200C0E0C0F0C083C082C0D075D000C000C0DF
:1005F20006C00743C110758AFB758CDB900235E497
:1006020075F001120FE2FED3E5F0940AEE94004079
:1006120012900235E4F0A3F0AE1AAF1B8E1AEF442B
:1006220010F51BAE18AF19EF7805CEC313CE13D851
:10063200F930E044900233E0FF04F0EFC39402404B
:1006420037AE18AF198E18EF54FBF519AE18AF1963
:100652008E18EF4408F519E4F0900237F0AE18AFA7
:10066200198E18EF54BFF519900233E4F0AE18AFAB
:10067200198E18EF54DFF519AE1AAF1BEF7802CEC0
:10068200C313CE13D8F930E044900234E0FF04F0F3
:10069200EFC394024037AE1AAF1B8E1AEF54FEF529
:1006A2001BAE1AAF1B8E1AEF4402F51BE4F0900248
:1006B2001EF0AE1AAF1B8E1AEF54F7F51B900234E0
:1006C200E4F0AE1AAF1B8E1AEF54FBF51BD007D025
:0E06D20006D000D0D0D082D083D0F0D0E0325D
:060BC5008E218F228D231A
:100BCB00E4F524F525AF25AE241212AE74002525CD
:100BDB00F58274003524F583EFF00525E5257002C9
:100BEB000524C3E524940240DCE4FFFE1212F1E479
:100BFB00F524F525AF25AE241212AEEFF470510596
:100C0B0025E52570020524C3E524940240E67F0AFE
:100C1B007E0012122D74002522F58274003521F509
:100C2B0083E523F0E4F524F52574002525F582747E
:100C3B00003524F583E0FDAF25AE241212DB05252C
:100C4B00E52570020524C3E524940240DC7F0122D4
:020C5B007F0018
:010C5D002274
:10000E00AE071FEE600DE4FCFD0DED70010C4C60B3
:03001E00EF80F67A
:0100210022BC
:0D137000E4F5C7F5C5F5C675C380F5C422C8
:1012AE0075C78275C5018FC48EC375C65A75C6A51E
:0612BE0000AFC212137024
:0112C4002207
:1012DB0075C78275C5028FC48EC38DC275C65A750C
:0612EB00C6A5000213700D
:1012F10075C78275C5038FC48EC375C65A75C6A5D9
:041301000002137063
:100CFD000213A9E493A3F8E493A34003F68001F251
:100D0D0008DFF48029E493A3F85407240CC8C333F7
:100D1D00C4540F4420C8834004F456800146F6DFC6
:100D2D00E4800B01020408102040809011A4E47EA1
:100D3D00019360BCA3FF543F30E509541FFEE493BB
:100D4D00A360010ECF54C025E060A840B8E493A382
:100D5D00FAE493A3F8E493A3C8C582C8CAC583CAAD
:100D6D00F0A3C8C582C8CAC583CADFE9DEE780BE65
:0111C7000027
:100FB500BB010CE58229F582E5833AF583E02250F1
:100FC50006E92582F8E622BBFE06E92582F8E2223B
:0D0FD500E58229F582E5833AF583E4932255
:100FE200A3F8E0C5F025F0F0E582158270021583C2
:060FF200E0C838F0E8221F
:00000001FF
