:0619D400014B000144007C
:10207900D3E5139427E51294012275120175132CE7
:012089002234
:101DE2008F1175A0407F017E00121F0CE511540770
:101DF200F54BE54B4544F5807F017E00121F0C75C3
:031E0200A0A0227B
:101DBC008F1F75A0407F017E00121F0CE51F33336F
:101DCC00335438F544E544454BF5807F017E0012D1
:061DDC001F0C75A0A022FF
:100DAB00E4F511F512F51343A00FF51275130AE5CF
:100DBB00131513AE12700215124E7003020E8A1227
:100DCB000E8DF511640F60E7E51124F5603424FEF8
:100DDB00605614607924076003020E87122083E5A6
:100DEB001345126012E513151370021512120E8DB6
:100DFB00640760EB7F042212207940037F00227F7F
:100E0B000422122083E51345126012E513151370AB
:100E1B00021512120E99640B60EB7F0322122079DC
:100E2B0040037F00227F0322122083E513451260CB
:100E3B0012E513151370021512120E99640D60EB67
:100E4B007F022212207940037F00227F0222122090
:100E5B0083E5134512601AE5131513700215127F03
:100E6B00017E00121F0CE5A0540F640E60E37F019E
:100E7B002212207940037F00227F01227F00227FF4
:010E8B000066
:100E8C00227F017E00121F0CE5A0540F227F017EF1
:090E9C0000121F0CE5A0540F2206
:061B05008B1C8A1D891EE5
:101B0B001211719002B6F09002B57401F09002B50B
:101B1B00E0FFC39D5020A3E0FEAB1CAA1DA91E8FA6
:101B2B008275830012118AFFEE6F9002B6F090025D
:0B1B3B00B5E004F080D79002B6E0FF98
:011B4600227C
:101F0C00EF1FAA0670011E4A6013E4FCFDC3ED949A
:0D1F1C001CEC940250EA0DBD00010C80F099
:011F29002295
:0B212D00EF1FAC0670011E4C70F62284
:101F2A00F548AE47AF488E47EF22F546AE45AF4675
:0E1F3A008E45EF22F54AAE49AF4A8E49EF229E
:0B2138007F0A7E00121F0C75BBFF2207
:1020AC00438901758AFB758CDBD28CD2A9D2AF2205
:10208A00759850438920758BFD758DFDD28ED2AC23
:01209A002223
:0D20EC00759A50759CB8438E1475AF012293
:1016CA00121F2C54FE121F2A54FD121F2A54FB12F9
:1016DA001F2A54F7121F2A54EF121F2A54DF121F0F
:1016EA002A54BF121F2A547FF548121F4044011280
:1016FA001F3E4402121F3E54FB121F3E4404F54A89
:10170A00121F364402121F344404121F34440812B2
:10171A001F344410121F3454DF121F3454BF121FD7
:10172A00344480F5467F0C900294E4F0A3DFFCE495
:10173A00FF121DE2E490021FF07F01FE121F0C123D
:06174A001F4054F7F54AB0
:011750002276
:101E4A0012213812208A1220EC1220AC1216CAE48F
:101E5A00F5A05380F775A0A0121BCB1220210220F7
:011E6A00383F
:0621A400121E4A020CAFFE
:100EA500E0FF04F074792FF582E43402F5837402CF
:100EB500F0900278E0FF04F074792FF582E43402B3
:100EC500F5832274A02556F582E43402F583E00407
:100ED500F074A02556F582E43402F58322F583E00B
:100EE50024D0F0741E2FF582E43402F583E02290BD
:100EF5000278E0241BF582E43402F583E022F0E079
:100F0500C454F0F0E0FF2274202FF582E43402F59A
:100F150083E022900278E0241DF582E43402F58313
:100F2500E022900221E0FFA3E0FDA3E0FB90022573
:100F3500E0F514A3E0F515A3E0F51622741C2FF5D2
:100F450082E43402F583E022AE49AF4A8E49EF22AE
:100F5500900278E0FF241FF582E4340222900278A3
:100F6500E0FE04F074792E22741A2FF582E434021F
:100F7500F583E022AE45AF468E45EF2274942556A3
:100F8500F582E43402F58322F0900278E004F02241
:070F9500900278E0FFC32287
:100CAF00AE45AF46EF7807CEC313CE13D8F930E079
:100CBF000D1213BE1213BE120F79547FF546AE49B3
:100CCF00AF4AEF7802CEC313CE13D8F930E059AE46
:100CDF0045AF46EF7805CEC313CE13D8F930E005F4
:100CEF0012123D802112036EAE45AF46EF7806CE4D
:100CFF00C313CE13D8F930E00D120F7954BFF54658
:100D0F00120DABEF70FA120F4D54FBF54AAE49AF0F
:100D1F004AEF7805CEC313CE13D8F930E00A12107C
:100D2F0091120F4D54DFF54A120DABEF6401703F76
:100D3F00AE45AF46EF7805CEC313CE13D8F95401A5
:100D4F00F4FF7E00EF54017805C333CE33CED8F9CC
:100D5F00FFAC45AD46ED54DFFDEC4EF545ED4FF5DF
:100D6F0046120F4D4404F54A120F794440F546AE32
:100D7F0047AF48EEC4F854F0C8EFC4540F4820E012
:100D8F0003020CAF120046AE47AF488E47EF54EF49
:0C0D9F00F548120F4D4401F54A020CAF5C
:1000460090021FE06003020332900277E0D394141B
:100056005003020314E0945040030203149002205C
:10006600E064246003020314A3E064476003020310
:1000760014A3E064506003020314A3E06452600317
:10008600020314A3E0644D6003020314A3E0644377
:100096006003020314A3E0642C60030203147F02CE
:1000A600121DE290021F7402F01203661203667BB1
:1000B600017A027920900277E0FD121B477F0A7EC3
:1000C60000121F0C9002787407F0120F95940D50D1
:1000D60010120F0CC394305003020314120F8E80BB
:1000E600E9900227E0C394334003020314A3E0C35C
:1000F600943A4003020314A3E0C394364003020378
:1001060014A3E0C3943A4003020314A3E0C3943655
:100116004003020314A3E0C3943A4003020314907D
:1001260002787407F0120F95940D500A120F0C24E2
:10013600D0120F8D80EF900227E07010A3E0C394D9
:10014600025002801590022774018019900227E060
:10015600B4011FA3E0C394025006E02408F08025F2
:100166009002277402F0A3E0F404FFC374FE9FF02C
:100176008013900227E0B4020CE4F0A3E0F404FF3D
:10018600C374049FF0900227E0900225120F03909B
:100196000228E0FEEF4E900225F0900229E0900240
:1001A60026120F0390022AE0FEEF4E900226F090F0
:1001B600022BE0900227120F0390022CE0FEEF4E76
:1001C600900227F0E4900279F0900277E0900278AE
:1001D600F0900278E0FFD39407401C120F0CB42C69
:1001E60006900279E004F0900279E06403600890DA
:1001F6000278E014F080DA120F55F583E0C3943AE2
:100206004003020314120EE8C3943A400302031497
:10021600120F18C394334003020314120F41C39400
:10022600324003020314120EF4C3943A400302034D
:1002360014120F6DC394344003020314900278E045
:10024600120F5AF583E0C394305003020314120EC2
:10025600E8C394305003020314120F18C3943050AD
:1002660003020314120F41C3943050030203141205
:100276000EF4C394305003020314120F6DC394306E
:100286005003020314120F55120EE224D0F0741D0F
:100296002F120F1E24D0F0120F4124D0F0741B2F02
:1002A600120EFA24D0F0741A2FF582E43402120EDC
:1002B600E2900221120F03900278E0FE120F5AF527
:1002C60083E0FDEF4D900221F0741C2E120F449036
:1002D6000222120F03900278E0FE120F1CFDEF4D72
:1002E600900222F0741A2E120F70900223120F033E
:1002F600120EF4FEEF4E900223F0120F2712198110
:10030600120F4D54EFF54A7F017E00121F0C120F9B
:100316004D54F7F54A7F0A7E00121F0CE4FF121DAA
:10032600E2E490021FF07F01FE021F0C90021FE024
:10033600B401012290021FE064027023900278F05B
:10034600120F959408500A120F0C24E0120F8D809C
:0F035600EF900224E0FF121D0D120F27121981E4
:09036500227F017E00121F0C2210
:101091000556E556C3940C4003E4F556E4900278F6
:1010A100F09002797401F0A3742CF0900278740628
:1010B100F0AF5612192A7F647E00121F0CAF561230
:1010C100192A900279E07002A3E070030211539093
:1010D100027974FFF5F01211EB7F017E00121F0CF3
:1010E10075140075150075160C7B017A02790A12C8
:1010F1001477EF60CD90020AE0B402C6A3E0B4A574
:10110100C1A3E0B45ABCA3E0B4A5B7A3E0B45AB2FA
:10111100A3E0B4A5ADA3E0645A70A7A3E064A570F1
:10112100A1A3E0645A709BA3E0F47096900215E0CD
:101131006403708E900214E0B5560C120ED6E4F0E2
:10114100120F817401F022120EC8E0C39403401FF4
:101151008018900278E004F0E0C394065003021076
:0F116100A2120EC8E0C394034005120F81E4F000
:01117000225C
:1013BE00E4900278F0120EA57420F07F06121454F9
:1013CE00EFF07F05121454EFF07F04121469120E21
:1013DE00C0EFF07F03121FBD9002ACEFF0E0540798
:1013EE00F0E0FF120F62120EC0EFF07F02121469CE
:1013FE00120EC0EFF07F01121FBD120F62120EC04F
:10140E00EFF0E4FF121FBDEF547FFF120F62120EBA
:10141E00C0EFF0900278E02479120EC0E004120EB4
:10142E00B57401F0900278120EA57403F07B017A68
:10143E000279797D0C121F667F647E00121F0C7F6D
:06144E000A7E00021F0CE3
:10145400121FBD900278E0FE04F074792EF582E448
:101464003402F58322121FBD900278E0FE04F0746A
:03147400792E22AC
:07219600C1C2BBCAAB472127
:10209B00900279E0FFC3941022900278F0E4A3F051
:0120AB002212
:101CB100E49002B2F0E49002B3F0E49002B4F09048
:101CC10002B4E004F0E0B433F69002B3E004F0E0D3
:0D1CD100B440E79002B2E004F0E0B41ED889
:011CDE0022E3
:041513008E108F1196
:10151700E4F5A074801220A412209B5005121576C2
:1015270080F6E4900279F074881220A412209B5070
:101537000512157680F6E4900279F090027874909F
:10154700F0E4A3F012209B500512159080F6E4906A
:101557000279F09002787498F0E4A3F012209B507F
:0E1567000512159080F6E4900279F075A0A0B0
:1015750022900278E02FFF12077D7F201208F77F67
:10158500201208F7900279E004F022900278E02F0B
:10159500FF12077D7F201208F77F201208F79002BF
:0515A50079E004F022D2
:101D3B008D57E4F5A012077DE55775F00A84243022
:101D4B00FF1208F7E55775F00A84E5F02430FF120F
:0B1D5B0008F77F3A1208F775A0A022DD
:0A15AA008F128D138B148A15891619
:1015B400E4F5A07F01FE121F0CE512D3940340034F
:1015C400751203E513D394084003751308E5121448
:1015D40060101460131460162403701AE513248039
:1015E4008010E5132488800AE51324908004E51311
:1015F400249890028FF090028FE02513F0E0FF1200
:10160400077DAB14AA15A91612117190028EF0640D
:1016140021601C74012516F516E43515F5159002A4
:101624008EE0FF1208F77F017E00121F0C80D37F2B
:09163400017E00121F0C75A0A03C
:01163D00228A
:101BCB00E4F5A07F33121C017F3012077D121CDF5E
:101BDB007F30121C017F0112077D7F0A7E00121FCE
:101BEB000C1221647F0A7E00121F0C7F207E0012D4
:101BFB00151375A0A02212077D7F0A7E00121F0C01
:011C0B0022B6
:101CDF00E4900278F0E4900279F0E490027AF090C8
:101CEF00027AE004F0E0B433F6900279E004F0E019
:0D1CFF00B440E7900278E004F0E0B403D8B0
:011D0C0022B4
:0A2164007F3012077D7F0C02077D1B
:0A216E007F3012077D7F0802077D15
:0A2178007F3612077D7F3002077DDD
:0A2182007F3412077D7F3002077DD5
:1018C800E49002B8F01219209002B712190DC282E2
:1018D800121918121920001219189002B812190DAD
:1018E800C2829002B7E054F0FFF0A3E0C4540FF0B6
:1018F800540FF04F9002B7F07F017E0012212D9017
:0419080002B7E0FF43
:10190C0022E580F07F017E0012212D227F017E00D6
:0E191C0012212D221217D8D280D281D282221F
:0208F7008F1759
:1008F900E4900290F01217D8E51754F0900290F0A6
:10090900121217094000094410094A2009503009F8
:100919005A40095E50096460096A7009748009784F
:1009290090097EA00984B0098EC00992D00998E087
:10093900099EF0000009A6C2848002D284C2858083
:100949000AC284D2858004D284D285C286C28780B5
:100959004CC2848002D284C285800AC284D2858036
:1009690004D284D285D286C2878032C2848002D2E0
:1009790084C285800AC284D2858004D284D285C289
:1009890086D2878018C2848002D284C285800AC236
:1009990084D2858004D284D285D286D287120A6114
:1009A900C2827F057E0012212DE517C454F0900202
:1009B90090F054F0F012121709F50009F91009FF27
:1009C900200A05300A0F400A13500A19600A1F70DD
:1009D9000A29800A2D900A33A00A39B00A43C00AAD
:1009E90047D00A4DE00A53F000000A5BC284800236
:1009F900D284C285800AC284D2858004D284D285F9
:100A0900C286C287804CC2848002D284C285800A91
:100A1900C284D2858004D284D285D286C2878032AC
:100A2900C2848002D284C285800AC284D2858004AD
:100A3900D284D285C286D2878018C2848002D284A9
:100A4900C285800AC284D2858004D284D285D286A6
:070A5900D287120A61C2827C
:0F0A600022D280C281D2827F057E0012212D22F8
:02077D008F17D4
:10077F00E4900290F01217D8E51754F0900290F021
:10078F0012121707CA0007CE1007C62007D430076A
:10079F00DE4007E25007E86007EE7007F88007FCBD
:1007AF00900802A00808B00812C00816D0081CE074
:1007BF000822F00000082AC284800CC2848002D272
:1007CF0084C2858004D284D285C286C287804CC2FF
:1007DF00848002D284C285800AC284D2858004D2EA
:1007EF0084D285D286C2878032C2848002D284C2EC
:1007FF0085800AC284D2858004D284D285C286D2F3
:10080F00878018C2848002D284C285800AC284D2B3
:10081F00858004D284D285D286D2877F017E001252
:10082F00212D1208E9C2827F017E0012212DE517CA
:10083F00C454F0900290F0121217087D0008811036
:10084F00088720088D30089740089B5008A1600842
:10085F00A77008B18008B59008BBA008C1B008CB3D
:10086F00C008CFD008D5E008DBF0000008E3C28451
:10087F008002D284C285800AC284D2858004D28449
:10088F00D285C286C287804CC2848002D284C28540
:10089F00800AC284D2858004D284D285D286C28750
:1008AF008032C2848002D284C285800AC284D285FB
:1008BF008004D284D285C286D2878018C2848002F7
:1008CF00D284C285800AC284D2858004D284D28524
:0908DF00D286D2871208E9C28218
:0F08E80022C280C281D2827F017E0012212D2286
:1017D800E4900292F0A3F0900291F0121834900273
:1017E80092121845C28200007F017E0012212D123C
:1017F8001834900293121845C2820000900293E0B8
:10180800C4540FF0540FFFF0900292E054F0F04FE0
:10181800F07F017E0012212D900292E030E70C90BB
:0B1828000291E004F0E0C3941440B013
:10183300227580F0C280D281D2827F017E00122184
:0D1843002D22E580F07F017E0012212D2274
:101E28002020A440A447A454A57CA4ADA4BBA4E945
:101E3800212020A46CC4C1B373BD75AAACBA4120DB
:021E4800202157
:10185000E0FF04F0747A2FF582E43402F5837420FB
:10186000F0900279E0FF04F0747A2FF582E43402FC
:10187000F5837420F0900279E0FF04F0747A2FF57C
:1018800082E43402F58322E0C4540F2430FF900236
:1018900079E0FE04F0747A2E227421F07B017A0242
:1018A000797AE4FD22745BF0AE45AF4622EEC4F8CF
:1018B00054F0C8EFC4540F4822AE45AF468E45EFF2
:0818C00022E0241054F0F02294
:0D20F900D2C0D2C10000C2C00000C2C1228E
:0B214300C2C0D2C10000D2C0000022C8
:0D210600A20092C0D2C10000C2C1000022A0
:0B214E00D2C10000A2C0C2C1000022EC
:0C1C8100C2AF1220F97FDE121C8DAF04F0
:101C8D00E4FEFDEF25E0FF92C0D2C10000C2C1000D
:101C9D00000DBD08EE12214E5009AF060EEF941E39
:031CAD0040F322DF
:011CB0002211
:101FA100E4FFD2C0FEEF25E0FFD2C10000A2C0E4F1
:0B1FB100334207C2C100000EBE08EA68
:011FBC002202
:101FF100AC05AB07121C81AF03121C8D122143D219
:08200100AF7F057E00021F0CF9
:021FBD00AC076F
:101FBF00121C811220F97FDF121C8D121FA1D2007B
:081FCF00122106122143D2AFDA
:011FD70022E7
:101D0D008F117F03121FBD9002ACEFF07D077F4056
:101D1D00121FF17F017E00121F0C9002ACE054F8EF
:0E1D2D00F0E044084511F0E0FF7D03021FF1D5
:101981008D128B137D061219BE7D05AF121219BE81
:101991007D04AF131219C97D02AF141219C97D015B
:1019A100AF15121FF17F017E00121F0CE516448056
:1019B100FFE4FD121FF17F017E00021F0C121FF1D7
:1019C1007F017E00121F0C22121FF17F017E001287
:0319D1001F0C22C6
:101ECE009002B1E0B49903E4F0229002B1E0540F15
:0F1EDE00FFBF09041218C1229002B1E004F022E4
:101E6B009002AFE024EE600B2409700E9002AF7469
:101E7B0010F0229002AF7401F0229002AFE004F058
:011E8B002234
:101C4A009002ACE024F7601324F0601624F06019C7
:101C5A0024F8701C9002AC7401F0229002AC74104B
:101C6A00F0229002AC7420F0229002AC7430F02280
:071C7A009002ACE004F0222F
:101D66009002B0E024F7601524F0600A24F670149F
:101D7600E49002B0F0229002B07420F0229002B0FB
:0B1D86007410F0229002B0E004F02284
:101EED009002AEE0B45903E4F0229002AEE0540F3C
:0F1EFD00FFBF09041218C1229002AEE004F022C8
:101E05009002ADE0547FF0E0B45903E4F022900273
:101E1500ADE0540FFFBF09041218C1229002ADE0D6
:031E250004F022A4
:102021007F01121D0D7514237515597516507B12FC
:072031007D017F11021981FE
:10036E00E4900279F012187874321218747430F026
:10037E007F06121FBD9002B1EFF012188712187F80
:10038E00EFF09002B1E012188912187FEFF01218F8
:10039E007574A6121874747E1218607420F07F059E
:1003AE00121FBD9002AFEFF0E0D39412400374120F
:1003BE00F09002AF12188712187FEFF09002AFE0A4
:1003CE0012188912187FEFF012187574A41218748F
:1003DE0074EBF07F041205D7D3943140037431F0DF
:1003EE009002AC12188712187FEFF09002ACE01258
:1003FE00188912187FEFF012187574A412187474FD
:10040E00E9121874121899FF1215AAE4900279F0E5
:10041E00AE45AF46EEC313EF1330E00812187874F2
:10042E002BF080061218757420F07F02121FBD90FB
:10043E0002B0EFF0E0D3942340037423F09002B0A7
:10044E0012188712187FEFF09002B0E0121889127E
:10045E00187FEFF0121875743AF07F01121FBD90DD
:10046E0002AEEFF0E0D3945940037459F09002AE0F
:10047E0012188712187FEFF09002AEE01218891250
:10048E00187FEFF0121875743AF0E4FF121FBDEFEB
:10049E00547F9002ADF0E0D3945940037459F0901C
:1004AE0002AD12188712187FEFF09002ADE012180D
:1004BE008912187FEFF012186174AC121874745010
:1004CE0012187474B412187474C1F07F031205D725
:1004DE005407F0E025E0F0E0901E289312188D12DC
:1004EE00187FEFF09002ACE0901E299312188D1237
:1004FE00187FEFF01218751218997F021215AAE4E0
:10050E00900278F0900278E0FFC39410500E12180B
:10051E007C7420F0900278E004F080E812187C12CF
:10052E0018997F011215AAE4900279F01218781228
:10053E0018A5EF7802CEC313CE13D8F990027930F6
:10054E00E0121218787443121874744F12187474DF
:10055E004DF080061218507420F0121875745D124A
:10056E0018741218A5EF7803CEC313CE13D8F990D2
:10057E00027930E0121218787447121874745012FF
:10058E0018747453F080061218507420F0121875F7
:10059E00745D1218741218A51218AD90027930E01D
:1005AE0012121878744E12187474541218747450FF
:1005BE00F080061218507420F0121875745D12181F
:0905CE00601218997F030215AABE
:0A05D700121FBD9002ACEFF0E0220D
:0205E1008F1178
:1005E300E4900278F07BFF7A1E7939FDFF1215AA99
:1005F300E4F5A07F901206E8600512075D80031200
:1006030007651208F712074D05117F881206E86087
:100613000512075D80031207651208F712074D05DF
:10062300117F9812077D12071C600512076D800366
:100633001207751208F77F5D1208F77F201208F77B
:100643007F201208F705117F941206AF6005120789
:100653006D80031207751208F77F5D1208F7051105
:100663007F8C1206AF60097F4F1208F77F4B80071C
:100673007F581208F77F581208F77F5D1208F705B5
:10068300117F9C12077D7F201208F712071C600957
:100693007F4F1208F77F4B80077F581208F77F5868
:0B06A3001208F77F5D1208F775A0A099
:1006AE002212077D7F201208F7E51175F00A8424C7
:1006BE0030FF1208F7E51175F00A84E5F02430FFDB
:1006CE001208F77F3A1208F77F5B1208F774942529
:1006DE0011F582E43402F583E02212077DE51175EF
:1006EE00F00A842430FF1208F7E51175F00A84E54C
:1006FE00F02430FF1208F77F3A1208F77F5B1208DA
:10070E00F774942511F582E43402F583E022E511A5
:10071E0075F00A842430FF1208F7E51175F00A848B
:10072E00E5F02430FF1208F77F3A1208F77F5B12CC
:10073E0008F774942511F582E43402F583E0227FE4
:10074E005D1208F77F201208F77F201208F7227F2C
:10075E004F1208F77F4B227F581208F77F58227FDF
:0F076E004F1208F77F4B227F581208F77F58224F
:10123D00E4F510AF101205E1AE45AF46EF7806CEDE
:10124D00C313CE13D8F930E00D1218B954BFF546BB
:10125D00120DABEF70FA120DABEF14700302130009
:10126D0024FD601304702674062510F510C3940C2C
:10127D004012E4F510800DE510C39406400674FA93
:10128D002510F5101218B94440F54680A6AE49AFA9
:10129D004AEF7805CEC313CE13D8F930E00E1210F5
:1012AD0091AE49AF4A8E49EF54DFF54AAE47AF488C
:1012BD001218AD30E019120046AE47AF488E47EF19
:1012CD0054EFF548AE49AF4A8E49EF4401F54AAEA9
:1012DD0045AF46EF7807CEC313CE13D8F920E00300
:1012ED000212401213BE1213BE1218B9547FF546E6
:0312FD000212409A
:0113000022CA
:1019DA0041021F004102770041021E0042027400C8
:1019EA00004102700041027300410272004102711B
:0519FA0000410276002F
:101A2600AE47AF488E47EF54FBF548900270E4F09E
:101A3600AE47AF488E47EF224410F548AE49AF4A4D
:101A46008E49EF2274A5F0A3745AF0A374A5F0A3EF
:101A5600745AF0A322900277E0FF04F074202FF569
:0E1A660082E43402F58322E0FF04F0EFD32285
:081B47008B118A1289138D1421
:101B4F007F017E00121F0CE4F515E515C3951450A7
:101B5F0017AB11AA12A91385158275830012118A6A
:101B6F00FF120026051580E2AE47AF48EF7806CE8C
:091B7F00C313CE13D8F920E0EFE6
:011B8800223A
:081B89008B4C8A4D894E8D4FF3
:101B91007F017E00121F0CE4F550E550C3954F50B4
:101BA10017AB4CAA4DA94E85508275830012118A3C
:101BB100FF121F84055080E2AE47AF48EF7807CE91
:091BC100C313CE13D8F920E0EFA4
:011BCA0022F8
:10002600AD07AE47AF48EF7806CEC313CE13D8F967
:0D00360020E0EF121A364440F5488D992263
:101F8400AD07AE47AF48EF7807CEC313CE13D8F9E9
:0D1F940020E0EF121A364480F5488D9B22A4
:02192A008F111B
:10192C007F017E00121F0C90020A7402F0A3121A9F
:10193C004A121A4A74FFF0A3E511F0A37403F07B6A
:10194C00017A02790A7D0C121F667F017E00121F3C
:10195C000CE490027BF090027BE0FFC3940C5014DB
:10196C00740A2FF582E43402F583E4F090027BE0F4
:04197C0004F080E211
:011980002244
:03002300020A6F5F
:100A6F00C0E0C083C082C0D075D000C000C005C038
:030A7F0006C007A7
:100A8200C2AF43C110209803020B86C298AD999061
:100A92000270E4F0AE49AF4AEF20E003020B869009
:100AA200021FE07068AE49AF4AEEC4F854F0C8EFD6
:100AB200C4540F4830E056BD241DAE49AF4AEF780A
:100AC20003CEC313CE13D8F920E00C121A42440805
:100AD200F54A900277E4F0AE49AF4AEF7803CEC30D
:100AE20013CE13D8F920E003020B86121A5BEDF045
:100AF200640A6003020B86900277E02420121A65D2
:100B0200121A34121A3E54FEF54A020B8690021F44
:100B1200E06401606F90021FE064027067AE47AF4D
:100B220048EF7802CEC313CE13D8F930E040121A40
:100B32005BEDF0900277E0640B7049E0241FF582D0
:100B4200E43402F583E0AE47AF48B4030C8E47EFBE
:100B5200121A3E54FEF54A800C8E47EF54EF121AD9
:100B6200404401F54A121A2654FEF5488016BD0289
:100B720013121A364401F548121A364404F5489005
:100B82000277E4F0309909C299121A3654BFF54837
:020B9200D2AFE0
:100B9400D007D006D005D000D0D0D082D083D0E00A
:010BA400321E
:03004300021301A4
:0B130100C0E0C083C082C0D075D008DF
:10130C00C2AF43C110E59A20E0030213A4539AFE26
:10131C00AD9B900273E4F0AE47AF48EF7803CEC3B9
:10132C0013CE13D8F930E05A90021EE0FF04F0748B
:10133C000A2FF582E43402F583EDF090021EE0648E
:10134C000B7055E02409F582E43402F583E0AE47D6
:10135C00AF48B4030E8E47EF4420121A4054FDF5EB
:10136C004A800C8E47EF54DF121A404402F54A12A1
:10137C001A3654F7F548900273121A3454FDF54896
:10138C008016BD0213121A364402F548121A36445E
:10139C0008F54890021EE4F0E59A30E10A539AFDF4
:0913AC00121A36547FF548D2AF45
:0913B500D0D0D082D083D0E03208
:03000B00020BA540
:100BA500C0E0C0F0C083C082C0D075D000C000C016
:100BB50006C00743C110758AFB758CDB900274E48F
:100BC50075F001121201FED3E5F0940AEE9400408F
:100BD5004B900274E4F0A3F0121A424404F54A90D3
:100BE5000272121A6D941E400DE4F0AE45AF468EAA
:100BF50045EF4480F546900271121A6D94C840097C
:100C0500E4F0121A424410F54A900276121A6D94D5
:100C15000A4009E4F0121A424420F54AAE47AF48AB
:100C2500EF30E026900270E0FF04F0EFC39405403A
:100C350019121A3654EF121A404401F54AE4F0909D
:100C45000277F0121A2654FEF548AE47AF48EEC3B8
:100C550013EF1330E043900273E0FF04F0EFC39409
:100C6500054036AE47AF48EF7803CEC313CE13D851
:100C7500F930E00C121A364420121A4054FDF54A98
:100C8500900273E4F090021E121A3554F7F548905D
:100C95000273121A3454FDF548D007D006D000D09F
:0A0CA500D0D082D083D0F0D0E0322E
:102009008FC48EC375C65A75C6A52274002555F5A9
:082019008274003554F58322A6
:061751008E518F528D53F2
:10175700E4F554F555AF55AE541220BC122014EFE2
:10176700F00555E55570020554C3E554940240E56C
:10177700E4FFFE122120E4F554F555AF55AE54129F
:1017870020BCEFF470480555E55570020554C3E5D4
:1017970054940240E67F0A7E00121F0C7400255203
:1017A700F58274003551F583E553F0E4F554F555AA
:1017B700122014E0FDAF55AE541220660555E555CD
:1017C70070020554C3E554940240E57F01227F006F
:0117D70022EF
:10000E00AE071FEE600DE4FCFD0DED70010C4C60B3
:03001E00EF80F67A
:0100210022BC
:0D211300E4F5C7F5C5F5C675C380F5C42217
:0F20BC0075C78275C50112200900AFC21221132A
:0120CB0022F2
:1020660075C78275C5028FC48EC38DC212200D003E
:0320760002211331
:0D21200075C78275C5031220090002211346
:08000300C0C0C0C0C0C0C0C0F5
:1019FF0020232100080010A7625BF80322F800479C
:101A0F00B610181D1CC700B2EA2A001159813509FA
:061A1F0006060405000CA0
:10204F0090027DE0AB14AA15A91622C3900280E07E
:07205F009F90027FE09E222A
:101D9100E490027FF0A3F012205A5009E475F0019B
:101DA1001211EB80F2E490027FF0A3F012205A505E
:0A1DB10009E475F0011211EB80F255
:011DBB002205
:101FD800000000000000000000000000000000EF0A
:091FE8001F70011E144E70E82266
:07219D00C294C297D2942204
:0A218C0012219D7F887E13021D9131
:101C0C00E4900288F0C297900287F0EF30E704D29C
:101C1C00958002C295EF25E0FFD2970000900288D4
:101C2C00E025E0F0309603E004F0C297000090024B
:0D1C3C0087E004F0E0B408D3900288E0FFD8
:011C49002278
:1020CC00C2942096FD7F30121C0C2096FDD29422D7
:101F4800D2947F017E00121FD8C2947F017E0012B6
:0E1F58001FD8D2947F297E00121FD80220CC01
:1020DC00C2942096FD121C0CAF05121C0CD294223B
:061ABF008B138A14891547
:101AC500EF4440900286F0C2942096FD900286E095
:101AD500FF121C0CE4900285F0900285E0FFC3958F
:101AE50016501AAB13AA14A9158F8275830012110B
:0F1AF5008AFF121C0C900285E004F080DCD29472
:011B040022BE
:0B215900C2942096FD121C0CD29422B0
:101E8C00EF448090027FF0C2942096FD90027FE098
:101E9C00FF121C0CE4FF121C0C900280EFF0D29489
:011EAC002213
:061A74008B188A19891A83
:101A7A00EF44C0900280F0C2942096FD900280E06C
:101A8A00FF121C0CE490027FF090027FE0C3951BCA
:101A9A005020E4FF121C0CAB18AA19A91A90027F55
:101AAA00E0F582758300EF1211C990027FE004F01D
:041ABA0080D7D2946B
:011ABE002205
:101EAD00EF44C0900280F0C2942096FD900280E035
:101EBD00FF121C0CE4FF121C0C90027FEFF0D29469
:011ECD0022F2
:100F9C00AD217F0C1220DCAD227F0B1220DCAD23A7
:100FAC007F0C1220DCAD247F0D1220DCAD257F0ED2
:100FBC001220DCAD267F0F1220DCAD277F10122013
:100FCC00DCAD287F111220DCAD297F121220DCADA4
:100FDC002A7F131220DCAD2B7F141220DCAD2C7F6A
:100FEC000A1220DCAD2D7F151220DCAD2E7F2112D4
:100FFC0020DCAD2F7F221220DCAD307F181220DCDC
:10100C00AD317F191220DCAD327F1A1220DCAD33EA
:10101C007F1B1220DCAD347F1C1220DCAD357F1D14
:10102C001220DCAD367F231220DCAD377F2412205A
:10103C00DCAD387F251220DCAD397F261220DCADEB
:10104C003A7F291220DCAD3B7F2C1220DCAD3C7F9B
:10105C002D1220DCAD3D7F2E1220DCAD3EE4FF12C4
:10106C0020DCAD3F7F021220DCAD407F071220DC7C
:10107C00AD417F081220DCAD427F091220DCAD436C
:05108C007F060220DCDC
:101F6600AC057F3F1220DC8C167F3F121ABF7F35EF
:0E1F760012215930B3FD20B3FD7F3B022159EB
:0521AA007F3402215901
:061477008B118A1289139B
:10147D0012205312117125E025E090027EF07F3489
:10148D001221597F027E00121D9130B3167F027E0C
:10149D0000121D9190027EE014F0E0C3940150EA19
:1014AD007F00227F3B121EADEF547F60567F3F12AF
:1014BD001E8C90027DEFF0122053121171FEEFD3AE
:1014CD009E5032AB11AA12A91390027DE0F51B7F3D
:1014DD003F121A7412204F1211B77B017A02797BD9
:1014ED00751B027F3F121A747F3A12215990027CAC
:1014FD00E05480FF2212204F1211B77F3A1221596A
:05150D007F00227F00B9
:0115120022B6
:1020380012218C121F48120F9C7BFF7A00790375BE
:0720480016087F3E021ABFDB
:0300000002163EA7
:0C163E00787FE4F6D8FD75815702168510
:10117100BB010689828A83E0225002E722BBFE027C
:09118100E32289828A83E49322AF
:10118A00BB010CE58229F582E5833AF583E022501A
:10119A0006E92582F8E622BBFE06E92582F8E22264
:0D11AA00E58229F582E5833AF583E493227E
:1011B700BB010689828A83F0225002F722BBFE0117
:0211C700F32211
:1011C900F8BB010DE58229F582E5833AF583E8F05C
:1011D900225006E92582C8F622BBFE05E92582C808
:0211E900F222F0
:1011EB00C5F0F8A3E028F0C5F0F8E582158270028F
:0611FB001583E038F0222C
:10120100A3F8E0C5F025F0F0E582158270021583A0
:06121100E0C838F0E822FD
:10121700D083D082F8E4937012740193700DA3A366
:1012270093F8740193F5828883E47374029368607A
:06123700EFA3A3A380DF7A
:10164A000221A4E493A3F8E493A34003F68001F2F1
:10165A0008DFF48029E493A3F85407240CC8C333A1
:10166A00C4540F4420C8834004F456800146F6DF70
:10167A00E4800B01020408102040809019D4E47E13
:10168A00019360BCA3FF543F30E509541FFEE49365
:10169A00A360010ECF54C025E060A840B8E493A32C
:1016AA00FAE493A3F8E493A3C8C582C8CAC583CA57
:1016BA00F0A3C8C582C8CAC583CADFE9DEE780BE0F
:011A250000C0
:00000001FF
