:03000000020EB23B
:0C0EB200787FE4F6D8FD758154020EF93B
:10151600EF14600E14600F14601024037010E4F5CD
:10152600A02275A0202275A0402275A0602275A079
:02153600E022B1
:0A17E500AE077F051215168E802254
:1004B800E4F510F511F51243A00FF51175120AE5D0
:1004C800121512AE11700215114E70030205E77F66
:1004D800017E001215DFE5A0540FF510640F60DFF0
:1004E800E51024F5604824FE607B1470030205A41F
:1004F800240760030205E475110175122CE5124505
:1005080011601AE5121512700215117F017E001292
:1005180015DFE5A0540F640760E37F0422D3E512DA
:1005280094BEE511940040037F00227F04227511D8
:100538000175122CE5124511601AE51215127002A8
:1005480015117F017E001215DFE5A0540F640B60C2
:10055800E37F0322D3E51294BEE511940040037FA4
:1005680000227F032275110175122CE512451160D6
:100578001AE5121512700215117F017E001215DF9F
:10058800E5A0540F640D60E37F0222D3E51294BE08
:10059800E511940040037F00227F022275110A753D
:1005A80012F0E5124511601AE512151270021511C4
:1005B8007F017E001215DFE5A0540F640E60E37F13
:1005C8000122D3E51294E6E511940A40037F002244
:1005D800E512451170037F05227F01227F00227FEB
:0105E8000012
:0105E90022EF
:1015DF00EF1FAA0670011E4A6013E4FCFDC3ED94D1
:0D15EF001CEC940250EA0DBD00010C80F0D0
:0115FC0022CC
:0B17AE00EF1FAC0670011E4C70F6220D
:10126F002A2A2A2A2A2A2A003031323334353637AD
:10127F0038392D26484C52534F4644545142554904
:10128F0043502A2345003F065B4F666D7D077F6FF6
:10129F0040467638506D5C715E78737C3E063973CC
:0312AF0000FF79C4
:080F3E008B118A1289138D1436
:100F46005380FD0000E490023DF090023DE0FFC3B7
:100F560095145055AB11AA12A9138F8275830012EE
:100F66000E3BFF90023FF012166E90023FEFF0E448
:100F760090023EF05380FB000090023FE0FF30E716
:100F86000543800180035380FE0000438004000077
:100F9600EF25E090023FF090023EE004F0E0B40856
:100FA600D390023DE004F080A1438002000053800C
:030FB600FD00003B
:010FB9002215
:10166E00E4FEEE90127793B50707EE90129593FF76
:07167E00220EBE1FED7F00EC
:011685002242
:0B17B9007F0A7E001215DF75BBFF22C7
:10175700438901758AFB758CDBD28CD2A9D2AF2263
:10173500759850438920758BFA758DFAD28ED2AC87
:011745002281
:10090900AE4CAF4D8E4CEF54DFF54DAE4CAF4D8E26
:100919004CEF54BFF54DAE4CAF4D8E4CEF54FBF53B
:100929004DAE4CAF4D8E4CEF54FEF54DAE4CAF4D28
:100939008E4CEF54FDF54DAE4CAF4D8E4CEF440847
:10094900F54DAE4CAF4D8E4CEF54DFF54DAE4CAF7F
:100959004D8E4CEF54BFF54DAE4CAF4D8E4CEF5410
:10096900FBF54DAE4CAF4D8E4CEF54FEF54DAE4CF4
:10097900AF4D8E4CEF54FDF54DAE4CAF4D8E4CEF57
:100989004408F54DAE4CAF4D8E4CEF54EFF54D5339
:10099900A01F43A040758003E4FFFE1216B5900224
:1009A90046EFF07F017E001216B5900245EFF0D3B5
:1009B900940540097D057F017E00120D897F031290
:1009C90017E553B0BFAE4EAF4F8E4EEF54BFF54F44
:0C09D900AE4EAF4F8E4EEF4480F54F2223
:101723001217B912173512175712090912169E020A
:0217330016CCD2
:061800001217230214443C
:101746002020A440A447A454A57CA4ADA4BBA4E92E
:011756002171
:0D178700D2C0D2C10000C2C00000C2C12209
:0B17C400C2C0D2C10000D2C000002251
:0D179400A20092C0D2C10000C2C10000221C
:0B17CF00D2C10000A2C0C2C100002275
:0C141400C2AF1217877FDE121420AF0455
:10142000E4FEFDEF25E0FF92C0D2C10000C2C10082
:10143000000DBD08EE1217CF5009AF060EEF941E37
:0314400040F32254
:011443002286
:10002600E4FFD2C0FEEF25E0FFD2C10000A2C0E48B
:0B003600334207C2C100000EBE08EA02
:01004100229C
:10168600AC05AB07121414AF031214201217C4D200
:08169600AF7F057E000215DFA5
:1010FC00900224EFF0E0C4540F2430FF90020BE078
:10110C00FE04F0740E2EF582E43402F583EFF090B9
:10111C000224E0540F2430FF90020BE0FE04F07424
:0D112C000E2EF582E43402F583EFF07F050E
:02113900AC0701
:10113B001214141217877FDF121420120026D2000C
:08114B001217941217C4D2AF71
:011153002279
:1013DF008F107F0312113990020AEFF07D077F40C3
:1013EF001216867F0A7E001215DF90020AE054F86B
:1013FF00F0E044084510F0E0FF7D031216867F0AE7
:05140F007E000215DF64
:10109D008D118B12E51220E5557D061216867F0AFD
:1010AD007E001215DF7D05AF111216867F0A7E00B8
:1010BD001215DF7D04AF121216867F0A7E001215FF
:1010CD00DF7D02AF131216867F0A7E001215DF7DBB
:1010DD0001AF141216867F0A7E001215DFE5154446
:0F10ED0080FFE4FD1216867F0A7E001215DF22B7
:10153800900224E0B49903E4F022900224E0540FCE
:10154800FFBF0907E0241054F0F022900224E004C1
:02155800F0227F
:10157C00900222E024EE600B2409700E900222747B
:10158C0010F0229002227401F022900222E004F06A
:01159C00222C
:1013A80090020AE024F7601324F0601624F0601914
:1013B80024F8701C90020A7401F02290020A74103A
:1013C800F02290020A7420F02290020A7430F0226F
:0713D80090020AE004F0227C
:1014A000900223E024F7601524F0600A24F67014FB
:1014B000E4900223F0229002237420F02290022371
:0B14C0007410F022900223E004F022E0
:10155A0090020DE0B45903E4F02290020DE0540F1A
:10156A00FFBF0907E0241054F0F02290020DE004B6
:02157A00F0225D
:1014CB0090020CE0547FF0E0B45903E4F022900258
:1014DB000CE0540FFFBF0907E0241054F0F02290EA
:0614EB00020CE004F022F7
:10169E007F011213DF7513237514597515507B03D3
:0716AE007D107F1402109D66
:10004600E490020BF0E0FF04F0740E2FF582E43426
:1000560002F5837432F090020BE0FF04F0740E2F69
:10006600F582E43402F5837430F07F0612113912FA
:1000760010FC900222EFF0E0C4540F2430FF9002EF
:100086000BE0FE04F0740E2EF582E43402F583EFE5
:10009600F0900222E0540F2430FF90020BE0FE04A1
:1000A600F0740E2EF582E43402F583EFF07F04122D
:1000B600113990020AEFF0E0C4540F2430FFA3E098
:1000C600FE04F0740E2EF582E43402F583EFF09010
:1000D600020AE0540F2430FFA3E0FE04F0740E2E53
:1000E600F582E43402F583EFF07F031211399002B2
:1000F6000AEFF0E05407F0E0FFA3E0FE04F0740E10
:100106002EF582E43402F583EFF07F021211399066
:100116000223EFF0E0C4540F2430FF90020BE0FE00
:1001260004F0740E2EF582E43402F583EFF09002AB
:1001360023E0540F2430FF90020BE0FE04F0740E0F
:100146002EF582E43402F583EFF07F011211399027
:10015600020DEFF0E0C4540F2430FF90020BE0FED6
:1001660004F0740E2EF582E43402F583EFF090026B
:100176000DE0540F2430FF90020BE0FE04F0740EE5
:100186002EF582E43402F583EFF0E4FF121139EF25
:10019600547F90020CF0E0C4540F2430FF90020B01
:1001A600E0FE04F0740E2EF582E43402F583EFF0DF
:1001B60090020CE0540F2430FF90020BE0FE04F096
:1001C600740E2EF582E43402F583EFF07F031215E8
:0C01D600167B017A02790E7D0F020F3EAD
:10035E00E490020BF0E0FF04F0740E2FF582E4340B
:10036E0002F5837432F090020BE0FF04F0740E2F4E
:10037E00F582E43402F5837430F07F0612113912DF
:10038E0010FC900222EFF0E0C4540F2430FF9002D4
:10039E000BE0FE04F0740E2EF582E43402F583EFCA
:1003AE00F0900222E0540F2430FF90020BE0FE0486
:1003BE00F0740E2EF582E43402F583EFF07F041212
:1003CE00113990020AEFF0E0C4540F2430FFA3E07D
:1003DE00FE04F0740E2EF582E43402F583EFF090F5
:1003EE00020AE0540F2430FFA3E0FE04F0740E2E38
:1003FE00F582E43402F583EFF07F03121139900297
:10040E000AEFF0E05407F0E0FFA3E0FE04F0740EF4
:10041E002EF582E43402F583EFF07F02121139904B
:10042E000223EFF0E0C4540F2430FF90020BE0FEE5
:10043E0004F0740E2EF582E43402F583EFF0900290
:10044E0023E0540F2430FF90020BE0FE04F0740EF4
:10045E002EF582E43402F583EFF07F01121139900C
:10046E00020DEFF0E0C4540F2430FF90020BE0FEBB
:10047E0004F0740E2EF582E43402F583EFF0900250
:10048E000DE0540F2430FF90020BE0FE04F0740ECA
:10049E002EF582E43402F583EFF07F031215167BFE
:0A04AE00017A02790E7D0D020F3E67
:1009E500E490020BF0E0FF04F0740E2FF582E4347E
:1009F50002F5837432F090020BE0FF04F0740E2FC1
:100A0500F582E43402F5837430F07F061211391251
:100A150010FC900222EFF0E0C4540F2430FF900246
:100A25000BE0FE04F0740E2EF582E43402F583EF3C
:100A3500F0900222E0540F2430FF90020BE0FE04F8
:100A4500F0740E2EF582E43402F583EFF07F041284
:100A5500113990020AEFF0E0C4540F2430FFA3E0EF
:100A6500FE04F0740E2EF582E43402F583EFF09067
:100A7500020AE0540F2430FFA3E0FE04F0740E2EAA
:100A8500F582E43402F583EFF07F03121139900209
:100A95000AEFF0E05407F0E02430FFA3E0FE04F095
:100AA500740E2EF582E43402F583EFF07F03121500
:0C0AB500167B017A02790E7D09020F3ECB
:100AC100E490020BF0E0FF04F0740E2FF582E434A1
:100AD10002F5837432F090020BE0FF04F0740E2FE4
:100AE100F582E43402F5837430F07F061211391275
:100AF10010FC900222EFF0E0C4540F2430FF90026A
:100B01000BE0FE04F0740E2EF582E43402F583EF5F
:100B1100F0900222E0540F2430FF90020BE0FE041B
:100B2100F0740E2EF582E43402F583EFF07F0412A7
:100B3100113990020AEFF0E0C4540F2430FFA3E012
:100B4100FE04F0740E2EF582E43402F583EFF0908A
:100B5100020AE0540F2430FFA3E0FE04F0740E2ECD
:100B6100F582E43402F583EFF07F031215167B0161
:090B71007A02790E7D08020F3EA4
:100FBA00E490020BF0E0FF04F0740E2FF582E434A3
:100FCA0002F5837432F090020BE0FF04F0740E2FE6
:100FDA00F582E43402F5837430F07F0612113990F9
:100FEA000224EFF0E0C4540F2430FF90020BE0FE1D
:100FFA0004F0740E2EF582E43402F583EFF09002C9
:10100A0024E0540F2430FF90020BE0FE04F0740E2B
:10101A002EF582E43402F583EFF07F031215167B76
:0A102A00017A02790E7D04020F3EE8
:060B7A008B10AC05AD0775
:100B8000E490020BF0FFED24FDFEEFC39E501790A2
:100B9000020BE0FE04F0740E2EF582E43402F583BD
:100BA000742AF00F80E0AE4EAF4FEF7805CEC3133E
:100BB000CE13D8F930E024EC75F064842430FF9033
:100BC000020BE0FE04F0740E2EF582E43402F5838D
:100BD000EFF0EC75F06484E5F0801590020BE0FF17
:100BE00004F0740E2FF582E43402F5837450F0ECB7
:100BF00075F00A842430FF90020BE0FE04F0740EBE
:100C00002EF582E43402F583EFF0EC75F00A84E50A
:100C1000F02430FF90020BE0FE04F0740E2EF582FB
:100C2000E43402F583EFF07B017A02790E020F3E85
:0E12B200410245014102460001520001530075
:101444001205EA1204B8BF05031201E2AE4EAF4F13
:10145400EEC4F854F0C8EFC4540F4830E0E212145C
:0E146400F1AE4EAF4F8E4EEF54EFF54F80D2EB
:1005EA00AE4EAF4FEF7807CEC313CE13D8F920E043
:1005FA000302068A75130075140075150C7B017ABF
:10060A00027925120C30EF6077AE50AF518E50EF61
:10061A004401F551900225E064027057A3E064A5F5
:10062A007051A3E0645A704BA3E064A57045A3E03F
:10063A00645A703FA3E064A57039A3E0645A70332A
:10064A00A3E064A5702DA3E0645A7027A3E0B4FF69
:10065A0022900230E0B4031B900246E0FF90022F82
:10066A00E0B507121210347F647E001215DF1210F3
:10067A003480031211E57F0C900225E4F0A3DFFC1D
:10068A00AE4EAF4FEF7806CEC313CE13D8F930E093
:10069A007BAE4CAF4DEF7802CEC313CE13D8F930F0
:1006AA00E06AAE50AF518E50EF54FEF551900225DC
:1006BA00E064A5703EA3E0645A7038A3E064A570B4
:1006CA0032A3E0645A702CA3E064A57026A3E06408
:1006DA005A7020A3E0B4A51BA3E0B45A16A3E0B451
:1006EA00FF11900246E0FF90022EE0B507081210B3
:1006FA003480031211E5AE4CAF4D8E4CEF54FBF52E
:0C070A004DAE4CAF4D8E4CEF4408F54D49
:0107160022C0
:1011E500AE50AF51EF30E01890022AE0FF1213DF46
:1011F500900227E0FFA3E0FDA3E0FB90022B801601
:10120500900229E0FF1213DF900226E0FFA3E0FD24
:10121500A3E0FB90022AE0F513A3E0F514A3E0F5A3
:051225001512109D22CE
:1014F100900245E024FE600D14600D14600D14602F
:101501000D2404800C02035E0209E5020AC1020FE8
:05151100BA12004622A1
:1001E200E4FBAD527F0F120B7AAE4EAF4F8E4EEF45
:1001F20054DFF54F1204B8EF70FAAE4EAF4FEF78FE
:1002020005CEC313CE13D8F930E0067B01AD53807F
:1002120004E4FBAD527F0F120B7A1204B88F54EF35
:1002220070051205EA80F3E55424FD70030202BE54
:10023200147003020307147003020349240470BA02
:10024200AE4EAF4FEF7805CEC313CE13D8F930E0E0
:1002520024E55214600F04702F900246E553F0FD1E
:10026200E4FFFE800B900245E553F0FD7F017E0026
:10027200120D898013E55214600804700B90024637
:100282008003900245E0F553AE4EAF4FEF7805CEB6
:10029200C313CE13D8F95401F4FF7E00EF54017852
:1002A20005C333CE33CED8F9FFAC4EAD4FED54DF9C
:1002B200FDEC4EF54EED4FF54F0201FCAE4EAF4F49
:1002C200EF7805CEC313CE13D8F930E029E55214E6
:1002D20060150460030201FCE553C394FF4003026E
:1002E20001FC05530201FCE553C3940540030201DE
:1002F200FC05530201FCE552C3940A40030201FCCF
:1003020005520201FCAE4EAF4FEF7805CEC313CEBD
:1003120013D8F930E025E55214601204600302019B
:10032200FCE55370030201FC15530201FCE5536422
:100332000170030201FC15530201FCE55270030235
:1003420001FC15520201FCAE4EAF4FEF7805CEC351
:0C03520013CE13D8F930E0030201FC22A6
:0D12C00041023C0042023A000041023900A8
:08136F008B1B8A1C891D8D1ED9
:101377007F017E001215DFE4F51FE51FC3951E50A0
:1013870017AB1BAA1CA91D851F82758300120E3B74
:10139700FF1216E3051F80E2AE4CAF4DEF20E0F8D9
:0113A7002223
:081332008B108A1189128D1342
:10133A007F017E001215DFE4F514E514C3951350FE
:10134A0017AB10AA11A912851482758300120E3BDD
:10135A00FF121639051480E2AE4CAF4DEEC313EFFF
:04136A001320E0F478
:01136E00225C
:1016E300AC4CAD4DED20E0F8AC4CAD4D8C4CED4425
:0616F30001F54D8F992264
:10163900AD07AE4CAF4DEEC313EF1320E0F4AE4C43
:0C164900AF4D8E4CEF4402F54D8D9B22FE
:101034009002257402F0A374A5F0A3745AF0A3746B
:10104400A5F0A3745AF0A374A5F0A3745AF0A37482
:10105400A5F0A3745AF0A374FFF0900246E0900246
:101064002FF0A37403F0AE50AF51EF30E0127B01C8
:101074007A0279257D0C12161B7F057E000215DF8E
:1010840043B0407B017A0279257D0C1213327F0232
:091094007E001215DF53B0BF22EB
:03002300020717BA
:10071700C0E0C083C082C0D075D000C000C005C093
:0307270006C00702
:10072A00C2AF43C1102098030207F1C298AD999055
:10073A000239E4F0AE4CAF4DEF7806CEC313CE13B8
:10074A00D8F920E0030207D3AE4EAF4FEF7806CEBA
:10075A00C313CE13D8F930E07090023CE0FF04F0E6
:10076A0074252FF582E43402F583EDF090023CE023
:10077A00640B7073E02424F582E43402F583E0AE5E
:10078A004CAF4DB403148E4CEF4404F54DAE4CAF50
:10079A004D8E4CEF54F7F54D80128E4CEF54FBF50D
:1007AA004DAE4CAF4D8E4CEF4408F54DAE4CAF4DAF
:1007BA008E4CEF54BFF54D900239E4F0AE4CAF4D7C
:1007CA008E4CEF54DFF54D801EBD021BAE4CAF4D73
:1007DA008E4CEF4420F54DAE4CAF4D8E4CEF44405D
:1007EA00F54D90023CE4F030990DC299AE4CAF4DF4
:0907FA008E4CEF54FEF54DD2AF18
:10080300D007D006D005D000D0D0D082D083D0E09E
:0108130032B2
:0300430002147232
:10147200C0E0C0D075D008C2AF43C110E59A30E0D9
:1014820003539AFEE59A30E10E539AFDAE4CAF4DEE
:0E1492008E4CEF54FDF54DD2AFD0D0D0E032ED
:03000B00020CE004
:100CE000C0E0C0F0C083C082C0D075D000C000C0DA
:100CF00006C00743C110758AFB758CDB90023AE48D
:100D000075F001120E9CFED3E5F0940AEE940040BB
:100D10001290023AE4F0A3F0AE4EAF4F8E4EEF4485
:100D200010F54FAE4CAF4DEF7805CEC313CE13D8B0
:100D3000F930E044900239E0FF04F0EFC394014041
:100D400037AE4CAF4D8E4CEF54FBF54DAE4CAF4D26
:100D50008E4CEF4408F54DE4F090023CF0AE4CAF01
:100D60004D8E4CEF54BFF54D900239E4F0AE4CAFD0
:100D70004D8E4CEF54DFF54DD007D006D000D0D0CB
:090D8000D082D083D0F0D0E03223
:060D89008E108F118D1287
:100D8F00E4F513F514AF14AE131216B57400251451
:100D9F00F58274003513F583EFF00514E514700236
:100DAF000513C3E513940240DCE4FFFE12170FE4B2
:100DBF00F513F514AF14AE131216B5EFF470510509
:100DCF0014E51470020513C3E513940240E67F0A7D
:100DDF007E001215DF74002511F58274003510F5B1
:100DEF0083E512F0E4F513F51474002514F58274FD
:100DFF00003513F583E0FDAF14AE131216F9051489
:100E0F00E51470020513C3E513940240DC7F012241
:020E1F007F0052
:010E210022AE
:10000E00AE071FEE600DE4FCFD0DED70010C4C60B3
:03001E00EF80F67A
:0100210022BC
:0D17A100E4F5C7F5C5F5C675C380F5C42293
:1016B50075C78275C5018FC48EC375C65A75C6A513
:0616C50000AFC21217A1E4
:0116CB0022FC
:1016F90075C78275C5028FC48EC38DC275C65A75EA
:06170900C6A5000217A1B5
:10170F0075C78275C5038FC48EC375C65A75C6A5B6
:04171F00000217A10C
:08000300C0C0C0C0C0C0C0C0F5
:1012CD0020232100080010A7625BF80322F80047D5
:1012DD00B610181D1CC700B2EA2A00115981350934
:0612ED0006060405000CDA
:10122A00E4900241F0A3F0C3900242E09F90024191
:10123A00E09E500EA3E004F070ED900241E004F04D
:10124A0080E5E4900241F0A3F0C3900242E09F904F
:10125A000241E09E500EA3E004F070ED900241E0DE
:04126A0004F080E527
:01126E00225D
:10165500000000000000000000000000000000EF96
:091665001F70011E144E70E822F2
:0717F900C294C297D29422B2
:0A17EF001217F97F887E1302122AF8
:1012F400E4900244F0C297900243F0EF30E704D246
:10130400958002C295EF25E0FFD297000090024439
:10131400E025E0F0309603E004F0C297000090026C
:0D13240043E004F0E0B408D3900244E0FF81
:011331002299
:10176700C2942096FD7F301212F42096FDD2942267
:1015FD00D2947F017E00121655C2947F017E001297
:0E160D001655D2947F297E00121655021767DB
:10177700C2942096FD1212F4AF051212F4D29422ED
:06119F008B118A12891376
:1011A500EF444090023EF0C2942096FD90023EE04E
:1011B500FF1212F4E490023DF090023DE0FFC3956A
:1011C50014501AAB11AA12A9138F82758300120E3F
:0F11D5003BFF1212F490023DE004F080DCD29454
:0111E40022E8
:0B17DA00C2942096FD1212F4D294225B
:10159D00EF4480900241F0C2942096FD900241E00C
:1015AD00FF1212F4E4FF1212F4900242EFF0D29403
:0115BD00220B
:061154008B178A188919AF
:10115A00EF44C0900242F0C2942096FD900242E011
:10116A00FF1212F4E4900241F0900241E0C3951A92
:10117A005020E4FF1212F4AB17AA18A919900241E1
:10118A00E0F582758300EF120E7A900241E004F0D6
:04119A0080D7D29494
:01119E00222E
:1015BE00EF44C0900242F0C2942096FD900242E0A9
:1015CE00FF1212F4E4FF1212F4900241EFF0D294E3
:0115DE0022EA
:10081400AD217F0C121777AD227F0B121777AD2312
:100824007F0C121777AD247F0D121777AD257F0E3D
:10083400121777AD267F0F121777AD277F10121787
:1008440077AD287F11121777AD297F12121777AD74
:100854002A7F13121777AD2B7F14121777AD2C7FD5
:100864000A121777AD2D7F15121777AD2E7F21123F
:100874001777AD2F7F22121777AD307F18121777B5
:10088400AD317F19121777AD327F1A121777AD3356
:100894007F1B121777AD347F1C121777AD357F1D80
:1008A400121777AD367F23121777AD377F241217CF
:1008B40077AD387F25121777AD397F26121777ADBC
:1008C4003A7F29121777AD3B7F2C121777AD3C7F07
:1008D4002D121777AD3D7F2E121777AD3EE4FF1230
:1008E4001777AD3F7F02121777AD407F0712177756
:1008F400AD417F08121777AD427F09121777AD43D8
:050904007F06021777D9
:10161B00AC057F3F1217778C147F3F12119F7F35DC
:0E162B001217DA30B3FD20B3FD7F3B0217DA51
:051806007F340217DA37
:060C30008B108A118912ED
:100C3600AB13AA14A915120E2225E025E090024056
:100C4600F07F341217DA7F027E0012122A30B316B2
:100C56007F027E0012122A900240E014F0E0C39454
:100C66000150EA7F00227F3B1215BEEF547F60677A
:100C76007F3F12159D90023FEFF0AB13AA14A91502
:100C8600120E22FEEFD39E5039AB10AA11A9129074
:100C9600023FE0F51A7F3F12115490023FE0AB137A
:100CA600AA14A915120E687B017A02793D751A02FB
:100CB6007F3F1211547F3A1217DA90023EE05480B9
:100CC600FF2290023FE0AB13AA14A915120E687F0B
:090CD6003A1217DA7F00227F00B8
:010CDF0022F2
:1016CC001217EF1215FD1208147BFF7A00790375BF
:0716DC0014087F3E02119F7C
:100EBE00021800E493A3F8E493A34003F68001F232
:100ECE0008DFF48029E493A3F85407240CC8C33335
:100EDE00C4540F4420C8834004F456800146F6DF04
:100EEE00E4800B01020408102040809012B2E47ED0
:100EFE00019360BCA3FF543F30E509541FFEE493F9
:100F0E00A360010ECF54C025E060A840B8E493A3BF
:100F1E00FAE493A3F8E493A3C8C582C8CAC583CAEA
:100F2E00F0A3C8C582C8CAC583CADFE9DEE780BEA2
:0112F30000FA
:100E2200BB010689828A83E0225002E722BBFE02CE
:090E3200E32289828A83E4932201
:100E3B00BB010CE58229F582E5833AF583E022506C
:100E4B0006E92582F8E622BBFE06E92582F8E222B6
:0D0E5B00E58229F582E5833AF583E49322D0
:100E6800BB010689828A83F0225002F722BBFE0169
:020E7800F32263
:100E7A00F8BB010DE58229F582E5833AF583E8F0AE
:100E8A00225006E92582C8F622BBFE05E92582C85A
:020E9A00F22242
:100E9C00A3F8E0C5F025F0F0E58215827002158309
:060EAC00E0C838F0E82266
:00000001FF
