:0619260001280001210070
:101B1900D3E5149427E51394012275130175142C48
:011B29002299
:10194A008F1175A0407F017E00121A11E51154070C
:10195A00F528E5284521F5807F017E00121A1175C8
:03196A00A0A02218
:101900008F1275A0407F017E00121A11E512333349
:10191000335438F521E5214528F5807F017E0012FA
:061920001A1175A0A022BF
:100C2E00E4F512F513F51443A00FF51375140AE548
:100C3E00141514AE13700215134E7003020D0D121F
:100C4E000D10F512640F60E7E51224F5603424FEF2
:100C5E00605614607924076003020D0A121B23E507
:100C6E001445136012E514151470021513120D10AD
:100C7E00640760EB7F0422121B1940037F00227F62
:100C8E000422121B23E51445136012E5141514708B
:100C9E00021513120D1C640B60EB7F0322121B193D
:100CAE0040037F00227F0322121B23E514451360AD
:100CBE0012E514151470021513120D1C640D60EB61
:100CCE007F0222121B1940037F00227F0222121B79
:100CDE0023E5144513601AE5141514700215137FDD
:100CEE00017E00121A11E5A0540F640E60E37F011D
:100CFE0022121B1940037F00227F01227F00227FD8
:010D0E0000E4
:100D0F00227F017E00121A11E5A0540F227F017E6F
:090D1F0000121A11E5A0540F2284
:061678008B298A2A892B50
:10167E001213949002D8F09002D77401F09002D712
:10168E00E0FFC39D5020A3E0FEAB29AA2AA92B8F11
:10169E00827583001213ADFFEE6F9002D8F09002A8
:0B16AE00D7E004F080D79002D8E0FFE6
:0116B900220E
:101A1100EF1FAA0670011E4A6013E4FCFDC3ED949A
:0D1A21001CEC940250EA0DBD00010C80F099
:011A2E002295
:0B1BAD00EF1FAC0670011E4C70F6220A
:101A4D00F525AE24AF258E24EF22F523AE22AF234C
:0E1A5D008E22EF22F527AE26AF278E26EF222F
:0B1BB8007F0A7E00121A1175BBFF228D
:101B4C00438901758AFB758CDBD28CD2A9D2AF226A
:101B2A00759850438920758BFD758DFDD28ED2AC88
:011B3A002288
:0D1B6C00759A50759CB8438E1475AF012218
:10128600121A4F54FE121A4D54FD121A4D54FB12E7
:101296001A4D54F7121A4D54EF121A4D54DF121A02
:1012A6004D54BF121A4D547FF525121A634401128C
:1012B6001A614402121A6154FB121A614404F5279A
:1012C600121A594402121A574404121A57440812A1
:1012D6001A574410121A5754DF121A5754BF121ACB
:1012E600574480F5237F3C900276E4F0A3DFFCE4CC
:1012F600FF12194AE490021FF07F01FE121A111222
:061306001A6354F7F527FD
:01130C0022BE
:101A2F00121BB8121B2A121B6C121B4C121286E4CB
:0E1A3F00F5A05380F775A0A012173E021AEF13
:061C0100121A2F0200463A
:10103100F583E024D0F0741E2510F582E43402F526
:1010410083E022F0741C2510F582E43402F583E07C
:101051002274202510F582E43402F583E022741D08
:101061002510F582E43402F583E022741B2510F586
:1010710082E43402F583E022F0E0C454F0F0E0FFB2
:1010810022900221E0FFA3E0FDA3E0FB900225E016
:10109100F514A3E0F515A3E0F51622F0741A251056
:1010A100F582E4340222741F2510F582E434022211
:1010B100F525AE26AF278E26EF22AE22AF238E2254
:0E10C100EF227476251EF582E43402F58322B8
:10004600AE22AF23EF7807CEC313CE13D8F930E034
:100056000A120F7F1210BB547FF523AE26AF27EF8F
:100066007802CEC313CE13D8F930E041AE22AF23C7
:10007600EF7805CEC313CE13D8F930E0051215C9B3
:1000860080211203FFAE22AF23EF7806CEC313CE34
:1000960013D8F930E00D1210BB54BFF523120C2E05
:1000A600EF70FA1210B354FBF527120ECC120C2E79
:1000B600EF6401703FAE22AF23EF7805CEC313CEB7
:1000C60013D8F95401F4FF7E00EF54017805C333C9
:1000D600CE33CED8F9FFAC22AD23ED54DFFDEC4E86
:1000E600F522ED4FF5231210B34404F5271210BB89
:1000F6004440F523AE24AF25EEC4F854F0C8EFC44F
:10010600540F4820E00302004690021FE0600302FD
:1001160003AF900275E0D39414500302038CE0946D
:1001260050400302038C900220E064246003020323
:100136008CA3E06447600302038CA3E06450600371
:1001460002038CA3E06452600302038CA3E0644DB7
:10015600600302038CA3E06443600302038CA3E004
:10016600642C600302038C7F0212194A90021F74EA
:1001760002F01203EF1203EF7B017A02792090025C
:1001860075E0FD1216BA1203F7751007121052C366
:100196009430500302038C0510E510B40DEE900266
:1001A60027E0C39433400302038CA3E0C3943A4090
:1001B6000302038CA3E0C39436400302038CA3E03E
:1001C600C3943A400302038CA3E0C394364003026F
:1001D600038CA3E0C3943A400302038C7510071204
:1001E600105224D0F00510E510B40DF3900227E06C
:1001F6007010A3E0C3940250028015900227740188
:100206008019900227E0B4011FA3E0C394025006B0
:10021600E02408F080259002277402F0A3E0F4049D
:10022600FFC374FE9FF08013900227E0B4020CE433
:10023600F0A3E0F404FFC374049FF0900227E0905B
:100246000225121079900228E0FEEF4E900225F06A
:10025600900229E090022612107990022AE0FEEF21
:100266004E900226F090022BE09002271210799011
:10027600022CE0FEEF4E900227F0E4FF900275E0BC
:10028600F510E510D394074010121052B42C010F4C
:10029600EF64036004151080E91210A7F583E0C32C
:1002A600943A400302038C121037C3943A40030277
:1002B600038C12105FC39433400302038C12104563
:1002C600C39432400302038C12106CC3943A400369
:1002D60002038C12109DF583E0C39434400302039D
:1002E6008C1210A7F583E0C39430500302038C12DE
:1002F6001037C39430500302038C12105FC394303E
:10030600500302038C121045C39430407912106CCE
:10031600C39430407112109DF583E0C3943040665B
:100326001210A712103124D0F012105F24D0121030
:100336004424D0F012106C24D012109C121031906C
:1003460002211210791210A7F583E0FEEF4E9002FB
:100356002112104490022212107912105FFEEF4E05
:1003660090022212109CF583E0900223121079125B
:10037600106CFEEF4E900223F01210821216257FAB
:10038600017E00121A111210B354F7F5271203F763
:10039600E4FF12194AE490021FF07F01FE121A11BF
:1003A6007F0A7E00121A11802D90021FE064016000
:1003B6002590021FE06402701DF51012105224E011
:1003C600F00510E510B408F3900224E0FF12187C43
:1003D600121082121625AE24AF258E24EF54EF128A
:0903E60010B14401F527020046A4
:1003EF007F017E00121A11227F0A7E00121A11223B
:100ECC00E51EC3941E5004051E8003E4F51EE49039
:100EDC0002B2F09002B2E0FFC394064003020F7915
:100EEC001219007F027E00121A11AF1E12177F908A
:100EFC0002B37432F09002B3E0606914F07F017EAB
:100F0C0000121A11AE24AF25EF7805CEC313CE1301
:100F1C00D8F930E0E0AE24AF258E24EF54DF121068
:100F2C00B14402F52790020AE0B4A5C9A3E0B45A73
:100F3C00C4A3E0B4A5BFA3E0B45ABAA3E0B4A5B56A
:100F4C00A3E0B45AB0A3E064A570AAA3E0645A70FD
:100F5C00A4A3E0F4709FA3E0B51E071210C37401A4
:100F6C00F02280099002B2E004F0020EDF1210C3EE
:020F7C00E4F09F
:010F7E002250
:07000300C1C2BBCAAB4721DB
:101B3B009002B3E0FFC39410229002B2F0E4A3F042
:011B4B002277
:10182000E49002D4F0E49002D5F0E49002D6F09077
:1018300002D6E004F0E0B433F69002D5E004F0E024
:0D184000B440E79002D4E004F0E0B41ED8FC
:01184D002278
:0410CF008E108F11DF
:1010D300E4F5A07480121B44121B3B50051211321D
:1010E30080F6E49002B3F07488121B44121B3B5049
:1010F3000512113280F6E49002B3F09002B27490BC
:10110300F0E4A3F0121B3B500512114C80F6E4905F
:1011130002B3F09002B27498F0E4A3F0121B3B50B8
:0E1123000512114C80F6E49002B3F075A0A006
:10113100229002B2E02FFF1208167F201209927F3F
:10114100201209929002B3E004F0229002B2E02F43
:10115100FF1208167F201209927F20120992900235
:05116100B3E004F022E0
:1018AA008D1FE4F5A0120816E51F75F00A8424308E
:1018BA00FF120992E51F75F00A84E5F02430FF1241
:0B18CA0009927F3A12099275A0A0223B
:0A1166008F138D148B158A1689175C
:10117000E4F5A07F01FE121A11E513D39403400396
:10118000751303E514D394084003751408E513148C
:1011900060101460131460162403701AE514248080
:1011A0008010E5142488800AE51424908004E51456
:1011B00024989002C9F09002C9E02514F0E0FF12D3
:1011C0000816AB15AA16A9171213949002C8F0645A
:1011D00021601C74012517F517E43516F5169002E9
:1011E000C8E0FF1209927F017E00121A1180D37F9E
:0911F000017E00121A1175A0A085
:0111F90022D3
:10173E00E4F5A07F331217747F3012081612184E7C
:10174E007F301217747F011208167F0A7E00121A5C
:10175E0011121BD97F0A7E00121A117F207E0012F1
:10176E0010CF75A0A0221208167F0A7E00121A1141
:01177E002248
:10184E00E49002B2F0E49002B3F0E49002B4F090AF
:10185E0002B4E004F0E0B433F69002B3E004F0E03A
:0D186E00B440E79002B2E004F0E0B403D80B
:01187B00224A
:0A1BD9007F301208167F0C02081678
:0A1BE3007F301208167F0802081672
:0A1BED007F361208167F300208163A
:0A1BF7007F341208167F3002081632
:10156700E49002DAF01215BF9002D91215ACC282CC
:101577001215B71215BF001215B79002DA1215AC83
:10158700C2829002D9E054F0FFF0A3E0C4540FF0F8
:10159700540FF04F9002D9F07F017E00121BAD90DF
:0415A70002D9E0FF86
:1015AB0022E580F07F017E00121BAD227F017E00C1
:0E15BB00121BAD22121416D280D281D28222CF
:020992008F18BC
:10099400E49002CAF0121416E51854F09002CAF05A
:1009A4001213F009DB0009DF1009E52009EB300917
:1009B400F54009F95009FF600A05700A0F800A130F
:1009C400900A19A00A1FB00A29C00A2DD00A33E0E0
:1009D4000A39F000000A41C2848002D284C28580B0
:1009E4000AC284D2858004D284D285C286C287801A
:1009F4004CC2848002D284C285800AC284D285809B
:100A040004D284D285D286C2878032C2848002D244
:100A140084C285800AC284D2858004D284D285C2ED
:100A240086D2878018C2848002D284C285800AC29A
:100A340084D2858004D284D285D286D287120AFCDD
:100A4400C2827F057E00121BADE518C454F09002EB
:100A5400CAF054F0F01213F00A90000A94100A9AA3
:100A6400200AA0300AAA400AAE500AB4600ABA703A
:100A74000AC4800AC8900ACEA00AD4B00ADEC00A0A
:100A8400E2D00AE8E00AEEF000000AF6C28480022E
:100A9400D284C285800AC284D2858004D284D2855D
:100AA400C286C287804CC2848002D284C285800AF6
:100AB400C284D2858004D284D285D286C287803211
:100AC400C2848002D284C285800AC284D285800412
:100AD400D284D285C286D2878018C2848002D2840E
:100AE400C285800AC284D2858004D284D285D2860B
:070AF400D287120AFCC28246
:0F0AFB0022D280C281D2827F057E00121BAD22E3
:020816008F1839
:10081800E49002CAF0121416E51854F09002CAF0D7
:100828001213F0085F00086310086920086F300889
:100838007940087D5008836008897008938008977C
:1008480090089DA008A3B008ADC008B1D008B7E0D3
:1008580008BDF0000008C5C2848002D284C2858029
:100868000AC284D2858004D284D285C286C2878097
:100878004CC2848002D284C285800AC284D2858018
:1008880004D284D285D286C2878032C2848002D2C2
:1008980084C285800AC284D2858004D284D285C26B
:1008A80086D2878018C2848002D284C285800AC218
:1008B80084D2858004D284D285D286D2877F017E75
:1008C80000121BAD120984C2827F017E00121BAD8B
:1008D800E518C454F09002CAF01213F00918000980
:1008E8001C10092220092830093240093650093CD9
:1008F80060094270094C800950900956A0095CB003
:100908000966C0096AD00970E00976F00000097E1E
:10091800C2848002D284C285800AC284D2858004BF
:10092800D284D285C286C287804CC2848002D28497
:10093800C285800AC284D2858004D284D285D286B8
:10094800C2878032C2848002D284C285800AC2846F
:10095800D2858004D284D285C286D2878018C28488
:100968008002D284C285800AC284D2858004D2845F
:0B097800D285D286D287120984C28289
:0F09830022C280C281D2827F017E00121BAD2270
:10141600E49002CCF0A3F09002CBF012147290028A
:10142600CC121483C28200007F017E00121BAD1213
:1014360014729002CD121483C28200009002CDE095
:10144600C4540FF0540FFFF09002CCE054F0F04F6C
:10145600F07F017E00121BAD9002CCE030E70C90CD
:0B14660002CBE004F0E0C3941440B09F
:10147100227580F0C280D281D2827F017E00121B50
:0D148100AD22E580F07F017E00121BAD2240
:101990002020A440A447A454A57CA4ADA4BBA4E9E2
:1019A000212020A46CC4C1B373BD75AAACBA412078
:0219B0002021F4
:10150300E0FF04F074B42FF582E43402F583742011
:10151300F09002B3E0FF04F074B42FF582E43402D8
:10152300F5837420F09002B3E0FF04F074B42FF558
:1015330082E43402F58322E0C4540F2430FF900286
:10154300B3E0FE04F074B42E227421F07B017A021E
:1015530079B4E4FD22745BF0AE22AF2322E02410C1
:0415630054F0F0222E
:0D1B7900D2C0D2C10000C2C00000C2C12213
:0B1BC300C2C0D2C10000D2C00000224E
:0D1B8600A20092C0D2C10000C2C100002226
:0B1BCE00D2C10000A2C0C2C100002272
:0C17F000C2AF121B797FDE1217FCAF04A1
:1017FC00E4FEFDEF25E0FF92C0D2C10000C2C100A3
:10180C00000DBD08EE121BCE5009AF060EEF941E54
:03181C0040F32274
:01181F0022A6
:101A8800E4FFD2C0FEEF25E0FFD2C10000A2C0E40F
:0B1A9800334207C2C100000EBE08EA86
:011AA3002220
:101ABF00AC05AB071217F0AF031217FC121BC3D202
:081ACF00AF7F057E00021A1131
:021AA400AC078D
:101AA6001217F0121B797FDF1217FC121A88D20068
:081AB600121B86121BC3D2AF04
:011ABE002205
:10187C008F117F03121AA49002CEEFF07D077F40E8
:10188C00121ABF7F017E00121A119002CEE054F89A
:0E189C00F0E044084511F0E0FF7D03021ABFA2
:101625008D128B137D061216627D05AF121216629E
:101635007D04AF1312166D7D02AF1412166D7D0178
:10164500AF15121ABF7F017E00121A11E5164480EC
:10165500FFE4FD121ABF7F017E00021A11121ABFA4
:101665007F017E00121A1122121ABF7F017E00121D
:031675001A112225
:1019D3009002D3E0B49903E4F0229002D3E0540FD1
:0F19E300FFBF0904121560229002D3E004F02226
:1019B2009002D1E024EE600B2409700E9002D174E3
:1019C20010F0229002D17401F0229002D1E004F0D2
:0119D20022F2
:1017B9009002CEE024F7601324F0601624F060193B
:1017C90024F8701C9002CE7401F0229002CE74109D
:1017D900F0229002CE7420F0229002CE7430F022D2
:0717E9009002CEE004F022A3
:1018D5009002D2E024F7601524F0600A24F6701413
:1018E500E49002D2F0229002D27420F0229002D22B
:0B18F5007410F0229002D2E004F022F8
:1019F2009002D0E0B45903E4F0229002D0E0540FF8
:0F1A0200FFBF0904121560229002D0E004F02209
:10196D009002CFE0547FF0E0B45903E4F0229002EE
:10197D00CFE0540FFFBF0904121560229002CFE093
:03198D0004F02241
:101AEF007F0112187C7514237515597516507B12CA
:071AFF007D017F1102162595
:1003FF00E49002B3F012152B74321215277430F0FB
:10040F007F06121AA49002D3EFF012153A1215328A
:10041F00EFF09002D3E012153C121532EFF01215E7
:10042F002874A6121527747E1215137420F07F05F9
:10043F00121AA49002D1EFF0E0D394124003741279
:10044F00F09002D112153A121532EFF09002D1E06E
:10045F0012153C121532EFF012152874A41215273D
:10046F0074EBF07F04120670D3943140037431F0B3
:10047F009002CE12153A121532EFF09002CEE01222
:10048F00153C121532EFF012152874A412152774AB
:10049F00E912152712154CFF121166E49002B3F002
:1004AF00AE22AF23EEC313EF1330E00812152B74F7
:1004BF002BF080061215287420F07F02121AA490D8
:1004CF0002D2EFF0E0D3942340037423F09002D2D2
:1004DF0012153A121532EFF09002D2E012153C12BB
:1004EF001532EFF0121528743AF07F01121AA4900A
:1004FF0002D0EFF0E0D3945940037459F09002D03A
:10050F0012153A121532EFF09002D0E012153C128C
:10051F001532EFF0121528743AF0E4FF121AA4EF17
:10052F00547F9002CFF0E0D3945940037459F09068
:10053F0002CF12153A121532EFF09002CFE01215DA
:10054F003C121532EFF012151474AC1215277450BB
:10055F0012152774B412152774C1F07F0312067099
:10056F005407F0E025E0F0E0901990931215401237
:10057F001532EFF09002CEE09019919312154012C0
:10058F001532EFF012152812154C7F02121166E486
:10059F009002B2F09002B2E0FFC39410500E121509
:1005AF002F7420F09002B2E004F080E812152F12A1
:1005BF00154C7F01121166E49002B3F012152B1245
:1005CF001558EF7802CEC313CE13D8F99002B3307B
:1005DF00E01212152B7443121527744F121527743E
:1005EF004DF080061215037420F0121528745D1259
:1005FF001527121558EF7803CEC313CE13D8F990E1
:10060F0002B330E01212152B7447121527745012D3
:10061F0015277453F080061215037420F012152855
:10062F00745D121527121558EEC4F854F0C8EFC4B4
:10063F00540F489002B330E01212152B744E12155E
:10064F002774541215277450F08006121503742066
:10065F00F0121528745D12151312154C7F03021139
:01066F006624
:0A067000121AA49002CEEFF0E0226F
:02067A008F12DD
:10067C00E49002B2F07BFF7A1979A1FDFF121166AA
:10068C00E4F5A07F9012078160051207F680031233
:10069C0007FE1209921207E605127F881207816085
:1006AC00051207F680031207FE1209921207E605DF
:1006BC00127F981208161207B560051208068003FF
:1006CC0012080E1209927F5D1209927F2012099274
:1006DC007F2012099205127F9412074860051208B8
:1006EC0006800312080E1209927F5D120992051200
:1006FC007F8C12074860097F4F1209927F4B80074D
:10070C007F581209927F581209927F5D1209920547
:10071C00127F9C1208167F201209921207B56009ED
:10072C007F4F1209927F4B80077F581209927F5896
:0B073C001209927F5D12099275A0A0C7
:10074700221208167F20120992E51275F00A8424F6
:1007570030FF120992E51275F00A84E5F02430FFA4
:100767001209927F3A1209927F5B120992747625D9
:1007770012F582E43402F583E022120816E51275B9
:10078700F00A842430FF120992E51275F00A84E515
:10079700F02430FF1209927F3A1209927F5B120907
:1007A7009274762512F582E43402F583E022E5128D
:1007B70075F00A842430FF120992E51275F00A8455
:1007C700E5F02430FF1209927F3A1209927F5B12FB
:1007D700099274762512F582E43402F583E0227FCC
:1007E7005D1209927F201209927F20120992227FBF
:1007F7004F1209927F4B227F581209927F58227F0E
:0F0807004F1209927F4B227F581209927F58227D
:1015C9008040AF1112067AAE22AF23EF7806CEC360
:1015D90013CE13D8F930E011AE22AF238E22EF5487
:1015E900BFF523120C2EEF70FA120C2EEF14602B9C
:1015F90024FD601304701F74062511F511D3943965
:1016090040C0E4F51180BBE511C3940640B474FAF7
:0B1619002511F51180AC120ECC80A74B
:0116240022A3
:10192C0041021F004102750041021E004202730079
:0D193C000041027000410272004102710082
:10148E00E0FF04F074B32FF582E43402F5837402A6
:10149E00F09002B2E0FF04F074B32FF582E4340250
:1014AE00F58322AE24AF258E24EF54FBF525900252
:1014BE0070E4F0AE24AF258E24EF224410F525AE55
:1014CE0026AF278E26EF2274A5F0A3745AF0A374CC
:1014DE00A5F0A3745AF0A322900275E0FF04F074F5
:1014EE00202FF582E43402F583229002B2E0FE044E
:0514FE00F074B32E2282
:100F7F00E49002B2F012148E7420F07F0612100E5D
:100F8F00EFF07F0512100EEFF07F041210231214F2
:100F9F00A9EFF07F03121AA49002CEEFF0E05407EE
:100FAF00F0E0FF1214F81214A9EFF07F02121023D1
:100FBF001214A9EFF07F01121AA41214F81214A937
:100FCF00EFF0E4FF121AA4EF547FFF1214F812147B
:100FDF00A9EFF09002B2E024B31214A9E0041214A6
:100FEF009E7401F09002B212148E7403F07B017A9A
:0F0FFF000279B37D0C1216FC7F0A7E00021A11D4
:10100E00121AA49002B2E0FE04F074B32EF582E43C
:10101E003402F58322121AA49002B2E0FE04F07498
:03102E00B32E22BC
:0816BA008B118A1289138D14B3
:1016C2007F017E00121A11E4F515E515C395145039
:1016D20017AB11AA12A9138515827583001213ADD7
:1016E200FF120026051580E2AE24AF25EF7806CE64
:0916F200C313CE13D8F920E0EF78
:0116FB0022CC
:0816FC008B138A1489158D1669
:101704007F017E00121A11E4F517E517C3951650F0
:1017140017AB13AA14A9158517827583001213AD8C
:10172400FF121A6B051780E2AE24AF25EF7807CEBF
:09173400C313CE13D8F920E0EF35
:01173D002289
:10002600AD07AE24AF25EF7806CEC313CE13D8F9AD
:0D00360020E0EF1214C14440F5258D992201
:101A6B00AD07AE24AF25EF7807CEC313CE13D8F94D
:0D1A7B0020E0EF1214C14480F5258D9B2260
:10177F008F1243B0807F017E00121A1190020A74FB
:10178F0002F0A31214D51214D574FFF0A3E512F0D2
:10179F00A37403F07B017A02790A7D0C1216FC7F89
:0A17AF00017E00121A1153B07F22D0
:03002300020B0AC3
:100B0A00C0E0C083C082C0D075D000C000C005C09C
:030B1A0006C0070B
:100B1D00C2AF43C110209803020C0FC298AD99903B
:100B2D000270E4F0AE26AF27EF20E003020C0F9029
:100B3D00021FE07056BD241DAE26AF27EF7803CE01
:100B4D00C313CE13D8F920E00C1214CD4408F527A9
:100B5D00900275E4F0AE26AF27EF7803CEC313CE27
:100B6D0013D8F920E003020C0F1214E6EDF0640A1D
:100B7D006003020C0F900275E024201214F0121481
:100B8D00BF1214C954FEF527020C0F90021FE0642A
:100B9D0001606F90021FE064027067AE24AF25EF15
:100BAD007802CEC313CE13D8F930E0401214E6ED1F
:100BBD00F0900275E0640B7049E0241FF582E43477
:100BCD0002F583E0AE24AF25B4030C8E24EF12148E
:100BDD00C954FEF527800C8E24EF54EF1214CB442C
:100BED0001F5271214B154FEF5258016BD0213121E
:100BFD0014C14401F5251214C14404F52590027564
:100C0D00E4F0309909C2991214C154BFF525D2AF41
:100C1D00D007D006D005D000D0D0D082D083D0E080
:010C2D003294
:03004300020E0F9B
:0B0E0F00C0E0C083C082C0D075D008D6
:100E1A00C2AF43C110E59A20E003020EB2539AFE14
:100E2A00AD9B900272E4F0AE24AF25EF7803CEC3F7
:100E3A0013CE13D8F930E05A90021EE0FF04F07482
:100E4A000A2FF582E43402F583EDF090021EE06485
:100E5A000B7055E02409F582E43402F583E0AE24F0
:100E6A00AF25B4030E8E24EF44201214CB54FDF5A3
:100E7A0027800C8E24EF54DF1214CB4402F527127C
:100E8A0014C154F7F5259002721214BF54FDF525CA
:100E9A008016BD02131214C14402F5251214C1446E
:100EAA0008F52590021EE4F0E59A30E10A539AFD0E
:090EBA001214C1547FF525D2AFDA
:090EC300D0D0D082D083D0E032FF
:03000B00020D28BB
:100D2800C0E0C0F0C083C082C0D075D000C000C091
:100D380006C00743C110758AFB758CDB900273E40B
:100D480075F0011213DAFED3E5F0940AEE94004030
:100D580028900273E4F0A3F01214CD4404F5279010
:100D68000271E0FF04F0EFD39464400DE4F0AE228A
:100D7800AF238E22EF4480F523AE24AF25EF30E079
:100D880026900270E0FF04F0EFC394054019121496
:100D9800C154EF1214CB4401F527E4F0900275F02A
:100DA8001214B154FEF525AE24AF25EEC313EF138C
:100DB80030E043900272E0FF04F0EFC39405403640
:100DC800AE24AF25EF7803CEC313CE13D8F930E0A5
:100DD8000C1214C144201214CB54FDF52790027252
:100DE800E4F090021E1214C054F7F5259002721216
:100DF80014BF54FDF525D007D006D000D0D0D0823E
:070E0800D083D0F0D0E032EE
:101AD7008FC48EC375C65A75C6A5227400251DF519
:081AE700827400351CF5832216
:06130D008E198F1A8D1BE2
:10131300E4F51CF51DAF1DAE1C121B5C121AE2EFA7
:10132300F0051DE51D7002051CC3E51C940240E594
:10133300E4FFFE121BA0E4F51CF51DAF1DAE1C124D
:101343001B5CEFF47048051DE51D7002051CC3E529
:101353001C940240E67F0A7E00121A117400251ABB
:10136300F58274003519F583E51BF0E4F51CF51DD2
:10137300121AE2E0FDAF1DAE1C121B06051DE51D92
:101383007002051CC3E51C940240E57F01227F0027
:011393002237
:10000E00AE071FEE600DE4FCFD0DED70010C4C60B3
:03001E00EF80F67A
:0100210022BC
:0D1B9300E4F5C7F5C5F5C675C380F5C4229D
:0F1B5C0075C78275C501121AD700AFC2121B934D
:011B6B002257
:101B060075C78275C5028FC48EC38DC2121ADB00DB
:031B1600021B931C
:0D1BA00075C78275C503121AD700021B938A
:030000000211FAF0
:0C11FA00787FE4F6D8FD75812B021241CD
:10139400BB010689828A83E0225002E722BBFE0257
:0913A400E32289828A83E493228A
:1013AD00BB010CE58229F582E5833AF583E02250F5
:1013BD0006E92582F8E622BBFE06E92582F8E2223F
:0D13CD00E58229F582E5833AF583E4932259
:1013DA00A3F8E0C5F025F0F0E582158270021583C6
:0613EA00E0C838F0E82223
:1013F000D083D082F8E4937012740193700DA3A38C
:1014000093F8740193F5828883E47374029368609F
:06141000EFA3A3A380DF9F
:10120600021C01E493A3F8E493A34003F68001F2E1
:1012160008DFF48029E493A3F85407240CC8C333E9
:10122600C4540F4420C8834004F456800146F6DFB8
:10123600E4800B0102040810204080901926E47E09
:10124600019360BCA3FF543F30E509541FFEE493AD
:10125600A360010ECF54C025E060A840B8E493A374
:10126600FAE493A3F8E493A3C8C582C8CAC583CA9F
:10127600F0A3C8C582C8CAC583CADFE9DEE780BE57
:01194900009D
:00000001FF
