:0642F700011B0001100094
:1054AE00FA900371E0FEA3E0FF022353D3E5469486
:1054BE00BEE545940022D3E546946EE5459405225B
:0D58960075A0600000C28712552CD2872239
:105405008F4475A0407F017E0012552CE54454075A
:10541500F51BE51B4510F5807F017E0012552C75A7
:03542500A0A02222
:105394008F4475A0407F017E0012552CE5443333C1
:1053A400335438F510E510451BF5807F017E00125B
:0653B400552C75A0A0229B
:064F25008B578A588959E0
:104F2B001222D99003A4F09003A37401F09003A371
:104F3B00E0FFC39D5020A3E0FEAB57AA58A9598FA1
:104F4B00827583001222F2FFEE6F9003A4F09003A0
:0B4F5B00A3E004F080D79003A4E0FF67
:014F66002228
:1047AA00EF24D0FEE43407900371F0A3CEF0ED6459
:1047BA00016003BD020E740C2DFD90037174FFF5A8
:1047CA00F01223A8ED75F002A4FFEB7A002FFFEA9E
:1047DA0035F0FEED0475F003A475F005847C002F16
:1047EA00FFEC3EFE900371E0FCA3E0FD2FFBEC3EE4
:1047FA00FAEDAE047802CEC313CE13D8F92BFBEA36
:10480A003E7C007D641254AEC3EB9FFBEA9E7C01A2
:10481A007D901254AEEF2BFFEE3AFE7C007D07121C
:09482A002353A3ECF0A3EDF0FF11
:014833002262
:10390100E4F545F54643A00FF54575460AE546152C
:1039110046AC45700215454C70030239FD123A0060
:10392100FF640F60E8EF24F5603A24FE605F1470D5
:10393100030239C0240760030239FA75450175464F
:103941002CE54645456012E54615467002154512BF
:103951003A00640760EB7F04221254BA40037F00EF
:10396100227F042275450175462CE54645456012C6
:10397100E546154670021545123A0C640B60EB7F63
:1039810003221254BA40037F00227F0322754505AA
:10399100754678E54645456012E5461546700215BF
:1039A10045123A0C640D60EB7F02221254C44003AD
:1039B1007F0022E546454570037F06227F0222757E
:1039C1004505754678E5464545601AE54615467054
:1039D1000215457F017E0012552CE5A0540F640E9F
:1039E10060E37F01221254C440037F0022E5464573
:0E39F1004570037F05227F01227F00227F00A8
:1039FF00227F017E0012552CE5A0540F227F017EFD
:093A0F000012552CE5A0540F2211
:10552C00EF1FAA0670011E4A6013E4FCFDC3ED9444
:0D553C001CEC940250EA0DBD00010C80F043
:01554900223F
:0B58CA00EF1FAC0670011E4C70F622B0
:1055BE00202020212100B579B5A521A558C944B3D5
:0A55CE005DB86D2E2E2E2E2E2E211C
:10528600F514AE13AF148E13EF22F512AE11AF1252
:105296008E11EF22F516AE15AF168E15EF22F51A02
:1052A600AE19AF1A8E19EF22AE17AF188E17EF226E
:0B58D5007F0A7E0012552C75BBFF22DD
:1056B100438901758AFB758CDBD28CD2A9D2AF22CA
:1055A300759850438920EF6007E4F58BF58D8006ED
:0B55B300758BFD758DFDD28ED2AC22F1
:0D58A300759A50759CB8438E1475AF0122A4
:1037D80012528854FE12528654FD12528654FB121D
:1037E800528654F712528654EF12528654DF125200
:1037F8008654BF125286547FF51412529C4401120B
:10380800529A440212529A54FBF5161252AE54F7C9
:10381800F51812529C54FBF51612529254FD12528E
:103828009054FB12529054F712529054EF12529047
:1038380054DF12529054BF1252904480F512125223
:10384800AE547FF518E4FF740C2FF582E43402F5CA
:1038580083E4F0746C2FF582E43402F583E4F00F0E
:10386800BF5FE49002E97401F09002E3F0E4900293
:10387800EAF01238F47E0012552C12529C54F7F5D7
:10388800167F647E00125896E4FFFE1256C1EF249C
:10389800F4601124DC601C2470603324BD7036127F
:1038A80038F4801CE4FF125405E49002E5F07F012F
:1038B800FE800F7F021254059002E57402F07F012A
:1038C8007E0012552C1252AE547FF5188007125202
:1038D800AE4480F5181252A654FB1252A454F712A3
:0B38E80052A454EF1252A454FDF51A34
:0E38F300227F011254059002E57401F0FF22BD
:104567007F017E001256C1BFAB0C7F027E00125640
:10457700C1EF64CD607C7F207E0012443A7BFF7AD6
:104587005579C4E4FDFF1244D17BFF7A5579C9E41C
:10459700FD7F011244D17BFF7A5579BE7D087F03E9
:1045A7001244D17D03E4FFFE1248347D087F037E69
:1045B70000124834E4FD7F04FE124834E4F544F564
:1045C70045E545240AFFE43544FE7DFF12483405DE
:1045D70045E54570020544C3942CE544940140E148
:1045E7007DAB7F017E001248347DCD7F027E0012B5
:0245F700483446
:0145F900229F
:1053BA001258D5E4FF1255A31258A31256B1123748
:1053CA00D8E4F5A05380F775A0A012512F125936D0
:0653DA001256380245677F
:065930001253BA0200460A
:1051E00020202021210020202020AB4FA673A6A83C
:1051F000A55C2020202021202020202020202020ED
:105200002020202020202021000102030405060781
:0852100008090A0B0C0D0E0F3A
:1042FD0041020A0141026B004102CC004102CB0098
:08430D004102CD0041020B004A
:1027E0002FF0E075F00A84C454F0FFE075F00A841D
:1027F000EF25F0F022D3900362E09401900361E0B2
:10280000940022EFF0E0C4540F7E00540F2408F52A
:1028100082EE3452F583E493C454F0FF22E0FF04C7
:10282000F074652FF582E43403F5837402F09003AD
:1028300064E0FF04F074652FF582E43403F583222D
:10284000746C255AF582E43402F583E004F0746C6C
:10285000255AF582E43402F58322E49002E6F0A3DF
:10286000F0AE17AF188E17EF22AE17AF18EEC4F800
:1028700054F0C8EFC4540F4822E0FFE4FCFDFE9082
:10288000036A1224DA90036A0224C2EFF0E0C4540F
:102890000F75F00AA4FFE0540F2FF0227800900388
:1028A000661224C212241DAC00AD01AE02AF032299
:1028B000FC90036A1224DA9003661224C290036A21
:1028C0001224CE1223D49003660224DAF583E02486
:1028D000D0F074E92FF582E43402F583E02290030E
:1028E0005FE4F0A32290036EE024E6F582E4340274
:1028F000F583E022F0E0C454F0F0E0FF22AE15AF23
:10290000168E15EF2274EB2FF582E43402F583E086
:102910002290036EE024E8F582E43402F583E0229D
:10292000900361E4F0A32274E72FF582E43402F50A
:1029300083E022C3900362E0940222E0540F90529D
:10294000089322900361A3E0FF229002CCE0240AC6
:10295000FFE433FE2290036EE0FF24EAF582E434C4
:1029600002229002ECE0FFA3E0FDA3E0FB22E49052
:102970000359F0A3F09002E522900364E0FE04F016
:1029800074652E224410F518E49002CBF090036198
:10299000F0A304F02274E52FF582E43402F583E01D
:1029A00022900361E0FEA3E0FFEE22F516AE11AF28
:1029B000128E11EF22F0A3E4F0A304F022AE17AFC1
:1029C00018EF780722740C255AF582E43402F58357
:1029D000224410F51890035F7401F022F090036E0A
:1029E000E004F02290035FE0FEA3E08EF02290036B
:1029F0005F04F0A32290039EEFF0E05407F02290D2
:102A0000035DE064042290036EE0FFC3229003663E
:032A10000224C2DB
:10004600E490035DF0A3F0A3F0A3F0A3F0A3F012F5
:10005600390190035DEFF090035FE07002A3E0606A
:100066002F90035DE0600E12285A4420F5181228DE
:100076006154F7F518AE17AF18EF7803CEC313CE59
:1000860013D8F930E00A1209F81228614420F5184D
:1000960090035DE0B4051290035FE07002A3E06098
:1000A600081209F8E490035DF01229E412253D00D8
:1000B600E10000011D00010186001106E5001202A3
:1000C600680111034701120608011307710121088F
:1000D60081012208BD01230000090490035DE0644C
:1000E600056003020904AE17AF18EF7806CEC313F6
:1000F600CE13D8F930E0030209041228DE041229CF
:10010600B512285A54F7F518120A754420F518E462
:1001160090035DF002090490035DE0FF6401700343
:10012600020904EF6402702F900361E07004A3E0FB
:100136006401700A90035FF0A3741102073B9003F9
:1001460061E07004A3E06402600302090490035FA7
:10015600F0A3741202073B90035DE0FFB4030B1299
:1001660027F550030209040208E8EF64046003025D
:1001760009041229331227FC40030209040208FD70
:1001860090035DE0B4010690035F02077F90035D74
:10019600E06402600302023B900361E07004A3E0A6
:1001A600640170411229EE7411122860122984121A
:1001B6000AA9600E24DC60132470601824BD701D2B
:1001C600801B1229207402F002073E1229207403B4
:1001D600F002073E1229207404F002073E1229207D
:1001E60004F002073E900361E07004A3E06402702D
:1001F600191228611229D174121209DD120A441249
:100206000A9A40037412F002044112292074031260
:1002160028601229D174131209DD7F037E0012565D
:10022600C19002CDEFF07F047E001256C190020B02
:10023600EFF002090490035DE0FFB4030B1227F50B
:1002460050030209040208E8EF640460030209048B
:10025600C3900362E094031227FC400302090402E0
:1002660008FD90035DE0B4010A1228DE7411F0A3C4
:1002760002077F90035DE06406600302031A1229F9
:10028600A17029EF24FE600C14601114601624037B
:10029600701A801890035C740CF0801690035C74DE
:1002A60030F0800E90035C74C0F0800690035C749E
:1002B60003F090035CE0FDE4FFFE120A12120AA9A5
:1002C600601D24DC60282470604024BD60030209A0
:1002D600047F011254059002E57401F0FF801CE4CE
:1002E600FF125405E49002E5F07F01FE800F7F02C5
:1002F6001254059002E57402F07F017E0012552C1F
:10030600122861547FF5180209041228614480F509
:100316001802090490035DE0FFB4030B1227F550A1
:10032600030209040208E8EF64046003020904C337
:10033600900362E094041227FC40030209040208B9
:10034600FD90035DE0B401101228DE7411F0A3E401
:10035600F0A37402F002073E90035DE0FDB40203D1
:10036600020792ED6406600302048190039F122740
:10037600E290039B1227E290039C1227E290039DD2
:100386001227E29003861227E29003851227E29055
:10039600039EE0FF1252187F017E0012552C900337
:1003A6009FE0FF90039BE0FD90039CE0FB90039D84
:1003B600E0F547900386E0F548900385E0F549129D
:1003C6004D1C7F06124D6F90039FE0B507C17F0558
:1003D600124D6F90039BE0B507B57F04124D6F90E9
:1003E600039CE0B507A97F02124D6F90039DE0B50F
:1003F600079D7F01124D6F900386E06F70917F031A
:10040600124D6FEF5407FF90039EE06F70817A5193
:1004160079E6120AB37BFF7A5179E07D087F0312F1
:1004260044D17FE87E0312552C7A5179F7120AB32C
:10043600120A44120A9A40037412F090039B12287F
:100446008D7F04124D6F90039C12288B7F02124DF4
:100456006F90039D12288B7F01124D6F90038612B9
:10046600288BE4FF124D6FEF547F90038512288C82
:100476007F03124D6F1229F502090490035DE064B3
:1004860003600302053F12286930E00B1227F5507E
:10049600030209040208E81229A16003020904EF15
:1004A60012251704C20104D30204E60304F9040565
:1004B6000A050517060528070000090490039FE0B2
:1004C6006002806690039F7463F002090490039BA8
:1004D600E064016002805390039B740CF0020904EF
:1004E60090039CE064016002804090039C741FF0BE
:1004F60002090490039DE06002802F90039D74170B
:10050600F0020904900386E06002801E9003868054
:100516000B900385E060028011900385743BF00226
:10052600090490039EE064016006E014F0020904E9
:1005360090039E7407F00209041229FF6003020962
:100546000412286930E012C3900362E09407122770
:10055600FC40030209040208FD1229A160030209F6
:1005660004EF12251705840105970205A70305B7B1
:100576000405CA0505DD0605F00700000904900319
:100586009FE0C394635002806AE490039FF00209DF
:100596000490039BE0C3940C5002805790039B8009
:1005A6005B90039CE0C3941F5002804790039C809D
:1005B6004B90039DE0C3941750028037E490039D4F
:1005C600F0020904900386E0C3943B50028024E4C1
:1005D600900386F0020904900385E0C3943B500221
:1005E6008011E4900385F002090490039EE0C39411
:1005F600075006E004F002090490039E7401F0021D
:10060600090490035DE0B401101228DE7411F0A312
:10061600E4F0A37403F002073E90035DE0FDB4022C
:1006260003020792ED640670189002CDE0FD7F0389
:100636007E0012483490020BE0FD7F047E00020724
:10064600C990035DE0FD6403704512286930E00B34
:100656001227F550030209040208E8900361E070CE
:1006660004A3E0640170149002CDE0600514F0026A
:1006760009049002CD7417F002090490020BE060A1
:100686000514F002090490020B743BF0020904ED14
:100696006404600302090412286930E00E1229334B
:1006A6001227FC40030209040208FD900361E07072
:1006B60004A3E0640170149002CDE0C394175003C4
:1006C600020872E49002CDF002090490020BE0C326
:1006D600943B5003020872E490020BF00209049066
:1006E600035DE0B401071228DE040208C990035D29
:1006F600E06402704D900361E07004A3E064017051
:10070600201229EE74211228601229841228FD4431
:1007160004F5167F207E0012443A7F0A7E00020806
:100726005E900361E07004A3E064026003020904C2
:100736001229EE74231229B51228FD4404F5160277
:10074600089090035DE0FFB4030B1227F5500302F7
:1007560009040208E8EF640460030209041229335D
:100766001227FC40030209040208FD90035DE0B471
:1007760001121228DE7412F0A3120A5D1229200457
:10078600F002090490035DE0FDB4022A12286954C0
:1007960001F4FFEF5401C4F8540FC868FFE4C454D1
:1007A600F048FEAA17AB18EB54EFFBEA4EF517EB31
:1007B6004FF518020904ED6406700E12294A9002DC
:1007C600CBE0FD120A1202090490035DE064037097
:1007D6004912286930E00B1227F55003020904027A
:1007E60008E8900361E07004A3E0640170159002CC
:1007F600CCE0600414F080069002CC745FF01229FD
:100806004A80559002CBE064016006E014F00209CC
:10081600049002CB7403F00209041229FF6003025C
:10082600090412286930E00E1229331227FC40030E
:100836000209040208FD900361E07004A3E064016C
:1008460070219002CCE0C3945F5005E004F080056F
:10085600E49002CCF012294A1256C19002CBEFF076
:100866000209049002CBE0C394035006E004F002B0
:1008760009049002CB7401F002090490035DE0B410
:1008860001121228DE74121229B57F207E0012444E
:100896003A02090490035DE0FF64026061EFB4036D
:1008A600071227F54058803A1229FF705112293352
:1008B6001227FC5049804090035DE0B401121228D3
:1008C600DE7412F0A3120A5D1229207402F0802E43
:1008D60090035DE0FF64026025EFB4030B1227F579
:1008E600401C74FFF5F0801390035DE0B4040F1212
:1008F60029331227FC5007E475F0011223A8E4906F
:10090600035DF01229E412253D093B000009480069
:10091600010951001109750012095A0111096301F3
:1009260012096C0113097E012109870122098D0133
:1009360023000009D312286154BFF518123572023C
:100946000055122943124B32020055122943123E1A
:10095600F0020055122943123A1802005512294393
:100966001214AB020055122943123B2F02005512F6
:1009760029431245FA0200551229431236A90200EC
:10098600551259400200551248BBEF24FB60132450
:1009960004702B1228DE120A8F1228614420F518E3
:1009A6008022E490035FF0A3F0120A754420F51844
:1009B600E490035D1228604440F5180200551228A1
:1009C600DE120A8F1229207402F0020055E4900309
:0709D6005FF0A3F0020055E1
:1009DD00A3F0A3E4F0A304F0AE15AF168E15EF440B
:1009ED0004F5167F207E0012443A22E490035FF056
:1009FD00A3F0AE15AF168E15EF4404F5167F207ECD
:100A0D000012443A221248347BFF7A5179E6E4FD14
:100A1D007F031244D17BFF7A5179E07D087F031269
:100A2D0044D17FE87E0312552C7BFF7A5179F7E490
:100A3D00FD7F031244D1227F06124D6F90039FEF6D
:100A4D00F0E0C4540F75F00AA4FFE0540F2FF0220C
:100A5D00E4F0A304F0AE15AF168E15EF4404F516B1
:100A6D007F207E0012443A22AE15AF168E15EF444C
:100A7D0004F5167F207E0012443AAE17AF188E177C
:100A8D00EF227412F07F207E0012443A227F05126D
:100A9D004D6F90039BEFF0E0D3941222E4FFFE1212
:100AAD0056C1EF24F4227BFFE4FD7F031244D122D3
:100ABD009003661224E60000000090036A1224E6FB
:100ACD00000000009002E5E06003020DD89003588D
:100ADD00E0D394145003020DD0E094504003020D66
:100AED00D09002EBE064246003020DD0A3E06447D4
:100AFD006003020DD0A3E064506003020DD0A3E0AB
:100B0D0064526003020DD0A3E0644D6003020DD06A
:100B1D00A3E064436003020DD0A3E0642C600302E4
:100B2D000DD090036E7407F0122A06940D5010121A
:100B3D002905C394305003020DD01229DD80E990B0
:100B4D0002F2E0C394334003020DD0A3E0C3943A04
:100B5D004003020DD0A3E0C394364003020DD0A391
:100B6D00E0C3943A4003020DD0A3E0C39436400392
:100B7D00020DD0A3E0C3943A4003020DD090036E52
:100B8D007407F0122A06940D500A12290524D0126A
:100B9D0029DC80EF12286154FDF5189002F2E07007
:100BAD0010A3E0C39402500280169002F2740180EB
:100BBD001A9002F2E06401701DA3E0C39402500686
:100BCD00E02408F080299002F27402F0A3E0F4040E
:100BDD00FFC374FE80119002F2E0B40212E4F0A3A0
:100BED00E0F404FFC374049F1228604402F51890CA
:100BFD0002F2E09002F01228F49002F3E0FEEF4EC4
:100C0D009002F0F09002F4E09002F11228F49002BC
:100C1D00F5E0FEEF4E9002F1F09002F6E09002F258
:100C2D001228F49002F7E0FEEF4E9002F2F0E490FD
:100C3D00036FF0900358E090036EF090036EE0FFA9
:100C4D00D39407401C122905B42C0690036FE004C1
:100C5D00F090036FE06403600890036EE014F08081
:100C6D00DA122955F583E0C3943A4003020DD012F0
:100C7D0028D2C3943A4003020DD0122911C39433E4
:100C8D004003020DD0122927C394324003020DD028
:100C9D001228E5C3943A4003020DD0122995C3944E
:100CAD00344003020DD090036EE012295AF583E013
:100CBD00C394305003020DD01228D2C39430500388
:100CCD00020DD0122911C394305003020DD01229F8
:100CDD0027C394305003020DD01228E5C394305031
:100CED0003020DD0122995C394305003020DD0127A
:100CFD0029551228CC24D0F074E82F12291724D0AE
:100D0D00F012292724D0F074E62F1228EB24D0F00E
:100D1D0074E52FF582E434021228CC9002EC1228EF
:100D2D00F490036EE0FE12295AF583E0FDEF4D902D
:100D3D0002ECF074E72E12292A9002ED1228F4909D
:100D4D00036EE0FE122915FDEF4D9002EDF074E5F6
:100D5D002E1229989002EE1228F41228E5FEEF4E7D
:100D6D009002EEF01229621247AA900370EFF0E0A4
:100D7D0070037407F0900370E0FFC394014044EFDB
:100D8D00D39407503E9002E5E0700EAE17AF18EF0A
:100D9D0020E006121045124D1C1229BDCEC313CEF4
:100DAD0013D8F930E00A12296EF09002E37403F0C3
:100DBD007F017E0012552C1228FD54EF1229AB44F1
:100DCD0008F5121228FD54F7F516229002E5E0649D
:100DDD00016003020FD5900313E0FF90030BE06F4A
:100DED006003020FCD900314E0FF90030CE06F60E1
:100DFD0003020FCD900315E0FF90030DE06F60032C
:100E0D00020FCD900316E0FF90030EE06F6003021A
:100E1D000FCD90031312287978181224AF12287F62
:100E2D00E4FFFEFDEC12287F1228C6900314122851
:100E3D007978101224AF12287FE4FFFEE41228B057
:100E4D0090031512287978081224AF12287FE4FF39
:100E5D00E4FD1228B09003661224CE900316E0FF35
:100E6D00E4FCFDFE1228C3122A0DEF2480FFEE34A0
:100E7D0070FEE43DFDE43CFC1228C67B3E7A85798C
:100E8D00E17801122A0D12241DEF249CFFEE34FF90
:100E9D00900364F0A3EFF09002EC1228049002ECA2
:100EAD0012293B9002EC1227E07B3E7A8579E1789E
:100EBD000112289E7B6F7A207928780012241DEF6D
:100ECD00049002ED1228049002ED12293B9002EDE0
:100EDD001227E07B6F7A20792812289C7B807A512B
:100EED007901780012241D9002EE1228039002EE73
:100EFD0012293B2F9002EE1227E17B807A51790166
:100F0D0012289CE47B107A0EF9F812241D9002F041
:100F1D001228039002F012293B2F9002F01227E1C4
:100F2D00E47B107A0EF9F812289EE47B3CFAF9F86E
:100F3D0012241D9002F11228039002F112293B2F69
:100F4D009002F11227E1E47B3CFAF9F8122A0D1216
:100F5D00241D9002F2EB1228049002F212293B2F6D
:100F6D009002F21227E11229621247AA900370EF44
:100F7D00F0E070037407F0900370E0FFC39401403C
:100F8D0033EFD39407502D9002E5E06401700EAE5F
:100F9D0017AF18EF20E006121045124D1C1229BD97
:100FAD00CEC313CE13D8F930E00A12296E04F09097
:100FBD0002E304F01228FD54BF1229AB4410F512C0
:100FCD001228FD54BFF516229002E5E06402706709
:100FDD0090036EF0122A069408500A12290524E097
:100FED001229DC80EF9002E5E06403702BAE17AFA1
:100FFD0018EF20E0239002EFE0FF12521812296241
:10100D009002F0E0F547A3E0F548A3E0F549124D55
:10101D001C1229AD4404F5121229BDCEC313CE13F3
:10102D00D8F930E01212296E7402F09002E314F038
:07103D0012286154FEF518B2
:1010440022900370E0FF1252187F017E0012552C8B
:101054009002ECE0FFA3E0FDA3E0FB9002F0E0F5DA
:0A10640047A3E0F548A3E0F5492298
:102C4000E4900364F0055AE55AC3945F4003E4F549
:102C50005AE4900365F0E55A12294E1256C19003CA
:102C600064EFF024FE602204703B900366E4F0A35E
:102C70007432F0900365E0FF1253947F02122DFE30
:102C80007F027E0012552C80249003667401F0A30D
:102C9000742CF09003657406F0AF5A124CC57F6433
:102CA000122DFE8008900366E4F0A304F090036602
:102CB000E07002A3E07003022DE090036674FFF55C
:102CC000F01223A87F017E0012552C900364E024AB
:102CD000FE60710470D7AE13AF14EF7805CEC31346
:102CE000CE13D8F930E0C6AE13AF148E13EF54DF15
:102CF000F5141228FD4402F5169002CEE0B4A5ADFD
:102D0000A3E0B45AA8A3E0B4A5A3A3E0645A709DBD
:102D1000A3E064A57097A3E0645A7091A3E064A552
:102D2000708BA3E0645A7085A3E0F47080A3E0B5D3
:102D30005A03022DC9122840E0C394035003022D08
:102D4000FD022DF875470075480075490C7B017A26
:102D50000279CE12439EEF7003022CAD9002CEE0BA
:102D600064026003022CADA3E064A56003022CADF5
:102D7000A3E0645A6003022CADA3E064A5600302E3
:102D80002CADA3E0645A6003022CADA3E064A560FF
:102D900003022CADA3E0645A6003022CADA3E064EF
:102DA000A56003022CADA3E0645A6003022CADA31E
:102DB000E0F46003022CAD9002D9E06403600302EA
:102DC0002CAD9002D8E0B55A0C12284EE4F012292E
:102DD000C57401F022122840E0C39403401F8018FC
:102DE000900365E004F0E0C394065003022C5612F1
:0D2DF0002840E0C3940340051229C5E4F01B
:0C2DFD00227E0012552CAF5A124CC52249
:10423900E4900364F012281D7420F07F061242D422
:10424900EFF07F051242D4EFF07F041242E9122801
:1042590038EFF07F03124D6F1229F5E0FF1229792B
:10426900122838EFF07F021242E9122838EFF07F66
:1042790001124D6F122979122838EFF0E4FF124D1F
:104289006FEF547FFF122979122838EFF0900364F9
:10429900E02465122838E00412282D7401F09003F7
:1042A9006412281D7403F07B017A0379657D0C1271
:1042B9004FA97F647E0012552C7B017A0379657DB5
:0B42C9000C1255687F647E0002552C2B
:1042D400124D6F900364E0FE04F074652EF582E4E1
:1042E4003403F58322124D6F900364E0FE04F074EE
:0342F400652E2212
:1053E00090020AE024FE600D14600D14600D14603C
:1053F0000D2404800C024BA2024E9D0251A60256BF
:05540000661249402284
:10568F00900364E0FFC3941022900363F0E4A3F04F
:01569F0022E8
:04443A008E468F47D4
:10443E00E4F5A0748012569812568F500512449DC2
:10444E0080F6E4900364F0748812569812568F50DA
:10445E000512449D80F6E4900364F090036374901B
:10446E00F0E4A3F012568F50051244B780F6E49094
:10447E000364F09003637498F0E4A3F012568F5027
:0E448E00051244B780F6E4900364F075A0A018
:10449C0022900363E02FFF122FCB7F201231457F38
:1044AC0020123145900364E004F022900363E02F66
:1044BC00FF122FCB7F201231457F20123145900304
:0544CC0064E004F02291
:105313008D5BE4F5A0122FCBE55B75F00A84243096
:10532300FF123145E55B75F00A84E5F02430FF1286
:0B53330031457F3A12314575A0A022E1
:0A44D1008F468D478B488A49894ABF
:1044DB00E4F5A07F01FE12552CE546D3940340036F
:1044EB00754603E547D394084003754708E5461422
:1044FB0060101460131460162403701AE5472480AF
:10450B008010E5472488800AE54724908004E5471E
:10451B00249890037FF090037FE02547F0E0FF1293
:10452B002FCB8024AB48AA49A94A1222D990037EEB
:10453B00F06421601C7401254AF54AE43549F549BC
:10454B0090037EE0FF1231457F017E0012552C80D7
:0B455B00D37F017E0012552C75A0A03C
:014566002232
:10512F00E4F5A07F0AFE12552C12515B12515B7FE2
:10513F000C1251647F011251647F06122FCB125251
:10514F00E57F207E0012443A75A0A0227F30122FF7
:0C515F00CB1252E522122FCB1252E52297
:1052E500E490035CF0E490035DF0E490035EF090DD
:1052F500035EE004F0E0B433F690035DE004F0E013
:0D530500B440E790035CE004F0E0B403D88E
:015312002278
:0100220022BB
:0A5901007F30122FCB7F08022FCB5E
:0A590B007F36122FCB7F30022FCB26
:0A5915007F34122FCB7F30022FCB1E
:104C0B00E49003A6F0124C639003A5124C50C282A1
:104C1B00124C5B124C6300124C5B9003A6124C506F
:104C2B00C2829003A5E054F0FFF0A3E0C4540FF050
:104C3B00540FF04F9003A5F07F017E001258CA90DD
:044C4B0003A5E0FFDE
:104C4F0022E580F07F017E001258CA227F017E008C
:0E4C5F001258CA22124ABAD280D281D28222C0
:023145008F4BAE
:10314700E4900380F0124ABAE54B54F0900380F004
:10315700122517318E00319210319820319E30316F
:10316700A84031AC5031B26031B87031C28031C63D
:103177009031CCA031D2B031DCC031E0D031E6E0C3
:1031870031ECF0000031F4C2848002D284C2858021
:103197000AC284D2858004D284D285C286C287803F
:1031A7004CC2848002D284C285800AC284D28580C0
:1031B70004D284D285D286C2878032C2848002D26A
:1031C70084C285800AC284D2858004D284D285C213
:1031D70086D2878018C2848002D284C285800AC2C0
:1031E70084D2858004D284D285D286D2871232AF28
:1031F700C2827F147E001258CAE54BC454F0900374
:1032070080F054F0F0122517324300324710324D48
:1032170020325330325D40326150326760326D7018
:10322700327780327B903281A03287B03291C032C0
:1032370095D0329BE032A1F0000032A9C28480020F
:10324700D284C285800AC284D2858004D284D28582
:10325700C286C287804CC2848002D284C285800A1B
:10326700C284D2858004D284D285D286C287803236
:10327700C2848002D284C285800AC284D285800437
:10328700D284D285C286D2878018C2848002D28433
:10329700C285800AC284D2858004D284D285D28630
:0732A700D2871232AFC28290
:0F32AE0022D280C281D2827F147E001258CA229F
:022FCB008F4B2A
:102FCD00E4900380F0124ABAE54B54F0900380F080
:102FDD00122517301800301C1030142030223030DC
:102FED002C40303050303660303C70304680304AA6
:102FFD00903050A03056B03060C03064D0306AE0B0
:10300D003070F000003078C284800CC2848002D20F
:10301D0084C2858004D284D285C286C287804CC288
:10302D00848002D284C285800AC284D2858004D273
:10303D0084D285D286C2878032C2848002D284C275
:10304D0085800AC284D2858004D284D285C286D27C
:10305D00878018C2848002D284C285800AC284D23D
:10306D00858004D284D285D286D2877F017E0012DC
:10307D0058CA123137C2827F017E001258CAE54B01
:10308D00C454F0900380F012251730CB0030CF10D0
:10309D0030D52030DB3030E54030E95030EF603056
:1030AD00F57030FF803103903109A0310FB0311927
:1030BD00C0311DD03123E03129F000003131C284FF
:1030CD008002D284C285800AC284D2858004D284D3
:1030DD00D285C286C287804CC2848002D284C285CA
:1030ED00800AC284D2858004D284D285D286C287DA
:1030FD008032C2848002D284C285800AC284D28585
:10310D008004D284D285C286D2878018C284800280
:10311D00D284C285800AC284D2858004D284D285AD
:09312D00D286D287123137C2822A
:0F31360022C280C281D2827F017E001258CA223B
:104ABA00E4900382F0A3F0900381F0124B16900366
:104ACA0082124B27C28200007F017E001258CA124E
:104ADA004B16900383124B27C2820000900383E097
:104AEA00C4540FF0540FFFF0900382E054F0F04FDB
:104AFA00F07F017E001258CA900382E030E70C90E2
:0B4B0A000381E004F0E0C3941440B00D
:104B1500227580F0C280D281D2827F017E00125838
:0D4B2500CA22E580F07F017E001258CA22EE
:103D1B002020202121002020A46CC4C1B373BD75C9
:103D2B00AAACBA41202021B3C9B9A620202020205B
:103D3B00202020202020202100CAA7B0DC2020201A
:103D4B002020202020202020202100B3F5CABCBB3E
:103D5B00AF2E2E2E2E2E2E202020202100D3B2CCA3
:103D6B00E5B0E6B1BE3A2056312E3020202100C8F6
:103D7B00EDCCE5B0E6B1BE3A2056312E30202021F5
:103D8B0000BCECB2E24E54502E2E2E2E2E2E2020A6
:103D9B00202100BCECB2E24750532E2E2E2E2E2E9D
:103DAB002020202100BCECB2E2434F4D2E2E2E2EB4
:103DBB002E2E2020202100202020202020C5E4D6DC
:103DCB00C3202020202020210020312ED7D3D6D372
:103DDB00B9DCC0ED2020202020210020322ECAB1DA
:103DEB00BCE4D4B42020202020202021002000205F
:103DFB000020002020A440A447A454A57CA4ADA47B
:043E0B00BBA4E9214A
:1032BD0090039FEFF0E0C4540F2430FF900384E09F
:1032CD00FE04F074872EF582E43403F583EFF0905D
:1032DD00039FE0540F2430FF900384E0FE04F0744C
:1032ED00872EF582E43403F583EFF022E0FF04F03E
:1032FD00746A2FF582E43403F5837420F09003692A
:10330D00E0FF04F0746A2FF582E43403F583742032
:10331D00F0900369E0FF04F0746A2FF582E4340342
:10332D00F58322E4900384F0E0FF04F074872FF519
:10333D0082E43403F5837432F0900384E0FF04F0EB
:10334D0074872FF582E43403F58322E0C4540F24EF
:10335D0030FF900369E0FE04F0746A2E229003643E
:10336D00E0FEA3E0FF7C000223537421F07B017A81
:10337D0003796AE4FD2275A0607B017A03798722C7
:10338D0090039EEFF0E05407F0E022AE19AF1AEF74
:10339D00780722E0FEA3E0FF7C00022353D2C17F19
:1033AD00017E002290039BEFF0E02290039CEFF052
:1033BD00E022E545240AFEE433900363F0A3CEF04A
:1033CD0022C2C17F017E0022FE7C007D0A022353B2
:1033DD00740C2545F582E43402F583E022745BF02C
:1033ED00AE11AF1222AE17AF188E17EF22E02410D8
:1033FD0054F0F02290039DEFF0E022900386EFF061
:0C340D00E022900364EEF0A3EFF0F42244
:10562100D2C01233AA1258CAC2C07F017E001258DA
:07563100CA1233CE0258CA71
:1056A000C2C01233AA1258CAD2C07F017E0002586B
:0156B000CA2F
:1054CE00A20092C01254E01258CAD2C11254E00285
:1054DE0058CA7F0A7E001258CAC2C17F0A7E0022B5
:0F56F1001233AA1258CAA2C01233CE1258CA22BC
:024C6D008F4C6A
:104C6F00E4F54EAE19AF1A8E19EF547FF51AE4F52D
:104C7F004DE54C25E0F54C92C01233AA1258CA12DA
:104C8F0033CE1258CA054DE54DC3940840E3125672
:104C9F00F15020AF4E054EEF941E400EAE19AF1AD5
:104CAF008E19EF4480F51AC2C0227F017E00125880
:054CBF00CA80DBC2C049
:014CC40022CD
:1052B600E4F548D2C0F547E54825E0F5481233AA9B
:1052C6001258CAA2C0E43342481233CE1258CA0555
:0E52D60047E547C3940840DFC2C1C2C0AF48DD
:0152E40022A7
:044DC1008F4A8D4B3D
:104DC500C2AF1256217FDE124C6D123398CEC3133B
:104DD500CE13D8F920E0EBAF4B124C6D123398CEC1
:104DE500C313CE13D8F920E0D9AF4A124C6D123354
:104DF50098CEC313CE13D8F920E0C71256A0D2AF70
:074E05007F057E0002552C21
:024D6F008F456E
:104D7100C2AF1256217FDE124C6D123398CEC3138F
:104D8100CE13D8F920E0EBAF45124C6D123398CE1B
:104D9100C313CE13D8F920E0D91256217FDF124C6C
:104DA1006D123398CEC313CE13D8F920E0C412523A
:0F4DB100B68F46D2001254CE1256A0D2AFAF46E4
:014DC00022D0
:025218008F44C1
:10521A007F03124D6F900371EFF07D077F40124DAF
:10522A00C17F017E0012552CE544900371B4FF053D
:10523A00E044088008E054F8F044084544FFF07D53
:04524A0003124DC13D
:01524E00223D
:104D1C008D458B467D06124D597D05AF45124D597B
:104D2C007D04AF46124D647D02AF47124D647D0188
:104D3C00AF48124DC17F0A7E0012552CE5494480C4
:104D4C00FFE4FD124DC17F0A7E0002552C124DC1AD
:104D5C007F0A7E0012552C22124DC17F0A7E001252
:034D6C00552C22A1
:1054EE0090039FE0B49903E4F02290039FE0540FE1
:0F54FE00FFBF09041233FA2290039FE004F0224B
:10544B0090039BE024EE600B2409700E90039B7479
:10545B0010F02290039B7401F02290039BE004F068
:01546B00221E
:10524F0090039CE024F7601324F0601624F060199B
:10525F0024F8701C90039C7401F02290039C74102E
:10526F00F02290039C7420F02290039C7430F02263
:07527F0090039CE004F02203
:10533E0090039DE024F7601524F0600A24F67014A3
:10534E00E490039DF02290039D7420F02290039D23
:0B535E007410F02290039DE004F02288
:10550D00900386E0B45903E4F022900386E0540F33
:0F551D00FFBF09041233FA22900386E004F02244
:10542800900385E0547FF0E0B45903E4F022900340
:1054380085E0540FFFBF09041233FA22900385E078
:0354480004F0224B
:055936007FFF02521882
:1018E600E4900364F0A3F0A3F0A3F0900369F01270
:1018F6003321743212331D7430F07F06124D6F900F
:10190600039FEFF0123358123328EFF090039FE055
:1019160012335A123328EFF012331E74A612331DF7
:10192600747E1233097420F07F05124D6F1233B1A5
:10193600D3941240037412F090039B12335812335F
:1019460028EFF090039BE012335A123328EFF0127F
:10195600331E74A412331D74EBF07F04124D6F1204
:1019660033B8D3943140037431F090039C1233584A
:10197600123328EFF090039CE012335A123328EF0B
:10198600F012331E74A412331D74E912331D123380
:1019960077FF1244D1E4900369F0AE11AF12EEC3A3
:1019A60013EF1330E008123321742BF08006123344
:1019B6001E7420F07F02124D6F123401D39423401F
:1019C600037423F090039D123358123328EFF090DE
:1019D600039DE012335A123328EFF012331E743A85
:1019E600F07F01124D6F123408D394594003745995
:1019F600F0900386123358123328EFF0900386E0F6
:101A060012335A123328EFF012331E743AF0E4FF01
:101A1600124D6FEF547F900385F0E0D39459400345
:101A26007459F0900385123358123328EFF090035F
:101A360085E012335A123328EFF012330A74AC12CF
:101A4600331D745012331D74B412331D74C1F07FEC
:101A560003124D6F12338D25E0F0E0903DFE931298
:101A6600335E123328EFF090039EE0903DFF931211
:101A7600335E123328EFF012331E1233777F0212D1
:101A860044D1E4900368F0900368E0FFC3941050DB
:101A96000E1233257420F0900368E004F080E812FB
:101AA60033251233777F011244D1E4900369F01293
:101AB60033211233EAEEC4F854F0C8EFC4540F4889
:101AC60090036930E012123321744E12331D7454A0
:101AD60012331D7450F080061232F97420F012335E
:101AE6001E745D12331D1233EAEF7803CEC313CE94
:101AF60013D8F990036930E0121233217447123378
:101B06001D745012331D7453F080061232F974207E
:101B1600F012331E745D12331D1233EAEF7802CED3
:101B2600C313CE13D8F990036930E012123321742F
:101B36004312331D744F12331D744DF0800612325A
:101B4600F97420F012331E745D1233091233777F55
:101B5600031244D1E4F5A0123FC912340F7002EE0D
:101B6600F47F886026122FCB7D6412336A121C81A3
:101B76009003647D641233A07E007F0ACFCDCFCE62
:101B8600CCCE122353EF2430FF800A122FCB7F21B5
:101B96001231457F201231457F251231457F521281
:101BA60031457F48123145123E0F12340F7002EE56
:101BB600F46079900364E0FEA3E0FFA3EEF0A3EFE8
:101BC600F0C394C8EE94007F8C5024122FCB7F2054
:101BD6001231457F2D123145900364E0FEA3E0FFEC
:101BE600C374C89FFFE49E1233D59003648013121A
:101BF6001C73900365E02438FF900364E034FF1201
:101C060033D5EEF0A3EFF01233D6121C817D0A1203
:101C1600336AED2430FF1231457F2E123145900391
:101C2600667D0A1233A0ED2430FF80167F8C121CCD
:101C3600737F201231457F201231457F21123145B5
:101C46007F201231457FA21231457F4A12314575F8
:101C5600A0A0AE19AF1AEF30E006E4F5A075A0A07B
:0D1C66007BFF7A3D791B7D087F030244D18E
:101C7300122FCB7F201231457F2012314522EF24D2
:061C830030FF1231452282
:021C89008F4585
:101C8B00E4900363F0A3F0A3F07BFF7A3D7921FD91
:101C9B00FF1244D1E4F5A07F90121EEA1233BF125B
:101CAB0033DD601E121EAEBF01047F528008121E70
:101CBB00AEBF02097F461231457F4F801E121F9324
:101CCB008019121EBABF0105121FE1800E121EBA37
:101CDB00BF0205121FE98003121F93123145121F19
:101CEB001E7F88121EEA1233DD601E121EC6BF0154
:101CFB00047F528008121EC6BF02097F461231456F
:101D0B007F4F801E121FB18019121ED2BF01051208
:101D1B001FE1800E121ED2BF0205121FE9800312B3
:101D2B001FB1123145121F1E7F98122FCB121F5657
:101D3B00601E121EDEBF01047F528008121EDEBF22
:101D4B0002097F461231457F4F801E121FC5801935
:101D5B00121F12BF0105121FF9800E121F12BF02B4
:101D6B00051220018003121FC51231457F5D123110
:101D7B0045121FCD12314505451233BF7F94121EFC
:101D8B0075601E121F3EBF01047F528008121F3E5A
:101D9B00BF02097F461231457F4F801E121FCD8037
:101DAB0019121F4ABF0105121FF9800E121F4ABFDD
:101DBB0002051220018003121FF1123145121F9BE5
:101DCB007F8C121E75601E121F87BF01047F52800D
:101DDB0008121F87BF02097F461231457F4F8026AD
:101DEB00121FF18021121FB9BF01097F5212314519
:101DFB007F588012121FB9BF02097F461231457FEF
:101E0B00588003122009123145121F9B7F9C122F01
:101E1B00CB7F20123145121F56601E121FD5BF01FA
:101E2B00047F528008121FD5BF02097F461231452D
:101E3B007F4F802A1220098025122011BF01097FB4
:101E4B00521231457F588016122011BF02097F466E
:101E5B001231457F5880077F201231457F20123188
:091E6B00457F5D12314575A0A010
:101E740022122FCB7F20123145E54575F00A8424C8
:101E840030FF123145E54575F00A84E5F02430FF52
:101E94001231457F3A1231457F5B123145740C256E
:101EA40045F582E43402F583E022900363E0FEA367
:101EB400E0FF1256C122900363E0FEA3E0FF125636
:101EC400C122900363E0FEA3E0FF1256C1229003F7
:101ED40063E0FEA3E0FF1256C122900363E0FEA379
:101EE400E0FF1256C122122FCBE54575F00A842477
:101EF40030FF123145E54575F00A84E5F02430FFE2
:101F04001231457F3A1231457F5B123145229003ED
:101F140063E0FEA3E0FF1256C1227F5D1231457FCC
:101F2400201231457F201231450545E545240AFE3E
:101F3400E433900363F0A3CEF022900363E0FEA3A6
:101F4400E0FF1256C122900363E0FEA3E0FF1256A5
:101F5400C122E54575F00A842430FF123145E54578
:101F640075F00A84E5F02430FF1231457F3A1231CE
:101F7400457F5B123145740C2545F582E43402F546
:101F840083E022900363E0FEA3E0FF1256C1227FA8
:101F9400201231457F20227F5D1231450545E545FC
:101FA400240AFEE433900363F0A3CEF0227F2012D0
:101FB40031457F2022900363E0FEA3E0FF1256C167
:101FC400227F201231457F20227F201231457F203D
:101FD40022900363E0FEA3E0FF1256C1227F521257
:101FE40031457F58227F461231457F58227F201287
:101FF40031457F20227F521231457F58227F46127D
:1020040031457F58227F201231457F20229003637F
:09201400E0FEA3E0FF1256C12218
:1048BB00E4F544FDAF44121C89123901AD07ED60DC
:1048CB000EE49002E6F0A3F01233F254F7F518AEB3
:1048DB0017AF18EF7803CEC313CE13D8F930E0021D
:1048EB008019ED24FD601E14602B14600E240470DF
:1048FB00C31233F254DFF5187F01221233F254DF67
:10490B00F5187F052274062544F544C3945F4017C0
:10491B00E4F5448012E544C39406400874FA254438
:10492B00F544800375445AAE11AF128E11EF44401B
:05493B00F5120248BF67
:104940001233307430F07F06124D6F1232BD7F0586
:10495000124D6F1233B1C41232E090039B1232DF5A
:104960007F04124D6F1233B8C41232E090039C12D0
:1049700032DF7F03124D6F12338D1232E47F021249
:104980004D6F123401C41232E090039D1232DF7F6A
:1049900001124D6F123408C41232E09003861232B5
:1049A000DFE4FF124D6FEF547F900385F0E0C412F7
:1049B00032E09003851232DF1233837D0F024A3ECC
:104BA2001233307430F07F06124D6F1232BD7F0522
:104BB200124D6F1233B1C41232E090039B1232DFF6
:104BC2007F04124D6F1233B8C41232E090039C126C
:104BD20032DF7F03124D6F12338D1232E47F0212E5
:104BE2004D6F123401C41232E090039D1232DF7F06
:104BF20001124D6F123408C41232E0900386123251
:094C0200DF1233837D0D024A3EEE
:104E9D001233307430F07F06124D6F1232BD7F0524
:104EAD00124D6F1233B1C41232E090039B1232DFF8
:104EBD007F04124D6F1233B8C41232E090039C126E
:104ECD0032DF7F03124D6F12338D1232E2123383B4
:054EDD007D09024A3EC0
:1051A6001233307430F07F06124D6F1232BD7F0518
:1051B600124D6F1233B1C41232E090039B1232DFEC
:1051C6007F04124D6F1233B8C41232E090039C1262
:0A51D60032DF1233837D08024A3EE7
:105666001233307430F07F06124D6F1232BD123392
:06567600837D04024A3EA0
:104315004102E500410358004102E4004203530015
:104325000041034C00410352004103510041034E3B
:104335000041035500410350004102E80042035685
:1043450000004102E3014102E9014102EA004203A2
:1043550059000041033B004202E6000041034D00C5
:1043650041034F004102E20042034A000042034874
:02437500000046
:1040A100E4F0AE15AF168E15EF4410F516AE15AF50
:1040B100168E15EF54BFF516AE15AF168E15EF22FD
:1040C100AE13AF148E13EF54FBF51490034CE4F0D0
:1040D100AE13AF148E13EF22AE19AF1A8E19EF542F
:1040E100FBF51AAE19AF1A8E19EF22AE13AF14EE0B
:1040F100C4F854F0C8EFC4540F4822900358E0FFAD
:1041010004F074EB2FF582E43402F5832274A5F0F8
:10411100A3745AF0A374A5F0A3745AF0A3229003D8
:104121004EE0FF04F0EFD322E475F0011223BEFE4E
:1041310022900348E4F0A322547FF516900358E43B
:10414100F02254F7F51A90034FE4F022F09002EABE
:10415100F09002E322F090034FE004F0E0D39409E1
:1041610022AE19AF1AEF780222E0FF04F0EFC3226A
:07417100AE17AF188E1722F4
:084F67008B448A4589468D4701
:104F6F007F017E0012552CE4F548E548C395475064
:104F7F0017AB44AA45A9468548827583001222F2D1
:104F8F00FF120026054880E2AE13AF14EF7806CE6D
:094F9F00C313CE13D8F920E0EF92
:014FA80022E6
:084FA9008B448A4589468D47BF
:104FB1007F017E0012552CE4F548E548C395475022
:104FC10017AB44AA45A9468548827583001222F28F
:104FD100FF125586054880E2AE13AF14EF7807CE75
:094FE100C313CE13D8F920E0EF50
:014FEA0022A4
:10002600AD07AE13AF14EF7806CEC313CE13D8F9CF
:0D00360020E0EF1240D14440F5148D9922D6
:10558600AD07AE13AF14EF7807CEC313CE13D8F919
:0D55960020E0EF1240D14480F5148D9B22DF
:024CC5008F441A
:104CC7007F017E0012552C9002CE7402F0A3124190
:104CD7000E12410E74FFF0A3E544F0A37403F07BBA
:104CE700017A0279CE7D0C1255687F017E0012553C
:104CF7002CE4900368F0900368E0FFC3940C501411
:104D070074CE2FF582E43402F583E4F0900368E073
:044D170004F080E242
:014D1B002275
:030023000234198B
:10341900C0E0C083C082C0D075D000C000C005C064
:0334290006C007D3
:10342C00C2AF43C110209803023553C298AD999096
:10343C00034CE4F0AE15AF16EF20E00302355390C9
:10344C0002E5E07053AE15AF161240F030E049BD06
:10345C002419AE15AF16EF7803CEC313CE13D8F9DB
:10346C0020E0081240B9440812413BAE15AF16EFEC
:10347C007803CEC313CE13D8F920E00302355312D0
:10348C0040FCEDF0640A6003023553900358E024CD
:10349C00EB124106E4F080299002E5E06401703201
:1034AC00AE15AF16EF7806CEC313CE13D8F930E0B5
:1034BC00211240FCEDF0900358E0643060030235BB
:1034CC00531240D14410F5141240B954FEF51602B3
:1034DC0035539002E5E06402706DAE13AF14EF78D3
:1034EC0002CEC313CE13D8F930E0461240FCEDF0F7
:1034FC00900358E0640B704FE024EAF582E4340248
:10350C00F583E0AE13AF14B403108E13EF4410F533
:10351C00141240B954FEF516800E8E13EF54EFF5CD
:10352C00141240B94401F5161240C154FEF5148032
:10353C0016BD02131240D14401F5141240D14404BB
:10354C00F514900358E4F0309909C2991240D15403
:05355C00BFF514D2AF21
:10356100D007D006D005D000D0D0D082D083D0E013
:013571003227
:03004300024178FF
:0B417800C0E0C083C082C0D075D0083A
:10418300C2AF43C110E59A20E00302421F539AFED7
:10419300AD9B900352E4F0AE13AF14EF7803CEC39C
:1041A30013CE13D8F930E05E9002E4E0FF04F0741C
:1041B300CE2FF582E43402F583EDF09002E4E0645F
:1041C3000B7059E024CDF582E43402F583E0AE139D
:1041D300AF14B403108E13EF4420F5141240B954F6
:1041E300FDF516800E8E13EF54DFF5141240B9441B
:1041F30002F5161240D154F7F5149003521240CF32
:1042030054FDF5148016BD02131240D14402F51477
:104213001240D14408F5149002E4E4F0E59A30E149
:0D4223000A539AFD1240D1547FF514D2AF1A
:09423000D0D0D082D083D0E0325E
:03000B0002106E72
:10106E00C0E0C0F0C083C082C0D075D000C000C048
:07107E0004C005C006C00715
:1010850043C110758AFB758CDBAE19AF1AEEC3131D
:10109500EF1320E00302122D1241327402F0900288
:1010A500E2E004F030B20C1240E44440F51AE4F0FA
:1010B500021133AE19AF1AEF7806CEC313CE13D88B
:1010C500F930E06A9002E2E0C394555010E0C39411
:1010D5004B400A124132124156404780189002E2B5
:1010E500E0C39437501AE0C3942D401412413204E2
:1010F500124156402D1240D954F7F51AE4F08022DA
:101105009002E2E0C394195013E0C3940F400D120E
:1011150041327450F090034FE4F08006124132746E
:1011250002F09002E2E4F01240E454BFF51A900395
:1011350048E0FEA3E0FFEE600302122DEF146024E9
:1011450024B160482450600302122D124162CEC3BF
:1011550013CE13D8F920E00302122D900348E05472
:101165007FF0801D124162CEC313CE13D8F920E063
:101175000302122D900348E04480F0A3E0F09003B1
:1011850048E0C313F0A3E013F002122D124162CE22
:10119500C313CE13D8F930E03990034FE0640970DA
:1011A500291240E454FBF51AE4F090034DE004F0F5
:1011B500E064067073F01240E454EF1240E254FD0F
:1011C5001240E24420F51A02122D1240D912414371
:1011D5008056AE19AF1A1240F030E00E1240E444CA
:1011E50004F51A90034DE4F0803EAE19AF1AEF787E
:1011F50003CEC313CE13D8F9AE19AF1A30E0228E41
:1012050019EF44041240E21241431240E44410F540
:101215001A124132F090034DF090034AF0A3F0808A
:10122500078E19EF4408F51AAE19AF1A1240F030BF
:10123500E02490034A124129D3E5F094BCEE9402D0
:10124500401490034AE4F0A3F01240D9124143122E
:1012550040E454EFF51A90033B12416A9464403F11
:10126500AE19AF1AEF5401F4FFEF5401FFAC19ADFD
:101275001AED54FEFDECF519ED4FF51AB2B4E4F094
:101285009002E612412AC3E5F0943CEE9400400F2B
:101295009002E6E4F0A3F0124171EF4408F51890CE
:1012A5000353124129D3E5F0940AEE94005003024A
:1012B500141B900353E4F0A3F090035512412294BC
:1012C500144009E4F01240B94420F5169002E812E2
:1012D500412294014009E4F01240B94404F5169006
:1012E5000351124122941E400DE4F0AE11AF128E4F
:1012F50011EF4480F512900356124129C3E5F0948D
:10130500B0EE9404402AAE17AF18EF7807CEC3139A
:10131500CE13D8F930E019900356E4F0A3F090020B
:10132500E304F01241714FF518900359E4F0A3F06E
:10133500AE17AF18EF30E064900359124129C3E5A9
:10134500F0942CEE94014054900359E4F0A3F090EE
:10135500035BF09002EAE090035BF09002E3E02487
:10136500FE60151460202402702A90035BE054FC93
:1013750012414D7402F0802490035BE054F3124156
:101385004D7403F0801690035BE054CF12414D7409
:1013950001F08000124171EF54FEF518AE17AF1839
:1013A500EF30E03B12411F943240179002E3E064B6
:1013B50002700F1240EC20E00990034E1240A1127A
:1013C50041399003501241229432404A9002E3E0A1
:1013D500640170421240EC20E03C900350802312DF
:1013E500411F9432400C1240EC20E0061240A1123D
:1013F50041399003501241229432401A1240EC2098
:10140500E014E4F01240B944401240B74480124061
:10141500B754EF12413BAE13AF14EF30E025900304
:101425004C12416A9405401B1240D154EFF5141239
:1014350040B94401F516E4F0900358F01240C15448
:10144500FEF514AE13AF14EEC313EF1330E0429064
:10145500035212416A94054038AE13AF14EF780376
:10146500CEC313CE13D8F930E00E1240D14420F587
:10147500141240B954FDF516900352E4F09002E4BD
:101485001240D054F7F5149003521240CF54FDF595
:011495001442
:10149600D007D006D005D004D000D0D0D082D083DB
:0514A600D0F0D0E0329F
:1055F1008FC48EC375C65A75C6A5227400254AF597
:085601008274003549F5832293
:064834008E468F478D48FF
:10483A00E4F549F54AAF4AAE491256C11255FCEFA2
:10484A00F0054AE54A70020549C3E549940240E584
:10485A00E4FFFE1258BDE4F549F54AAF4AAE4912E3
:10486A0056C1EFF47048054AE54A70020549C3E5A6
:10487A0049940240E67F0A7E0012552C74002547AF
:10488A00F58274003546F583E548F0E4F549F54AC2
:10489A001255FCE0FDAF4AAE4912567C054AE54A7C
:1048AA0070020549C3E549940240E57F01227F0071
:0148BA0022DB
:10000E00AE071FEE600DE4FCFD0DED70010C4C60B3
:03001E00EF80F67A
:0100210022BC
:0D58B000E4F5C7F5C5F5C675C380F5C42243
:0F56C10075C78275C5011255F100AFC21258B0FE
:0156D00022B7
:10567C0075C78275C5028FC48EC38DC21255F500D5
:03568C000258B011
:0D58BD0075C78275C5031255F1000258B081
:08000300C0C0C0C0C0C0C0C0F5
:1043770020232100080010A7625BF80322F80047FA
:10438700B610181D1CC700B2EA2A00115981350959
:0643970006060405000CFF
:10564F0090036AE0AB47AA48A94922C390036DE0D3
:07565F009F90036CE09E2206
:10536900E490036CF0A3F012565A5009E475F00169
:105379001223A880F2E490036CF0A3F012565A505D
:0A53890009E475F0011223A880F278
:0153930022F7
:1055D800000000000000000000000000000000EFD4
:0955E8001F70011E144E70E82230
:07592900C294C297D2942240
:0A591F001259297F887E1302536994
:1050F100E4900374F0C297900373F0EF30E704D2A9
:10510100958002C295EF25E0FFD2970000900374CD
:10511100E025E0F0309603E004F0C2970000900330
:0D51210073E004F0E0B408D3900374E0FFE5
:01512E00225E
:1056D100C2942096FD7F301250F12096FDD2942283
:10554A00D2947F017E001255D8C2947F017E001248
:0E555A0055D8D2947F297E001255D80256D122
:1056E100C2942096FD1250F1AF051250F1D29422CE
:064E57008B468A478948E2
:104E5D00EF4440900372F0C2942096FD900372E0EF
:104E6D00FF1250F1E4900371F0900371E0FFC395D0
:104E7D0049501AAB46AA47A9488F82758300122262
:0F4E8D00F2FF1250F1900371E004F080DCD29438
:014E9C0022F3
:0B58E000C2942096FD1250F1D29422D9
:10546C00EF448090036CF0C2942096FD90036CE0A6
:10547C00FF1250F1E4FF1250F190036DEFF0D29453
:01548C0022FD
:064E0C008B4B8A4C894D1E
:104E1200EF44C090036DF0C2942096FD90036DE0C4
:104E2200FF1250F1E490036CF090036CE0C3954ED6
:104E32005020E4FF1250F1AB4BAA4CA94D90036CE9
:104E4200E0F582758300EF12233190036CE004F0E9
:044E520080D7D2949F
:014E56002239
:10548D00EF44C090036DF0C2942096FD90036DE043
:10549D00FF1250F1E4FF1250F190036CEFF0D29433
:0154AD0022DC
:103C2600AD217F0C1256E1AD227F0B1256E1AD237A
:103C36007F0C1256E1AD247F0D1256E1AD257F0EA5
:103C46001256E1AD267F0F1256E1AD277F101256B0
:103C5600E1AD287F111256E1AD297F121256E1AD72
:103C66002A7F131256E1AD2B7F141256E1AD2C7F3D
:103C76000A1256E1AD2D7F151256E1AD2E7F2112A7
:103C860056E1AD2F7F221256E1AD307F181256E174
:103C9600AD317F191256E1AD327F1A1256E1AD33BE
:103CA6007F1B1256E1AD347F1C1256E1AD357F1DE8
:103CB6001256E1AD367F231256E1AD377F241256F8
:103CC600E1AD387F251256E1AD397F261256E1ADBA
:103CD6003A7F291256E1AD3B7F2C1256E1AD3C7F6F
:103CE6002D1256E1AD3D7F2E1256E1AD3EE4FF1298
:103CF60056E1AD3F7F021256E1AD407F071256E115
:103D0600AD417F081256E1AD427F091256E1AD433F
:053D16007F060256E1EA
:10556800AC057F3F1256E18C497F3F124E577F357D
:0E5578001258E030B3FD20B3FD7F3B0258E037
:05593B007F340258E07A
:06439E008B448A458946AC
:1043A4001256531222D925E025E090036BF07F3496
:1043B4001258E07F027E0012536930B3167F027EEA
:1043C4000012536990036BE014F0E0C3940150EAC7
:1043D4007F00227F3B12548DEF547F60567F3F1243
:1043E400546C90036AEFF01256531222D9FEEFD3A5
:1043F4009E5032AB44AA45A94690036AE0F54E7F2D
:104404003F124E0C12564F12231F7B017A03796818
:10441400754E027F3F124E0C7F3A1258E0900369AA
:10442400E05480FF2212564F12231F7F3A1258E0A5
:054434007F00227F0063
:014439002260
:1056380012591F12554A123C267BFF7A00790375CE
:0756480049087F3E024E57A6
:10201D0061742B776966695F636F6E663D736D6181
:10202D00746B65792C777061325F6165732C6B37DA
:10203D0065762D6D6167722D646C36320D0A006107
:10204D00742B72656D6F746569703D706F6F6C2E5A
:10205D006E74702E6F72670D0A0061742B72656D50
:10206D006F7465706F72743D3132330D0A00617497
:10207D002B4765745F4D41433D3F0D0A0061742B45
:10208D00776966695F5363616E3D3F0D0A00617448
:10209D002B6F75745F7472616E733D300061742BBC
:1020AD006E65746D6F64653D320D0A0061742B644D
:1020BD00686370643D300D0A0061742B6D6F64654B
:1020CD003D636C69656E740D0A0061742B6E6574E9
:1020DD006D6F64653D330D0A0061742B6468637028
:1020ED00643D310D0A0061742B64686370645F692F
:1020FD00703D3139322E3136382E31302E312C3172
:10210D0039322E3136382E31302E3235342C32359F
:10211D00352E3235352E3235352E302C3139322E95
:10212D003136382E31302E3132350D0A0061742B97
:10213D0064686370645F646E733D3139322E31367D
:10214D00382E31302E312C302E302E302E300D0ACF
:10215D000061742B64686370645F74696D653D39EB
:10216D003630300D0A0061742B776966695F636FD5
:10217D006E663D4E5450207365727665722C777085
:10218D0061325F6165732C31323334353637380D3A
:10219D000A0061742B64686370633D310D0A006140
:1021AD00742B6E65745F69703D3139322E3136385E
:1021BD002E31302E32332C3235352E3235352E32FE
:1021CD0035352E302C3139322E3136382E31302EE8
:1021DD0039380D0A0061742B6E65745F646E733D42
:1021ED00302E302E302E302C302E302E302E300D15
:1021FD000A0061742B72656D6F746570726F3D743A
:10220D0063700D0A0061742B72656D6F7465707269
:10221D006F3D7564700D0A0061742B6D6F64653DC3
:10222D007365727665720D0A0061742B72656D6F40
:10223D00746569703D3230322E3131322E33312E8C
:10224D003139370D0A0061742B72656D6F746570CD
:10225D006F72743D3132330D0A0061742B74696DE8
:10226D00656F75743D300D0A0061742B7561727464
:10227D003D393630302C382C6E2C310D0A006174FE
:10228D002B756172747061636B74696D656F7574B4
:10229D003D3130300D0A0061742B756172747061BF
:1022AD00636B6C656E3D3130300D0A0061742B6EC1
:1022BD0065745F636F6D6D69743D310D0A006174F6
:0C22CD002B7265636F6E6E3D310D0A00D0
:0E5700007BFF7A20791D7D2F124F677F0122DB
:0E570E007BFF7A20799B7D0F124F677F01226F
:0E571C007BFF7A21793A7D24124F677F0122AC
:0E572A007BFF7A2179E27D1D124F677F0122FD
:0E5738007BFF7A2079AA7D0F124F677F012236
:0E5746007BFF7A2079D77D0F124F677F0122FB
:0E5754007BFF7A2179737D2C124F677F012233
:0E5762007BFF7A21799F7D0D124F677F012218
:0E5770007BFF7A2079E67D0D124F677F0122C4
:0E577E007BFF7A2079B97D0D124F677F0122E3
:0E578C007BFF7A2079F37D47124F677F012261
:0E579A007BFF7A21795E7D15124F677F012219
:0E57A8007BFF7A2279B97D12124F677F0122B2
:0E57B6007BFF7A2279367D1D124F677F01221C
:0E57C4007BFF7A2279537D14124F677F0122FA
:0E57D2007BFF7A20794C7D1B124F677F0122EE
:0E57E0007BFF7A2079677D14124F677F0122CC
:0E57EE007BFF7A2179FF7D13124F677F012226
:0E57FC007BFF7A2279127D13124F677F012204
:0E580A007BFF7A2279677D0F124F677F0122A4
:0E5818007BFF7A2279257D11124F677F0122D6
:0E5826007BFF7A2079C67D11124F677F012229
:0E5834007BFF7A2279767D15124F677F012265
:0E5842007BFF7A2279A47D15124F677F012229
:0E5850007BFF7A22798B7D19124F677F012230
:0E585E007BFF7A2279CB7D0E124F677F0122ED
:0E586C007BFF7A20797B7D0F124F677F012230
:0E587A007BFF7A20798A7D11124F677F012211
:0E5888007BFF7A2179AC7D36124F677F0122BB
:102E0900122FA2122FA2C2C4C2C4C2C4122F4AD204
:102E1900C4D2C4D2C4122F4A122F52125738EF709B
:102E290002FF22122F52125770EF7002FF22122F47
:102E39005A125700EF7002FF22122F5A125762EFEF
:102E49007002FF22122F621257FCEF7002FF22124A
:102E59002F62125826EF7002FF22122F6A1257D2E0
:102E6900EF7002FF22122F6A1257E0EF7002FF2261
:102E7900122F7212580AEF7002FF22122F72125883
:102E890034EF7002FF22122F7A125850EF7002FFAE
:102E990022122F7A125842EF7002FF22122F821249
:102EA9005738EF7002FF22122F82125770EF70020B
:102EB900FF22122F8A125700EF7002FF22122F8A67
:102EC900125762EF7002FF22122F921257FCEF7015
:102ED90002FF22122F92125826EF7002FF22122FA0
:102EE9009A1257D2EF7002FF22122F9A1257E0EF6F
:102EF9007002FF22122FBB12580AEF7002FF221232
:102F09002FBB125834EF7002FF22122FC3125850F0
:102F1900EF7002FF22122FC3125842EF7002FF22F4
:102F29007F647E0012552C1257A8EF7002FF227F92
:102F3900647E0012552C12585EEF7002FF227F0149
:102F4900227F647E0012552C227F647E0012552C4C
:102F5900227F647E0012552C227F647E0012552C3C
:102F6900227F647E0012552C227F647E0012552C2C
:102F7900227F647E0012552C227F647E0012552C1C
:102F8900227F647E0012552C227F647E0012552C0C
:102F9900227F647E0012552C227F01125405900273
:102FA900E57401F0FF7E0012552C7F0A7E00125550
:102FB9002C227F647E0012552C227F647E001255DC
:022FC9002C22B8
:10256A001227B71227B7C2C4C2C4C2C412272FD2B5
:10257A00C4D2C4D2C412272F122737125746EF707B
:10258A0002FF22122737125770EF7002FF2212271A
:10259A003F12578CEF7002FF2212273F12571CEF8F
:1025AA007002FF2212274712579AEF7002FF221277
:1025BA002747125754EF7002FF2212274F12576211
:1025CA00EF7002FF2212274F125888EF7002FF2283
:1025DA0012275712572AEF7002FF22122757125753
:1025EA00EEEF7002FF2212275F125818EF7002FFF7
:1025FA002212275F1257B6EF7002FF2212276712C4
:10260A0057C4EF7002FF2212276712580AEF7002AE
:10261A00FF2212276F125834EF7002FF2212276F1F
:10262A00125850EF7002FF22122777125842EF70A9
:10263A0002FF22122777125746EF7002FF22122753
:10264A007F125770EF7002FF2212277F12578CEF0A
:10265A007002FF2212278712571CEF7002FF221204
:10266A00278712579AEF7002FF2212278F125754A8
:10267A00EF7002FF2212278F125762EF7002FF22B9
:10268A00122797125888EF7002FF221227971257C3
:10269A002AEF7002FF2212279F1257EEEF7002FFF5
:1026AA002212279F125818EF7002FF221227A71230
:1026BA0057B6EF7002FF221227A71257C4EF700213
:1026CA00FF221227AF12580AEF7002FF221227AF19
:1026DA00125834EF7002FF221227D0125850EF70AE
:1026EA0002FF221227D0125842EF7002FF2212274D
:1026FA00D81257A8EF7002FF221227D812585EEF9D
:10270A007002FF227F647E0012552C1257A8EF70C8
:10271A0002FF227F647E0012552C12585EEF70026F
:10272A00FF227F01227F647E0012552C227F647E65
:10273A000012552C227F647E0012552C227F647E63
:10274A000012552C227F647E0012552C227F647E53
:10275A000012552C227F647E0012552C227F647E43
:10276A000012552C227F647E0012552C227F647E33
:10277A000012552C227F647E0012552C227F647E23
:10278A000012552C227F647E0012552C227F647E13
:10279A000012552C227F647E0012552C227F647E03
:1027AA000012552C227F647E0012552C227F0112C2
:1027BA0054059002E57401F0FF7E0012552C7F0A41
:1027CA007E0012552C227F647E0012552C227F64D3
:0627DA007E0012552C22C6
:104EE2002A2A2A2A2A2A2A003031323334353637FE
:104EF20038392D26484C52534F4644545142554955
:104F020043502A2345003F065B4F666D7D077F6F46
:104F120040467638506D5C715E78737C3E0639731C
:034F220000FF7914
:084A3E008B1C8A1D891E8D1FCF
:104A46005380FD0000E49003A0F09003A0E0FFC3B4
:104A5600951F5055AB1CAA1DA91E8F827583001287
:104A660022F2FF9003A2F01256099003A2EFF0E49F
:104A76009003A1F05380FB00009003A2E0FF30E713
:104A86000543800180035380FE000043800400003C
:104A9600EF25E09003A2F09003A1E004F0E0B40853
:104AA600D39003A0E004F080A1438002000053806D
:034AB600FD000000
:014AB90022DA
:10560900E4FEEE904EEA93B50707EE904F0893FF3C
:07561900220EBE1FED7F0011
:015620002267
:102A130020202021210020202020A6A8A55C202002
:102A230020202020202020202020202021202020A2
:102A330020A5A2B1D120202020202020202020204A
:102A4300202020212020B577CA5E3A56312E30202F
:102A530020202020212020B36ECA5E3A56322E3029
:102A63002020202020212020AAECA96CA4C62E2EF1
:102A73002E2E2E2E2020212020C0CBB4FA4E5450CF
:102A83002E2E2E2E2E212020C0CBB4FA4750532EAB
:102A93002E2E2E2E212020C0CBB4FA434F4D2E2EA6
:102AA3002E2E2E210B00000000000000000000006D
:102AB3000000000000000000000000000000000013
:102AC300000000000000000000000000D6C81F56F0
:102AD300D16872B0B074B86D2D3E20202020212023
:102AE300202020312EAEC9B6A1BADEB27A21202031
:102AF3002020322EA46CC1E9BADEB27A21AEC9C459
:102B0300C1B074B86D2D3E20212020312EAEC9C432
:102B1300C1B7BD20212020322EAEC9C4C1B35DB8D8
:102B23006D20212020332EAEC9B0CFB35DB86D2008
:102B330021AEC9C4C1B35DB86D20202020A67E217B
:102B430020202020A4EB202020202020A4E92120E5
:102B5300202020AEC9202020202020A4C021202016
:102B63002020ACED202020202020AC50B4C121AE89
:102B7300C9C4C1B35DB86D2D3E212020312E2D2D4A
:102B83002020AEC9212020322E2D2D2020A4C021AB
:102B9300AEC9C4C1B7BD2D3E20212020312E4E54D5
:102BA30050202020322E47505320212020332E4303
:102BB3004F4D202020342E4155544F21A46CC1E9A0
:102BC300BADEB27A2D3E212020312EB074B86DA426
:102BD3006CC1E92020212020322EA752B4EEA46C30
:102BE300C1E92020212020322EA46CC1E9AAACBA6D
:102BF30041202021B074B86DA46CC1E92D3E212081
:102C030020312EA661A77D3A2020202021202032CA
:102C13002EB371B0543A2052533438352120203228
:102C23002EB371B0543A205246343333212020322C
:0D2C33002EB371B0543A204F4646202021A8
:10468C00AE17AF18EEC4F854F0C8EFC4540F48225C
:10469C0075A0A07BFF7A2A79137D087F0322AE17C1
:1046AC00AF188E17EF54DFF51822AE17AF18EF784E
:1046BC0005227BFFE4FD7F0222AE17AF188E17EFA9
:1046CC0054FBF5187BFF227BFFE4FD7F01227BFF6F
:1046DC00E4FD7F0222AE15AF168E15EF227BFFE4B0
:1046EC00FD7F0122E075F00A842430227BFFE4FD7B
:1046FC007F0222E004F0E0C3940A22AE17AF18EF59
:10470C007802229002CCE084E5F0227BFFE4FD7F6E
:02471C00032276
:0B58EB007BFF7A2A7919E4FD0244D10A
:0B58F6007BFF7A2A7930E4FD0244D1E8
:1049C0008D5C122FCBE55C24FE601214601614601F
:1049D0001814601F1460212405702980237F2E1273
:1049E0003145801C124A338017124A337F2E123110
:1049F00045800D124A118008124A117F2E1231454E
:104A00007F2E8009124A26123145124A261231455C
:104A1000227F2E1231457F2E1231457F2E123145D5
:104A20007F2E123145227F201231457F20123145E1
:0E4A30007F20227F2E1231457F2E123145222B
:1050B1007F207E0012443A7BFF7A2A7947E4FDFF84
:1050C1001244D17A2A79581246BE1244D17A2A79E9
:1050D100691247171244D1E49003ADF07FF47E01C9
:0F50E10012552C9003ADE004F0E0C3941440EDA1
:0150F000229D
:104FEB00E49003A7F07F20FE12443A1246C57A2ABA
:104FFB00797AE4FDFF1244D1E49003A8F07FF47EAC
:10500B000112552C9003A81246FF40F1124707CE10
:10501B00C313CE13D8F97F0130E0030258EB1258BB
:01502B00F68E
:01502C002261
:10502D00E49003A9F07F20FE12443A1246C57A2A75
:10503D007989E4FDFF1244D1E49003AAF07FF47E58
:10504D000112552C9003AA1246FF40F1124707CECC
:10505D00C313CE13D8F97F0130E0030258EB125879
:01506D00F64C
:01506E00221F
:10506F00E49003ABF07F20FE12443A1246C57A2A31
:10507F007998E4FDFF1244D1E49003ACF07FF47E05
:10508F000112552C9003AC1246FF40F1124707CE88
:10509F00C313CE13D8F97F0130E0030258EB125837
:0150AF00F60A
:0150B00022DD
:103572009002E5E014601614601824027014E4FF4F
:10358200125405E49002E5F07F01FE801412369A8F
:10359200800F7F021254059002E57402F07F017ED3
:1035A2000012552CAE15AF16EF7807CEC313CE130B
:1035B200D8F930E0359002E5E06401702DAE13AF2A
:1035C2001412469020E0231246E1547FF51612367B
:1035D2009A12552CE4900358F07F01FE12552C7B71
:1035E200FF7A2A79A77D30124F67123901BF04038F
:1035F20012256A123901BF0303122E09AE13AF144A
:1036020012469030E03C120ABDE4900358F0900359
:1036120063F0900363E0FFC39450501474EB2FF5F2
:1036220082E43402F583E4F0900363E004F080E284
:10363200AE13AF148E13EF54EFF5141246E14401AA
:10364200F516AE15AF16EF7802CEC313CE13D8F926
:1036520030E0441246E154FBF5161218E6AE15AFFF
:1036620016EF7805CEC313CE13D8F930E00A122C28
:10367200401246E154DFF516AE11AF12EF7807CED5
:10368200C313CE13D8F930E00E124239AE11AF1285
:073692008E11EF547FF512C9
:10369900227F011254059002E57401F0FF7E002299
:104B32008F441246B6CEC313CE13D8F930E0527B5F
:104B4200FF7A2A79D7E4FDFF1244D17A2A79E21258
:104B520046BE1244D17A2A79F11246D31244D1E4E4
:104B6200F5A0E54424FE600C04701D7F89124B946D
:104B72007F9180077F91124B947F89122FCB7FA167
:104B82001231457FF712314512469C1244D112462A
:104B9200AA22122FCB7F201231457F2012314522CB
:103EF0008F441246B6CEC313CE13D8F920E0030286
:103F00003F837BFF7A2B7900E4FDFF1244D17A2BAB
:103F1000790C1246DA1244D17A2B79181246D31250
:103F200044D17A2B79261247171244D1E4F5A0E543
:103F30004424FE601414602A2402703E7F90123FD5
:103F4000B3123F9B123FA68008123F847F88123F26
:103F5000B3123F9B7F98122FCB7F201231457F20D9
:103F60008015123F84123FA6123FBE7F98122FCBBE
:103F70007FA11231457FF7123FBE12469C1244D1F9
:103F80001246AA227F90122FCB7F201231457F202C
:103F90001231457F017E0012552C221231457F01DE
:103FA0007E0012552C227F88122FCB7F20123145A4
:103FB0007F2022122FCB7FA11231457FF7221231B1
:093FC000457F017E0012552C2200
:1014AB008F441246B6CEC313CE13D8F920E00302F5
:1014BB0016A87BFF7A2B7934E4FDFF1244D17A2BEB
:1014CB0079431246DA1244D17A2B79521246E91239
:1014DB0044D17BFF7A2B7961E4FD7F031244D1E485
:1014EB00F5A07F85122FCB90039F12182190039F9D
:1014FB001218087F91122FCB90039B121821900387
:10150B009B1218087F95122FCB90039C1218669094
:10151B00039C12184D7F89122FCB90039D121866D6
:10152B0090039D12184D7F8D122FCB9003861218AE
:10153B00B990038612188A7F99122FCB90038512CC
:10154B0018B990038512188A7F9D122FCB90039E9A
:10155B00E01246F1FF12314590039EE075F00A84CC
:10156B00E5F02430FF123145E544122517159101A2
:10157B0015B90215DE03160304163A05165F061697
:10158B0082070000169F12468C7F8430E00C122FCE
:10159B00CB7FA11231457FF7800A122FCB7FA1128F
:1015AB0031457FAF1218987F901218AE801A1246F1
:1015BB008C7F8430E00A1217F31218167FF780081D
:1015CB001217F31218167FAF1218987F941218AED9
:1015DB000215F812468C7F8430E00A121787121816
:1015EB00427FF780081217871218427FAF1218D06C
:1015FB007F881218DB02161D12468C7F8430E00A9E
:10160B001217B212185B7FF780081217B212185B11
:10161B007FAF1218D07F8C12182D7F9812182D12B5
:10162B0018721231457F017E0012552C02169F1243
:10163B00468C7F8430E00A1216A912187F7FF78040
:10164B00081216A912187F7FAF1231457F98121816
:10165B00DB02167912468C7F8430E00A1216E412F4
:10166B0018A37FF780081216E41218A37FAF12316C
:10167B004512187202169C12468C7F8430E00A12B7
:10168B00172E1218C57FF7800812172E1218C57F58
:10169B00AF12314512469C1244D11246AA22122F88
:1016AB00CB7F201231457F201231457F90122FCBFB
:1016BB007F201231457F201231457F94122FCB7F33
:1016CB00201231457F201231457F88122FCB7F208E
:1016DB001231457F2012314522122FCB7F20123140
:1016EB00457F201231457F90122FCB7F2012314541
:1016FB007F201231457F94122FCB7F201231457FF3
:10170B00201231457F88122FCB7F201231457F204D
:10171B001231457F8C122FCB7F201231457F201247
:10172B00314522122FCB7F201231457F20123145BC
:10173B007F90122FCB7F201231457F201231457FB6
:10174B0094122FCB7F201231457F201231457F8899
:10175B00122FCB7F201231457F201231457F8C1207
:10176B002FCB7F201231457F201231457F98122FCE
:10177B00CB7F201231457F2012314522122FCB7F98
:10178B00201231457F201231457F017E0012552CEE
:10179B007F90122FCB7F201231457F201231457F56
:1017AB00017E0012552C22122FCB7F201231457F48
:1017BB00201231457F017E0012552C7F90122FCBCA
:1017CB007F201231457F201231457F017E0012555B
:1017DB002C7F94122FCB7F201231457F2012314565
:1017EB007F017E0012552C22122FCB7F2012314508
:1017FB007F201231457F017E0012552C22E075F0BF
:10180B000A84E5F02430FF123145227F90122FCB52
:10181B007FA112314522E075F00A842430FF12318A
:10182B004522122FCB7F201231457F201231457F6D
:10183B00017E0012552C227F94122FCB7FA11231E7
:10184B004522E075F00A84E5F02430FF1231452281
:10185B007F88122FCB7FA112314522E075F00A84CD
:10186B002430FF123145227F9C122FCB7F20123167
:10187B00457F20227F8C122FCB7FA112314522E096
:10188B0075F00A84E5F02430FF1231452212314500
:10189B007F017E0012552C227F98122FCB7FA11235
:1018AB00314522122FCB7F201231457F2022E0754C
:1018BB00F00A842430FF123145227F9C122FCB7FFC
:1018CB00A1123145221231457F017E0012552C2287
:0B18DB00122FCB7F201231457F20220E
:103B2F008F441246B6CEC313CE13D8F920E003024A
:103B3F003BE67BFF7A2B7972E4FDFF1244D17A2B9F
:103B4F00797D1246F81244D17A2B79881246E91200
:103B5F0044D1E4F5A07F92122FCB9002CD1246F004
:103B6F00FF1231459002CD123BE77F8A122FCB9087
:103B7F00020B1246F0FF12314590020B123BE7E5A4
:103B8F004424FE603204704612468C7F9030E00C65
:103B9F00122FCB7FA11231457FF7800A122FCB7FD7
:103BAF00A11231457FAF123C1B7F88122FCB7F2094
:103BBF001231457F20801412468C7F9030E007121F
:103BCF003BFC7FF78005123BFC7FAF123C1B12467C
:103BDF009C1244D11246AA22E075F00A84E5F02423
:103BEF0030FF1231457F017E0012552C22122FCB50
:103BFF007F201231457F201231457F017E00125503
:103C0F002C7F88122FCB7FA1123145221231457F95
:073C1F00017E0012552C226A
:103A18008F441246B6CEC313CE13D8F920E0030262
:103A28003AB57BFF7A2B7993E4FDFF1244D17A2BC8
:103A3800799D1246F81244D17BFF7A2B79AEE4FDCA
:103A48007F011244D1E4F5A0E54424FE6019146016
:103A58002A1460402403704C7F90123AF8123B03FA
:103A68007F94123B0E800A7F90123AE37F94123AB9
:103A7800F8123B037F88123B0E8008123AB67F8803
:103A8800123B19123B247F8C122FCB7F2012314519
:103A98007F20800D123AB67F88123AE37F8C123B62
:103AA80019123B2412469C1244D11246AA227F9036
:103AB800122FCB7F201231457F201231457F017EA6
:103AC8000012552C7F94122FCB7F201231457F2076
:103AD8001231457F017E0012552C22122FCB7F20F8
:103AE8001231457F201231457F017E0012552C226C
:103AF800122FCB7FA11231457FF7221231457F016A
:103B08007E0012552C22122FCB7F201231457F20A8
:103B180022122FCB7FA11231457FF7221231457F28
:073B2800017E0012552C2262
:1045FA008F441246B6CEC313CE13D8F930E0617B8E
:10460A00FF7A2B79BFE4FDFF1244D17BFF7A2B7925
:10461A00CAE4FD7F021244D17BFF7A2B79E8E4FDDC
:10462A007F011244D1E4F5A0E54424FE601204702F
:10463A00267F9012467612466B7F88124681800D3D
:10464A007F9012468112466B7F8812467612314558
:10465A007F017E0012552C12469C1244D11246AAA2
:10466A00221231457F017E0012552C22122FCB7F58
:10467A00A11231457FF722122FCB7F201231457FBD
:02468A002022EC
:1036A9008F441246B6CEC313CE13D8F920E00302D5
:1036B90037A47BFF7A2B79F7E4FDFF1244D17A2CEA
:1036C90079027F021237D0E4F5A07F95122FCB90B3
:1036D90002CCE075F064842430FF12314575F06442
:1036E90012470F1246F1FF12314575F00A12470FC2
:1036F9002430FF1237C59002CBE024FE600F14601E
:10370900142402701F7BFF7A2C7910800E7BFF7ABC
:103719002C792080067BFF7A2C7930E4FD7F011219
:1037290044D1800F7A2C79307F011237D09002CBA7
:103739007403F0E4F5A0E54424FE603204705312EA
:10374900468C7F9030E00C122FCB7FA11231457F40
:10375900F7800A122FCB7FA11231457FAF1237C5EF
:103769007F88122FCB7F201231457F20801A124685
:103779008C7F9030E00A1237A51237BA7FF780089C
:103789001237A51237BA7FAF1231457F017E001279
:10379900552C12469C1244D11246AA22122FCB7FD5
:1037A900201231457F201231457F017E0012552CB0
:1037B900227F88122FCB7FA1123145221231457FFA
:0F37C900017E0012552C227BFFE4FD1244D12219
:015940002244
:10516B0090037EE004F0E0C3940522AE19AF1AEF72
:10517B00780722EFF07F0A7E00225403FFE4F0A3AE
:10518B00EFF0227F00FEF0A3EFF0A3E0FDEDFF2296
:0B519B00E4F0A3F0A3F0A3F0C2AF22E9
:103FC90090037E12519B1240837FA61240781251B2
:103FD90076CEC313CE13D8F930E00712516B40E601
:103FE90080397F18124078125176CEC313CE13D878
:103FF900F930E00712516B40CD80201240991240F0
:10400900837FA7124C6D124099125176CEC313CEFD
:1040190013D8F930E00A12516B40AB7EFF7FFF22C3
:104029007F017E001258CA1252B690038112517E46
:104039001258CAC20012408E1252B690038212510F
:104049007E1258CAD20012408E1256A0E490037F05
:10405900F0A3F0900382E090037F125185E0900372
:0E4069007F12518E90037FEEF0A3EFF0D2AFE6
:1040770022124C6D7F017E001258CA221256217FF0
:10408700017E001258CA221254CE7F0A7E001258AF
:0A409700CA227F017E001258CA22DF
:103E0F0090037E12519B123ED27FA6123EC71251D3
:103E1F0076CEC313CE13D8F930E00A90037E125139
:103E2F006E40E3803F7F0B123EC7125176CEC31315
:103E3F00CE13D8F930E00A90037E12516E40C7803E
:103E4F0023123EE8123ED27FA7124C6D123EE812AB
:103E5F005176CEC313CE13D8F930E00D90037E12F6
:103E6F00516E40A27EFF7FFF227F017E001258CA53
:103E7F001252B690038112517E1258CAC200123EDE
:103E8F00DD1252B690038212517E1258CAD200121E
:103E9F003EDD1256A0E490037FF0A3F0900382E082
:103EAF0090037F125185E090037F12518E90037F14
:073EBF00EEF0A3EFF0D2AF1B
:103EC60022124C6D7F017E001258CA221256217FA3
:103ED600017E001258CA221254CE7F0A7E00125862
:0A3EE600CA227F017E001258CA2292
:0300000002471E96
:0C471E00787FE4F6D8FD75815C024765E9
:1022D900BB010689828A83E0225002E722BBFE0203
:0922E900E32289828A83E4932236
:1022F200BB010CE58229F582E5833AF583E02250A1
:1023020006E92582F8E622BBFE06E92582F8E222EA
:0D231200E58229F582E5833AF583E4932204
:10231F00BB010689828A83F0225002F722BBFE019D
:02232F00F32297
:10233100F8BB010DE58229F582E5833AF583E8F0E2
:10234100225006E92582C8F622BBFE05E92582C88E
:02235100F22276
:10235300BC000BBE0029EF8DF084FFADF022E4CC6E
:10236300F875F008EF2FFFEE33FEEC33FCEE9DEC37
:10237300984005FCEE9DFE0FD5F0E9E4CEFD22ED7D
:10238300F8F5F0EE8420D21CFEADF075F008EF2FC7
:10239300FFED33FD4007985006D5F0F222C398FDB8
:0523A3000FD5F0EA2255
:1023A800C5F0F8A3E028F0C5F0F8E58215827002C0
:0623B8001583E038F0225D
:1023BE00A3F8E0C5F025F0F0E582158270021583D2
:0623CE00E0C838F0E8222F
:0D23D400EF2BFFEE3AFEED39FDEC38FC2258
:1023E10075F008758200EF2FFFEE33FECD33CDCCB3
:1023F10033CCC58233C5829BED9AEC99E582984036
:102401000CF582EE9BFEED9AFDEC99FC0FD5F0D612
:10241100E4CEFBE4CDFAE4CCF9A88222B800C1B93C
:102421000059BA002DEC8BF084CFCECDFCE5F0CB7A
:10243100F97818EF2FFFEE33FEED33FDEC33FCEBB3
:1024410033FB10D703994004EB99FB0FD8E5E4F96E
:10245100FA227818EF2FFFEE33FEED33FDEC33FC5B
:10246100C933C910D7059BE99A4007EC9BFCE99A4F
:10247100F90FD8E0E4C9FAE4CCFB2275F010EF2F94
:10248100FFEE33FEED33FDCC33CCC833C810D70794
:102491009BEC9AE899400AED9BFDEC9AFCE899F8CF
:0E24A1000FD5F0DAE4CDFBE4CCFAE4C8F92262
:1024AF00E8600FEFC333FFEE33FEED33FDEC33FC8B
:0324BF00D8F1222F
:0C24C200E0FCA3E0FDA3E0FEA3E0FF228D
:0C24CE00E0F8A3E0F9A3E0FAA3E0FB2291
:0C24DA00ECF0A3EDF0A3EEF0A3EFF02275
:1024E600A8828583F0D083D0821224FD1224FD12A7
:1024F60024FD1224FDE473E493A3C583C5F0C583CC
:10250600C8C582C8F0A3C583C5F0C583C8C582C83F
:0125160022A2
:10251700D083D082F8E4937012740193700DA3A353
:1025270093F8740193F5828883E473740293686067
:06253700EFA3A3A380DF67
:10253D00D083D082F8E4937012740193700DA3A32D
:10254D0093F8740193F5828883E473740293B5F064
:0D255D00067403936860E9A3A3A3A380D8CC
:10472A00025930E493A3F8E493A34003F68001F21C
