:06259800014B00014400AC
:102D4800D3E5149427E51394012275130175142C07
:012D58002258
:102AAB008F1275A0407F017E00122BD7E5125407C1
:102ABB00F54BE54B4544F5807F017E00122BD77516
:032ACB00A0A022A6
:102A85008F5675A0407F017E00122BD7E556333354
:102A9500335438F544E544454BF5807F017E0012FB
:062AA5002BD775A0A02252
:101B4400E4F512F513F51443A00FF51375140AE523
:101B5400141514AE13700215134E7003021C2312D5
:101B64001C26F512640F60E7E51224F5603424FEA8
:101B7400605614607924076003021C20122D52E57C
:101B84001445136012E514151470021513121C2663
:101B9400640760EB7F0422122D4840037F00227FFC
:101BA4000422122D52E51445136012E51415147025
:101BB400021513121C32640B60EB7F0322122D48B2
:101BC40040037F00227F0322122D52E51445136047
:101BD40012E514151470021513121C32640D60EB17
:101BE4007F0222122D4840037F00227F0222122D01
:101BF40052E5144513601AE5141514700215137F89
:101C0400017E00122BD7E5A0540F640E60E37F0120
:101C140022122D4840037F00227F01227F00227F71
:011C240000BF
:101C2500227F017E00122BD7E5A0540F227F017E73
:091C350000122BD7E5A0540F2288
:062783008B1D8A1E891F58
:10278900120AAC9002B8F09002B77401F09002B747
:10279900E0FFC39D5020A3E0FEAB1DAA1EA91F8F19
:1027A90082758300120AC5FFEE6F9002B8F090029D
:0B27B900B7E004F080D79002B8E0FF0A
:0127C40022F2
:0620E900AA058F828E8320
:1020EF00BA02047F0180027F00BA01047E018002E0
:1020FF007E00EE4F600C740C2AFAE5821582700296
:10210F001583EA2401FFE433FE7C007D03120B26C6
:10211F007D05120B38AC06AD07EA75F002A47A0004
:10212F002BFFEA35F0CF2DCF3CCF2582FDEF358346
:10213F00FCE582AE837802CEC313CE13D8F92DFB04
:10214F00EC3EFA7C007D64AF82AE83120B38C3EB9A
:10215F009FFBEA9EFAAE83AF827C017D90120B3813
:10216F00EF2BFFEE3AFE7C007D07120B38ED04FFDC
:01217F00223D
:102BD700EF1FAA0670011E4A6013E4FCFDC3ED94C3
:0D2BE7001CEC940250EA0DBD00010C80F0C2
:012BF40022BE
:0B2F8100EF1FAC0670011E4C70F62222
:102BF500F548AE47AF488E47EF22F546AE45AF469E
:0E2C05008E45EF22F54AAE49AF4A8E49EF22C6
:0B2F8C007F0A7E00122BD775BBFF22CE
:102D6A00438901758AFB758CDBD28CD2A9D2AF223A
:102C8800759850438920EF6007E4F58BF58D800631
:0B2C9800758BFD758DFDD28ED2AC2235
:0D2F4000759A50759CB8438E1475AF012230
:10233700122BF754FE122BF554FD122BF554FB12FA
:102347002BF554F7122BF554EF122BF554DF122B04
:10235700F554BF122BF5547FF548122C0B4401128C
:102367002C094402122C0954FB122C094404F54A87
:10237700122C014402122BFF4404122BFF440812B3
:102387002BFF4410122BFF54DF122BFF54BF122BCD
:10239700FF4480F5467F0C900296E4F0A3DFFC7FB4
:1023A70001122AAB90021F7401F0FF7E00122BD797
:0723B700122C0B54F7F54A4C
:0123BE0022FC
:102ACE00122F8CE4FF122C88122F40122D6A122323
:102ADE0037E4F5A05380F775A0A0122849122FFEF7
:032AEE00022D07AF
:062FF800122ACE0218D7D8
:10288A000B00000000000000000000000000000033
:10289A00000000000000000000000000000000002E
:1028AA000000000000000000D6C81F56D16872B0B0
:1028BA00000102030405060708090A0B0C0D0E0F96
:10115700EF04F0E0C4540F7E00540F24BAF582EE7A
:101167003428F583E493C454F0FF22E0FF04F074BD
:101177007B2FF582E43402F5837402F090027AE063
:10118700FF04F0747B2FF582E43402F583222FF0FD
:10119700E075F00A84C454F0FFE075F00A84EF2587
:1011A700F0F022E0FFE4FCFDFE900280120CBF90FD
:1011B7000280020CA77B80780090027C120CA71299
:1011C7000C02AC00AD01AE02AF032274A22557F5A5
:1011D70082E43402F583E004F074A22557F582E433
:1011E7003402F58322900222E0FFA3E0FDA3E0FB97
:1011F700900226E0F515A3E0F516A3E0F51722FC0B
:10120700900280120CBF90027C120CA790028012F1
:101217000CB3120BB990027C020CBFF583E024D00B
:10122700F0741F2FF582E43402F583E022AE49AF54
:101237004A8E49EF22900284E0241CF582E43402AE
:10124700F583E022F0E0C454F0F0E0FF2274212F90
:10125700F582E43402F583E022900284E0241EF54F
:1012670082E43402F583E022741D2FF582E4340210
:10127700F583E022E0540F9028BA9322900284E08D
:10128700FF2420F582E434022290027AE0FE04F083
:10129700747B2E22741B2FF582E43402F583E0223F
:1012A700AE47AF48EEC4F854F0C8EFC4540F482215
:1012B700AE45AF468E45EF227B807A5179017800A3
:1012C700020C0274962557F582E43402F58322F066
:1012D700900284E004F02290021F7401F0FF7E0068
:0E12E70022900284E0FFC32290027C020CA73A
:1018D700E4F510AE49AF4AEF7807CEC313CE13D85D
:1018E700F930E03090021FE064017028121234547E
:1018F7007FF54A7F01122AAB1212DE122BD7E49032
:101907000279F07F01FE122BD77BFF7A28798A7D37
:10191700301227C5AE45AF46EF7807CEC313CE13B7
:10192700D8F930E00D121F94121F941212B7547F8A
:10193700F5461212A720E059AE45AF46EF7805CE1F
:10194700C313CE13D8F930E005121E138021120DF0
:1019570022AE45AF46EF7806CEC313CE13D8F93083
:10196700E00D1212B754BFF546121B44EF70FA127E
:10197700123454FBF54AAE49AF4AEF7805CEC3138C
:10198700CE13D8F930E00A121D3312123454DFF5A2
:101997004A121B44EF6401703FAE45AF46EF78052E
:1019A700CEC313CE13D8F95401F4FF7E00EF5401D0
:1019B7007805C333CE33CED8F9FFAC45AD46ED54E9
:1019C700DFFDEC4EF545ED4FF5461212344404F5B4
:1019D7004A1212B74440F546121B44BF04031208CB
:1019E70036121B44BF0303120F951212A720E00300
:1019F7000218DA120046AE47AF488E47EF54EFF5AC
:0B1A0700481212344401F54A0218DABC
:1000460090027C120CCB00000000900280120CCBB8
:100056000000000090021FE0600302034A9002794C
:10006600E0D39414500302032CE09450400302039F
:100076002C900221E06424600302032CA3E0644771
:10008600600302032CA3E06450600302032CA3E088
:100096006452600302032CA3E0644D600302032C48
:1000A600A3E06443600302032CA3E0642C60030214
:1000B600032C1205449002847407F01212E8940D82
:1000C6005010121254C39430500302032C1212D74C
:1000D60080E9900228E0C39433400302032CA3E096
:1000E600C3943A400302032CA3E0C39436400302B0
:1000F600032CA3E0C3943A400302032CA3E0C39469
:1001060036400302032CA3E0C3943A400302032CB7
:100116009002847407F01212E8940D500A121254D9
:1001260024D01212D680EF900228E07010A3E0C30C
:1001360094025002801590022874018019900228BA
:10014600E0B4011FA3E0C394025006E02408F08047
:10015600259002287402F0A3E0F404FFC374FE9F06
:10016600F08013900228E0B4020CE4F0A3E0F4045B
:10017600FFC374049FF0900228E090022612124BEF
:10018600900229E0FEEF4E900226F090022AE090BF
:10019600022712124B90022BE0FEEF4E900227F040
:1001A60090022CE090022812124B90022DE0FEEFF6
:1001B6004E900228F0E4900285F0900279E09002D9
:1001C60084F0900284E0FFD39407401C121254B4CA
:1001D6002C06900285E004F0900285E06403600836
:1001E600900284E014F080DA121283F583E0C3945F
:1001F6003A400302032C121228C3943A4003020326
:100206002C121260C39433400302032C12126FC3E4
:100216009432400302032C12123CC3943A40030268
:10022600032C12129BC39434400302032C900284C5
:10023600E0121288F583E0C39430500302032C12B7
:100246001228C39430500302032C121260C3943058
:10025600500302032C12126FC39430500302032C76
:1002660012123CC39430500302032C12129BC39407
:1002760030500302032C12128312122224D0F0747F
:100286001E2F12126624D0F012126F24D0F0741CA6
:100296002F12124224D0F0741B2FF582E43402127E
:1002A600122290022212124B900284E0FE12128851
:1002B600F583E0FDEF4D900222F0741D2E121272AE
:1002C60090022312124B900284E0FE121264FDEF9C
:1002D6004D900223F0741B2E12129E9002241212CD
:1002E6004B12123CFEEF4E900224F0900222E024C4
:1002F600D0FFE43407FEA3E0FDA3E0FB1220E99063
:100306000286EFF0E0FF600A1229087F017E0012E4
:100316002BD71211EC12269F12123454EFF54A7F96
:10032600017E00122BD712123454F7F54A7F0A7E4B
:1003360000122BD7E4FF122AABE490021FF07F01D4
:10034600FE02050D90021FE064016003020518908D
:100356000249E0FF900241E06F600302051090023F
:100366004AE0FF900242E06F600302051090024BE4
:10037600E0FF900243E06F600302051090024CE03C
:10038600FF900244E06F60030205101205449002DC
:10039600491211AA7818120C941211B0E4FFFEFD4E
:1003A600EC1211B012121C90024A1211AA78101205
:1003B6000C941211B0E4FFFEE412120690024B12E6
:1003C60011AA7808120C941211B0E4FFE4FD12127F
:1003D6000690027C120CB390024CE0FFE4FCFDFE9A
:1003E6001212191212EFEF2480FFEE3470FEE43D74
:1003F600FDE43CFC12121C7B3E7A8579E178011201
:1004060012EF120C02EF249CFFEE34FF90027AF0FA
:10041600A3EFF090022212115990022212127B9041
:1004260002221211957B3E7A8579E178011211C07C
:100436007B6F7A2079287800120C02900223121121
:100446005790022312127B9002231211957B6F7A2A
:100456002079281211BE1212BF9002241211579051
:10046600022412127B2F9002241211967A517901DE
:100476001211BCE47B107A0EF9F8120C02900226D7
:10048600EF12115990022612127B2F90022612119A
:1004960096E47B107A0EF9F81211C0E47B3CFAF967
:1004A600F8120C02900227EF12115990022712122D
:1004B6007B2F900227121196E47B3CFAF9F8121270
:1004C600EF120C02900228EB121159900228121218
:1004D6007B2F9002281211967A3A79091211BC12D2
:1004E60012BFEF04FF900286F0122908900228E05E
:1004F60004F01211EC12269F7F0A7E00122BD77F82
:1005060001122AAB1212DE022BD712123454BFF597
:100516004A2290021FE064027023900284F01212B5
:10052600E89408500A12125424E01212D680EF9072
:0D0536000225E0FF1229081211EC12269F89
:10054300227F02122AAB90021F7402F07F017E0009
:10055300122BD77F017E00122BD77B017A027921E0
:10056300900279E0FD1227C57F0A7E00122BD72265
:101D33000557E557C3940C4003E4F557E490027A42
:101D4300F090027B7401F0A3742CF090027A740675
:101D5300F0AF571225F27F647E00122BD7AF5712D4
:101D630025F290027BE07002A3E07003021DF59060
:101D7300027B74FFF5F0120B8D7F017E00122BD7CF
:101D830075150075160075170C7B017A02790A1216
:101D9300204DEF60CD90020AE0B402C6A3E0B4A5E3
:101DA300C1A3E0B45ABCA3E0B4A5B7A3E0B45AB24C
:101DB300A3E0B4A5ADA3E0645A70A7A3E064A57043
:101DC300A1A3E0645A709BA3E0F47096900215E01F
:101DD3006403708E900214E0B5570C1211E0E4F026
:101DE3001212CA7401F0221211D2E0C39403401FED
:101DF300801890027AE004F0E0C394065003021DB9
:0F1E0300441211D2E0C3940340051212CAE4F056
:011E120022AD
:101F9400E490027AF01211727420F07F0612202A63
:101FA400EFF07F0512202AEFF07F0412203F121178
:101FB4008DEFF07F03122CA39002AEEFF0E05407F4
:101FC400F0E0FF12129012118DEFF07F0212203F09
:101FD40012118DEFF07F01122CA312129012118DA9
:101FE400EFF0E4FF122CA3EF547FFF1212901211B2
:101FF4008DEFF090027AE0247B12118DE00412112F
:10200400827401F090027A1211727403F07B017AE7
:1020140002797B7D0C122C317F647E00122BD77FDA
:062024000A7E00022BD72A
:10202A00122CA390027AE0FE04F0747B2EF582E46F
:10203A003402F58322122CA390027AE0FE04F07493
:03204A007B2E22C8
:072FEA00C1C2BBCAAB4721C5
:102D590090027BE0FFC394102290027AF0E4A3F082
:012D69002247
:1029A800E49002B4F0E49002B5F0E49002B6F0903E
:1029B80002B6E004F0E0B433F69002B5E004F0E0CB
:0D29C800B440E79002B4E004F0E0B41ED883
:0129D50022DF
:042180008E118F121B
:10218400E4F5A07480122D62122D5950051221E33A
:1021940080F6E490027BF07488122D62122D59505F
:1021A400051221E380F6E490027BF090027A7490A9
:1021B400F0E4A3F0122D5950051221FD80F6E490AD
:1021C400027BF090027A7498F0E4A3F0122D595037
:0E21D400051221FD80F6E490027BF075A0A0BC
:1021E2002290027AE02FFF1214917F2012160B7FA9
:1021F2002012160B90027BE004F02290027AE02F6C
:10220200FF1214917F2012160B7F2012160B9002E0
:052212007BE004F02256
:102A04008D58E4F5A0121491E55875F00A84243029
:102A1400FF12160BE55875F00A84E5F02430FF1216
:0B2A2400160B7F3A12160B75A0A022C3
:0A2217008F138D148B158A1689179A
:10222100E4F5A07F01FE122BD7E513D394034003FD
:10223100751303E514D394084003751408E51314CA
:1022410060101460131460162403701AE5142480BE
:102251008010E5142488800AE51424908004E51494
:102261002498900291F0900291E02514F0E0FF1281
:102271001491AB15AA16A917120AAC900290F0643A
:1022810021601C74012517F517E43516F516900227
:1022910090E0FF12160B7F017E00122BD780D37FB7
:0922A100017E00122BD775A0A0EC
:0122AA002211
:10284900E4F5A07F3312287F7F301214911229D624
:102859007F3012287F7F011214917F0A7E00122B8C
:10286900D7122FB87F0A7E00122BD77F207E001245
:10287900218075A0A0221214917F0A7E00122BD705
:01288900222C
:1029D600E490027AF0E490027BF0E490027CF090BE
:1029E600027CE004F0E0B433F690027BE004F0E011
:0D29F600B440E790027AE004F0E0B403D8AA
:012A030022B0
:0A2FB8007F301214917F0C02149177
:0A2FC2007F301214917F0802149171
:0A2FCC007F361214917F3002149139
:0A2FD6007F341214917F3002149131
:10253600E49002BAF012258E9002B912257BC2826F
:1025460012258612258E001225869002BA12257B48
:10255600C2829002B9E054F0FFF0A3E0C4540FF039
:10256600540FF04F9002B9F07F017E00122F819038
:0425760002B9E0FFC7
:10257A0022E580F07F017E00122F81227F017E00FA
:0E258A00122F8122122446D280D281D28222C8
:02160B008F1836
:10160D00E4900292F0122446E51854F0900292F004
:10161D00120CFC165400165810165E201664301667
:10162D006E40167250167860167E70168880168C75
:10163D00901692A01698B016A2C016A6D016ACE0C1
:10164D0016B2F0000016BAC2848002D284C2858020
:10165D000AC284D2858004D284D285C286C2878094
:10166D004CC2848002D284C285800AC284D2858015
:10167D0004D284D285D286C2878032C2848002D2BF
:10168D0084C285800AC284D2858004D284D285C268
:10169D0086D2878018C2848002D284C285800AC215
:1016AD0084D2858004D284D285D286D287121775D2
:1016BD00C2827F057E00122F81E518C454F090027E
:1016CD0092F054F0F0120CFC170900170D101713BF
:1016DD0020171930172340172750172D6017337017
:1016ED00173D801741901747A0174DB01757C017DA
:1016FD005BD01761E01767F00000176FC28480029E
:10170D00D284C285800AC284D2858004D284D285D7
:10171D00C286C287804CC2848002D284C285800A70
:10172D00C284D2858004D284D285D286C28780328B
:10173D00C2848002D284C285800AC284D28580048C
:10174D00D284D285C286D2878018C2848002D28488
:10175D00C285800AC284D2858004D284D285D28685
:07176D00D287121775C2823A
:0F17740022D280C281D2827F057E00122F812275
:021491008F18B2
:10149300E4900292F0122446E51854F0900292F080
:1014A300120CFC14DE0014E21014DA2014E83014D9
:1014B300F24014F65014FC60150270150C801510E0
:1014C300901516A0151CB01526C0152AD01530E0AE
:1014D3001536F00000153EC284800CC2848002D20F
:1014E30084C2858004D284D285C286C287804CC2DE
:1014F300848002D284C285800AC284D2858004D2C9
:1015030084D285D286C2878032C2848002D284C2CA
:1015130085800AC284D2858004D284D285C286D2D1
:10152300878018C2848002D284C285800AC284D292
:10153300858004D284D285D286D2877F017E001231
:101543002F811215FDC2827F017E00122F81E518C3
:10155300C454F0900292F0120CFC159100159510F2
:10156300159B2015A13015AB4015AF5015B560156F
:10157300BB7015C58015C99015CFA015D5B015DF63
:10158300C015E3D015E9E015EFF0000015F7C284AC
:101593008002D284C285800AC284D2858004D28428
:1015A300D285C286C287804CC2848002D284C2851F
:1015B300800AC284D2858004D284D285D286C2872F
:1015C3008032C2848002D284C285800AC284D285DA
:1015D3008004D284D285C286D2878018C2848002D6
:1015E300D284C285800AC284D2858004D284D28503
:0915F300D286D2871215FDC282D6
:0F15FC0022C280C281D2827F017E00122F812203
:10244600E4900294F0A3F0900293F01224A290027A
:10245600941224B3C28200007F017E00122F8112E3
:1024660024A29002951224B3C2820000900295E045
:10247600C4540FF0540FFFF0900294E054F0F04F64
:10248600F07F017E00122F81900294E030E70C90DD
:0B2496000293E004F0E0C3941440B097
:1024A100227580F0C280D281D2827F017E00122FFC
:0D24B1008122E580F07F017E00122F812244
:102B14002020A440A447A454A57CA4ADA4BBA4E94C
:102B2400212020A46CC4C1B373BD75AAACBA4120E2
:022B340020215E
:1024BE00E0FF04F0747C2FF582E43402F58374207F
:1024CE00F090027BE0FF04F0747C2FF582E434027E
:1024DE00F5837420F090027BE0FF04F0747C2FF5FE
:1024EE0082E43402F58322E0C4540F2430FF9002BC
:1024FE007BE0FE04F0747C2E227421F07B017A02C4
:10250E00797CE4FD22745BF0AE45AF4622EEC4F852
:10251E0054F0C8EFC4540F4822AE45AF468E45EF77
:08252E0022E0241054F0F02219
:0D2F4D00D2C0D2C10000C2C00000C2C1222B
:0B2F9700C2C0D2C10000D2C000002266
:0D2F5A00A20092C0D2C10000C2C10000223E
:0B2FA200D2C10000A2C0C2C10000228A
:0C297800C2AF122F4D7FDE122984AF0485
:10298400E4FEFDEF25E0FF92C0D2C10000C2C10009
:10299400000DBD08EE122FA25009AF060EEF941ED3
:0329A40040F322DB
:0129A700220D
:102C6C00E4FFD2C0FEEF25E0FFD2C10000A2C0E419
:0B2C7C00334207C2C100000EBE08EA90
:012C8700222A
:102CD700AC05AB07122978AF03122984122F97D2BC
:082CE700AF7F057E00022BD730
:022CA300AC077C
:102CA500122978122F4D7FDF122984122C6CD20045
:082CB500122F5A122F97D2AF23
:012CBD0022F4
:102908008F127F03122CA39002AEEFF07D077F4059
:10291800122CD77F017E00122BD7E5129002AEB49D
:10292800FF05E044088009E054F8F0E04408451247
:09293800F0E0FF7D03122CD72210
:10269F008D138B147D061226DC7D05AF131226DCFD
:1026AF007D04AF141226E77D02AF151226E77D01D8
:1026BF00AF16122CD77F017E00122BD7E51744805F
:1026CF00FFE4FD122CD77F017E00022BD7122CD7EF
:1026DF007F017E00122BD722122CD77F017E001292
:0326EF002BD722C4
:102B99009002B3E0B49903E4F0229002B3E0540F39
:0F2BA900FFBF090412252F229002B3E004F0228F
:102B36009002B1E024EE600B2409700E9002B1748D
:102B460010F0229002B17401F0229002B1E004F07C
:012B5600225C
:102941009002AEE024F7601324F0601624F06019C1
:1029510024F8701C9002AE7401F0229002AE741043
:10296100F0229002AE7420F0229002AE7430F02278
:072971009002AEE004F02229
:102A2F009002B2E024F7601524F0600A24F67014C7
:102A3F00E49002B2F0229002B27420F0229002B21F
:0B2A4F007410F0229002B2E004F022AC
:102BB8009002B0E0B45903E4F0229002B0E0540F60
:0F2BC800FFBF090412252F229002B0E004F02273
:102AF1009002AFE0547FF0E0B45903E4F022900279
:102B0100AFE0540FFFBF090412252F229002AFE05E
:032B110004F022AB
:052FFE007FFF0229081D
:100D2200E490027BF01224E674321224E27430F072
:100D32007F06122CA39002B3EFF01224F51224EDD9
:100D4200EFF09002B3E01224F71224EDEFF0122438
:100D5200E374A61224E2747E1224CE7420F07F057E
:100D6200122CA39002B1EFF0E0D39412400374125C
:100D7200F09002B11224F51224EDEFF09002B1E0EE
:100D82001224F71224EDEFF01224E374A41224E2E9
:100D920074EBF07F04120F8BD3943140037431F063
:100DA2009002AE1224F51224EDEFF09002AEE012A2
:100DB20024F71224EDEFF01224E374A41224E27457
:100DC200E91224E2122507FF122217E490027BF0B7
:100DD200AE45AF46EEC313EF1330E0081224E674BB
:100DE2002BF080061224E37420F07F02122CA390D1
:100DF20002B2EFF0E0D3942340037423F09002B2E6
:100E02001224F51224EDEFF09002B2E01224F71250
:100E120024EDEFF01224E3743AF07F01122CA39038
:100E220002B0EFF0E0D3945940037459F09002B04D
:100E32001224F51224EDEFF09002B0E01224F71222
:100E420024EDEFF01224E3743AF0E4FF122CA3EF46
:100E5200547F9002AFF0E0D3945940037459F0905C
:100E620002AF1224F51224EDEFF09002AFE012244B
:100E7200F71224EDEFF01224CF74AC1224E2745076
:100E82001224E274B41224E274C1F07F03120F8BB5
:100E92005407F0E025E0F0E0902B14931224FB12AB
:100EA20024EDEFF09002AEE0902B15931224FB128A
:100EB20024EDEFF01224E31225077F02122217E439
:100EC20090027AF090027AE0FFC39410500E12243E
:100ED200EA7420F090027AE004F080E81224EA1228
:100EE20025077F01122217E490027BF01224E612FA
:100EF2002513EF7802CEC313CE13D8F990027B30BC
:100F0200E0121224E674431224E2744F1224E274B3
:100F12004DF080061224BE7420F01224E3745D1298
:100F220024E2122513EF7803CEC313CE13D8F9901F
:100F3200027B30E0121224E674471224E27450124B
:100F420024E27453F080061224BE7420F01224E3CB
:100F5200745D1224E212251312251B90027B30E0ED
:100F6200121224E6744E1224E274541224E27450D3
:100F7200F080061224BE7420F01224E3745D122461
:090F8200CE1225077F030222179D
:0A0F8B00122CA39002AEEFF0E0225A
:0212F5008F1256
:1012F700E490027AF07BFF7A2B7925FDFF12221703
:10130700E4F5A07F901213FC60051214718003129C
:10131700147912160B12146105127F881213FC60E0
:1013270005121471800312147912160B1214610539
:10133700127F9812149112143060051214818003E1
:1013470012148912160B7F5D12160B7F2012160BD3
:101357007F2012160B05127F941213C36005121417
:1013670081800312148912160B7F5D12160B05126A
:101377007F8C1213C360097F4F12160B7F4B8007B8
:101387007F5812160B7F5812160B7F5D12160B052E
:10139700127F9C1214917F2012160B1214306009D1
:1013A7007F4F12160B7F4B80077F5812160B7F5803
:0B13B70012160B7F5D12160B75A0A034
:1013C200221214917F2012160BE51275F00A842462
:1013D20030FF12160BE51275F00A84E5F02430FF97
:1013E20012160B7F3A12160B7F5B12160B749625A0
:1013F20012F582E43402F583E022121491E51275AB
:10140200F00A842430FF12160BE51275F00A84E507
:10141200F02430FF12160B7F3A12160B7F5B121666
:101422000B74962512F582E43402F583E022E5126C
:1014320075F00A842430FF12160BE51275F00A8447
:10144200E5F02430FF12160B7F3A12160B7F5B1267
:10145200160B74962512F582E43402F583E0227F9E
:101462005D12160B7F2012160B7F2012160B227FA5
:101472004F12160B7F4B227F5812160B7F58227F7A
:0F1482004F12160B7F4B227F5812160B7F5822EA
:101E1300E4F511AF111212F5AE45AF46EF7806CED9
:101E2300C313CE13D8F930E00D12252754BFF5465E
:101E3300121B44EF70FA121B44EF147003021ED6F8
:101E430024FD601304702674062511F511C3940C48
:101E53004012E4F511800DE511C39406400674FAAF
:101E63002511F5111225274440F54680A6AE49AF4A
:101E73004AEF7805CEC313CE13D8F930E00E121D06
:101E830033AE49AF4A8E49EF54DFF54AAE47AF4808
:101E930012251B30E019120046AE47AF488E47EFBC
:101EA30054EFF548AE49AF4A8E49EF4401F54AAEC7
:101EB30045AF46EF7807CEC313CE13D8F920E0031E
:101EC300021E16121F94121F94122527547FF546E3
:031ED300021E16D6
:011ED60022E9
:10259E0041021F004102790041021E0042027600F4
:1025AE000041027100410275004102740041027245
:0D25BE00004102780041027300410220003C
:10264900AE47AF488E47EF54FBF548900271E4F06E
:10265900AE47AF488E47EF224410F548AE49AF4A1E
:102669008E49EF22900279E0FF04F074212FF58260
:10267900E43402F5832274A5F0A3745AF0A374A577
:10268900F0A3745AF0A322E0FF04F0EFD322F54A35
:06269900900279E4F0223A
:0827C5008B128A1389148D1593
:1027CD007F017E00122BD7E4F516E516C395155043
:1027DD0017AB12AA13A914851682758300120AC5A8
:1027ED00FF120026051680E2AE47AF48EF7806CE01
:0927FD00C313CE13D8F920E0EF5C
:0128060022AF
:082807008B4C8A4D894E8D4F68
:10280F007F017E00122BD7E4F550E550C3954F5052
:10281F0017AB4CAA4DA94E855082758300120AC57D
:10282F00FF122C4F055080E2AE47AF48EF7807CE2E
:09283F00C313CE13D8F920E0EF19
:01284800226D
:10002600AD07AE47AF48EF7806CEC313CE13D8F967
:0D00360020E0EF1226594440F5488D992234
:102C4F00AD07AE47AF48EF7807CEC313CE13D8F911
:0D2C5F0020E0EF1226594480F5488D9B229D
:0225F2008F1246
:1025F4007F017E00122BD790020A7402F0A31226E8
:102604007F12267F74FFF0A3E512F0A37403F07B1E
:10261400017A02790A7D0C122C317F017E00122B83
:10262400D7E490027DF090027DE0FFC3940C501437
:10263400740A2FF582E43402F583E4F090027DE01D
:0426440004F080E23C
:01264800226F
:030023000217833E
:10178300C0E0C083C082C0D075D000C000C005C017
:0317930006C00786
:10179600C2AF43C1102098030218B8C298AD999001
:1017A6000271E4F0AE49AF4AEF20E0030218B890A8
:1017B600021FE0705BAE49AF4AEEC4F854F0C8EFC2
:1017C600C4540F4830E049BD2419AE49AF4AEF78FA
:1017D60003CEC313CE13D8F920E0081226654408B9
:1017E600122697AE49AF4AEF7803CEC313CE13D86D
:1017F600F920E0030218B812266DEDF0640A6003C2
:101806000218B8900279E02421122677E4F08026A7
:1018160090021FE06401702BAE49AF4AEF7806CE06
:10182600C313CE13D8F930E01A12266DEDF09002EC
:1018360079E06430707C12265912266154FEF54A0E
:101846000218B890021FE064027067AE47AF48EF17
:101856007802CEC313CE13D8F930E04012266DEDD0
:10186600F0900279E0640B7049E02420F582E434BC
:1018760002F583E0AE47AF48B4030C8E47EF12265D
:101886006154FEF54A800C8E47EF54EF12266344EE
:1018960001F54A12264954FEF5488016BD02131278
:1018A60026594401F5481226594404F54890027910
:1018B600E4F0309909C29912265954BFF548D2AFBF
:1018C600D007D006D005D000D0D0D082D083D0E0CB
:0118D60032DF
:03004300021ED7C3
:0B1ED700C0E0C083C082C0D075D008FE
:101EE200C2AF43C110E59A20E003021F7A539AFE63
:101EF200AD9B900275E4F0AE47AF48EF7803CEC3D6
:101F020013CE13D8F930E05A90021EE0FF04F074A9
:101F12000A2FF582E43402F583EDF090021EE064AC
:101F22000B7055E02409F582E43402F583E0AE47F4
:101F3200AF48B4030E8E47EF442012266354FDF5DA
:101F42004A800C8E47EF54DF1226634402F54A1290
:101F5200265954F7F54890027512265754FDF54854
:101F62008016BD02131226594402F548122659441E
:101F720008F54890021EE4F0E59A30E10A539AFD12
:091F8200122659547FF548D2AF34
:091F8B00D0D0D082D083D0E03226
:03000B00021A12C4
:101A1200C0E0C0F0C083C082C0D075D000C000C09A
:101A220006C00743C110758AFB758CDB900276E411
:101A320075F001120BA3FED3E5F0940AEE94004078
:101A420073900276E4F0A3F09002201226909401A3
:101A52004009E4F01226654404F54A900274122605
:101A620090941E400DE4F0AE45AF468E45EF4480A3
:101A7200F54690027212269094C8400AE4F01226AB
:101A820065441012269790027312269094644011B6
:101A9200E4F01226654440F54A1226654480122677
:101AA2009790027812269094144009E4F012266569
:101AB2004420F54AAE47AF48EF30E026900271E08D
:101AC200FF04F0EFC39405401912265954EF122671
:101AD200634401F54AE4F0900279F012264954FE7B
:101AE200F548AE47AF48EEC313EF1330E043900220
:101AF20075E0FF04F0EFC394054036AE47AF48EF00
:101B02007803CEC313CE13D8F930E00C1226594411
:101B12002012266354FDF54A900275E4F090021EED
:101B220012265854F7F54890027512265754FDF5BF
:101B320048D007D006D000D0D0D082D083D0F0D009
:021B4200E0328F
:102CEF008FC48EC375C65A75C6A52274002555F5B7
:082CFF008274003554F58322B4
:0623BF008E518F528D5378
:1023C500E4F554F555AF55AE54122D7A122CFAEFAB
:1023D500F00555E55570020554C3E554940240E5F2
:1023E500E4FFFE122F74E4F554F555AF55AE5412C3
:1023F5002D7AEFF470480555E55570020554C3E58F
:1024050054940240E67F0A7E00122BD774002552B1
:10241500F58274003551F583E553F0E4F554F5552F
:10242500122CFAE0FDAF55AE54122D350555E55584
:1024350070020554C3E554940240E57F01227F00F4
:012445002274
:10000E00AE071FEE600DE4FCFD0DED70010C4C60B3
:03001E00EF80F67A
:0100210022BC
:0D2F6700E4F5C7F5C5F5C675C380F5C422B5
:0F2D7A0075C78275C501122CEF00AFC2122F670B
:012D89002227
:102D350075C78275C5028FC48EC38DC2122CF30070
:032D4500022F67F3
:0D2F740075C78275C503122CEF00022F6790
:08000300C0C0C0C0C0C0C0C0F5
:1025CB0020232100080010A7625BF80322F80047C4
:1025DB00B610181D1CC700B2EA2A00115981350923
:0625EB0006060405000CC9
:102D1E0090027FE0AB15AA16A91722C3900282E09B
:072D2E009F900281E09E224C
:102A5A00E4900281F0A3F0122D295009E475F001E7
:102A6A00120B8D80F2E4900281F0A3F0122D29500E
:0A2A7A0009E475F001120B8D80F2E3
:012A8400222F
:102CBE00000000000000000000000000000000EF17
:092CCE001F70011E144E70E82273
:072FF100C294C297D29422A2
:0A2FE000122FF17F887E13022A5A97
:1028CA00E490028AF0C297900289F0EF30E704D2CE
:1028DA00958002C295EF25E0FFD297000090028A08
:1028EA00E025E0F0309603E004F0C2970000900281
:0D28FA0089E004F0E0B408D390028AE0FF0A
:0129070022AD
:102D8A00C2942096FD7F301228CA2096FDD2942242
:102C1300D2947F017E00122CBEC2947F017E0012EB
:0E2C23002CBED2947F297E00122CBE022D8A78
:102D9A00C2942096FD1228CAAF051228CAD29422DC
:06273D008B148A158916B9
:10274300EF4440900288F0C2942096FD900288E006
:10275300FF1228CAE4900287F0900287E0FFC39536
:1027630017501AAB14AA15A9168F82758300120A83
:0F277300C5FF1228CA900287E004F080DCD294E0
:012782002234
:0B2FAD00C2942096FD1228CAD2942284
:102B5700EF4480900281F0C2942096FD900281E0BC
:102B6700FF1228CAE4FF1228CA900282EFF0D2941B
:012B7700223B
:0626F2008B198A1A891BF6
:1026F800EF44C0900282F0C2942096FD900282E0DE
:10270800FF1228CAE4900281F0900281E0C3951C70
:102718005020E4FF1228CAAB19AA1AA91B900281FB
:10272800E0F582758300EF120B04900281E004F05B
:0427380080D7D294E0
:01273C00227A
:102B7800EF44C0900282F0C2942096FD900282E059
:102B8800FF1228CAE4FF1228CA900281EFF0D294FB
:012B9800221A
:101C3E00AD217F0C122D9AAD227F0B122D9AAD2362
:101C4E007F0C122D9AAD247F0D122D9AAD257F0E8D
:101C5E00122D9AAD267F0F122D9AAD277F10122DC1
:101C6E009AAD287F11122D9AAD297F12122D9AADA1
:101C7E002A7F13122D9AAD2B7F14122D9AAD2C7F25
:101C8E000A122D9AAD2D7F15122D9AAD2E7F21128F
:101C9E002D9AAD2F7F22122D9AAD307F18122D9ACC
:101CAE00AD317F19122D9AAD327F1A122D9AAD33A6
:101CBE007F1B122D9AAD347F1C122D9AAD357F1DD0
:101CCE00122D9AAD367F23122D9AAD377F24122D09
:101CDE009AAD387F25122D9AAD397F26122D9AADE9
:101CEE003A7F29122D9AAD3B7F2C122D9AAD3C7F57
:101CFE002D122D9AAD3D7F2E122D9AAD3EE4FF1280
:101D0E002D9AAD3F7F02122D9AAD407F07122D9A6C
:101D1E00AD417F08122D9AAD427F09122D9AAD4327
:051D2E007F06022D9A62
:102C3100AC057F3F122D9A8C177F3F12273D7F35C0
:0E2C4100122FAD30B3FD20B3FD7F3B022FAD4F
:053003007F34022FAD37
:06204D008B128A138914B6
:10205300122D22120AAC25E025E0900280F07F3495
:10206300122FAD7F027E00122A5A30B3167F027EF2
:1020730000122A5A900280E014F0E0C3940150EA5F
:102083007F00227F3B122B78EF547F60567F3F12F5
:102093002B5790027FEFF0122D22120AACFEEFD3E2
:1020A3009E5032AB12AA13A91490027FE0F51C7F55
:1020B3003F1226F2122D1E120AF27B017A02797D5B
:1020C300751C027F3F1226F27F3A122FAD90027EDB
:1020D300E05480FF22122D1E120AF27F3A122FAD16
:0520E3007F00227F00D8
:0120E80022D5
:102D0700122FE0122C13121C3E7BFF7A00790375F9
:072D170017087F3E02273D73
:1005730061742B776966695F636F6E663D4E65775D
:1005830063616C20576972656C6573732C77657052
:100593002C323233383936313831313232330D0A75
:1005A3000061742B72656D6F746569703D61736969
:1005B300612E706F6F6C2E6E74702E6F72670D0AE2
:1005C3000061742B72656D6F7465706F72743D3169
:1005D30032330D0A0061742B4765745F4D41433D0F
:1005E3003F0D0A0061742B776966695F5363616E1F
:1005F3003D3F0D0A0061742B6F75745F7472616EF9
:10060300733D300061742B6E65746D6F64653D32AC
:100613000D0A0061742B64686370643D300D0A0039
:1006230061742B6D6F64653D636C69656E740D0A4F
:100633000061742B6E65746D6F64653D330D0A0044
:1006430061742B64686370643D310D0A0061742B1F
:1006530064686370645F69703D3139322E313638B6
:100663002E31302E312C3139322E3136382E313075
:100673002E3235342C3235352E3235352E32353552
:100683002E302C3139322E3136382E31302E313254
:10069300350D0A0061742B64686370645F646E7364
:1006A3003D3139322E3136382E31302E312C302E29
:1006B300302E302E300D0A0061742B646863706431
:1006C3005F74696D653D393630300D0A0061742BF6
:1006D300776966695F636F6E663D4E54502073653C
:1006E300727665722C777061325F6165732C31327B
:1006F3003334353637380D0A0061742B6468637000
:10070300633D310D0A0061742B6E65745F69703D42
:100713003139322E3136382E31302E32332C3235B8
:10072300352E3235352E3235352E302C3139322EA9
:100733003136382E31302E39380D0A0061742B6E64
:1007430065745F646E733D302E302E302E302C3046
:100753002E302E302E300D0A0061742B72656D6FB2
:10076300746570726F3D7463700D0A0061742B724F
:10077300656D6F746570726F3D7564700D0A00610D
:10078300742B6D6F64653D7365727665720D0A0037
:1007930061742B72656D6F746569703D3230322EF2
:1007A3003131322E33312E3139370D0A0061742B3A
:1007B30072656D6F7465706F72743D3132330D0AFB
:1007C3000061742B74696D656F75743D300D0A009B
:1007D30061742B756172743D393630302C382C6E50
:1007E3002C310D0A0061742B756172747061636B37
:1007F30074696D656F75743D3130300D0A00617435
:100803002B756172747061636B6C656E3D31303052
:100813000D0A0061742B6E65745F636F6D6D69748F
:100823003D310D0A0061742B7265636F6E6E3D314D
:030833000D0A00AB
:0E2DAA007BFF7A0579737D311227C57F0122E8
:0E2DB8007BFF7A0579F87D0F1227C57F012277
:0E2DC6007BFF7A0679977D241227C57F0122B4
:0E2DD4007BFF7A07793F7D1D1227C57F012204
:0E2DE2007BFF7A0679077D0F1227C57F01223D
:0E2DF0007BFF7A0679347D0F1227C57F012202
:0E2DFE007BFF7A0679D07D2C1227C57F01223B
:0E2E0C007BFF7A0679FC7D0D1227C57F01221F
:0E2E1A007BFF7A0679437D0D1227C57F0122CA
:0E2E28007BFF7A0679167D0D1227C57F0122E9
:0E2E36007BFF7A0679507D471227C57F012267
:0E2E44007BFF7A0679BB7D151227C57F012220
:0E2E52007BFF7A0879167D121227C57F0122B8
:0E2E60007BFF7A0779937D1D1227C57F012223
:0E2E6E007BFF7A0779B07D141227C57F012201
:0E2E7C007BFF7A0579A47D201227C57F0122F5
:0E2E8A007BFF7A0579C47D141227C57F0122D3
:0E2E98007BFF7A07795C7D131227C57F01222C
:0E2EA6007BFF7A07796F7D131227C57F01220B
:0E2EB4007BFF7A0779C47D0F1227C57F0122AC
:0E2EC2007BFF7A0779827D111227C57F0122DE
:0E2ED0007BFF7A0679237D111227C57F012230
:0E2EDE007BFF7A0779D37D151227C57F01226D
:0E2EEC007BFF7A0879017D151227C57F012230
:0E2EFA007BFF7A0779E87D191227C57F012238
:0E2F08007BFF7A0879287D0E1227C57F0122F3
:0E2F16007BFF7A0579D87D0F1227C57F012237
:0E2F24007BFF7A0579E77D111227C57F012218
:0E2F32007BFF7A0779097D361227C57F0122C1
:100F950012112E12112EC2C4C2C4C2C41210D6D24E
:100FA500C4D2C4D2C41210D61210DE122DE2EF70D4
:100FB50002FF221210DE122E1AEF7002FF2212100B
:100FC500E6122DAAEF7002FF221210E6122E0CEF88
:100FD5007002FF221210EE122EA6EF7002FF2212EF
:100FE50010EE122ED0EF7002FF221210F6122E7C98
:100FF500EF7002FF221210F6122E8AEF7002FF2206
:101005001210FE122EB4EF7002FF221210FE122EE5
:10101500DEEF7002FF22121106122EFAEF7002FFA8
:1010250022121106122EECEF7002FF2212110E127F
:101035002DE2EF7002FF2212110E122E1AEF70022E
:10104500FF22121116122DAAEF7002FF221211169D
:10105500122E0CEF7002FF2212111E122EA6EF7037
:1010650002FF2212111E122ED0EF7002FF22121162
:1010750026122E7CEF7002FF22121126122E8AEF05
:101085007002FF22121147122EB4EF7002FF2212D6
:101095001147122EDEEF7002FF2212114F122EFAA7
:1010A500EF7002FF2212114F122EECEF7002FF2299
:1010B5007F647E00122BD7122E52EF7002FF227F23
:1010C500647E00122BD7122F08EF7002FF227F01DA
:1010D500227F647E00122BD7227F647E00122BD7DD
:1010E500227F647E00122BD7227F647E00122BD7CD
:1010F500227F647E00122BD7227F647E00122BD7BD
:10110500227F647E00122BD7227F647E00122BD7AC
:10111500227F647E00122BD7227F647E00122BD79C
:10112500227F647E00122BD7227F01122AAB900208
:101135001F7401F0FF7E00122BD77F0A7E00122B51
:10114500D7227F647E00122BD7227F647E00122B6C
:02115500D7229F
:10083600120A83120A83C2C4C2C4C2C41209FBD2FA
:10084600C4D2C4D2C41209FB120A03122DF0EF70EF
:1008560002FF22120A03122E1AEF7002FF22120A58
:100866000B122E36EF7002FF22120A0B122DC6EF64
:100876007002FF22120A13122E44EF7002FF221298
:100886000A13122DFEEF7002FF22120A1B122E0C03
:10089600EF7002FF22120A1B122F32EF7002FF22A4
:1008A600120A23122DD4EF7002FF22120A23122EEF
:1008B60098EF7002FF22120A2B122EC2EF7002FF6F
:1008C60022120A2B122E60EF7002FF22120A331236
:1008D6002E6EEF7002FF22120A33122EB4EF700250
:1008E600FF22120A3B122EDEEF7002FF22120A3B93
:1008F600122EFAEF7002FF22120A43122EECEF704C
:1009060002FF22120A43122DF0EF7002FF22120A92
:100916004B122E1AEF7002FF22120A4B122E36EFDE
:100926007002FF22120A53122DC6EF7002FF221226
:100936000A53122E44EF7002FF22120A5B122DFE9A
:10094600EF7002FF22120A5B122E0CEF7002FF22DA
:10095600120A63122F32EF7002FF22120A63122D5F
:10096600D4EF7002FF22120A6B122E98EF7002FF6C
:1009760022120A6B122EC2EF7002FF22120A7312A3
:100986002E60EF7002FF22120A73122E6EEF7002B3
:10099600FF22120A7B122EB4EF7002FF22120A7B8C
:1009A600122EDEEF7002FF22120A9C122EFAEF7050
:1009B60002FF22120A9C122EECEF7002FF22120A8C
:1009C600A4122E52EF7002FF22120AA4122F08EF71
:1009D6007002FF227F647E00122BD7122E52EF7018
:1009E60002FF227F647E00122BD7122F08EF7002BF
:1009F600FF227F01227F647E00122BD7227F647E36
:100A060000122BD7227F647E00122BD7227F647EB2
:100A160000122BD7227F647E00122BD7227F647EA2
:100A260000122BD7227F647E00122BD7227F647E92
:100A360000122BD7227F647E00122BD7227F647E82
:100A460000122BD7227F647E00122BD7227F647E72
:100A560000122BD7227F647E00122BD7227F647E62
:100A660000122BD7227F647E00122BD7227F647E52
:100A760000122BD7227F647E00122BD7227F011211
:100A86002AAB90021F7401F0FF7E00122BD77F0A5B
:100A96007E00122BD7227F647E00122BD7227F6422
:060AA6007E00122BD72296
:030000000222AB2E
:0C22AB00787FE4F6D8FD7581580222F21D
:100AAC00BB010689828A83E0225002E722BBFE0248
:090ABC00E32289828A83E493227B
:100AC500BB010CE58229F582E5833AF583E02250E6
:100AD50006E92582F8E622BBFE06E92582F8E22230
:0D0AE500E58229F582E5833AF583E493224A
:100AF200BB010689828A83F0225002F722BBFE01E3
:020B0200F322DC
:100B0400F8BB010DE58229F582E5833AF583E8F027
:100B1400225006E92582C8F622BBFE05E92582C8D3
:020B2400F222BB
:100B2600EF8DF0A4A8F0CF8CF0A428CE8DF0A42EE3
:020B3600FE229D
:100B3800BC000BBE0029EF8DF084FFADF022E4CCA1
:100B4800F875F008EF2FFFEE33FEEC33FCEE9DEC6A
:100B5800984005FCEE9DFE0FD5F0E9E4CEFD22EDB0
:100B6800F8F5F0EE8420D21CFEADF075F008EF2FFA
:100B7800FFED33FD4007985006D5F0F222C398FDEB
:050B88000FD5F0EA2288
:100B8D00C5F0F8A3E028F0C5F0F8E58215827002F3
:060B9D001583E038F02290
:100BA300A3F8E0C5F025F0F0E58215827002158305
:060BB300E0C838F0E82262
:0D0BB900EF2BFFEE3AFEED39FDEC38FC228B
:100BC60075F008758200EF2FFFEE33FECD33CDCCE6
:100BD60033CCC58233C5829BED9AEC99E582984069
:100BE6000CF582EE9BFEED9AFDEC99FC0FD5F0D646
:100BF600E4CEFBE4CDFAE4CCF9A88222B800C1B970
:100C06000059BA002DEC8BF084CFCECDFCE5F0CBAD
:100C1600F97818EF2FFFEE33FEED33FDEC33FCEBE6
:100C260033FB10D703994004EB99FB0FD8E5E4F9A1
:100C3600FA227818EF2FFFEE33FEED33FDEC33FC8E
:100C4600C933C910D7059BE99A4007EC9BFCE99A82
:100C5600F90FD8E0E4C9FAE4CCFB2275F010EF2FC7
:100C6600FFEE33FEED33FDCC33CCC833C810D707C7
:100C76009BEC9AE899400AED9BFDEC9AFCE899F802
:0E0C86000FD5F0DAE4CDFBE4CCFAE4C8F92295
:100C9400E8600FEFC333FFEE33FEED33FDEC33FCBE
:030CA400D8F12262
:0C0CA700E0FCA3E0FDA3E0FEA3E0FF22C0
:0C0CB300E0F8A3E0F9A3E0FAA3E0FB22C4
:0C0CBF00ECF0A3EDF0A3EEF0A3EFF022A8
:100CCB00A8828583F0D083D082120CE2120CE21240
:100CDB000CE2120CE2E473E493A3C583C5F0C58365
:100CEB00C8C582C8F0A3C583C5F0C583C8C582C873
:010CFB0022D6
:100CFC00D083D082F8E4937012740193700DA3A387
:100D0C0093F8740193F5828883E47374029368609A
:060D1C00EFA3A3A380DF9A
:1022B700022FF8E493A3F8E493A34003F68001F216
:1022C70008DFF48029E493A3F85407240CC8C33328
:1022D700C4540F4420C8834004F456800146F6DFF7
:1022E700E4800B0102040810204080902598E47ECA
:1022F700019360BCA3FF543F30E509541FFEE493EC
:10230700A360010ECF54C025E060A840B8E493A3B2
:10231700FAE493A3F8E493A3C8C582C8CAC583CADD
:10232700F0A3C8C582C8CAC583CADFE9DEE780BE95
:0125F10000E9
:00000001FF
