:06272400014D000144001C
:102EF500D3E5129427E51194012275110175122C61
:012F050022A9
:102C58008F1075A0407F017E00122D84E510540767
:102C6800F54DE54D4544F5807F017E00122D8475B4
:032C7800A0A022F7
:102C32008F1F75A0407F017E00122D84E51F333364
:102C4200335438F544E544454DF5807F017E00124A
:062C52002D8475A0A022F4
:101CA200E4F511F51243A00FF51175120AE51215AC
:101CB20012AC11700215114C7003021D7D121D80B1
:101CC200FF640F60E8EF24F5603424FE6056146070
:101CD2007924076003021D7A122EFFE51245116076
:101CE20012E512151270021511121D80640760EBC5
:101CF2007F0422122EF540037F00227F0422122E3F
:101D0200FFE51245116012E512151270021511124B
:101D12001D8C640B60EB7F0322122EF540037F00C3
:101D2200227F0322122EFFE51245116012E51215E1
:101D32001270021511121D8C640D60EB7F022212CB
:101D42002EF540037F00227F0222122EFFE512456C
:101D520011601AE5121512700215117F017E001230
:101D62002D84E5A0540F640E60E37F0122122EF54C
:0D1D720040037F00227F01227F00227F00BE
:101D7F00227F017E00122D84E5A0540F227F017E69
:091D8F0000122D84E5A0540F227E
:062931008B1C8A1D891EAB
:10293700120D459002C1F09002C07401F09002C0E0
:10294700E0FFC39D5020A3E0FEAB1CAA1DA91E8F6C
:1029570082758300120D5EFFEE6F9002C1F0900248
:0B296700C0E004F080D79002C1E0FF48
:012972002242
:042414008E118F1284
:10241800BD02047F0180027F00BD01047E018002AD
:102428007E00EE4F600C740C2DFDE5121512700243
:102438001511ED75F002A4FFEB7A002FFFEA35F0D5
:10244800FEED0475F003A475F005847C002FFFEC05
:102458003ECF2512FDEF3511FCE512AE117802CE04
:10246800C313CE13D8F92DFBEC3EFAAE11AF127C94
:10247800007D64120DBFC3EB9FFBEA9EFAAE11AF5D
:10248800127C017D90120DBFEF2BFFEE3AFE7C000F
:082498007D07120DBFED04FFEA
:0124A0002219
:102D8400EF1FAA0670011E4A6013E4FCFDC3ED9414
:0D2D94001CEC940250EA0DBD00010C80F013
:012DA100220F
:0B312E00EF1FAC0670011E4C70F62273
:102DA200F548AE47AF488E47EF22F546AE45AF46EF
:0E2DB2008E45EF22F54AAE49AF4A8E49EF2218
:0B3139007F0A7E00122D8475BBFF2270
:102F1700438901758AFB758CDBD28CD2A9D2AF228B
:102E3500759850438920EF6007E4F58BF58D800682
:0B2E4500758BFD758DFDD28ED2AC2286
:0D30ED00759A50759CB8438E1475AF012282
:1021AB00122DA454FE122DA254FD122DA254FB127B
:1021BB002DA254F7122DA254EF122DA254DF122D83
:1021CB00A254BF122DA2547FF548122DB844011210
:1021DB002DB64402122DB654FB122DB64404F54A0B
:1021EB00122DAE4402122DAC4404122DAC44081235
:1021FB002DAC4410122DAC54DF122DAC54BF122D4C
:10220B00AC4480F5467F0C90029FE4F0A3DFFCAE5C
:10221B004BAF4C8E4BEF4401F54C9002227401F006
:10222B0090021EF0E4900223F07F01122C589002D2
:10223B00207401F0FF7E00122D84122DB854F7F597
:01224B004A48
:01224C00226F
:102C7B00123139E4FF122E351230ED122F171221BB
:102C8B00ABE4F5A05380F775A0A01229F71231AB76
:032C9B00022EB452
:0631A500122C7B02135FF7
:102A38000B00000000000000000000000000000083
:102A4800000000000000000000000000000000007E
:102A58000000000000000000D6C81F56D16872B000
:102A6800000102030405060708090A0B0C0D0E0FE6
:10151300EF04F0E0C4540F7E00540F2468F582EE0C
:10152300342AF583E493C454F0FF22E0FF04F074FB
:10153300842FF582E43402F5837402F0900283E091
:10154300FF04F074842FF582E43402F583222FF034
:10155300E075F00A84C454F0FFE075F00A84EF25C7
:10156300F0F022E0FFE4FCFDFE900289120F4690AA
:101573000289020F2E7B807800900285120F2E12B3
:101583000E89AC00AD01AE02AF032274AB2558F552
:1015930082E43402F583E004F074AB2558F582E469
:1015A3003402F58322900225E0FFA3E0FDA3E0FBD4
:1015B300900229E0F514A3E0F515A3E0F51622FC4B
:1015C300900289120F46900285120F2E9002891203
:1015D3000F3A120E40900285020F46F583E024D0A5
:1015E300F074222FF582E43402F583E022AE49AF92
:1015F3004A8E49EF2290028DE0241FF582E43402E3
:10160300F583E022F0E0C454F0F0E0FF2274242FCD
:10161300F582E43402F583E02290028DE02421F583
:1016230082E43402F583E02274202FF582E434024D
:10163300F583E022E0540F902A68932290028DE014
:10164300FF2423F582E4340222E490027FF0A3F026
:10165300900223E022900283E0FE04F074842E22A1
:10166300741E2FF582E43402F583E022AE47AF48BF
:10167300EEC4F854F0C8EFC4540F4822AE45AF4649
:101683008E45EF227B807A5179017800020E8974AE
:101693009F2558F582E43402F58322F090028DE011
:1016A30004F02290028DE0FFC322900285020F2EE8
:10135F00AE4BAF4CEF20E026900223E0900282F0DC
:10136F00E05403FFBF03028024900282E0540CFF7D
:10137F00BF0C028021900282E05430FF8027900240
:10138F001EE024FE601014601C2402701F1214FC57
:10139F007401F0FF8012E4FF122C58E4900220F049
:1013AF007F01FE800C1215057E0080051215057E4B
:1013BF0000122D84AE49AF4AEF7807CEC313CE1378
:1013CF00D8F930E031900220E0640170291215F055
:1013DF00547FF54A1214FC7401F0FF7E00122D8425
:1013EF00E490027EF07F01FE122D847BFF7A2A7932
:1013FF00387D30122973AE45AF46EF7807CEC31351
:10140F00CE13D8F930E00D1220F21220F212167F0F
:10141F00547FF54612166F20E059AE45AF46EF7870
:10142F0005CEC313CE13D8F930E005121F6D8021FE
:10143F00120829AE45AF46EF7806CEC313CE13D8A8
:10144F00F930E00D12167F54BFF546121CA2EF7053
:10145F00FA1215F054FBF54AAE49AF4AEF7805CEB4
:10146F00C313CE13D8F930E00A121E8D1215F054A3
:10147F00DFF54A121CA2EF6401703FAE45AF46EF95
:10148F007805CEC313CE13D8F95401F4FF7E00EFC5
:10149F0054017805C333CE33CED8F9FFAC45AD46F2
:1014AF00ED54DFFDEC4EF545ED4FF5461215F044CA
:1014BF0004F54A12167F4440F546121CA2BF0403DE
:1014CF00120ACF121CA2BF030312119D12166F2016
:1014DF00E00302135F120046AE47AF488E47EF544A
:0D14EF00EFF5481215F04401F54A02135FB5
:1014FC007F01122C58900220227F02122C5890024D
:07150C00207402F07F0122B0
:10004600900285120F5200000000900289120F5292
:1000560000000000900220E0600302034B90027E45
:10006600E0D39414500302033DE09450400302038E
:100076003D900224E06424600302033DA3E064474C
:10008600600302033DA3E06450600302033DA3E066
:100096006452600302033DA3E0644D600302033D26
:1000A600A3E06443600302033DA3E0642C60030203
:1000B600033D90028D7407F01216A6940D5010128F
:1000C6001610C39430500302033D12169F80E99028
:1000D600022BE0C39433400302033DA3E0C3943AEA
:1000E600400302033DA3E0C39436400302033DA34D
:1000F600E0C3943A400302033DA3E0C394364003B1
:1001060002033DA3E0C3943A400302033D90028DEF
:100116007407F01216A6940D500A12161024D01267
:10012600169E80EF90022BE07010A3E0C39402505D
:1001360002801590022B7401801990022BE0B40105
:100146001FA3E0C394025006E02408F08025900225
:100156002B7402F0A3E0F404FFC374FE9FF0801337
:1001660090022BE0B4020CE4F0A3E0F404FFC374A5
:10017600049FF090022BE090022912160790022CA1
:10018600E0FEEF4E900229F090022DE090022A1236
:10019600160790022EE0FEEF4E90022AF090022FF4
:1001A600E090022B121607900230E0FEEF4E90020E
:1001B6002BF0E490028EF090027EE090028DF0909B
:1001C600028DE0FFD39407401C121610B42C069043
:1001D600028EE004F090028EE06403600890028DC7
:1001E600E014F080DA12163FF583E0C3943A400338
:1001F60002033D1215E4C3943A400302033D12166E
:100206001CC39433400302033D12162BC3943240A1
:100216000302033D1215F8C3943A400302033D124C
:100226001663C39434400302033D90028DE0121618
:1002360044F583E0C39430500302033D1215E4C332
:100246009430500302033D12161CC394305003022F
:10025600033D12162BC39430500302033D1215F8CA
:10026600C39430500302033D121663C39430500307
:1002760002033D12163F1215DE24D0F074212F1210
:10028600162224D0F012162B24D0F0741F2F12152C
:10029600FE24D0F0741E2FF582E434021215DE908F
:1002A600022512160790028DE0FE121644F583E031
:1002B600FDEF4D900225F074202E12162E90022688
:1002C60012160790028DE0FE121620FDEF4D9002E9
:1002D60026F0741E2E1216669002271216071215A5
:1002E600F8FEEF4E900227F0900225E024D0FFE4BE
:1002F6003407FEA3E0FDA3E0FB12241490028FEF67
:10030600F0E0FF600A122AB67F017E00122D8412E9
:1003160015A812284D1215F054EFF54A7F017E00FC
:10032600122D84AE4BAF4CEF30E00C12164C440C41
:10033600F090021E7403F01215F054F7F54A7F0A86
:100346007E00022D84900220E064016003020519FC
:1003560090024CE0FF900244E06F600302051190AA
:10036600024DE0FF900245E06F6003020511900226
:100376004EE0FF900246E06F600302051190024FC7
:10038600E0FF900247E06F600302051190024C12F5
:1003960015667818120F1B12156CE4FFFEFDEC12A1
:1003A600156C1215D890024D1215667810120F1B97
:1003B60012156CE4FFFEE41215C290024E12156689
:1003C6007808120F1B12156CE4FFE4FD1215C2909B
:1003D6000285120F3A90024FE0FFE4FCFDFE121573
:1003E600D51216ADEF2480FFEE3470FEE43DFDE439
:1003F6003CFC1215D87B3E7A8579E178011216AD60
:10040600120E89EF249CFFEE34FF900283F0A3EFD7
:10041600F090022512151590022512163790022526
:100426001215517B3E7A8579E1780112157C7B6F36
:100436007A2079287800120E8990022612151390D8
:1004460002261216379002261215517B6F7A2079F2
:100456002812157A12168790022712151390022772
:100466001216372F9002271215527A51790112155A
:1004760078E47B107A0EF9F8120E89900229EF12B1
:1004860015159002291216372F900229121552E4DB
:100496007B107A0EF9F812157CE47B3CFAF9F81217
:1004A6000E8990022AEF12151590022A1216372F7E
:1004B60090022A121552E47B3CFAF9F81216AD1294
:1004C6000E8990022BEB12151590022B1216372F60
:1004D60090022B1215527A3A79091215781216875C
:1004E600EF04FF90028FF0122AB690022BE004F080
:1004F6001215A812284DAE4BAF4CEF30E05F121626
:100506004C4403F090021E7402F0221215F054BF00
:10051600F54A22900220E06402704290028DF012A9
:1005260016A69408500A12161024E012169E80EFA2
:10053600900228E0FF122AB61215A812284DAE4BDB
:10054600AF4CEF30E01712164C4430F090021E7498
:0D05560001F0AE4BAF4C8E4BEF54FEF54C58
:010563002275
:101E8D000558E558C3940C4003E4F558E4900283DB
:101E9D00F09002847401F0A3742CF0900283740608
:101EAD00F0AF581227F67F647E00122D84AF5812C2
:101EBD0027F6900284E07002A3E07003021F4F909A
:101ECD00028474FFF5F0120E147F017E00122D8432
:101EDD0075140075150075160C7B017A02790A12BE
:101EED00224DEF60CD90020AE0B402C6A3E0B4A586
:101EFD00C1A3E0B45ABCA3E0B4A5B7A3E0B45AB2F1
:101F0D00A3E0B4A5ADA3E0645A70A7A3E064A570E7
:101F1D00A1A3E0645A709BA3E0F47096900215E0C3
:101F2D006403708E900214E0B5580C12159CE4F009
:101F3D001216927401F02212158EE0C39403401F05
:101F4D008018900283E004F0E0C394065003021E53
:0F1F5D009E12158EE0C394034005121692E4F015
:011F6C002252
:1020F200E4900283F012152E7420F07F06122188DC
:10210200EFF07F05122188EFF07F0412219D121556
:1021120049EFF07F03122E509002B7EFF0E0540720
:10212200F0E0FF121658121549EFF07F0212219DBE
:10213200121549EFF07F01122E501216581215494E
:10214200EFF0E4FF122E50EF547FFF1216581215D3
:1021520049EFF0900283E02484121549E00412153D
:102162003E7401F090028312152E7403F07B017A03
:102172000279847D0C122DDE7F647E00122D847F15
:062182000A7E00022D841C
:10218800122E50900283E0FE04F074842EF582E44F
:102198003402F58322122E50900283E0FE04F0747C
:0321A800842E2260
:07319700C1C2BBCAAB472116
:102F0600900283E0FFC3941022900282F0E4A3F0C3
:012F16002298
:102B5500E49002BDF0E49002BEF0E49002BFF09074
:102B650002BFE004F0E0B433F69002BEE004F0E00A
:0D2B7500B440E79002BDE004F0E0B41ED8CB
:012B82002230
:0422E9008E108F11B3
:1022ED00E4F5A07480122F0F122F06500512234C07
:1022FD0080F6E4900283F07488122F0F122F06508F
:10230D000512234C80F6E4900283F09002827490C3
:10231D00F0E4A3F0122F06500512236680F6E49028
:10232D000283F09002827498F0E4A3F0122F06500D
:0E233D000512236680F6E4900283F075A0A0DE
:10234B0022900282E02FFF12184F7F201219C97FB3
:10235B00201219C9900283E004F022900282E02F30
:10236B00FF12184F7F201219C97F201219C9900232
:05237B0083E004F022E4
:102BB1008D59E4F5A012184FE55975F00A842430B7
:102BC100FF1219C9E55975F00A84E5F02430FF12A6
:0B2BD10019C97F3A1219C975A0A02293
:0A2380008F128D138B148A15891635
:10238A00E4F5A07F01FE122D84E512D394034003E5
:10239A00751203E513D394084003751308E5121464
:1023AA0060101460131460162403701AE513248055
:1023BA008010E5132488800AE51324908004E5132D
:1023CA00249890029AF090029AE02513F0E0FF1206
:1023DA00184FAB14AA15A916120D45900299F0646C
:1023EA0021601C74012516F516E43515F5159002C1
:1023FA0099E0FF1219C97F017E00122D8480D37FD4
:09240A00017E00122D8475A0A0D2
:0124130022A6
:1029F700E4F5A07F33122A2D7F3012184F122B8354
:102A07007F30122A2D7F0112184F7F0A7E00122D68
:102A1700841231657F0A7E00122D847F207E00128A
:102A270022E975A0A02212184F7F0A7E00122D847A
:012A3700227C
:102B8300E4900282F0E4900283F0E4900284F090F7
:102B93000284E004F0E0B433F6900283E004F0E052
:0D2BA300B440E7900282E004F0E0B403D8F3
:012BB0002202
:0A3165007F3012184F7F0C02184F44
:0A316F007F3012184F7F0802184F3E
:0A3179007F3612184F7F3002184F06
:0A3183007F3412184F7F3002184FFE
:10279400E49002C3F01227EC9002C21227D9C2823D
:1027A4001227E41227EC001227E49002C31227D95F
:1027B400C2829002C2E054F0FFF0A3E0C4540FF0D0
:1027C400540FF04F9002C2F07F017E0012312E9020
:0427D40002C2E0FF5E
:1027D80022E580F07F017E0012312E227F017E00EB
:0E27E80012312E22122635D280D281D28222C8
:0219C9008F1776
:1019CB00E490029BF0122635E51754F090029BF041
:1019DB00120F831A12001A16101A1C201A22301A10
:1019EB002C401A30501A36601A3C701A46801A4A2C
:1019FB00901A50A01A56B01A60C01A64D01A6AE036
:101A0B001A70F000001A78C2848002D284C28580DA
:101A1B000AC284D2858004D284D285C286C28780D2
:101A2B004CC2848002D284C285800AC284D2858053
:101A3B0004D284D285D286C2878032C2848002D2FD
:101A4B0084C285800AC284D2858004D284D285C2A6
:101A5B0086D2878018C2848002D284C285800AC253
:101A6B0084D2858004D284D285D286D287121B334E
:101A7B00C2827F057E0012312EE517C454F090020E
:101A8B009BF054F0F0120F831AC7001ACB101AD127
:101A9B00201AD7301AE1401AE5501AEB601AF17090
:101AAB001AFB801AFF901B05A01B0BB01B15C01B4C
:101ABB0019D01B1FE01B25F000001B2DC2848002D8
:101ACB00D284C285800AC284D2858004D284D28516
:101ADB00C286C287804CC2848002D284C285800AAF
:101AEB00C284D2858004D284D285D286C2878032CA
:101AFB00C2848002D284C285800AC284D2858004CB
:101B0B00D284D285C286D2878018C2848002D284C6
:101B1B00C285800AC284D2858004D284D285D286C3
:071B2B00D287121B33C282B6
:0F1B320022D280C281D2827F057E0012312E2204
:02184F008F17F1
:10185100E490029BF0122635E51754F090029BF0BC
:10186100120F83189C0018A01018982018A6301881
:10187100B04018B45018BA6018C07018CA8018CE99
:101881009018D4A018DAB018E4C018E8D018EEE027
:1018910018F4F0000018FCC284800CC2848002D2CB
:1018A10084C2858004D284D285C286C287804CC21C
:1018B100848002D284C285800AC284D2858004D207
:1018C10084D285D286C2878032C2848002D284C209
:1018D10085800AC284D2858004D284D285C286D210
:1018E100878018C2848002D284C285800AC284D2D1
:1018F100858004D284D285D286D2877F017E001270
:10190100312E1219BBC2827F017E0012312EE517E2
:10191100C454F090029BF0120F83194F0019531019
:10192100195920195F30196940196D5019736019DF
:101931007970198380198790198DA01993B0199D19
:10194100C019A1D019A7E019ADF0000019B5C284E2
:101951008002D284C285800AC284D2858004D28466
:10196100D285C286C287804CC2848002D284C2855D
:10197100800AC284D2858004D284D285D286C2876D
:101981008032C2848002D284C285800AC284D28518
:101991008004D284D285C286D2878018C284800214
:1019A100D284C285800AC284D2858004D284D28541
:0919B100D286D2871219BBC28252
:0F19BA0022C280C281D2827F017E0012312E2292
:10263500E490029DF0A3F090029CF0122691900286
:102645009D1226A2C28200007F017E0012312E1249
:10265500269190029E1226A2C282000090029EE060
:10266500C4540FF0540FFFF090029DE054F0F04F6A
:10267500F07F017E0012312E90029DE030E70C9034
:0B268500029CE004F0E0C3941440B09D
:10269000227580F0C280D281D2827F017E00123109
:0D26A0002E22E580F07F017E0012312E22F7
:102CC1002020A440A447A454A57CA4ADA4BBA4E99E
:102CD100212020A46CC4C1B373BD75AAACBA412034
:022CE1002021B0
:1026AD00FF04F074852FF582E43402F5837420F075
:1026BD00900284E0FF04F074852FF582E43402F576
:1026CD00837420F0900284E0FF04F074852FF5826E
:1026DD00E43402F58322E0C4540F2430FF900284C9
:1026ED00E0FE04F074852E227421F07B017A0279CC
:1026FD0085E4FD22745BF0AE45AF4622EEC4F8547E
:10270D00F0C8EFC4540F4822AE45AF468E45EF22B8
:07271D00E0241054F0F0224B
:0D30FA00D2C0D2C10000C2C00000C2C1227D
:0B314400C2C0D2C10000D2C0000022B7
:0D310700A20092C0D2C10000C2C10000228F
:0B314F00D2C10000A2C0C2C1000022DB
:0C2B2600C2AF1230FA7FDE122B32AF0477
:102B3200E4FEFDEF25E0FF92C0D2C10000C2C10059
:102B4200000DBD08EE12314F5008AF060EEF941E75
:022B520040F34E
:012B5400225E
:102E1900E4FFD2C0FEEF25E0FFD2C10000A2C0E46A
:0B2E2900334207C2C100000EBE08EAE1
:012E3400227B
:102E8400AC05AB07122B26AF03122B32123144D2FE
:082E9400AF7F057E00022D84D2
:022E5000AC07CD
:102E5200122B261230FA7FDF122B32122E19D200D9
:082E6200123107123144D2AF16
:012E6A002245
:102AB6008F117F03122E509002B7EFF07D077F40F3
:102AC600122E847F017E00122D84E5119002B7B488
:102AD600FF05E044088009E054F8F0E04408451199
:092AE600F0E0FF7D03122E8422B2
:10284D008D128B137D0612288A7D05AF1212288AF0
:10285D007D04AF131228957D02AF141228957D01CA
:10286D00AF15122E847F017E00122D84E516448053
:10287D00FFE4FD122E847F017E00022D84122E8432
:10288D007F017E00122D8422122E847F017E001284
:03289D002D842265
:102D46009002BCE0B49903E4F0229002BCE0540F78
:0F2D5600FFBF090412271D229002BCE004F022E7
:102CE3009002BAE024EE600B2409700E9002BA74CD
:102CF30010F0229002BA7401F0229002BAE004F0BC
:012D030022AD
:102AEF009002B7E024F7601324F0601624F0601909
:102AFF0024F8701C9002B77401F0229002B7741082
:102B0F00F0229002B77420F0229002B77430F022B6
:072B1F009002B7E004F02270
:102BDC009002BBE024F7601524F0600A24F6701410
:102BEC00E49002BBF0229002BB7420F0229002BB56
:0B2BFC007410F0229002BBE004F022F5
:102D65009002B9E0B45903E4F0229002B9E0540F9F
:0F2D7500FFBF090412271D229002B9E004F022CB
:102C9E009002B8E0547FF0E0B45903E4F0229002C1
:102CAE00B8E0540FFFBF090412271D229002B8E0AE
:032CBE0004F022FD
:0531AB007FFF022AB6BF
:10082900E4900284F01226D474321226D07430F087
:100839007F06122E509002BCEFF01226E31226DB3F
:10084900EFF09002BCE01226E51226DBEFF012264B
:10085900D174A61226D0747E1226BC7420F07F05AE
:10086900122E509002BAEFF0E0D3941240037412A2
:10087900F09002BA1226E31226DBEFF09002BAE0FA
:100889001226E51226DBEFF01226D174A41226D027
:1008990074EBF07F04120AC5D3943140037431F02C
:1008A9009002B71226E31226DBEFF09002B7E012AE
:1008B90026E51226DBEFF01226D174A41226D07495
:1008C900E91226D01226F5FF122380E4900284F063
:1008D900AE45AF46EEC313EF1330E0081226D474C9
:1008E9002BF080061226D17420F07F02122E509030
:1008F90002BBEFF0E0D3942340037423F09002BBD2
:100909001226E31226DBEFF09002BBE01226E51275
:1009190026DBEFF01226D1743AF07F01122E5090A7
:1009290002B9EFF0E0D3945940037459F09002B939
:100939001226E31226DBEFF09002B9E01226E51247
:1009490026DBEFF01226D1743AF0E4FF122E50EFB5
:10095900547F9002B8F0E0D3945940037459F09051
:1009690002B81226E31226DBEFF09002B8E0122655
:10097900E51226DBEFF01226BD74AC1226D07450B6
:100989001226D074B41226D074C1F07F03120AC59E
:100999005407F0E025E0F0E0902CC1931226E9120B
:1009A90026DBEFF09002B7E0902CC2931226E912F1
:1009B90026DBEFF01226D11226F57F02122380E4FE
:1009C900900283F0900283E0FFC39410500E122628
:1009D900D87420F0900283E004F080E81226D8123F
:1009E90026F57F01122380E4900284F01226D412A6
:1009F900270112270930E022900223E05403FF90D7
:100A09000284E0BF03121226D5744E1226D0745404
:100A19001226D07450F0800C8004900284E01226D3
:100A2900AD7420F01226D1745D1226D0122701EF81
:100A39007803CEC313CE13D8F930E022900223E015
:100A4900540CFF900284E0BF0C121226D574471291
:100A590026D074501226D07453F0800C8004900272
:100A690084E01226AD7420F01226D1745D1226D0CE
:100A7900122701EF7802CEC313CE13D8F930E02242
:100A8900900223E05430FF900284E0BF3012122616
:100A9900D574431226D0744F1226D0744DF0800CB1
:100AA9008004900284E01226AD7420F01226D174DD
:0C0AB9005D1226BC1226F57F030223808C
:0A0AC500122E509002B7EFF0E0226D
:0216B3008F1195
:1016B500E4900283F07BFF7A2C79D2FDFF12238020
:1016C500E4F5A07F901217BA600512182F80031257
:1016D50018371219C912181F05117F881217BA6019
:1016E5000512182F80031218371219C912181F0571
:1016F500117F9812184F1217EE600512183F8003DC
:101705001218471219C97F5D1219C97F201219C90C
:101715007F201219C905117F9412178160051218CF
:101725003F80031218471219C97F5D1219C90511A7
:101735007F8C12178160097F4F1219C97F4B800773
:101745007F581219C97F581219C97F5D1219C90529
:10175500117F9C12184F7F201219C91217EE6009CC
:101765007F4F1219C97F4B80077F581219C97F58BF
:0B1775001219C97F5D1219C975A0A0F0
:101780002212184F7F201219C9E51175F00A84241E
:1017900030FF1219C9E51175F00A84E5F02430FF15
:1017A0001219C97F3A1219C97F5B1219C9749F2592
:1017B00011F582E43402F583E02212184FE5117529
:1017C000F00A842430FF1219C9E51175F00A84E586
:1017D000F02430FF1219C97F3A1219C97F5B121920
:1017E000C9749F2511F582E43402F583E022E511E6
:1017F00075F00A842430FF1219C9E51175F00A84C6
:10180000E5F02430FF1219C97F3A1219C97F5B1223
:1018100019C9749F2511F582E43402F583E0227F13
:101820005D1219C97F201219C97F201219C9227FA0
:101830004F1219C97F4B227F581219C97F58227F36
:0F1840004F1219C97F4B227F581219C97F5822A6
:101F6D00E4F510AF101216B3AE45AF46EF7806CEBE
:101F7D00C313CE13D8F930E00D12271554BFF54613
:101F8D00121CA2EF70FA121CA2EF14700302203083
:101F9D0024FD601304702674062510F510C3940CEF
:101FAD004012E4F510800DE510C39406400674FA56
:101FBD002510F5101227154440F54680A6AE49AF01
:101FCD004AEF7805CEC313CE13D8F930E00E121EAA
:101FDD008DAE49AF4A8E49EF54DFF54AAE47AF4853
:101FED0012270930E019120046AE47AF488E47EF71
:101FFD0054EFF548AE49AF4A8E49EF4401F54AAE6C
:10200D0045AF46EF7807CEC313CE13D8F920E003C2
:10201D00021F701220F21220F2122715547FF5467E
:03202D00021F701F
:01203000228D
:10272A004102200041027E0041021F00420279005C
:10273A0000410274004102780041027700410275AB
:10274A000041027B00410276004102210042027CE4
:10275A00000041021E0141022201410223004202FD
:03276A007F0000ED
:1025B400E4F0AE49AF4A8E49EF4410F54AAE49AF54
:1025C4004A8E49EF54BFF54AAE49AF4A8E49EF22CD
:1025D400AE47AF488E47EF54FBF548900274E4F0E1
:1025E400AE47AF488E47EF2290027EE0FF04F074BE
:1025F400242FF582E43402F5832274A5F0A3745ADF
:10260400F0A374A5F0A3745AF0A322900275E0FF1E
:1026140004F0EFD322547FF54A90027EE4F022E4E2
:1026240075F001120E2AFE22F0900223F090021E91
:012634002283
:082973008B108A1189128D13EB
:10297B007F017E00122D84E4F514E514C3951350EA
:10298B0017AB10AA11A912851482758300120D5E64
:10299B00FF120026051480E2AE47AF48EF7806CE53
:0929AB00C313CE13D8F920E0EFAC
:0129B4002200
:0829B5008B4E8A4F89508D51B1
:1029BD007F017E00122D84E4F552E552C3955150EE
:1029CD0017AB4EAA4FA950855282758300120D5E2A
:1029DD00FF122DFC055280E2AE47AF48EF7807CECF
:0929ED00C313CE13D8F920E0EF6A
:0129F60022BE
:10002600AD07AE47AF48EF7806CEC313CE13D8F967
:0D00360020E0EF1225E44440F5488D9922AA
:102DFC00AD07AE47AF48EF7807CEC313CE13D8F963
:0D2E0C0020E0EF1225E44480F5488D9B2264
:0227F6008F1141
:1027F8007F017E00122D8490020A7402F0A3122534
:10280800FE1225FE74FFF0A3E511F0A37403F07B1C
:10281800017A02790A7D0C122DDE7F017E00122DCD
:1028280084E4900286F0900286E0FFC3940C501472
:10283800740A2FF582E43402F583E4F0900286E00E
:0428480004F080E236
:01284C002269
:03002300021B417C
:101B4100C0E0C083C082C0D075D000C000C005C055
:031B510006C007C4
:101B5400C2AF43C110209803021C83C298AD999070
:101B64000274E4F0AE49AF4AEF20E003021C839014
:101B74000220E0705BAE49AF4AEEC4F854F0C8EFFF
:101B8400C4540F4830E049BD2419AE49AF4AEF7838
:101B940003CEC313CE13D8F920E0081225CC440891
:101BA40012261BAE49AF4AEF7803CEC313CE13D827
:101BB400F920E003021C831225ECEDF0640A6003B3
:101BC400021C8390027EE024241225F6E4F080298E
:101BD400900220E064017032AE49AF4AEF7806CE3D
:101BE400C313CE13D8F930E0211225ECEDF09002A6
:101BF4007EE064306003021C831225E44410F5483F
:101C04001225CC54FEF54A021C83900220E06402A3
:101C1400706DAE47AF48EF7802CEC313CE13D8F938
:101C240030E0461225ECEDF090027EE0640B704F3C
:101C3400E02423F582E43402F583E0AE47AF48B4F0
:101C440003108E47EF4410F5481225CC54FEF54A94
:101C5400800E8E47EF54EFF5481225CC4401F54A27
:101C64001225D454FEF5488016BD02131225E4440F
:101C740001F5481225E44404F54890027EE4F0306E
:0D1C84009909C2991225E454BFF548D2AF6A
:101C9100D007D006D005D000D0D0D082D083D0E0FC
:011CA1003210
:0300430002203167
:0B203100C0E0C083C082C0D075D008A2
:10203C00C2AF43C110E59A20E0030220D8539AFEA8
:10204C00AD9B900278E4F0AE47AF48EF7803CEC377
:10205C0013CE13D8F930E05E90021FE0FF04F07449
:10206C000A2FF582E43402F583EDF090021FE06450
:10207C000B7059E02409F582E43402F583E0AE4795
:10208C00AF48B403108E47EF4420F5481225CC54CA
:10209C00FDF54A800E8E47EF54DFF5481225CC44EF
:1020AC0002F54A1225E454F7F5489002781225E21D
:1020BC0054FDF5488016BD02131225E44402F54880
:1020CC001225E44408F54890021FE4F0E59A30E14B
:0D20DC000A539AFD1225E4547FF548D2AF57
:0920E900D0D0D082D083D0E032C7
:03000B00020FA938
:100FA900C0E0C0F0C083C082C0D075D000C000C00E
:030FB90006C00768
:100FBC0043C110758AFB758CDB900279122623D302
:100FCC00E5F0940AEE9400500302110B900279E4C0
:100FDC00F0A3F090027B12261294144009E4F01254
:100FEC0025CC4420F54A9002211226129401400986
:100FFC00E4F01225CC4404F54A90027712261294A0
:10100C001E400DE4F0AE45AF468E45EF4480F546EC
:10101C0090027C122623C3E5F094B0EE9404401C9D
:10102C0090027CE4F0A3F090021E04F0AE4BAF4CA7
:10103C008E4B4FF54C90027FE4F0A3F0AE4BAF4CCF
:10104C00EF30E05A90027F122623C3E5F0942CEE89
:10105C009401404A90027FE4F0A3F0900281F0905A
:10106C000223E0900281F090021EE024FE60151431
:10107C00602024027028900281E054FC12262C740B
:10108C0002F0801A900281E054F312262C7403F0C3
:10109C00800C900281E054CF12262C7401F0AE4BE0
:1010AC00AF4CEF30E02E12260F9432401090021EFF
:1010BC00E0B402099002751225B41226199002763A
:1010CC001226129432403890021EE0640170309067
:1010DC000276801812260F943240061225B412267E
:1010EC001990027612261294324014E4F01225CC98
:1010FC0044401225CA44801225CA54EF12261BAE56
:10110C0047AF48EF30E028900274E0FF04F0EFC3E3
:10111C009405401B1225E454EFF5481225CC4401EC
:10112C00F54AE4F090027EF01225D454FEF548AE58
:10113C0047AF48EEC313EF1330E045900278E0FF61
:10114C0004F0EFC394054038AE47AF48EF7803CEB8
:10115C00C313CE13D8F930E00E1225E44420F54821
:10116C001225CC54FDF54A900278E4F090021F123F
:10117C0025E354F7F5489002781225E254FDF54822
:10118C00D007D006D000D0D0D082D083D0F0D0E021
:01119C003220
:102E9C008FC48EC375C65A75C6A52274002557F506
:082EAC008274003556F5832203
:06252D008E538F548D5502
:10253300E4F556F557AF57AE56122F27122EA7EFD5
:10254300F00557E55770020556C3E556940240E57A
:10255300E4FFFE123121E4F556F557AF57AE56129C
:102563002F27EFF470480557E55770020556C3E56A
:1025730056940240E67F0A7E00122D84740025548F
:10258300F58274003553F583E555F0E4F556F557B8
:10259300122EA7E0FDAF57AE56122EE20557E557B0
:1025A30070020556C3E556940240E57F01227F0081
:0125B3002205
:10000E00AE071FEE600DE4FCFD0DED70010C4C60B3
:03001E00EF80F67A
:0100210022BC
:0D311400E4F5C7F5C5F5C675C380F5C42206
:0F2F270075C78275C501122E9C00AFC2123114FE
:012F36002278
:102EE20075C78275C5028FC48EC38DC2122EA00013
:032EF20002311496
:0D31210075C78275C503122E9C0002311483
:08000300C0C0C0C0C0C0C0C0F5
:10276D0020232100080010A7625BF80322F8004720
:10277D00B610181D1CC700B2EA2A0011598135097F
:06278D0006060405000C25
:102ECB00900288E0AB14AA15A91622C390028BE0DE
:072EDB009F90028AE09E2295
:102C0700E490028AF0A3F0122ED65009E475F00181
:102C1700120E1480F2E490028AF0A3F0122ED6501E
:0A2C270009E475F001120E1480F2AA
:012C31002280
:102E6B00000000000000000000000000000000EF68
:092E7B001F70011E144E70E822C4
:07319E00C294C297D29422F3
:0A318D0012319E7F887E13022C078A
:102A7800E4900293F0C297900292F0EF30E704D20C
:102A8800958002C295EF25E0FFD29700009002934F
:102A9800E025E0F0309603E004F0C29700009002D1
:0D2AA80092E004F0E0B408D3900293E0FF48
:012AB50022FE
:102F3700C2942096FD7F30122A782096FDD29422E3
:102DC000D2947F017E00122E6BC2947F017E00128E
:0E2DD0002E6BD2947F297E00122E6B022F37BD
:102F4700C2942096FD122A78AF05122A78D29422CD
:0628EB008B138A1489150D
:1028F100EF4440900291F0C2942096FD900291E045
:10290100FF122A78E4900290F0900290E0FFC395C4
:1029110016501AAB13AA14A9158F82758300120DD4
:0F2921005EFF122A78900290E004F080DCD294DE
:012930002284
:0B315A00C2942096FD122A78D2942225
:102D0400EF448090028AF0C2942096FD90028AE0FB
:102D1400FF122A78E4FF122A7890028BEFF0D29403
:012D2400228C
:0628A0008B188A19891A49
:1028A600EF44C090028BF0C2942096FD90028BE01C
:1028B600FF122A78E490028AF090028AE0C3951B00
:1028C6005020E4FF122A78AB18AA19A91A90028A96
:1028D600E0F582758300EF120D9D90028AE004F008
:0428E60080D7D29431
:0128EA0022CB
:102D2500EF44C090028BF0C2942096FD90028BE098
:102D3500FF122A78E4FF122A7890028AEFF0D294E3
:012D4500226B
:101D9800AD217F0C122F47AD227F0B122F47AD23A9
:101DA8007F0C122F47AD247F0D122F47AD257F0ED4
:101DB800122F47AD267F0F122F47AD277F10122F06
:101DC80047AD287F11122F47AD297F12122F47AD3B
:101DD8002A7F13122F47AD2B7F14122F47AD2C7F6C
:101DE8000A122F47AD2D7F15122F47AD2E7F2112D6
:101DF8002F47AD2F7F22122F47AD307F18122F4764
:101E0800AD317F19122F47AD327F1A122F47AD33EC
:101E18007F1B122F47AD347F1C122F47AD357F1D16
:101E2800122F47AD367F23122F47AD377F24122F4D
:101E380047AD387F25122F47AD397F26122F47AD82
:101E48003A7F29122F47AD3B7F2C122F47AD3C7F9D
:101E58002D122F47AD3D7F2E122F47AD3EE4FF12C6
:101E68002F47AD3F7F02122F47AD407F07122F4704
:101E7800AD417F08122F47AD427F09122F47AD436E
:051E88007F06022F4758
:102DDE00AC057F3F122F478C167F3F1228EB7F35B5
:0E2DEE0012315A30B3FD20B3FD7F3B02315A43
:0531B0007F3402315ADA
:06224D008B118A128913B7
:10225300122ECF120D4525E025E0900289F07F3440
:1022630012315A7F027E00122C0730B3167F027E92
:1022730000122C07900289E014F0E0C3940150EAA5
:102283007F00227F3B122D25EF547F60567F3F1244
:102293002D04900288EFF0122ECF120D45FEEFD3DE
:1022A3009E5032AB11AA12A913900288E0F51B7F4E
:1022B3003F1228A0122ECB120D8B7B017A02798656
:1022C300751B027F3F1228A07F3A12315A90028772
:1022D300E05480FF22122ECB120D8B7F3A12315A1B
:0522E3007F00227F00D6
:0122E80022D3
:102EB40012318D122DC0121D987BFF7A0079037593
:072EC40016087F3E0228EB17
:1005640061742B776966695F636F6E663D4E65776C
:1005740063616C20576972656C6573732C77657061
:100584002C323233383936313831313232330D0A84
:100594000061742B72656D6F746569703D74696D6B
:1005A400652E73746474696D652E676F762E747727
:1005B4000D0A0061742B72656D6F7465706F7274CF
:1005C4003D3132330D0A0061742B4765745F4D4130
:1005D400433D3F0D0A0061742B776966695F53637D
:1005E400616E3D3F0D0A0061742B6F75745F747208
:1005F400616E733D300061742B6E65746D6F64655C
:100604003D320D0A0061742B64686370643D300DE3
:100614000A0061742B6D6F64653D636C69656E746B
:100624000D0A0061742B6E65746D6F64653D330D46
:100634000A0061742B64686370643D310D0A0061C3
:10064400742B64686370645F69703D3139322E3194
:1006540036382E31302E312C3139322E3136382E77
:1006640031302E3235342C3235352E3235352E326A
:1006740035352E302C3139322E3136382E31302E5C
:100684003132350D0A0061742B64686370645F64F1
:100694006E733D3139322E3136382E31302E312CB5
:1006A400302E302E302E300D0A0061742B646863B6
:1006B40070645F74696D653D393630300D0A0061D0
:1006C400742B776966695F636F6E663D4E54502084
:1006D4007365727665722C777061325F6165732C15
:1006E40031323334353637380D0A0061742B64687F
:1006F4006370633D310D0A0061742B6E65745F692C
:10070400703D3139322E3136382E31302E32332C81
:100714003235352E3235352E3235352E302C3139B1
:10072400322E3136382E31302E39380D0A006174AC
:100734002B6E65745F646E733D302E302E302E3018
:100744002C302E302E302E300D0A0061742B726541
:100754006D6F746570726F3D7463700D0A0061741F
:100764002B72656D6F746570726F3D7564700D0AE0
:100774000061742B6D6F64653D7365727665720DEF
:100784000A0061742B72656D6F746569703D323057
:10079400322E3131322E33312E3139370D0A006188
:1007A400742B72656D6F7465706F72743D31323382
:1007B4000D0A0061742B74696D656F75743D300D9D
:1007C4000A0061742B756172743D393630302C38EF
:1007D4002C6E2C310D0A0061742B7561727470617A
:1007E400636B74696D656F75743D3130300D0A004B
:1007F40061742B756172747061636B6C656E3D31ED
:1008040030300D0A0061742B6E65745F636F6D6D1B
:1008140069743D310D0A0061742B7265636F6E6EED
:050824003D310D0A004A
:0E2F57007BFF7A0579647D311229737F012298
:0E2F65007BFF7A0579EB7D0F1229737F012225
:0E2F73007BFF7A06798A7D241229737F012262
:0E2F81007BFF7A0779327D1D1229737F0122B2
:0E2F8F007BFF7A0579FA7D0F1229737F0122EC
:0E2F9D007BFF7A0679277D0F1229737F0122B0
:0E2FAB007BFF7A0679C37D2C1229737F0122E9
:0E2FB9007BFF7A0679EF7D0D1229737F0122CE
:0E2FC7007BFF7A0679367D0D1229737F012279
:0E2FD5007BFF7A0679097D0D1229737F012298
:0E2FE3007BFF7A0679437D471229737F012216
:0E2FF1007BFF7A0679AE7D151229737F0122CF
:0E2FFF007BFF7A0879097D121229737F012267
:0E300D007BFF7A0779867D1D1229737F0122D1
:0E301B007BFF7A0779A37D141229737F0122AF
:0E3029007BFF7A0579957D221229737F0122A3
:0E3037007BFF7A0579B77D141229737F012281
:0E3045007BFF7A07794F7D131229737F0122DA
:0E3053007BFF7A0779627D131229737F0122B9
:0E3061007BFF7A0779B77D0F1229737F01225A
:0E306F007BFF7A0779757D111229737F01228C
:0E307D007BFF7A0679167D111229737F0122DE
:0E308B007BFF7A0779C67D151229737F01221B
:0E3099007BFF7A0779F47D151229737F0122DF
:0E30A7007BFF7A0779DB7D191229737F0122E6
:0E30B5007BFF7A08791B7D0E1229737F0122A2
:0E30C3007BFF7A0579CB7D0F1229737F0122E6
:0E30D1007BFF7A0579DA7D111229737F0122C7
:0E30DF007BFF7A0679FC7D361229737F012271
:10119D00121336121336C2C4C2C4C2C41212DED226
:1011AD00C4D2C4D2C41212DE1212E6122F8FEF7007
:1011BD0002FF221212E6122FC7EF7002FF22121247
:1011CD00EE122F57EF7002FF221212EE122FB9EF0F
:1011DD007002FF221212F6123053EF7002FF22122C
:1011ED0012F612307DEF7002FF221212FE1230291C
:1011FD00EF7002FF221212FE123037EF7002FF2243
:10120D00121306123061EF7002FF22121306123014
:10121D008BEF7002FF2212130E1230A7EF7002FF38
:10122D002212130E123099EF7002FF2212131612B2
:10123D002F8FEF7002FF22121316122FC7EF7002BD
:10124D00FF2212131E122F57EF7002FF2212131ED0
:10125D00122FB9EF7002FF22121326123053EF70C6
:10126D0002FF2212132612307DEF7002FF2212139D
:10127D002E123029EF7002FF2212132E123037EF8B
:10128D007002FF2212134F123061EF7002FF221213
:10129D00134F12308BEF7002FF221213571230A72B
:1012AD00EF7002FF22121357123099EF7002FF22D6
:1012BD007F647E00122D84122FFFEF7002FF227FBC
:1012CD00647E00122D841230B5EF7002FF227F0173
:1012DD00227F647E00122D84227F647E00122D8475
:1012ED00227F647E00122D84227F647E00122D8465
:1012FD00227F647E00122D84227F647E00122D8455
:10130D00227F647E00122D84227F647E00122D8444
:10131D00227F647E00122D84227F647E00122D8434
:10132D00227F647E00122D84227F01122C589002A0
:10133D00207401F0FF7E00122D847F0A7E00122D95
:10134D0084227F647E00122D84227F647E00122D04
:02135D008422E8
:100ACF00120D1C120D1CC2C4C2C4C2C4120C94D28B
:100ADF00C4D2C4D2C4120C94120C9C122F9DEF706E
:100AEF0002FF22120C9C122FC7EF7002FF22120C72
:100AFF00A4122FE3EF7002FF22120CA4122F73EF38
:100B0F007002FF22120CAC122FF1EF7002FF2212B3
:100B1F000CAC122FABEF7002FF22120CB4122FB9D4
:100B2F00EF7002FF22120CB41230DFEF7002FF22BF
:100B3F00120CBC122F81EF7002FF22120CBC12306C
:100B4F0045EF7002FF22120CC412306FEF7002FFDC
:100B5F0022120CC412300DEF7002FF22120CCC12B5
:100B6F00301BEF7002FF22120CCC123061EF7002BB
:100B7F00FF22120CD412308BEF7002FF22120CD412
:100B8F001230A7EF7002FF22120CDC123099EF70B7
:100B9F0002FF22120CDC122F9DEF7002FF22120CAB
:100BAF00E4122FC7EF7002FF22120CE4122FE3EFB3
:100BBF007002FF22120CEC122F73EF7002FF221241
:100BCF000CEC122FF1EF7002FF22120CF4122FAB6C
:100BDF00EF7002FF22120CF4122FB9EF7002FF22F6
:100BEF00120CFC1230DFEF7002FF22120CFC122FDE
:100BFF0081EF7002FF22120D04123045EF7002FFD9
:100C0F0022120D0412306FEF7002FF22120D0C1220
:100C1F00300DEF7002FF22120D0C12301BEF70021D
:100C2F00FF22120D14123061EF7002FF22120D1409
:100C3F0012308BEF7002FF22120D351230A7EF70BA
:100C4F0002FF22120D35123099EF7002FF22120DA2
:100C5F003D122FFFEF7002FF22120D3D1230B5EF44
:100C6F007002FF227F647E00122D84122FFFEF701F
:100C7F0002FF227F647E00122D841230B5EF7002C6
:100C8F00FF227F01227F647E00122D84227F647EEB
:100C9F0000122D84227F647E00122D84227F647EB9
:100CAF0000122D84227F647E00122D84227F647EA9
:100CBF0000122D84227F647E00122D84227F647E99
:100CCF0000122D84227F647E00122D84227F647E89
:100CDF0000122D84227F647E00122D84227F647E79
:100CEF0000122D84227F647E00122D84227F647E69
:100CFF0000122D84227F647E00122D84227F647E59
:100D0F0000122D84227F647E00122D84227F011217
:100D1F002C589002207401F0FF7E00122D847F0A60
:100D2F007E00122D84227F647E00122D84227F6428
:060D3F007E00122D84224B
:030000000224A136
:0C24A100787FE4F6D8FD7581590224E82C
:100D4500BB010689828A83E0225002E722BBFE02AC
:090D5500E32289828A83E49322DF
:100D5E00BB010CE58229F582E5833AF583E022504A
:100D6E0006E92582F8E622BBFE06E92582F8E22294
:0D0D7E00E58229F582E5833AF583E49322AE
:100D8B00BB010689828A83F0225002F722BBFE0147
:020D9B00F32241
:100D9D00F8BB010DE58229F582E5833AF583E8F08C
:100DAD00225006E92582C8F622BBFE05E92582C838
:020DBD00F22220
:100DBF00BC000BBE0029EF8DF084FFADF022E4CC18
:100DCF00F875F008EF2FFFEE33FEEC33FCEE9DECE1
:100DDF00984005FCEE9DFE0FD5F0E9E4CEFD22ED27
:100DEF00F8F5F0EE8420D21CFEADF075F008EF2F71
:100DFF00FFED33FD4007985006D5F0F222C398FD62
:050E0F000FD5F0EA22FE
:100E1400C5F0F8A3E028F0C5F0F8E5821582700269
:060E24001583E038F02206
:100E2A00A3F8E0C5F025F0F0E5821582700215837B
:060E3A00E0C838F0E822D8
:0D0E4000EF2BFFEE3AFEED39FDEC38FC2201
:100E4D0075F008758200EF2FFFEE33FECD33CDCC5C
:100E5D0033CCC58233C5829BED9AEC99E5829840DF
:100E6D000CF582EE9BFEED9AFDEC99FC0FD5F0D6BC
:100E7D00E4CEFBE4CDFAE4CCF9A88222B800C1B9E6
:100E8D000059BA002DEC8BF084CFCECDFCE5F0CB24
:100E9D00F97818EF2FFFEE33FEED33FDEC33FCEB5D
:100EAD0033FB10D703994004EB99FB0FD8E5E4F918
:100EBD00FA227818EF2FFFEE33FEED33FDEC33FC05
:100ECD00C933C910D7059BE99A4007EC9BFCE99AF9
:100EDD00F90FD8E0E4C9FAE4CCFB2275F010EF2F3E
:100EED00FFEE33FEED33FDCC33CCC833C810D7073E
:100EFD009BEC9AE899400AED9BFDEC9AFCE899F879
:0E0F0D000FD5F0DAE4CDFBE4CCFAE4C8F9220B
:100F1B00E8600FEFC333FFEE33FEED33FDEC33FC34
:030F2B00D8F122D8
:0C0F2E00E0FCA3E0FDA3E0FEA3E0FF2236
:0C0F3A00E0F8A3E0F9A3E0FAA3E0FB223A
:0C0F4600ECF0A3EDF0A3EEF0A3EFF0221E
:100F5200A8828583F0D083D082120F69120F6912A2
:100F62000F69120F69E473E493A3C583C5F0C583C7
:100F7200C8C582C8F0A3C583C5F0C583C8C582C8E9
:010F8200224C
:100F8300D083D082F8E4937012740193700DA3A3FD
:100F930093F8740193F5828883E473740293686011
:060FA300EFA3A3A380DF11
:1024AD000231A5E493A3F8E493A34003F68001F26F
:1024BD0008DFF48029E493A3F85407240CC8C33330
:1024CD00C4540F4420C8834004F456800146F6DFFF
:1024DD00E4800B0102040810204080902724E47E44
:1024ED00019360BCA3FF543F30E509541FFEE493F4
:1024FD00A360010ECF54C025E060A840B8E493A3BB
:10250D00FAE493A3F8E493A3C8C582C8CAC583CAE5
:10251D00F0A3C8C582C8CAC583CADFE9DEE780BE9D
:012793000045
:00000001FF
