:06377600011B0001100020
:10490C00FA90036FE0FEA3E0FF021A68D3E5469429
:10491C00BEE545940022D3E546946EE54594052208
:0D4CF40075A0600000C28712498AD2872295
:104863008F4475A0407F017E0012498AE5445407B6
:10487300F51BE51B4510F5807F017E0012498A7503
:03488300A0A022D0
:1047F2008F4475A0407F017E0012498AE54433331D
:10480200335438F510E510451BF5807F017E001208
:06481200498A75A0A022F6
:064488008B578A58895988
:10448E001219EE9003A1F09003A07401F09003A016
:10449E00E0FFC39D5020A3E0FEAB57AA58A9598F49
:1044AE0082758300121A07FFEE6F9003A1F090033E
:0B44BE00A0E004F080D79003A1E0FF15
:0144C90022D0
:103B8E00EF24D0FEE4340790036FF0A3CEF0ED6483
:103B9E00016003BD020E740C2DFD90036F74FFF5D2
:103BAE00F0121ABDED75F002A4FFEB7A002FFFEABA
:103BBE0035F0FEED0475F003A475F005847C002F3E
:103BCE00FFEC3EFE90036FE0FCA3E0FD2FFBEC3E0E
:103BDE00FAEDAE047802CEC313CE13D8F92BFBEA5E
:103BEE003E7C007D6412490CC3EB9FFBEA9E7C0178
:103BFE007D9012490CEF2BFFEE3AFE7C007D0712F2
:093C0E001A68A3ECF0A3EDF0FF2D
:013C1700228A
:10306100E4F545F54643A00FF54575460AE54615D5
:1030710046AC45700215454C700302315D1231605A
:10308100FF640F60E8EF24F5603A24FE605F14707E
:10309100030231202407600302315A754501754648
:1030A1002CE54645456012E5461546700215451268
:1030B1003160640760EB7F042212491840037F00EE
:1030C100227F042275450175462CE546454560126F
:1030D100E54615467002154512316C640B60EB7FB5
:1030E100032212491840037F00227F032275450500
:1030F100754678E54645456012E546154670021568
:103101004512316C640D60EB7F02221249224003AB
:103111007F0022E546454570037F06227F02227526
:103121004505754678E5464545601AE546154670FC
:103131000215457F017E0012498AE5A0540F640EF5
:1031410060E37F012212492240037F0022E54645C8
:0E3151004570037F05227F01227F00227F0050
:10315F00227F017E0012498AE5A0540F227F017E53
:09316F000012498AE5A0540F2268
:10498A00EF1FAA0670011E4A6013E4FCFDC3ED94F2
:0D499A001CEC940250EA0DBD00010C80F0F1
:0149A70022ED
:0B4D2800EF1FAC0670011E4C70F6225D
:104A1C00202020212100B579B5A521A558C944B382
:0A4A2C005DB86D2E2E2E2E2E2E21C9
:1046E400F514AE13AF148E13EF22F512AE11AF1200
:1046F4008E11EF22F516AE15AF168E15EF22F51AB0
:10470400AE19AF1A8E19EF22AE17AF188E17EF221B
:0B4D33007F0A7E0012498A75BBFF2238
:104B0F00438901758AFB758CDBD28CD2A9D2AF2277
:104A0100759850438920EF6007E4F58BF58D80069A
:0B4A1100758BFD758DFDD28ED2AC229E
:0D4D0100759A50759CB8438E1475AF012251
:102E1D001246E654FE1246E454FD1246E454FB12EB
:102E2D0046E454F71246E454EF1246E454DF1246DA
:102E3D00E454BF1246E4547FF5141246FA440112CD
:102E4D0046F844021246F854FBF51612470C54F797
:102E5D00F5181246FA54FBF5161246F054FD1246BB
:102E6D00EE54FB1246EE54F71246EE54EF1246EEB8
:102E7D0054DF1246EE54BF1246EE4480F51212474F
:102E8D000C547FF518E4FF740B2FF582E43402F532
:102E9D0083E4F0746B2FF582E43402F583E4F00FD4
:102EAD00BF5FE49002E77401F09002E1F0E490025C
:102EBD00E8F0122F397E0012498A1246FA54F7F5BE
:102ECD00167F647E00124CF4E4FFFE124B1FEF24BC
:102EDD00F4601124DC601C2470603324BD70361244
:102EED002F39801CE4FF124863E49002E3F07F0168
:102EFD00FE800F7F021248639002E37402F07F019F
:102F0D007E0012498A12470C547FF518800712472C
:102F1D000C4480F51812470454FB12470254F71263
:0B2F2D00470254EF12470254FDF51A52
:0E2F3800227F011248639002E37401F0FF2231
:103D24007F017E00124B1FBFAB0C7F027E00124B43
:103D34001FEF64CD606B7F207E001238B17BFF7A69
:103D44004A7922E4FDFF1239487BFF7A4A7927E455
:103D5400FD7F011239487BFF7A4A791C7D087F0375
:103D64001239487D03E4FFFE123C18E4F544F5459E
:103D7400E545240AFFE43544FE7DFF123C18054561
:103D8400E54570020544C3942CE544940140E17D6B
:103D9400AB7F017E00123C187DCD7F027E00123C79
:013DA4001806
:013DA50022FB
:10481800124D33E4FF124A01124D01124B0F122EB2
:104828001DE4F5A05380F775A0A01245C9124D9458
:06483800124A96023D2425
:064D8E0012481802004665
:1046B00020202021210020202020AB4FA673A6A877
:1046C000A55C212020202020202020202020202028
:1046D00020202021000102030405060708090A0B17
:0446E0000C0D0E0FA0
:10377C0041020A0141026A004102CB004102CA0027
:101EF500EFF0E0C4540F7E00540F24D4F582EE3485
:101F050046F583E493C454F0FF22E0FF04F07463C4
:101F15002FF582E43403F5837402F0900362E0FF49
:101F250004F074632FF582E43403F583222FF0E087
:101F350075F00A84C454F0FFE075F00A84EF25F0CB
:101F4500F022746B255AF582E43402F583E004F03F
:101F5500746B255AF582E43402F58322D39003602D
:101F6500E0940190035FE0940022E0FFE4FCFDFEB5
:101F7500900368121BEF900368021BD7E49002E4FC
:101F8500F0A3F0AE17AF188E17EF22780090036418
:101F9500121BD7121B32AC00AD01AE02AF0322FCFF
:101FA500900368121BEF900364121BD7900368120D
:101FB5001BE3121AE9900364021BEFF583E024D0BA
:101FC500F074E72FF582E43402F583E02290036C88
:101FD500E024E4F582E43402F583E022F0E0C45421
:101FE500F0F0E0FF22AE15AF168E15EF22AE17AF5B
:101FF50018EEC4F854F0C8EFC4540F482274E92F02
:10200500F582E43402F583E02290036CE024E6F5E2
:1020150082E43402F583E02290035DE4F0A32274A8
:10202500E52FF582E43402F583E022E0540F904673
:10203500D4932290035FE4F0A3229002CBE0240A1C
:10204500FFE433FE2290036CE0FF24E8F582E434DC
:102055000222C3900360E09402229002EAE0FFA30B
:10206500E0FDA3E0FB227412F0A3E4F0A304F02248
:10207500E4900357F0A3F09002E322900362E0FEA0
:1020850004F074632E2274E32FF582E43402F583A1
:10209500E022F516AE11AF128E11EF2290035FA369
:1020A500E0FF22AE17AF18EF780722740B255AF51B
:1020B50082E43402F58322F090036CE004F0229070
:1020C500035DE0FEA3E08EF02290036CE0FFC322E7
:0620D500900364021BD71A
:10004600E490035BF0A3F0A3F0A3F0A3F0A3F012F7
:10005600306190035BEFF090035DE07002A3E06017
:100066002F90035BE0600E121F814420F518121FCB
:100076008854F7F518AE17AF18EF7803CEC313CE32
:1000860013D8F930E00A120575121F884420F518B6
:1000960090035BE0B4051290035DE07002A3E0609C
:1000A60008120575E490035BF01220C4121C52007E
:1000B600D500000111000101AF00110291001203E9
:1000C60030012104410122047E0123000004C39073
:1000D600035BE0640560030204C3AE17AF18EF7854
:1000E60006CEC313CE13D8F930E0030204C31220A0
:1000F6001D0412206D121F8154F7F5181205A9442C
:1001060020F518E490035BF00204C390035BE0FF64
:10011600640170030204C3EF6402706490035FE03D
:100126007004A3E06401703E90035DF0A37411F0C7
:10013600120600600E24DC60132470601824BD7063
:100146001D801B1220387402F00202FD1220387442
:1001560003F00202FD1220387404F00202FD1220A0
:100166003804F00202FD90035FE07004A3E064022D
:1001760060030204C390035DF0A312206B0202FD2C
:1001860090035BE0FFB4030B121F6150030204C32C
:100196000204A7EF640460030204C3122057121F6F
:1001A6006840030204C30204BC90035BE0B4010789
:1001B60012201D0402033C90035BE0640660030208
:1001C600026490035FE0FEA3E0FFEE7029EF24FED9
:1001D600600C1460111460162403701A80189003C2
:1001E6005A740CF0801690035A7430F0800E900307
:1001F6005A74C0F0800690035A7403F090035AE0D4
:10020600FDE4FFFE1205C3120600601D24DC602813
:100216002470604024BD60030204C37F011248635A
:100226009002E37401F0FF801CE4FF124863E4903F
:1002360002E3F07F01FE800F7F021248639002E323
:100246007402F07F017E0012498A121F88547FF5DE
:10025600180204C3121F884480F5180204C39003D1
:100266005BE0FFB4030B121F6150030204C30204D8
:10027600A7EF640460030204C3C3900360E0940420
:10028600121F6840030204C30204BC90035BE0B47F
:10029600010712201D0402048A90035BE0640270C9
:1002A6006090035FE07004A3E06401703090035D2A
:1002B60004F0A37421121F874410F518E49002CAB3
:1002C600F090035FF0A304F0121FEA4404F5167FD2
:1002D600207E001238B17F0A7E0002041E90035F62
:1002E600E07004A3E0640260030204C390035D04AB
:1002F600F0A3742312206D121FEA4404F5160204BB
:100306004E90035BE0FFB4030B121F61500302041F
:10031600C30204A7EF640460030204C31220571249
:100326001F6840030204C30204BC90035BE0B401EF
:100336001012201D741212058F12203804F00204C8
:10034600C390035BE0FDB4022A121FF25401F4FFCE
:10035600EF5401C4F8540FC868FFE4C454F048FED3
:10036600AA17AB18EB54EFFBEA4EF517EB4FF5184F
:100376000204C3ED6406700E12203F9002CAE0FD2F
:100386001205C30204C390035BE064037049121FA5
:10039600F230E00B121F6150030204C30204A7905F
:1003A600035FE07004A3E0640170159002CBE06087
:1003B6000414F080069002CB745FF012203F805840
:1003C6009002CAE064016006E014F00204C39002E1
:1003D600CA7403F00204C390035BE0640460030282
:1003E60004C3121FF230E00E122057121F6840039A
:1003F6000204C30204BC90035FE07004A3E064013E
:1004060070219002CBE0C3945F5005E004F08005B4
:10041600E49002CBF012203F124B1F9002CAEFF07D
:100426000204C39002CAE0C394035006E004F0023B
:1004360004C39002CA7401F00204C390035BE0B4E3
:10044600011012201D12206B7F207E001238B1028F
:1004560004C390035BE0FF64026062EFB40307121B
:100466001F614059803B90035BE06404704F12208B
:1004760057121F685047803E90035BE0B40110128C
:10048600201D741212058F1220387402F0802E90EF
:10049600035BE0FF64026025EFB4030B121F6140AB
:1004A6001C74FFF5F0801390035BE0B4040F122078
:1004B60057121F685007E475F001121ABDE4900345
:1004C6005BF01220C4121C5204EE000004FB000173
:1004D60005040011050D001205160121051F012254
:1004E600052501230000056B121F8854BFF518125D
:1004F6002CEE0200551220A1123F180200551220C0
:10050600A1122F460200551220A11239DE02005513
:100516001220A1122BAC020055124D9E020055125C
:100526003C9FEF24FB60132404702B12201D120540
:10053600F5121F884420F5188022E490035DF0A38D
:10054600F01205A94420F518E490035B121F8744B6
:1005560040F51802005512201D1205F512203874B8
:0F05660002F0020055E490035DF0A3F00200558F
:10057500E490035DF0A3F0AE15AF168E15EF4404BD
:10058500F5167F207E001238B122F0A3E4F0A30413
:10059500F0AE15AF168E15EF4404F5167F207E00DC
:1005A5001238B122AE15AF168E15EF4404F5167F3D
:1005B500207E001238B1AE17AF188E17EF22123C0D
:1005C500187BFF7A4679B6E4FD7F031239487BFF35
:1005D5007A4679B07D087F031239487FE87E031299
:1005E500498A7BFF7A4679C3E4FD7F0312394822A5
:1005F5007412F07F207E001238B122E4FFFE124B08
:050605001FEF24F422A8
:10060A00900364121BFB00000000900368121BFB9E
:10061A00000000009002E3E06003020925900356FF
:10062A00E0D39414500302091DE0945040030209D8
:10063A001D9002E9E06424600302091DA3E06447F7
:10064A00600302091DA3E06450600302091DA3E0D0
:10065A006452600302091DA3E0644D600302091D90
:10066A00A3E06443600302091DA3E0642C60030253
:10067A00091D90036C7407F01220CE940D501012CD
:10068A002002C39430500302091D1220BD80E99054
:10069A0002F0E0C39433400302091DA3E0C3943A75
:1006AA00400302091DA3E0C39436400302091DA3B7
:1006BA00E0C3943A400302091DA3E0C39436400301
:1006CA0002091DA3E0C3943A400302091D90036C7A
:1006DA007407F01220CE940D500A12200224D01270
:1006EA0020BC80EF121F8854FDF5189002F0E070CC
:1006FA0010A3E0C39402500280169002F0740180A5
:10070A001A9002F0E06401701DA3E0C3940250063F
:10071A00E02408F080299002F07402F0A3E0F404C7
:10072A00FFC374FE80119002F0E0B40212E4F0A359
:10073A00E0F404FFC374049F121F874402F5189063
:10074A0002F0E09002EE121FE19002F1E0FEEF4E9D
:10075A009002EEF09002F2E09002EF121FE1900296
:10076A00F3E0FEEF4E9002EFF09002F4E09002F018
:10077A00121FE19002F5E0FEEF4E9002F0F0E490D5
:10078A00036DF0900356E090036CF090036CE0FF69
:10079A00D39407401C122002B42C0690036DE00487
:1007AA00F090036DE06403600890036CE014F0803D
:1007BA00DA12204AF583E0C3943A400302091D1273
:1007CA001FC6C3943A400302091D12200EC3943374
:1007DA00400302091D122024C39432400302091D5A
:1007EA00121FD2C3943A400302091D12208BC394EC
:1007FA0034400302091D90036CE012204FF583E098
:10080A00C39430500302091D121FC6C3943050030B
:10081A0002091D12200EC39430500302091D122032
:10082A0024C39430500302091D121FD2C3943050BE
:10083A000302091D12208BC39430500302091D12B2
:10084A00204A121FC024D0F074E62F12201424D09C
:10085A00F012202424D0F074E42F121FD824D0F0F0
:10086A0074E32FF582E43402121FC09002EA121FC9
:10087A00E190036CE0FE12204FF583E0FDEF4D900E
:10088A0002EAF074E52E1220279002EB121FE19083
:10089A00036CE0FE122012FDEF4D9002EBF074E3C0
:1008AA002E12208E9002EC121FE1121FD2FEEF4E82
:1008BA009002ECF012205F123B8E90036EEFF0E094
:1008CA0070037407F090036EE0FFC394014044EF95
:1008DA00D39407503E9002E3E0700EAE17AF18EFC4
:1008EA0020E006120B921241661220A8CEC313CE44
:1008FA0013D8F930E00A122075F09002E17403F07F
:10090A007F017E0012498A121FEA54EF122097448F
:10091A0008F512121FEA54F7F516229002E3E06472
:10092A00016003020B22900311E0FF900309E06FBC
:10093A006003020B1A900312E0FF90030AE06F6053
:10094A0003020B1A900313E0FF90030BE06F60039E
:10095A00020B1A900314E0FF90030CE06F6003028D
:10096A000B1A900311121F6F7818121BC4121F75ED
:10097A00E4FFFEFDEC121F75121FBA900312121F3C
:10098A006F7810121BC4121F75E4FFFEE4121FA435
:10099A00900313121F6F7808121BC4121F75E4FF0D
:1009AA00E4FD121FA4900364121BE3900314E0FFFA
:1009BA00E4FCFDFE121FB71220D5EF2480FFEE34AF
:1009CA0070FEE43DFDE43CFC121FBA7B3E7A857959
:1009DA00E178011220D5121B32EF249CFFEE34FF7E
:1009EA00900362F0A3EFF09002EA121EF69002EA78
:1009FA001220309002EA121F327B3E7A8579E17822
:100A0A0001121F927B6F7A2079287800121B32EF2D
:100A1A00049002EB121EF69002EB1220309002EBC9
:100A2A00121F327B6F7A207928121F907B807A51AD
:100A3A0079017800121B329002EC121EF59002EC3A
:100A4A001220302F9002EC121F337B807A517901E9
:100A5A00121F90E47B107A0EF9F8121B329002EE04
:100A6A00121EF59002EE1220302F9002EE121F3362
:100A7A00E47B107A0EF9F8121F92E47B3CFAF9F83B
:100A8A00121B329002EF121EF59002EF1220302F45
:100A9A009002EF121F33E47B3CFAF9F81220D512C8
:100AAA001B329002F0EB121EF69002F01220302F49
:100ABA009002F0121F3312205F123B8E90036EEFEA
:100ACA00F0E070037407F090036EE0FFC3940140F6
:100ADA0033EFD39407502D9002E3E06401700EAE19
:100AEA0017AF18EF20E006120B921241661220A8E7
:100AFA00CEC313CE13D8F930E00A12207504F09051
:100B0A0002E104F0121FEA54BF1220974410F512B2
:100B1A00121FEA54BFF516229002E3E064027067DE
:100B2A0090036CF01220CE9408500A12200224E09E
:100B3A001220BC80EF9002E3E06403702BAE17AF83
:100B4A0018EF20E0239002EDE0FF12464012205FEA
:100B5A009002EEE0F547A3E0F548A3E0F54912411B
:100B6A00661220994404F5121220A8CEC313CE139C
:100B7A00D8F930E0121220757402F09002E114F0F4
:070B8A00121F8854FEF5184C
:100B91002290036EE0FF1246407F017E0012498AD7
:100BA1009002EAE0FFA3E0FDA3E0FB9002EEE0F596
:0A0BB10047A3E0F548A3E0F5492250
:1020DB00E4900362F0055AE55AC3945F4003E4F5BC
:1020EB005AE4900363F0E55A122043124B1F9003FE
:1020FB0062EFF024FE602204703B900364E4F0A3D3
:10210B007432F0900363E0FF1247F27F02122299C0
:10211B007F027E0012498A80249003647401F0A32D
:10212B00742CF09003637406F0AF5A12410F7F6466
:10213B001222998008900364E4F0A304F0900364E6
:10214B00E07002A3E0700302227B90036474FFF53E
:10215B00F0121ABD7F017E0012498A900362E024BF
:10216B00FE60710470D7AE13AF14EF7805CEC313B6
:10217B00CE13D8F930E0C6AE13AF148E13EF54DF85
:10218B00F514121FEA4402F5169002CCE0B4A5AD8B
:10219B00A3E0B45AA8A3E0B4A5A3A3E0645A709D2E
:1021AB00A3E064A57097A3E0645A7091A3E064A5C3
:1021BB00708BA3E0645A7085A3E0F47080A3E0B544
:1021CB005A03022264121F47E0C3940350030222F6
:1021DB009802229375470075480075490C7B017A6C
:1021EB000279CC123815EF70030221489002CCE033
:1021FB0064026003022148A3E064A5600302214846
:10220B00A3E0645A6003022148A3E064A5600302C3
:10221B002148A3E0645A6003022148A3E064A5604F
:10222B0003022148A3E0645A6003022148A3E0643F
:10223B00A56003022148A3E0645A6003022148A36E
:10224B00E0F460030221489002D7E06403600302CC
:10225B0021489002D6E0B55A0C121F55E4F012201B
:10226B00B07401F022121F47E0C39403401F801883
:10227B00900363E004F0E0C3940650030220F112D4
:0D228B001F47E0C3940340051220B0E4F0AB
:0C229800227E0012498AAF5A12410F2228
:1035F100E4900362F0121F0F7420F07F06123692DE
:10360100EFF07F05123692EFF07F041236A7121FFA
:103611002AEFF07F031241B9900382EFF0E05407E3
:10362100F0E0FF122080121F2AEFF07F021236A76E
:10363100121F2AEFF07F011241B9122080121F2AB6
:10364100EFF0E4FF1241B9EF547FFF122080121F07
:103651002AEFF0900362E02463121F2AE004121F94
:103661001F7401F0900362121F0F7403F07B017A43
:103671000379637D0C12450C7F647E0012498A7BBD
:10368100017A0379637D0C1249C67F647E00024989
:013691008AAE
:103692001241B9900362E0FE04F074632EF582E4F5
:1036A2003403F583221241B9900362E0FE04F07400
:0336B200632E2262
:10483E0090020AE024FE600D14600D14600D1460E9
:10484E000D2404800C023F8C02420B02458C024A5E
:05485E00C4123A7422AF
:104AED00900362E0FFC3941022900361F0E4A3F001
:014AFD002296
:0438B1008E468F4769
:1038B500E4F5A07480124AF6124AED500512391447
:1038C50080F6E4900362F07488124AF6124AED50CD
:1038D5000512391480F6E4900362F0900361749048
:1038E500F0E4A3F0124AED500512392E80F6E4906B
:1038F5000362F09003617498F0E4A3F0124AED506E
:0E3905000512392E80F6E4900362F075A0A042
:1039130022900361E02FFF1225FE7F201227787F7C
:1039230020122778900362E004F022900361E02FD5
:10393300FF1225FE7F201227787F2012277890031D
:0539430062E004F02227
:104771008D5BE4F5A01225FEE55B75F00A8424301B
:10478100FF122778E55B75F00A84E5F02430FF120B
:0B47910027787F3A12277875A0A0223D
:0A3948008F468D478B488A49894A53
:10395200E4F5A07F01FE12498AE546D394034003B1
:10396200754603E547D394084003754708E54614B6
:1039720060101460131460162403701AE547248043
:103982008010E5472488800AE54724908004E547B3
:10399200249890037DF090037DE02547F0E0FF122C
:1039A20025FE8024AB48AA49A94A1219EE90037C4D
:1039B200F06421601C7401254AF54AE43549F54951
:1039C20090037CE0FF1227787F017E0012498A80F3
:0B39D200D37F017E0012498A75A0A07F
:0139DD0022C7
:1045C900E4F5A07F0AFE12498A1245F51245F57FE6
:1045D9000C1245FE7F011245FE7F061225FE124789
:1045E900437F207E001238B175A0A0227F301225AA
:0C45F900FE124743221225FE1247432207
:10474300E490035AF0E490035BF0E490035CF09090
:10475300035CE004F0E0B433F690035BE004F0E0C4
:0D476300B440E790035AE004F0E0B403D83E
:014770002226
:0100220022BB
:0A4D5F007F301225FE7F080225FEBA
:0A4D69007F361225FE7F300225FE82
:0A4D73007F341225FE7F300225FE7A
:103FFA00E49003A3F01240529003A212403FC282FF
:10400A0012404A1240520012404A9003A312403F03
:10401A00C2829003A2E054F0FFF0A3E0C4540FF070
:10402A00540FF04F9003A2F07F017E00124D2890AA
:04403A0003A2E0FFFE
:10403E0022E580F07F017E00124D28227F017E0056
:0E404E00124D2822123EA0D280D281D28222B0
:022778008F4B85
:10277A00E490037EF0123EA0E54B54F090037EF005
:10278A00121C2C27C10027C51027CB2027D13027A0
:10279A00DB4027DF5027E56027EB7027F58027F914
:1027AA009027FFA02805B0280FC02813D02819E0C9
:1027BA00281FF000002827C2848002D284C28580A4
:1027CA000AC284D2858004D284D285C286C2878016
:1027DA004CC2848002D284C285800AC284D2858097
:1027EA0004D284D285D286C2878032C2848002D241
:1027FA0084C285800AC284D2858004D284D285C2EA
:10280A0086D2878018C2848002D284C285800AC296
:10281A0084D2858004D284D285D286D2871228E2D5
:10282A00C2827F147E00124D28E54BC454F09003F7
:10283A007EF054F0F0121C2C287600287A1028809A
:10284A0020288630289040289450289A6028A07022
:10285A0028AA8028AE9028B4A028BAB028C4C028D4
:10286A00C8D028CEE028D4F0000028DCC284800238
:10287A00D284C285800AC284D2858004D284D28559
:10288A00C286C287804CC2848002D284C285800AF2
:10289A00C284D2858004D284D285D286C28780320D
:1028AA00C2848002D284C285800AC284D28580040E
:1028BA00D284D285C286D2878018C2848002D2840A
:1028CA00C285800AC284D2858004D284D285D28607
:0728DA00D2871228E2C2823E
:0F28E10022D280C281D2827F147E00124D282223
:0225FE008F4B01
:10260000E490037EF0123EA0E54B54F090037EF080
:10261000121C2C264B00264F10264720265530260C
:102620005F40266350266960266F70267980267D7C
:10263000902683A02689B02693C02697D0269DE0B9
:1026400026A3F0000026ABC284800CC2848002D294
:1026500084C2858004D284D285C286C287804CC25F
:10266000848002D284C285800AC284D2858004D24A
:1026700084D285D286C2878032C2848002D284C24C
:1026800085800AC284D2858004D284D285C286D253
:10269000878018C2848002D284C285800AC284D214
:1026A000858004D284D285D286D2877F017E0012B3
:1026B0004D2812276AC2827F017E00124D28E54B09
:1026C000C454F090037EF0121C2C26FE002702104A
:1026D000270820270E30271840271C502722602764
:1026E0002870273280273690273CA02742B0274CFD
:1026F000C02750D02756E0275CF000002764C28432
:102700008002D284C285800AC284D2858004D284A9
:10271000D285C286C287804CC2848002D284C285A0
:10272000800AC284D2858004D284D285D286C287B0
:102730008032C2848002D284C285800AC284D2855B
:102740008004D284D285C286D2878018C284800257
:10275000D284C285800AC284D2858004D284D28584
:09276000D286D28712276AC282D8
:0F27690022C280C281D2827F017E00124D2822BF
:103EA000E4900380F0A3F090037FF0123EFC9003B7
:103EB00080123F0DC28200007F017E00124D281249
:103EC0003EFC900381123F0DC2820000900381E00E
:103ED000C4540FF0540FFFF0900380E054F0F04F03
:103EE000F07F017E00124D28900380E030E70C90B7
:0B3EF000037FE004F0E0C3941440B036
:103EFB00227580F0C280D281D2827F017E00124D6A
:0D3F0B002822E580F07F017E00124D282263
:10326D002020202121002020A46CC4C1B373BD7582
:10327D00AAACBA41202021B3C9B9A6202020202014
:10328D00202020202020202100CAA7B0DC202020D3
:10329D002020202020202020202100B3F5CABCBBF7
:1032AD00AF2E2E2E2E2E2E202020202100D3B2CC5C
:1032BD00E5B0E6B1BE3A2056312E3020202100C8AF
:1032CD00EDCCE5B0E6B1BE3A2056312E30202021AE
:1032DD0000BCECB2E24E54502E2E2E2E2E2E20205F
:1032ED00202100BCECB2E24750532E2E2E2E2E2E56
:1032FD002020202100BCECB2E2434F4D2E2E2E2E6D
:10330D002E2E2020202100202020202020C5E4D694
:10331D00C3202020202020210020312ED7D3D6D32A
:10332D00B9DCC0ED2020202020210020322ECAB192
:10333D00BCE4D4B420202020202020210020002017
:10334D000020002020A440A447A454A57CA4ADA433
:04335D00BBA4E92103
:1028F000E0FF04F074682FF582E43403F58374205C
:10290000F0900367E0FF04F074682FF582E434036D
:10291000F5837420F0900367E0FF04F074682FF5EE
:1029200082E43403F5832290039CEFF0E0C4540F5B
:102930002430FF900383E0FE04F074862EF582E4D9
:102940003403F583EFF090039CE0540F24309003A0
:1029500083FFE0FE04F074862EF582E43403F583F1
:10296000EFF022E4900383F0E0FF04F074862FF58B
:1029700082E43403F5837432F0900383E0FF04F0C3
:1029800074862FF582E43403F58322E0C4540F24C7
:1029900030FF900367E0FE04F074682E229003621B
:1029A000E0FEA3E0FF7C00021A68900382EFF0E0F3
:1029B000C4540F2430FFA3227421F07B017A0379E1
:1029C00068E4FD2275A0607B017A0379862290037A
:1029D00082EFF0E05407F0E022AE19AF1AEF78076B
:1029E00022E0FEA3E0FF7C00021A68D2C17F017ED4
:1029F000002290039AEFF0E022E545240AFEE4333A
:102A0000900361F0A3CEF022C2C17F017E0022FEBE
:102A10007C007D0A021A68740B2545F582E43402B5
:102A2000F583E022745BF0AE11AF1222AE17AF183F
:102A30008E17EF22E0241054F0F02290039BEFF069
:102A4000E022900385EFF0E022900362EEF0A3EF26
:032A5000F0F4227D
:104A7F00D2C01229EB124D28C2C07F017E00124D09
:074A8F0028122A08024D283D
:104AFE00C2C01229EB124D28D2C07F017E00024D9A
:014B0E00287E
:10492C00A20092C012493E124D28D2C112493E0239
:10493C004D287F0A7E00124D28C2C17F0A7E0022BC
:0F4B4F001229EB124D28A2C0122A08124D28225B
:0240B7008F4C2C
:1040B900E4F54EAE19AF1A8E19EF547FF51AE4F5EF
:1040C9004DE54C25E0F54C92C01229EB124D281212
:1040D9002A08124D28054DE54DC3940840E3124BBB
:1040E9004F5020AF4E054EEF941E400EAE19AF1A39
:1040F9008E19EF4480F51AC2C0227F017E00124D4D
:054109002880DBC2C0AC
:01410E00228E
:10471400E4F548D2C0F547E54825E0F5481229EB11
:10472400124D28A2C0E4334248122A08124D28052B
:0E47340047E547C3940840DFC2C1C2C0AF488A
:014742002254
:044257008F4A8D4BB2
:10425B00C2AF124A7F7FDE1240B71229D9CEC313E9
:10426B00CE13D8F920E0EBAF4B1240B71229D9CEC1
:10427B00C313CE13D8F920E0D9AF4A1240B7122995
:10428B00D9CEC313CE13D8F920E0C7124AFED2AF52
:07429B007F057E0002498A45
:0241B9008F4530
:1041BB00C2AF124A7F7FDE1240B71229D9CEC3138A
:1041CB00CE13D8F920E0EBAF451240B71229D9CE68
:1041DB00C313CE13D8F920E0D9124A7F7FDF1240E8
:1041EB00B71229D9CEC313CE13D8F920E0C4124786
:0F41FB00148F46D20012492C124AFED2AFAF46A3
:01420A002291
:104640008F447F031241B9900382EFF07D077F40D2
:104650001242577F017E0012498AE544900382B4DA
:10466000FF05E044088009E054F8F0E044084544C0
:09467000F0E0FF7D031242572225
:104166008D458B467D061241A37D05AF451241A3C1
:104176007D04AF461241AE7D02AF471241AE7D01CE
:10418600AF481242577F017E0012498AE5494480B2
:10419600FFE4FD1242577F017E0002498A12425710
:1041A6007F017E0012498A221242577F017E001249
:0341B600498A2211
:10494C0090039CE0B49903E4F02290039CE0540F94
:0F495C00FFBF0904122A342290039CE004F022CA
:1048A90090039AE024EE600B2409700E90039A7429
:1048B90010F02290039A7401F02290039AE004F018
:0148C90022CC
:10467900900382E024F7601324F0601624F0601997
:1046890024F8701C9003827401F022900382741044
:10469900F0229003827420F0229003827430F02279
:0746A900900382E004F022FF
:10479C0090039BE024F7601524F0600A24F6701453
:1047AC00E490039BF02290039B7420F02290039BD7
:0B47BC007410F02290039BE004F02238
:10496B00900385E0B45903E4F022900385E0540FE3
:0F497B00FFBF0904122A3422900385E004F022C2
:10488600900384E0547FF0E0B45903E4F0229003EF
:1048960084E0540FFFBF0904122A3422900384E0F7
:0348A60004F022F9
:054D94007FFF02464014
:100FF800E4900362F0A3F0A3F0A3F0900367F0126B
:10100800291874321229147430F07F061241B990ED
:10101800039CEFF012298B12291FEFF090039CE03C
:1010280012298D12291FEFF012291574A6122914FE
:10103800747E1229007420F07F051241B91229F23A
:10104800D3941240037412F090039A12298B122938
:101058001FEFF090039AE012298D12291FEFF0126A
:10106800291574A412291474EBF07F041241B99065
:101078000382EFF0E0D3943140037431F09003829F
:1010880012298B12291FEFF0900382E012298D128A
:10109800291FEFF012291574A412291474E91229D2
:1010A800141229B8FF123948E4900367F0AE11AF63
:1010B80012EEC313EF1330E008122918742BF080D6
:1010C800061229157420F07F021241B9122A3BD367
:1010D800942340037423F090039B12298B12291F39
:1010E800EFF090039BE012298D12291FEFF01229CF
:1010F80015743AF07F011241B9122A42D39459402B
:10110800037459F090038512298B12291FEFF09070
:101118000385E012298D12291FEFF0122915743A60
:10112800F0E4FF1241B9EF547F900384F0E0D394C8
:101138005940037459F090038412298B12291FEF28
:10114800F0900384E012298D12291FEFF012290173
:1011580074AC122914745012291474B4122914741A
:10116800C1F07F031241B91229CE25E0F0E0903397
:10117800509312299112291FEFF0900382E09033C7
:10118800519312299112291FEFF01229151229B82B
:101198007F02123948E4900366F0900366E0FFC3CB
:1011A8009410500E12291C7420F0900366E004F08D
:1011B80080E812291C1229B87F01123948E49003EB
:1011C80067F0122918122A24EEC4F854F0C8EFC4A4
:1011D800540F4890036730E012122918744E1229F0
:1011E8001474541229147450F080061228F07420D4
:1011F800F0122915745D122914122A24EF7803CEEF
:10120800C313CE13D8F990036730E012122918746B
:101218004712291474501229147453F080061228A6
:10122800F07420F0122915745D122914122A24EF83
:101238007802CEC313CE13D8F990036730E01212A8
:1012480029187443122914744F122914744DF0800C
:10125800061228F07420F0122915745D1229001264
:1012680029B87F03123948E4F5A0123442122A49FA
:101278007002EEF47F8860261225FE7D6412299D97
:101288001213969003627D641229E17E007F0ACFD3
:10129800CDCFCECCCE121A68EF2430FF800A1225AB
:1012A800FE7F211227787F201227787F2512277842
:1012B8007F521227787F48122778123361122A4901
:1012C8007002EEF46079900362E0FEA3E0FFA3EE03
:1012D800F0A3EFF0C394C8EE94007F8C502412253D
:1012E800FE7F201227787F2D122778900362E0FE78
:1012F800A3E0FFC374C89FFFE49E122A0F90036205
:101308008013121388900363E02438FF900362E08F
:1013180034FF122A0FEEF0A3EFF0122A10121396E0
:101328007D0A12299DED2430FF1227787F2E12277F
:10133800789003647D0A1229E1ED2430FF80167F3E
:101348008C1213887F201227787F201227787F211C
:101358001227787F201227787FA21227787F4A12D7
:10136800277875A0A0AE19AF1AEF30E006E4F5A013
:1013780075A0A07BFF7A32796D7D087F030239481A
:101388001225FE7F201227787F2012277822EF244B
:0613980030FF122778224D
:02139E008F4579
:1013A000E4900361F0A3F0A3F07BFF7A327973FD40
:1013B000FF123948E4F5A07F901215FF1229F912A7
:1013C0002A17601E1215C3BF01047F528008121530
:1013D000C3BF02097F461227787F4F801E1216A8CE
:1013E00080191215CFBF01051216F6800E1215CF07
:1013F000BF02051216FE80031216A81227781216D5
:10140000337F881215FF122A17601E1215DBBF01E9
:10141000047F5280081215DBBF02097F461227782D
:101420007F4F801E1216C680191215E7BF010512E4
:1014300016F6800E1215E7BF02051216FE80031283
:1014400016C61227781216337F981225FE12166BD5
:10145000601E1215F3BF01047F5280081215F3BFFE
:1014600002097F461227787F4F801E1216DA8019F4
:10147000121627BF010512170E800E121627BF0283
:101480000512171680031216DA1227787F5D1227CD
:10149000781216E212277805451229F97F94121561
:1014A0008A601E121653BF01047F52800812165321
:1014B000BF02097F461227787F4F801E1216E280F6
:1014C0001912165FBF010512170E800E12165FBFAC
:1014D000020512171680031217061227781216B08B
:1014E0007F8C12158A601E12169CBF01047F5280E9
:1014F0000812169CBF02097F461227787F4F80266C
:1015000012170680211216CEBF01097F52122778CA
:101510007F5880121216CEBF02097F461227787FAD
:1015200058800312171E1227781216B07F9C1225BE
:10153000FE7F2012277812166B601E1216EABF017A
:10154000047F5280081216EABF02097F46122778EC
:101550007F4F802A12171E8025121726BF01097F90
:10156000521227787F588016121726BF02097F462D
:101570001227787F5880077F201227787F20122734
:09158000787F5D12277875A0A0A8
:10158900221225FE7F20122778E54575F00A84246A
:1015990030FF122778E54575F00A84E5F02430FF1D
:1015A9001227787F3A1227787F5B122778740B25E8
:1015B90045F582E43402F583E022900361E0FEA35D
:1015C900E0FF124B1F22900361E0FEA3E0FF124BE4
:1015D9001F22900361E0FEA3E0FF124B1F2290033C
:1015E90061E0FEA3E0FF124B1F22900361E0FEA31E
:1015F900E0FF124B1F221225FEE54575F00A8424EF
:1016090030FF122778E54575F00A84E5F02430FFAC
:101619001227787F3A1227787F5B12277822900366
:1016290061E0FEA3E0FF124B1F227F5D1227787F46
:10163900201227787F201227780545E545240AFEE0
:10164900E433900361F0A3CEF022900361E0FEA39E
:10165900E0FF124B1F22900361E0FEA3E0FF124B53
:101669001F22E54575F00A842430FF122778E545E5
:1016790075F00A84E5F02430FF1227787F3A1227A3
:10168900787F5B122778740B2545F582E43402F5DF
:1016990083E022900361E0FEA3E0FF124B1F227F4B
:1016A900201227787F20227F5D1227780545E5459E
:1016B900240AFEE433900361F0A3CEF0227F2012C6
:1016C90027787F2022900361E0FEA3E0FF124B1FE1
:1016D900227F201227787F20227F201227787F20DF
:1016E90022900361E0FEA3E0FF124B1F227F5212FA
:1016F90027787F58227F461227787F58227F201229
:1017090027787F20227F521227787F58227F46121E
:1017190027787F58227F201227787F202290036123
:09172900E0FEA3E0FF124B1F22B9
:103C9F00E4F544FDAF4412139E123061AD07ED60A1
:103CAF000EE49002E4F0A3F0122A2C54F7F518AEAC
:103CBF0017AF18EF7803CEC313CE13D8F930E00245
:103CCF008019ED24FD601E14602B14600E24047007
:103CDF00C3122A2C54DFF5187F0122122A2C54DF2D
:103CEF00F5187F052274062544F544C3945F4017E9
:103CFF00E4F5448012E544C39406400874FA254461
:103D0F00F544800375445AAE11AF128E11EF444043
:053D1F00F512023CA3B7
:103A74001229637430F07F061241B91229277F0599
:103A84001241B91229F2C412294A90039A122949FF
:103A94007F041241B9900382EFF0E0C4540F243044
:103AA400A3122951900382E01229B11229527F03F3
:103AB4001241B91229CEFFA31229527F021241B931
:103AC400122A3BC412294A90039B1229497F0112EE
:103AD40041B9122A42C412294A900385122949E4A1
:103AE400FF1241B9EF547F900384F0E0C412294AD5
:0E3AF4009003841229491229C47D0F023E243A
:103F8C001229637430F07F061241B91229277F057C
:103F9C001241B91229F2C412294A90039A122949E2
:103FAC007F041241B91229AA122952900382E012FD
:103FBC0029B11229527F031241B91229CEFFA31243
:103FCC0029527F021241B9122A3BC412294A90038A
:103FDC009B1229497F011241B9122A42C412294A63
:0E3FEC009003851229491229C47D0D023E243E
:10420B001229637430F07F061241B91229277F05FA
:10421B001241B91229F2C412294A90039A12294960
:10422B007F041241B91229AA122952900382E0127B
:10423B0029B11229527F031241B91229CE2430FF22
:0C424B00A31229521229C47D09023E244E
:10458C001229637430F07F061241B91229277F0576
:10459C001241B91229F2C412294A90039A122949DC
:1045AC007F041241B91229AA122952900382E012F7
:0D45BC0029B11229521229C47D08023E24A3
:104AC4001229637430F07F061241B9122927122982
:064AD400C47D04023E2433
:10378C004102E300410356004102E20042035100B2
:10379C000041034A004103500041034F0041034CD8
:1037AC00004103530041034E004102E60042035422
:1037BC0000004102E1014102E7014102E80042033D
:1037CC00570000410339004202E4000041034B0062
:1037DC0041034D004102E000420348000042034611
:0237EC000000DB
:10351A00E4F0AE15AF168E15EF4410F516AE15AFE2
:10352A00168E15EF54BFF516AE15AF168E15EF228F
:10353A00AE13AF148E13EF54FBF51490034AE4F064
:10354A00AE13AF148E13EF22AE19AF1A8E19EF54C1
:10355A00FBF51AAE19AF1A8E19EF22AE13AF14EE9D
:10356A00C4F854F0C8EFC4540F4822900356E0FF41
:10357A0004F074E92FF582E43402F5832274A5F08D
:10358A00A3745AF0A374A5F0A3745AF0A32290036B
:10359A004CE0FF04F0EFD322E475F001121AD3FED7
:1035AA0022900346E4F0A322547FF516900356E4D2
:1035BA00F02254F7F51A90034DE4F022F09002E855
:1035CA00F09002E122F090034DE004F0E0D3940978
:1035DA0022AE19AF1AEF780222E0FF04F0EFC322FD
:0735EA00AE17AF188E172287
:0844CA008B448A4589468D47A9
:1044D2007F017E0012498AE4F548E548C3954750BA
:1044E20017AB44AA45A946854882758300121A076C
:1044F200FF120026054880E2AE13AF14EF7806CE15
:09450200C313CE13D8F920E0EF39
:01450B00228D
:08450C008B448A4589468D4766
:104514007F017E0012498AE4F548E548C395475077
:1045240017AB44AA45A946854882758300121A0729
:10453400FF1249E4054880E2AE13AF14EF7807CECA
:09454400C313CE13D8F920E0EFF7
:01454D00224B
:10002600AD07AE13AF14EF7806CEC313CE13D8F9CF
:0D00360020E0EF12354A4440F5148D992268
:1049E400AD07AE13AF14EF7807CEC313CE13D8F9C7
:0D49F40020E0EF12354A4480F5148D9B221F
:02410F008F44DB
:104111007F017E0012498A9002CC7402F0A312350D
:104121008712358774FFF0A3E544F0A37403F07B95
:10413100017A0279CC7D0C1249C67F017E001249B9
:104141008AE4900366F0900366E0FFC3940C501478
:1041510074CC2FF582E43402F583E4F0900366E039
:0441610004F080E204
:014165002237
:03002300022A535B
:102A5300C0E0C083C082C0D075D000C000C005C034
:032A630006C007A3
:102A6600C2AF43C110209803022B8DC298AD999036
:102A7600034AE4F0AE15AF16EF20E003022B8D906B
:102A860002E3E07053AE15AF1612356930E049BD6A
:102A96002419AE15AF16EF7803CEC313CE13D8F9AB
:102AA60020E00812353244081235B4AE15AF16EFE1
:102AB6007803CEC313CE13D8F920E003022B8D1270
:102AC6003575EDF0640A6003022B8D900356E02401
:102AD600E912357FE4F080299002E3E06401703268
:102AE600AE15AF16EF7806CEC313CE13D8F930E085
:102AF60021123575EDF0900356E064306003022B29
:102B06008D12354A4410F51412353254FEF516026C
:102B16002B8D9002E3E06402706DAE13AF14EF7874
:102B260002CEC313CE13D8F930E046123575EDF058
:102B3600900356E0640B704FE024E8F582E434021B
:102B4600F583E0AE13AF14B403108E13EF4410F503
:102B56001412353254FEF516800E8E13EF54EFF52F
:102B6600141235324401F51612353A54FEF5148026
:102B760016BD021312354A4401F51412354A4404AF
:102B8600F514900356E4F0309909C29912354A5467
:052B9600BFF514D2AFF1
:102B9B00D007D006D005D000D0D0D082D083D0E0E3
:012BAB0032F7
:030043000236B5CD
:0B36B500C0E0C083C082C0D075D00808
:1036C000C2AF43C110E59A20E00302375C539AFE73
:1036D000AD9B900350E4F0AE13AF14EF7803CEC36C
:1036E00013CE13D8F930E05E9002E2E0FF04F074EC
:1036F000CC2FF582E43402F583EDF09002E2E06431
:103700000B7059E024CBF582E43402F583E0AE136C
:10371000AF14B403108E13EF4420F5141235325455
:10372000FDF516800E8E13EF54DFF514123532447A
:1037300002F51612354A54F7F51490035012354825
:1037400054FDF5148016BD021312354A4402F514D7
:1037500012354A4408F5149002E2E4F0E59A30E1AB
:0D3760000A539AFD12354A547FF514D2AF7A
:09376D00D0D0D082D083D0E0322C
:03000B00020BBB2A
:100BBB00C0E0C0F0C083C082C0D075D000C000C000
:070BCB0004C005C006C007CD
:100BD20043C110758AFB758CDBAE19AF1AEEC313D5
:100BE200EF1320E003020D7A1235AB7402F090028B
:100BF200E0E004F030B20C12355D4440F51AE4F046
:100C0200020C80AE19AF1AEF7806CEC313CE13D8FA
:100C1200F930E06A9002E0E0C394555010E0C394CA
:100C22004B400A1235AB1235CF404780189002E094
:100C3200E0C39437501AE0C3942D40141235AB042C
:100C42001235CF402D12355254F7F51AE4F08022B6
:100C52009002E0E0C394195013E0C3940F400D12C8
:100C620035AB7450F090034DE4F080061235AB744E
:100C720002F09002E0E4F012355D54BFF51A9003E1
:100C820046E0FEA3E0FFEE6003020D7AEF1460245B
:100C920024B1604824506003020D7A1235DBCEC3C2
:100CA20013CE13D8F920E003020D7A900346E054E4
:100CB2007FF0801D1235DBCEC313CE13D8F920E0AE
:100CC20003020D7A900346E04480F0A3E0F0900323
:100CD20046E0C313F0A3E013F0020D7A1235DBCE27
:100CE200C313CE13D8F930E03990034DE064097094
:100CF2002912355D54FBF51AE4F090034BE004F041
:100D0200E064067073F012355D54EF12355B54FDEA
:100D120012355B4420F51A020D7A1235521235BC97
:100D22008056AE19AF1A12356930E00E12355D44A5
:100D320004F51A90034BE4F0803EAE19AF1AEF7837
:100D420003CEC313CE13D8F9AE19AF1A30E0228EF8
:100D520019EF440412355B1235BC12355D4410F5AF
:100D62001A1235ABF090034BF0900348F0A3F080D9
:100D7200078E19EF4408F51AAE19AF1A1235693009
:100D8200E0249003481235A2D3E5F094BCEE94021D
:100D92004014900348E4F0A3F01235521235BC120D
:100DA200355D54EFF51A9003391235E39464403FF0
:100DB200AE19AF1AEF5401F4FFEF5401FFAC19ADB5
:100DC2001AED54FEFDECF519ED4FF51AB2B4E4F04C
:100DD2009002E41235A3C3E5F0943CEE9400400F78
:100DE2009002E4E4F0A3F01235EAEF4408F518901B
:100DF20003511235A2D3E5F0940AEE940050030297
:100E02000F68900351E4F0A3F090035312359B94C2
:100E1200144009E4F01235324420F5169002E6122D
:100E2200359B94014009E4F01235324404F51690E2
:100E3200034F12359B941E400DE4F0AE11AF128E9B
:100E420011EF4480F5129003541235A2C3E5F094D9
:100E5200B0EE9404402AAE17AF18EF7807CEC31352
:100E6200CE13D8F930E019900354E4F0A3F09002C5
:100E7200E104F01235EA4FF518900357E4F0A3F0BD
:100E8200AE17AF18EF30E0649003571235A2C3E5F6
:100E9200F0942CEE94014054900357E4F0A3F090A8
:100EA2000359F09002E8E0900359F09002E1E02447
:100EB200FE60151460202402702A900359E054FC4D
:100EC2001235C67402F08024900359E054F31235AF
:100ED200C67403F08016900359E054CF1235C674DD
:100EE20001F080001235EAEF54FEF518AE17AF1884
:100EF200EF30E03B123598943240179002E1E06403
:100F020002700F12356520E00990034C12351A1257
:100F120035B290034E12359B9432404A9002E1E082
:100F22006401704212356520E03C90034E8023122A
:100F320035989432400C12356520E00612351A12AB
:100F420035B290034E12359B9432401A1235652009
:100F5200E014E4F012353244401235304480123548
:100F62003054EF1235B4AE13AF14EF30E0259003D6
:100F72004A1235E39405401B12354A54EFF5141218
:100F820035324401F516E4F0900356F012353A5426
:100F9200FEF514AE13AF14EEC313EF1330E042901C
:100FA20003501235E394054038AE13AF14EF7803C3
:100FB200CEC313CE13D8F930E00E12354A4420F5D1
:100FC2001412353254FDF516900350E4F09002E20B
:100FD20012354954F7F51490035012354854FDF573
:010FE20014FA
:100FE300D007D006D005D004D000D0D0D082D08393
:050FF300D0F0D0E03257
:104A4F008FC48EC375C65A75C6A5227400254AF544
:084A5F008274003549F5832241
:063C18008E468F478D4827
:103C1E00E4F549F54AAF4AAE49124B1F124A5AEF24
:103C2E00F0054AE54A70020549C3E549940240E5AC
:103C3E00E4FFFE124D1BE4F549F54AAF4AAE4912B8
:103C4E004B1FEFF47048054AE54A70020549C3E57B
:103C5E0049940240E67F0A7E0012498A7400254785
:103C6E00F58274003546F583E548F0E4F549F54AEA
:103C7E00124A5AE0FDAF4AAE49124ADA054AE54AFF
:103C8E0070020549C3E549940240E57F01227F0099
:013C9E002203
:10000E00AE071FEE600DE4FCFD0DED70010C4C60B3
:03001E00EF80F67A
:0100210022BC
:0D4D0E00E4F5C7F5C5F5C675C380F5C422F0
:0F4B1F0075C78275C501124A4F00AFC2124D0E05
:014B2E002264
:104ADA0075C78275C5028FC48EC38DC2124A530030
:034AEA00024D0E6C
:0D4D1B0075C78275C503124A4F00024D0E88
:08000300C0C0C0C0C0C0C0C0F5
:1037EE0020232100080010A7625BF80322F800478F
:1037FE00B610181D1CC700B2EA2A001159813509EE
:06380E0006060405000C93
:104AAD00900368E0AB47AA48A94922C390036BE085
:074ABD009F90036AE09E22B6
:1047C700E490036AF0A3F0124AB85009E475F001C7
:1047D700121ABD80F2E490036AF0A3F0124AB850AF
:0A47E70009E475F001121ABD80F21A
:0147F10022A5
:104A3600000000000000000000000000000000EF81
:094A46001F70011E144E70E822DD
:074D8700C294C297D29422EE
:0A4D7D00124D877F887E130247C79E
:10454E00E4900372F0C297900371F0EF30E704D25B
:10455E00958002C295EF25E0FFD29700009003727E
:10456E00E025E0F0309603E004F0C29700009003DF
:0D457E0071E004F0E0B408D3900372E0FF98
:01458B00220D
:104B2F00C2942096FD7F3012454E2096FDD29422DE
:1049A800D2947F017E00124A36C2947F017E0012A3
:0E49B8004A36D2947F297E00124A36024B2FD7
:104B3F00C2942096FD12454EAF0512454ED29422D7
:0642ED008B468A47894858
:1042F300EF4440900370F0C2942096FD900370E069
:10430300FF12454EE490036FF090036FE0FFC395F7
:1043130049501AAB46AA47A9488F82758300121ADF
:0F43230007FF12454E90036FE004F080DCD29448
:014332002268
:0B4D3E00C2942096FD12454ED2942234
:1048CA00EF448090036AF0C2942096FD90036AE058
:1048DA00FF12454EE4FF12454E90036BEFF0D2945F
:0148EA0022AB
:0642A2008B4B8A4C894D94
:1042A800EF44C090036BF0C2942096FD90036BE03E
:1042B800FF12454EE490036AF090036AE0C3954EFE
:1042C8005020E4FF12454EAB4BAA4CA94D90036A0F
:1042D800E0F582758300EF121A4690036AE004F055
:0442E80080D7D29415
:0142EC0022AF
:1048EB00EF44C090036BF0C2942096FD90036BE0F5
:1048FB00FF12454EE4FF12454E90036AEFF0D2943F
:01490B002289
:10317800AD217F0C124B3FAD227F0B124B3FAD238D
:103188007F0C124B3FAD247F0D124B3FAD257F0EB8
:10319800124B3FAD267F0F124B3FAD277F10124BCE
:1031A8003FAD287F11124B3FAD297F12124B3FAD27
:1031B8002A7F13124B3FAD2B7F14124B3FAD2C7F50
:1031C8000A124B3FAD2D7F15124B3FAD2E7F2112BA
:1031D8004B3FAD2F7F22124B3FAD307F18124B3F34
:1031E800AD317F19124B3FAD327F1A124B3FAD33D1
:1031F8007F1B124B3FAD347F1C124B3FAD357F1DFB
:10320800124B3FAD367F23124B3FAD377F24124B15
:103218003FAD387F25124B3FAD397F26124B3FAD6E
:103228003A7F29124B3FAD3B7F2C124B3FAD3C7F81
:103238002D124B3FAD3D7F2E124B3FAD3EE4FF12AA
:103248004B3FAD3F7F02124B3FAD407F07124B3FD4
:10325800AD417F08124B3FAD427F09124B3FAD4352
:053268007F06024B3F50
:1049C600AC057F3F124B3F8C497F3F1242ED7F354E
:0E49D600124D3E30B3FD20B3FD7F3B024D3E3F
:054D99007F34024D3ED5
:063815008B448A45894640
:10381B00124AB11219EE25E025E0900369F07F34CE
:10382B00124D3E7F027E001247C730B3167F027ED9
:10383B00001247C7900369E014F0E0C3940150EA0B
:10384B007F00227F3B1248EBEF547F60567F3F1285
:10385B0048CA900368EFF0124AB11219EEFEEFD38B
:10386B009E5032AB44AA45A946900368E0F54E7FC3
:10387B003F1242A2124AAD121A347B017A037966C7
:10388B00754E027F3F1242A27F3A124D3E90036764
:10389B00E05480FF22124AAD121A347F3A124D3E89
:0538AB007F00227F00F8
:0138B00022F5
:104A9600124D7D1249A81231787BFF7A0079037591
:074AA60049087F3E0242EDCA
:1017320061742B776966695F636F6E663D736D6175
:10174200746B65792C777061325F6165732C6B37CE
:1017520065762D6D6167722D646C36320D0A0061FB
:10176200742B72656D6F746569703D706F6F6C2E4E
:101772006E74702E6F72670D0A0061742B72656D44
:101782006F7465706F72743D3132330D0A0061748B
:101792002B4765745F4D41433D3F0D0A0061742B39
:1017A200776966695F5363616E3D3F0D0A0061743C
:1017B2002B6F75745F7472616E733D300061742BB0
:1017C2006E65746D6F64653D320D0A0061742B6441
:1017D200686370643D300D0A0061742B6D6F64653F
:1017E2003D636C69656E740D0A0061742B6E6574DD
:1017F2006D6F64653D330D0A0061742B646863701C
:10180200643D310D0A0061742B64686370645F6922
:10181200703D3139322E3136382E31302E312C3165
:1018220039322E3136382E31302E3235342C323593
:10183200352E3235352E3235352E302C3139322E89
:101842003136382E31302E3132350D0A0061742B8B
:1018520064686370645F646E733D3139322E313671
:10186200382E31302E312C302E302E302E300D0AC3
:101872000061742B64686370645F74696D653D39DF
:101882003630300D0A0061742B776966695F636FC9
:101892006E663D4E5450207365727665722C777079
:1018A20061325F6165732C31323334353637380D2E
:1018B2000A0061742B64686370633D310D0A006134
:1018C200742B6E65745F69703D3139322E31363852
:1018D2002E31302E32332C3235352E3235352E32F2
:1018E20035352E302C3139322E3136382E31302EDC
:1018F20039380D0A0061742B6E65745F646E733D36
:10190200302E302E302E302C302E302E302E300D08
:101912000A0061742B72656D6F746570726F3D742D
:1019220063700D0A0061742B72656D6F746570725D
:101932006F3D7564700D0A0061742B6D6F64653DB7
:101942007365727665720D0A0061742B72656D6F34
:10195200746569703D3230322E3131322E33312E80
:101962003139370D0A0061742B72656D6F746570C1
:101972006F72743D3132330D0A0061742B74696DDC
:10198200656F75743D300D0A0061742B7561727458
:101992003D393630302C382C6E2C310D0A006174F2
:1019A2002B756172747061636B74696D656F7574A8
:1019B2003D3130300D0A0061742B756172747061B3
:1019C200636B6C656E3D3130300D0A0061742B6EB5
:1019D20065745F636F6D6D69743D310D0A006174EA
:0C19E2002B7265636F6E6E3D310D0A00C4
:0E4B5E007BFF7A1779327D2F1244CA7F012225
:0E4B6C007BFF7A1779B07D0F1244CA7F0122B9
:0E4B7A007BFF7A18794F7D241244CA7F0122F6
:0E4B88007BFF7A1879F77D1D1244CA7F012247
:0E4B96007BFF7A1779BF7D0F1244CA7F012280
:0E4BA4007BFF7A1779EC7D0F1244CA7F012245
:0E4BB2007BFF7A1879887D2C1244CA7F01227D
:0E4BC0007BFF7A1879B47D0D1244CA7F012262
:0E4BCE007BFF7A1779FB7D0D1244CA7F01220E
:0E4BDC007BFF7A1779CE7D0D1244CA7F01222D
:0E4BEA007BFF7A1879087D471244CA7F0122AA
:0E4BF8007BFF7A1879737D151244CA7F012263
:0E4C06007BFF7A1979CE7D121244CA7F0122FB
:0E4C14007BFF7A19794B7D1D1244CA7F012265
:0E4C22007BFF7A1979687D141244CA7F012243
:0E4C30007BFF7A1779617D1B1244CA7F012237
:0E4C3E007BFF7A17797C7D141244CA7F012215
:0E4C4C007BFF7A1979147D131244CA7F01226E
:0E4C5A007BFF7A1979277D131244CA7F01224D
:0E4C68007BFF7A19797C7D0F1244CA7F0122EE
:0E4C76007BFF7A19793A7D111244CA7F012220
:0E4C84007BFF7A1779DB7D111244CA7F012273
:0E4C92007BFF7A19798B7D151244CA7F0122AF
:0E4CA0007BFF7A1979B97D151244CA7F012273
:0E4CAE007BFF7A1979A07D191244CA7F01227A
:0E4CBC007BFF7A1979E07D0E1244CA7F012237
:0E4CCA007BFF7A1779907D0F1244CA7F01227A
:0E4CD8007BFF7A17799F7D111244CA7F01225B
:0E4CE6007BFF7A1879C17D361244CA7F012205
:1022A40012243D12243DC2C4C2C4C2C41223E5D2C6
:1022B400C4D2C4D2C41223E51223ED124B96EF709C
:1022C40002FF221223ED124BCEEF7002FF221223E3
:1022D400F5124B5EEF7002FF221223F5124BC0EF92
:1022E4007002FF221223FD124C5AEF7002FF2212D9
:1022F40023FD124C84EF7002FF22122405124C308D
:10230400EF7002FF22122405124C3EEF7002FF22EE
:1023140012240D124C68EF7002FF2212240D124C8D
:1023240092EF7002FF22122415124CAEEF7002FFDE
:1023340022122415124CA0EF7002FF2212241D1247
:102344004B96EF7002FF2212241D124BCEEF700247
:10235400FF22122425124B5EEF7002FF2212242565
:10236400124BC0EF7002FF2212242D124C5AEF7050
:1023740002FF2212242D124C84EF7002FF22122439
:1023840035124C30EF7002FF22122435124C3EEF0E
:102394007002FF22122456124C68EF7002FF2212C0
:1023A4002456124C92EF7002FF2212245E124CAE9D
:1023B400EF7002FF2212245E124CA0EF7002FF2283
:1023C4007F647E0012498A124C06EF7002FF227F5E
:1023D400647E0012498A124CBCEF7002FF227F0116
:1023E400227F647E0012498A227F647E0012498A19
:1023F400227F647E0012498A227F647E0012498A09
:10240400227F647E0012498A227F647E0012498AF8
:10241400227F647E0012498A227F647E0012498AE8
:10242400227F647E0012498A227F647E0012498AD8
:10243400227F647E0012498A227F0112486390023F
:10244400E37401F0FF7E0012498A7F0A7E0012497C
:102454008A227F647E0012498A227F647E001249A8
:022464008A22CA
:101C7F00121ECC121ECCC2C4C2C4C2C4121E44D285
:101C8F00C4D2C4D2C4121E44121E4C124BA4EF7005
:101C9F0002FF22121E4C124BCEEF7002FF22121EB9
:101CAF0054124BEAEF7002FF22121E54124B7AEFBE
:101CBF007002FF22121E5C124BF8EF7002FF22120D
:101CCF001E5C124BB2EF7002FF22121E64124BC049
:101CDF00EF7002FF22121E64124CE6EF7002FF2219
:101CEF00121E6C124B88EF7002FF22121E6C124CE8
:101CFF004CEF7002FF22121E74124C76EF7002FF2F
:101D0F0022121E74124C14EF7002FF22121E7C124C
:101D1F004C22EF7002FF22121E7C124C68EF7002F1
:101D2F00FF22121E84124C92EF7002FF22121E84A9
:101D3F00124CAEEF7002FF22121E8C124CA0EF70ED
:101D4F0002FF22121E8C124BA4EF7002FF22121EF2
:101D5F0094124BCEEF7002FF22121E94124BEAEF39
:101D6F007002FF22121E9C124B7AEF7002FF22129A
:101D7F001E9C124BF8EF7002FF22121EA4124BB2E0
:101D8F00EF7002FF22121EA4124BC0EF7002FF224F
:101D9F00121EAC124CE6EF7002FF22121EAC124B59
:101DAF0088EF7002FF22121EB4124C4CEF7002FF2C
:101DBF0022121EB4124C76EF7002FF22121EBC12BA
:101DCF004C14EF7002FF22121EBC124C22EF700255
:101DDF00FF22121EC4124C68EF7002FF22121EC4A3
:101DEF00124C92EF7002FF22121EE5124CAEEF70F2
:101DFF0002FF22121EE5124CA0EF7002FF22121EEC
:101E0F00ED124C06EF7002FF22121EED124CBCEFCA
:101E1F007002FF227F647E0012498A124C06EF7017
:101E2F0002FF227F647E0012498A124CBCEF7002BF
:101E3F00FF227F01227F647E0012498A227F647E07
:101E4F000012498A227F647E0012498A227F647EB3
:101E5F000012498A227F647E0012498A227F647EA3
:101E6F000012498A227F647E0012498A227F647E93
:101E7F000012498A227F647E0012498A227F647E83
:101E8F000012498A227F647E0012498A227F647E73
:101E9F000012498A227F647E0012498A227F647E63
:101EAF000012498A227F647E0012498A227F647E53
:101EBF000012498A227F647E0012498A227F011212
:101ECF0048639002E37401F0FF7E0012498A7F0A93
:101EDF007E0012498A227F647E0012498A227F6423
:061EEF007E0012498A2268
:104402002A2A2A2A2A2A2A003031323334353637E8
:1044120038392D26484C52534F464454514255493F
:1044220043502A2345003F065B4F666D7D077F6F31
:1044320040467638506D5C715E78737C3E06397307
:0344420000FF79FF
:083E24008B1C8A1D891E8D1FF5
:103E2C005380FD0000E490039DF090039DE0FFC3E0
:103E3C00951F5055AB1CAA1DA91E8F8275830012AD
:103E4C001A07FF90039FF0124A6790039FEFF0E46C
:103E5C0090039EF05380FB000090039FE0FF30E73F
:103E6C000543800180035380FE0000438004000062
:103E7C00EF25E090039FF090039EE004F0E0B4087F
:103E8C00D390039DE004F080A14380020000538096
:033E9C00FD000026
:013E9F002200
:104A6700E4FEEE90440A93B50707EE90442893FFBF
:074A7700220EBE1FED7F00BF
:014A7E002215
:1024660020202021210020202020A6A8A55C2020B5
:102476002020202020202020202020202120202055
:1024860020A5A2B1D12020202020202020202020FD
:10249600202020212020B577CA5E3A56312E3020E2
:1024A60020202020212020B36ECA5E3A56322E30DC
:1024B6002020202020212020AAECA96CA4C62E2EA4
:1024C6002E2E2E2E2020212020C0CBB4FA4E545082
:1024D6002E2E2E2E2E212020C0CBB4FA4750532E5E
:1024E6002E2E2E2E212020C0CBB4FA434F4D2E2E59
:1024F6002E2E2E210B000000000000000000000020
:1025060000000000000000000000000000000000C5
:10251600000000000000000000000000D6C81F56A2
:10252600D16872B0B074B86D2D3E202020202120D5
:10253600202020312EAEC9B6A1B7BD2120202020F3
:10254600322EA46CC1E9BADEB27A21AEC9B6A1B701
:10255600BD2D3E20212020312E4E545020202032E9
:102566002E47505320212020332E434F4D2020202C
:10257600342E4155544F21A46CC1E9BADEB27A2DEE
:102586003E212020312EB074B86DA46CC1E9202004
:10259600212020322EA752B4EEA46CC1E9202021BE
:1025A6002020322EA46CC1E9AAACBA41202021B069
:1025B60074B86DA46CC1E92D3E212020312EA66190
:1025C600A77D3A20202020212020322EB371B0543E
:1025D6003A205253343835212020322EB371B0546C
:1025E6003A205246343333212020322EB371B05470
:0825F6003A204F464620202147
:10405C0075A0A07BFF7A2479667D087F0322AE13BE
:10406C00AF14EEC4F854F0C8EFC4540F4822AE1786
:10407C00AF188E17EF227BFFE4FD7F0222AE15AF47
:10408C00168E15EF22AE17AF18EF7805227BFFE4E2
:10409C00FD7F0122E004F0E0C3940A22AE17AF18B2
:0B40AC00EF78022254FBF5187BFF2286
:0B4D49007BFF7A24796CE4FD023948FE
:0B4D54007BFF7A247983E4FD023948DC
:103DA6008D5C1225FEE55C24FE601214601614601C
:103DB6001814601F1460212405702980237F2E1299
:103DC6002778801C123E198017123E197F2E122763
:103DD60078800D123DF78008123DF77F2E12277866
:103DE6007F2E8009123E0C122778123E0C1227787D
:103DF600227F2E1227787F2E1227787F2E12277881
:103E06007F2E122778227F201227787F201227788C
:0E3E16007F20227F2E1227787F2E12277822FF
:104445007F207E001238B17BFF7A24799AE4FDFF44
:104455001239487A2479AB1240821239487BFF7AA7
:104465002479BCE4FD7F03123948E49003AAF07F68
:10447500F47E0112498A9003AAE004F0E0C3941483
:0244850040ED08
:014487002212
:10433300E49003A4F07F20FE1238B112407A1240B9
:10434300B07A2479CDE4FDFF123948E49003A5F057
:104353007FF47E0112498A9003A51240A040F11216
:1043630040A8CEC313CE13D8F97F0130E003024D2A
:0443730049124D544A
:014377002223
:10437800E49003A6F07F20FE1238B112407A124072
:10438800B07A2479DCE4FDFF123948E49003A7F001
:104398007FF47E0112498A9003A71240A040F112CF
:1043A80040A8CEC313CE13D8F97F0130E003024DE5
:0443B80049124D5405
:0143BC0022DE
:1043BD00E49003A8F07F20FE1238B112407A12402B
:1043CD00B07A2479EBE4FDFF123948E49003A9F0AB
:1043DD007FF47E0112498A9003A91240A040F11288
:1043ED0040A8CEC313CE13D8F97F0130E003024DA0
:0443FD0049124D54C0
:014401002298
:102CEE009002E3E014601614601824027014E4FFDE
:102CFE00124863E49002E3F07F01FE8014122E0E60
:102D0E00800F7F021248639002E37402F07F017E0F
:102D1E000012498AAE15AF16EF7807CEC313CE1345
:102D2E00D8F930E0319002E3E06401702912406A74
:102D3E0020E023124089547FF516122E0E12498A76
:102D4E00E4900356F07F01FE12498A7BFF7A2479C4
:102D5E00FA7D301244CA123061BF0403121C7F1276
:102D6E003061BF03031222A412406A30E03C120607
:102D7E000AE4900356F0900361F0900361E0FFC304
:102D8E009450501474E92FF582E43402F583E4F084
:102D9E00900361E004F080E2AE13AF148E13EF5493
:102DAE00EFF5141240894401F516AE15AF16EF7803
:102DBE0002CEC313CE13D8F930E04412408954FB2F
:102DCE00F516120FF8AE15AF16EF7805CEC313CE6B
:102DDE0013D8F930E00A1220DB12408954DFF516C1
:102DEE00AE11AF12EF7807CEC313CE13D8F930E081
:0F2DFE000E1235F1AE11AF128E11EF547FF51298
:102E0D00227F011248639002E37401F0FF7E0022DD
:103F18008F44124091CEC313CE13D8F930E0567BAC
:103F2800FF7A25792AE4FDFF1239487A2579351276
:103F380040821239487A257942124099123948E468
:103F4800F5A0E54424FE600C04701D7F89123F7EB5
:103F58007F9180077F91123F7E7F891225FE7FA186
:103F68001227787FF712277812405C1239481240DE
:103F78007A54DFF518221225FE7F201227787F2039
:043F88001227782262
:102F46008F44124091CEC313CE13D8F920E003026A
:102F56002FE77BFF7A257951E4FDFF1239487BFF85
:102F66007A25795BE4FD7F021239487A25796C125D
:102F76004099123948E4F5A0E54424FE601914602E
:102F86002A1460402403704C7F9012302A12303588
:102F96007F94123040800A7F901230157F94123051
:102FA6002A1230357F881230408008122FE87F8839
:102FB60012304B1230567F8C1225FE7F2012277856
:102FC6007F20800D122FE87F881230157F8C1230FB
:102FD6004B12305612405C12394812407A54DFF5D3
:102FE60018227F901225FE7F201227787F20122735
:102FF600787F017E0012498A7F941225FE7F201277
:1030060027787F201227787F017E0012498A2212B4
:1030160025FE7F201227787F201227787F017E00E9
:1030260012498A221225FE7FA11227787FF72212E3
:1030360027787F017E0012498A221225FE7F201200
:1030460027787F20221225FE7FA11227787FF7227C
:0B3056001227787F017E0012498A22B9
:1039DE008F44124091CEC313CE13D8F930E0657BDD
:1039EE00FF7A25797DE4FDFF1239487BFF7A257930
:1039FE0088E4FD7F021239487BFF7A2579A6E4FD23
:103A0E007F01123948E4F5A0E54424FE60120470EB
:103A1E00267F90123A5E123A537F88123A69800DD1
:103A2E007F90123A69123A537F88123A5E122778C3
:103A3E007F017E0012498A12405C12394812407A88
:103A4E0054DFF518221227787F017E0012498A2250
:103A5E001225FE7FA11227787FF7221225FE7F20E6
:063A6E001227787F2022E0
:102BAC008F44124091CEC313CE13D8F920E0030208
:102BBC002CAE7BFF7A2579B5E4FDFF1239487A25D6
:102BCC0079C07F02122CE6E4F5A07F951225FE90C9
:102BDC0002CBE075F064122CDA75F06484E5F075C4
:102BEC00F00A122CDA75F00A84E5F02430FF122C6E
:102BFC00CF9002CAE024FE600F1460142402701FF0
:102C0C007BFF7A2579CE800E7BFF7A2579DE8006D4
:102C1C007BFF7A2579EEE4FD7F01123948800F7A2B
:102C2C002579EE7F01122CE69002CA7403F0E4F5CC
:102C3C00A0E54424FE603604705BAE17AF1812405A
:102C4C006E7F9030E00C1225FE7FA11227787FF763
:102C5C00800A1225FE7FA11227787FAF122CCF7F1E
:102C6C00881225FE7F201227787F20801EAE17AF9A
:102C7C001812406E7F9030E00A122CAF122CC47FD9
:102C8C00F78008122CAF122CC47FAF1227787F016B
:102C9C007E0012498A12405C12394812407A54DF85
:102CAC00F518221225FE7F201227787F2012277814
:102CBC007F017E0012498A227F881225FE7FA11295
:102CCC002778221227787F017E0012498A228424D9
:102CDC0030FF1227789002CBE0227BFFE4FD123903
:022CEC0048227C
:014D9E0022F2
:1046050090037CE004F0E0C3940522AE19AF1AEFE5
:10461500780722EFF07F0A7E00225403FFE4F0A31F
:10462500EFF0227F00FEF0A3EFF0A3E0FDEDFF2207
:0B463500E4F0A3F0A3F0A3F0C2AF225A
:1034420090037C1246351234FC7FA61234F11246E8
:1034520010CEC313CE13D8F930E00712460540E66A
:1034620080397F181234F1124610CEC313CE13D80E
:10347200F930E00712460540CD8020123512123491
:10348200FC7FA71240B7123512124610CEC313CEDC
:1034920013D8F930E00A12460540AB7EFF7FFF22C7
:1034A2007F017E00124D2812471490037F124618A6
:1034B200124D28C20012350712471490038012469B
:1034C20018124D28D200123507124AFEE490037DED
:1034D200F0A3F0900380E090037D12461FE090037A
:0E34E2007D12462890037DEEF0A3EFF0D2AFEE
:1034F000221240B77F017E00124D2822124A7F7FA0
:10350000017E00124D282212492C7F0A7E00124DA6
:0A35100028227F017E00124D2822C0
:1033610090037C1246351234247FA612341912467A
:1033710010CEC313CE13D8F930E00A90037C124665
:103381000840E3803F7F0B123419124610CEC3135D
:10339100CE13D8F930E00A90037C12460840C7806A
:1033A1002312343A1234247FA71240B712343A124E
:1033B1004610CEC313CE13D8F930E00D90037C1222
:1033C100460840A27EFF7FFF227F017E00124D282A
:1033D10012471490037F124618124D28C20012346E
:1033E1002F124714900380124618124D28D2001252
:1033F100342F124AFEE490037DF0A3F0900380E0A5
:1034010090037D12461FE090037D12462890037DB4
:07341100EEF0A3EFF0D2AFD3
:10341800221240B77F017E00124D2822124A7F7F78
:10342800017E00124D282212492C7F0A7E00124D7F
:0A34380028227F017E00124D282299
:03000000023B02BE
:0C3B0200787FE4F6D8FD75815C023B4939
:1019EE00BB010689828A83E0225002E722BBFE02F7
:0919FE00E32289828A83E493222A
:101A0700BB010CE58229F582E5833AF583E0225094
:101A170006E92582F8E622BBFE06E92582F8E222DE
:0D1A2700E58229F582E5833AF583E49322F8
:101A3400BB010689828A83F0225002F722BBFE0191
:021A4400F3228B
:101A4600F8BB010DE58229F582E5833AF583E8F0D6
:101A5600225006E92582C8F622BBFE05E92582C882
:021A6600F2226A
:101A6800BC000BBE0029EF8DF084FFADF022E4CC62
:101A7800F875F008EF2FFFEE33FEEC33FCEE9DEC2B
:101A8800984005FCEE9DFE0FD5F0E9E4CEFD22ED71
:101A9800F8F5F0EE8420D21CFEADF075F008EF2FBB
:101AA800FFED33FD4007985006D5F0F222C398FDAC
:051AB8000FD5F0EA2249
:101ABD00C5F0F8A3E028F0C5F0F8E58215827002B4
:061ACD001583E038F02251
:101AD300A3F8E0C5F025F0F0E582158270021583C6
:061AE300E0C838F0E82223
:0D1AE900EF2BFFEE3AFEED39FDEC38FC224C
:101AF60075F008758200EF2FFFEE33FECD33CDCCA7
:101B060033CCC58233C5829BED9AEC99E582984029
:101B16000CF582EE9BFEED9AFDEC99FC0FD5F0D606
:101B2600E4CEFBE4CDFAE4CCF9A88222B800C1B930
:101B36000059BA002DEC8BF084CFCECDFCE5F0CB6E
:101B4600F97818EF2FFFEE33FEED33FDEC33FCEBA7
:101B560033FB10D703994004EB99FB0FD8E5E4F962
:101B6600FA227818EF2FFFEE33FEED33FDEC33FC4F
:101B7600C933C910D7059BE99A4007EC9BFCE99A43
:101B8600F90FD8E0E4C9FAE4CCFB2275F010EF2F88
:101B9600FFEE33FEED33FDCC33CCC833C810D70788
:101BA6009BEC9AE899400AED9BFDEC9AFCE899F8C3
:0E1BB6000FD5F0DAE4CDFBE4CCFAE4C8F92256
:101BC400E8600FEFC333FFEE33FEED33FDEC33FC7F
:031BD400D8F12223
:0C1BD700E0FCA3E0FDA3E0FEA3E0FF2281
:0C1BE300E0F8A3E0F9A3E0FAA3E0FB2285
:0C1BEF00ECF0A3EDF0A3EEF0A3EFF02269
:101BFB00A8828583F0D083D082121C12121C121281
:101C0B001C12121C12E473E493A3C583C5F0C583A5
:101C1B00C8C582C8F0A3C583C5F0C583C8C582C833
:011C2B002296
:101C2C00D083D082F8E4937012740193700DA3A347
:101C3C0093F8740193F5828883E47374029368605B
:061C4C00EFA3A3A380DF5B
:101C5200D083D082F8E4937012740193700DA3A321
:101C620093F8740193F5828883E473740293B5F058
:0D1C7200067403936860E9A3A3A3A380D8C0
:103B0E00024D8EE493A3F8E493A34003F68001F2F2
:103B1E0008DFF48029E493A3F85407240CC8C333B8
:103B2E00C4540F4420C8834004F456800146F6DF87
:103B3E00E4800B0102040810204080903776E47E6A
:103B4E00019360BCA3FF543F30E509541FFEE4937C
:103B5E00A360010ECF54C025E060A840B8E493A343
:103B6E00FAE493A3F8E493A3C8C582C8CAC583CA6E
:103B7E00F0A3C8C582C8CAC583CADFE9DEE780BE26
:0138140000B3
:00000001FF
