:06347000014D00014400C3
:10408D00FA90035CE0FEA3E0FF0211A8D3E51294C1
:10409D00BEE511940022D3E512946EE5119405222C
:0D448B0075A0600000C2871240EBD28722AE
:103FE4008F1075A0407F017E001240EBE51054074E
:103FF400F54DE54D4544F5807F017E001240EB759B
:03400400A0A02257
:103F73008F1075A0407F017E001240EBE5103333B4
:103F8300335438F544E544454DF5807F017E0012F6
:063F930040EB75A0A02226
:063C74008B5A8A5B895C9B
:103C7A0012112E90038AF09003897401F09003893F
:103C8A00E0FFC39D5020A3E0FEAB5AAA5BA95C8F5C
:103C9A0082758300121147FFEE6F90038AF090033A
:0B3CAA0089E004F080D790038AE0FF5F
:013CB50022EC
:1033E600EF24D0FEE4340790035CF0A3CEF0ED6446
:1033F600016003BD020E740C2DFD90035C74FFF595
:10340600F01211FDED75F002A4FFEB7A002FFFEA32
:1034160035F0FEED0475F003A475F005847C002FED
:10342600FFEC3EFE90035CE0FCA3E0FD2FFBEC3ED0
:10343600FAEDAE047802CEC313CE13D8F92BFBEA0D
:103446003E7C007D6412408DC3EB9FFBEA9E7C01AF
:103456007D9012408DEF2BFFEE3AFE7C007D071229
:0934660011A8A3ECF0A3EDF0FFA6
:01346F00223A
:102A7600E4F511F51243A00FF51175120AE51215CA
:102A860012AC11700215114C7003022B72122B75C9
:102A9600FF640F60E8EF24F5603A24FE605F14706F
:102AA60003022B3524076003022B6F751101751283
:102AB6002CE51245116012E512151270021511125D
:102AC6002B75640760EB7F042212409940037F0058
:102AD600227F042275110175122CE5124511601230
:102AE600E512151270021511122B81640B60EB7F33
:102AF600032212409940037F00227F0322751105AD
:102B0600751278E51245116012E51215127002155C
:102B160011122B81640D60EB7F02221240A3400349
:102B26007F0022E512451170037F06227F0222757F
:102B36001105751278E5124511601AE51215127025
:102B46000215117F017E001240EBE5A0540F640EC2
:102B560060E37F01221240A340037F0022E5124575
:0E2B66001170037F05227F01227F00227F0075
:102B7400227F017E001240EBE5A0540F227F017EEC
:092B8400001240EBE5A0540F2201
:1040EB00EF1FAA0670011E4A6013E4FCFDC3ED949A
:0D40FB001CEC940250EA0DBD00010C80F099
:014108002294
:0B44D900EF1FAC0670011E4C70F622B5
:1041D200202020212100B579B5A521A558C944B3D5
:0A41E2005DB86D2E2E2E2E2E2E211C
:10410900F548AE47AF488E47EF22F546AE45AF4674
:0E4119008E45EF22F54AAE49AF4A8E49EF229D
:0B44E4007F0A7E001240EB75BBFF2238
:1042B500438901758AFB758CDBD28CD2A9D2AF22DA
:10419C00759850438920EF6007E4F58BF58D800608
:0B41AC00758BFD758DFDD28ED2AC220C
:0D449800759A50759CB8438E1475AF0122C3
:102D920012410B54FE12410954FD12410954FB1217
:102DA200410954F712410954EF12410954DF12410B
:102DB2000954BF124109547FF54812411F440112C0
:102DC200411D440212411D54FBF54AAE4BAF4C8EDD
:102DD2004BEF54F7F54C12411F4404F54A124115CA
:102DE2004402124113440412411344081241134491
:102DF2001012411354DF12411354BF124113448085
:102E0200F546E4FF740B2FF582E43402F583E4F017
:102E1200746B2FF582E43402F583E4F00FBF5FE4B4
:102E2200AE4BAF4C8E4BEF4401F54C9002E6740171
:102E3200F09002E0F0E49002E7F07F01123FE490AC
:102E420002E27401F0FF7E001240EB12411F54F7C0
:092E5200F54A7F647E0002448B06
:103605007F017E001242C5BFAB0C7F027E001242D5
:10361500C5EF64CD606B7F207E001231097BFF7A98
:103625004179D8E4FDFF1231A07BFF7A4179DDE4D1
:10363500FD7F011231A07BFF7A4179D27D087F039E
:103645001231A07D03E4FFFE1234F9E4F510F51103
:10365500E511240AFFE43510FE7DFF1234F905114A
:10366500E51170020510C3942CE510940140E17D2D
:10367500AB7F017E001234F97DCD7F027E001234CE
:01368500F94B
:013686002221
:103F99001244E4E4FF12419C1244981242B5122DD6
:103FA90092E4F5A05380F775A0A0123DB512455BC8
:063FB90012424D02360524
:06455500123F990200462E
:103E610020202021210020202020AB4FA673A6A8CE
:103E7100A55C21202020202020202020202020207F
:103E810020202021000102030405060708090A0B6E
:043E91000C0D0E0FF7
:1034760041020A0141026A004102CB004102CA0030
:101A4100EF04F0E0C4540F7E00540F2485F582EEBC
:101A5100343EF583E493C454F0FF22E0FF04F074B4
:101A6100502FF582E43403F5837402F090034FE0C4
:101A7100FF04F074502FF582E43403F583222FF034
:101A8100E075F00A84C454F0FFE075F00A84EF2594
:101A9100F0F022746B255DF582E43402F583E004F5
:101AA100F0746B255DF582E43402F58322D3900353
:101AB1004DE0940190034CE0940022E0FFE4FCFD32
:101AC100FE90035512132F9003550213177B807854
:101AD10000900351121317121272AC00AD01AE0245
:101AE100AF03229002E9E0FFA3E0FDA3E0FB900237
:101AF100EDE0F513A3E0F514A3E0F51522E490025F
:101B0100E3F0A3F0AE4BAF4C8E4BEF22FC900355AC
:101B110012132F900351121317900355121323120E
:101B2100122990035102132FF583E024D0F074E6BB
:101B31002FF582E43402F583E022900359E024E397
:101B4100F582E43402F583E022F0E0C454F0F0E0E1
:101B5100FF22AE4BAF4CEEC4F854F0C8EFC4540FA3
:101B6100482274E82FF582E43402F583E0229003E1
:101B710059E024E5F582E43402F583E02290034A3A
:101B8100E4F0A32274E42FF582E43402F583E02229
:101B9100AE49AF4A8E49EF22E0540F903E85932221
:101BA10090034CE4F0A3229002CBE0240AFFE4333B
:101BB100FE22900359E0FF24E7F582E4340222C3B8
:101BC10090034DE09402227412F0A3E4F0A304F018
:101BD1002290034FE0FE04F074502E2274E22FF5A0
:101BE10082E43402F583E02290034CA3E0FF227BE0
:101BF100017A0279E8900343E0FD227B807A5179F2
:101C0100017800021272740B255DF582E43402F54D
:101C11008322F0900359E004F02290034AE0FEA3EE
:101C2100E08EF022900359E0FFC32290035102138A
:011C3100179B
:10004600E4900348F0A3F0A3F0A3F0A3F0A3F0120A
:100056002A76900348EFF090034AE07002A3E0602E
:100066002F900348E0600E121AFE4420F54C121B36
:100076000554F7F54CAE4BAF4CEF7803CEC313CE19
:1000860013D8F930E00A120543121B054420F54C3B
:10009600900348E0B4051290034AE07002A3E060C2
:1000A60008120543E4900348F0121C1B1213920039
:1000B600D500000111000101B50011023D00120238
:1000C600DC0121040F0122044C012300000491905D
:1000D6000348E064056003020491AE4BAF4CEF7831
:1000E60006CEC313CE13D8F930E003020491121BD7
:1000F6007E04121BCA121AFE54F7F54C12057744F9
:1001060020F54CE4900348F0020491900348E0FF88
:1001160064017003020491EF6402706A90034CE07C
:100126007004A3E06401704490034AF0A37411F0D4
:10013600E4FFFE1242C5EF24F4600E24DC601324B3
:1001460070601824BD701D801B121BA17402F00282
:1001560002A9121BA17403F00202A9121BA17404C6
:10016600F00202A9121BA104F00202A990034CE0BE
:100176007004A3E06402600302049190034AF0A3B2
:10018600121BC80202A9900348E0FFB4030B121A1F
:10019600AE5003020491020475EF64046003020486
:1001A60091121BC0121AB5400302049102048A90F0
:1001B6000348E0B40107121B7E040202E8900348DC
:1001C600E06406704590034CE0FEA3E0FFEE702964
:1001D600EF24FE600C1460111460162403701A805C
:1001E60018900347740CF080169003477430F08023
:1001F6000E90034774C0F080069003477403F09096
:100206000347E0FDE4FFFE020332900348E0FFB43B
:10021600030B121AAE5003020491020475EF640434
:100226006003020491C390034DE09404121AB54092
:100236000302049102048A900348E0B40107121BEA
:100246007E04020458900348E06402706090034CF8
:10025600E07004A3E06401703090034A04F0A374D4
:1002660021121B044410F54CE49002CAF090034C92
:10027600F0A304F0121B914404F54A7F207E00127D
:1002860031097F0A7E000203EC90034CE07004A360
:10029600E06402600302049190034A04F0A374230D
:1002A600121BCA121B914404F54A02041C9003480F
:1002B600E0FFB4030B121AAE500302049102047558
:1002C600EF64046003020491121BC0121AB54003C6
:1002D60002049102048A900348E0B40110121B7EC6
:1002E600741212055D121BA104F0020491900348DA
:1002F600E0FDB4022A121B535401F4FFEF5401C46B
:10030600F8540FC868FFE4C454F048FEAA4BAB4C3F
:10031600EB54EFFBEA4EF54BEB4FF54C020491ED37
:1003260064067030121BA89002CAE0FD1234F97AF6
:100336003E796712059C7BFF7A3E79617D087F03D3
:100346001231A07FE87E031240EB7A3E79741205E3
:100356009C020491900348E064037049121B5330D9
:10036600E00B121AAE500302049102047590034C7E
:10037600E07004A3E0640170159002CBE060041401
:10038600F080069002CB745FF0121BA88058900292
:10039600CAE064016006E014F00204919002CA7497
:1003A60003F0020491900348E064046003020491A0
:1003B600121B5330E00E121BC0121AB54003020482
:1003C6009102048A90034CE07004A3E0640170215A
:1003D6009002CBE0C3945F5005E004F08005E49002
:1003E60002CBF0121BA81242C59002CAEFF002041B
:1003F600919002CAE0C394035006E004F00204910F
:100406009002CA7401F0020491900348E0B401100E
:10041600121B7E121BC87F207E0012310902049136
:10042600900348E0FF64026062EFB40307121AAE5D
:100436004059803B900348E06404704F121BC01281
:100446001AB55047803E900348E0B40110121B7E57
:10045600741212055D121BA17402F0802E900348DF
:10046600E0FF64026025EFB4030B121AAE401C7461
:10047600FFF5F08013900348E0B4040F121BC0127E
:100486001AB55007E475F0011211FDE4900348F027
:10049600121C1B12139204BC000004C9000104D2F2
:1004A600001104DB001204E4012104ED012204F32F
:1004B600012300000539121B0554BFF54C122824F0
:1004C600020055121BE91237F9020055121BE912F8
:1004D600295B020055121BE9123236020055121B27
:1004E600E91226E2020055124565020055123580D2
:1004F600EF24FB60132404702B121B7E120591124D
:100506001B054420F54C8022E490034AF0A3F01228
:1005160005774420F54CE4900348121B044440F54B
:100526004C020055121B7E120591121BA17402F09B
:0D053600020055E490034AF0A3F0020055C6
:10054300E490034AF0A3F0AE49AF4A8E49EF440466
:10055300F54A7F207E0012310922F0A3E4F0A304C0
:10056300F0AE49AF4A8E49EF4404F54A7F207E003E
:1005730012310922AE49AF4A8E49EF4404F54A7F4E
:10058300207E00123109AE4BAF4C8E4BEF2274121A
:10059300F07F207E00123109227BFFE4FD7F0312EE
:0305A30031A02262
:1005A60090035112133B0000000090035512133BB9
:1005B600000000009002E2E060030208AB900343F3
:1005C600E0D394145003020891E0945040030208CB
:1005D600919002E8E064246003020891A3E0644776
:1005E6006003020891A3E064506003020891A3E04F
:1005F60064526003020891A3E0644D60030208910F
:10060600A3E064436003020891A3E0642C60030244
:100616000891120AB8121BF0123CB6120AD29003C5
:10062600597407F0121C25940D5010121B63C394C5
:10063600305003020891121C1480E99002EFE0C3C7
:1006460094334003020891A3E0C3943A400302089E
:1006560091A3E0C394364003020891A3E0C3943A01
:100666004003020891A3E0C394364003020891A315
:10067600E0C3943A40030208919003597407F012BC
:100686001C25940D500A121B6324D0121C1380EFF4
:100696009002EFE07010A3E0C39402500280159020
:1006A60002EF740180199002EFE0B4011FA3E0C3CA
:1006B60094025006E02408F080259002EF7402F0C0
:1006C600A3E0F404FFC374FE9FF080139002EFE0F2
:1006D600B4020CE4F0A3E0F404FFC374049FF090AA
:1006E60002EFE09002ED121B4A9002F0E0FEEF4EA0
:1006F6009002EDF09002F1E09002EE121B4A900299
:10070600F2E0FEEF4E9002EEF09002F3E09002EF80
:10071600121B4A9002F4E0FEEF4E9002EFF0E490D6
:10072600035AF0900343E0900359F0900359E0FF19
:10073600D39407401C121B63B42C0690035AE004A2
:10074600F090035AE064036008900359E014F080C7
:10075600DA121BB3F583E0C3943A40030208911200
:100766001B2FC3943A4003020891121B6FC39433A4
:100776004003020891121B85C3943240030208917C
:10078600121B3BC3943A4003020891121BDDC3942B
:10079600344003020891900359E0121BB8F583E038
:1007A600C394305003020891121B2FC39430500398
:1007B600020891121B6FC394305003020891121B5A
:1007C60085C394305003020891121B3BC3943050EA
:1007D60003020891121BDDC39430500302089112E4
:1007E6001BB3121B2924D0F074E52F121B7524D0DD
:1007F600F0121B8524D0F074E32F121B4124D0F095
:1008060074E22FF582E43402121B299002E9121BCE
:100816004A900359E0FE121BB8F583E0FDEF4D90B8
:1008260002E9F074E42E121B889002EA121B4A9029
:100836000359E0FE121B73FDEF4D9002EAF074E2DD
:100846002E121BE09002EB121B4A121B3BFEEF4ED0
:100856009002EBF09002E9E024D0FFA3E0FDA3E0D4
:10086600FB1233E690035BEFF0E0FF600A123DF106
:100876007F017E001240EB121AE41239EF121B912F
:1008860054EFF54A7F017E001240EB121B9154F79C
:10089600F54A120AD2E4FF123FE4E49002E2F07F46
:1008A60001FE020A819002E2E064016003020A8C02
:1008B600900310E0FF900308E06F6003020A849043
:1008C6000311E0FF900309E06F6003020A849003BE
:1008D60012E0FF90030AE06F6003020A849003139C
:1008E600E0FF90030BE06F6003020A84120AB8125D
:1008F6001BF0123CB67F0A7E001240EB90031012EA
:100906001ABC7818121304121AC2E4FFFEFDEC1288
:100916001AC2121B23900311121ABC781012130468
:10092600121AC2E4FFFEE4121B0D900312121ABC47
:100936007808121304121AC2E4FFE4FD121B0D908C
:100946000351121323900313E0FFE4FCFDFE121B78
:1009560020121C2CEF2480FFEE3470FEE43DFDE4F3
:100966003CFC121B237B3E7A8579E17801121C2C14
:10097600121272EF249CFFEE34FF90034FF0A3EFA8
:10098600F09002E9121A439002E9121B999002E9CB
:10099600121A7F7B3E7A8579E17801121AD27B6F33
:1009A6007A20792878001212729002EA121A41907F
:1009B60002EA121B999002EA121A7F7B6F7A20795B
:1009C60028121AD0121BFC9002EB121A419002EB6D
:1009D600121B992F9002EB121A807A517901121A82
:1009E600CEE47B107A0EF9F81212729002EDEF1235
:1009F6001A439002ED121B992F9002ED121A80E411
:100A06007B107A0EF9F8121AD2E47B3CFAF9F81246
:100A160012729002EEEF121A439002EE121B992FF9
:100A26009002EE121A80E47B3CFAF9F8121C2C12A2
:100A360012729002EFEB121A439002EF121B992FDB
:100A46009002EF121A807A3A7909121ACE121BFC1A
:100A5600EF04FF90035BF0123DF19002EFE004F02B
:100A6600121AE41239EF7F0A7E001240EB7F011260
:100A76003FE49002E27401F0FF7E000240EB121B9D
:100A86009154BFF54A229002E2E06402702390037B
:100A960059F0121C259408500A121B6324E0121CFC
:100AA6001380EF9002ECE0FF123DF1121AE41239C6
:010AB600EF50
:100AB700227F02123FE49002E27402F07F017E007F
:100AC7001240EB7F017E001240EB227F0A7E00126C
:030AD70040EB22CF
:101C3200E490034FF0055DE55DC3945F4003E4F576
:101C42005DE4900350F0E55D121BAC1242C59003B7
:101C52004FEFF024FE602204703B900351E4F0A3A6
:101C62007432F0900350E0FF123F737F02121DF0B6
:101C72007F027E001240EB80249003517401F0A396
:101C8200742CF09003507406F0AF5D1239987F64A3
:101C9200121DF08008900351E4F0A304F090035168
:101CA200E07002A3E07003021DD290035174FFF5AD
:101CB200F01211FD7F017E001240EB90034FE024F1
:101CC200FE60710470D7AE47AF48EF7805CEC313FC
:101CD200CE13D8F930E0C6AE47AF488E47EF54DF97
:101CE200F548121B914402F54A9002CCE0B4A5AD2E
:101CF200A3E0B45AA8A3E0B4A5A3A3E0645A709DDC
:101D0200A3E064A57097A3E0645A7091A3E064A570
:101D1200708BA3E0645A7085A3E0F47080A3E0B5F1
:101D22005D03021DBB121A94E0C394035003021D0B
:101D3200EF021DEA75130075140075150C7B017A0C
:101D42000279CC122FD5EF7003021C9F9002CCE0D7
:101D520064026003021C9FA3E064A56003021C9F4F
:101D6200A3E0645A6003021C9FA3E064A56003021F
:101D72001C9FA3E0645A6003021C9FA3E064A56059
:101D820003021C9FA3E0645A6003021C9FA3E06449
:101D9200A56003021C9FA3E0645A6003021C9FA378
:101DA200E0F46003021C9F9002D7E0640360030228
:101DB2001C9F9002D6E0B55D0C121AA2E4F0121C30
:101DC200077401F022121A94E0C39403401F801892
:101DD200900350E004F0E0C394065003021C481242
:0D1DE2001A94E0C394034005121C07E4F0BE
:0C1DEF00227E001240EBAF5D12399822FA
:102F1C00E490034FF0121A5C7420F07F06122FB26B
:102F2C00EFF07F05122FB2EFF07F04122FC7121AA9
:102F3C0077EFF07F031241B790036BEFF0E054078B
:102F4C00F0E0FF121BD2121A77EFF07F02122FC79C
:102F5C00121A77EFF07F011241B7121BD2121A77B7
:102F6C00EFF0E4FF1241B7EF547FFF121BD2121A9D
:102F7C0077EFF090034FE02450121A77E004121A06
:102F8C006C7401F090034F121A5C7403F07B017A9D
:102F9C000379507D0C1241457F647E001240EB7F1B
:062FAC000A7E000240EB6A
:102FB2001241B790034FE0FE04F074502EF582E404
:102FC2003403F583221241B790034FE0FE04F074FC
:032FD200502E225C
:103FBF0090020AE024FE600D14600D14600D146071
:103FCF000D2404800C02386D023A42023D78024201
:053FDF007B1232CC2230
:1042A40090034FE0FFC394102290034EF0E4A3F078
:0142B40022E7
:043109008E128F1380
:10310D00E4F5A074801242AD1242A4500512316C48
:10311D0080F6E490034FF074881242AD1242A45031
:10312D000512316C80F6E490034FF090034E7490CD
:10313D00F0E4A3F01242A4500512318680F6E4901B
:10314D00034FF090034E7498F0E4A3F01242A45094
:0E315D000512318680F6E490034FF075A0A0B5
:10316B002290034EE02FFF1221557F201222CF7F9A
:10317B00201222CF90034FE004F02290034EE02F59
:10318B00FF1221557F201222CF7F201222CF9003D6
:05319B004FE004F022EA
:103EF2008D5EE4F5A0122155E55E75F00A8424304A
:103F0200FF1222CFE55E75F00A84E5F02430FF123D
:0B3F120022CF7F3A1222CF75A0A02220
:0A31A0008F128D138B148A15891607
:1031AA00E4F5A07F01FE1240EBE512D3940340033D
:1031BA00751203E513D394084003751308E5121436
:1031CA0060101460131460162403701AE513248027
:1031DA008010E5132488800AE51324908004E513FF
:1031EA002498900366F0900366E02513F0E0FF123E
:1031FA0021558024AB14AA15A91612112E90036525
:10320A00F06421601C74012516F516E43515F515D0
:10321A00900365E0FF1222CF7F017E001240EB800F
:0B322A00D37F017E001240EB75A0A0D6
:013235002276
:103DB500E4F5A07F0AFE1240EB123DE1123DE17FE2
:103DC5000C123DEA7F01123DEA7F06122155123E93
:103DD500C47F207E0012310975A0A0227F301221F8
:0C3DE50055123EC422122155123EC42289
:103EC400E4900347F0E4900348F0E4900349F09051
:103ED4000349E004F0E0B433F6900348E004F0E072
:0D3EE400B440E7900347E004F0E0B403D8D9
:013EF10022AE
:0100220022BB
:0A4526007F301221557F0802215555
:0A4530007F361221557F300221551D
:0A453A007F341221557F3002215515
:1038DB00E490038CF012393390038B123920C2829F
:1038EB0012392B1239330012392B90038C123920D9
:1038FB00C28290038BE054F0FFF0A3E0C4540FF0AE
:10390B00540FF04F90038BF07F017E001244D9903F
:04391B00038BE0FF3B
:10391F0022E580F07F017E001244D9227F017E00D4
:0E392F001244D922123781D280D281D2822254
:0222CF008F1767
:1022D100E4900367F0123781E51754F0900367F03B
:1022E10012136C231800231C1023222023283023CF
:1022F1003240233650233C60234270234C802350CC
:10230100902356A0235CB02366C0236AD02370E0DB
:102311002376F00000237EC2848002D284C28580AD
:102321000AC284D2858004D284D285C286C28780C3
:102331004CC2848002D284C285800AC284D2858044
:1023410004D284D285D286C2878032C2848002D2EE
:1023510084C285800AC284D2858004D284D285C297
:1023610086D2878018C2848002D284C285800AC244
:1023710084D2858004D284D285D286D28712243930
:10238100C2827F147E001244D9E517C454F0900331
:1023910067F054F0F012136C23CD0023D11023D732
:1023A1002023DD3023E74023EB5023F16023F77036
:1023B100240180240590240BA02411B0241BC024E7
:1023C1001FD02425E0242BF000002433C284800296
:1023D100D284C285800AC284D2858004D284D28507
:1023E100C286C287804CC2848002D284C285800AA0
:1023F100C284D2858004D284D285D286C2878032BB
:10240100C2848002D284C285800AC284D2858004BB
:10241100D284D285C286D2878018C2848002D284B7
:10242100C285800AC284D2858004D284D285D286B4
:07243100D287122439C28298
:0F24380022D280C281D2827F147E001244D92228
:022155008F17E2
:10215700E4900367F0123781E51754F0900367F0B6
:1021670012136C21A20021A610219E2021AC302140
:10217700B64021BA5021C06021C67021D08021D439
:102187009021DAA021E0B021EAC021EED021F4E0CD
:1021970021FAF000002202C284800CC2848002D29D
:1021A70084C2858004D284D285C286C287804CC20D
:1021B700848002D284C285800AC284D2858004D2F8
:1021C70084D285D286C2878032C2848002D284C2FA
:1021D70085800AC284D2858004D284D285C286D201
:1021E700878018C2848002D284C285800AC284D2C2
:1021F700858004D284D285D286D2877F017E001261
:1022070044D91222C1C2827F017E001244D9E51748
:10221700C454F0900367F012136C22550022591032
:10222700225F20226530226F40227350227960227C
:102237007F70228980228D902293A02299B022A3B9
:10224700C022A7D022ADE022B3F0000022BBC28497
:102257008002D284C285800AC284D2858004D28457
:10226700D285C286C287804CC2848002D284C2854E
:10227700800AC284D2858004D284D285D286C2875E
:102287008032C2848002D284C285800AC284D28509
:102297008004D284D285C286D2878018C284800205
:1022A700D284C285800AC284D2858004D284D28532
:0922B700D286D2871222C1C28234
:0F22C00022C280C281D2827F017E001244D922C5
:10378100E4900369F0A3F0900368F01237DD900331
:10379100691237EEC28200007F017E001244D91205
:1037A10037DD90036A1237EEC282000090036AE0AF
:1037B100C4540FF0540FFFF0900369E054F0F04F40
:1037C100F07F017E001244D9900369E030E70C904C
:0B37D1000368E004F0E0C3941440B073
:1037DC00227580F0C280D281D2827F017E00124499
:0D37EC00D922E580F07F017E001244D92231
:1025A0004E54503A210074696D652E7374647469D9
:1025B0006D652E676F762E74772021004750533A51
:1025C00020207365617263682E2E2E20202020212A
:1025D00000434F4D3A20205553422021004155548D
:1025E0004F3A206465746563742E2E2E21002020DE
:1025F000202121002020A46CC4C1B373BD75AAACF6
:10260000BA41202021B3C9B9A620202020202020B3
:1026100020202020202100CAA7B0DC20202020205C
:10262000202020202020202100B3F5CABCBBAF2EE3
:102630002E2E2E2E2E202020202100D3B2CCE5B02D
:10264000E6B1BE3A2056312E3020202100C8EDCC14
:10265000E5B0E6B1BE3A2056312E3020202100BC34
:10266000ECB2E24E54502E2E2E2E2E2E2020202163
:1026700000BCECB2E24750532E2E2E2E2E2E2020E0
:10268000202100BCECB2E2434F4D2E2E2E2E2E2EDA
:102690002020202100202020202020C5E4D6C32097
:1026A0002020202020210020312ED7D3D6D3B9DC02
:1026B000C0ED2020202020210020322ECAB1BCE411
:1026C000D4B4202020202020202100200020002021
:1026D000002020A440A447A454A57CA4ADA4BBA47E
:0226E000E921EE
:102B8D00900385EFF0E0C4540F2430FF90036CE008
:102B9D00FE04F0746F2EF582E43403F583EFF090AC
:102BAD000385E0540F243090036CFFE0FE04F074B5
:102BBD006F2EF582E43403F583EFF022E0540F24F9
:102BCD0030FF900350E0FE04F074512EF582E43492
:102BDD0003F583EFF0900350E0FF04F074512FF5EF
:102BED0082E43403F58322E490036CF0E0FF04F0FB
:102BFD00746F2FF582E43403F5837432F090036C17
:102C0D00E0FF04F0746F2FF582E43403F58322E0C6
:102C1D00C4540F2430FF900350E0FE04F074512E85
:102C2D002290036BEFF0E0C4540F2430FFA3227504
:102C3D00A0607B017A03796F2290036BEFF0E05473
:102C4D0007F0E0227421F07B017A037951E4FD2233
:102C5D00900383EFF0E022E511240AFEE4339003A4
:102C6D004EF0A3CEF022740B2511F582E43402F55B
:102C7D0083E022AE4BAF4C8E4BEF22E0241054F08C
:102C8D00F022900384EFF0E02290036EEFF0E0224B
:0D44A500D2C0D2C10000C2C00000C2C122BE
:0B44EF00C2C0D2C10000D2C0000022F9
:0D44B200A20092C0D2C10000C2C1000022D1
:0B44FA00D2C10000A2C0C2C10000221D
:0C3E9500C2AF1244A57FDE123EA1AF04B4
:103EA100E4FEFDEF25E0FF92C0D2C10000C2C100D7
:103EB100000DBD08EE1244FA5008AF060EEF941E35
:023EC10040F3CC
:013EC30022DC
:10418000E4FFD2C0FEEF25E0FFD2C10000A2C0E4F0
:0B419000334207C2C100000EBE08EA67
:01419B002201
:10420500AC05AB07123E95AF03123EA11244EFD2A7
:08421500AF7F057E000240EBC3
:0241B700AC0753
:1041B900123E951244A57FDF123EA1124180D20022
:0841C9001244B21244EFD2AF20
:0141D10022CB
:103DF1008F107F031241B790036BEFF07D077F4077
:103E01001242057F017E001240EBE51090036BB476
:103E1100FF05E044088009E054F8F0E0440845104B
:093E2100F0E0FF7D0312420522CE
:1039EF008D118B127D06123A2C7D05AF11123A2CD8
:1039FF007D04AF12123A377D02AF13123A377D01B1
:103A0F00AF141242057F017E001240EBE515448092
:103A1F00FFE4FD1242057F017E000240EB124205DA
:103A2F007F017E001240EB221242057F017E0012C1
:033A3F0040EB2237
:1040AD00900385E0B49903E4F022900385E0540F6A
:0F40BD00FFBF0904122C8822900385E004F02233
:10402A00900383E024EE600B2409700E90038374DE
:10403A0010F0229003837401F022900383E004F0CD
:01404A002253
:103E2A0090036BE024F7601324F0601624F0601905
:103E3A0024F8701C90036B7401F02290036B7410C9
:103E4A00F02290036B7420F02290036B7430F022FE
:073E5A0090036BE004F0226D
:103F1D00900384E024F7601524F0600A24F67014F1
:103F2D00E4900384F0229003847420F022900384A3
:0B3F3D007410F022900384E004F022D6
:1040CC0090036EE0B45903E4F02290036EE0540FB9
:0F40DC00FFBF0904122C882290036EE004F0222B
:1040070090036DE0547FF0E0B45903E4F02290038D
:104017006DE0540FFFBF0904122C882290036DE056
:0340270004F02280
:05455B007FFF023DF1AD
:10184D00E4900350F0122BE57432F0122BE2743059
:10185D00F07F061241B7900385EFF0122C1C122B6E
:10186D00ECEFF0900385122BC974A6F0122BE274E5
:10187D007EF0122BE27420F0122BE27420F07F0523
:10188D001241B7122C5DD3941240037412F09003E1
:10189D0083122C1C122BECEFF0900383122BC974C6
:1018AD00A4F0122BE274EBF07F041241B790036B9E
:1018BD00EFF0E0D3943140037431F090036B122CB0
:1018CD001C122BECEFF090036B122BC974A4F012C9
:1018DD002BE274E9F0122BE2122C51FF1231A0E42D
:1018ED00900350F0AE45AF46EEC313EF1330E00852
:1018FD00122BE5742BF08006122BE27420F07F0280
:10190D001241B7122C8FD3942340037423F090030C
:10191D0084122C1C122BECEFF0900384122BC97443
:10192D003AF07F011241B7122C96D39459400374AB
:10193D0059F090036E122C1C122BECEFF090036EED
:10194D00122BC9743AF0E4FF1241B7EF547F9003A4
:10195D006DF0E0D3945940037459F090036D122C3F
:10196D001C122BECEFF090036D122BC97420F012AA
:10197D002BE274ACF0122BE27450F0122BE274B423
:10198D00F0122BE274C1F07F031241B7122C4625E1
:10199D00E0F0E09026D193122C22122BECEFF09078
:1019AD00036BE09026D293122BCE122C517F021294
:1019BD0031A0E490034FF090034FE0FFC39410501B
:1019CD000E122BE97420F090034FE004F080E81222
:1019DD002BE9122C517F011231A0E4900350F0FF3E
:1019ED00FE1242C5EF24F4602124DC6025247060D2
:1019FD002924BD70327BFF7A2579A0E4FD7F011289
:101A0D0031A07BFF7A2579A680167BFF7A2579BCDC
:101A1D00800E7BFF7A2579D180067BFF7A2579DDD3
:101A2D00E4FD7F031231A07BFF7A2579EE7D087FDF
:041A3D00030231A0CF
:020ADA008F117A
:100ADC00E490034EF0A3F0A3F07BFF7A2579F4FDAC
:100AEC00FF1231A0E4F5A07F90120D3B122C641282
:100AFC002C73601E120CFFBF01047F528008120C75
:100B0C00FFBF02097F461222CF7F4F801E120DE4D9
:100B1C008019120D0BBF0105120E32800E120D0B37
:100B2C00BF0205120E3A8003120DE41222CF120DF1
:100B3C006F7F88120D3B122C73601E120D17BF01B4
:100B4C00047F528008120D17BF02097F461222CF74
:100B5C007F4F801E120E028019120D23BF01051249
:100B6C000E32800E120D23BF0205120E3A800312B4
:100B7C000E021222CF120D6F7F98122155120DA763
:100B8C00601E120D2FBF01047F528008120D2FBF63
:100B9C0002097F461222CF7F4F801E120E1680193B
:100BAC00120D63BF0105120E4A800E120D63BF02B7
:100BBC0005120E528003120E161222CF7F5D1222E6
:100BCC00CF120E1E1222CF0511122C647F94120C20
:100BDC00C6601E120D8FBF01047F528008120D8F4C
:100BEC00BF02097F461222CF7F4F801E120E1E803D
:100BFC0019120D9BBF0105120E4A800E120D9BBFE0
:100C0C000205120E528003120E421222CF120DEC6C
:100C1C007F8C120CC6601E120DD8BF01047F52804F
:100C2C0008120DD8BF02097F461222CF7F4F8026B3
:100C3C00120E428021120E0ABF01097F521222CFDE
:100C4C007F588012120E0ABF02097F461222CF7FF4
:100C5C00588003120E5A1222CF120DEC7F9C1221D7
:100C6C00557F201222CF120DA7601E120E26BF0137
:100C7C00047F528008120E26BF02097F461222CF33
:100C8C007F4F802A120E5A8025120E62BF01097FF7
:100C9C00521222CF7F588016120E62BF02097F4675
:100CAC001222CF7F5880077F201222CF7F20122262
:090CBC00CF7F5D1222CF75A0A0CC
:100CC500221221557F201222CFE51175F00A8424C6
:100CD50030FF1222CFE51175F00A84E5F02430FFCC
:100CE5001222CF7F3A1222CF7F5B1222CF740B25BF
:100CF50011F582E43402F583E02290034EE0FEA371
:100D0500E0FF1242C52290034EE0FEA3E0FF12422F
:100D1500C52290034EE0FEA3E0FF1242C5229003D8
:100D25004EE0FEA3E0FF1242C52290034EE0FEA373
:100D3500E0FF1242C522122155E51175F00A8424FF
:100D450030FF1222CFE51175F00A84E5F02430FF5B
:100D55001222CF7F3A1222CF7F5B1222CF2290033D
:100D65004EE0FEA3E0FF1242C5227F5D1222CF7F37
:100D7500201222CF7F201222CF0511E511240AFE71
:100D8500E43390034EF0A3CEF02290034EE0FEA391
:100D9500E0FF1242C52290034EE0FEA3E0FF12429F
:100DA500C522E51175F00A842430FF1222CFE51122
:100DB50075F00A84E5F02430FF1222CF7F3A122223
:100DC500CF7F5B1222CF740B2511F582E43402F537
:100DD50083E02290034EE0FEA3E0FF1242C5227F8E
:100DE500201222CF7F20227F5D1222CF0511E5112F
:100DF500240AFEE43390034EF0A3CEF0227F2012A6
:100E050022CF7F202290034EE0FEA3E0FF1242C5D1
:100E1500227F201222CF7F20227F201222CF7F2007
:100E25002290034EE0FEA3E0FF1242C5227F52123C
:100E350022CF7F58227F461222CF7F58227F201251
:100E450022CF7F20227F521222CF7F58227F461247
:100E550022CF7F58227F201222CF7F202290034E5F
:090E6500E0FEA3E0FF1242C522E9
:10358000E4F510FDAF10120ADA122A76AD07ED60ED
:103590000EE49002E3F0A3F0122C8054F7F54CAE49
:1035A0004BAF4CEF7803CEC313CE13D8F930E00203
:1035B0008019ED24FD601E14602B14600E2404702D
:1035C000C3122C8054DFF54C7F0122122C8054DF73
:1035D000F54C7F052274062510F510C3945F401743
:1035E000E4F5108012E510C39406400874FA251023
:1035F000F510800375105AAE45AF468E45EF444036
:05360000F546023584CF
:1032CC00122BF47430F07F061241B7122B8D7F0550
:1032DC001241B7122C5DC4122BB0900383122BAF8A
:1032EC007F041241B790036BEFF0E0C4540F24300D
:1032FC00A3122BB790036BE0122C35122BB87F0363
:10330C001241B7122C46FFA3122BB87F021241B701
:10331C00122C8FC4122BB0900384122BAF7F01128E
:10332C0041B7122C96C4122BB090036E122BAFE443
:10333C00FF1241B7EF547F90036DF0E0C4122BB035
:0E334C0090036D122BAF122C3C7D0F02370543
:10386D00122BF47430F07F061241B7122B8D7F05A9
:10387D001241B7122C5DC4122BB0900383122BAFE3
:10388D007F041241B7122C2E122BB890036BE0124D
:10389D002C35122BB87F031241B7122C46FFA31201
:1038AD002BB87F021241B7122C8FC4122BB090038C
:1038BD0084122BAF7F011241B7122C96C4122BB07C
:0E38CD0090036E122BAF122C3C7D0D023705BE
:103A4200122BF47430F07F061241B7122B8D7F05D2
:103A52001241B7122C5DC4122BB0900383122BAF0C
:103A62007F041241B7122C2E122BB890036BE01276
:103A72002C35122BB87F031241B7122C462430FF8B
:0C3A8200A3122BB8122C3C7D0902370562
:103D7800122BF47430F07F061241B7122B8D7F0599
:103D88001241B7122C5DC4122BB0900383122BAFD3
:103D98007F041241B7122C2E122BB890036BE0123D
:0D3DA8002C35122BB8122C3C7D080237057B
:10427B00122BF47430F07F061241B7122B8D122CD7
:06428B003C7D0402370532
:103486004102E200410343004102E10042033E00E3
:10349600004103390041033D0041033C0041033A2A
:1034A600004103400041033B004102E50042034165
:1034B60000004102E0014102E6014102E700420349
:0C34C600440000410338004202E3000013
:10307100E4F0AE49AF4A8E49EF4410F54AAE49AF8C
:103081004A8E49EF54BFF54AAE49AF4A8E49EF2205
:10309100AE47AF488E47EF54FBF548900339E4F053
:1030A100AE47AF488E47EF22AE47AF48EEC4F85463
:1030B100F0C8EFC4540F4822900343E0FF04F074BA
:1030C100E82FF582E43402F5832274A5F0A3745A43
:1030D100F0A374A5F0A3745AF0A32290033AE0FF81
:1030E10004F0EFD322547FF54A900343E4F022F039
:1030F1009002E7F09002E022E475F001121213FE53
:0831010022E0FF04F0EFC322FD
:083CB6008B108A1189128D1395
:103CBE007F017E001240EBE4F514E514C39513501A
:103CCE0017AB10AA11A91285148275830012114721
:103CDE00FF120026051480E2AE47AF48EF7806CEFD
:093CEE00C313CE13D8F920E0EF56
:013CF70022AA
:083CF8008B1B8A1C891D8D1E27
:103D00007F017E001240EBE4F51FE51FC3951E50B6
:103D100017AB1BAA1CA91D851F82758300121147B2
:103D2000FF124163051F80E2AE47AF48EF7807CE30
:093D3000C313CE13D8F920E0EF13
:013D39002267
:10002600AD07AE47AF48EF7806CEC313CE13D8F967
:0D00360020E0EF1230A14440F5488D9922E2
:10416300AD07AE47AF48EF7807CEC313CE13D8F9E8
:0D41730020E0EF1230A14480F5488D9B2222
:023998008F108E
:10399A007F017E001240EB9002CC7402F0A3123039
:1039AA00CB1230CB74FFF0A3E510F0A37403F07BC5
:1039BA00017A0279CC7D0C1241457F017E001240CA
:1039CA00EBE4900353F0900353E0FFC3940C5014BC
:1039DA0074CC2FF582E43402F583E4F0900353E0CB
:0439EA0004F080E283
:0139EE0022B6
:030023000224476D
:10244700C0E0C083C082C0D075D000C000C005C046
:0324570006C007B5
:10245A00C2AF43C110209803022581C298AD99905A
:10246A000339E4F0AE49AF4AEF20E0030225819038
:10247A0002E2E07053AE49AF4A1230AD30E049BDD6
:10248A002419AE49AF4AEF7803CEC313CE13D8F955
:10249A0020E00812308944081230E8AE49AF4AEF0A
:1024AA007803CEC313CE13D8F920E0030225811294
:1024BA0030B9EDF0640A6003022581900343E024F9
:1024CA00E81230C3E4F080299002E2E0640170323D
:1024DA00AE49AF4AEF7806CEC313CE13D8F930E02F
:1024EA00211230B9EDF0900343E064306003022515
:1024FA00811230A14410F54812308954FEF54A027F
:10250A0025819002E2E06402706DAE47AF48EF7831
:10251A0002CEC313CE13D8F930E0461230B9EDF02B
:10252A00900343E0640B704FE024E7F582E4340241
:10253A00F583E0AE47AF48B403108E47EF4410F579
:10254A004812308954FEF54A800E8E47EF54EFF553
:10255A00481230894401F54A12309154FEF54880F8
:10256A0016BD02131230A14401F5481230A14404E9
:10257A00F548900343E4F0309909C2991230A15406
:05258A00BFF548D2AFCF
:10258F00D007D006D005D000D0D0D082D083D0E0F5
:01259F003209
:03004300022E5B2F
:0B2E5B00C0E0C083C082C0D075D0086A
:102E6600C2AF43C110E59A20E003022F02539AFE37
:102E7600AD9B90033DE4F0AE47AF48EF7803CEC379
:102E860013CE13D8F930E05E9002E1E0FF04F0744F
:102E9600CC2FF582E43402F583EDF09002E1E06494
:102EA6000B7059E024CBF582E43402F583E0AE479B
:102EB600AF48B403108E47EF4420F54812308954CA
:102EC600FDF54A800E8E47EF54DFF54812308944EF
:102ED60002F54A1230A154F7F54890033D12309F8F
:102EE60054FDF5488016BD02131230A14402F54880
:102EF6001230A14408F5489002E1E4F0E59A30E189
:0D2F06000A539AFD1230A1547FF548D2AF56
:092F1300D0D0D082D083D0E0328E
:03000B00021635A5
:10163500C0E0C0F0C083C082C0D075D000C000C07B
:0316450006C007D5
:1016480043C110758AFB758CDB9003381231029404
:10165800644026B2B4E4F09002E31230FAC3E5F035
:10166800943CEE940040129002E3E4F0A3F0AE4BF9
:10167800AF4C8E4BEF4408F54C90033E1230F9D333
:10168800E5F0940AEE940050030217C190033EE47B
:10169800F0A3F09003401230DF94144009E4F012F4
:1016A80030894420F54A9002E51230DF9401400960
:1016B800E4F01230894404F54A90033C1230DF9478
:1016C8001E400DE4F0AE45AF468E45EF4480F5462A
:1016D800AE4BAF4CEF30E0679003441230F9C3E5EE
:1016E800F0942CEE94014057900344E4F0A3F0905A
:1016F8000346F09002E7E0900346F09002E0E02411
:10170800FE60151460202402702A900346E054FC01
:101718001230F07402F08027900346E054F3123040
:10172800F07403F08019900346E054CF1230F0743F
:1017380001F08000AE4BAF4C8E4BEF54FEF54CAE33
:101748004BAF4CEF30E03B1230DC94324017900244
:10175800E0E06402700F1230A920E00990033A1209
:1017680030711230E690033B1230DF9432404A90D9
:1017780002E0E0640170421230A920E03C90033B93
:1017880080231230DC9432400C1230A920E006127B
:1017980030711230E690033B1230DF9432401A1257
:1017A80030A920E014E4F012308944401230874414
:1017B8008012308754EF1230E8AE47AF48EF30E080
:1017C800259003391231029405401B1230A154EFC1
:1017D800F5481230894401F54AE4F0900343F012C9
:1017E800309154FEF548AE47AF48EEC313EF1330BF
:1017F800E04290033D12310294054038AE47AF48AD
:10180800EF7803CEC313CE13D8F930E00E1230A10F
:101818004420F54812308954FDF54A90033DE4F020
:101828009002E11230A054F7F54890033D12309F22
:0418380054FDF5481E
:10183C00D007D006D000D0D0D082D083D0F0D0E06A
:01184C003269
:10421D008FC48EC375C65A75C6A52274002516F5B2
:08422D008274003515F58322AF
:0634F9008E128F138D14EA
:1034FF00E4F515F516AF16AE151242C5124228EFB8
:10350F00F00516E51670020515C3E515940240E5A2
:10351F00E4FFFE1244CCE4F515F516AF16AE151206
:10352F0042C5EFF470480516E51670020515C3E5A0
:10353F0015940240E67F0A7E001240EB74002513BB
:10354F00F58274003512F583E514F0E4F515F516E0
:10355F00124228E0FDAF16AE151242910516E51680
:10356F0070020515C3E515940240E57F01227F0027
:01357F002229
:10000E00AE071FEE600DE4FCFD0DED70010C4C60B3
:03001E00EF80F67A
:0100210022BC
:0D44BF00E4F5C7F5C5F5C675C380F5C42248
:0F42C50075C78275C50112421D00AFC21244BFFA
:0142D40022C7
:1042910075C78275C5028FC48EC38DC212422100BB
:0342A1000244BF15
:0D44CC0075C78275C50312421D000244BF72
:08000300C0C0C0C0C0C0C0C0F5
:1034D20020232100080010A7625BF80322F80047AE
:1034E200B610181D1CC700B2EA2A0011598135090D
:0634F20006060405000CB3
:10426400900355E0AB13AA14A91522C3900358E098
:074274009F900357E09E221A
:103F4800E4900357F0A3F012426F5009E475F001B2
:103F58001211FD80F2E4900357F0A3F012426F5063
:0A3F680009E475F0011211FD80F26A
:013F7200222C
:1041EC00000000000000000000000000000000EFD4
:0941FC001F70011E144E70E82230
:07454E00C294C297D294222F
:0A45440012454E7F887E13023F48A7
:103D3A00E490035FF0C29790035EF0EF30E704D29D
:103D4A00958002C295EF25E0FFD297000090035FAD
:103D5A00E025E0F0309603E004F0C29700009003FB
:0D3D6A005EE004F0E0B408D390035FE0FFDA
:013D77002229
:1042D500C2942096FD7F30123D3A2096FDD294225D
:10412700D2947F017E001241ECC2947F017E00127F
:0E41370041ECD2947F297E001241EC0242D569
:1042E500C2942096FD123D3AAF05123D3AD2942272
:063AD9008B128A13891410
:103ADF00EF444090035DF0C2942096FD90035DE0AB
:103AEF00FF123D3AE490035CF090035CE0FFC39556
:103AFF0015501AAB12AA13A9148F827583001211D5
:0F3B0F0047FF123D3A90035CE004F080DCD29453
:013B1E002284
:0B450500C2942096FD123D3AD2942291
:10404B00EF4480900357F0C2942096FD900357E005
:10405B00FF123D3AE4FF123D3A900358EFF0D29431
:01406B002232
:063A8E008B178A1889194C
:103A9400EF44C0900358F0C2942096FD900358E080
:103AA400FF123D3AE4900357F0900357E0C3951A90
:103AB4005020E4FF123D3AAB17AA18A919900357F6
:103AC400E0F582758300EF121186900357E004F04D
:043AD40080D7D29431
:013AD80022CB
:10406C00EF44C0900358F0C2942096FD900358E0A2
:10407C00FF123D3AE4FF123D3A900357EFF0D29411
:01408C002211
:102C9D00AD217F0C1242E5AD227F0B1242E5AD2333
:102CAD007F0C1242E5AD247F0D1242E5AD257F0E5E
:102CBD001242E5AD267F0F1242E5AD277F1012427D
:102CCD00E5AD287F111242E5AD297F121242E5AD27
:102CDD002A7F131242E5AD2B7F141242E5AD2C7FF6
:102CED000A1242E5AD2D7F151242E5AD2E7F211260
:102CFD0042E5AD2F7F221242E5AD307F181242E53D
:102D0D00AD317F191242E5AD327F1A1242E5AD3376
:102D1D007F1B1242E5AD347F1C1242E5AD357F1DA0
:102D2D001242E5AD367F231242E5AD377F241242C4
:102D3D00E5AD387F251242E5AD397F261242E5AD6E
:102D4D003A7F291242E5AD3B7F2C1242E5AD3C7F27
:102D5D002D1242E5AD3D7F2E1242E5AD3EE4FF1250
:102D6D0042E5AD3F7F021242E5AD407F071242E5DD
:102D7D00AD417F081242E5AD427F091242E5AD43F8
:052D8D007F060242E593
:10414500AC057F3F1242E58C157F3F123AD97F358A
:0E41550012450530B3FD20B3FD7F3B0245054A
:054560007F3402450557
:062FD5008B108A11891225
:102FDB0012426812112E25E025E0900356F07F3443
:102FEB001245057F027E00123F4830B3167F027EEA
:102FFB0000123F48900356E014F0E0C3940150EAEE
:10300B007F00227F3B12406CEF547F60567F3F1254
:10301B00404B900355EFF012426812112EFEEFD386
:10302B009E5032AB10AA11A912900355E0F51A7FEE
:10303B003F123A8E1242641211747B017A03795358
:10304B00751A027F3F123A8E7F3A12450590035450
:10305B00E05480FF221242641211747F3A1245052C
:05306B007F00227F0040
:01307000223D
:10424D00124544124127122C9D7BFF7A007903758C
:07425D0015087F3E023AD96B
:100E6E0061742B776966695F636F6E663D686F6D3F
:100E7E00656B69742C777061325F6165732C667572
:100E8E00636B444E53415250786D3530306E6D6DFC
:100E9E000D0A0061742B72656D6F746569703D701B
:100EAE006F6F6C2E6E74702E6F72670D0A00617408
:100EBE002B72656D6F7465706F72743D3132330DC8
:100ECE000A0061742B4765745F4D41433D3F0D0A27
:100EDE000061742B776966695F5363616E3D3F0DE8
:100EEE000A0061742B6F75745F7472616E733D309E
:100EFE000061742B6E65746D6F64653D320D0A0072
:100F0E0061742B64686370643D300D0A0061742B4C
:100F1E006D6F64653D636C69656E740D0A00617476
:100F2E002B6E65746D6F64653D330D0A0061742B15
:100F3E0064686370643D310D0A0061742B646863EC
:100F4E0070645F69703D3139322E3136382E313052
:100F5E002E312C3139322E3136382E31302E32356B
:100F6E00342C3235352E3235352E3235352E302C59
:100F7E003139322E3136382E31302E3132350D0A8E
:100F8E000061742B64686370645F646E733D313905
:100F9E00322E3136382E31302E312C302E302E303E
:100FAE002E300D0A0061742B64686370645F74697F
:100FBE006D653D393630300D0A0061742B776966E8
:100FCE00695F636F6E663D4E545020736572766531
:100FDE00722C777061325F6165732C313233343528
:100FEE003637380D0A0061742B64686370633D31C7
:100FFE000D0A0061742B6E65745F69703D31393274
:10100E002E3136382E31302E32332C3235352E32BB
:10101E0035352E3235352E302C3139322E3136389B
:10102E002E31302E39380D0A0061742B6E65745FC7
:10103E00646E733D302E302E302E302C302E302EEE
:10104E00302E300D0A0061742B72656D6F746570F1
:10105E00726F3D7463700D0A0061742B72656D6F53
:10106E00746570726F3D7564700D0A0061742B6D3E
:10107E006F64653D7365727665720D0A0061742B3F
:10108E0072656D6F746569703D3230322E3131325A
:10109E002E33312E3139370D0A0061742B72656D86
:1010AE006F7465706F72743D3132330D0A00617466
:1010BE002B74696D656F75743D300D0A0061742B6C
:1010CE00756172743D393630302C382C6E2C310DE2
:1010DE000A0061742B756172747061636B74696D53
:1010EE00656F75743D3130300D0A0061742B75617A
:1010FE0072747061636B6C656E3D3130300D0A0039
:10110E0061742B6E65745F636F6D6D69743D310D27
:10111E000A0061742B7265636F6E6E3D310D0A00AD
:0E42F5007BFF7A0E796E7D33123CB67F01227C
:0E4303007BFF7A0E79F07D0F123CB67F01220F
:0E4311007BFF7A0F798F7D24123CB67F01224C
:0E431F007BFF7A1079377D1D123CB67F01229C
:0E432D007BFF7A0E79FF7D0F123CB67F0122D6
:0E433B007BFF7A0F792C7D0F123CB67F01229A
:0E4349007BFF7A0F79C87D2C123CB67F0122D3
:0E4357007BFF7A0F79F47D0D123CB67F0122B8
:0E4365007BFF7A0F793B7D0D123CB67F012263
:0E4373007BFF7A0F790E7D0D123CB67F012282
:0E4381007BFF7A0F79487D47123CB67F012200
:0E438F007BFF7A0F79B37D15123CB67F0122B9
:0E439D007BFF7A11790E7D12123CB67F012251
:0E43AB007BFF7A10798B7D1D123CB67F0122BC
:0E43B9007BFF7A1079A87D14123CB67F01229A
:0E43C7007BFF7A0E79A17D1B123CB67F01228E
:0E43D5007BFF7A0E79BC7D14123CB67F01226C
:0E43E3007BFF7A1079547D13123CB67F0122C5
:0E43F1007BFF7A1079677D13123CB67F0122A4
:0E43FF007BFF7A1079BC7D0F123CB67F012245
:0E440D007BFF7A10797A7D11123CB67F012276
:0E441B007BFF7A0F791B7D11123CB67F0122C8
:0E4429007BFF7A1079CB7D15123CB67F012205
:0E4437007BFF7A1079F97D15123CB67F0122C9
:0E4445007BFF7A1079E07D19123CB67F0122D0
:0E4453007BFF7A1179207D0E123CB67F01228C
:0E4461007BFF7A0E79D07D0F123CB67F0122D0
:0E446F007BFF7A0E79DF7D11123CB67F0122B1
:0E447D007BFF7A1079017D36123CB67F01225A
:101DFB00121F94121F94C2C4C2C4C2C4121F3CD27D
:101E0B00C4D2C4D2C4121F3C121F4412432DEF7014
:101E1B0002FF22121F44124365EF7002FF22121FB2
:101E2B004C1242F5EF7002FF22121F4C124357EF78
:101E3B007002FF22121F541243F1EF7002FF2212A5
:101E4B001F5412441BEF7002FF22121F5C1243C778
:101E5B00EF7002FF22121F5C1243D5EF7002FF22BC
:101E6B00121F641243FFEF7002FF22121F64124411
:101E7B0029EF7002FF22121F6C124445EF7002FF14
:101E8B0022121F6C124437EF7002FF22121F7412C2
:101E9B00432DEF7002FF22121F74124365EF700285
:101EAB00FF22121F7C1242F5EF7002FF22121F7CE1
:101EBB00124357EF7002FF22121F841243F1EF708F
:101ECB0002FF22121F8412441BEF7002FF22121F0B
:101EDB008C1243C7EF7002FF22121F8C1243D5EFF7
:101EEB007002FF22121FAD1243FFEF7002FF22128E
:101EFB001FAD124429EF7002FF22121FB512444589
:101F0B00EF7002FF22121FB5124437EF7002FF224F
:101F1B007F647E001240EB12439DEF7002FF227F25
:101F2B00647E001240EB124453EF7002FF227F01DC
:101F3B00227F647E001240EB227F647E001240EB16
:101F4B00227F647E001240EB227F647E001240EB06
:101F5B00227F647E001240EB227F647E001240EBF6
:101F6B00227F647E001240EB227F647E001240EBE6
:101F7B00227F647E001240EB227F647E001240EBD6
:101F8B00227F647E001240EB227F01123FE490021D
:101F9B00E27401F0FF7E001240EB7F0A7E001240DC
:101FAB00EB227F647E001240EB227F647E001240A6
:021FBB00EB2217
:1013BF0012160C12160CC2C4C2C4C2C4121584D2A7
:1013CF00C4D2C4D2C412158412158C12433BEF70D1
:1013DF0002FF2212158C124365EF7002FF221215C5
:1013EF0094124381EF7002FF22121594124311EFF2
:1013FF007002FF2212159C12438FEF7002FF221210
:10140F00159C124349EF7002FF221215A412435785
:10141F00EF7002FF221215A412447DEF7002FF221B
:10142F001215AC12431FEF7002FF221215AC1243BC
:10143F00E3EF7002FF221215B412440DEF7002FF9A
:10144F00221215B41243ABEF7002FF221215BC1219
:10145F0043B9EF7002FF221215BC1243FFEF700267
:10146F00FF221215C4124429EF7002FF221215C475
:10147F00124445EF7002FF221215CC124437EF7061
:10148F0002FF221215CC12433BEF7002FF221215FE
:10149F00D4124365EF7002FF221215D4124381EF6D
:1014AF007002FF221215DC124311EF7002FF22129D
:1014BF0015DC12438FEF7002FF221215E41243491D
:1014CF00EF7002FF221215E4124357EF7002FF2252
:1014DF001215EC12447DEF7002FF221215EC12432D
:1014EF001FEF7002FF221215F41243E3EF7002FF99
:1014FF00221215F412440DEF7002FF221215FC1286
:10150F0043ABEF7002FF221215FC1243B9EF7002CA
:10151F00FF221216041243FFEF7002FF221216046D
:10152F00124429EF7002FF22121625124445EF7064
:10153F0002FF22121625124437EF7002FF221216F5
:10154F002D12439DEF7002FF2212162D124453EFFE
:10155F007002FF227F647E001240EB12439DEF70FA
:10156F0002FF227F647E001240EB124453EF7002A1
:10157F00FF227F01227F647E001240EB227F647E78
:10158F00001240EB227F647E001240EB227F647ECC
:10159F00001240EB227F647E001240EB227F647EBC
:1015AF00001240EB227F647E001240EB227F647EAC
:1015BF00001240EB227F647E001240EB227F647E9C
:1015CF00001240EB227F647E001240EB227F647E8C
:1015DF00001240EB227F647E001240EB227F647E7C
:1015EF00001240EB227F647E001240EB227F647E6C
:1015FF00001240EB227F647E001240EB227F01122B
:10160F003FE49002E27401F0FF7E001240EB7F0A8C
:10161F007E001240EB227F647E001240EB227F643B
:06162F007E001240EB22D8
:103BEE002A2A2A2A2A2A2A00303132333435363705
:103BFE0038392D26484C52534F464454514255495C
:103C0E0043502A2345003F065B4F666D7D077F6F4D
:103C1E0040467638506D5C715E78737C3E06397323
:033C2E0000FF791B
:083705008B568A5789588D5933
:10370D005380FD0000E4900386F0900386E0FFC334
:10371D0095595055AB56AA57A9588F8275830012EB
:10372D001147FF900388F0124235900388EFF0E4C3
:10373D00900387F05380FB0000900388E0FF30E793
:10374D000543800180035380FE0000438004000088
:10375D00EF25E0900388F0900387E004F0E0B408D3
:10376D00D3900386E004F080A143800200005380D3
:03377D00FD00004C
:013780002226
:10423500E4FEEE903BF693B50707EE903C1493FF32
:07424500220EBE1FED7F00F9
:01424C00224F
:101FBD0020202021210020202020A6A8A55C202063
:101FCD002020202020202020202020202120202003
:101FDD0020A5A2B1D12020202020202020202020AB
:101FED00202020212020B577CA5E3A56312E302090
:101FFD0020202020212020B36ECA5E3A56322E308A
:10200D002020202020212020AAECA96CA4C62E2E51
:10201D002E2E2E2E2020212020C0CBB4FA4E54502F
:10202D002E2E2E2E2E212020C0CBB4FA4750532E0B
:10203D002E2E2E2E212020C0CBB4FA434F4D2E2E06
:10204D002E2E2E210B0000000000000000000000CD
:10205D000000000000000000000000000000000073
:10206D00000000000000000000000000D6C81F5650
:10207D00D16872B0B074B86D2D3E20202020212083
:10208D00202020312EAEC9B6A1B7BD2120202020A1
:10209D00322EA46CC1E9BADEB27A21AEC9B6A1B7AF
:1020AD00BD2D3E20212020312E4E54502020203297
:1020BD002E47505320212020332E434F4D202020DA
:1020CD00342E4155544F21A46CC1E9BADEB27A2D9C
:1020DD003E212020312EB074B86DA46CC1E92020B2
:1020ED00212020322EA752B4EEA46CC1E92020216C
:1020FD002020322EA46CC1E9AAACBA41202021B017
:10210D0074B86DA46CC1E92D3E212020312EA6613D
:10211D00A77D3A20202020212020322EB371B054EB
:10212D003A205253343835212020322EB371B05419
:10213D003A205246343333212020322EB371B0541D
:08214D003A204F4646202021F4
:10393D0075A0A07BFF7A1F79BD7D087F0322AE475E
:10394D00AF48EEC4F854F0C8EFC4540F4822AE4B44
:10395D00AF4C8E4BEF227BFFE4FD7F0222AE49AFD1
:10396D004A8E49EF22AE4BAF4CEF7805227BFFE438
:10397D00FD7F0122E004F0E0C3940A22AE4BAF4C70
:0B398D00EF78022254FBF54C7BFF2278
:0B4510007BFF7A1F79C3E4FD0231A09D
:0B451B007BFF7A1F79DAE4FD0231A07B
:103687008D5F122155E55F24FE60121460161460E9
:103697001814601F1460212405702980237F2E12BF
:1036A70022CF801C1236FA80171236FA7F2E12228A
:1036B700CF800D1236D880081236D87F2E1222CF2F
:1036C7007F2E80091236ED1222CF1236ED1222CF4D
:1036D700227F2E1222CF7F2E1222CF7F2E1222CFB1
:1036E7007F2E1222CF227F201222CF7F201222CFBD
:0E36F7007F20227F2E1222CF7F2E1222CF2282
:103C31007F207E001231097BFF7A1F79F1E4FDFFBD
:103C41001231A07A2079021239631231A07BFF7AF6
:103C5100207913E4FD7F031231A0E4900393F07FF8
:103C6100F47E011240EB900393E004F0E0C394145E
:023C710040ED24
:013C7300222E
:103B1F00E490038DF07F20FE12310912395B1239C8
:103B2F00917A207924E4FDFF1231A0E490038EF006
:103B3F007FF47E011240EB90038E12398140F11217
:103B4F003989CEC313CE13D8F97F0130E003024574
:043B5F001012451BE0
:013B6300223F
:103B6400E490038FF07F20FE12310912395B123981
:103B7400917A207933E4FDFF1231A0E4900390F0B0
:103B84007FF47E011240EB90039012398140F112D0
:103B94003989CEC313CE13D8F97F0130E00302452F
:043BA4001012451B9B
:013BA80022FA
:103BA900E4900391F07F20FE12310912395B12393A
:103BB900917A207942E4FDFF1231A0E4900392F05A
:103BC9007FF47E011240EB90039212398140F11289
:103BD9003989CEC313CE13D8F97F0130E0030245EA
:043BE9001012451B56
:013BED0022B5
:10282400E4FFFE1242C5EF24F4600D24DC6018249A
:102834002D702612294E801CE4FF123FE4E490021E
:10284400E2F07F01FE800F7F02123FE49002E27407
:1028540002F07F017E001240EBAE49AF4AEF7807E9
:10286400CEC313CE13D8F930E0339002E2E0640112
:10287400702B12394B20E02512396A547FF54A1225
:10288400294E7E001240EBE4900343F07F01FE12D8
:1028940040EB7BFF7A2079517D30123CB6AE45AFD8
:1028A40046EF7807CEC313CE13D8F930E011122FB8
:1028B4001C122F1CAE45AF468E45EF547FF54612D1
:1028C4002A76BF04031213BF122A76BF0303121D14
:1028D400FB12394B30E03C1205A6E4900343F09020
:1028E400034EF090034EE0FFC39450501474E82F4D
:1028F400F582E43402F583E4F090034EE004F080C2
:10290400E2AE47AF488E47EF54EFF54812396A44B8
:1029140001F54AAE49AF4AEF7802CEC313CE13D8BD
:10292400F930E02512396A54FBF54A12184DAE49C4
:10293400AF4AEF7805CEC313CE13D8F930E00A12AC
:092944001C3212396A54DFF54A15
:0E294D00227F01123FE49002E27401F0FF22AB
:1037F9008F10123972CEC313CE13D8F930E0567B2D
:10380900FF7A207981E4FDFF1231A07A20798C12A8
:1038190039631231A07A20799912397A1231A0E4E8
:10382900F5A0E51024FE600C04701D7F8912385F35
:103839007F9180077F9112385F7F891221557FA17F
:103849001222CF7FF71222CF12393D1231A012393D
:103859005B54DFF54C221221557F201222CF7F20A5
:043869001222CF2236
:10295B008F10123972CEC313CE13D8F920E00302B5
:10296B0029FC7BFF7A2079A8E4FDFF1231A07BFFC5
:10297B007A2079B2E4FD7F021231A07A2079C3125A
:10298B00397A1231A0E4F5A0E51024FE6019146029
:10299B002A1460402403704C7F90122A3F122A4A5B
:1029AB007F94122A55800A7F90122A2A7F94122A2A
:1029BB003F122A4A7F88122A5580081229FD7F88E8
:1029CB00122A60122A6B7F8C1221557F201222CF84
:1029DB007F20800D1229FD7F88122A2A7F8C122AD4
:1029EB0060122A6B12393D1231A012395B54DFF59C
:1029FB004C227F901221557F201222CF7F20122252
:102A0B00CF7F017E001240EB7F941221557F201265
:102A1B0022CF7F201222CF7F017E001240EB2212A9
:102A2B0021557F201222CF7F201222CF7F017E00E3
:102A3B001240EB221221557FA11222CF7FF72212D7
:102A4B0022CF7F017E001240EB221221557F2012F4
:102A5B0022CF7F20221221557FA11222CF7FF72276
:0B2A6B001222CF7F017E001240EB2200
:103236008F10123972CEC313CE13D8F930E0657BE6
:10324600FF7A2079D4E4FDFF1231A07BFF7A207942
:10325600DFE4FD7F021231A07BFF7A2079FDE4FDD9
:103266007F011231A0E4F5A0E51024FE601204707F
:10327600267F901232B61232AB7F881232C1800D91
:103286007F901232C11232AB7F881232B61222CF31
:103296007F017E001240EB12393D1231A012395BDC
:1032A60054DFF54C221222CF7F017E001240EB2222
:1032B6001221557FA11222CF7FF7221221557F209E
:0632C6001222CF7F20223E
:1026E2008F10123972CEC313CE13D8F920E0030231
:1026F20027E47BFF7A21790CE4FDFF1231A07A21D5
:1027020079177F0212281CE4F5A07F9512215590BB
:1027120002CBE075F06412281075F06484E5F07560
:10272200F00A12281075F00A84E5F02430FF12280E
:10273200059002CAE024FE600F1460142402701F88
:102742007BFF7A217925800E7BFF7A2179358006FD
:102752007BFF7A217945E4FD7F011231A0800F7A57
:102762002179457F0112281C9002CA7403F0E4F516
:10277200A0E51024FE603604705BAE4BAF4C1239FC
:102782004F7F9030E00C1221557FA11222CF7FF7AC
:10279200800A1221557FA11222CF7FAF1228057F16
:1027A200881221557F201222CF7F20801EAE4BAF90
:1027B2004C12394F7F9030E00A1227E51227FA7F38
:1027C200F780081227E51227FA7FAF1222CF7F0186
:1027D2007E001240EB12393D1231A012395B54DFF8
:1027E200F54C221221557F201222CF7F201222CFB8
:1027F2007F017E001240EB227F881221557FA112B9
:1028020022CF221222CF7F017E001240EB228424AB
:1028120030FF1222CF9002CBE0227BFFE4FD123187
:02282200A022F2
:014565002233
:0300000002335A6E
:0C335A00787FE4F6D8FD75815F0233A196
:10112E00BB010689828A83E0225002E722BBFE02BF
:09113E00E32289828A83E49322F2
:10114700BB010CE58229F582E5833AF583E022505D
:1011570006E92582F8E622BBFE06E92582F8E222A7
:0D116700E58229F582E5833AF583E49322C1
:10117400BB010689828A83F0225002F722BBFE015A
:02118400F32254
:10118600F8BB010DE58229F582E5833AF583E8F09F
:10119600225006E92582C8F622BBFE05E92582C84B
:0211A600F22233
:1011A800BC000BBE0029EF8DF084FFADF022E4CC2B
:1011B800F875F008EF2FFFEE33FEEC33FCEE9DECF4
:1011C800984005FCEE9DFE0FD5F0E9E4CEFD22ED3A
:1011D800F8F5F0EE8420D21CFEADF075F008EF2F84
:1011E800FFED33FD4007985006D5F0F222C398FD75
:0511F8000FD5F0EA2212
:1011FD00C5F0F8A3E028F0C5F0F8E582158270027D
:06120D001583E038F02219
:10121300A3F8E0C5F025F0F0E5821582700215838E
:06122300E0C838F0E822EB
:0D122900EF2BFFEE3AFEED39FDEC38FC2214
:1012360075F008758200EF2FFFEE33FECD33CDCC6F
:1012460033CCC58233C5829BED9AEC99E5829840F2
:101256000CF582EE9BFEED9AFDEC99FC0FD5F0D6CF
:10126600E4CEFBE4CDFAE4CCF9A88222B800C1B9F9
:101276000059BA002DEC8BF084CFCECDFCE5F0CB37
:10128600F97818EF2FFFEE33FEED33FDEC33FCEB70
:1012960033FB10D703994004EB99FB0FD8E5E4F92B
:1012A600FA227818EF2FFFEE33FEED33FDEC33FC18
:1012B600C933C910D7059BE99A4007EC9BFCE99A0C
:1012C600F90FD8E0E4C9FAE4CCFB2275F010EF2F51
:1012D600FFEE33FEED33FDCC33CCC833C810D70751
:1012E6009BEC9AE899400AED9BFDEC9AFCE899F88C
:0E12F6000FD5F0DAE4CDFBE4CCFAE4C8F9221F
:10130400E8600FEFC333FFEE33FEED33FDEC33FC47
:03131400D8F122EB
:0C131700E0FCA3E0FDA3E0FEA3E0FF2249
:0C132300E0F8A3E0F9A3E0FAA3E0FB224D
:0C132F00ECF0A3EDF0A3EEF0A3EFF02231
:10133B00A8828583F0D083D08212135212135212DB
:10134B001352121352E473E493A3C583C5F0C58300
:10135B00C8C582C8F0A3C583C5F0C583C8C582C8FC
:01136B00225F
:10136C00D083D082F8E4937012740193700DA3A310
:10137C0093F8740193F5828883E473740293686024
:06138C00EFA3A3A380DF24
:10139200D083D082F8E4937012740193700DA3A3EA
:1013A20093F8740193F5828883E473740293B5F021
:0D13B200067403936860E9A3A3A3A380D889
:10336600024555E493A3F8E493A34003F68001F2E3
:1033760008DFF48029E493A3F85407240CC8C33368
:10338600C4540F4420C8834004F456800146F6DF37
:10339600E4800B0102040810204080903470E47E23
:1033A600019360BCA3FF543F30E509541FFEE4932C
:1033B600A360010ECF54C025E060A840B8E493A3F3
:1033C600FAE493A3F8E493A3C8C582C8CAC583CA1E
:1033D600F0A3C8C582C8CAC583CADFE9DEE780BED6
:0134F80000D3
:00000001FF
