:03000000020C24CB
:0C0C2400787FE4F6D8FD75812E020C6B81
:08000300EFC43354E042A022D7
:1004A100E4F521F522F52343A00FF52275230AE592
:1004B100231523AE22700215224E70030205D07F50
:1004C100017E001211DFE5A0540FF521640F60DFFA
:1004D100E52124F5604824FE607B14700302058D3C
:1004E100240760030205CD752200752364E52345C9
:1004F10022601AE5231523700215227F017E001266
:1005010011DFE5A0540F640760E37F0422D3E523E4
:10051100945AE522940040037F00227F0422752231
:1005210000752364E5234522601AE5231523700233
:1005310015227F017E001211DFE5A0540F640B60CC
:10054100E37F0322D3E523945AE522940040037FFD
:1005510000227F0322752200752364E52345226072
:100561001AE5231523700215227F017E001211DF87
:10057100E5A0540F640D60E37F0222D3E523945A72
:10058100E522940040037F00227F022275220A7532
:1005910023F0E5234522601AE52315237002152275
:1005A1007F017E001211DFE5A0540F640E60E37F2E
:1005B1000122D3E52394E6E522940A40037F002239
:1005C100E523452270037F05227F01227F00227FE0
:0105D1000029
:0105D2002206
:1011DF00EF1FAA0670011E4A6013E4FCFDC3ED94D5
:0D11EF001CEC940250EA0DBD00010C80F0D4
:0111FC0022D0
:0B132F00EF1FAC0670011E4C70F62290
:100F24002A2A2A2A2A2A2A003031323334353637FB
:100F340038392D26484C52534F4644545142554952
:100F440043502A2345003F065B4F666D7D077F6F44
:100F540040467638506D5C715E78737C3E0639731A
:030F640000FF7912
:080D2F008B228A2389248D2503
:100D37005380FD0000E4900049F0900049E0FFC3B4
:100D470095255055AB22AA23A9248F8275830012BB
:100D57000F67FF90004BF012121990004BEFF0E471
:100D670090004AF05380FB000090004BE0FF30E713
:100D77000543800180035380FE0000438004000088
:100D8700EF25E090004BF090004AE004F0E0B40853
:100D9700D3900049E004F080A14380020000538013
:030DA700FD00004C
:010DAA002226
:10121900E4FEEE900F2C93B50707EE900F4A93FF6B
:07122900220EBE1FED7F0045
:01123000229B
:0B133A007F0A7E001211DF75BBFF224E
:1012EB00438901758AFB758CDBD28CD2A9D2AF22D4
:1012C900759850438920758BFD758DFDD28ED2ACF2
:0112D90022F2
:0D12FB00759A50759CB8438E1475AF012292
:100AF800AE18AF198E18EF54DFF519AE18AF198E6E
:100B080018EF54BFF519AE18AF198E18EF54FBF54E
:100B180019AE18AF198E18EF54FEF519AE18AF19A3
:100B28008E18EF54FDF519AE18AF198E18EF44085A
:100B3800F519AE1AAF1B8E1AEF54FBF51BAE1AAFA0
:100B48001B8E1AEF54F7F51BAE1AAF1B8E1AEF5413
:100B5800FEF51BAE18AF198E18EF54FEF519AE1836
:100B6800AF198E18EF54FDF519AE1AAF1B8E1AEF98
:100B78004402F51BAE18AF198E18EF54EFF5195350
:090B8800A01F43A0407580032268
:1012B70012133A1212C91212FB1212EB120AF80297
:0212C7001249CA
:06135B001212B7020B9113
:1012DA002020A440A447A454A57CA4ADA4BBA4E99F
:0112EA0021E2
:0D130800D2C0D2C10000C2C00000C2C1228C
:0B134500C2C0D2C10000D2C0000022D4
:0D131500A20092C0D2C10000C2C10000229F
:0B135000D2C10000A2C0C2C1000022F8
:0C108C00C2AF1213087FDE121098AF04F0
:10109800E4FEFDEF25E0FF92C0D2C10000C2C1000E
:1010A800000DBD08EE1213505009AF060EEF941E46
:0310B80040F322E0
:0110BB002212
:10002600E4FFD2C0FEEF25E0FFD2C10000A2C0E48B
:0B003600334207C2C100000EBE08EA02
:01004100229C
:10123100AC05AB0712108CAF03121098121345D2F4
:08124100AF7F057E000211DF02
:100E8400900048EFF0E0C4540F2430FF90002FE0AE
:100E9400FE04F074322EF582E43400F583EFF09012
:100EA4000048E0540F2430FF90002FE0FE04F0745B
:0D0EB400322EF582E43400F583EFF07F0567
:020EC100AC077C
:100EC30012108C1213087FDF121098120026D20022
:080ED300121315121345D2AFF2
:010EDB0022F4
:101057008F217F03120EC190002EEFF07D077F4096
:101067001212317F0A7E001211DF90002EE054F831
:10107700F0E044084521F0E0FF7D031212317F0ABA
:051087007E000211DFF4
:100E25008D228B23E52320E5557D061212317F0A9D
:100E35007E001211DF7D05AF221212317F0A7E007E
:100E45001211DF7D04AF231212317F0A7E001211C9
:100E5500DF7D02AF241212317F0A7E001211DF7D81
:100E650001AF251212317F0A7E001211DFE52644FB
:0F0E750080FFE4FD1212317F0A7E001211DF228E
:10117A00900048E0B49903E4F022900048E0540F4C
:10118A00FFBF0907E0241054F0F022900048E00461
:02119A00F02241
:1011BE00900046E024EE600B2409700E90004674F9
:1011CE0010F0229000467401F022900046E004F0E8
:0111DE0022EE
:1010200090002EE024F7601324F0601624F060197D
:1010300024F8701C90002E7401F02290002E741081
:10104000F02290002E7420F02290002E7430F022B6
:0710500090002EE004F022E5
:1010BC00900047E024F7601524F0600A24F67014C1
:1010CC00E4900047F0229000477420F022900047F3
:0B10DC007410F022900047E004F022A6
:10119C00900031E0B45903E4F022900031E0540F98
:1011AC00FFBF0907E0241054F0F022900031E00456
:0211BC00F0221F
:1010E700900030E0547FF0E0B45903E4F022900020
:1010F70030E0540FFFBF0907E0241054F0F02290AE
:061107000030E004F022BC
:101249007F011210577524237525597526507B0384
:071259007D107F14020E2539
:10004600E490002FF0E0FF04F074322FF582E434E0
:1000560000F5837432F090002FE0FF04F074322F25
:10006600F582E43400F5837430F07F06120EC11277
:100076000E84900046EFF0E0C4540F2430FF900049
:100086002FE0FE04F074322EF582E43400F583EF9F
:10009600F0900046E0540F2430FF90002FE0FE045D
:1000A600F074322EF582E43400F583EFF07F04120B
:1000B6000EC190002EEFF0E0C4540F2430FFA3E0F1
:1000C600FE04F074322EF582E43400F583EFF090EE
:1000D600002EE0540F2430FFA3E0FE04F074322E0D
:1000E600F582E43400F583EFF07F03120EC1900031
:1000F6002EEFF0E05407F0E0FFA3E0FE04F07432C8
:100106002EF582E43400F583EFF07F02120EC190E3
:100116000047EFF0E0C4540F2430FF90002FE0FEBC
:1001260004F074322EF582E43400F583EFF090008B
:1001360047E0540F2430FF90002FE0FE04F07432A5
:100146002EF582E43400F583EFF07F01120EC190A4
:100156000031EFF0E0C4540F2430FF90002FE0FE92
:1001660004F074322EF582E43400F583EFF090004B
:1001760031E0540F2430FF90002FE0FE04F074327B
:100186002EF582E43400F583EFF0E4FF120EC1EFA2
:10019600547F900030F0E0C4540F2430FF90002FBD
:1001A600E0FE04F074322EF582E43400F583EFF0BD
:1001B600900030E0540F2430FF90002FE0FE04F052
:1001C60074322EF582E43400F583EFF07F031200DB
:0C01D600037B017A0079327D0F020D2FAF
:10034700E490002FF0E0FF04F074322FF582E434DC
:1003570000F5837432F090002FE0FF04F074322F21
:10036700F582E43400F5837430F07F06120EC11273
:100377000E84900046EFF0E0C4540F2430FF900045
:100387002FE0FE04F074322EF582E43400F583EF9B
:10039700F0900046E0540F2430FF90002FE0FE0459
:1003A700F074322EF582E43400F583EFF07F041207
:1003B7000EC190002EEFF0E0C4540F2430FFA3E0ED
:1003C700FE04F074322EF582E43400F583EFF090EA
:1003D700002EE0540F2430FFA3E0FE04F074322E09
:1003E700F582E43400F583EFF07F03120EC190002D
:1003F7002EEFF0E05407F0E0FFA3E0FE04F07432C4
:100407002EF582E43400F583EFF07F02120EC190DF
:100417000047EFF0E0C4540F2430FF90002FE0FEB8
:1004270004F074322EF582E43400F583EFF0900087
:1004370047E0540F2430FF90002FE0FE04F07432A1
:100447002EF582E43400F583EFF07F01120EC190A0
:100457000031EFF0E0C4540F2430FF90002FE0FE8E
:1004670004F074322EF582E43400F583EFF0900047
:1004770031E0540F2430FF90002FE0FE04F0743277
:100487002EF582E43400F583EFF07F031200037B3F
:0A049700017A0079327D0D020D2F6D
:1008AD00E490002FF0E0FF04F074322FF582E43471
:1008BD0000F5837432F090002FE0FF04F074322FB6
:1008CD00F582E43400F5837430F07F06120EC11208
:1008DD000E84900046EFF0E0C4540F2430FF9000DA
:1008ED002FE0FE04F074322EF582E43400F583EF30
:1008FD00F0900046E0540F2430FF90002FE0FE04EE
:10090D00F074322EF582E43400F583EFF07F04129B
:10091D000EC190002EEFF0E0C4540F2430FFA3E081
:10092D00FE04F074322EF582E43400F583EFF0907E
:10093D00002EE0540F2430FFA3E0FE04F074322E9D
:10094D00F582E43400F583EFF07F03120EC19000C1
:10095D002EEFF0E05407F0E02430FFA3E0FE04F0AA
:10096D0074322EF582E43400F583EFF07F0312002C
:0C097D00037B017A0079327D09020D2F06
:10098900E490002FF0E0FF04F074322FF582E43494
:1009990000F5837432F090002FE0FF04F074322FD9
:1009A900F582E43400F5837430F07F06120EC1122B
:1009B9000E84900046EFF0E0C4540F2430FF9000FD
:1009C9002FE0FE04F074322EF582E43400F583EF53
:1009D900F0900046E0540F2430FF90002FE0FE0411
:1009E900F074322EF582E43400F583EFF07F0412BF
:1009F9000EC190002EEFF0E0C4540F2430FFA3E0A5
:100A0900FE04F074322EF582E43400F583EFF090A1
:100A1900002EE0540F2430FFA3E0FE04F074322EC0
:100A2900F582E43400F583EFF07F031200037B01C4
:090A39007A0079327D08020D2FCC
:100DAB00E490002FF0E0FF04F074322FF582E4346E
:100DBB0000F5837432F090002FE0FF04F074322FB3
:100DCB00F582E43400F5837430F07F06120EC19087
:100DDB000048EFF0E0C4540F2430FF90002FE0FEEA
:100DEB0004F074322EF582E43400F583EFF09000BA
:100DFB0048E0540F2430FF90002FE0FE04F07432D3
:100E0B002EF582E43400F583EFF07F031200037BB1
:0A0E1B00017A0079327D04020D2FE8
:060A42008B21AC05AD079D
:100A4800E490002FF0FFED24FDFEEFC39E501790B9
:100A5800002FE0FE04F074322EF582E43400F583B2
:100A6800742AF00F80E0AE1AAF1BEF7805CEC313DF
:100A7800CE13D8F930E024EC75F064842430FF906C
:100A8800002FE0FE04F074322EF582E43400F58382
:100A9800EFF0EC75F06484E5F0801590002FE0FF2E
:100AA80004F074322FF582E43400F5837450F0ECCE
:100AB80075F00A842430FF90002FE0FE04F07432B1
:100AC8002EF582E43400F583EFF0EC75F00A84E546
:100AD800F02430FF90002FE0FE04F074322EF582EF
:100AE800E43400F583EFF07B017A007932020D2FB0
:0E11560041004C0141004D00012C00012D0014
:100B91001204A1BF05031201E2AE1AAF1BEEC4F8A5
:100BA10054F0C8EFC4540F4830E00E12110DAE1AC4
:100BB100AF1B8E1AEF54EFF51BAE1AAF1BEF30E0EF
:100BC100CF900000E064A5703EA3E0645A7038A3A2
:100BD100E064A57032A3E0645A702CA3E064A570B0
:100BE10026A3E0645A7020A3E0B4A51BA3E0B45A85
:100BF10016A3E0B4FF1190004DE0FF900009E0B5AD
:100C01000708120EDC8003121132AE1AAF1B8E1AC6
:100C1100EF54FEF51BAE1AAF1B8E1AEF4402F51B03
:030C2100020B9132
:10113200900004E0FF121057900001E0FFA3E0FDD1
:10114200A3E0FB900005E0F524A3E0F525A3E0F57C
:0411520026020E253E
:10110D0090004CE024FE600D14600D14600D146011
:10111D000D2404800C0203470208AD020989020D5B
:05112D00AB1200462298
:1001E200E4FBAD2C7F0F120A42AE1AAF1B8E1AEF40
:1001F20054DFF51B1204A1EF70FAAE1AAF1BEF78B1
:1002020005CEC313CE13D8F930E0067B01AD2D80A5
:1002120004E4FBAD2C7F0F120A421204A18F2EE5DB
:100222002E24FD70030202A71470030202F0147060
:1002320003020332240470C2AE1AAF1BEF7805CE5C
:10024200C313CE13D8F930E015E52C1460080470FE
:100252002090004D800390004CE52DF08013E52C9A
:1002620014600804700B90004D800390004CE0F580
:100272002DAE1AAF1BEF7805CEC313CE13D8F954A7
:1002820001F4FF7E00EF54017805C333CE33CED89C
:10029200F9FFAC1AAD1BED54DFFDEC4EF51AED4F34
:1002A200F51B0201FCAE1AAF1BEF7805CEC313CECD
:1002B20013D8F930E029E52C14601504600302011B
:1002C200FCE52DC394FF40030201FC052D0201FC55
:1002D200E52DC3940540030201FC052D0201FCE556
:1002E2002CC3940A40030201FC052C0201FCAE1A45
:1002F200AF1BEF7805CEC313CE13D8F930E025E556
:100302002C1460120460030201FCE52D700302014B
:10031200FC152D0201FCE52D640170030201FC15A0
:100322002D0201FCE52C70030201FC152C0201FCDC
:10033200AE1AAF1BEF7805CEC313CE13D8F930E057
:05034200030201FC2292
:1011640041002D004100140042002B0000410029E1
:051174000041002A000B
:080FE7008B278A2889298D2A35
:100FEF007F017E001211DFE4F52BE52BC3952A500C
:100FFF0017AB27AA28A929852B82758300120F67A3
:10100F00FF121277052B80E2AE18AF19EF20E0F830
:01101F0022AE
:080FAA008B218A2289238D248A
:100FB2007F017E001211DFE4F525E525C39524505B
:100FC20017AB21AA22A923852582758300120F67F8
:100FD200FF1211FD052580E2AE18AF19EEC313EF23
:040FE2001320E0F404
:010FE60022E8
:10127700AC18AD19ED20E0F8AC18AD198C18ED4499
:0612870001F5198F992208
:1011FD00AD07AE18AF19EEC313EF1320E0F4AE1820
:0C120D00AF198E18EF4402F5198D9B22DA
:100EDC009000007402F0A374A5F0A3745AF0A374EC
:100EEC00A5F0A3745AF0A374A5F0A3745AF0A374DC
:100EFC00A5F0A3745AF0A374FFF090004DE090009D
:100F0C000AF0A37403F07B017A0079007D0C120FB8
:080F1C00AA7F0A7E000211DF2A
:030023000206D101
:1006D100C0E0C083C082C0D075D000C000C005C0DA
:0306E10006C00749
:1006E400C2AF43C1102098030207ABC298AD9990E2
:1006F4000029E4F0AE18AF19EF7803CEC313CE137C
:10070400D8F920E0030207ABAE18AF19EF7806CE94
:10071400C313CE13D8F930E07090002DE0FF04F03D
:1007240074152FF582E43400F583EDF090002DE08C
:10073400640B7073E02414F582E43400F583E0AEB6
:1007440018AF19B403148E18EF4404F519AE18AF9A
:10075400198E18EF54F7F51980128E18EF54FBF523
:1007640019AE18AF198E18EF4408F519AE18AF1961
:100774008E18EF54BFF519900029E4F0AE18AF19A4
:100784008E18EF54DFF519801EBD021BAE18AF1989
:100794008E18EF4420F519AE18AF198E18EF4440A7
:1007A400F51990002DE4F030990DC299AE18AF19E7
:0907B4008E18EF54FEF519D2AFC6
:1007BD00D007D006D005D000D0D0D082D083D0E0E5
:0107CD0032F9
:030043000207CEE3
:0B07CE00C0E0C083C082C0D075D0081E
:1007D900C2AF43C110E59A20E00302088F539AFE85
:1007E900AD9B90002AE4F0AE1AAF1BEF7803CEC39D
:1007F90013CE13D8F930E070900014E0FF04F074C0
:10080900002FF582E43400F583EDF0900014E064E4
:100819000B7073E024FFF582E434FFF583E0AE1A30
:10082900AF1BB403148E1AEF4401F51BAE1AAF1BAC
:100839008E1AEF54FDF51B80128E1AEF54FEF51B2C
:10084900AE1AAF1B8E1AEF4402F51BAE1AAF1B8E00
:100859001AEF54F7F51B90002AE4F0AE1AAF1B8E7D
:100869001AEF54FBF51B801EBD021BAE1AAF1B8E7F
:100879001AEF4404F51BAE1AAF1B8E1AEF4408F5A4
:100889001B900014E4F0E59A30E10E539AFDAE187E
:0B089900AF198E18EF54FDF519D2AF17
:0908A400D0D0D082D083D0E03224
:03000B000205D318
:1005D300C0E0C0F0C083C082C0D075D000C000C0EE
:1005E30006C00743C110758AFB758CDB90002BE4B2
:1005F30075F001120F94FED3E5F0940AEE940040D7
:100603001290002BE4F0A3F0AE1AAF1B8E1AEF4446
:1006130010F51BAE18AF19EF7805CEC313CE13D860
:10062300F930E044900029E0FF04F0EFC394024066
:1006330037AE18AF198E18EF54FBF519AE18AF1972
:100643008E18EF4408F519E4F090002DF0AE18AFC2
:10065300198E18EF54BFF519900029E4F0AE18AFC6
:10066300198E18EF54DFF519AE1AAF1BEF7802CECF
:10067300C313CE13D8F930E04490002AE0FF04F00E
:10068300EFC394024037AE1AAF1B8E1AEF54FEF538
:100693001BAE1AAF1B8E1AEF4402F51BE4F0900059
:1006A30014F0AE1AAF1B8E1AEF54F7F51B90002A05
:1006B300E4F0AE1AAF1B8E1AEF54FBF51BD007D034
:0E06C30006D000D0D0D082D083D0F0D0E0326C
:100CB0007F0A7E001211DFE4FFFE1212A3E4F51E8C
:100CC000F51FAF1FAE1E121260EFF4705F051FE537
:100CD0001F7002051EC3E51E940240E67F0A7E00D7
:100CE0001211DFE4F51EF51FAD1FAF1FAE1E12126D
:100CF0008D051FE51F7002051EC3E51E940240E826
:100D00007590F87F0A7E001211DFE4F51EF51FAF23
:100D10001FAE1E121260EFB51F12051FE51F7002F5
:0E0D2000051EC3E51E940240E67F01227F00FF
:010D2E0022A2
:10000E00AE071FEE600DE4FCFD0DED70010C4C60B3
:03001E00EF80F67A
:0100210022BC
:0D132200E4F5C7F5C5F5C675C380F5C42216
:1012600075C78275C5018FC48EC375C65A75C6A56C
:0612700000AFC2121322C0
:011276002255
:10128D0075C78275C5028FC48EC38DC275C65A755A
:06129D00C6A500021322A9
:1012A30075C78275C5038FC48EC375C65A75C6A527
:0412B3000002132200
:100C300002135BE493A3F8E493A34003F68001F26C
:100C400008DFF48029E493A3F85407240CC8C333C5
:100C5000C4540F4420C8834004F456800146F6DF94
:100C6000E4800B0102040810204080901156E47EBD
:100C7000019360BCA3FF543F30E509541FFEE49389
:100C8000A360010ECF54C025E060A840B8E493A350
:100C9000FAE493A3F8E493A3C8C582C8CAC583CA7B
:100CA000F0A3C8C582C8CAC583CADFE9DEE780BE33
:011179000075
:100F6700BB010CE58229F582E5833AF583E022503F
:100F770006E92582F8E622BBFE06E92582F8E22289
:0D0F8700E58229F582E5833AF583E49322A3
:100F9400A3F8E0C5F025F0F0E58215827002158310
:060FA400E0C838F0E8226D
:00000001FF
