:10166A00D3E5139427E51294012275120175132C00
:01167A00224D
:08000300EFC43354E042A022D7
:10082300E4F511F512F51343A00FF51275130AE55C
:10083300131513AE12700215124E70030209021241
:100843000905F511640F60E7E51124F5603424FE12
:100853006056146079240760030208FF121674E5DA
:100863001345126012E513151370021512120905D0
:10087300640760EB7F042212166A40037F00227F25
:100883000422121674E51345126012E51315137052
:10089300021512120911640B60EB7F032212166A10
:1008A30040037F00227F0322121674E51345126072
:1008B30012E513151370021512120911640D60EB82
:1008C3007F022212166A40037F00227F0222121641
:1008D30074E5134512601AE5131513700215127FA0
:1008E300017E00121548E5A0540F640E60E37F01FA
:1008F3002212166A40037F00227F01227F00227F9B
:0109030000F3
:10090400227F017E00121548E5A0540F227F017E4C
:0909140000121548E5A0540F2261
:10154800EF1FAA0670011E4A6013E4FCFDC3ED9468
:0D1558001CEC940250EA0DBD00010C80F067
:011565002263
:0B16ED00EF1FAC0670011E4C70F622CF
:10156600F51BAE1AAF1B8E1AEF22F519AE18AF197E
:0E1576008E18EF22F51DAE1CAF1D8E1CEF224D
:0B16F8007F0A7E0012154875BBFF2220
:10168C00438901758AFB758CDBD28CD2A9D2AF222F
:10167B00759850438920758BFD758DFDD28ED2AC3C
:01168B00223C
:0D16AC00759A50759CB8438E1475AF0122DD
:100F790012156854FE12156654FD12156654FB12BB
:100F8900156654F712156654EF12156654DF1215DB
:100F99006654BF121566547FF51B12157C44011265
:100FA900157A440212157A54FB12157A4404F51D78
:100FB9001215724402121570440412157044081275
:100FC9001570441012157054DF12157054BF1215A4
:100FD900704480F5197F3C900000E4F0A3DFFC53D6
:080FE900A01F43A04075800425
:010FF10022DD
:1014C8001216F812167B1216AC12168C120F7953DC
:1014D800A01F5380F753A01F43A0A01212CB0216DF
:0114E80040C3
:061753001214C802070F8A
:10158400F51BAE1CAF1D8E1CEF22AE18AF198E18C2
:0E159400EF227400251EF582E43400F5832258
:10070F00120D60AE18AF19EF7807CEC313CE13D802
:10071F00F930E00A120B8212158E547FF519AE1CB8
:10072F00AF1DEF7802CEC313CE13D8F930E03EAE33
:10073F0018AF19EF7805CEC313CE13D8F930E005F3
:10074F001211958021120046AE18AF19EF7806CE20
:10075F00C313CE13D8F930E00D12158E54BFF5190F
:10076F00120823EF70FA12158654FBF51D12082399
:10077F00EF6401703FAE18AF19EF7805CEC313CEFB
:10078F0013D8F95401F4FF7E00EF54017805C333F9
:10079F00CE33CED8F9FFAC18AD19ED54DFFDEC4ECA
:1007AF00F518ED4FF5191215864404F51D12158E27
:1007BF004440F519AE1AAF1BEEC4F854F0C8EFC49D
:1007CF00540F4820E00302070FE4FF74512FF58206
:1007DF00E43400F583E024E0F00FBF08EE900055FD
:1007EF00E0FF121343900052E0FFA3E0FDA3E0FBF4
:1007FF00900056E0F513A3E0F514A3E0F5151211E0
:10080F00F1AE1AAF1B8E1AEF54EF1215844401F597
:04081F001D02070FA0
:100D6000751164E51EC3940C5004051E8003E4F560
:100D70001EAF1E12145A7F0A7E00121548E511603C
:100D80006915117F017E00121548AE1AAF1BEF786E
:100D900005CEC313CE13D8F930E0E2AE1AAF1B8EE6
:100DA0001AEF54DF1215844402F51D90003CE0B4A4
:100DB000A5CBA3E0B45AC6A3E0B4A5C1A3E0B45A3E
:100DC000BCA3E0B4A5B7A3E0B45AB2A3E064A57095
:100DD000ACA3E0645A70A6A3E0F470A1A3E0B51E32
:0F0DE000071215967401F0228000121596E4F0A8
:010DEF0022E1
:07174C00C1C2BBCAAB47217B
:1016100090006CE0FFC394102290006BF0E4A3F004
:081620002253A01F43A0A022E9
:1013A800E4900097F0E4900098F0E4900099F090B1
:1013B8000099E004F0E0B433F6900098E004F0E01F
:0D13C800B440E7900097E004F0E0B41ED8B8
:0113D50022F5
:040C34008E108F117E
:100C380053A01F74801216191216105005120C9723
:100C480080F6E490006CF074881216191216105091
:100C580005120C9780F6E490006CF090006B74908D
:100C6800F0E4A3F01216105005120CB180F6E490CF
:100C7800006CF090006B7498F0E4A3F0121610501A
:0E0C880005120CB180F6E490006CF0121621FB
:100C96002290006BE02FFF12041B7F201205977F26
:100CA6002012059790006CE004F02290006BE02F74
:100CB600FF12041B7F201205977F201205979000D4
:050CC6006CE004F022C7
:101404008D1F53A01F12041BE51F75F00A8424309E
:10141400FF120597E51F75F00A84E5F02430FF12EA
:0B14240005977F3A120597121621224F
:0A0CCB008F128D138B148A15891601
:100CD50053A01F120D58E512D39403400375120358
:100CE500E513D394084003751308E5121460101436
:100CF50060131460162403701AE51324808010E530
:100D0500132488800AE51324908004E51324989021
:100D15000082F0900082E02513F0E0FF12041BAB87
:100D250014AA15A916120E7C900081F06421601892
:100D350074012516F516E43515F515900081E0FFCB
:100D4500120597120D5880D77F017E0012154812A3
:020D5500162165
:090D5700227F017E0012154822E2
:1012CB0053A01F7F331213017F3012041B1213D64E
:1012DB007F301213017F0112041B7F0A7E0012154F
:1012EB00481217247F0A7E001215487F207E0012B9
:1012FB000C341216212212041B7F0A7E0012154891
:01130B0022BF
:1013D600E490006BF0E490006CF0E490006DF09007
:1013E600006DE004F0E0B433F690006CE004F0E049
:0D13F600B440E790006BE004F0E0B403D8D1
:0114030022C6
:0A1724007F3012041B7F0C02041B2F
:0A172E007F3012041B7F0802041B29
:0A1738007F3612041B7F3002041BF1
:0A1742007F3412041B7F3002041BE9
:10113300E490009BF012118B90009A121178C282F6
:1011430012118312118B0012118390009B121178DC
:10115300C28290009AE054F0FFF0A3E0C4540FF071
:10116300540FF04F90009AF07F017E001216ED901D
:04117300009AE0FFFF
:1011770022E580F07F017E001216ED227F017E00BE
:0E1187001216ED22120FF2D280D281D28222F5
:020597008F17BC
:10059900E4900083F0120FF2E51754F0900083F015
:1005A900120ED805E00005E41005EA2005F0300533
:1005B900FA4005FE50060460060A70061480061803
:1005C90090061EA00624B0062EC00632D00638E0DA
:1005D900063EF000000646C2848002D284C28580AD
:1005E9000AC284D2858004D284D285C286C2878019
:1005F9004CC2848002D284C285800AC284D285809A
:1006090004D284D285D286C2878032C2848002D243
:1006190084C285800AC284D2858004D284D285C2EC
:1006290086D2878018C2848002D284C285800AC299
:1006390084D2858004D284D285D286D287120701DA
:10064900C2827F057E001216EDE517C454F09000B2
:1006590083F054F0F0120ED8069500069910069F03
:100669002006A53006AF4006B35006B96006BF7034
:1006790006C98006CD9006D3A006D9B006E3C00608
:10068900E7D006EDE006F3F0000006FBC284800225
:10069900D284C285800AC284D2858004D284D2855C
:1006A900C286C287804CC2848002D284C285800AF5
:1006B900C284D2858004D284D285D286C287803210
:1006C900C2848002D284C285800AC284D285800411
:1006D900D284D285C286D2878018C2848002D2840D
:1006E900C285800AC284D2858004D284D285D2860A
:0706F900D287120701C28243
:0F07000022D280C281D2827F057E001216ED22A6
:02041B008F1739
:10041D00E4900083F0120FF2E51754F0900083F092
:10042D00120ED8046400046810046E2004743004A5
:10043D007E40048250048860048E70049880049C71
:10044D009004A2A004A8B004B2C004B6D004BCE0CD
:10045D0004C2F0000004CAC2848002D284C2858026
:10046D000AC284D2858004D284D285C286C2878096
:10047D004CC2848002D284C285800AC284D2858017
:10048D0004D284D285D286C2878032C2848002D2C1
:10049D0084C285800AC284D2858004D284D285C26A
:1004AD0086D2878018C2848002D284C285800AC217
:1004BD0084D2858004D284D285D286D2877F017E74
:1004CD00001216ED120589C2827F017E001216ED13
:1004DD00E517C454F0900083F0120ED8051D0005E9
:1004ED002110052720052D30053740053B500541CE
:1004FD0060054770055180055590055BA00561B0FD
:10050D00056BC0056FD00575E0057BF00000058318
:10051D00C2848002D284C285800AC284D2858004BE
:10052D00D284D285C286C287804CC2848002D28496
:10053D00C285800AC284D2858004D284D285D286B7
:10054D00C2878032C2848002D284C285800AC2846E
:10055D00D2858004D284D285C286D2878018C28487
:10056D008002D284C285800AC284D2858004D2845E
:0B057D00D285D286D287120589C28287
:0F05880022C280C281D2827F017E001216ED2234
:100FF200E4900085F0A3F0900084F012104E90006F
:101002008512105FC28200007F017E001216ED126F
:10101200104E90008612105FC2820000900086E09F
:10102200C4540FF0540FFFF0900085E054F0F04FDD
:10103200F07F017E001216ED900085E030E70C9003
:0B1042000084E004F0E0C3941440B010
:10104D00227580F0C280D281D2827F017E0012167D
:0D105D00ED22E580F07F017E001216ED22ED
:1014A6002020A440A447A454A57CA4ADA4BBA4E9D1
:1014B600212020A46CC4C1B373BD75AAACBA412067
:0214C6002021E3
:10106A00E0FF04F0746D2FF582E43400F5837420F8
:10107A00F090006CE0FF04F0746D2FF582E4340008
:10108A00F5837420F090006CE0FF04F0746D2FF586
:10109A0082E43400F58322EFF0E0C4540F2430FFD9
:1010AA0090006CE0FE04F0746D2E227421F07B0136
:1010BA007A00796DE4FD22745BF0AE18AF1922E074
:0610CA00241054F0F02296
:0D16B900D2C0D2C10000C2C00000C2C122D8
:0B170300C2C0D2C10000D2C000002212
:0D16C600A20092C0D2C10000C2C1000022EB
:0B170E00D2C10000A2C0C2C100002236
:0C137800C2AF1216B97FDE121384AF045E
:10138400E4FEFDEF25E0FF92C0D2C10000C2C1001F
:10139400000DBD08EE12170E5009AF060EEF941E95
:0313A40040F322F1
:0113A7002223
:1015BF00E4FFD2C0FEEF25E0FFD2C10000A2C0E4DD
:0B15CF00334207C2C100000EBE08EA54
:0115DA0022EE
:10162800AC05AB07121378AF03121384121703D259
:08163800AF7F057E000215489A
:0215DB00AC075B
:1015DD001213781216B97FDF1213841215BFD200C1
:0815ED001216C6121703D2AF5B
:0115F50022D3
:101343008F107F031215DB900091EFF07D077F4034
:101353001216287F0A7E00121548900091E054F877
:10136300F0E044084510F0E0FF7D031216287F0AE1
:051373007E0002154898
:1011F1008D118B12E51220E52B7D061212267D053D
:10120100AF111212267D04AF121212317D02AF13FB
:101211001212317D01AF1412123CE5154480FFE436
:10122100FD12123C221216287F0A7E001215482256
:101231001216287F0A7E00121548221216287F0AEC
:061241007E001215482298
:10150A00900096E0B49903E4F022900096E0540F1C
:0F151A00FFBF09041210C922900096E004F022CE
:1014E900900094E024EE600B2409700E900094742F
:1014F90010F0229000947401F022900094E004F01E
:0115090022BF
:10130C00900091E024F7601324F0601624F060192B
:10131C0024F8701C9000917401F0229000917410CC
:10132C00F0229000917420F0229000917430F02201
:07133C00900091E004F02293
:10142F00900095E024F7601524F0600A24F67014FC
:10143F00E4900095F0229000957420F02290009592
:0B144F007410F022900095E004F022E1
:10152900900093E0B45903E4F022900093E0540F43
:0F153900FFBF09041210C922900093E004F022B2
:10148300900092E0547FF0E0B45903E4F02290001E
:1014930092E0540FFFBF09041210C922900092E09A
:0314A30004F02230
:101640007F011213437513237514597515507B12BE
:071650007D107F110211F172
:10004600E490006CF0121092743212108E7430F03C
:100056007F061215DB9000961210A1121099EFF090
:10006600900096E01210A5121099EFF012108F74FE
:10007600A612108E747E12107A7420F07F05121567
:10008600DB9000941210A1121099EFF0900094E00A
:100096001210A5121099EFF012108F74A412108E80
:1000A60074EBF07F041215DB9000911210A1121070
:1000B60099EFF0900091E01210A5121099EFF0124E
:1000C600108F74A412108E74E912108E1210B5FFE0
:1000D600120CCBE490006CF0AE18AF19EEC313EF20
:1000E6001330E008121092742BF0800612108F74F1
:1000F60020F07F021215DB9000951210A1121099C4
:10010600EFF0900095E01210A5121099EFF0121082
:100116008F743AF07F011215DB9000931210A11232
:100126001099EFF0900093E01210A5121099EFF0DD
:1001360012108F743AF0E4FF1215DBEF547F900033
:10014600921210A2121099EFF0900092E01210A5F0
:10015600121099EFF012107B74AC12108E745012BC
:10016600108E74B412108E74C1F07F031215DB90DA
:100176000091EFF0E05407F0E025E0F0E09014A6DF
:10018600931210A9121099EFF0900091E09014A725
:10019600931210A9121099EFF012108F1210B57F5A
:1001A60002120CCBE490006BF090006BE0FFC3945E
:1001B60010500E1210967420F090006BE004F08040
:1001C600E81210961210B57F01120CCBE490006C69
:1001D600F01210921210C1EF7802CEC313CE13D8CC
:1001E600F990006C30E012121092744312108E7463
:1001F6004F12108E744DF0800612106A7420F012A1
:10020600108F745D12108E1210C1EF7803CEC313D7
:10021600CE13D8F990006C30E01212109274471287
:10022600108E745012108E7453F0800612106A7479
:1002360020F012108F745D12108E1210C1EEC4F8E9
:1002460054F0C8EFC4540F4890006C30E0121210FE
:1002560092744E12108E745412108E7450F08006E2
:1002660012106A7420F012108F745D12107A121038
:06027600B57F03020CCB72
:02027C008F11E0
:10027E00E490006BF07BFF7A1479B7FDFF120CCB84
:10028E0053A01F7F9012038660051203FB8003129A
:10029E0004031205971203EB05117F881203866083
:1002AE00051203FB80031204031205971203EB05DC
:1002BE00117F9812041B1203BA600512040B8003FF
:1002CE001204131205977F5D1205977F2012059772
:1002DE007F2012059705117F9412034D60051204BD
:1002EE000B80031204131205977F5D1205970511FB
:1002FE007F8C12034D60097F4F1205977F4B80074D
:10030E007F581205977F581205977F5D1205970546
:10031E00117F9C12041B7F201205971203BA6009ED
:10032E007F4F1205977F4B80077F581205977F5896
:0E033E001205977F5D12059753A01F43A0A0E4
:10034C002212041B7F20120597E51175F00A8424F4
:10035C0030FF120597E51175F00A84E5F02430FFA3
:10036C001205977F3A1205977F5B1205977400254B
:10037C0011F582E43400F583E02212041BE51175BB
:10038C00F00A842430FF120597E51175F00A84E514
:10039C00F02430FF1205977F3A1205977F5B120508
:1003AC009774002511F582E43400F583E022E51101
:1003BC0075F00A842430FF120597E51175F00A8454
:1003CC00E5F02430FF1205977F3A1205977F5B12F8
:1003DC00059774002511F582E43400F583E0227F43
:1003EC005D1205977F201205977F20120597227FBB
:1003FC004F1205977F4B227F581205977F58227F0B
:0F040C004F1205977F4B227F581205977F58227A
:101195008040AF1012027CAE18AF19EF7806CEC3AF
:1011A50013CE13D8F930E011AE18AF198E18EF54DD
:1011B500BFF519120823EF70FA120823EF14602BFC
:1011C50024FD601304701F74062510F510D394399F
:1011D50040C0E4F51080BBE510C3940640B474FA32
:0B11E5002510F51080AC120D6080A7F3
:0111F00022DC
:1015F60041006A0041005000420068000041006559
:091606000041006700410066008C
:1010D000E0FF04F0746C2FF582E43400F5837402B1
:1010E000F090006BE0FF04F0746C2FF582E43400A4
:1010F000F58322AE1AAF1B8E1AEF54FBF51B90003E
:1011000065E4F0AE1AAF1B8E1AEF2254EFF51BAE5A
:101110001CAF1D8E1CEF2274A5F0A3745AF0A374AB
:10112000A5F0A3745AF0A32290006BE0FE04F074C3
:031130006C2E2200
:100B8200E490006BF01210D07420F07F06120C116A
:100B9200EFF07F05120C11EFF07F04120C261210F9
:100BA200EBEFF07F031215DB900091EFF0E05407BA
:100BB200F0E0FF1211281210EBEFF07F02120C2668
:100BC2001210EBEFF07F011215DB1211281210EB5D
:100BD200EFF0E4FF1215DBEF547FFF121128121021
:100BE200EBEFF090006BE0246C1210EBE0041210BB
:100BF200E07401F090006B1210D07403F07B017A64
:0F0C020000796C7D0C1212897F0A7E0002154862
:100C11001215DB90006BE0FE04F0746C2EF582E49B
:100C21003400F583221215DB90006BE0FE04F074B2
:030C31006C2E2204
:081247008B218A2289238D24EA
:10124F007F017E00121548E4F525E525C39524504E
:10125F0017AB21AA22A923852582758300120E952B
:10126F00FF120026052580E2AE1AAF1BEF7806CEDF
:09127F00C313CE13D8F920E0EFEF
:011288002243
:081289008B128A1389148D15E4
:101291007F017E00121548E4F516E516C395155039
:1012A10017AB12AA13A914851682758300120E9525
:1012B100FF1215A2051680E2AE1AAF1BEF7807CE1A
:0912C100C313CE13D8F920E0EFAD
:0112CA002201
:10002600AD07AE1AAF1BEF7806CEC313CE13D8F9C1
:0D00360020E0EF1211034440F51B8D9922CC
:1015A200AD07AE1AAF1BEF7807CEC313CE13D8F92F
:0D15B20020E0EF1211034480F51B8D9B22F9
:10145A0090003C7402F0A312111712111774FFF0D6
:10146A00A3EFF0A37403F07B017A00793C7D0C12A0
:09147A0012897F0A7E0002154868
:03002300020A02CC
:100A0200C0E0C083C082C0D075D000C000C005C0A5
:030A120006C00714
:100A1500C2AF43C110209803020AA6C298AD9990AF
:100A25000065E4F0AE1CAF1DEF30E075AE1AAF1BEC
:100A3500EF7802CEC313CE13D8F930E04E90006A9A
:100A4500E0FF04F074512FF582E43400F583EDF0F6
:100A550090006AE0640B7049E02450F582E43400AC
:100A6500F583E0AE1AAF1BB4030E8E1AEF441012D5
:100A7500110D54FEF51D800A8E1AEF12110B44015B
:100A8500F51D1210F354FEF51B8016BD021312114D
:100A9500034401F51B1211034404F51B90006AE49D
:0F0AA500F0309909C29912110354BFF51BD2AF5B
:100AB400D007D006D005D000D0D0D082D083D0E0EB
:010AC40032FF
:03004300020AC5E9
:0B0AC500C0E0C083C082C0D075D00824
:100AD000C2AF43C110E59A20E003020B68539AFEAF
:100AE000AD9B900067E4F0AE1AAF1BEF7803CEC366
:100AF00013CE13D8F930E05A900050E0FF04F074A0
:100B00003C2FF582E43400F583EDF0900050E06472
:100B10000B7055E0243BF582E43400F583E0AE1A17
:100B2000AF1BB4030E8E1AEF442012110D54FDF5C5
:100B30001D800C8E1AEF54DF12110D4402F51D12A8
:100B4000110354F7F51B90006712110154FDF51BBA
:100B50008016BD02131211034402F51B1211034447
:100B600008F51B900050E4F0E59A30E10A539AFD35
:090B7000121103547FF51BD2AFF2
:090B7900D0D0D082D083D0E0324C
:03000B0002091DCA
:10091D00C0E0C0F0C083C082C0D075D000C000C0A0
:10092D0006C00743C110758AFB758CDB900068E427
:10093D0075F001120EC2FED3E5F0940AEE9400405C
:10094D0028900068E4F0A3F012110F4404F51D90F7
:10095D000066E0FF04F0EFD39464400DE4F0AE18B0
:10096D00AF198E18EF4480F519AE1AAF1BEF30E0BA
:10097D0024900065E0FF04F0EFC3940540171211B9
:10098D000312110B4401F51DE4F090006AF01210F2
:10099D00F354FEF51BAE1AAF1BEEC313EF1330E08D
:1009AD0043900067E0FF04F0EFC394054036AE1AA4
:1009BD00AF1BEF7803CEC313CE13D8F930E00C1272
:1009CD001103442012110D54FDF51D900067E4F044
:1009DD0090005012110254F7F51B9000671211018F
:1009ED0054FDF51BD007D006D000D0D0D082D083D7
:0509FD00D0F0D0E03253
:0B1719008FC48EC375C65A75C6A5228A
:060EFE008E268F278D28CF
:100F0400120F71E4FFFE1216E0120F71E4F529F5D9
:100F14002AAF2AAE2912169CEFF460037F00220543
:100F24002AE52A70020529C3E529940240E37F0AD1
:100F34007E00121548AD2AAF2AAE291216577590B5
:100F4400F87F0A7E00121548E4F529F52AAF2AAE87
:100F54002912169CEFB52A12052AE52A70020529E2
:0C0F6400C3E529940240E67F01227F00D3
:090F7000227F0A7E0012154822BE
:10000E00AE071FEE600DE4FCFD0DED70010C4C60B3
:03001E00EF80F67A
:0100210022BC
:0D16D300E4F5C7F5C5F5C675C380F5C42262
:0F169C0075C78275C50112171900AFC21216D398
:0116AB00221C
:1016570075C78275C5028FC48EC38DC212171D0050
:031667000216D395
:0D16E00075C78275C503121719000216D3D5
:03000000020DF0FE
:0C0DF000787FE4F6D8FD75812A020E37EA
:100E7C00BB010689828A83E0225002E722BBFE0274
:090E8C00E32289828A83E49322A7
:100E9500BB010CE58229F582E5833AF583E0225012
:100EA50006E92582F8E622BBFE06E92582F8E2225C
:0D0EB500E58229F582E5833AF583E4932276
:100EC200A3F8E0C5F025F0F0E582158270021583E3
:060ED200E0C838F0E82240
:100ED800D083D082F8E4937012740193700DA3A3A9
:100EE80093F8740193F5828883E4737402936860BD
:060EF800EFA3A3A380DFBD
:100DFC00021753E493A3F8E493A34003F68001F2A3
:100E0C0008DFF48029E493A3F85407240CC8C333F7
:100E1C00C4540F4420C8834004F456800146F6DFC6
:100E2C00E4800B01020408102040809015F6E47E4B
:100E3C00019360BCA3FF543F30E509541FFEE493BB
:100E4C00A360010ECF54C025E060A840B8E493A382
:100E5C00FAE493A3F8E493A3C8C582C8CAC583CAAD
:100E6C00F0A3C8C582C8CAC583CADFE9DEE780BE65
:01160F0000DA
:00000001FF
