:06259A00014B00014400AA
:102D4A00D3E5149427E51394012275130175142C05
:012D5A002256
:102AAD008F1275A0407F017E00122BD9E5125407BD
:102ABD00F54BE54B4544F5807F017E00122BD97512
:032ACD00A0A022A4
:102A87008F5675A0407F017E00122BD9E556333350
:102A9700335438F544E544454BF5807F017E0012F9
:062AA7002BD975A0A0224E
:101B4600E4F512F513F51443A00FF51375140AE521
:101B5600141514AE13700215134E7003021C2512D1
:101B66001C28F512640F60E7E51224F5603424FEA4
:101B7600605614607924076003021C22122D54E576
:101B86001445136012E514151470021513121C285F
:101B9600640760EB7F0422122D4A40037F00227FF8
:101BA6000422122D54E51445136012E51415147021
:101BB600021513121C34640B60EB7F0322122D4AAC
:101BC60040037F00227F0322122D54E51445136043
:101BD60012E514151470021513121C34640D60EB13
:101BE6007F0222122D4A40037F00227F0222122DFD
:101BF60054E5144513601AE5141514700215137F85
:101C0600017E00122BD9E5A0540F640E60E37F011C
:101C160022122D4A40037F00227F01227F00227F6D
:011C260000BD
:101C2700227F017E00122BD9E5A0540F227F017E6F
:091C370000122BD9E5A0540F2284
:062785008B1D8A1E891F56
:10278B00120AAE9002B8F09002B77401F09002B743
:10279B00E0FFC39D5020A3E0FEAB1DAA1EA91F8F17
:1027AB0082758300120AC7FFEE6F9002B8F0900299
:0B27BB00B7E004F080D79002B8E0FF08
:0127C60022F0
:0620EB00AA058F828E831E
:1020F100BA02047F0180027F00BA01047E018002DE
:102101007E00EE4F600C740C2AFAE5821582700293
:102111001583EA2401FFE433FE7C007D03120B28C2
:102121007D05120B3AAC06AD07EA75F002A47A0000
:102131002BFFEA35F0CF2DCF3CCF2582FDEF358344
:10214100FCE582AE837802CEC313CE13D8F92DFB02
:10215100EC3EFA7C007D64AF82AE83120B3AC3EB96
:102161009FFBEA9EFAAE83AF827C017D90120B3A0F
:10217100EF2BFFEE3AFE7C007D07120B3AED04FFD8
:01218100223B
:102BD900EF1FAA0670011E4A6013E4FCFDC3ED94C1
:0D2BE9001CEC940250EA0DBD00010C80F0C0
:012BF60022BC
:0B2F8300EF1FAC0670011E4C70F62220
:102BF700F548AE47AF488E47EF22F546AE45AF469C
:0E2C07008E45EF22F54AAE49AF4A8E49EF22C4
:0B2F8E007F0A7E00122BD975BBFF22CA
:102D6C00438901758AFB758CDBD28CD2A9D2AF2238
:102C8A00759850438920EF6007E4F58BF58D80062F
:0B2C9A00758BFD758DFDD28ED2AC2233
:0D2F4200759A50759CB8438E1475AF01222E
:10233900122BF954FE122BF754FD122BF754FB12F2
:102349002BF754F7122BF754EF122BF754DF122BFC
:10235900F754BF122BF7547FF548122C0D44011284
:102369002C0B4402122C0B54FB122C0B4404F54A7F
:10237900122C034402122C014404122C01440812A9
:102389002C014410122C0154DF122C0154BF122CC1
:10239900014480F5467F0C900296E4F0A3DFFC7FB0
:1023A90001122AAD90021F7401F0FF7E00122BD991
:0723B900122C0D54F7F54A48
:0123C00022FA
:102AD000122F8EE4FF122C8A122F42122D6C122319
:102AE00039E4F5A05380F775A0A012284B123000EE
:032AF000022D09AB
:062FFA00122AD00218D9D2
:10288C000B00000000000000000000000000000031
:10289C00000000000000000000000000000000002C
:1028AC000000000000000000D6C81F56D16872B0AE
:1028BC00000102030405060708090A0B0C0D0E0F94
:10115900EF04F0E0C4540F7E00540F24BCF582EE76
:101169003428F583E493C454F0FF22E0FF04F074BB
:101179007B2FF582E43402F5837402F090027AE061
:10118900FF04F0747B2FF582E43402F583222FF0FB
:10119900E075F00A84C454F0FFE075F00A84EF2585
:1011A900F0F022E0FFE4FCFDFE900280120CC190F9
:1011B9000280020CA97B80780090027C120CA91293
:1011C9000C04AC00AD01AE02AF032274A22557F5A1
:1011D90082E43402F583E004F074A22557F582E431
:1011E9003402F58322900222E0FFA3E0FDA3E0FB95
:1011F900900226E0F515A3E0F516A3E0F51722FC09
:10120900900280120CC190027C120CA990028012EB
:101219000CB5120BBB90027C020CC1F583E024D003
:10122900F0741F2FF582E43402F583E022AE49AF52
:101239004A8E49EF22900284E0241CF582E43402AC
:10124900F583E022F0E0C454F0F0E0FF2274212F8E
:10125900F582E43402F583E022900284E0241EF54D
:1012690082E43402F583E022741D2FF582E434020E
:10127900F583E022E0540F9028BC9322900284E089
:10128900FF2420F582E434022290027AE0FE04F081
:10129900747B2E22741B2FF582E43402F583E0223D
:1012A900AE47AF48EEC4F854F0C8EFC4540F482213
:1012B900AE45AF468E45EF227B807A5179017800A1
:1012C900020C0474962557F582E43402F58322F062
:1012D900900284E004F02290021F7401F0FF7E0066
:0E12E90022900284E0FFC32290027C020CA936
:1018D900E4F510AE49AF4AEF7807CEC313CE13D85B
:1018E900F930E03090021FE064017028121236547A
:1018F9007FF54A7F01122AAD1212E0122BD9E4902A
:101909000279F07F01FE122BD97BFF7A28798C7D31
:10191900301227C7AE45AF46EF7807CEC313CE13B3
:10192900D8F930E00D121F96121F961212B9547F82
:10193900F5461212A920E059AE45AF46EF7805CE1B
:10194900C313CE13D8F930E005121E158021120DEC
:1019590024AE45AF46EF7806CEC313CE13D8F9307F
:10196900E00D1212B954BFF546121B46EF70FA1278
:10197900123654FBF54AAE49AF4AEF7805CEC31388
:10198900CE13D8F930E00A121D3512123654DFF59C
:101999004A121B46EF6401703FAE45AF46EF78052A
:1019A900CEC313CE13D8F95401F4FF7E00EF5401CE
:1019B9007805C333CE33CED8F9FFAC45AD46ED54E7
:1019C900DFFDEC4EF545ED4FF5461212364404F5B0
:1019D9004A1212B94440F546121B46BF04031208C5
:1019E90038121B46BF0303120F971212A920E003F6
:1019F9000218DC120046AE47AF488E47EF54EFF5A8
:0B1A0900481212364401F54A0218DCB6
:1000460090027C120CCD00000000900280120CCDB4
:100056000000000090021FE0600302034A9002794C
:10006600E0D39414500302032CE09450400302039F
:100076002C900221E06424600302032CA3E0644771
:10008600600302032CA3E06450600302032CA3E088
:100096006452600302032CA3E0644D600302032C48
:1000A600A3E06443600302032CA3E0642C60030214
:1000B600032C1205449002847407F01212EA940D80
:1000C6005010121256C39430500302032C1212D948
:1000D60080E9900228E0C39433400302032CA3E096
:1000E600C3943A400302032CA3E0C39436400302B0
:1000F600032CA3E0C3943A400302032CA3E0C39469
:1001060036400302032CA3E0C3943A400302032CB7
:100116009002847407F01212EA940D500A121256D5
:1001260024D01212D880EF900228E07010A3E0C30A
:1001360094025002801590022874018019900228BA
:10014600E0B4011FA3E0C394025006E02408F08047
:10015600259002287402F0A3E0F404FFC374FE9F06
:10016600F08013900228E0B4020CE4F0A3E0F4045B
:10017600FFC374049FF0900228E090022612124DED
:10018600900229E0FEEF4E900226F090022AE090BF
:10019600022712124D90022BE0FEEF4E900227F03E
:1001A60090022CE090022812124D90022DE0FEEFF4
:1001B6004E900228F0E4900285F0900279E09002D9
:1001C60084F0900284E0FFD39407401C121256B4C8
:1001D6002C06900285E004F0900285E06403600836
:1001E600900284E014F080DA121285F583E0C3945D
:1001F6003A400302032C12122AC3943A4003020324
:100206002C121262C39433400302032C121271C3E0
:100216009432400302032C12123EC3943A40030266
:10022600032C12129DC39434400302032C900284C3
:10023600E012128AF583E0C39430500302032C12B5
:10024600122AC39430500302032C121262C3943054
:10025600500302032C121271C39430500302032C74
:1002660012123EC39430500302032C12129DC39403
:1002760030500302032C12128512122424D0F0747B
:100286001E2F12126824D0F012127124D0F0741CA2
:100296002F12124424D0F0741B2FF582E43402127C
:1002A600122490022212124D900284E0FE12128A4B
:1002B600F583E0FDEF4D900222F0741D2E121274AC
:1002C60090022312124D900284E0FE121266FDEF98
:1002D6004D900223F0741B2E1212A09002241212CB
:1002E6004D12123EFEEF4E900224F0900222E024C0
:1002F600D0FFE43407FEA3E0FDA3E0FB1220EB9061
:100306000286EFF0E0FF600A12290A7F017E0012E2
:100316002BD91211EE1226A112123654EFF54A7F8E
:10032600017E00122BD912123654F7F54A7F0A7E47
:1003360000122BD9E4FF122AADE490021FF07F01D0
:10034600FE02050D90021FE064016003020518908D
:100356000249E0FF900241E06F600302051090023F
:100366004AE0FF900242E06F600302051090024BE4
:10037600E0FF900243E06F600302051090024CE03C
:10038600FF900244E06F60030205101205449002DC
:10039600491211AC7818120C961211B2E4FFFEFD48
:1003A600EC1211B212121E90024A1211AC781012FF
:1003B6000C961211B2E4FFFEE412120890024B12E0
:1003C60011AC7808120C961211B2E4FFE4FD121279
:1003D6000890027C120CB590024CE0FFE4FCFDFE96
:1003E60012121B1212F1EF2480FFEE3470FEE43D70
:1003F600FDE43CFC12121E7B3E7A8579E1780112FF
:1004060012F1120C04EF249CFFEE34FF90027AF0F6
:10041600A3EFF090022212115B90022212127D903D
:1004260002221211977B3E7A8579E178011211C278
:100436007B6F7A2079287800120C0490022312111F
:100446005990022312127D9002231211977B6F7A24
:100456002079281211C01212C1900224121159904B
:10046600022412127D2F9002241211987A517901DA
:100476001211BEE47B107A0EF9F8120C04900226D3
:10048600EF12115B90022612127D2F900226121196
:1004960098E47B107A0EF9F81211C2E47B3CFAF963
:1004A600F8120C04900227EF12115B900227121229
:1004B6007D2F900227121198E47B3CFAF9F812126C
:1004C600F1120C04900228EB12115B900228121212
:1004D6007D2F9002281211987A3A79091211BE12CC
:1004E60012C1EF04FF900286F012290A900228E05A
:1004F60004F01211EE1226A17F0A7E00122BD97F7C
:1005060001122AAD1212E0022BD912123654BFF58F
:100516004A2290021FE064027023900284F01212B5
:10052600EA9408500A12125624E01212D880EF906C
:0D0536000225E0FF12290A1211EE1226A183
:10054300227F02122AAD90021F7402F07F017E0007
:10055300122BD97F017E00122BD97B017A027921DC
:10056300900279E0FD1227C77F0A7E00122BD92261
:101D35000557E557C3940C4003E4F557E490027A40
:101D4500F090027B7401F0A3742CF090027A740673
:101D5500F0AF571225F47F647E00122BD9AF5712CE
:101D650025F490027BE07002A3E07003021DF7905A
:101D7500027B74FFF5F0120B8F7F017E00122BD9C9
:101D850075150075160075170C7B017A02790A1214
:101D9500204FEF60CD90020AE0B402C6A3E0B4A5DF
:101DA500C1A3E0B45ABCA3E0B4A5B7A3E0B45AB24A
:101DB500A3E0B4A5ADA3E0645A70A7A3E064A57041
:101DC500A1A3E0645A709BA3E0F47096900215E01D
:101DD5006403708E900214E0B5570C1211E2E4F022
:101DE5001212CC7401F0221211D4E0C39403401FE7
:101DF500801890027AE004F0E0C394065003021DB7
:0F1E0500461211D4E0C3940340051212CCE4F04E
:011E140022AB
:101F9600E490027AF01211747420F07F0612202C5D
:101FA600EFF07F0512202CEFF07F04122041121172
:101FB6008FEFF07F03122CA59002AEEFF0E05407EE
:101FC600F0E0FF12129212118FEFF07F0212204101
:101FD60012118FEFF07F01122CA512129212118F9F
:101FE600EFF0E4FF122CA5EF547FFF1212921211AC
:101FF6008FEFF090027AE0247B12118FE004121129
:10200600847401F090027A1211747403F07B017AE1
:1020160002797B7D0C122C337F647E00122BD97FD4
:062026000A7E00022BD926
:10202C00122CA590027AE0FE04F0747B2EF582E46B
:10203C003402F58322122CA590027AE0FE04F0748F
:03204C007B2E22C6
:072FEC00C1C2BBCAAB4721C3
:102D5B0090027BE0FFC394102290027AF0E4A3F080
:012D6B002245
:1029AA00E49002B4F0E49002B5F0E49002B6F0903C
:1029BA0002B6E004F0E0B433F69002B5E004F0E0C9
:0D29CA00B440E79002B4E004F0E0B41ED881
:0129D70022DD
:042182008E118F1219
:10218600E4F5A07480122D64122D5B50051221E532
:1021960080F6E490027BF07488122D64122D5B5059
:1021A600051221E580F6E490027BF090027A7490A5
:1021B600F0E4A3F0122D5B50051221FF80F6E490A7
:1021C600027BF090027A7498F0E4A3F0122D5B5033
:0E21D600051221FF80F6E490027BF075A0A0B8
:1021E4002290027AE02FFF1214937F2012160D7FA3
:1021F4002012160D90027BE004F02290027AE02F68
:10220400FF1214937F2012160D7F2012160D9002D8
:052214007BE004F02254
:102A06008D58E4F5A0121493E55875F00A84243025
:102A1600FF12160DE55875F00A84E5F02430FF1212
:0B2A2600160D7F3A12160D75A0A022BD
:0A2219008F138D148B158A16891798
:10222300E4F5A07F01FE122BD9E513D394034003F9
:10223300751303E514D394084003751408E51314C8
:1022430060101460131460162403701AE5142480BC
:102253008010E5142488800AE51424908004E51492
:102263002498900291F0900291E02514F0E0FF127F
:102273001493AB15AA16A917120AAE900290F06434
:1022830021601C74012517F517E43516F516900225
:1022930090E0FF12160D7F017E00122BD980D37FB1
:0922A300017E00122BD975A0A0E8
:0122AC00220F
:10284B00E4F5A07F331228817F301214931229D81C
:10285B007F301228817F011214937F0A7E00122B86
:10286B00D9122FBA7F0A7E00122BD97F207E00123D
:10287B00218275A0A0221214937F0A7E00122BD9FD
:01288B00222A
:1029D800E490027AF0E490027BF0E490027CF090BC
:1029E800027CE004F0E0B433F690027BE004F0E00F
:0D29F800B440E790027AE004F0E0B403D8A8
:012A050022AE
:0A2FBA007F301214937F0C02149371
:0A2FC4007F301214937F080214936B
:0A2FCE007F361214937F3002149333
:0A2FD8007F341214937F300214932B
:10253800E49002BAF01225909002B912257DC28269
:10254800122588122590001225889002BA12257D3E
:10255800C2829002B9E054F0FFF0A3E0C4540FF037
:10256800540FF04F9002B9F07F017E00122F839034
:0425780002B9E0FFC5
:10257C0022E580F07F017E00122F83227F017E00F6
:0E258C00122F8322122448D280D281D28222C2
:02160D008F1834
:10160F00E4900292F0122448E51854F0900292F000
:10161F00120CFE165600165A10166020166630165B
:10162F007040167450167A60168070168A80168E67
:10163F00901694A0169AB016A4C016A8D016AEE0B5
:10164F0016B4F0000016BCC2848002D284C285801A
:10165F000AC284D2858004D284D285C286C2878092
:10166F004CC2848002D284C285800AC284D2858013
:10167F0004D284D285D286C2878032C2848002D2BD
:10168F0084C285800AC284D2858004D284D285C266
:10169F0086D2878018C2848002D284C285800AC213
:1016AF0084D2858004D284D285D286D287121777CE
:1016BF00C2827F057E00122F83E518C454F090027A
:1016CF0092F054F0F0120CFE170B00170F101715B5
:1016DF0020171B30172540172950172F601735700B
:1016EF00173F801743901749A0174FB01759C017CE
:1016FF005DD01763E01769F000001771C284800294
:10170F00D284C285800AC284D2858004D284D285D5
:10171F00C286C287804CC2848002D284C285800A6E
:10172F00C284D2858004D284D285D286C287803289
:10173F00C2848002D284C285800AC284D28580048A
:10174F00D284D285C286D2878018C2848002D28486
:10175F00C285800AC284D2858004D284D285D28683
:07176F00D287121777C28236
:0F17760022D280C281D2827F057E00122F832271
:021493008F18B0
:10149500E4900292F0122448E51854F0900292F07C
:1014A500120CFE14E00014E41014DC2014EA3014CD
:1014B500F44014F85014FE60150470150E801512D2
:1014C500901518A0151EB01528C0152CD01532E0A2
:1014D5001538F000001540C284800CC2848002D209
:1014E50084C2858004D284D285C286C287804CC2DC
:1014F500848002D284C285800AC284D2858004D2C7
:1015050084D285D286C2878032C2848002D284C2C8
:1015150085800AC284D2858004D284D285C286D2CF
:10152500878018C2848002D284C285800AC284D290
:10153500858004D284D285D286D2877F017E00122F
:101545002F831215FFC2827F017E00122F83E518BB
:10155500C454F0900292F0120CFE159300159710EA
:10156500159D2015A33015AD4015B15015B7601563
:10157500BD7015C78015CB9015D1A015D7B015E155
:10158500C015E5D015EBE015F1F0000015F9C284A2
:101595008002D284C285800AC284D2858004D28426
:1015A500D285C286C287804CC2848002D284C2851D
:1015B500800AC284D2858004D284D285D286C2872D
:1015C5008032C2848002D284C285800AC284D285D8
:1015D5008004D284D285C286D2878018C2848002D4
:1015E500D284C285800AC284D2858004D284D28501
:0915F500D286D2871215FFC282D2
:0F15FE0022C280C281D2827F017E00122F8322FF
:10244800E4900294F0A3F0900293F01224A4900276
:10245800941224B5C28200007F017E00122F8312DD
:1024680024A49002951224B5C2820000900295E03F
:10247800C4540FF0540FFFF0900294E054F0F04F62
:10248800F07F017E00122F83900294E030E70C90D9
:0B2498000293E004F0E0C3941440B095
:1024A300227580F0C280D281D2827F017E00122FFA
:0D24B3008322E580F07F017E00122F83223E
:102B16002020A440A447A454A57CA4ADA4BBA4E94A
:102B2600212020A46CC4C1B373BD75AAACBA4120E0
:022B360020215C
:1024C000E0FF04F0747C2FF582E43402F58374207D
:1024D000F090027BE0FF04F0747C2FF582E434027C
:1024E000F5837420F090027BE0FF04F0747C2FF5FC
:1024F00082E43402F58322E0C4540F2430FF9002BA
:102500007BE0FE04F0747C2E227421F07B017A02C1
:10251000797CE4FD22745BF0AE45AF4622EEC4F850
:1025200054F0C8EFC4540F4822AE45AF468E45EF75
:0825300022E0241054F0F02217
:0D2F4F00D2C0D2C10000C2C00000C2C12229
:0B2F9900C2C0D2C10000D2C000002264
:0D2F5C00A20092C0D2C10000C2C10000223C
:0B2FA400D2C10000A2C0C2C100002288
:0C297A00C2AF122F4F7FDE122986AF047F
:10298600E4FEFDEF25E0FF92C0D2C10000C2C10007
:10299600000DBD08EE122FA45009AF060EEF941ECF
:0329A60040F322D9
:0129A900220B
:102C6E00E4FFD2C0FEEF25E0FFD2C10000A2C0E417
:0B2C7E00334207C2C100000EBE08EA8E
:012C89002228
:102CD900AC05AB0712297AAF03122986122F99D2B4
:082CE900AF7F057E00022BD92C
:022CA500AC077A
:102CA70012297A122F4F7FDF122986122C6ED2003B
:082CB700122F5C122F99D2AF1D
:012CBF0022F2
:10290A008F127F03122CA59002AEEFF07D077F4055
:10291A00122CD97F017E00122BD9E5129002AEB497
:10292A00FF05E044088009E054F8F0E04408451245
:09293A00F0E0FF7D03122CD9220C
:1026A1008D138B147D061226DE7D05AF131226DEF7
:1026B1007D04AF141226E97D02AF151226E97D01D2
:1026C100AF16122CD97F017E00122BD9E517448059
:1026D100FFE4FD122CD97F017E00022BD9122CD9E7
:1026E1007F017E00122BD922122CD97F017E00128C
:0326F1002BD922C0
:102B9B009002B3E0B49903E4F0229002B3E0540F37
:0F2BAB00FFBF0904122531229002B3E004F0228B
:102B38009002B1E024EE600B2409700E9002B1748B
:102B480010F0229002B17401F0229002B1E004F07A
:012B5800225A
:102943009002AEE024F7601324F0601624F06019BF
:1029530024F8701C9002AE7401F0229002AE741041
:10296300F0229002AE7420F0229002AE7430F02276
:072973009002AEE004F02227
:102A31009002B2E024F7601524F0600A24F67014C5
:102A4100E49002B2F0229002B27420F0229002B21D
:0B2A51007410F0229002B2E004F022AA
:102BBA009002B0E0B45903E4F0229002B0E0540F5E
:0F2BCA00FFBF0904122531229002B0E004F0226F
:102AF3009002AFE0547FF0E0B45903E4F022900277
:102B0300AFE0540FFFBF0904122531229002AFE05A
:032B130004F022A9
:053000007FFF02290A18
:100D2400E490027BF01224E874321224E47430F06C
:100D34007F06122CA59002B3EFF01224F71224EFD1
:100D4400EFF09002B3E01224F91224EFEFF0122432
:100D5400E574A61224E4747E1224D07420F07F0576
:100D6400122CA59002B1EFF0E0D394124003741258
:100D7400F09002B11224F71224EFEFF09002B1E0E8
:100D84001224F91224EFEFF01224E574A41224E4DF
:100D940074EBF07F04120F8DD3943140037431F05F
:100DA4009002AE1224F71224EFEFF09002AEE0129C
:100DB40024F91224EFEFF01224E574A41224E4744D
:100DC400E91224E4122509FF122219E490027BF0AF
:100DD400AE45AF46EEC313EF1330E0081224E874B7
:100DE4002BF080061224E57420F07F02122CA590CB
:100DF40002B2EFF0E0D3942340037423F09002B2E4
:100E04001224F71224EFEFF09002B2E01224F91248
:100E140024EFEFF01224E5743AF07F01122CA59030
:100E240002B0EFF0E0D3945940037459F09002B04B
:100E34001224F71224EFEFF09002B0E01224F9121A
:100E440024EFEFF01224E5743AF0E4FF122CA5EF3E
:100E5400547F9002AFF0E0D3945940037459F0905A
:100E640002AF1224F71224EFEFF09002AFE0122445
:100E7400F91224EFEFF01224D174AC1224E474506C
:100E84001224E474B41224E474C1F07F03120F8DAD
:100E94005407F0E025E0F0E0902B16931224FD12A5
:100EA40024EFEFF09002AEE0902B17931224FD1282
:100EB40024EFEFF01224E51225097F02122219E42F
:100EC40090027AF090027AE0FFC39410500E12243C
:100ED400EC7420F090027AE004F080E81224EC1222
:100EE40025097F01122219E490027BF01224E812F2
:100EF4002515EF7802CEC313CE13D8F990027B30B8
:100F0400E0121224E874431224E4744F1224E474AB
:100F14004DF080061224C07420F01224E5745D1292
:100F240024E4122515EF7803CEC313CE13D8F99019
:100F3400027B30E0121224E874471224E474501245
:100F440024E47453F080061224C07420F01224E5C3
:100F5400745D1224E412251512251D90027B30E0E5
:100F6400121224E8744E1224E474541224E47450CB
:100F7400F080061224C07420F01224E5745D12245B
:090F8400D01225097F0302221995
:0A0F8D00122CA59002AEEFF0E02256
:0212F7008F1254
:1012F900E490027AF07BFF7A2B7927FDFF122219FD
:10130900E4F5A07F901213FE600512147380031296
:10131900147B12160D12146305127F881213FE60D6
:1013290005121473800312147B12160D121463052F
:10133900127F9812149312143260051214838003D9
:1013490012148B12160D7F5D12160D7F2012160DC9
:101359007F2012160D05127F941213C56005121411
:1013690083800312148B12160D7F5D12160D051260
:101379007F8C1213C560097F4F12160D7F4B8007B2
:101389007F5812160D7F5812160D7F5D12160D0526
:10139900127F9C1214937F2012160D1214326009C9
:1013A9007F4F12160D7F4B80077F5812160D7F58FD
:0B13B90012160D7F5D12160D75A0A02E
:1013C400221214937F2012160DE51275F00A84245C
:1013D40030FF12160DE51275F00A84E5F02430FF93
:1013E40012160D7F3A12160D7F5B12160D74962598
:1013F40012F582E43402F583E022121493E51275A7
:10140400F00A842430FF12160DE51275F00A84E503
:10141400F02430FF12160D7F3A12160D7F5B121660
:101424000D74962512F582E43402F583E022E51268
:1014340075F00A842430FF12160DE51275F00A8443
:10144400E5F02430FF12160D7F3A12160D7F5B1261
:10145400160D74962512F582E43402F583E0227F9A
:101464005D12160D7F2012160D7F2012160D227F9D
:101474004F12160D7F4B227F5812160D7F58227F74
:0F1484004F12160D7F4B227F5812160D7F5822E4
:101E1500E4F511AF111212F7AE45AF46EF7806CED5
:101E2500C313CE13D8F930E00D12252954BFF5465A
:101E3500121B46EF70FA121B46EF147003021ED8F0
:101E450024FD601304702674062511F511C3940C46
:101E55004012E4F511800DE511C39406400674FAAD
:101E65002511F5111225294440F54680A6AE49AF46
:101E75004AEF7805CEC313CE13D8F930E00E121D04
:101E850035AE49AF4A8E49EF54DFF54AAE47AF4804
:101E950012251D30E019120046AE47AF488E47EFB8
:101EA50054EFF548AE49AF4A8E49EF4401F54AAEC5
:101EB50045AF46EF7807CEC313CE13D8F920E0031C
:101EC500021E18121F96121F96122529547FF546D9
:031ED500021E18D2
:011ED80022E7
:1025A00041021F004102790041021E0042027600F2
:1025B0000041027100410275004102740041027243
:0D25C000004102780041027300410220003A
:10264B00AE47AF488E47EF54FBF548900271E4F06C
:10265B00AE47AF488E47EF224410F548AE49AF4A1C
:10266B008E49EF22900279E0FF04F074212FF5825E
:10267B00E43402F5832274A5F0A3745AF0A374A575
:10268B00F0A3745AF0A322E0FF04F0EFD322F54A33
:06269B00900279E4F02238
:0827C7008B128A1389148D1591
:1027CF007F017E00122BD9E4F516E516C39515503F
:1027DF0017AB12AA13A914851682758300120AC7A4
:1027EF00FF120026051680E2AE47AF48EF7806CEFF
:0927FF00C313CE13D8F920E0EF5A
:0128080022AD
:082809008B4C8A4D894E8D4F66
:102811007F017E00122BD9E4F550E550C3954F504E
:1028210017AB4CAA4DA94E855082758300120AC779
:10283100FF122C51055080E2AE47AF48EF7807CE2A
:09284100C313CE13D8F920E0EF17
:01284A00226B
:10002600AD07AE47AF48EF7806CEC313CE13D8F967
:0D00360020E0EF12265B4440F5488D992232
:102C5100AD07AE47AF48EF7807CEC313CE13D8F90F
:0D2C610020E0EF12265B4480F5488D9B2299
:0225F4008F1244
:1025F6007F017E00122BD990020A7402F0A31226E4
:102606008112268174FFF0A3E512F0A37403F07B18
:10261600017A02790A7D0C122C337F017E00122B7F
:10262600D9E490027DF090027DE0FFC3940C501433
:10263600740A2FF582E43402F583E4F090027DE01B
:0426460004F080E23A
:01264A00226D
:030023000217853C
:10178500C0E0C083C082C0D075D000C000C005C015
:0317950006C00784
:10179800C2AF43C1102098030218BAC298AD9990FD
:1017A8000271E4F0AE49AF4AEF20E0030218BA90A4
:1017B800021FE0705BAE49AF4AEEC4F854F0C8EFC0
:1017C800C4540F4830E049BD2419AE49AF4AEF78F8
:1017D80003CEC313CE13D8F920E0081226674408B5
:1017E800122699AE49AF4AEF7803CEC313CE13D869
:1017F800F920E0030218BA12266FEDF0640A6003BC
:101808000218BA900279E02421122679E4F08026A1
:1018180090021FE06401702BAE49AF4AEF7806CE04
:10182800C313CE13D8F930E01A12266FEDF09002E8
:1018380079E06430707C12265B12266354FEF54A08
:101848000218BA90021FE064027067AE47AF48EF13
:101858007802CEC313CE13D8F930E04012266FEDCC
:10186800F0900279E0640B7049E02420F582E434BA
:1018780002F583E0AE47AF48B4030C8E47EF12265B
:101888006354FEF54A800C8E47EF54EF12266544E8
:1018980001F54A12264B54FEF5488016BD02131274
:1018A800265B4401F54812265B4404F5489002790A
:1018B800E4F0309909C29912265B54BFF548D2AFBB
:1018C800D007D006D005D000D0D0D082D083D0E0C9
:0118D80032DD
:03004300021ED9C1
:0B1ED900C0E0C083C082C0D075D008FC
:101EE400C2AF43C110E59A20E003021F7C539AFE5F
:101EF400AD9B900275E4F0AE47AF48EF7803CEC3D4
:101F040013CE13D8F930E05A90021EE0FF04F074A7
:101F14000A2FF582E43402F583EDF090021EE064AA
:101F24000B7055E02409F582E43402F583E0AE47F2
:101F3400AF48B4030E8E47EF442012266554FDF5D6
:101F44004A800C8E47EF54DF1226654402F54A128C
:101F5400265B54F7F54890027512265954FDF5484E
:101F64008016BD021312265B4402F54812265B4418
:101F740008F54890021EE4F0E59A30E10A539AFD10
:091F840012265B547FF548D2AF30
:091F8D00D0D0D082D083D0E03224
:03000B00021A14C2
:101A1400C0E0C0F0C083C082C0D075D000C000C098
:101A240006C00743C110758AFB758CDB900276E40F
:101A340075F001120BA5FED3E5F0940AEE94004074
:101A440073900276E4F0A3F090022012269294019F
:101A54004009E4F01226674404F54A900274122601
:101A640092941E400DE4F0AE45AF468E45EF44809F
:101A7400F54690027212269294C8400AE4F01226A7
:101A840067441012269990027312269294644011AE
:101A9400E4F01226674440F54A1226674480122671
:101AA4009990027812269294144009E4F012266761
:101AB4004420F54AAE47AF48EF30E026900271E08B
:101AC400FF04F0EFC39405401912265B54EF12266D
:101AD400654401F54AE4F0900279F012264B54FE75
:101AE400F548AE47AF48EEC313EF1330E04390021E
:101AF40075E0FF04F0EFC394054036AE47AF48EFFE
:101B04007803CEC313CE13D8F930E00C12265B440D
:101B14002012266554FDF54A900275E4F090021EE9
:101B240012265A54F7F54890027512265954FDF5B9
:101B340048D007D006D000D0D0D082D083D0F0D007
:021B4400E0328D
:102CF1008FC48EC375C65A75C6A52274002555F5B5
:082D01008274003554F58322B1
:0623C1008E518F528D5376
:1023C700E4F554F555AF55AE54122D7C122CFCEFA5
:1023D700F00555E55570020554C3E554940240E5F0
:1023E700E4FFFE122F76E4F554F555AF55AE5412BF
:1023F7002D7CEFF470480555E55570020554C3E58B
:1024070054940240E67F0A7E00122BD974002552AD
:10241700F58274003551F583E553F0E4F554F5552D
:10242700122CFCE0FDAF55AE54122D370555E5557E
:1024370070020554C3E554940240E57F01227F00F2
:012447002272
:10000E00AE071FEE600DE4FCFD0DED70010C4C60B3
:03001E00EF80F67A
:0100210022BC
:0D2F6900E4F5C7F5C5F5C675C380F5C422B3
:0F2D7C0075C78275C501122CF100AFC2122F6905
:012D8B002225
:102D370075C78275C5028FC48EC38DC2122CF5006C
:032D4700022F69EF
:0D2F760075C78275C503122CF100022F698A
:08000300C0C0C0C0C0C0C0C0F5
:1025CD0020232100080010A7625BF80322F80047C2
:1025DD00B610181D1CC700B2EA2A00115981350921
:0625ED0006060405000CC7
:102D200090027FE0AB15AA16A91722C3900282E099
:072D30009F900281E09E224A
:102A5C00E4900281F0A3F0122D2B5009E475F001E3
:102A6C00120B8F80F2E4900281F0A3F0122D2B5008
:0A2A7C0009E475F001120B8F80F2DF
:012A8600222D
:102CC000000000000000000000000000000000EF15
:092CD0001F70011E144E70E82271
:072FF300C294C297D29422A0
:0A2FE200122FF37F887E13022A5C91
:1028CC00E490028AF0C297900289F0EF30E704D2CC
:1028DC00958002C295EF25E0FFD297000090028A06
:1028EC00E025E0F0309603E004F0C297000090027F
:0D28FC0089E004F0E0B408D390028AE0FF08
:0129090022AB
:102D8C00C2942096FD7F301228CC2096FDD294223E
:102C1500D2947F017E00122CC0C2947F017E0012E7
:0E2C25002CC0D2947F297E00122CC0022D8C70
:102D9C00C2942096FD1228CCAF051228CCD29422D6
:06273F008B148A158916B7
:10274500EF4440900288F0C2942096FD900288E004
:10275500FF1228CCE4900287F0900287E0FFC39532
:1027650017501AAB14AA15A9168F82758300120A81
:0F277500C7FF1228CC900287E004F080DCD294DA
:012784002232
:0B2FAF00C2942096FD1228CCD2942280
:102B5900EF4480900281F0C2942096FD900281E0BA
:102B6900FF1228CCE4FF1228CC900282EFF0D29415
:012B79002239
:0626F4008B198A1A891BF4
:1026FA00EF44C0900282F0C2942096FD900282E0DC
:10270A00FF1228CCE4900281F0900281E0C3951C6C
:10271A005020E4FF1228CCAB19AA1AA91B900281F7
:10272A00E0F582758300EF120B06900281E004F057
:04273A0080D7D294DE
:01273E002278
:102B7A00EF44C0900282F0C2942096FD900282E057
:102B8A00FF1228CCE4FF1228CC900281EFF0D294F5
:012B9A002218
:101C4000AD217F0C122D9CAD227F0B122D9CAD235C
:101C50007F0C122D9CAD247F0D122D9CAD257F0E87
:101C6000122D9CAD267F0F122D9CAD277F10122DBB
:101C70009CAD287F11122D9CAD297F12122D9CAD99
:101C80002A7F13122D9CAD2B7F14122D9CAD2C7F1F
:101C90000A122D9CAD2D7F15122D9CAD2E7F211289
:101CA0002D9CAD2F7F22122D9CAD307F18122D9CC4
:101CB000AD317F19122D9CAD327F1A122D9CAD33A0
:101CC0007F1B122D9CAD347F1C122D9CAD357F1DCA
:101CD000122D9CAD367F23122D9CAD377F24122D03
:101CE0009CAD387F25122D9CAD397F26122D9CADE1
:101CF0003A7F29122D9CAD3B7F2C122D9CAD3C7F51
:101D00002D122D9CAD3D7F2E122D9CAD3EE4FF1279
:101D10002D9CAD3F7F02122D9CAD407F07122D9C64
:101D2000AD417F08122D9CAD427F09122D9CAD4321
:051D30007F06022D9C5E
:102C3300AC057F3F122D9C8C177F3F12273F7F35BA
:0E2C4300122FAF30B3FD20B3FD7F3B022FAF49
:053005007F34022FAF33
:06204F008B128A138914B4
:10205500122D24120AAE25E025E0900280F07F348F
:10206500122FAF7F027E00122A5C30B3167F027EEC
:1020750000122A5C900280E014F0E0C3940150EA5B
:102085007F00227F3B122B7AEF547F60567F3F12F1
:102095002B5990027FEFF0122D24120AAEFEEFD3DA
:1020A5009E5032AB12AA13A91490027FE0F51C7F53
:1020B5003F1226F4122D20120AF47B017A02797D53
:1020C500751C027F3F1226F47F3A122FAF90027ED5
:1020D500E05480FF22122D20120AF47F3A122FAF0E
:0520E5007F00227F00D6
:0120EA0022D3
:102D0900122FE2122C15121C407BFF7A00790375F1
:072D190017087F3E02273F6F
:1005730061742B776966695F636F6E663D4E65775D
:1005830063616C20576972656C6573732C77657052
:100593002C323233383936313831313232330D0A75
:1005A3000061742B72656D6F746569703D74696D5C
:1005B300652E73746474696D652E676F762E747718
:1005C3000D0A0061742B72656D6F7465706F7274C0
:1005D3003D3132330D0A0061742B4765745F4D4121
:1005E300433D3F0D0A0061742B776966695F53636E
:1005F300616E3D3F0D0A0061742B6F75745F7472F9
:10060300616E733D300061742B6E65746D6F64654C
:100613003D320D0A0061742B64686370643D300DD4
:100623000A0061742B6D6F64653D636C69656E745C
:100633000D0A0061742B6E65746D6F64653D330D37
:100643000A0061742B64686370643D310D0A0061B4
:10065300742B64686370645F69703D3139322E3185
:1006630036382E31302E312C3139322E3136382E68
:1006730031302E3235342C3235352E3235352E325B
:1006830035352E302C3139322E3136382E31302E4D
:100693003132350D0A0061742B64686370645F64E2
:1006A3006E733D3139322E3136382E31302E312CA6
:1006B300302E302E302E300D0A0061742B646863A7
:1006C30070645F74696D653D393630300D0A0061C1
:1006D300742B776966695F636F6E663D4E54502075
:1006E3007365727665722C777061325F6165732C06
:1006F30031323334353637380D0A0061742B646870
:100703006370633D310D0A0061742B6E65745F691C
:10071300703D3139322E3136382E31302E32332C72
:100723003235352E3235352E3235352E302C3139A2
:10073300322E3136382E31302E39380D0A0061749D
:100743002B6E65745F646E733D302E302E302E3009
:100753002C302E302E302E300D0A0061742B726532
:100763006D6F746570726F3D7463700D0A00617410
:100773002B72656D6F746570726F3D7564700D0AD1
:100783000061742B6D6F64653D7365727665720DE0
:100793000A0061742B72656D6F746569703D323048
:1007A300322E3131322E33312E3139370D0A006179
:1007B300742B72656D6F7465706F72743D31323373
:1007C3000D0A0061742B74696D656F75743D300D8E
:1007D3000A0061742B756172743D393630302C38E0
:1007E3002C6E2C310D0A0061742B7561727470616B
:1007F300636B74696D656F75743D3130300D0A003C
:1008030061742B756172747061636B6C656E3D31DD
:1008130030300D0A0061742B6E65745F636F6D6D0C
:1008230069743D310D0A0061742B7265636F6E6EDE
:050833003D310D0A003B
:0E2DAC007BFF7A0579737D311227C77F0122E4
:0E2DBA007BFF7A0579FA7D0F1227C77F012271
:0E2DC8007BFF7A0679997D241227C77F0122AE
:0E2DD6007BFF7A0779417D1D1227C77F0122FE
:0E2DE4007BFF7A0679097D0F1227C77F012237
:0E2DF2007BFF7A0679367D0F1227C77F0122FC
:0E2E00007BFF7A0679D27D2C1227C77F012234
:0E2E0E007BFF7A0679FE7D0D1227C77F012219
:0E2E1C007BFF7A0679457D0D1227C77F0122C4
:0E2E2A007BFF7A0679187D0D1227C77F0122E3
:0E2E38007BFF7A0679527D471227C77F012261
:0E2E46007BFF7A0679BD7D151227C77F01221A
:0E2E54007BFF7A0879187D121227C77F0122B2
:0E2E62007BFF7A0779957D1D1227C77F01221D
:0E2E70007BFF7A0779B27D141227C77F0122FB
:0E2E7E007BFF7A0579A47D221227C77F0122EF
:0E2E8C007BFF7A0579C67D141227C77F0122CD
:0E2E9A007BFF7A07795E7D131227C77F012226
:0E2EA8007BFF7A0779717D131227C77F012205
:0E2EB6007BFF7A0779C67D0F1227C77F0122A6
:0E2EC4007BFF7A0779847D111227C77F0122D8
:0E2ED2007BFF7A0679257D111227C77F01222A
:0E2EE0007BFF7A0779D57D151227C77F012267
:0E2EEE007BFF7A0879037D151227C77F01222A
:0E2EFC007BFF7A0779EA7D191227C77F012232
:0E2F0A007BFF7A08792A7D0E1227C77F0122ED
:0E2F18007BFF7A0579DA7D0F1227C77F012231
:0E2F26007BFF7A0579E97D111227C77F012212
:0E2F34007BFF7A07790B7D361227C77F0122BB
:100F9700121130121130C2C4C2C4C2C41210D8D246
:100FA700C4D2C4D2C41210D81210E0122DE4EF70CC
:100FB70002FF221210E0122E1CEF7002FF22121005
:100FC700E8122DACEF7002FF221210E8122E0EEF7E
:100FD7007002FF221210F0122EA8EF7002FF2212E9
:100FE70010F0122ED2EF7002FF221210F8122E7E8E
:100FF700EF7002FF221210F8122E8CEF7002FF2200
:10100700121100122EB6EF7002FF22121100122EDB
:10101700E0EF7002FF22121108122EFCEF7002FFA0
:1010270022121108122EEEEF7002FF221211101277
:101037002DE4EF7002FF22121110122E1CEF700226
:10104700FF22121118122DACEF7002FF2212111895
:10105700122E0EEF7002FF22121120122EA8EF702F
:1010670002FF22121120122ED2EF7002FF2212115C
:1010770028122E7EEF7002FF22121128122E8CEFFB
:101087007002FF22121149122EB6EF7002FF2212D0
:101097001149122EE0EF7002FF22121151122EFC9D
:1010A700EF7002FF22121151122EEEEF7002FF2293
:1010B7007F647E00122BD9122E54EF7002FF227F1D
:1010C700647E00122BD9122F0AEF7002FF227F01D4
:1010D700227F647E00122BD9227F647E00122BD9D7
:1010E700227F647E00122BD9227F647E00122BD9C7
:1010F700227F647E00122BD9227F647E00122BD9B7
:10110700227F647E00122BD9227F647E00122BD9A6
:10111700227F647E00122BD9227F647E00122BD996
:10112700227F647E00122BD9227F01122AAD900202
:101137001F7401F0FF7E00122BD97F0A7E00122B4D
:10114700D9227F647E00122BD9227F647E00122B66
:02115700D9229B
:10083800120A85120A85C2C4C2C4C2C41209FDD2F2
:10084800C4D2C4D2C41209FD120A05122DF2EF70E7
:1008580002FF22120A05122E1CEF7002FF22120A52
:100868000D122E38EF7002FF22120A0D122DC8EF5A
:100878007002FF22120A15122E46EF7002FF221292
:100888000A15122E00EF7002FF22120A1D122E0EF8
:10089800EF7002FF22120A1D122F34EF7002FF229E
:1008A800120A25122DD6EF7002FF22120A25122EE7
:1008B8009AEF7002FF22120A2D122EC4EF7002FF67
:1008C80022120A2D122E62EF7002FF22120A35122E
:1008D8002E70EF7002FF22120A35122EB6EF700248
:1008E800FF22120A3D122EE0EF7002FF22120A3D8B
:1008F800122EFCEF7002FF22120A45122EEEEF7044
:1009080002FF22120A45122DF2EF7002FF22120A8C
:100918004D122E1CEF7002FF22120A4D122E38EFD4
:100928007002FF22120A55122DC8EF7002FF221220
:100938000A55122E46EF7002FF22120A5D122E008F
:10094800EF7002FF22120A5D122E0EEF7002FF22D4
:10095800120A65122F34EF7002FF22120A65122D57
:10096800D6EF7002FF22120A6D122E9AEF7002FF64
:1009780022120A6D122EC4EF7002FF22120A75129B
:100988002E62EF7002FF22120A75122E70EF7002AB
:10099800FF22120A7D122EB6EF7002FF22120A7D84
:1009A800122EE0EF7002FF22120A9E122EFCEF7048
:1009B80002FF22120A9E122EEEEF7002FF22120A86
:1009C800A6122E54EF7002FF22120AA6122F0AEF67
:1009D8007002FF227F647E00122BD9122E54EF7012
:1009E80002FF227F647E00122BD9122F0AEF7002B9
:1009F800FF227F01227F647E00122BD9227F647E32
:100A080000122BD9227F647E00122BD9227F647EAC
:100A180000122BD9227F647E00122BD9227F647E9C
:100A280000122BD9227F647E00122BD9227F647E8C
:100A380000122BD9227F647E00122BD9227F647E7C
:100A480000122BD9227F647E00122BD9227F647E6C
:100A580000122BD9227F647E00122BD9227F647E5C
:100A680000122BD9227F647E00122BD9227F647E4C
:100A780000122BD9227F647E00122BD9227F01120B
:100A88002AAD90021F7401F0FF7E00122BD97F0A55
:100A98007E00122BD9227F647E00122BD9227F641C
:060AA8007E00122BD92292
:030000000222AD2C
:0C22AD00787FE4F6D8FD7581580222F419
:100AAE00BB010689828A83E0225002E722BBFE0246
:090ABE00E32289828A83E4932279
:100AC700BB010CE58229F582E5833AF583E02250E4
:100AD70006E92582F8E622BBFE06E92582F8E2222E
:0D0AE700E58229F582E5833AF583E4932248
:100AF400BB010689828A83F0225002F722BBFE01E1
:020B0400F322DA
:100B0600F8BB010DE58229F582E5833AF583E8F025
:100B1600225006E92582C8F622BBFE05E92582C8D1
:020B2600F222B9
:100B2800EF8DF0A4A8F0CF8CF0A428CE8DF0A42EE1
:020B3800FE229B
:100B3A00BC000BBE0029EF8DF084FFADF022E4CC9F
:100B4A00F875F008EF2FFFEE33FEEC33FCEE9DEC68
:100B5A00984005FCEE9DFE0FD5F0E9E4CEFD22EDAE
:100B6A00F8F5F0EE8420D21CFEADF075F008EF2FF8
:100B7A00FFED33FD4007985006D5F0F222C398FDE9
:050B8A000FD5F0EA2286
:100B8F00C5F0F8A3E028F0C5F0F8E58215827002F1
:060B9F001583E038F0228E
:100BA500A3F8E0C5F025F0F0E58215827002158303
:060BB500E0C838F0E82260
:0D0BBB00EF2BFFEE3AFEED39FDEC38FC2289
:100BC80075F008758200EF2FFFEE33FECD33CDCCE4
:100BD80033CCC58233C5829BED9AEC99E582984067
:100BE8000CF582EE9BFEED9AFDEC99FC0FD5F0D644
:100BF800E4CEFBE4CDFAE4CCF9A88222B800C1B96E
:100C08000059BA002DEC8BF084CFCECDFCE5F0CBAB
:100C1800F97818EF2FFFEE33FEED33FDEC33FCEBE4
:100C280033FB10D703994004EB99FB0FD8E5E4F99F
:100C3800FA227818EF2FFFEE33FEED33FDEC33FC8C
:100C4800C933C910D7059BE99A4007EC9BFCE99A80
:100C5800F90FD8E0E4C9FAE4CCFB2275F010EF2FC5
:100C6800FFEE33FEED33FDCC33CCC833C810D707C5
:100C78009BEC9AE899400AED9BFDEC9AFCE899F800
:0E0C88000FD5F0DAE4CDFBE4CCFAE4C8F92293
:100C9600E8600FEFC333FFEE33FEED33FDEC33FCBC
:030CA600D8F12260
:0C0CA900E0FCA3E0FDA3E0FEA3E0FF22BE
:0C0CB500E0F8A3E0F9A3E0FAA3E0FB22C2
:0C0CC100ECF0A3EDF0A3EEF0A3EFF022A6
:100CCD00A8828583F0D083D082120CE4120CE4123A
:100CDD000CE4120CE4E473E493A3C583C5F0C5835F
:100CED00C8C582C8F0A3C583C5F0C583C8C582C871
:010CFD0022D4
:100CFE00D083D082F8E4937012740193700DA3A385
:100D0E0093F8740193F5828883E473740293686098
:060D1E00EFA3A3A380DF98
:1022B900022FFAE493A3F8E493A34003F68001F212
:1022C90008DFF48029E493A3F85407240CC8C33326
:1022D900C4540F4420C8834004F456800146F6DFF5
:1022E900E4800B010204081020408090259AE47EC6
:1022F900019360BCA3FF543F30E509541FFEE493EA
:10230900A360010ECF54C025E060A840B8E493A3B0
:10231900FAE493A3F8E493A3C8C582C8CAC583CADB
:10232900F0A3C8C582C8CAC583CADFE9DEE780BE93
:0125F30000E7
:00000001FF
